{
  "address": "0x1cB0cF700a56753c07195c90D6eA681d5295b12A",
  "abi": [
    {
      "inputs": [
        {
          "internalType": "contract IERC20",
          "name": "token_",
          "type": "address"
        },
        {
          "internalType": "contract IArbUnionWrapper",
          "name": "arbUnionWrapper_",
          "type": "address"
        },
        {
          "internalType": "address",
          "name": "destinationAddress_",
          "type": "address"
        }
      ],
      "stateMutability": "nonpayable",
      "type": "constructor"
    },
    {
      "anonymous": false,
      "inputs": [
        {
          "indexed": true,
          "internalType": "address",
          "name": "caller",
          "type": "address"
        },
        {
          "indexed": false,
          "internalType": "address",
          "name": "destination",
          "type": "address"
        },
        {
          "indexed": false,
          "internalType": "uint256",
          "name": "amount",
          "type": "uint256"
        }
      ],
      "name": "LogDeposit",
      "type": "event"
    },
    {
      "anonymous": false,
      "inputs": [
        {
          "indexed": true,
          "internalType": "address",
          "name": "previousOwner",
          "type": "address"
        },
        {
          "indexed": true,
          "internalType": "address",
          "name": "newOwner",
          "type": "address"
        }
      ],
      "name": "OwnershipTransferred",
      "type": "event"
    },
    {
      "inputs": [],
      "name": "approveToken",
      "outputs": [],
      "stateMutability": "nonpayable",
      "type": "function"
    },
    {
      "inputs": [],
      "name": "arbUnionWrapper",
      "outputs": [
        {
          "internalType": "contract IArbUnionWrapper",
          "name": "",
          "type": "address"
        }
      ],
      "stateMutability": "view",
      "type": "function"
    },
    {
      "inputs": [
        {
          "internalType": "address",
          "name": "recipient",
          "type": "address"
        }
      ],
      "name": "claimTokens",
      "outputs": [],
      "stateMutability": "nonpayable",
      "type": "function"
    },
    {
      "inputs": [
        {
          "internalType": "uint256",
          "name": "maxGas",
          "type": "uint256"
        },
        {
          "internalType": "uint256",
          "name": "gasPriceBid",
          "type": "uint256"
        },
        {
          "internalType": "uint256",
          "name": "maxSubmissionCost",
          "type": "uint256"
        }
      ],
      "name": "deposit",
      "outputs": [],
      "stateMutability": "payable",
      "type": "function"
    },
    {
      "inputs": [],
      "name": "destinationAddress",
      "outputs": [
        {
          "internalType": "address",
          "name": "",
          "type": "address"
        }
      ],
      "stateMutability": "view",
      "type": "function"
    },
    {
      "inputs": [],
      "name": "owner",
      "outputs": [
        {
          "internalType": "address",
          "name": "",
          "type": "address"
        }
      ],
      "stateMutability": "view",
      "type": "function"
    },
    {
      "inputs": [],
      "name": "renounceOwnership",
      "outputs": [],
      "stateMutability": "nonpayable",
      "type": "function"
    },
    {
      "inputs": [],
      "name": "token",
      "outputs": [
        {
          "internalType": "contract IERC20",
          "name": "",
          "type": "address"
        }
      ],
      "stateMutability": "view",
      "type": "function"
    },
    {
      "inputs": [
        {
          "internalType": "address",
          "name": "newOwner",
          "type": "address"
        }
      ],
      "name": "transferOwnership",
      "outputs": [],
      "stateMutability": "nonpayable",
      "type": "function"
    },
    {
      "stateMutability": "payable",
      "type": "receive"
    }
  ],
  "transactionHash": "0xf9f13cb2bb30fcbd9fb863814d727cf75c2ede125f446fd00eb9c1d421a6c82f",
  "args": [
    "0xBd3a3c823A7442193BE5Ca8005D98F0599Cc8bD5",
    "0xf5FAaC2191f0a17162Fd1E672c89556038b7dabc",
    "0x195754d1027C9802cD6817F9116F49b98801Ff25"
  ],
  "solcInputHash": "7531379ec0bf249bb81ccc981a76299c",
  "bytecode": "0x60e060405234801561001057600080fd5b506040516200129938038062001299833981016040819052610031916100b1565b61003a33610061565b6001600160601b0319606093841b811660805291831b821660a05290911b1660c052610115565b600080546001600160a01b038381166001600160a01b0319831681178455604051919092169283917f8be0079c531659141344cd1fd0a4f28419497f9722a3daafe3b4186f6b6457e09190a35050565b6000806000606084860312156100c5578283fd5b83516100d0816100fd565b60208501519093506100e1816100fd565b60408501519092506100f2816100fd565b809150509250925092565b6001600160a01b038116811461011257600080fd5b50565b60805160601c60a05160601c60c05160601c6110e2620001b76000396000818161013a015281816104f201526105ba0152600081816101060152818161028d0152818161036a0152818161042c015281816104d10152818161065f015281816106b40152818161076b01526108100152600081816101ae015281816101ea0152818161063d01528181610692015281816108b0015261094a01526110e26000f3fe6080604052600436106100795760003560e01c8062aeef8a14610085578063715018a61461009a5780638da5cb5b146100af57806399b71d5c146100df578063c163858e146100f4578063ca32546914610128578063df8de3e71461015c578063f2fde38b1461017c578063fc0c546a1461019c57600080fd5b3661008057005b600080fd5b610098610093366004610f24565b6101d0565b005b3480156100a657600080fd5b506100986105fa565b3480156100bb57600080fd5b506000546001600160a01b03165b6040516100d69190610f97565b60405180910390f35b3480156100eb57600080fd5b50610098610630565b34801561010057600080fd5b506100c97f000000000000000000000000000000000000000000000000000000000000000081565b34801561013457600080fd5b506100c97f000000000000000000000000000000000000000000000000000000000000000081565b34801561016857600080fd5b50610098610177366004610e16565b6106db565b34801561018857600080fd5b50610098610197366004610e16565b610976565b3480156101a857600080fd5b506100c97f000000000000000000000000000000000000000000000000000000000000000081565b6040516370a0823160e01b81526000906001600160a01b037f000000000000000000000000000000000000000000000000000000000000000016906370a082319061021f903090600401610f97565b60206040518083038186803b15801561023757600080fd5b505afa15801561024b573d6000803e3d6000fd5b505050506040513d601f19601f8201168201806040525081019061026f9190610f0c565b905080156105f457604051630ea598cb60e41b8152600481018290527f00000000000000000000000000000000000000000000000000000000000000006001600160a01b03169063ea598cb090602401602060405180830381600087803b1580156102d957600080fd5b505af11580156102ed573d6000803e3d6000fd5b505050506040513d601f19601f820116820180604052508101906103119190610e4e565b6103505760405162461bcd60e51b815260206004820152600b60248201526a1ddc985c0819985a5b195960aa1b60448201526064015b60405180910390fd5b6040516370a0823160e01b81526000906001600160a01b037f000000000000000000000000000000000000000000000000000000000000000016906370a082319061039f903090600401610f97565b602060405180830381600087803b1580156103b957600080fd5b505af11580156103cd573d6000803e3d6000fd5b505050506040513d601f19601f820116820180604052508101906103f19190610f0c565b905060008360405160200161041791815260406020820181905260009082015260600190565b604051602081830303815290604052905060007f00000000000000000000000000000000000000000000000000000000000000006001600160a01b031663f887ea406040518163ffffffff1660e01b8152600401602060405180830381600087803b15801561048557600080fd5b505af1158015610499573d6000803e3d6000fd5b505050506040513d601f19601f820116820180604052508101906104bd9190610e32565b9050806001600160a01b031663d2ce7d65347f00000000000000000000000000000000000000000000000000000000000000007f0000000000000000000000000000000000000000000000000000000000000000878c8c896040518863ffffffff1660e01b815260040161053696959493929190610fab565b6000604051808303818588803b15801561054f57600080fd5b505af1158015610563573d6000803e3d6000fd5b50505050506040513d6000823e601f3d908101601f1916820160405261058c9190810190610e6e565b50336001600160a01b03167f5c8d1f77b6233deba47b516a690497af4c7f1be42a768e331832cb02b3400d6b7f0000000000000000000000000000000000000000000000000000000000000000866040516105e8929190610ff4565b60405180910390a25050505b50505050565b6000546001600160a01b031633146106245760405162461bcd60e51b815260040161034790611020565b61062e6000610a11565b565b6106856001600160a01b037f0000000000000000000000000000000000000000000000000000000000000000167f00000000000000000000000000000000000000000000000000000000000000006000610a61565b61062e6001600160a01b037f0000000000000000000000000000000000000000000000000000000000000000167f0000000000000000000000000000000000000000000000000000000000000000600019610a61565b6000546001600160a01b031633146107055760405162461bcd60e51b815260040161034790611020565b6001600160a01b0381166107515760405162461bcd60e51b81526020600482015260136024820152720726563697069656e742063616e74206265203606c1b6044820152606401610347565b6040516370a0823160e01b81526000906001600160a01b037f000000000000000000000000000000000000000000000000000000000000000016906370a08231906107a0903090600401610f97565b602060405180830381600087803b1580156107ba57600080fd5b505af11580156107ce573d6000803e3d6000fd5b505050506040513d601f19601f820116820180604052508101906107f29190610f0c565b9050801561089657604051636f074d1f60e11b8152600481018290527f00000000000000000000000000000000000000000000000000000000000000006001600160a01b03169063de0e9a3e90602401602060405180830381600087803b15801561085c57600080fd5b505af1158015610870573d6000803e3d6000fd5b505050506040513d601f19601f820116820180604052508101906108949190610e4e565b505b6040516370a0823160e01b81526000906001600160a01b037f000000000000000000000000000000000000000000000000000000000000000016906370a08231906108e5903090600401610f97565b60206040518083038186803b1580156108fd57600080fd5b505afa158015610911573d6000803e3d6000fd5b505050506040513d601f19601f820116820180604052508101906109359190610f0c565b90508015610971576109716001600160a01b037f0000000000000000000000000000000000000000000000000000000000000000168483610bab565b505050565b6000546001600160a01b031633146109a05760405162461bcd60e51b815260040161034790611020565b6001600160a01b038116610a055760405162461bcd60e51b815260206004820152602660248201527f4f776e61626c653a206e6577206f776e657220697320746865207a65726f206160448201526564647265737360d01b6064820152608401610347565b610a0e81610a11565b50565b600080546001600160a01b038381166001600160a01b0319831681178455604051919092169283917f8be0079c531659141344cd1fd0a4f28419497f9722a3daafe3b4186f6b6457e09190a35050565b801580610aea5750604051636eb1769f60e11b81523060048201526001600160a01b03838116602483015284169063dd62ed3e9060440160206040518083038186803b158015610ab057600080fd5b505afa158015610ac4573d6000803e3d6000fd5b505050506040513d601f19601f82011682018060405250810190610ae89190610f0c565b155b610b555760405162461bcd60e51b815260206004820152603660248201527f5361666545524332303a20617070726f76652066726f6d206e6f6e2d7a65726f60448201527520746f206e6f6e2d7a65726f20616c6c6f77616e636560501b6064820152608401610347565b6109718363095ea7b360e01b8484604051602401610b74929190610ff4565b60408051601f198184030181529190526020810180516001600160e01b03166001600160e01b031990931692909217909152610bca565b6109718363a9059cbb60e01b8484604051602401610b74929190610ff4565b6000610c1f826040518060400160405280602081526020017f5361666545524332303a206c6f772d6c6576656c2063616c6c206661696c6564815250856001600160a01b0316610c9c9092919063ffffffff16565b8051909150156109715780806020019051810190610c3d9190610e4e565b6109715760405162461bcd60e51b815260206004820152602a60248201527f5361666545524332303a204552433230206f7065726174696f6e20646964206e6044820152691bdd081cdd58d8d9595960b21b6064820152608401610347565b6060610cab8484600085610cb5565b90505b9392505050565b606082471015610d165760405162461bcd60e51b815260206004820152602660248201527f416464726573733a20696e73756666696369656e742062616c616e636520666f6044820152651c8818d85b1b60d21b6064820152608401610347565b843b610d645760405162461bcd60e51b815260206004820152601d60248201527f416464726573733a2063616c6c20746f206e6f6e2d636f6e74726163740000006044820152606401610347565b600080866001600160a01b03168587604051610d809190610f7b565b60006040518083038185875af1925050503d8060008114610dbd576040519150601f19603f3d011682016040523d82523d6000602084013e610dc2565b606091505b5091509150610dd2828286610ddd565b979650505050505050565b60608315610dec575081610cae565b825115610dfc5782518084602001fd5b8160405162461bcd60e51b8152600401610347919061100d565b600060208284031215610e27578081fd5b8135610cae81611097565b600060208284031215610e43578081fd5b8151610cae81611097565b600060208284031215610e5f578081fd5b81518015158114610cae578182fd5b600060208284031215610e7f578081fd5b815167ffffffffffffffff80821115610e96578283fd5b818401915084601f830112610ea9578283fd5b815181811115610ebb57610ebb611081565b604051601f8201601f19908116603f01168101908382118183101715610ee357610ee3611081565b81604052828152876020848701011115610efb578586fd5b610dd2836020830160208801611055565b600060208284031215610f1d578081fd5b5051919050565b600080600060608486031215610f38578182fd5b505081359360208301359350604090920135919050565b60008151808452610f67816020860160208601611055565b601f01601f19169290920160200192915050565b60008251610f8d818460208701611055565b9190910192915050565b6001600160a01b0391909116815260200190565b600060018060a01b03808916835280881660208401525085604083015284606083015283608083015260c060a0830152610fe860c0830184610f4f565b98975050505050505050565b6001600160a01b03929092168252602082015260400190565b602081526000610cae6020830184610f4f565b6020808252818101527f4f776e61626c653a2063616c6c6572206973206e6f7420746865206f776e6572604082015260600190565b60005b83811015611070578181015183820152602001611058565b838111156105f45750506000910152565b634e487b7160e01b600052604160045260246000fd5b6001600160a01b0381168114610a0e57600080fdfea2646970667358221220660965e4d1bf137dcd9cf4b302b544b003cb60c776491a010b6f5ce9253738c264736f6c63430008040033",
  "devdoc": {
    "kind": "dev",
    "methods": {
      "owner()": {
        "details": "Returns the address of the current owner."
      },
      "renounceOwnership()": {
        "details": "Leaves the contract without owner. It will not be possible to call `onlyOwner` functions anymore. Can only be called by the current owner. NOTE: Renouncing ownership will leave the contract without an owner, thereby removing any functionality that is only available to the owner."
      },
      "transferOwnership(address)": {
        "details": "Transfers ownership of the contract to a new account (`newOwner`). Can only be called by the current owner."
      }
    },
    "version": 1
  },
  "userdoc": {
    "kind": "user",
    "methods": {},
    "version": 1
  },
  "storageLayout": {
    "storage": [
      {
        "astId": 3806,
        "contract": "contracts/treasury/ArbConnector.sol:ArbConnector",
        "label": "_owner",
        "offset": 0,
        "slot": "0",
        "type": "t_address"
      }
    ],
    "types": {
      "t_address": {
        "encoding": "inplace",
        "label": "address",
        "numberOfBytes": "20"
      }
    }
  }
}