{
  "address": "0xf5FAaC2191f0a17162Fd1E672c89556038b7dabc",
  "abi": [
    {
      "inputs": [
        {
          "internalType": "address",
          "name": "_routerAddr",
          "type": "address"
        },
        {
          "internalType": "address",
          "name": "_gatewayAddr",
          "type": "address"
        },
        {
          "internalType": "address",
          "name": "_unionToken",
          "type": "address"
        }
      ],
      "stateMutability": "nonpayable",
      "type": "constructor"
    },
    {
      "anonymous": false,
      "inputs": [
        {
          "indexed": true,
          "internalType": "address",
          "name": "owner",
          "type": "address"
        },
        {
          "indexed": true,
          "internalType": "address",
          "name": "spender",
          "type": "address"
        },
        {
          "indexed": false,
          "internalType": "uint256",
          "name": "value",
          "type": "uint256"
        }
      ],
      "name": "Approval",
      "type": "event"
    },
    {
      "anonymous": false,
      "inputs": [
        {
          "indexed": true,
          "internalType": "address",
          "name": "previousOwner",
          "type": "address"
        },
        {
          "indexed": true,
          "internalType": "address",
          "name": "newOwner",
          "type": "address"
        }
      ],
      "name": "OwnershipTransferred",
      "type": "event"
    },
    {
      "anonymous": false,
      "inputs": [
        {
          "indexed": true,
          "internalType": "address",
          "name": "from",
          "type": "address"
        },
        {
          "indexed": true,
          "internalType": "address",
          "name": "to",
          "type": "address"
        },
        {
          "indexed": false,
          "internalType": "uint256",
          "name": "value",
          "type": "uint256"
        }
      ],
      "name": "Transfer",
      "type": "event"
    },
    {
      "anonymous": false,
      "inputs": [
        {
          "indexed": true,
          "internalType": "address",
          "name": "_account",
          "type": "address"
        }
      ],
      "name": "Unwhitelisted",
      "type": "event"
    },
    {
      "anonymous": false,
      "inputs": [],
      "name": "WhitelistDisabled",
      "type": "event"
    },
    {
      "anonymous": false,
      "inputs": [],
      "name": "WhitelistEnabled",
      "type": "event"
    },
    {
      "anonymous": false,
      "inputs": [
        {
          "indexed": true,
          "internalType": "address",
          "name": "_account",
          "type": "address"
        }
      ],
      "name": "Whitelisted",
      "type": "event"
    },
    {
      "inputs": [
        {
          "internalType": "address",
          "name": "owner",
          "type": "address"
        },
        {
          "internalType": "address",
          "name": "spender",
          "type": "address"
        }
      ],
      "name": "allowance",
      "outputs": [
        {
          "internalType": "uint256",
          "name": "",
          "type": "uint256"
        }
      ],
      "stateMutability": "view",
      "type": "function"
    },
    {
      "inputs": [
        {
          "internalType": "address",
          "name": "spender",
          "type": "address"
        },
        {
          "internalType": "uint256",
          "name": "amount",
          "type": "uint256"
        }
      ],
      "name": "approve",
      "outputs": [
        {
          "internalType": "bool",
          "name": "",
          "type": "bool"
        }
      ],
      "stateMutability": "nonpayable",
      "type": "function"
    },
    {
      "inputs": [
        {
          "internalType": "address",
          "name": "account",
          "type": "address"
        }
      ],
      "name": "balanceOf",
      "outputs": [
        {
          "internalType": "uint256",
          "name": "",
          "type": "uint256"
        }
      ],
      "stateMutability": "view",
      "type": "function"
    },
    {
      "inputs": [],
      "name": "decimals",
      "outputs": [
        {
          "internalType": "uint8",
          "name": "",
          "type": "uint8"
        }
      ],
      "stateMutability": "view",
      "type": "function"
    },
    {
      "inputs": [
        {
          "internalType": "address",
          "name": "spender",
          "type": "address"
        },
        {
          "internalType": "uint256",
          "name": "subtractedValue",
          "type": "uint256"
        }
      ],
      "name": "decreaseAllowance",
      "outputs": [
        {
          "internalType": "bool",
          "name": "",
          "type": "bool"
        }
      ],
      "stateMutability": "nonpayable",
      "type": "function"
    },
    {
      "inputs": [],
      "name": "disableWhitelist",
      "outputs": [],
      "stateMutability": "nonpayable",
      "type": "function"
    },
    {
      "inputs": [],
      "name": "enableWhitelist",
      "outputs": [],
      "stateMutability": "nonpayable",
      "type": "function"
    },
    {
      "inputs": [],
      "name": "gateway",
      "outputs": [
        {
          "internalType": "address",
          "name": "",
          "type": "address"
        }
      ],
      "stateMutability": "view",
      "type": "function"
    },
    {
      "inputs": [],
      "name": "getChainId",
      "outputs": [
        {
          "internalType": "uint256",
          "name": "chainId",
          "type": "uint256"
        }
      ],
      "stateMutability": "view",
      "type": "function"
    },
    {
      "inputs": [
        {
          "internalType": "address",
          "name": "spender",
          "type": "address"
        },
        {
          "internalType": "uint256",
          "name": "addedValue",
          "type": "uint256"
        }
      ],
      "name": "increaseAllowance",
      "outputs": [
        {
          "internalType": "bool",
          "name": "",
          "type": "bool"
        }
      ],
      "stateMutability": "nonpayable",
      "type": "function"
    },
    {
      "inputs": [],
      "name": "isArbitrumEnabled",
      "outputs": [
        {
          "internalType": "uint16",
          "name": "",
          "type": "uint16"
        }
      ],
      "stateMutability": "view",
      "type": "function"
    },
    {
      "inputs": [
        {
          "internalType": "address",
          "name": "_account",
          "type": "address"
        }
      ],
      "name": "isWhitelisted",
      "outputs": [
        {
          "internalType": "bool",
          "name": "",
          "type": "bool"
        }
      ],
      "stateMutability": "view",
      "type": "function"
    },
    {
      "inputs": [],
      "name": "name",
      "outputs": [
        {
          "internalType": "string",
          "name": "",
          "type": "string"
        }
      ],
      "stateMutability": "view",
      "type": "function"
    },
    {
      "inputs": [],
      "name": "owner",
      "outputs": [
        {
          "internalType": "address",
          "name": "",
          "type": "address"
        }
      ],
      "stateMutability": "view",
      "type": "function"
    },
    {
      "inputs": [
        {
          "internalType": "address",
          "name": "l2CustomTokenAddress",
          "type": "address"
        },
        {
          "internalType": "uint256",
          "name": "maxSubmissionCostForCustomBridge",
          "type": "uint256"
        },
        {
          "internalType": "uint256",
          "name": "maxSubmissionCostForRouter",
          "type": "uint256"
        },
        {
          "internalType": "uint256",
          "name": "maxGas",
          "type": "uint256"
        },
        {
          "internalType": "uint256",
          "name": "gasPriceBid",
          "type": "uint256"
        }
      ],
      "name": "registerTokenOnL2",
      "outputs": [],
      "stateMutability": "payable",
      "type": "function"
    },
    {
      "inputs": [],
      "name": "renounceOwnership",
      "outputs": [],
      "stateMutability": "nonpayable",
      "type": "function"
    },
    {
      "inputs": [],
      "name": "router",
      "outputs": [
        {
          "internalType": "address",
          "name": "",
          "type": "address"
        }
      ],
      "stateMutability": "view",
      "type": "function"
    },
    {
      "inputs": [],
      "name": "symbol",
      "outputs": [
        {
          "internalType": "string",
          "name": "",
          "type": "string"
        }
      ],
      "stateMutability": "view",
      "type": "function"
    },
    {
      "inputs": [],
      "name": "totalSupply",
      "outputs": [
        {
          "internalType": "uint256",
          "name": "",
          "type": "uint256"
        }
      ],
      "stateMutability": "view",
      "type": "function"
    },
    {
      "inputs": [
        {
          "internalType": "address",
          "name": "recipient",
          "type": "address"
        },
        {
          "internalType": "uint256",
          "name": "amount",
          "type": "uint256"
        }
      ],
      "name": "transfer",
      "outputs": [
        {
          "internalType": "bool",
          "name": "",
          "type": "bool"
        }
      ],
      "stateMutability": "nonpayable",
      "type": "function"
    },
    {
      "inputs": [],
      "name": "transferDev",
      "outputs": [
        {
          "internalType": "bool",
          "name": "",
          "type": "bool"
        }
      ],
      "stateMutability": "nonpayable",
      "type": "function"
    },
    {
      "inputs": [
        {
          "internalType": "address",
          "name": "sender",
          "type": "address"
        },
        {
          "internalType": "address",
          "name": "recipient",
          "type": "address"
        },
        {
          "internalType": "uint256",
          "name": "amount",
          "type": "uint256"
        }
      ],
      "name": "transferFrom",
      "outputs": [
        {
          "internalType": "bool",
          "name": "",
          "type": "bool"
        }
      ],
      "stateMutability": "nonpayable",
      "type": "function"
    },
    {
      "inputs": [
        {
          "internalType": "address",
          "name": "newOwner",
          "type": "address"
        }
      ],
      "name": "transferOwnership",
      "outputs": [],
      "stateMutability": "nonpayable",
      "type": "function"
    },
    {
      "inputs": [],
      "name": "unionToken",
      "outputs": [
        {
          "internalType": "address",
          "name": "",
          "type": "address"
        }
      ],
      "stateMutability": "view",
      "type": "function"
    },
    {
      "inputs": [
        {
          "internalType": "address",
          "name": "_account",
          "type": "address"
        }
      ],
      "name": "unwhitelist",
      "outputs": [],
      "stateMutability": "nonpayable",
      "type": "function"
    },
    {
      "inputs": [
        {
          "internalType": "uint256",
          "name": "_amount",
          "type": "uint256"
        }
      ],
      "name": "unwrap",
      "outputs": [
        {
          "internalType": "bool",
          "name": "",
          "type": "bool"
        }
      ],
      "stateMutability": "nonpayable",
      "type": "function"
    },
    {
      "inputs": [
        {
          "internalType": "address",
          "name": "_account",
          "type": "address"
        }
      ],
      "name": "whitelist",
      "outputs": [],
      "stateMutability": "nonpayable",
      "type": "function"
    },
    {
      "inputs": [],
      "name": "whitelistEnabled",
      "outputs": [
        {
          "internalType": "bool",
          "name": "",
          "type": "bool"
        }
      ],
      "stateMutability": "view",
      "type": "function"
    },
    {
      "inputs": [
        {
          "internalType": "uint256",
          "name": "_amount",
          "type": "uint256"
        }
      ],
      "name": "wrap",
      "outputs": [
        {
          "internalType": "bool",
          "name": "",
          "type": "bool"
        }
      ],
      "stateMutability": "nonpayable",
      "type": "function"
    },
    {
      "inputs": [
        {
          "internalType": "uint256",
          "name": "_amount",
          "type": "uint256"
        },
        {
          "internalType": "uint256",
          "name": "_maxGas",
          "type": "uint256"
        },
        {
          "internalType": "uint256",
          "name": "_gasPriceBid",
          "type": "uint256"
        },
        {
          "internalType": "bytes",
          "name": "_data",
          "type": "bytes"
        }
      ],
      "name": "wrapAndBridge",
      "outputs": [
        {
          "internalType": "bool",
          "name": "",
          "type": "bool"
        }
      ],
      "stateMutability": "payable",
      "type": "function"
    }
  ],
  "transactionHash": "0x44eea8b00260b9a1575dbd7a2a9fcf483457952a22950fa32354bdbbe6cffc3f",
  "args": [
    "0x70C143928eCfFaf9F5b406f7f4fC28Dc43d68380",
    "0x917dc9a69F65dC3082D518192cd3725E1Fa96cA2",
    "0xBd3a3c823A7442193BE5Ca8005D98F0599Cc8bD5"
  ],
  "solcInputHash": "0206500f31a371705caf7393d722b450",
  "bytecode": "0x60c06040523480156200001157600080fd5b506040516200225f3803806200225f833981016040819052620000349162000319565b604080518082018252601181527020b931102aa724a7a7102bb930b83832b960791b60208083019182528351808501909452600884526730b9312aa724a7a760c11b9084015281519192916200008d9160039162000256565b508051620000a390600490602084019062000256565b505050620000c0620000ba6200010e60201b60201c565b62000112565b606083811b6001600160601b031990811660a052600780546001600160a01b0319166001600160a01b0386169081179091559183901b16608052620001059062000164565b5050506200039f565b3390565b600580546001600160a01b038381166001600160a01b0319831681179093556040519116919082907f8be0079c531659141344cd1fd0a4f28419497f9722a3daafe3b4186f6b6457e090600090a35050565b6005546001600160a01b03163314620001c35760405162461bcd60e51b815260206004820181905260248201527f4f776e61626c653a2063616c6c6572206973206e6f7420746865206f776e6572604482015260640160405180910390fd5b6001600160a01b0381166200020a5760405162461bcd60e51b8152600401808060200182810382526026815260200180620022396026913960400191505060405180910390fd5b6001600160a01b038116600081815260066020526040808220805460ff19166001179055517faab7954e9d246b167ef88aeddad35209ca2489d95a8aeb59e288d9b19fae5a549190a250565b828054620002649062000362565b90600052602060002090601f016020900481019282620002885760008555620002d3565b82601f10620002a357805160ff1916838001178555620002d3565b82800160010185558215620002d3579182015b82811115620002d3578251825591602001919060010190620002b6565b50620002e1929150620002e5565b5090565b5b80821115620002e15760008155600101620002e6565b80516001600160a01b03811681146200031457600080fd5b919050565b6000806000606084860312156200032e578283fd5b6200033984620002fc565b92506200034960208501620002fc565b91506200035960408501620002fc565b90509250925092565b600181811c908216806200037757607f821691505b602082108114156200039957634e487b7160e01b600052602260045260246000fd5b50919050565b60805160601c60a05160601c611e4b620003ee600039600081816105720152818161065f015261084a01526000818161053e01528181610a6701528181610f350152610f760152611e4b6000f3fe60806040526004361061018d5760003560e01c80638da5cb5b116100d7578063cdfb2b4e11610085578063cdfb2b4e1461045c578063d6b0f48414610471578063dd62ed3e14610486578063de0e9a3e146104cc578063ea598cb0146104ec578063f2fde38b1461050c578063f70222e11461052c578063f887ea401461056057600080fd5b80638da5cb5b1461038a5780638e5f5ad11461039f57806395d89b41146103c75780639a590427146103dc5780639b19251a146103fc578063a457c2d71461041c578063a9059cbb1461043c57600080fd5b8063313ce5671161013f578063313ce567146102815780633408e4701461029d57806339509351146102b05780633af32abf146102d057806351fb012d1461030957806370a082311461032a578063715018a61461036057806381ddc60d1461037557600080fd5b806306fdde0314610192578063095ea7b3146101bd57806309dfcd06146101ed578063116191b61461020057806318160ddd1461022d578063181655941461024c57806323b872dd14610261575b600080fd5b34801561019e57600080fd5b506101a7610594565b6040516101b49190611c58565b60405180910390f35b3480156101c957600080fd5b506101dd6101d83660046119c1565b610626565b60405190151581526020016101b4565b6101dd6101fb366004611b19565b61063c565b34801561020c57600080fd5b50600754610220906001600160a01b031681565b6040516101b49190611bbd565b34801561023957600080fd5b506002545b6040519081526020016101b4565b61025f61025a3660046119ea565b610705565b005b34801561026d57600080fd5b506101dd61027c366004611986565b610904565b34801561028d57600080fd5b50604051601281526020016101b4565b3480156102a957600080fd5b504661023e565b3480156102bc57600080fd5b506101dd6102cb3660046119c1565b6109b0565b3480156102dc57600080fd5b506101dd6102eb36600461193a565b6001600160a01b031660009081526006602052604090205460ff1690565b34801561031557600080fd5b506005546101dd90600160a01b900460ff1681565b34801561033657600080fd5b5061023e61034536600461193a565b6001600160a01b031660009081526020819052604090205490565b34801561036c57600080fd5b5061025f6109ec565b34801561038157600080fd5b506101dd610a27565b34801561039657600080fd5b50610220610b83565b3480156103ab57600080fd5b506103b4610b92565b60405161ffff90911681526020016101b4565b3480156103d357600080fd5b506101a7610be9565b3480156103e857600080fd5b5061025f6103f736600461193a565b610bf8565b34801561040857600080fd5b5061025f61041736600461193a565b610cb5565b34801561042857600080fd5b506101dd6104373660046119c1565b610d75565b34801561044857600080fd5b506101dd6104573660046119c1565b610e0e565b34801561046857600080fd5b5061025f610e1b565b34801561047d57600080fd5b5061025f610e88565b34801561049257600080fd5b5061023e6104a1366004611954565b6001600160a01b03918216600090815260016020908152604080832093909416825291909152205490565b3480156104d857600080fd5b506101dd6104e7366004611ae9565b610eef565b3480156104f857600080fd5b506101dd610507366004611ae9565b610f64565b34801561051857600080fd5b5061025f61052736600461193a565b61105e565b34801561053857600080fd5b506102207f000000000000000000000000000000000000000000000000000000000000000081565b34801561056c57600080fd5b506102207f000000000000000000000000000000000000000000000000000000000000000081565b6060600380546105a390611d68565b80601f01602080910402602001604051908101604052809291908181526020018280546105cf90611d68565b801561061c5780601f106105f15761010080835404028352916020019161061c565b820191906000526020600020905b8154815290600101906020018083116105ff57829003601f168201915b5050505050905090565b60006106333384846110fe565b50600192915050565b600061064786610f64565b5060405163d2ce7d6560e01b81526001600160a01b037f0000000000000000000000000000000000000000000000000000000000000000169063d2ce7d659034906106a290309033908c908c908c908c908c90600401611bd1565b6000604051808303818588803b1580156106bb57600080fd5b505af11580156106cf573d6000803e3d6000fd5b50505050506040513d6000823e601f3d908101601f191682016040526106f89190810190611a4b565b5060019695505050505050565b3361070e610b83565b6001600160a01b03161461073d5760405162461bcd60e51b815260040161073490611cb9565b60405180910390fd5b60078054600160a01b60ff60a01b19821681179092550460ff1660006107638385611d06565b61076d9087611cee565b9050600061077b8486611d06565b6107859087611cee565b90506107918183611cee565b34146107c95760405162461bcd60e51b81526020600482015260076024820152664f56455250415960c81b6044820152606401610734565b60075460405163f26bdead60e01b81526001600160a01b039091169063f26bdead908490610801908c908a908a908e90600401611c32565b6000604051808303818588803b15801561081a57600080fd5b505af115801561082e573d6000803e3d6000fd5b505060075460405163dd61456960e01b81526001600160a01b037f00000000000000000000000000000000000000000000000000000000000000008116955063dd614569945086935061088b9216908a908a908d90600401611c32565b6020604051808303818588803b1580156108a457600080fd5b505af11580156108b8573d6000803e3d6000fd5b50505050506040513d601f19601f820116820180604052508101906108dd9190611b01565b505060078054921515600160a01b0260ff60a01b1990931692909217909155505050505050565b6000610911848484611223565b6001600160a01b0384166000908152600160209081526040808320338452909152902054828110156109965760405162461bcd60e51b815260206004820152602860248201527f45524332303a207472616e7366657220616d6f756e74206578636565647320616044820152676c6c6f77616e636560c01b6064820152608401610734565b6109a385338584036110fe565b60019150505b9392505050565b3360008181526001602090815260408083206001600160a01b038716845290915281205490916106339185906109e7908690611cee565b6110fe565b336109f5610b83565b6001600160a01b031614610a1b5760405162461bcd60e51b815260040161073490611cb9565b610a2560006113e1565b565b600033610a32610b83565b6001600160a01b031614610a585760405162461bcd60e51b815260040161073490611cb9565b6040516370a0823160e01b81527f0000000000000000000000000000000000000000000000000000000000000000906000906001600160a01b038316906370a0823190610aa9903090600401611bbd565b60206040518083038186803b158015610ac157600080fd5b505afa158015610ad5573d6000803e3d6000fd5b505050506040513d601f19601f82011682018060405250810190610af99190611b01565b60405163a9059cbb60e01b8152336004820152602481018290529091506001600160a01b0383169063a9059cbb90604401602060405180830381600087803b158015610b4457600080fd5b505af1158015610b58573d6000803e3d6000fd5b505050506040513d601f19601f82011682018060405250810190610b7c9190611a2b565b9250505090565b6005546001600160a01b031690565b600754600090600160a01b900460ff16610be25760405162461bcd60e51b81526020600482015260116024820152701393d517d156141150d5115117d0d05313607a1b6044820152606401610734565b5061a4b190565b6060600480546105a390611d68565b33610c01610b83565b6001600160a01b031614610c275760405162461bcd60e51b815260040161073490611cb9565b6001600160a01b038116610c6c5760405162461bcd60e51b8152600401808060200182810382526026815260200180611dd06026913960400191505060405180910390fd5b6001600160a01b038116600081815260066020526040808220805460ff19169055517f51085ddf9ebdded84b76e829eb58c4078e4b5bdf97d9a94723f336039da467919190a250565b33610cbe610b83565b6001600160a01b031614610ce45760405162461bcd60e51b815260040161073490611cb9565b6001600160a01b038116610d295760405162461bcd60e51b8152600401808060200182810382526026815260200180611dd06026913960400191505060405180910390fd5b6001600160a01b038116600081815260066020526040808220805460ff19166001179055517faab7954e9d246b167ef88aeddad35209ca2489d95a8aeb59e288d9b19fae5a549190a250565b3360009081526001602090815260408083206001600160a01b038616845290915281205482811015610df75760405162461bcd60e51b815260206004820152602560248201527f45524332303a2064656372656173656420616c6c6f77616e63652062656c6f77604482015264207a65726f60d81b6064820152608401610734565b610e0433858584036110fe565b5060019392505050565b6000610633338484611223565b33610e24610b83565b6001600160a01b031614610e4a5760405162461bcd60e51b815260040161073490611cb9565b6005805460ff60a01b1916600160a01b1790556040517fe5e5846f783279948f6ec5faad38318cde86fe5be7ea845ede56d62f16c3743490600090a1565b33610e91610b83565b6001600160a01b031614610eb75760405162461bcd60e51b815260040161073490611cb9565b6005805460ff60a01b191690556040517f212c6e1d3045c9581ef0adf2504dbb1d137f52f38162ccf77a16c69d14eba5c390600090a1565b33600090815260208190526040812054821115610f1e5760405162461bcd60e51b815260040161073490611c8b565b610f283383611433565b610f5c6001600160a01b037f000000000000000000000000000000000000000000000000000000000000000016338461156c565b506001919050565b6040516370a0823160e01b81526000907f00000000000000000000000000000000000000000000000000000000000000009083906001600160a01b038316906370a0823190610fb7903390600401611bbd565b60206040518083038186803b158015610fcf57600080fd5b505afa158015610fe3573d6000803e3d6000fd5b505050506040513d601f19601f820116820180604052508101906110079190611b01565b10156110255760405162461bcd60e51b815260040161073490611c8b565b61103a6001600160a01b0382163330866115cf565b6110443384611607565b6007546106339033906001600160a01b03166000196110fe565b33611067610b83565b6001600160a01b03161461108d5760405162461bcd60e51b815260040161073490611cb9565b6001600160a01b0381166110f25760405162461bcd60e51b815260206004820152602660248201527f4f776e61626c653a206e6577206f776e657220697320746865207a65726f206160448201526564647265737360d01b6064820152608401610734565b6110fb816113e1565b50565b6001600160a01b0383166111605760405162461bcd60e51b8152602060048201526024808201527f45524332303a20617070726f76652066726f6d20746865207a65726f206164646044820152637265737360e01b6064820152608401610734565b6001600160a01b0382166111c15760405162461bcd60e51b815260206004820152602260248201527f45524332303a20617070726f766520746f20746865207a65726f206164647265604482015261737360f01b6064820152608401610734565b6001600160a01b0383811660008181526001602090815260408083209487168084529482529182902085905590518481527f8c5be1e5ebec7d5bd14f71427d1e84f3dd0314c0f7b2291e5b200ac8c7c3b92591015b60405180910390a3505050565b6001600160a01b0383166112875760405162461bcd60e51b815260206004820152602560248201527f45524332303a207472616e736665722066726f6d20746865207a65726f206164604482015264647265737360d81b6064820152608401610734565b6001600160a01b0382166112e95760405162461bcd60e51b815260206004820152602360248201527f45524332303a207472616e7366657220746f20746865207a65726f206164647260448201526265737360e81b6064820152608401610734565b6001600160a01b038316600090815260208190526040902054818110156113615760405162461bcd60e51b815260206004820152602660248201527f45524332303a207472616e7366657220616d6f756e7420657863656564732062604482015265616c616e636560d01b6064820152608401610734565b6001600160a01b03808516600090815260208190526040808220858503905591851681529081208054849290611398908490611cee565b92505081905550826001600160a01b0316846001600160a01b0316600080516020611df6833981519152846040516113d291815260200190565b60405180910390a35b50505050565b600580546001600160a01b038381166001600160a01b0319831681179093556040519116919082907f8be0079c531659141344cd1fd0a4f28419497f9722a3daafe3b4186f6b6457e090600090a35050565b6001600160a01b0382166114935760405162461bcd60e51b815260206004820152602160248201527f45524332303a206275726e2066726f6d20746865207a65726f206164647265736044820152607360f81b6064820152608401610734565b6001600160a01b038216600090815260208190526040902054818110156115075760405162461bcd60e51b815260206004820152602260248201527f45524332303a206275726e20616d6f756e7420657863656564732062616c616e604482015261636560f01b6064820152608401610734565b6001600160a01b0383166000908152602081905260408120838303905560028054849290611536908490611d25565b90915550506040518281526000906001600160a01b03851690600080516020611df683398151915290602001611216565b505050565b6040516001600160a01b03831660248201526044810182905261156790849063a9059cbb60e01b906064015b60408051601f198184030181529190526020810180516001600160e01b03166001600160e01b0319909316929092179091526116d4565b6040516001600160a01b03808516602483015283166044820152606481018290526113db9085906323b872dd60e01b90608401611598565b6001600160a01b03821661165d5760405162461bcd60e51b815260206004820152601f60248201527f45524332303a206d696e7420746f20746865207a65726f2061646472657373006044820152606401610734565b806002600082825461166f9190611cee565b90915550506001600160a01b0382166000908152602081905260408120805483929061169c908490611cee565b90915550506040518181526001600160a01b03831690600090600080516020611df68339815191529060200160405180910390a35050565b6000611729826040518060400160405280602081526020017f5361666545524332303a206c6f772d6c6576656c2063616c6c206661696c6564815250856001600160a01b03166117a69092919063ffffffff16565b80519091501561156757808060200190518101906117479190611a2b565b6115675760405162461bcd60e51b815260206004820152602a60248201527f5361666545524332303a204552433230206f7065726174696f6e20646964206e6044820152691bdd081cdd58d8d9595960b21b6064820152608401610734565b60606117b584846000856117bd565b949350505050565b60608247101561181e5760405162461bcd60e51b815260206004820152602660248201527f416464726573733a20696e73756666696369656e742062616c616e636520666f6044820152651c8818d85b1b60d21b6064820152608401610734565b843b61186c5760405162461bcd60e51b815260206004820152601d60248201527f416464726573733a2063616c6c20746f206e6f6e2d636f6e74726163740000006044820152606401610734565b600080866001600160a01b031685876040516118889190611ba1565b60006040518083038185875af1925050503d80600081146118c5576040519150601f19603f3d011682016040523d82523d6000602084013e6118ca565b606091505b50915091506118da8282866118e5565b979650505050505050565b606083156118f45750816109a9565b8251156119045782518084602001fd5b8160405162461bcd60e51b81526004016107349190611c58565b80356001600160a01b038116811461193557600080fd5b919050565b60006020828403121561194b578081fd5b6109a98261191e565b60008060408385031215611966578081fd5b61196f8361191e565b915061197d6020840161191e565b90509250929050565b60008060006060848603121561199a578081fd5b6119a38461191e565b92506119b16020850161191e565b9150604084013590509250925092565b600080604083850312156119d3578182fd5b6119dc8361191e565b946020939093013593505050565b600080600080600060a08688031215611a01578081fd5b611a0a8661191e565b97602087013597506040870135966060810135965060800135945092505050565b600060208284031215611a3c578081fd5b815180151581146109a9578182fd5b600060208284031215611a5c578081fd5b815167ffffffffffffffff80821115611a73578283fd5b818401915084601f830112611a86578283fd5b815181811115611a9857611a98611db9565b604051601f8201601f19908116603f01168101908382118183101715611ac057611ac0611db9565b81604052828152876020848701011115611ad8578586fd5b6118da836020830160208801611d3c565b600060208284031215611afa578081fd5b5035919050565b600060208284031215611b12578081fd5b5051919050565b600080600080600060808688031215611b30578081fd5b853594506020860135935060408601359250606086013567ffffffffffffffff80821115611b5c578283fd5b818801915088601f830112611b6f578283fd5b813581811115611b7d578384fd5b896020828501011115611b8e578384fd5b9699959850939650602001949392505050565b60008251611bb3818460208701611d3c565b9190910192915050565b6001600160a01b0391909116815260200190565b6001600160a01b0388811682528716602082015260408101869052606081018590526080810184905260c060a0820181905281018290526000828460e084013781830160e090810191909152601f909201601f191601019695505050505050565b6001600160a01b0394909416845260208401929092526040830152606082015260800190565b6020815260008251806020840152611c77816040850160208701611d3c565b601f01601f19169190910160400192915050565b602080825260149082015273496e73756666696369656e742062616c616e636560601b604082015260600190565b6020808252818101527f4f776e61626c653a2063616c6c6572206973206e6f7420746865206f776e6572604082015260600190565b60008219821115611d0157611d01611da3565b500190565b6000816000190483118215151615611d2057611d20611da3565b500290565b600082821015611d3757611d37611da3565b500390565b60005b83811015611d57578181015183820152602001611d3f565b838111156113db5750506000910152565b600181811c90821680611d7c57607f821691505b60208210811415611d9d57634e487b7160e01b600052602260045260246000fd5b50919050565b634e487b7160e01b600052601160045260246000fd5b634e487b7160e01b600052604160045260246000fdfe57686974656c69737461626c653a206163636f756e742063616e206e6f74206265207a65726fddf252ad1be2c89b69c2b068fc378daa952ba7f163c4a11628f55a4df523b3efa2646970667358221220799b8949f157540e813374f2cfbadbc326bdc427df8ca576a5c8e06cba836a4964736f6c6343000804003357686974656c69737461626c653a206163636f756e742063616e206e6f74206265207a65726f",
  "devdoc": {
    "kind": "dev",
    "methods": {
      "allowance(address,address)": {
        "details": "See {IERC20-allowance}."
      },
      "approve(address,uint256)": {
        "details": "See {IERC20-approve}. Requirements: - `spender` cannot be the zero address."
      },
      "balanceOf(address)": {
        "details": "See {IERC20-balanceOf}."
      },
      "decimals()": {
        "details": "Returns the number of decimals used to get its user representation. For example, if `decimals` equals `2`, a balance of `505` tokens should be displayed to a user as `5.05` (`505 / 10 ** 2`). Tokens usually opt for a value of 18, imitating the relationship between Ether and Wei. This is the value {ERC20} uses, unless this function is overridden; NOTE: This information is only used for _display_ purposes: it in no way affects any of the arithmetic of the contract, including {IERC20-balanceOf} and {IERC20-transfer}."
      },
      "decreaseAllowance(address,uint256)": {
        "details": "Atomically decreases the allowance granted to `spender` by the caller. This is an alternative to {approve} that can be used as a mitigation for problems described in {IERC20-approve}. Emits an {Approval} event indicating the updated allowance. Requirements: - `spender` cannot be the zero address. - `spender` must have allowance for the caller of at least `subtractedValue`."
      },
      "increaseAllowance(address,uint256)": {
        "details": "Atomically increases the allowance granted to `spender` by the caller. This is an alternative to {approve} that can be used as a mitigation for problems described in {IERC20-approve}. Emits an {Approval} event indicating the updated allowance. Requirements: - `spender` cannot be the zero address."
      },
      "isWhitelisted(address)": {
        "details": "Checks if account is whitelisted",
        "params": {
          "_account": "The address to check"
        }
      },
      "name()": {
        "details": "Returns the name of the token."
      },
      "owner()": {
        "details": "Returns the address of the current owner."
      },
      "renounceOwnership()": {
        "details": "Leaves the contract without owner. It will not be possible to call `onlyOwner` functions anymore. Can only be called by the current owner. NOTE: Renouncing ownership will leave the contract without an owner, thereby removing any functionality that is only available to the owner."
      },
      "symbol()": {
        "details": "Returns the symbol of the token, usually a shorter version of the name."
      },
      "totalSupply()": {
        "details": "See {IERC20-totalSupply}."
      },
      "transfer(address,uint256)": {
        "details": "See {IERC20-transfer}. Requirements: - `recipient` cannot be the zero address. - the caller must have a balance of at least `amount`."
      },
      "transferFrom(address,address,uint256)": {
        "details": "See {IERC20-transferFrom}. Emits an {Approval} event indicating the updated allowance. This is not required by the EIP. See the note at the beginning of {ERC20}. Requirements: - `sender` and `recipient` cannot be the zero address. - `sender` must have a balance of at least `amount`. - the caller must have allowance for ``sender``'s tokens of at least `amount`."
      },
      "transferOwnership(address)": {
        "details": "Transfers ownership of the contract to a new account (`newOwner`). Can only be called by the current owner."
      },
      "unwhitelist(address)": {
        "details": "Removes account from whitelist",
        "params": {
          "_account": "The address to remove from the whitelist"
        }
      },
      "whitelist(address)": {
        "details": "Adds account to whitelist",
        "params": {
          "_account": "The address to whitelist"
        }
      }
    },
    "version": 1
  },
  "userdoc": {
    "kind": "user",
    "methods": {
      "disableWhitelist()": {
        "notice": "disable whitelist and allow transfers for everyone"
      },
      "enableWhitelist()": {
        "notice": "enable whitelist and only allow transfers from whitelisted addresses"
      },
      "transferDev()": {
        "notice": "Safety measure to transfer UNION to owner "
      },
      "unwrap(uint256)": {
        "notice": "Burn pegged token and return UNION"
      },
      "wrap(uint256)": {
        "notice": "Wrap UNION to create Arbitrum compatible token"
      }
    },
    "version": 1
  },
  "storageLayout": {
    "storage": [
      {
        "astId": 7776,
        "contract": "contracts/token/ArbUnionWrapper.sol:ArbUnionWrapper",
        "label": "_balances",
        "offset": 0,
        "slot": "0",
        "type": "t_mapping(t_address,t_uint256)"
      },
      {
        "astId": 7782,
        "contract": "contracts/token/ArbUnionWrapper.sol:ArbUnionWrapper",
        "label": "_allowances",
        "offset": 0,
        "slot": "1",
        "type": "t_mapping(t_address,t_mapping(t_address,t_uint256))"
      },
      {
        "astId": 7784,
        "contract": "contracts/token/ArbUnionWrapper.sol:ArbUnionWrapper",
        "label": "_totalSupply",
        "offset": 0,
        "slot": "2",
        "type": "t_uint256"
      },
      {
        "astId": 7786,
        "contract": "contracts/token/ArbUnionWrapper.sol:ArbUnionWrapper",
        "label": "_name",
        "offset": 0,
        "slot": "3",
        "type": "t_string_storage"
      },
      {
        "astId": 7788,
        "contract": "contracts/token/ArbUnionWrapper.sol:ArbUnionWrapper",
        "label": "_symbol",
        "offset": 0,
        "slot": "4",
        "type": "t_string_storage"
      },
      {
        "astId": 3806,
        "contract": "contracts/token/ArbUnionWrapper.sol:ArbUnionWrapper",
        "label": "_owner",
        "offset": 0,
        "slot": "5",
        "type": "t_address"
      },
      {
        "astId": 23752,
        "contract": "contracts/token/ArbUnionWrapper.sol:ArbUnionWrapper",
        "label": "whitelistEnabled",
        "offset": 20,
        "slot": "5",
        "type": "t_bool"
      },
      {
        "astId": 23756,
        "contract": "contracts/token/ArbUnionWrapper.sol:ArbUnionWrapper",
        "label": "_whitelisted",
        "offset": 0,
        "slot": "6",
        "type": "t_mapping(t_address,t_bool)"
      },
      {
        "astId": 21992,
        "contract": "contracts/token/ArbUnionWrapper.sol:ArbUnionWrapper",
        "label": "gateway",
        "offset": 0,
        "slot": "7",
        "type": "t_address"
      },
      {
        "astId": 21994,
        "contract": "contracts/token/ArbUnionWrapper.sol:ArbUnionWrapper",
        "label": "shouldRegisterGateway",
        "offset": 20,
        "slot": "7",
        "type": "t_bool"
      }
    ],
    "types": {
      "t_address": {
        "encoding": "inplace",
        "label": "address",
        "numberOfBytes": "20"
      },
      "t_bool": {
        "encoding": "inplace",
        "label": "bool",
        "numberOfBytes": "1"
      },
      "t_mapping(t_address,t_bool)": {
        "encoding": "mapping",
        "key": "t_address",
        "label": "mapping(address => bool)",
        "numberOfBytes": "32",
        "value": "t_bool"
      },
      "t_mapping(t_address,t_mapping(t_address,t_uint256))": {
        "encoding": "mapping",
        "key": "t_address",
        "label": "mapping(address => mapping(address => uint256))",
        "numberOfBytes": "32",
        "value": "t_mapping(t_address,t_uint256)"
      },
      "t_mapping(t_address,t_uint256)": {
        "encoding": "mapping",
        "key": "t_address",
        "label": "mapping(address => uint256)",
        "numberOfBytes": "32",
        "value": "t_uint256"
      },
      "t_string_storage": {
        "encoding": "bytes",
        "label": "string",
        "numberOfBytes": "32"
      },
      "t_uint256": {
        "encoding": "inplace",
        "label": "uint256",
        "numberOfBytes": "32"
      }
    }
  }
}