{
  "address": "0x2d8EBac420169dd73CD4712A6C2d15fcE3af3525",
  "abi": [
    {
      "inputs": [
        {
          "internalType": "address",
          "name": "unionToken_",
          "type": "address"
        },
        {
          "internalType": "address",
          "name": "recipient_",
          "type": "address"
        },
        {
          "internalType": "uint256",
          "name": "vestingAmount_",
          "type": "uint256"
        },
        {
          "internalType": "uint256",
          "name": "vestingBegin_",
          "type": "uint256"
        },
        {
          "internalType": "uint256",
          "name": "vestingCliff_",
          "type": "uint256"
        },
        {
          "internalType": "uint256",
          "name": "vestingEnd_",
          "type": "uint256"
        }
      ],
      "stateMutability": "nonpayable",
      "type": "constructor"
    },
    {
      "inputs": [],
      "name": "claim",
      "outputs": [],
      "stateMutability": "nonpayable",
      "type": "function"
    },
    {
      "inputs": [],
      "name": "lastUpdate",
      "outputs": [
        {
          "internalType": "uint256",
          "name": "",
          "type": "uint256"
        }
      ],
      "stateMutability": "view",
      "type": "function"
    },
    {
      "inputs": [],
      "name": "recipient",
      "outputs": [
        {
          "internalType": "address",
          "name": "",
          "type": "address"
        }
      ],
      "stateMutability": "view",
      "type": "function"
    },
    {
      "inputs": [],
      "name": "unionToken",
      "outputs": [
        {
          "internalType": "address",
          "name": "",
          "type": "address"
        }
      ],
      "stateMutability": "view",
      "type": "function"
    },
    {
      "inputs": [],
      "name": "vestingAmount",
      "outputs": [
        {
          "internalType": "uint256",
          "name": "",
          "type": "uint256"
        }
      ],
      "stateMutability": "view",
      "type": "function"
    },
    {
      "inputs": [],
      "name": "vestingBegin",
      "outputs": [
        {
          "internalType": "uint256",
          "name": "",
          "type": "uint256"
        }
      ],
      "stateMutability": "view",
      "type": "function"
    },
    {
      "inputs": [],
      "name": "vestingCliff",
      "outputs": [
        {
          "internalType": "uint256",
          "name": "",
          "type": "uint256"
        }
      ],
      "stateMutability": "view",
      "type": "function"
    },
    {
      "inputs": [],
      "name": "vestingEnd",
      "outputs": [
        {
          "internalType": "uint256",
          "name": "",
          "type": "uint256"
        }
      ],
      "stateMutability": "view",
      "type": "function"
    }
  ],
  "transactionHash": "0xc118b3a5ee41a2022380dddb89c79a8298dd9c34ea8528a36b51ecf529f91c29",
  "args": [
    "0xC7071B73D019aE9F5CC00ac9b506643b8A6a2b05",
    "0xC3FdB85912a2f64FC5eDB0f6c775B33B22317F89",
    "150000000000000000000000000",
    "1671667200",
    "1671667200",
    "1766361600"
  ],
  "solcInputHash": "dc2b0dfb667b258313b5e6ac5e5a477f",
  "bytecode": "0x61014060405234801561001157600080fd5b50604051610a71380380610a71833981810160405260c081101561003457600080fd5b508051602082015160408301516060840151608085015160a09095015193949293919290916001600160a01b03861661009e5760405162461bcd60e51b815260040180806020018281038252602a815260200180610a47602a913960400191505060405180910390fd5b6001600160a01b0385166100e35760405162461bcd60e51b8152600401808060200182810382526029815260200180610a1e6029913960400191505060405180910390fd5b42831015610138576040805162461bcd60e51b815260206004820152601760248201527f76657374696e6720626567696e20746f6f206561726c79000000000000000000604482015290519081900360640190fd5b82821015610182576040805162461bcd60e51b8152602060048201526012602482015271636c69666620697320746f6f206561726c7960701b604482015290519081900360640190fd5b8181116101c9576040805162461bcd60e51b815260206004820152601060248201526f656e6420697320746f6f206561726c7960801b604482015290519081900360640190fd5b6001600160601b0319606087811b821660805286901b1660a05260c084905260e083905261010082905261012081905260008381556001600160a01b03968716969095169461079f9061027f9039600081816101070152818161020f01526102f301526000818161015e01526101a901526000818161013701526102d20152600081816081015261032a01526000818160c4015261038e01526000818161018501528181610254015261036c015261079f6000f3fe608060405234801561001057600080fd5b50600436106100775760003560e01c8062728f761461007c5780634e71d92d146100b557806366d003ac146100bf57806384a1931f14610102578063c046371114610129578063e29bc68b14610132578063f3640e7414610159578063f70222e114610180575b600080fd5b6100a37f000000000000000000000000000000000000000000000000000000000000000081565b60408051918252519081900360200190f35b6100bd6101a7565b005b6100e67f000000000000000000000000000000000000000000000000000000000000000081565b604080516001600160a01b039092168252519081900360200190f35b6100a37f000000000000000000000000000000000000000000000000000000000000000081565b6100a360005481565b6100a37f000000000000000000000000000000000000000000000000000000000000000081565b6100a37f000000000000000000000000000000000000000000000000000000000000000081565b6100e67f000000000000000000000000000000000000000000000000000000000000000081565b7f000000000000000000000000000000000000000000000000000000000000000042101561020b576040805162461bcd60e51b815260206004820152600c60248201526b1b9bdd081d1a5b59481e595d60a21b604482015290519081900360640190fd5b60007f000000000000000000000000000000000000000000000000000000000000000042106102cd57604080516370a0823160e01b815230600482015290516001600160a01b037f000000000000000000000000000000000000000000000000000000000000000016916370a08231916024808301926020929190829003018186803b15801561029a57600080fd5b505afa1580156102ae573d6000803e3d6000fd5b505050506040513d60208110156102c457600080fd5b5051905061035f565b6103177f00000000000000000000000000000000000000000000000000000000000000007f000000000000000000000000000000000000000000000000000000000000000061070c565b600054610324904261070c565b61034e907f00000000000000000000000000000000000000000000000000000000000000006106ed565b61035891906106cd565b4260005590505b6103b36001600160a01b037f0000000000000000000000000000000000000000000000000000000000000000167f0000000000000000000000000000000000000000000000000000000000000000836103b6565b50565b604080516001600160a01b038416602482015260448082018490528251808303909101815260649091019091526020810180516001600160e01b031663a9059cbb60e01b17905261040890849061040d565b505050565b6000610462826040518060400160405280602081526020017f5361666545524332303a206c6f772d6c6576656c2063616c6c206661696c6564815250856001600160a01b03166104e49092919063ffffffff16565b8051909150156104085780806020019051810190610480919061065e565b6104085760405162461bcd60e51b815260206004820152602a60248201527f5361666545524332303a204552433230206f7065726174696f6e20646964206e6044820152691bdd081cdd58d8d9595960b21b60648201526084015b60405180910390fd5b60606104f384846000856104fd565b90505b9392505050565b60608247101561055e5760405162461bcd60e51b815260206004820152602660248201527f416464726573733a20696e73756666696369656e742062616c616e636520666f6044820152651c8818d85b1b60d21b60648201526084016104db565b843b6105ac5760405162461bcd60e51b815260206004820152601d60248201527f416464726573733a2063616c6c20746f206e6f6e2d636f6e747261637400000060448201526064016104db565b600080866001600160a01b031685876040516105c8919061067e565b60006040518083038185875af1925050503d8060008114610605576040519150601f19603f3d011682016040523d82523d6000602084013e61060a565b606091505b509150915061061a828286610625565b979650505050505050565b606083156106345750816104f6565b8251156106445782518084602001fd5b8160405162461bcd60e51b81526004016104db919061069a565b60006020828403121561066f578081fd5b815180151581146104f6578182fd5b60008251610690818460208701610723565b9190910192915050565b60208152600082518060208401526106b9816040850160208701610723565b601f01601f19169190910160400192915050565b6000826106e857634e487b7160e01b81526012600452602481fd5b500490565b600081600019048311821515161561070757610707610753565b500290565b60008282101561071e5761071e610753565b500390565b60005b8381101561073e578181015183820152602001610726565b8381111561074d576000848401525b50505050565b634e487b7160e01b600052601160045260246000fdfea2646970667358221220084910b4259388c6536f09a5fef27bcf2a6daaf74933ca072f3f6ce8ef5ebd4b64736f6c6343000804003354726561737572795665737465723a20726563697069656e742063616e206e6f74206265207a65726f54726561737572795665737465723a20756e696f6e546f6b656e2063616e206e6f74206265207a65726f",
  "devdoc": {
    "kind": "dev",
    "methods": {},
    "version": 1
  },
  "userdoc": {
    "kind": "user",
    "methods": {},
    "version": 1
  },
  "storageLayout": {
    "storage": [
      {
        "astId": 24604,
        "contract": "contracts/treasury/TreasuryVester.sol:TreasuryVester",
        "label": "lastUpdate",
        "offset": 0,
        "slot": "0",
        "type": "t_uint256"
      }
    ],
    "types": {
      "t_uint256": {
        "encoding": "inplace",
        "label": "uint256",
        "numberOfBytes": "32"
      }
    }
  }
}