{
  "address": "0xE71F6b97041D0490Fa71528B5008Dac71FaEa6E9",
  "abi": [
    {
      "anonymous": false,
      "inputs": [
        {
          "indexed": false,
          "internalType": "address",
          "name": "previousAdmin",
          "type": "address"
        },
        {
          "indexed": false,
          "internalType": "address",
          "name": "newAdmin",
          "type": "address"
        }
      ],
      "name": "AdminChanged",
      "type": "event"
    },
    {
      "anonymous": false,
      "inputs": [
        {
          "indexed": true,
          "internalType": "address",
          "name": "beacon",
          "type": "address"
        }
      ],
      "name": "BeaconUpgraded",
      "type": "event"
    },
    {
      "anonymous": false,
      "inputs": [
        {
          "indexed": false,
          "internalType": "address",
          "name": "account",
          "type": "address"
        }
      ],
      "name": "Paused",
      "type": "event"
    },
    {
      "anonymous": false,
      "inputs": [
        {
          "indexed": true,
          "internalType": "bytes32",
          "name": "role",
          "type": "bytes32"
        },
        {
          "indexed": true,
          "internalType": "bytes32",
          "name": "previousAdminRole",
          "type": "bytes32"
        },
        {
          "indexed": true,
          "internalType": "bytes32",
          "name": "newAdminRole",
          "type": "bytes32"
        }
      ],
      "name": "RoleAdminChanged",
      "type": "event"
    },
    {
      "anonymous": false,
      "inputs": [
        {
          "indexed": true,
          "internalType": "bytes32",
          "name": "role",
          "type": "bytes32"
        },
        {
          "indexed": true,
          "internalType": "address",
          "name": "account",
          "type": "address"
        },
        {
          "indexed": true,
          "internalType": "address",
          "name": "sender",
          "type": "address"
        }
      ],
      "name": "RoleGranted",
      "type": "event"
    },
    {
      "anonymous": false,
      "inputs": [
        {
          "indexed": true,
          "internalType": "bytes32",
          "name": "role",
          "type": "bytes32"
        },
        {
          "indexed": true,
          "internalType": "address",
          "name": "account",
          "type": "address"
        },
        {
          "indexed": true,
          "internalType": "address",
          "name": "sender",
          "type": "address"
        }
      ],
      "name": "RoleRevoked",
      "type": "event"
    },
    {
      "anonymous": false,
      "inputs": [
        {
          "indexed": false,
          "internalType": "address",
          "name": "account",
          "type": "address"
        }
      ],
      "name": "Unpaused",
      "type": "event"
    },
    {
      "anonymous": false,
      "inputs": [
        {
          "indexed": true,
          "internalType": "address",
          "name": "implementation",
          "type": "address"
        }
      ],
      "name": "Upgraded",
      "type": "event"
    },
    {
      "inputs": [],
      "name": "DEFAULT_ADMIN_ROLE",
      "outputs": [
        {
          "internalType": "bytes32",
          "name": "",
          "type": "bytes32"
        }
      ],
      "stateMutability": "view",
      "type": "function"
    },
    {
      "inputs": [],
      "name": "ROLE_ADMIN",
      "outputs": [
        {
          "internalType": "bytes32",
          "name": "",
          "type": "bytes32"
        }
      ],
      "stateMutability": "view",
      "type": "function"
    },
    {
      "inputs": [
        {
          "internalType": "address",
          "name": "_assetManager",
          "type": "address"
        },
        {
          "internalType": "contract LendingPool",
          "name": "_lendingPool",
          "type": "address"
        },
        {
          "internalType": "contract AMarket",
          "name": "_market",
          "type": "address"
        }
      ],
      "name": "__AaveAdapter_init",
      "outputs": [],
      "stateMutability": "nonpayable",
      "type": "function"
    },
    {
      "inputs": [
        {
          "internalType": "address",
          "name": "admin_",
          "type": "address"
        }
      ],
      "name": "__Controller_init",
      "outputs": [],
      "stateMutability": "nonpayable",
      "type": "function"
    },
    {
      "inputs": [
        {
          "internalType": "address",
          "name": "account",
          "type": "address"
        }
      ],
      "name": "addAdmin",
      "outputs": [],
      "stateMutability": "nonpayable",
      "type": "function"
    },
    {
      "inputs": [],
      "name": "assetManager",
      "outputs": [
        {
          "internalType": "address",
          "name": "",
          "type": "address"
        }
      ],
      "stateMutability": "view",
      "type": "function"
    },
    {
      "inputs": [
        {
          "internalType": "address",
          "name": "",
          "type": "address"
        }
      ],
      "name": "ceilingMap",
      "outputs": [
        {
          "internalType": "uint256",
          "name": "",
          "type": "uint256"
        }
      ],
      "stateMutability": "view",
      "type": "function"
    },
    {
      "inputs": [
        {
          "internalType": "address",
          "name": "tokenAddress",
          "type": "address"
        }
      ],
      "name": "claimRewards",
      "outputs": [],
      "stateMutability": "nonpayable",
      "type": "function"
    },
    {
      "inputs": [
        {
          "internalType": "address",
          "name": "tokenAddress",
          "type": "address"
        },
        {
          "internalType": "address",
          "name": "recipient",
          "type": "address"
        }
      ],
      "name": "claimTokens",
      "outputs": [],
      "stateMutability": "nonpayable",
      "type": "function"
    },
    {
      "inputs": [
        {
          "internalType": "address",
          "name": "tokenAddress",
          "type": "address"
        }
      ],
      "name": "deposit",
      "outputs": [],
      "stateMutability": "nonpayable",
      "type": "function"
    },
    {
      "inputs": [
        {
          "internalType": "address",
          "name": "",
          "type": "address"
        }
      ],
      "name": "floorMap",
      "outputs": [
        {
          "internalType": "uint256",
          "name": "",
          "type": "uint256"
        }
      ],
      "stateMutability": "view",
      "type": "function"
    },
    {
      "inputs": [
        {
          "internalType": "address",
          "name": "tokenAddress",
          "type": "address"
        }
      ],
      "name": "getRate",
      "outputs": [
        {
          "internalType": "uint256",
          "name": "",
          "type": "uint256"
        }
      ],
      "stateMutability": "view",
      "type": "function"
    },
    {
      "inputs": [
        {
          "internalType": "bytes32",
          "name": "role",
          "type": "bytes32"
        }
      ],
      "name": "getRoleAdmin",
      "outputs": [
        {
          "internalType": "bytes32",
          "name": "",
          "type": "bytes32"
        }
      ],
      "stateMutability": "view",
      "type": "function"
    },
    {
      "inputs": [
        {
          "internalType": "address",
          "name": "tokenAddress",
          "type": "address"
        }
      ],
      "name": "getSupply",
      "outputs": [
        {
          "internalType": "uint256",
          "name": "",
          "type": "uint256"
        }
      ],
      "stateMutability": "view",
      "type": "function"
    },
    {
      "inputs": [
        {
          "internalType": "address",
          "name": "tokenAddress",
          "type": "address"
        }
      ],
      "name": "getSupplyView",
      "outputs": [
        {
          "internalType": "uint256",
          "name": "",
          "type": "uint256"
        }
      ],
      "stateMutability": "view",
      "type": "function"
    },
    {
      "inputs": [
        {
          "internalType": "bytes32",
          "name": "role",
          "type": "bytes32"
        },
        {
          "internalType": "address",
          "name": "account",
          "type": "address"
        }
      ],
      "name": "grantRole",
      "outputs": [],
      "stateMutability": "nonpayable",
      "type": "function"
    },
    {
      "inputs": [
        {
          "internalType": "bytes32",
          "name": "role",
          "type": "bytes32"
        },
        {
          "internalType": "address",
          "name": "account",
          "type": "address"
        }
      ],
      "name": "hasRole",
      "outputs": [
        {
          "internalType": "bool",
          "name": "",
          "type": "bool"
        }
      ],
      "stateMutability": "view",
      "type": "function"
    },
    {
      "inputs": [
        {
          "internalType": "address",
          "name": "account",
          "type": "address"
        }
      ],
      "name": "isAdmin",
      "outputs": [
        {
          "internalType": "bool",
          "name": "",
          "type": "bool"
        }
      ],
      "stateMutability": "view",
      "type": "function"
    },
    {
      "inputs": [],
      "name": "lendingPool",
      "outputs": [
        {
          "internalType": "contract LendingPool",
          "name": "",
          "type": "address"
        }
      ],
      "stateMutability": "view",
      "type": "function"
    },
    {
      "inputs": [
        {
          "internalType": "address",
          "name": "tokenAddress",
          "type": "address"
        }
      ],
      "name": "mapTokenToAToken",
      "outputs": [],
      "stateMutability": "nonpayable",
      "type": "function"
    },
    {
      "inputs": [],
      "name": "market",
      "outputs": [
        {
          "internalType": "contract AMarket",
          "name": "",
          "type": "address"
        }
      ],
      "stateMutability": "view",
      "type": "function"
    },
    {
      "inputs": [],
      "name": "pause",
      "outputs": [],
      "stateMutability": "nonpayable",
      "type": "function"
    },
    {
      "inputs": [],
      "name": "pauseGuardian",
      "outputs": [
        {
          "internalType": "address",
          "name": "",
          "type": "address"
        }
      ],
      "stateMutability": "view",
      "type": "function"
    },
    {
      "inputs": [],
      "name": "paused",
      "outputs": [
        {
          "internalType": "bool",
          "name": "",
          "type": "bool"
        }
      ],
      "stateMutability": "view",
      "type": "function"
    },
    {
      "inputs": [],
      "name": "renounceAdmin",
      "outputs": [],
      "stateMutability": "nonpayable",
      "type": "function"
    },
    {
      "inputs": [
        {
          "internalType": "bytes32",
          "name": "role",
          "type": "bytes32"
        },
        {
          "internalType": "address",
          "name": "account",
          "type": "address"
        }
      ],
      "name": "renounceRole",
      "outputs": [],
      "stateMutability": "nonpayable",
      "type": "function"
    },
    {
      "inputs": [
        {
          "internalType": "bytes32",
          "name": "role",
          "type": "bytes32"
        },
        {
          "internalType": "address",
          "name": "account",
          "type": "address"
        }
      ],
      "name": "revokeRole",
      "outputs": [],
      "stateMutability": "nonpayable",
      "type": "function"
    },
    {
      "inputs": [
        {
          "internalType": "address",
          "name": "_assetManager",
          "type": "address"
        }
      ],
      "name": "setAssetManager",
      "outputs": [],
      "stateMutability": "nonpayable",
      "type": "function"
    },
    {
      "inputs": [
        {
          "internalType": "address",
          "name": "tokenAddress",
          "type": "address"
        },
        {
          "internalType": "uint256",
          "name": "ceiling",
          "type": "uint256"
        }
      ],
      "name": "setCeiling",
      "outputs": [],
      "stateMutability": "nonpayable",
      "type": "function"
    },
    {
      "inputs": [
        {
          "internalType": "address",
          "name": "tokenAddress",
          "type": "address"
        },
        {
          "internalType": "uint256",
          "name": "floor",
          "type": "uint256"
        }
      ],
      "name": "setFloor",
      "outputs": [],
      "stateMutability": "nonpayable",
      "type": "function"
    },
    {
      "inputs": [
        {
          "internalType": "address",
          "name": "account",
          "type": "address"
        }
      ],
      "name": "setGuardian",
      "outputs": [],
      "stateMutability": "nonpayable",
      "type": "function"
    },
    {
      "inputs": [
        {
          "internalType": "bytes4",
          "name": "interfaceId",
          "type": "bytes4"
        }
      ],
      "name": "supportsInterface",
      "outputs": [
        {
          "internalType": "bool",
          "name": "",
          "type": "bool"
        }
      ],
      "stateMutability": "view",
      "type": "function"
    },
    {
      "inputs": [
        {
          "internalType": "address",
          "name": "tokenAddress",
          "type": "address"
        }
      ],
      "name": "supportsToken",
      "outputs": [
        {
          "internalType": "bool",
          "name": "",
          "type": "bool"
        }
      ],
      "stateMutability": "view",
      "type": "function"
    },
    {
      "inputs": [
        {
          "internalType": "address",
          "name": "",
          "type": "address"
        }
      ],
      "name": "tokenToAToken",
      "outputs": [
        {
          "internalType": "address",
          "name": "",
          "type": "address"
        }
      ],
      "stateMutability": "view",
      "type": "function"
    },
    {
      "inputs": [],
      "name": "unpause",
      "outputs": [],
      "stateMutability": "nonpayable",
      "type": "function"
    },
    {
      "inputs": [
        {
          "internalType": "address",
          "name": "newImplementation",
          "type": "address"
        }
      ],
      "name": "upgradeTo",
      "outputs": [],
      "stateMutability": "nonpayable",
      "type": "function"
    },
    {
      "inputs": [
        {
          "internalType": "address",
          "name": "newImplementation",
          "type": "address"
        },
        {
          "internalType": "bytes",
          "name": "data",
          "type": "bytes"
        }
      ],
      "name": "upgradeToAndCall",
      "outputs": [],
      "stateMutability": "payable",
      "type": "function"
    },
    {
      "inputs": [
        {
          "internalType": "address",
          "name": "tokenAddress",
          "type": "address"
        },
        {
          "internalType": "address",
          "name": "recipient",
          "type": "address"
        },
        {
          "internalType": "uint256",
          "name": "tokenAmount",
          "type": "uint256"
        }
      ],
      "name": "withdraw",
      "outputs": [],
      "stateMutability": "nonpayable",
      "type": "function"
    },
    {
      "inputs": [
        {
          "internalType": "address",
          "name": "tokenAddress",
          "type": "address"
        },
        {
          "internalType": "address",
          "name": "recipient",
          "type": "address"
        }
      ],
      "name": "withdrawAll",
      "outputs": [],
      "stateMutability": "nonpayable",
      "type": "function"
    }
  ],
  "transactionHash": "0xebaa4b2540068fe3e86c8874dc48418b0d8783e94cac30aef710cac9b4792537",
  "args": [],
  "solcInputHash": "17396099ecbd857f406d78caa623130a",
  "bytecode": "0x60a06040523060601b60805234801561001757600080fd5b5060805160601c612b8f61004b60003960008181610c5001528181610c9001528181610ebf0152610eff0152612b8f6000f3fe6080604052600436106102205760003560e01c8063704802751161012e578063a217fddf116100ab578063d547741f1161006f578063d547741f1461093f578063d9caed1214610978578063ed8a1e54146102dd578063ef5cfb8c146109bb578063f340fa01146109ee57600080fd5b8063a217fddf1461086a578063a59a99731461087f578063b9b44d30146108a0578063c99c7d93146108e4578063d391014b1461091d57600080fd5b80638bad0c0a116100f25780638bad0c0a14610787578063904d32611461079c57806391d14854146107dd57806394217ad1146108165780639a886ee81461083757600080fd5b806370480275146106a657806380f55605146106d95780638456cb59146106fa578063850854531461070f5780638a0dac4a1461075457600080fd5b806336568abe116101bc5780634f1ef286116101805780634f1ef286146105315780635c975abb146105e757806369ffa08a146105ff5780636c00c7f01461063a5780636c461a731461067357600080fd5b806336568abe1461044a5780633659cfe61461048357806337cef791146104b65780633f4ba83a146104e957806343060237146104fe57600080fd5b806301ffc9a714610225578063061f76501461026d57806309cae2c8146102a05780631fd433aa146102dd578063248a9ca31461032257806324a3d6221461035c57806324d7806c1461039d5780632f2ff15d146103d0578063363f68ce14610409575b600080fd5b34801561023157600080fd5b506102596004803603602081101561024857600080fd5b50356001600160e01b031916610a21565b604080519115158252519081900360200190f35b34801561027957600080fd5b506102596004803603602081101561029057600080fd5b50356001600160a01b0316610a58565b3480156102ac57600080fd5b506102db600480360360408110156102c357600080fd5b506001600160a01b0381358116916020013516610a63565b005b3480156102e957600080fd5b506103106004803603602081101561030057600080fd5b50356001600160a01b0316610b72565b60408051918252519081900360200190f35b34801561032e57600080fd5b506103106004803603602081101561034557600080fd5b5035600090815260c9602052604090206001015490565b34801561036857600080fd5b5060fc546103819061010090046001600160a01b031681565b604080516001600160a01b039092168252519081900360200190f35b3480156103a957600080fd5b50610259600480360360208110156103c057600080fd5b50356001600160a01b0316610b7d565b3480156103dc57600080fd5b506102db600480360360408110156103f357600080fd5b50803590602001356001600160a01b0316610b97565b34801561041557600080fd5b506103106004803603602081101561042c57600080fd5b50610132602052356001600160a01b03166000908152604090205481565b34801561045657600080fd5b506102db6004803603604081101561046d57600080fd5b50803590602001356001600160a01b0316610bc2565b34801561048f57600080fd5b506102db600480360360208110156104a657600080fd5b50356001600160a01b0316610c45565b3480156104c257600080fd5b50610310600480360360208110156104d957600080fd5b50356001600160a01b0316610d0e565b3480156104f557600080fd5b506102db610d9f565b34801561050a57600080fd5b506102db6004803603602081101561052157600080fd5b50356001600160a01b0316610e5d565b6102db6004803603604081101561054757600080fd5b6001600160a01b03823516919081019060408101602082013564010000000081111561057257600080fd5b82018360208201111561058457600080fd5b803590602001918460018302840111640100000000831117156105a657600080fd5b91908080601f016020809104026020016040519081016040528093929190818152602001838380828437600092019190915250929550610eb4945050505050565b3480156105f357600080fd5b5060fc5460ff16610259565b34801561060b57600080fd5b506102db6004803603604081101561062257600080fd5b506001600160a01b0381358116916020013516610f6a565b34801561064657600080fd5b506102db6004803603604081101561065d57600080fd5b506001600160a01b038135169060200135610fbe565b34801561067f57600080fd5b506102db6004803603602081101561069657600080fd5b50356001600160a01b0316611054565b3480156106b257600080fd5b506102db600480360360208110156106c957600080fd5b50356001600160a01b0316611159565b3480156106e557600080fd5b5061013354610381906001600160a01b031681565b34801561070657600080fd5b506102db611266565b34801561071b57600080fd5b506102db6004803603606081101561073257600080fd5b506001600160a01b03813581169160208101358216916040909101351661131a565b34801561076057600080fd5b506102db6004803603602081101561077757600080fd5b50356001600160a01b03166113d2565b34801561079357600080fd5b506102db61142e565b3480156107a857600080fd5b50610310600480360360208110156107bf57600080fd5b50610131602052356001600160a01b03166000908152604090205481565b3480156107e957600080fd5b506102596004803603604081101561080057600080fd5b50803590602001356001600160a01b0316611465565b34801561082257600080fd5b5061013054610381906001600160a01b031681565b34801561084357600080fd5b506102db6004803603602081101561085a57600080fd5b50356001600160a01b0316611490565b34801561087657600080fd5b50610310600081565b34801561088b57600080fd5b5061013454610381906001600160a01b031681565b3480156108ac57600080fd5b50610381600480360360208110156108c357600080fd5b5061012f6020526001600160a01b0390358116600090815260409020541681565b3480156108f057600080fd5b506102db6004803603604081101561090757600080fd5b506001600160a01b0381351690602001356115b5565b34801561092957600080fd5b50610310600080516020612ac483398151915281565b34801561094b57600080fd5b506102db6004803603604081101561096257600080fd5b50803590602001356001600160a01b031661164b565b34801561098457600080fd5b506102db6004803603606081101561099b57600080fd5b506001600160a01b03813581169160208101359091169060400135611671565b3480156109c757600080fd5b506102db600480360360208110156109de57600080fd5b50356001600160a01b0316611780565b3480156109fa57600080fd5b506102db60048036036020811015610a1157600080fd5b50356001600160a01b0316611983565b60006001600160e01b03198216637965db0b60e01b1480610a5257506301ffc9a760e01b6001600160e01b03198316145b92915050565b6000610a5282611aa7565b610130546001600160a01b03163314610aad5760405162461bcd60e51b8152600401808060200182810382526028815260200180612a7c6028913960400191505060405180910390fd5b81610ab781611aa7565b610af6576040805162461bcd60e51b81526020600482018190526024820152600080516020612aa4833981519152604482015290519081900360640190fd5b6101345460408051631a4ca37b60e21b81526001600160a01b03868116600483015260001960248301528581166044830152915191909216916369328dec91606480830192600092919082900301818387803b158015610b5557600080fd5b505af1158015610b69573d6000803e3d6000fd5b50505050505050565b6000610a5282611ac8565b6000610a52600080516020612ac483398151915283611465565b600082815260c96020526040902060010154610bb38133611b70565b610bbd8383611bd4565b505050565b6001600160a01b0381163314610c375760405162461bcd60e51b815260206004820152602f60248201527f416363657373436f6e74726f6c3a2063616e206f6e6c792072656e6f756e636560448201526e103937b632b9903337b91039b2b63360891b60648201526084015b60405180910390fd5b610c418282611c5a565b5050565b306001600160a01b037f0000000000000000000000000000000000000000000000000000000000000000161415610c8e5760405162461bcd60e51b8152600401610c2e90612852565b7f00000000000000000000000000000000000000000000000000000000000000006001600160a01b0316610cc0611cc1565b6001600160a01b031614610ce65760405162461bcd60e51b8152600401610c2e9061289e565b610cef81611cef565b60408051600080825260208201909252610d0b91839190611d23565b50565b61013454604080516335ea6a7560e01b81526001600160a01b0384811660048301529151600093849316916335ea6a7591602480830192610180929190829003018186803b158015610d5f57600080fd5b505afa158015610d73573d6000803e3d6000fd5b505050506040513d610180811015610d8a57600080fd5b50606001516001600160801b03169392505050565b60fc5461010090046001600160a01b03163314610dce5760405162461bcd60e51b8152600401610c2e90612919565b60fc5460ff16610e195760405162461bcd60e51b815260206004820152601660248201527510dbdb9d1c9bdb1b195c8e881b9bdd081c185d5cd95960521b6044820152606401610c2e565b60fc805460ff191690556040517f5db9ee0a495bf2e6ff9c91a7834c1ba4fdd244a5e8aa4e537bd38aeae4b073aa90610e5390339061280b565b60405180910390a1565b610e75600080516020612ac483398151915233611465565b610e915760405162461bcd60e51b8152600401610c2e906128ea565b61013080546001600160a01b0319166001600160a01b0392909216919091179055565b306001600160a01b037f0000000000000000000000000000000000000000000000000000000000000000161415610efd5760405162461bcd60e51b8152600401610c2e90612852565b7f00000000000000000000000000000000000000000000000000000000000000006001600160a01b0316610f2f611cc1565b6001600160a01b031614610f555760405162461bcd60e51b8152600401610c2e9061289e565b610f5e82611cef565b610c4182826001611d23565b610130546001600160a01b03163314610fb45760405162461bcd60e51b8152600401808060200182810382526028815260200180612a7c6028913960400191505060405180910390fd5b610c418282611e6a565b610fd6600080516020612ac483398151915233611465565b610ff25760405162461bcd60e51b8152600401610c2e906128ea565b6001600160a01b0382166110375760405162461bcd60e51b8152600401808060200182810382526029815260200180612b316029913960400191505060405180910390fd5b6001600160a01b0390911660009081526101326020526040902055565b600054610100900460ff168061106d575060005460ff16155b6110895760405162461bcd60e51b8152600401610c2e9061299d565b600054610100900460ff161580156110ab576000805461ffff19166101011790555b6001600160a01b0382166110d15760405162461bcd60e51b8152600401610c2e9061296b565b60fc805460ff191690556001600160a01b038216600081815260fb6020526040902080546001600160a01b031916909117905561110c611f3c565b611124600080516020612ac483398151915283611fb7565b60fc8054610100600160a81b0319166101006001600160a01b038516021790558015610c41576000805461ff00191690555050565b611171600080516020612ac483398151915233611465565b61118d5760405162461bcd60e51b8152600401610c2e906128ea565b6001600160a01b0381166111b35760405162461bcd60e51b8152600401610c2e9061296b565b6001600160a01b03818116600090815260fb602052604090205416156112255760405162461bcd60e51b815260206004820152602160248201527f436f6e74726f6c6c65723a2061646d696e20616c7265616479206578697374656044820152601960fa1b6064820152608401610c2e565b6001600160a01b038116600081815260fb6020526040902080546001600160a01b0319169091179055610d0b600080516020612ac483398151915282611fb7565b60fc5461010090046001600160a01b031633146112955760405162461bcd60e51b8152600401610c2e90612919565b60fc5460ff16156112dd5760405162461bcd60e51b815260206004820152601260248201527110dbdb9d1c9bdb1b195c8e881c185d5cd95960721b6044820152606401610c2e565b60fc805460ff191660011790556040517f62e78cea01bee320cd4e420270b5ea74000d11b0c9f74754ebdbfc544b05a25890610e5390339061280b565b600054610100900460ff1680611333575060005460ff16155b61134f5760405162461bcd60e51b8152600401610c2e9061299d565b600054610100900460ff16158015611371576000805461ffff19166101011790555b61137a33611054565b61013080546001600160a01b038087166001600160a01b031992831617909255610134805486841690831617905561013380549285169290911691909117905580156113cc576000805461ff00191690555b50505050565b6113ea600080516020612ac483398151915233611465565b6114065760405162461bcd60e51b8152600401610c2e906128ea565b60fc80546001600160a01b0390921661010002610100600160a81b0319909216919091179055565b611446600080516020612ac483398151915233610bc2565b33600090815260fb6020526040902080546001600160a01b0319169055565b600091825260c9602090815260408084206001600160a01b0393909316845291905290205460ff1690565b6114a8600080516020612ac483398151915233611465565b6114c45760405162461bcd60e51b8152600401610c2e906128ea565b61013454604080516335ea6a7560e01b81526001600160a01b038481166004830152915160009392909216916335ea6a759160248082019261018092909190829003018186803b15801561151757600080fd5b505afa15801561152b573d6000803e3d6000fd5b505050506040513d61018081101561154257600080fd5b5060e00151610134549091508290611568906001600160a01b0380841691166000611fc1565b61013454611585906001600160a01b038381169116600019611fc1565b506001600160a01b03918216600090815261012f6020526040902080546001600160a01b03191691909216179055565b6115cd600080516020612ac483398151915233611465565b6115e95760405162461bcd60e51b8152600401610c2e906128ea565b6001600160a01b03821661162e5760405162461bcd60e51b8152600401808060200182810382526029815260200180612b316029913960400191505060405180910390fd5b6001600160a01b0390911660009081526101316020526040902055565b600082815260c960205260409020600101546116678133611b70565b610bbd8383611c5a565b610130546001600160a01b031633146116bb5760405162461bcd60e51b8152600401808060200182810382526028815260200180612a7c6028913960400191505060405180910390fd5b826116c581611aa7565b611704576040805162461bcd60e51b81526020600482018190526024820152600080516020612aa4833981519152604482015290519081900360640190fd5b6101345460408051631a4ca37b60e21b81526001600160a01b038781166004830152602482018690528681166044830152915191909216916369328dec91606480830192600092919082900301818387803b15801561176257600080fd5b505af1158015611776573d6000803e3d6000fd5b5050505050505050565b611798600080516020612ac483398151915233611465565b6117b45760405162461bcd60e51b8152600401610c2e906128ea565b6001600160a01b03818116600090815261012f6020526040808220548151600180825281840190935293169290816020016020820280368337019050509050818160008151811061181557634e487b7160e01b600052603260045260246000fd5b6001600160a01b0392831660209182029290920181019190915261013354604080516345accf9360e11b81523060248201819052600482019283528651604483015286516000969490941694638b599f269488949293839260649091019186820191028083838c5b8381101561189557818101518382015260200161187d565b50505050905001935050505060206040518083038186803b1580156118b957600080fd5b505afa1580156118cd573d6000803e3d6000fd5b505050506040513d60208110156118e357600080fd5b505161013354604051633111e7b360e01b81526024810183905233604482018190526060600483019081528651606484015286519495506001600160a01b0390931693633111e7b39387938793928291608401906020878101910280838360005b8381101561195c578181015183820152602001611944565b50505050905001945050505050600060405180830381600087803b15801561176257600080fd5b8061198d81611aa7565b6119cc576040805162461bcd60e51b81526020600482018190526024820152600080516020612aa4833981519152604482015290519081900360640190fd5b604080516370a0823160e01b8152306004820152905183916000916001600160a01b038416916370a08231916024808301926020929190829003018186803b158015611a1757600080fd5b505afa158015611a2b573d6000803e3d6000fd5b505050506040513d6020811015611a4157600080fd5b5051610134546040805163e8eda9df60e01b81526001600160a01b0388811660048301526024820185905230604483015260006064830181905292519495509092169263e8eda9df92608480820193929182900301818387803b15801561176257600080fd5b6001600160a01b03908116600090815261012f602052604090205416151590565b6001600160a01b03808216600090815261012f602090815260408083205481516370a0823160e01b81523060048201529151939416928392859284926370a0823192602480840193919291829003018186803b158015611b2757600080fd5b505afa158015611b3b573d6000803e3d6000fd5b505050506040513d6020811015611b5157600080fd5b50519050600a8111611b6857506000949350505050565b949350505050565b611b7a8282611465565b610c4157611b92816001600160a01b03166014612118565b611b9d836020612118565b604051602001611bae92919061279c565b60408051601f198184030181529082905262461bcd60e51b8252610c2e9160040161281f565b611bde8282611465565b610c4157600082815260c9602090815260408083206001600160a01b03851684529091529020805460ff19166001179055611c163390565b6001600160a01b0316816001600160a01b0316837f2f8788117e7eff1d82e926ec794901d17c78024a50270940304540a733656f0d60405160405180910390a45050565b611c648282611465565b15610c4157600082815260c9602090815260408083206001600160a01b0385168085529252808320805460ff1916905551339285917ff6391f5c32d9c69d2a47ea670b442974b53935d1edc7fd64eb21e047a839171b9190a45050565b7f360894a13ba1a3210667c828492db98dca3e2076cc3735a920a3ca505d382bbc546001600160a01b031690565b611d07600080516020612ac483398151915233611465565b610d0b5760405162461bcd60e51b8152600401610c2e906128ea565b6000611d2d611cc1565b9050611d3884612301565b600083511180611d455750815b15611d5657611d5484846123a6565b505b7f4910fdfa16fed3260ed0e7147f7cc6da11a60208b5b9406d12a635614ffd9143805460ff16611e6357805460ff19166001178155604051611dd1908690611da290859060240161280b565b60408051601f198184030181529190526020810180516001600160e01b0316631b2ce7f360e11b1790526123a6565b50805460ff19168155611de2611cc1565b6001600160a01b0316826001600160a01b031614611e5a5760405162461bcd60e51b815260206004820152602f60248201527f45524331393637557067726164653a207570677261646520627265616b73206660448201526e75727468657220757067726164657360881b6064820152608401610c2e565b611e6385612491565b5050505050565b6001600160a01b038116611eaf5760405162461bcd60e51b8152600401808060200182810382526026815260200180612b0b6026913960400191505060405180910390fd5b604080516370a0823160e01b8152306004820152905183916000916001600160a01b038416916370a08231916024808301926020929190829003018186803b158015611efa57600080fd5b505afa158015611f0e573d6000803e3d6000fd5b505050506040513d6020811015611f2457600080fd5b505190506113cc6001600160a01b03831684836124d1565b600054610100900460ff1680611f55575060005460ff16155b611f715760405162461bcd60e51b8152600401610c2e9061299d565b600054610100900460ff16158015611f93576000805461ffff19166101011790555b611f9b612501565b611fa3612501565b8015610d0b576000805461ff001916905550565b610c418282611bd4565b80158061204a5750604051636eb1769f60e11b81523060048201526001600160a01b03838116602483015284169063dd62ed3e9060440160206040518083038186803b15801561201057600080fd5b505afa158015612024573d6000803e3d6000fd5b505050506040513d601f19601f820116820180604052508101906120489190612768565b155b6120b55760405162461bcd60e51b815260206004820152603660248201527f5361666545524332303a20617070726f76652066726f6d206e6f6e2d7a65726f60448201527520746f206e6f6e2d7a65726f20616c6c6f77616e636560501b6064820152608401610c2e565b6040516001600160a01b038316602482015260448101829052610bbd90849063095ea7b360e01b906064015b60408051601f198184030181529190526020810180516001600160e01b03166001600160e01b03199093169290921790915261256b565b60606000612127836002612a03565b6121329060026129eb565b67ffffffffffffffff81111561215857634e487b7160e01b600052604160045260246000fd5b6040519080825280601f01601f191660200182016040528015612182576020820181803683370190505b509050600360fc1b816000815181106121ab57634e487b7160e01b600052603260045260246000fd5b60200101906001600160f81b031916908160001a905350600f60fb1b816001815181106121e857634e487b7160e01b600052603260045260246000fd5b60200101906001600160f81b031916908160001a905350600061220c846002612a03565b6122179060016129eb565b90505b60018111156122ab576f181899199a1a9b1b9c1cb0b131b232b360811b85600f166010811061225957634e487b7160e01b600052603260045260246000fd5b1a60f81b82828151811061227d57634e487b7160e01b600052603260045260246000fd5b60200101906001600160f81b031916908160001a90535060049490941c936122a481612a4e565b905061221a565b5083156122fa5760405162461bcd60e51b815260206004820181905260248201527f537472696e67733a20686578206c656e67746820696e73756666696369656e746044820152606401610c2e565b9392505050565b803b6123655760405162461bcd60e51b815260206004820152602d60248201527f455243313936373a206e657720696d706c656d656e746174696f6e206973206e60448201526c1bdd08184818dbdb9d1c9858dd609a1b6064820152608401610c2e565b7f360894a13ba1a3210667c828492db98dca3e2076cc3735a920a3ca505d382bbc80546001600160a01b0319166001600160a01b0392909216919091179055565b6060823b6124055760405162461bcd60e51b815260206004820152602660248201527f416464726573733a2064656c65676174652063616c6c20746f206e6f6e2d636f6044820152651b9d1c9858dd60d21b6064820152608401610c2e565b600080846001600160a01b0316846040516124209190612780565b600060405180830381855af49150503d806000811461245b576040519150601f19603f3d011682016040523d82523d6000602084013e612460565b606091505b50915091506124888282604051806060016040528060278152602001612ae46027913961263d565b95945050505050565b61249a81612301565b6040516001600160a01b038216907fbc7cd75a20ee27fd9adebab32041f755214dbc6bffa90cc0225b39da2e5c2d3b90600090a250565b6040516001600160a01b038316602482015260448101829052610bbd90849063a9059cbb60e01b906064016120e1565b600054610100900460ff168061251a575060005460ff16155b6125365760405162461bcd60e51b8152600401610c2e9061299d565b600054610100900460ff16158015611fa3576000805461ffff19166101011790558015610d0b576000805461ff001916905550565b60006125c0826040518060400160405280602081526020017f5361666545524332303a206c6f772d6c6576656c2063616c6c206661696c6564815250856001600160a01b03166126769092919063ffffffff16565b805190915015610bbd57808060200190518101906125de9190612748565b610bbd5760405162461bcd60e51b815260206004820152602a60248201527f5361666545524332303a204552433230206f7065726174696f6e20646964206e6044820152691bdd081cdd58d8d9595960b21b6064820152608401610c2e565b6060831561264c5750816122fa565b82511561265c5782518084602001fd5b8160405162461bcd60e51b8152600401610c2e919061281f565b6060611b68848460008585843b6126cf5760405162461bcd60e51b815260206004820152601d60248201527f416464726573733a2063616c6c20746f206e6f6e2d636f6e74726163740000006044820152606401610c2e565b600080866001600160a01b031685876040516126eb9190612780565b60006040518083038185875af1925050503d8060008114612728576040519150601f19603f3d011682016040523d82523d6000602084013e61272d565b606091505b509150915061273d82828661263d565b979650505050505050565b600060208284031215612759578081fd5b815180151581146122fa578182fd5b600060208284031215612779578081fd5b5051919050565b60008251612792818460208701612a22565b9190910192915050565b76020b1b1b2b9b9a1b7b73a3937b61d1030b1b1b7bab73a1604d1b8152600083516127ce816017850160208801612a22565b7001034b99036b4b9b9b4b733903937b6329607d1b60179184019182015283516127ff816028840160208801612a22565b01602801949350505050565b6001600160a01b0391909116815260200190565b602081526000825180602084015261283e816040850160208701612a22565b601f01601f19169190910160400192915050565b6020808252602c908201527f46756e6374696f6e206d7573742062652063616c6c6564207468726f7567682060408201526b19195b1959d85d1958d85b1b60a21b606082015260800190565b6020808252602c908201527f46756e6374696f6e206d7573742062652063616c6c6564207468726f7567682060408201526b6163746976652070726f787960a01b606082015260800190565b60208082526015908201527421b7b73a3937b63632b91d103737ba1030b236b4b760591b604082015260600190565b60208082526032908201527f436f6e74726f6c6c65723a2063616c6c657220646f6573206e6f7420686176656040820152712074686520677561726469616e20726f6c6560701b606082015260800190565b602080825260189082015277436f6e74726f6c6c65723a2061646472657373207a65726f60401b604082015260600190565b6020808252602e908201527f496e697469616c697a61626c653a20636f6e747261637420697320616c72656160408201526d191e481a5b9a5d1a585b1a5e995960921b606082015260800190565b600082198211156129fe576129fe612a65565b500190565b6000816000190483118215151615612a1d57612a1d612a65565b500290565b60005b83811015612a3d578181015183820152602001612a25565b838111156113cc5750506000910152565b600081612a5d57612a5d612a65565b506000190190565b634e487b7160e01b600052601160045260246000fdfe41617665416461707465723a206f6e6c79206173736574206d616e616765722063616e2063616c6c41617665416461707465723a20546f6b656e206e6f7420737570706f727465642172861495e7b85edac73e3cd5fbb42dd675baadf627720e687bcfdaca025096416464726573733a206c6f772d6c6576656c2064656c65676174652063616c6c206661696c656441617665416461707465723a20526563697069656e742063616e206e6f74206265207a65726f41617665416461707465723a20746f6b656e416464726573732063616e206e6f74206265207a65726fa264697066735822122049ab8b18d4a7e82a37a016823348351736c3193b9efeec2a1395d8786c8eac4364736f6c63430008040033",
  "devdoc": {
    "details": "The implementation of Aave.Finance MoneyMarket that integrates with AssetManager.",
    "kind": "dev",
    "methods": {
      "addAdmin(address)": {
        "details": "Add a new admin account",
        "params": {
          "account": "Account address"
        }
      },
      "deposit(address)": {
        "details": "Deposits the given amount of tokens in the underlying money market."
      },
      "getRate(address)": {
        "details": "Returns the interest rate per block for the given token."
      },
      "getRoleAdmin(bytes32)": {
        "details": "Returns the admin role that controls `role`. See {grantRole} and {revokeRole}. To change a role's admin, use {_setRoleAdmin}."
      },
      "getSupply(address)": {
        "details": "Returns the supply for the given token, including accrued interest. This function can have side effects."
      },
      "getSupplyView(address)": {
        "details": "Returns the supply for the given token; it might not include accrued interest. This function *cannot* have side effects."
      },
      "grantRole(bytes32,address)": {
        "details": "Grants `role` to `account`. If `account` had not been already granted `role`, emits a {RoleGranted} event. Requirements: - the caller must have ``role``'s admin role."
      },
      "hasRole(bytes32,address)": {
        "details": "Returns `true` if `account` has been granted `role`."
      },
      "isAdmin(address)": {
        "details": "Check if the address provided is the admin",
        "params": {
          "account": "Account address"
        }
      },
      "pause()": {
        "details": "Called by a pauser to pause, triggers stopped state."
      },
      "paused()": {
        "details": "Returns true if the contract is paused, and false otherwise."
      },
      "renounceAdmin()": {
        "details": "Renouce the admin from the sender's address"
      },
      "renounceRole(bytes32,address)": {
        "details": "Revokes `role` from the calling account. Roles are often managed via {grantRole} and {revokeRole}: this function's purpose is to provide a mechanism for accounts to lose their privileges if they are compromised (such as when a trusted device is misplaced). If the calling account had been revoked `role`, emits a {RoleRevoked} event. Requirements: - the caller must be `account`."
      },
      "revokeRole(bytes32,address)": {
        "details": "Revokes `role` from `account`. If `account` had been granted `role`, emits a {RoleRevoked} event. Requirements: - the caller must have ``role``'s admin role."
      },
      "setGuardian(address)": {
        "details": "Set pauseGuardian account",
        "params": {
          "account": "Account address"
        }
      },
      "supportsInterface(bytes4)": {
        "details": "See {IERC165-supportsInterface}."
      },
      "supportsToken(address)": {
        "details": "Indicates if the adapter supports the token with the given address."
      },
      "unpause()": {
        "details": "Called by a pauser to unpause, returns to normal state."
      },
      "upgradeTo(address)": {
        "details": "Upgrade the implementation of the proxy to `newImplementation`. Calls {_authorizeUpgrade}. Emits an {Upgraded} event."
      },
      "upgradeToAndCall(address,bytes)": {
        "details": "Upgrade the implementation of the proxy to `newImplementation`, and subsequently execute the function call encoded in `data`. Calls {_authorizeUpgrade}. Emits an {Upgraded} event."
      },
      "withdrawAll(address,address)": {
        "details": "Withdraws all the tokens from the underlying money market and transfers them to `recipient`."
      }
    },
    "stateVariables": {
      "ceilingMap": {
        "details": "The maximum amount that should be deposited in money market",
        "params": {
          "tokenAddress": "The address of token whose ceiling is being fetched"
        }
      },
      "floorMap": {
        "details": "The minimum amount that should be deposited in money market before moving to next priority market",
        "params": {
          "tokenAddress": "The address of token whose floor is being fetched"
        }
      }
    },
    "title": "AaveAdapter",
    "version": 1
  },
  "userdoc": {
    "kind": "user",
    "methods": {},
    "version": 1
  },
  "storageLayout": {
    "storage": [
      {
        "astId": 823,
        "contract": "contracts/asset/AaveAdapter.sol:AaveAdapter",
        "label": "_initialized",
        "offset": 0,
        "slot": "0",
        "type": "t_bool"
      },
      {
        "astId": 826,
        "contract": "contracts/asset/AaveAdapter.sol:AaveAdapter",
        "label": "_initializing",
        "offset": 1,
        "slot": "0",
        "type": "t_bool"
      },
      {
        "astId": 806,
        "contract": "contracts/asset/AaveAdapter.sol:AaveAdapter",
        "label": "__gap",
        "offset": 0,
        "slot": "1",
        "type": "t_array(t_uint256)50_storage"
      },
      {
        "astId": 973,
        "contract": "contracts/asset/AaveAdapter.sol:AaveAdapter",
        "label": "__gap",
        "offset": 0,
        "slot": "51",
        "type": "t_array(t_uint256)50_storage"
      },
      {
        "astId": 2453,
        "contract": "contracts/asset/AaveAdapter.sol:AaveAdapter",
        "label": "__gap",
        "offset": 0,
        "slot": "101",
        "type": "t_array(t_uint256)50_storage"
      },
      {
        "astId": 3375,
        "contract": "contracts/asset/AaveAdapter.sol:AaveAdapter",
        "label": "__gap",
        "offset": 0,
        "slot": "151",
        "type": "t_array(t_uint256)50_storage"
      },
      {
        "astId": 48,
        "contract": "contracts/asset/AaveAdapter.sol:AaveAdapter",
        "label": "_roles",
        "offset": 0,
        "slot": "201",
        "type": "t_mapping(t_bytes32,t_struct(RoleData)43_storage)"
      },
      {
        "astId": 335,
        "contract": "contracts/asset/AaveAdapter.sol:AaveAdapter",
        "label": "__gap",
        "offset": 0,
        "slot": "202",
        "type": "t_array(t_uint256)49_storage"
      },
      {
        "astId": 12125,
        "contract": "contracts/asset/AaveAdapter.sol:AaveAdapter",
        "label": "_admins",
        "offset": 0,
        "slot": "251",
        "type": "t_mapping(t_address,t_address)"
      },
      {
        "astId": 12127,
        "contract": "contracts/asset/AaveAdapter.sol:AaveAdapter",
        "label": "_paused",
        "offset": 0,
        "slot": "252",
        "type": "t_bool"
      },
      {
        "astId": 12129,
        "contract": "contracts/asset/AaveAdapter.sol:AaveAdapter",
        "label": "pauseGuardian",
        "offset": 1,
        "slot": "252",
        "type": "t_address"
      },
      {
        "astId": 12369,
        "contract": "contracts/asset/AaveAdapter.sol:AaveAdapter",
        "label": "______gap",
        "offset": 0,
        "slot": "253",
        "type": "t_array(t_uint256)50_storage"
      },
      {
        "astId": 12576,
        "contract": "contracts/asset/AaveAdapter.sol:AaveAdapter",
        "label": "tokenToAToken",
        "offset": 0,
        "slot": "303",
        "type": "t_mapping(t_address,t_address)"
      },
      {
        "astId": 12578,
        "contract": "contracts/asset/AaveAdapter.sol:AaveAdapter",
        "label": "assetManager",
        "offset": 0,
        "slot": "304",
        "type": "t_address"
      },
      {
        "astId": 12583,
        "contract": "contracts/asset/AaveAdapter.sol:AaveAdapter",
        "label": "floorMap",
        "offset": 0,
        "slot": "305",
        "type": "t_mapping(t_address,t_uint256)"
      },
      {
        "astId": 12588,
        "contract": "contracts/asset/AaveAdapter.sol:AaveAdapter",
        "label": "ceilingMap",
        "offset": 0,
        "slot": "306",
        "type": "t_mapping(t_address,t_uint256)"
      },
      {
        "astId": 12591,
        "contract": "contracts/asset/AaveAdapter.sol:AaveAdapter",
        "label": "market",
        "offset": 0,
        "slot": "307",
        "type": "t_contract(AMarket)12556"
      },
      {
        "astId": 12594,
        "contract": "contracts/asset/AaveAdapter.sol:AaveAdapter",
        "label": "lendingPool",
        "offset": 0,
        "slot": "308",
        "type": "t_contract(LendingPool)12535"
      }
    ],
    "types": {
      "t_address": {
        "encoding": "inplace",
        "label": "address",
        "numberOfBytes": "20"
      },
      "t_array(t_uint256)49_storage": {
        "base": "t_uint256",
        "encoding": "inplace",
        "label": "uint256[49]",
        "numberOfBytes": "1568"
      },
      "t_array(t_uint256)50_storage": {
        "base": "t_uint256",
        "encoding": "inplace",
        "label": "uint256[50]",
        "numberOfBytes": "1600"
      },
      "t_bool": {
        "encoding": "inplace",
        "label": "bool",
        "numberOfBytes": "1"
      },
      "t_bytes32": {
        "encoding": "inplace",
        "label": "bytes32",
        "numberOfBytes": "32"
      },
      "t_contract(AMarket)12556": {
        "encoding": "inplace",
        "label": "contract AMarket",
        "numberOfBytes": "20"
      },
      "t_contract(LendingPool)12535": {
        "encoding": "inplace",
        "label": "contract LendingPool",
        "numberOfBytes": "20"
      },
      "t_mapping(t_address,t_address)": {
        "encoding": "mapping",
        "key": "t_address",
        "label": "mapping(address => address)",
        "numberOfBytes": "32",
        "value": "t_address"
      },
      "t_mapping(t_address,t_bool)": {
        "encoding": "mapping",
        "key": "t_address",
        "label": "mapping(address => bool)",
        "numberOfBytes": "32",
        "value": "t_bool"
      },
      "t_mapping(t_address,t_uint256)": {
        "encoding": "mapping",
        "key": "t_address",
        "label": "mapping(address => uint256)",
        "numberOfBytes": "32",
        "value": "t_uint256"
      },
      "t_mapping(t_bytes32,t_struct(RoleData)43_storage)": {
        "encoding": "mapping",
        "key": "t_bytes32",
        "label": "mapping(bytes32 => struct AccessControlUpgradeable.RoleData)",
        "numberOfBytes": "32",
        "value": "t_struct(RoleData)43_storage"
      },
      "t_struct(RoleData)43_storage": {
        "encoding": "inplace",
        "label": "struct AccessControlUpgradeable.RoleData",
        "members": [
          {
            "astId": 40,
            "contract": "contracts/asset/AaveAdapter.sol:AaveAdapter",
            "label": "members",
            "offset": 0,
            "slot": "0",
            "type": "t_mapping(t_address,t_bool)"
          },
          {
            "astId": 42,
            "contract": "contracts/asset/AaveAdapter.sol:AaveAdapter",
            "label": "adminRole",
            "offset": 0,
            "slot": "1",
            "type": "t_bytes32"
          }
        ],
        "numberOfBytes": "64"
      },
      "t_uint256": {
        "encoding": "inplace",
        "label": "uint256",
        "numberOfBytes": "32"
      }
    }
  }
}