{
  "address": "0xd8cA7C410B5780BdA6425D43869e5beC19233850",
  "abi": [
    {
      "inputs": [
        {
          "internalType": "contract IERC20",
          "name": "token_",
          "type": "address"
        },
        {
          "internalType": "contract IArbUnionWrapper",
          "name": "arbUnionWrapper_",
          "type": "address"
        },
        {
          "internalType": "address",
          "name": "target_",
          "type": "address"
        }
      ],
      "stateMutability": "nonpayable",
      "type": "constructor"
    },
    {
      "anonymous": false,
      "inputs": [
        {
          "indexed": true,
          "internalType": "address",
          "name": "caller",
          "type": "address"
        },
        {
          "indexed": false,
          "internalType": "address",
          "name": "destination",
          "type": "address"
        },
        {
          "indexed": false,
          "internalType": "uint256",
          "name": "amount",
          "type": "uint256"
        }
      ],
      "name": "LogDeposit",
      "type": "event"
    },
    {
      "anonymous": false,
      "inputs": [
        {
          "indexed": true,
          "internalType": "address",
          "name": "previousOwner",
          "type": "address"
        },
        {
          "indexed": true,
          "internalType": "address",
          "name": "newOwner",
          "type": "address"
        }
      ],
      "name": "OwnershipTransferred",
      "type": "event"
    },
    {
      "inputs": [],
      "name": "approveToken",
      "outputs": [],
      "stateMutability": "nonpayable",
      "type": "function"
    },
    {
      "inputs": [],
      "name": "arbUnionWrapper",
      "outputs": [
        {
          "internalType": "contract IArbUnionWrapper",
          "name": "",
          "type": "address"
        }
      ],
      "stateMutability": "view",
      "type": "function"
    },
    {
      "inputs": [
        {
          "internalType": "uint256",
          "name": "maxGas",
          "type": "uint256"
        },
        {
          "internalType": "uint256",
          "name": "gasPriceBid",
          "type": "uint256"
        },
        {
          "internalType": "uint256",
          "name": "maxSubmissionCost",
          "type": "uint256"
        }
      ],
      "name": "bridge",
      "outputs": [],
      "stateMutability": "payable",
      "type": "function"
    },
    {
      "inputs": [
        {
          "internalType": "address",
          "name": "recipient",
          "type": "address"
        }
      ],
      "name": "claimTokens",
      "outputs": [],
      "stateMutability": "nonpayable",
      "type": "function"
    },
    {
      "inputs": [],
      "name": "owner",
      "outputs": [
        {
          "internalType": "address",
          "name": "",
          "type": "address"
        }
      ],
      "stateMutability": "view",
      "type": "function"
    },
    {
      "inputs": [],
      "name": "renounceOwnership",
      "outputs": [],
      "stateMutability": "nonpayable",
      "type": "function"
    },
    {
      "inputs": [],
      "name": "target",
      "outputs": [
        {
          "internalType": "address",
          "name": "",
          "type": "address"
        }
      ],
      "stateMutability": "view",
      "type": "function"
    },
    {
      "inputs": [],
      "name": "token",
      "outputs": [
        {
          "internalType": "contract IERC20",
          "name": "",
          "type": "address"
        }
      ],
      "stateMutability": "view",
      "type": "function"
    },
    {
      "inputs": [
        {
          "internalType": "address",
          "name": "newOwner",
          "type": "address"
        }
      ],
      "name": "transferOwnership",
      "outputs": [],
      "stateMutability": "nonpayable",
      "type": "function"
    },
    {
      "stateMutability": "payable",
      "type": "receive"
    }
  ],
  "transactionHash": "0xe6ba65e51932429bff7f9d90b121e1385a1cb6f6f2101e4935b674fc74ff532f",
  "args": [
    "0x5Dfe42eEA70a3e6f93EE54eD9C321aF07A85535C",
    "0x1fed524867348eCeA0A4D9AEaE989794DbF8F631",
    "0x9610d516779F5Ce55e9faCbA703B9Fd84d7d59ce"
  ],
  "solcInputHash": "4793ff3a0960b82e3cabf228d8731952",
  "bytecode": "0x60e060405234801561001057600080fd5b506040516200129a3803806200129a833981016040819052610031916100b1565b61003a33610061565b6001600160601b0319606093841b811660805291831b821660a05290911b1660c052610115565b600080546001600160a01b038381166001600160a01b0319831681178455604051919092169283917f8be0079c531659141344cd1fd0a4f28419497f9722a3daafe3b4186f6b6457e09190a35050565b6000806000606084860312156100c5578283fd5b83516100d0816100fd565b60208501519093506100e1816100fd565b60408501519092506100f2816100fd565b809150509250925092565b6001600160a01b038116811461011257600080fd5b50565b60805160601c60a05160601c60c05160601c6110e3620001b76000396000818161013b015281816104f301526105bb0152600081816101070152818161028e0152818161036b0152818161042d015281816104d201528181610660015281816106b50152818161076c01526108110152600081816101af015281816101eb0152818161063e01528181610693015281816108b1015261094b01526110e36000f3fe60806040526004361061007a5760003560e01c806332a2158814610086578063715018a61461009b5780638da5cb5b146100b057806399b71d5c146100e0578063c163858e146100f5578063d4b8399214610129578063df8de3e71461015d578063f2fde38b1461017d578063fc0c546a1461019d57600080fd5b3661008157005b600080fd5b610099610094366004610f25565b6101d1565b005b3480156100a757600080fd5b506100996105fb565b3480156100bc57600080fd5b506000546001600160a01b03165b6040516100d79190610f98565b60405180910390f35b3480156100ec57600080fd5b50610099610631565b34801561010157600080fd5b506100ca7f000000000000000000000000000000000000000000000000000000000000000081565b34801561013557600080fd5b506100ca7f000000000000000000000000000000000000000000000000000000000000000081565b34801561016957600080fd5b50610099610178366004610e17565b6106dc565b34801561018957600080fd5b50610099610198366004610e17565b610977565b3480156101a957600080fd5b506100ca7f000000000000000000000000000000000000000000000000000000000000000081565b6040516370a0823160e01b81526000906001600160a01b037f000000000000000000000000000000000000000000000000000000000000000016906370a0823190610220903090600401610f98565b60206040518083038186803b15801561023857600080fd5b505afa15801561024c573d6000803e3d6000fd5b505050506040513d601f19601f820116820180604052508101906102709190610f0d565b905080156105f557604051630ea598cb60e41b8152600481018290527f00000000000000000000000000000000000000000000000000000000000000006001600160a01b03169063ea598cb090602401602060405180830381600087803b1580156102da57600080fd5b505af11580156102ee573d6000803e3d6000fd5b505050506040513d601f19601f820116820180604052508101906103129190610e4f565b6103515760405162461bcd60e51b815260206004820152600b60248201526a1ddc985c0819985a5b195960aa1b60448201526064015b60405180910390fd5b6040516370a0823160e01b81526000906001600160a01b037f000000000000000000000000000000000000000000000000000000000000000016906370a08231906103a0903090600401610f98565b602060405180830381600087803b1580156103ba57600080fd5b505af11580156103ce573d6000803e3d6000fd5b505050506040513d601f19601f820116820180604052508101906103f29190610f0d565b905060008360405160200161041891815260406020820181905260009082015260600190565b604051602081830303815290604052905060007f00000000000000000000000000000000000000000000000000000000000000006001600160a01b031663f887ea406040518163ffffffff1660e01b8152600401602060405180830381600087803b15801561048657600080fd5b505af115801561049a573d6000803e3d6000fd5b505050506040513d601f19601f820116820180604052508101906104be9190610e33565b9050806001600160a01b031663d2ce7d65347f00000000000000000000000000000000000000000000000000000000000000007f0000000000000000000000000000000000000000000000000000000000000000878c8c896040518863ffffffff1660e01b815260040161053796959493929190610fac565b6000604051808303818588803b15801561055057600080fd5b505af1158015610564573d6000803e3d6000fd5b50505050506040513d6000823e601f3d908101601f1916820160405261058d9190810190610e6f565b50336001600160a01b03167f5c8d1f77b6233deba47b516a690497af4c7f1be42a768e331832cb02b3400d6b7f0000000000000000000000000000000000000000000000000000000000000000866040516105e9929190610ff5565b60405180910390a25050505b50505050565b6000546001600160a01b031633146106255760405162461bcd60e51b815260040161034890611021565b61062f6000610a12565b565b6106866001600160a01b037f0000000000000000000000000000000000000000000000000000000000000000167f00000000000000000000000000000000000000000000000000000000000000006000610a62565b61062f6001600160a01b037f0000000000000000000000000000000000000000000000000000000000000000167f0000000000000000000000000000000000000000000000000000000000000000600019610a62565b6000546001600160a01b031633146107065760405162461bcd60e51b815260040161034890611021565b6001600160a01b0381166107525760405162461bcd60e51b81526020600482015260136024820152720726563697069656e742063616e74206265203606c1b6044820152606401610348565b6040516370a0823160e01b81526000906001600160a01b037f000000000000000000000000000000000000000000000000000000000000000016906370a08231906107a1903090600401610f98565b602060405180830381600087803b1580156107bb57600080fd5b505af11580156107cf573d6000803e3d6000fd5b505050506040513d601f19601f820116820180604052508101906107f39190610f0d565b9050801561089757604051636f074d1f60e11b8152600481018290527f00000000000000000000000000000000000000000000000000000000000000006001600160a01b03169063de0e9a3e90602401602060405180830381600087803b15801561085d57600080fd5b505af1158015610871573d6000803e3d6000fd5b505050506040513d601f19601f820116820180604052508101906108959190610e4f565b505b6040516370a0823160e01b81526000906001600160a01b037f000000000000000000000000000000000000000000000000000000000000000016906370a08231906108e6903090600401610f98565b60206040518083038186803b1580156108fe57600080fd5b505afa158015610912573d6000803e3d6000fd5b505050506040513d601f19601f820116820180604052508101906109369190610f0d565b90508015610972576109726001600160a01b037f0000000000000000000000000000000000000000000000000000000000000000168483610bac565b505050565b6000546001600160a01b031633146109a15760405162461bcd60e51b815260040161034890611021565b6001600160a01b038116610a065760405162461bcd60e51b815260206004820152602660248201527f4f776e61626c653a206e6577206f776e657220697320746865207a65726f206160448201526564647265737360d01b6064820152608401610348565b610a0f81610a12565b50565b600080546001600160a01b038381166001600160a01b0319831681178455604051919092169283917f8be0079c531659141344cd1fd0a4f28419497f9722a3daafe3b4186f6b6457e09190a35050565b801580610aeb5750604051636eb1769f60e11b81523060048201526001600160a01b03838116602483015284169063dd62ed3e9060440160206040518083038186803b158015610ab157600080fd5b505afa158015610ac5573d6000803e3d6000fd5b505050506040513d601f19601f82011682018060405250810190610ae99190610f0d565b155b610b565760405162461bcd60e51b815260206004820152603660248201527f5361666545524332303a20617070726f76652066726f6d206e6f6e2d7a65726f60448201527520746f206e6f6e2d7a65726f20616c6c6f77616e636560501b6064820152608401610348565b6109728363095ea7b360e01b8484604051602401610b75929190610ff5565b60408051601f198184030181529190526020810180516001600160e01b03166001600160e01b031990931692909217909152610bcb565b6109728363a9059cbb60e01b8484604051602401610b75929190610ff5565b6000610c20826040518060400160405280602081526020017f5361666545524332303a206c6f772d6c6576656c2063616c6c206661696c6564815250856001600160a01b0316610c9d9092919063ffffffff16565b8051909150156109725780806020019051810190610c3e9190610e4f565b6109725760405162461bcd60e51b815260206004820152602a60248201527f5361666545524332303a204552433230206f7065726174696f6e20646964206e6044820152691bdd081cdd58d8d9595960b21b6064820152608401610348565b6060610cac8484600085610cb6565b90505b9392505050565b606082471015610d175760405162461bcd60e51b815260206004820152602660248201527f416464726573733a20696e73756666696369656e742062616c616e636520666f6044820152651c8818d85b1b60d21b6064820152608401610348565b843b610d655760405162461bcd60e51b815260206004820152601d60248201527f416464726573733a2063616c6c20746f206e6f6e2d636f6e74726163740000006044820152606401610348565b600080866001600160a01b03168587604051610d819190610f7c565b60006040518083038185875af1925050503d8060008114610dbe576040519150601f19603f3d011682016040523d82523d6000602084013e610dc3565b606091505b5091509150610dd3828286610dde565b979650505050505050565b60608315610ded575081610caf565b825115610dfd5782518084602001fd5b8160405162461bcd60e51b8152600401610348919061100e565b600060208284031215610e28578081fd5b8135610caf81611098565b600060208284031215610e44578081fd5b8151610caf81611098565b600060208284031215610e60578081fd5b81518015158114610caf578182fd5b600060208284031215610e80578081fd5b815167ffffffffffffffff80821115610e97578283fd5b818401915084601f830112610eaa578283fd5b815181811115610ebc57610ebc611082565b604051601f8201601f19908116603f01168101908382118183101715610ee457610ee4611082565b81604052828152876020848701011115610efc578586fd5b610dd3836020830160208801611056565b600060208284031215610f1e578081fd5b5051919050565b600080600060608486031215610f39578182fd5b505081359360208301359350604090920135919050565b60008151808452610f68816020860160208601611056565b601f01601f19169290920160200192915050565b60008251610f8e818460208701611056565b9190910192915050565b6001600160a01b0391909116815260200190565b600060018060a01b03808916835280881660208401525085604083015284606083015283608083015260c060a0830152610fe960c0830184610f50565b98975050505050505050565b6001600160a01b03929092168252602082015260400190565b602081526000610caf6020830184610f50565b6020808252818101527f4f776e61626c653a2063616c6c6572206973206e6f7420746865206f776e6572604082015260600190565b60005b83811015611071578181015183820152602001611059565b838111156105f55750506000910152565b634e487b7160e01b600052604160045260246000fd5b6001600160a01b0381168114610a0f57600080fdfea2646970667358221220a96d6d8c6ffa030a6dd4de67c0d3eb3479aa82e9dfe33e7a4f97e537971dc20164736f6c63430008040033",
  "devdoc": {
    "kind": "dev",
    "methods": {
      "owner()": {
        "details": "Returns the address of the current owner."
      },
      "renounceOwnership()": {
        "details": "Leaves the contract without owner. It will not be possible to call `onlyOwner` functions anymore. Can only be called by the current owner. NOTE: Renouncing ownership will leave the contract without an owner, thereby removing any functionality that is only available to the owner."
      },
      "transferOwnership(address)": {
        "details": "Transfers ownership of the contract to a new account (`newOwner`). Can only be called by the current owner."
      }
    },
    "version": 1
  },
  "userdoc": {
    "kind": "user",
    "methods": {},
    "version": 1
  },
  "storageLayout": {
    "storage": [
      {
        "astId": 3806,
        "contract": "contracts/treasury/ArbConnector.sol:ArbConnector",
        "label": "_owner",
        "offset": 0,
        "slot": "0",
        "type": "t_address"
      }
    ],
    "types": {
      "t_address": {
        "encoding": "inplace",
        "label": "address",
        "numberOfBytes": "20"
      }
    }
  }
}