{
  "address": "0x1fed524867348eCeA0A4D9AEaE989794DbF8F631",
  "abi": [
    {
      "inputs": [
        {
          "internalType": "address",
          "name": "_routerAddr",
          "type": "address"
        },
        {
          "internalType": "address",
          "name": "_gatewayAddr",
          "type": "address"
        },
        {
          "internalType": "address",
          "name": "_unionToken",
          "type": "address"
        }
      ],
      "stateMutability": "nonpayable",
      "type": "constructor"
    },
    {
      "anonymous": false,
      "inputs": [
        {
          "indexed": true,
          "internalType": "address",
          "name": "owner",
          "type": "address"
        },
        {
          "indexed": true,
          "internalType": "address",
          "name": "spender",
          "type": "address"
        },
        {
          "indexed": false,
          "internalType": "uint256",
          "name": "value",
          "type": "uint256"
        }
      ],
      "name": "Approval",
      "type": "event"
    },
    {
      "anonymous": false,
      "inputs": [
        {
          "indexed": true,
          "internalType": "address",
          "name": "previousOwner",
          "type": "address"
        },
        {
          "indexed": true,
          "internalType": "address",
          "name": "newOwner",
          "type": "address"
        }
      ],
      "name": "OwnershipTransferred",
      "type": "event"
    },
    {
      "anonymous": false,
      "inputs": [
        {
          "indexed": true,
          "internalType": "address",
          "name": "from",
          "type": "address"
        },
        {
          "indexed": true,
          "internalType": "address",
          "name": "to",
          "type": "address"
        },
        {
          "indexed": false,
          "internalType": "uint256",
          "name": "value",
          "type": "uint256"
        }
      ],
      "name": "Transfer",
      "type": "event"
    },
    {
      "anonymous": false,
      "inputs": [
        {
          "indexed": true,
          "internalType": "address",
          "name": "_account",
          "type": "address"
        }
      ],
      "name": "Unwhitelisted",
      "type": "event"
    },
    {
      "anonymous": false,
      "inputs": [],
      "name": "WhitelistDisabled",
      "type": "event"
    },
    {
      "anonymous": false,
      "inputs": [],
      "name": "WhitelistEnabled",
      "type": "event"
    },
    {
      "anonymous": false,
      "inputs": [
        {
          "indexed": true,
          "internalType": "address",
          "name": "_account",
          "type": "address"
        }
      ],
      "name": "Whitelisted",
      "type": "event"
    },
    {
      "inputs": [
        {
          "internalType": "address",
          "name": "owner",
          "type": "address"
        },
        {
          "internalType": "address",
          "name": "spender",
          "type": "address"
        }
      ],
      "name": "allowance",
      "outputs": [
        {
          "internalType": "uint256",
          "name": "",
          "type": "uint256"
        }
      ],
      "stateMutability": "view",
      "type": "function"
    },
    {
      "inputs": [
        {
          "internalType": "address",
          "name": "spender",
          "type": "address"
        },
        {
          "internalType": "uint256",
          "name": "amount",
          "type": "uint256"
        }
      ],
      "name": "approve",
      "outputs": [
        {
          "internalType": "bool",
          "name": "",
          "type": "bool"
        }
      ],
      "stateMutability": "nonpayable",
      "type": "function"
    },
    {
      "inputs": [
        {
          "internalType": "address",
          "name": "account",
          "type": "address"
        }
      ],
      "name": "balanceOf",
      "outputs": [
        {
          "internalType": "uint256",
          "name": "",
          "type": "uint256"
        }
      ],
      "stateMutability": "view",
      "type": "function"
    },
    {
      "inputs": [],
      "name": "decimals",
      "outputs": [
        {
          "internalType": "uint8",
          "name": "",
          "type": "uint8"
        }
      ],
      "stateMutability": "view",
      "type": "function"
    },
    {
      "inputs": [
        {
          "internalType": "address",
          "name": "spender",
          "type": "address"
        },
        {
          "internalType": "uint256",
          "name": "subtractedValue",
          "type": "uint256"
        }
      ],
      "name": "decreaseAllowance",
      "outputs": [
        {
          "internalType": "bool",
          "name": "",
          "type": "bool"
        }
      ],
      "stateMutability": "nonpayable",
      "type": "function"
    },
    {
      "inputs": [],
      "name": "disableWhitelist",
      "outputs": [],
      "stateMutability": "nonpayable",
      "type": "function"
    },
    {
      "inputs": [],
      "name": "enableWhitelist",
      "outputs": [],
      "stateMutability": "nonpayable",
      "type": "function"
    },
    {
      "inputs": [],
      "name": "gateway",
      "outputs": [
        {
          "internalType": "address",
          "name": "",
          "type": "address"
        }
      ],
      "stateMutability": "view",
      "type": "function"
    },
    {
      "inputs": [],
      "name": "getChainId",
      "outputs": [
        {
          "internalType": "uint256",
          "name": "chainId",
          "type": "uint256"
        }
      ],
      "stateMutability": "view",
      "type": "function"
    },
    {
      "inputs": [
        {
          "internalType": "address",
          "name": "spender",
          "type": "address"
        },
        {
          "internalType": "uint256",
          "name": "addedValue",
          "type": "uint256"
        }
      ],
      "name": "increaseAllowance",
      "outputs": [
        {
          "internalType": "bool",
          "name": "",
          "type": "bool"
        }
      ],
      "stateMutability": "nonpayable",
      "type": "function"
    },
    {
      "inputs": [],
      "name": "isArbitrumEnabled",
      "outputs": [
        {
          "internalType": "uint16",
          "name": "",
          "type": "uint16"
        }
      ],
      "stateMutability": "view",
      "type": "function"
    },
    {
      "inputs": [
        {
          "internalType": "address",
          "name": "_account",
          "type": "address"
        }
      ],
      "name": "isWhitelisted",
      "outputs": [
        {
          "internalType": "bool",
          "name": "",
          "type": "bool"
        }
      ],
      "stateMutability": "view",
      "type": "function"
    },
    {
      "inputs": [],
      "name": "name",
      "outputs": [
        {
          "internalType": "string",
          "name": "",
          "type": "string"
        }
      ],
      "stateMutability": "view",
      "type": "function"
    },
    {
      "inputs": [],
      "name": "owner",
      "outputs": [
        {
          "internalType": "address",
          "name": "",
          "type": "address"
        }
      ],
      "stateMutability": "view",
      "type": "function"
    },
    {
      "inputs": [
        {
          "internalType": "address",
          "name": "l2CustomTokenAddress",
          "type": "address"
        },
        {
          "internalType": "uint256",
          "name": "maxSubmissionCostForCustomBridge",
          "type": "uint256"
        },
        {
          "internalType": "uint256",
          "name": "maxSubmissionCostForRouter",
          "type": "uint256"
        },
        {
          "internalType": "uint256",
          "name": "maxGas",
          "type": "uint256"
        },
        {
          "internalType": "uint256",
          "name": "gasPriceBid",
          "type": "uint256"
        }
      ],
      "name": "registerTokenOnL2",
      "outputs": [],
      "stateMutability": "payable",
      "type": "function"
    },
    {
      "inputs": [],
      "name": "renounceOwnership",
      "outputs": [],
      "stateMutability": "nonpayable",
      "type": "function"
    },
    {
      "inputs": [],
      "name": "router",
      "outputs": [
        {
          "internalType": "address",
          "name": "",
          "type": "address"
        }
      ],
      "stateMutability": "view",
      "type": "function"
    },
    {
      "inputs": [],
      "name": "symbol",
      "outputs": [
        {
          "internalType": "string",
          "name": "",
          "type": "string"
        }
      ],
      "stateMutability": "view",
      "type": "function"
    },
    {
      "inputs": [],
      "name": "totalSupply",
      "outputs": [
        {
          "internalType": "uint256",
          "name": "",
          "type": "uint256"
        }
      ],
      "stateMutability": "view",
      "type": "function"
    },
    {
      "inputs": [
        {
          "internalType": "address",
          "name": "recipient",
          "type": "address"
        },
        {
          "internalType": "uint256",
          "name": "amount",
          "type": "uint256"
        }
      ],
      "name": "transfer",
      "outputs": [
        {
          "internalType": "bool",
          "name": "",
          "type": "bool"
        }
      ],
      "stateMutability": "nonpayable",
      "type": "function"
    },
    {
      "inputs": [],
      "name": "transferDev",
      "outputs": [
        {
          "internalType": "bool",
          "name": "",
          "type": "bool"
        }
      ],
      "stateMutability": "nonpayable",
      "type": "function"
    },
    {
      "inputs": [
        {
          "internalType": "address",
          "name": "sender",
          "type": "address"
        },
        {
          "internalType": "address",
          "name": "recipient",
          "type": "address"
        },
        {
          "internalType": "uint256",
          "name": "amount",
          "type": "uint256"
        }
      ],
      "name": "transferFrom",
      "outputs": [
        {
          "internalType": "bool",
          "name": "",
          "type": "bool"
        }
      ],
      "stateMutability": "nonpayable",
      "type": "function"
    },
    {
      "inputs": [
        {
          "internalType": "address",
          "name": "newOwner",
          "type": "address"
        }
      ],
      "name": "transferOwnership",
      "outputs": [],
      "stateMutability": "nonpayable",
      "type": "function"
    },
    {
      "inputs": [],
      "name": "unionToken",
      "outputs": [
        {
          "internalType": "address",
          "name": "",
          "type": "address"
        }
      ],
      "stateMutability": "view",
      "type": "function"
    },
    {
      "inputs": [
        {
          "internalType": "address",
          "name": "_account",
          "type": "address"
        }
      ],
      "name": "unwhitelist",
      "outputs": [],
      "stateMutability": "nonpayable",
      "type": "function"
    },
    {
      "inputs": [
        {
          "internalType": "uint256",
          "name": "_amount",
          "type": "uint256"
        }
      ],
      "name": "unwrap",
      "outputs": [
        {
          "internalType": "bool",
          "name": "",
          "type": "bool"
        }
      ],
      "stateMutability": "nonpayable",
      "type": "function"
    },
    {
      "inputs": [
        {
          "internalType": "address",
          "name": "_account",
          "type": "address"
        }
      ],
      "name": "whitelist",
      "outputs": [],
      "stateMutability": "nonpayable",
      "type": "function"
    },
    {
      "inputs": [],
      "name": "whitelistEnabled",
      "outputs": [
        {
          "internalType": "bool",
          "name": "",
          "type": "bool"
        }
      ],
      "stateMutability": "view",
      "type": "function"
    },
    {
      "inputs": [
        {
          "internalType": "uint256",
          "name": "_amount",
          "type": "uint256"
        }
      ],
      "name": "wrap",
      "outputs": [
        {
          "internalType": "bool",
          "name": "",
          "type": "bool"
        }
      ],
      "stateMutability": "nonpayable",
      "type": "function"
    }
  ],
  "transactionHash": "0x917e38062b341420ed346a425577e8396dee3a8f8c60869b41ce16a78f86fb67",
  "args": [
    "0x72Ce9c846789fdB6fC1f34aC4AD25Dd9ef7031ef",
    "0xcEe284F754E854890e311e3280b767F80797180d",
    "0x5Dfe42eEA70a3e6f93EE54eD9C321aF07A85535C"
  ],
  "solcInputHash": "efd43c2f818c6a83516c90ca7ac81ee8",
  "bytecode": "0x60c06040523480156200001157600080fd5b5060405162001ff838038062001ff8833981016040819052620000349162000319565b604080518082018252601181527020b931102aa724a7a7102bb930b83832b960791b60208083019182528351808501909452600884526730b9312aa724a7a760c11b9084015281519192916200008d9160039162000256565b508051620000a390600490602084019062000256565b505050620000c0620000ba6200010e60201b60201c565b62000112565b606083811b6001600160601b031990811660a052600780546001600160a01b0319166001600160a01b0386169081179091559183901b16608052620001059062000164565b5050506200039f565b3390565b600580546001600160a01b038381166001600160a01b0319831681179093556040519116919082907f8be0079c531659141344cd1fd0a4f28419497f9722a3daafe3b4186f6b6457e090600090a35050565b6005546001600160a01b03163314620001c35760405162461bcd60e51b815260206004820181905260248201527f4f776e61626c653a2063616c6c6572206973206e6f7420746865206f776e6572604482015260640160405180910390fd5b6001600160a01b0381166200020a5760405162461bcd60e51b815260040180806020018281038252602681526020018062001fd26026913960400191505060405180910390fd5b6001600160a01b038116600081815260066020526040808220805460ff19166001179055517faab7954e9d246b167ef88aeddad35209ca2489d95a8aeb59e288d9b19fae5a549190a250565b828054620002649062000362565b90600052602060002090601f016020900481019282620002885760008555620002d3565b82601f10620002a357805160ff1916838001178555620002d3565b82800160010185558215620002d3579182015b82811115620002d3578251825591602001919060010190620002b6565b50620002e1929150620002e5565b5090565b5b80821115620002e15760008155600101620002e6565b80516001600160a01b03811681146200031457600080fd5b919050565b6000806000606084860312156200032e578283fd5b6200033984620002fc565b92506200034960208501620002fc565b91506200035960408501620002fc565b90509250925092565b600181811c908216806200037757607f821691505b602082108114156200039957634e487b7160e01b600052602260045260246000fd5b50919050565b60805160601c60a05160601c611beb620003e76000396000818161052e015261073d0152600081816104fa0152818161095a01528181610e530152610e940152611beb6000f3fe6080604052600436106101825760003560e01c80638da5cb5b116100d7578063cdfb2b4e11610085578063cdfb2b4e1461043e578063d6b0f48414610453578063dd62ed3e14610468578063de0e9a3e14610488578063ea598cb0146104a8578063f2fde38b146104c8578063f70222e1146104e8578063f887ea401461051c57600080fd5b80638da5cb5b1461036c5780638e5f5ad11461038157806395d89b41146103a95780639a590427146103be5780639b19251a146103de578063a457c2d7146103fe578063a9059cbb1461041e57600080fd5b80633408e470116101345780633408e4701461027f57806339509351146102925780633af32abf146102b257806351fb012d146102eb57806370a082311461030c578063715018a61461034257806381ddc60d1461035757600080fd5b806306fdde0314610187578063095ea7b3146101b2578063116191b6146101e257806318160ddd1461020f578063181655941461022e57806323b872dd14610243578063313ce56714610263575b600080fd5b34801561019357600080fd5b5061019c610550565b6040516101a99190611a0e565b60405180910390f35b3480156101be57600080fd5b506101d26101cd3660046118fe565b6105e2565b60405190151581526020016101a9565b3480156101ee57600080fd5b50600754610202906001600160a01b031681565b6040516101a991906119d4565b34801561021b57600080fd5b506002545b6040519081526020016101a9565b61024161023c366004611927565b6105f8565b005b34801561024f57600080fd5b506101d261025e3660046118c3565b6107f7565b34801561026f57600080fd5b50604051601281526020016101a9565b34801561028b57600080fd5b5046610220565b34801561029e57600080fd5b506101d26102ad3660046118fe565b6108a3565b3480156102be57600080fd5b506101d26102cd366004611877565b6001600160a01b031660009081526006602052604090205460ff1690565b3480156102f757600080fd5b506005546101d290600160a01b900460ff1681565b34801561031857600080fd5b50610220610327366004611877565b6001600160a01b031660009081526020819052604090205490565b34801561034e57600080fd5b506102416108df565b34801561036357600080fd5b506101d261091a565b34801561037857600080fd5b50610202610a76565b34801561038d57600080fd5b50610396610a85565b60405161ffff90911681526020016101a9565b3480156103b557600080fd5b5061019c610adc565b3480156103ca57600080fd5b506102416103d9366004611877565b610aeb565b3480156103ea57600080fd5b506102416103f9366004611877565b610ba8565b34801561040a57600080fd5b506101d26104193660046118fe565b610c68565b34801561042a57600080fd5b506101d26104393660046118fe565b610d01565b34801561044a57600080fd5b50610241610d0e565b34801561045f57600080fd5b50610241610d7b565b34801561047457600080fd5b50610220610483366004611891565b610de2565b34801561049457600080fd5b506101d26104a3366004611988565b610e0d565b3480156104b457600080fd5b506101d26104c3366004611988565b610e82565b3480156104d457600080fd5b506102416104e3366004611877565b610f9b565b3480156104f457600080fd5b506102027f000000000000000000000000000000000000000000000000000000000000000081565b34801561052857600080fd5b506102027f000000000000000000000000000000000000000000000000000000000000000081565b60606003805461055f90611b1e565b80601f016020809104026020016040519081016040528092919081815260200182805461058b90611b1e565b80156105d85780601f106105ad576101008083540402835291602001916105d8565b820191906000526020600020905b8154815290600101906020018083116105bb57829003601f168201915b5050505050905090565b60006105ef33848461103b565b50600192915050565b33610601610a76565b6001600160a01b0316146106305760405162461bcd60e51b815260040161062790611a6f565b60405180910390fd5b60078054600160a01b60ff60a01b19821681179092550460ff1660006106568385611abc565b6106609087611aa4565b9050600061066e8486611abc565b6106789087611aa4565b90506106848183611aa4565b34146106bc5760405162461bcd60e51b81526020600482015260076024820152664f56455250415960c81b6044820152606401610627565b60075460405163f26bdead60e01b81526001600160a01b039091169063f26bdead9084906106f4908c908a908a908e906004016119e8565b6000604051808303818588803b15801561070d57600080fd5b505af1158015610721573d6000803e3d6000fd5b505060075460405163dd61456960e01b81526001600160a01b037f00000000000000000000000000000000000000000000000000000000000000008116955063dd614569945086935061077e9216908a908a908d906004016119e8565b6020604051808303818588803b15801561079757600080fd5b505af11580156107ab573d6000803e3d6000fd5b50505050506040513d601f19601f820116820180604052508101906107d091906119a0565b505060078054921515600160a01b0260ff60a01b1990931692909217909155505050505050565b6000610804848484611160565b6001600160a01b0384166000908152600160209081526040808320338452909152902054828110156108895760405162461bcd60e51b815260206004820152602860248201527f45524332303a207472616e7366657220616d6f756e74206578636565647320616044820152676c6c6f77616e636560c01b6064820152608401610627565b610896853385840361103b565b60019150505b9392505050565b3360008181526001602090815260408083206001600160a01b038716845290915281205490916105ef9185906108da908690611aa4565b61103b565b336108e8610a76565b6001600160a01b03161461090e5760405162461bcd60e51b815260040161062790611a6f565b610918600061131e565b565b600033610925610a76565b6001600160a01b03161461094b5760405162461bcd60e51b815260040161062790611a6f565b6040516370a0823160e01b81527f0000000000000000000000000000000000000000000000000000000000000000906000906001600160a01b038316906370a082319061099c9030906004016119d4565b60206040518083038186803b1580156109b457600080fd5b505afa1580156109c8573d6000803e3d6000fd5b505050506040513d601f19601f820116820180604052508101906109ec91906119a0565b60405163a9059cbb60e01b8152336004820152602481018290529091506001600160a01b0383169063a9059cbb90604401602060405180830381600087803b158015610a3757600080fd5b505af1158015610a4b573d6000803e3d6000fd5b505050506040513d601f19601f82011682018060405250810190610a6f9190611968565b9250505090565b6005546001600160a01b031690565b600754600090600160a01b900460ff16610ad55760405162461bcd60e51b81526020600482015260116024820152701393d517d156141150d5115117d0d05313607a1b6044820152606401610627565b5061a4b190565b60606004805461055f90611b1e565b33610af4610a76565b6001600160a01b031614610b1a5760405162461bcd60e51b815260040161062790611a6f565b6001600160a01b038116610b5f5760405162461bcd60e51b8152600401808060200182810382526026815260200180611b706026913960400191505060405180910390fd5b6001600160a01b038116600081815260066020526040808220805460ff19169055517f51085ddf9ebdded84b76e829eb58c4078e4b5bdf97d9a94723f336039da467919190a250565b33610bb1610a76565b6001600160a01b031614610bd75760405162461bcd60e51b815260040161062790611a6f565b6001600160a01b038116610c1c5760405162461bcd60e51b8152600401808060200182810382526026815260200180611b706026913960400191505060405180910390fd5b6001600160a01b038116600081815260066020526040808220805460ff19166001179055517faab7954e9d246b167ef88aeddad35209ca2489d95a8aeb59e288d9b19fae5a549190a250565b3360009081526001602090815260408083206001600160a01b038616845290915281205482811015610cea5760405162461bcd60e51b815260206004820152602560248201527f45524332303a2064656372656173656420616c6c6f77616e63652062656c6f77604482015264207a65726f60d81b6064820152608401610627565b610cf7338585840361103b565b5060019392505050565b60006105ef338484611160565b33610d17610a76565b6001600160a01b031614610d3d5760405162461bcd60e51b815260040161062790611a6f565b6005805460ff60a01b1916600160a01b1790556040517fe5e5846f783279948f6ec5faad38318cde86fe5be7ea845ede56d62f16c3743490600090a1565b33610d84610a76565b6001600160a01b031614610daa5760405162461bcd60e51b815260040161062790611a6f565b6005805460ff60a01b191690556040517f212c6e1d3045c9581ef0adf2504dbb1d137f52f38162ccf77a16c69d14eba5c390600090a1565b6001600160a01b03918216600090815260016020908152604080832093909416825291909152205490565b33600090815260208190526040812054821115610e3c5760405162461bcd60e51b815260040161062790611a41565b610e463383611370565b610e7a6001600160a01b037f00000000000000000000000000000000000000000000000000000000000000001633846114a9565b506001919050565b6040516370a0823160e01b81526000907f00000000000000000000000000000000000000000000000000000000000000009083906001600160a01b038316906370a0823190610ed59033906004016119d4565b60206040518083038186803b158015610eed57600080fd5b505afa158015610f01573d6000803e3d6000fd5b505050506040513d601f19601f82011682018060405250810190610f2591906119a0565b1015610f435760405162461bcd60e51b815260040161062790611a41565b610f586001600160a01b03821633308661150c565b610f623384611544565b6007548390610f7b9033906001600160a01b0316610de2565b10156105ef576007546105ef9033906001600160a01b031660001961103b565b33610fa4610a76565b6001600160a01b031614610fca5760405162461bcd60e51b815260040161062790611a6f565b6001600160a01b03811661102f5760405162461bcd60e51b815260206004820152602660248201527f4f776e61626c653a206e6577206f776e657220697320746865207a65726f206160448201526564647265737360d01b6064820152608401610627565b6110388161131e565b50565b6001600160a01b03831661109d5760405162461bcd60e51b8152602060048201526024808201527f45524332303a20617070726f76652066726f6d20746865207a65726f206164646044820152637265737360e01b6064820152608401610627565b6001600160a01b0382166110fe5760405162461bcd60e51b815260206004820152602260248201527f45524332303a20617070726f766520746f20746865207a65726f206164647265604482015261737360f01b6064820152608401610627565b6001600160a01b0383811660008181526001602090815260408083209487168084529482529182902085905590518481527f8c5be1e5ebec7d5bd14f71427d1e84f3dd0314c0f7b2291e5b200ac8c7c3b92591015b60405180910390a3505050565b6001600160a01b0383166111c45760405162461bcd60e51b815260206004820152602560248201527f45524332303a207472616e736665722066726f6d20746865207a65726f206164604482015264647265737360d81b6064820152608401610627565b6001600160a01b0382166112265760405162461bcd60e51b815260206004820152602360248201527f45524332303a207472616e7366657220746f20746865207a65726f206164647260448201526265737360e81b6064820152608401610627565b6001600160a01b0383166000908152602081905260409020548181101561129e5760405162461bcd60e51b815260206004820152602660248201527f45524332303a207472616e7366657220616d6f756e7420657863656564732062604482015265616c616e636560d01b6064820152608401610627565b6001600160a01b038085166000908152602081905260408082208585039055918516815290812080548492906112d5908490611aa4565b92505081905550826001600160a01b0316846001600160a01b0316600080516020611b968339815191528460405161130f91815260200190565b60405180910390a35b50505050565b600580546001600160a01b038381166001600160a01b0319831681179093556040519116919082907f8be0079c531659141344cd1fd0a4f28419497f9722a3daafe3b4186f6b6457e090600090a35050565b6001600160a01b0382166113d05760405162461bcd60e51b815260206004820152602160248201527f45524332303a206275726e2066726f6d20746865207a65726f206164647265736044820152607360f81b6064820152608401610627565b6001600160a01b038216600090815260208190526040902054818110156114445760405162461bcd60e51b815260206004820152602260248201527f45524332303a206275726e20616d6f756e7420657863656564732062616c616e604482015261636560f01b6064820152608401610627565b6001600160a01b0383166000908152602081905260408120838303905560028054849290611473908490611adb565b90915550506040518281526000906001600160a01b03851690600080516020611b9683398151915290602001611153565b505050565b6040516001600160a01b0383166024820152604481018290526114a490849063a9059cbb60e01b906064015b60408051601f198184030181529190526020810180516001600160e01b03166001600160e01b031990931692909217909152611611565b6040516001600160a01b03808516602483015283166044820152606481018290526113189085906323b872dd60e01b906084016114d5565b6001600160a01b03821661159a5760405162461bcd60e51b815260206004820152601f60248201527f45524332303a206d696e7420746f20746865207a65726f2061646472657373006044820152606401610627565b80600260008282546115ac9190611aa4565b90915550506001600160a01b038216600090815260208190526040812080548392906115d9908490611aa4565b90915550506040518181526001600160a01b03831690600090600080516020611b968339815191529060200160405180910390a35050565b6000611666826040518060400160405280602081526020017f5361666545524332303a206c6f772d6c6576656c2063616c6c206661696c6564815250856001600160a01b03166116e39092919063ffffffff16565b8051909150156114a457808060200190518101906116849190611968565b6114a45760405162461bcd60e51b815260206004820152602a60248201527f5361666545524332303a204552433230206f7065726174696f6e20646964206e6044820152691bdd081cdd58d8d9595960b21b6064820152608401610627565b60606116f284846000856116fa565b949350505050565b60608247101561175b5760405162461bcd60e51b815260206004820152602660248201527f416464726573733a20696e73756666696369656e742062616c616e636520666f6044820152651c8818d85b1b60d21b6064820152608401610627565b843b6117a95760405162461bcd60e51b815260206004820152601d60248201527f416464726573733a2063616c6c20746f206e6f6e2d636f6e74726163740000006044820152606401610627565b600080866001600160a01b031685876040516117c591906119b8565b60006040518083038185875af1925050503d8060008114611802576040519150601f19603f3d011682016040523d82523d6000602084013e611807565b606091505b5091509150611817828286611822565b979650505050505050565b6060831561183157508161089c565b8251156118415782518084602001fd5b8160405162461bcd60e51b81526004016106279190611a0e565b80356001600160a01b038116811461187257600080fd5b919050565b600060208284031215611888578081fd5b61089c8261185b565b600080604083850312156118a3578081fd5b6118ac8361185b565b91506118ba6020840161185b565b90509250929050565b6000806000606084860312156118d7578081fd5b6118e08461185b565b92506118ee6020850161185b565b9150604084013590509250925092565b60008060408385031215611910578182fd5b6119198361185b565b946020939093013593505050565b600080600080600060a0868803121561193e578081fd5b6119478661185b565b97602087013597506040870135966060810135965060800135945092505050565b600060208284031215611979578081fd5b8151801515811461089c578182fd5b600060208284031215611999578081fd5b5035919050565b6000602082840312156119b1578081fd5b5051919050565b600082516119ca818460208701611af2565b9190910192915050565b6001600160a01b0391909116815260200190565b6001600160a01b0394909416845260208401929092526040830152606082015260800190565b6020815260008251806020840152611a2d816040850160208701611af2565b601f01601f19169190910160400192915050565b602080825260149082015273496e73756666696369656e742062616c616e636560601b604082015260600190565b6020808252818101527f4f776e61626c653a2063616c6c6572206973206e6f7420746865206f776e6572604082015260600190565b60008219821115611ab757611ab7611b59565b500190565b6000816000190483118215151615611ad657611ad6611b59565b500290565b600082821015611aed57611aed611b59565b500390565b60005b83811015611b0d578181015183820152602001611af5565b838111156113185750506000910152565b600181811c90821680611b3257607f821691505b60208210811415611b5357634e487b7160e01b600052602260045260246000fd5b50919050565b634e487b7160e01b600052601160045260246000fdfe57686974656c69737461626c653a206163636f756e742063616e206e6f74206265207a65726fddf252ad1be2c89b69c2b068fc378daa952ba7f163c4a11628f55a4df523b3efa2646970667358221220fedd27eaca70e9dbf3a840ea96861c00f9d526937d05a600d763763bd70c5f7b64736f6c6343000804003357686974656c69737461626c653a206163636f756e742063616e206e6f74206265207a65726f",
  "devdoc": {
    "kind": "dev",
    "methods": {
      "allowance(address,address)": {
        "details": "See {IERC20-allowance}."
      },
      "approve(address,uint256)": {
        "details": "See {IERC20-approve}. Requirements: - `spender` cannot be the zero address."
      },
      "balanceOf(address)": {
        "details": "See {IERC20-balanceOf}."
      },
      "decimals()": {
        "details": "Returns the number of decimals used to get its user representation. For example, if `decimals` equals `2`, a balance of `505` tokens should be displayed to a user as `5.05` (`505 / 10 ** 2`). Tokens usually opt for a value of 18, imitating the relationship between Ether and Wei. This is the value {ERC20} uses, unless this function is overridden; NOTE: This information is only used for _display_ purposes: it in no way affects any of the arithmetic of the contract, including {IERC20-balanceOf} and {IERC20-transfer}."
      },
      "decreaseAllowance(address,uint256)": {
        "details": "Atomically decreases the allowance granted to `spender` by the caller. This is an alternative to {approve} that can be used as a mitigation for problems described in {IERC20-approve}. Emits an {Approval} event indicating the updated allowance. Requirements: - `spender` cannot be the zero address. - `spender` must have allowance for the caller of at least `subtractedValue`."
      },
      "increaseAllowance(address,uint256)": {
        "details": "Atomically increases the allowance granted to `spender` by the caller. This is an alternative to {approve} that can be used as a mitigation for problems described in {IERC20-approve}. Emits an {Approval} event indicating the updated allowance. Requirements: - `spender` cannot be the zero address."
      },
      "isWhitelisted(address)": {
        "details": "Checks if account is whitelisted",
        "params": {
          "_account": "The address to check"
        }
      },
      "name()": {
        "details": "Returns the name of the token."
      },
      "owner()": {
        "details": "Returns the address of the current owner."
      },
      "renounceOwnership()": {
        "details": "Leaves the contract without owner. It will not be possible to call `onlyOwner` functions anymore. Can only be called by the current owner. NOTE: Renouncing ownership will leave the contract without an owner, thereby removing any functionality that is only available to the owner."
      },
      "symbol()": {
        "details": "Returns the symbol of the token, usually a shorter version of the name."
      },
      "totalSupply()": {
        "details": "See {IERC20-totalSupply}."
      },
      "transfer(address,uint256)": {
        "details": "See {IERC20-transfer}. Requirements: - `recipient` cannot be the zero address. - the caller must have a balance of at least `amount`."
      },
      "transferFrom(address,address,uint256)": {
        "details": "See {IERC20-transferFrom}. Emits an {Approval} event indicating the updated allowance. This is not required by the EIP. See the note at the beginning of {ERC20}. Requirements: - `sender` and `recipient` cannot be the zero address. - `sender` must have a balance of at least `amount`. - the caller must have allowance for ``sender``'s tokens of at least `amount`."
      },
      "transferOwnership(address)": {
        "details": "Transfers ownership of the contract to a new account (`newOwner`). Can only be called by the current owner."
      },
      "unwhitelist(address)": {
        "details": "Removes account from whitelist",
        "params": {
          "_account": "The address to remove from the whitelist"
        }
      },
      "whitelist(address)": {
        "details": "Adds account to whitelist",
        "params": {
          "_account": "The address to whitelist"
        }
      }
    },
    "version": 1
  },
  "userdoc": {
    "kind": "user",
    "methods": {
      "disableWhitelist()": {
        "notice": "disable whitelist and allow transfers for everyone"
      },
      "enableWhitelist()": {
        "notice": "enable whitelist and only allow transfers from whitelisted addresses"
      },
      "transferDev()": {
        "notice": "Safety measure to transfer UNION to owner "
      },
      "unwrap(uint256)": {
        "notice": "Burn pegged token and return UNION"
      },
      "wrap(uint256)": {
        "notice": "Wrap UNION to create Arbitrum compatible token"
      }
    },
    "version": 1
  },
  "storageLayout": {
    "storage": [
      {
        "astId": 7784,
        "contract": "contracts/token/ArbUnionWrapper.sol:ArbUnionWrapper",
        "label": "_balances",
        "offset": 0,
        "slot": "0",
        "type": "t_mapping(t_address,t_uint256)"
      },
      {
        "astId": 7790,
        "contract": "contracts/token/ArbUnionWrapper.sol:ArbUnionWrapper",
        "label": "_allowances",
        "offset": 0,
        "slot": "1",
        "type": "t_mapping(t_address,t_mapping(t_address,t_uint256))"
      },
      {
        "astId": 7792,
        "contract": "contracts/token/ArbUnionWrapper.sol:ArbUnionWrapper",
        "label": "_totalSupply",
        "offset": 0,
        "slot": "2",
        "type": "t_uint256"
      },
      {
        "astId": 7794,
        "contract": "contracts/token/ArbUnionWrapper.sol:ArbUnionWrapper",
        "label": "_name",
        "offset": 0,
        "slot": "3",
        "type": "t_string_storage"
      },
      {
        "astId": 7796,
        "contract": "contracts/token/ArbUnionWrapper.sol:ArbUnionWrapper",
        "label": "_symbol",
        "offset": 0,
        "slot": "4",
        "type": "t_string_storage"
      },
      {
        "astId": 3806,
        "contract": "contracts/token/ArbUnionWrapper.sol:ArbUnionWrapper",
        "label": "_owner",
        "offset": 0,
        "slot": "5",
        "type": "t_address"
      },
      {
        "astId": 23759,
        "contract": "contracts/token/ArbUnionWrapper.sol:ArbUnionWrapper",
        "label": "whitelistEnabled",
        "offset": 20,
        "slot": "5",
        "type": "t_bool"
      },
      {
        "astId": 23763,
        "contract": "contracts/token/ArbUnionWrapper.sol:ArbUnionWrapper",
        "label": "_whitelisted",
        "offset": 0,
        "slot": "6",
        "type": "t_mapping(t_address,t_bool)"
      },
      {
        "astId": 22029,
        "contract": "contracts/token/ArbUnionWrapper.sol:ArbUnionWrapper",
        "label": "gateway",
        "offset": 0,
        "slot": "7",
        "type": "t_address"
      },
      {
        "astId": 22031,
        "contract": "contracts/token/ArbUnionWrapper.sol:ArbUnionWrapper",
        "label": "shouldRegisterGateway",
        "offset": 20,
        "slot": "7",
        "type": "t_bool"
      }
    ],
    "types": {
      "t_address": {
        "encoding": "inplace",
        "label": "address",
        "numberOfBytes": "20"
      },
      "t_bool": {
        "encoding": "inplace",
        "label": "bool",
        "numberOfBytes": "1"
      },
      "t_mapping(t_address,t_bool)": {
        "encoding": "mapping",
        "key": "t_address",
        "label": "mapping(address => bool)",
        "numberOfBytes": "32",
        "value": "t_bool"
      },
      "t_mapping(t_address,t_mapping(t_address,t_uint256))": {
        "encoding": "mapping",
        "key": "t_address",
        "label": "mapping(address => mapping(address => uint256))",
        "numberOfBytes": "32",
        "value": "t_mapping(t_address,t_uint256)"
      },
      "t_mapping(t_address,t_uint256)": {
        "encoding": "mapping",
        "key": "t_address",
        "label": "mapping(address => uint256)",
        "numberOfBytes": "32",
        "value": "t_uint256"
      },
      "t_string_storage": {
        "encoding": "bytes",
        "label": "string",
        "numberOfBytes": "32"
      },
      "t_uint256": {
        "encoding": "inplace",
        "label": "uint256",
        "numberOfBytes": "32"
      }
    }
  }
}