{
  "address": "0x6DBDe0E7e563E34A53B1130D6B779ec8eD34B4B9",
  "abi": [
    {
      "inputs": [
        {
          "internalType": "contract IERC20",
          "name": "token_",
          "type": "address"
        }
      ],
      "stateMutability": "nonpayable",
      "type": "constructor"
    },
    {
      "anonymous": false,
      "inputs": [
        {
          "indexed": true,
          "internalType": "address",
          "name": "oldAdmin",
          "type": "address"
        },
        {
          "indexed": false,
          "internalType": "address",
          "name": "newAdmin",
          "type": "address"
        }
      ],
      "name": "LogChangeAdmin",
      "type": "event"
    },
    {
      "inputs": [],
      "name": "acceptAdmin",
      "outputs": [],
      "stateMutability": "nonpayable",
      "type": "function"
    },
    {
      "inputs": [
        {
          "internalType": "uint256",
          "name": "dripStart_",
          "type": "uint256"
        },
        {
          "internalType": "uint256",
          "name": "dripRate_",
          "type": "uint256"
        },
        {
          "internalType": "address",
          "name": "target_",
          "type": "address"
        },
        {
          "internalType": "uint256",
          "name": "amount_",
          "type": "uint256"
        }
      ],
      "name": "addSchedule",
      "outputs": [],
      "stateMutability": "nonpayable",
      "type": "function"
    },
    {
      "inputs": [],
      "name": "admin",
      "outputs": [
        {
          "internalType": "address",
          "name": "",
          "type": "address"
        }
      ],
      "stateMutability": "view",
      "type": "function"
    },
    {
      "inputs": [
        {
          "internalType": "address",
          "name": "newAdmin_",
          "type": "address"
        }
      ],
      "name": "changeAdmin",
      "outputs": [],
      "stateMutability": "nonpayable",
      "type": "function"
    },
    {
      "inputs": [
        {
          "internalType": "address",
          "name": "target",
          "type": "address"
        }
      ],
      "name": "drip",
      "outputs": [
        {
          "internalType": "uint256",
          "name": "",
          "type": "uint256"
        }
      ],
      "stateMutability": "nonpayable",
      "type": "function"
    },
    {
      "inputs": [
        {
          "internalType": "uint256",
          "name": "dripStart_",
          "type": "uint256"
        },
        {
          "internalType": "uint256",
          "name": "dripRate_",
          "type": "uint256"
        },
        {
          "internalType": "address",
          "name": "target_",
          "type": "address"
        },
        {
          "internalType": "uint256",
          "name": "amount_",
          "type": "uint256"
        }
      ],
      "name": "editSchedule",
      "outputs": [],
      "stateMutability": "nonpayable",
      "type": "function"
    },
    {
      "inputs": [
        {
          "internalType": "address",
          "name": "account",
          "type": "address"
        },
        {
          "internalType": "uint256",
          "name": "amount",
          "type": "uint256"
        }
      ],
      "name": "grantToken",
      "outputs": [],
      "stateMutability": "nonpayable",
      "type": "function"
    },
    {
      "inputs": [],
      "name": "newAdmin",
      "outputs": [
        {
          "internalType": "address",
          "name": "",
          "type": "address"
        }
      ],
      "stateMutability": "view",
      "type": "function"
    },
    {
      "inputs": [],
      "name": "token",
      "outputs": [
        {
          "internalType": "contract IERC20",
          "name": "",
          "type": "address"
        }
      ],
      "stateMutability": "view",
      "type": "function"
    },
    {
      "inputs": [
        {
          "internalType": "address",
          "name": "",
          "type": "address"
        }
      ],
      "name": "tokenSchedules",
      "outputs": [
        {
          "internalType": "uint256",
          "name": "dripStart",
          "type": "uint256"
        },
        {
          "internalType": "uint256",
          "name": "amount",
          "type": "uint256"
        },
        {
          "internalType": "uint256",
          "name": "dripRate",
          "type": "uint256"
        },
        {
          "internalType": "address",
          "name": "target",
          "type": "address"
        },
        {
          "internalType": "uint256",
          "name": "dripped",
          "type": "uint256"
        }
      ],
      "stateMutability": "view",
      "type": "function"
    }
  ],
  "transactionHash": "0xb3657b437103aff2cc36947d50bb97ed37c0df16c37d389e3407a02678c71e8f",
  "args": [
    "0x5Dfe42eEA70a3e6f93EE54eD9C321aF07A85535C"
  ],
  "solcInputHash": "17396099ecbd857f406d78caa623130a",
  "bytecode": "0x60a060405234801561001057600080fd5b50604051610f91380380610f918339818101604052602081101561003357600080fd5b5051600180546001600160a01b031916331790556001600160601b0319606082901b166080526001600160a01b0316610f09610088600039600081816102740152818161058d0152610a020152610f096000f3fe608060405234801561001057600080fd5b506004361061009e5760003560e01c80638f283970116100665780638f28397014610184578063d663e022146101aa578063f851a44014610230578063f8fb886f14610243578063fc0c546a1461026f57600080fd5b80630e18b681146100a357806317c4db72146100ad5780633ea26384146100e557806367a5cd06146101145780636ff9af4c1461014c575b600080fd5b6100ab610296565b005b6100ab600480360360808110156100c357600080fd5b508035906020810135906001600160a01b03604082013516906060013561037b565b6000546100f8906001600160a01b031681565b604080516001600160a01b039092168252519081900360200190f35b61013a6004803603602081101561012a57600080fd5b50356001600160a01b03166104e8565b60408051918252519081900360200190f35b6100ab6004803603608081101561016257600080fd5b508035906020810135906001600160a01b036040820135169060600135610717565b6100ab6004803603602081101561019a57600080fd5b50356001600160a01b0316610883565b6101fc600480360360208110156101c057600080fd5b50600260208190526001600160a01b03913582166000908152604090208054600182015492820154600383015460049093015491949092169085565b604080519586526020860194909452848401929092526001600160a01b031660608401526080830152519081900360a00190f35b6001546100f8906001600160a01b031681565b6100ab6004803603604081101561025957600080fd5b506001600160a01b038135169060200135610950565b6100f87f000000000000000000000000000000000000000000000000000000000000000081565b6000546001600160a01b0316158015906102ba57506000546001600160a01b031633145b61030b576040805162461bcd60e51b815260206004820152601d60248201527f4d7573742062652063616c6c65642066726f6d206e65772061646d696e000000604482015290519081900360640190fd5b600154600054604080516001600160a01b039283168152905191909216917f3be77208ba89831fa93dc61f71fb71b2dcaaec821ee020ccd7c910919128b936919081900360200190a260008054600180546001600160a01b03199081166001600160a01b03841617909155169055565b6001546001600160a01b031633146103d0576040805162461bcd60e51b81526020600482015260136024820152722a3932b0b9bab93c9d103737ba1030b236b4b760691b604482015290519081900360640190fd5b6001600160a01b038281166000908152600260205260409020600301541615610440576040805162461bcd60e51b815260206004820152601e60248201527f546172676574207363686564756c6520616c7265616479206578697374730000604482015290519081900360640190fd5b61047b6040518060a0016040528060008152602001600081526020016000815260200160006001600160a01b03168152602001600081525090565b93845260408085019384526001600160a01b03928316606086018181526020808801948552600060808901818152938152600291829052939093209651875592516001870155935190850155516003840180546001600160a01b0319169190921617905551600490910155565b6001600160a01b03818116600090815260026020526040812060030154909116610559576040805162461bcd60e51b815260206004820152601d60248201527f546172676574207363686564756c6520646f65736e2774206578697374000000604482015290519081900360640190fd5b6001600160a01b038083166000908152600260208190526040909120908101548154600483015460038401546001909401547f0000000000000000000000000000000000000000000000000000000000000000959394929391929091169043848110156105ff576040805162461bcd60e51b815260206004820152600f60248201526e1b9bdd081e595d081cdd185c9d1959608a1b604482015290519081900360640190fd5b6000876001600160a01b03166370a08231306040518263ffffffff1660e01b815260040180826001600160a01b0316815260200191505060206040518083038186803b15801561064e57600080fd5b505afa158015610662573d6000803e3d6000fd5b505050506040513d602081101561067857600080fd5b50519050600061069c8861068c8986610e59565b6106969190610e3a565b85610af2565b90506000868211156106b9576106b28783610e59565b90506106bd565b5060005b60006106c98483610af2565b905060006106d7828a610e22565b6001600160a01b03808a166000908152600260205260409020600401829055909150610706908d168984610b0b565b509c9b505050505050505050505050565b6001546001600160a01b0316331461076c576040805162461bcd60e51b81526020600482015260136024820152722a3932b0b9bab93c9d103737ba1030b236b4b760691b604482015290519081900360640190fd5b6001600160a01b03808316600090815260026020818152604092839020835160a081018552815481526001820154928101929092529182015492810192909252600381015490921660608201819052600490920154608082015290610818576040805162461bcd60e51b815260206004820152601d60248201527f546172676574207363686564756c6520646f65736e2774206578697374000000604482015290519081900360640190fd5b938452604080850193845260208086019283526001600160a01b03938416600090815260029182905291909120855181559151600183015592519281019290925560608301516003830180546001600160a01b03191691909216179055608090910151600490910155565b6001546001600160a01b031633146108d8576040805162461bcd60e51b81526020600482015260136024820152722a3932b0b9bab93c9d103737ba1030b236b4b760691b604482015290519081900360640190fd5b6001600160a01b03811661092e576040805162461bcd60e51b81526020600482015260186024820152774e65772061646d696e2063616e6e6f74206265207a65726f60401b604482015290519081900360640190fd5b600080546001600160a01b0319166001600160a01b0392909216919091179055565b6001546001600160a01b031633146109a5576040805162461bcd60e51b81526020600482015260136024820152722a3932b0b9bab93c9d103737ba1030b236b4b760691b604482015290519081900360640190fd5b6001600160a01b0382166109ea5760405162461bcd60e51b8152600401808060200182810382526021815260200180610eb36021913960400191505060405180910390fd5b604080516370a0823160e01b815230600482015290517f0000000000000000000000000000000000000000000000000000000000000000916000916001600160a01b038416916370a08231916024808301926020929190829003018186803b158015610a5557600080fd5b505afa158015610a69573d6000803e3d6000fd5b505050506040513d6020811015610a7f57600080fd5b5051905080831115610ad8576040805162461bcd60e51b815260206004820152601a60248201527f616d6f756e74206c6172676572207468616e2062616c616e6365000000000000604482015290519081900360640190fd5b610aec6001600160a01b0383168585610b0b565b50505050565b6000818311610b02575081610b05565b50805b92915050565b604080516001600160a01b038416602482015260448082018490528251808303909101815260649091019091526020810180516001600160e01b031663a9059cbb60e01b179052610b5d908490610b62565b505050565b6000610bb7826040518060400160405280602081526020017f5361666545524332303a206c6f772d6c6576656c2063616c6c206661696c6564815250856001600160a01b0316610c399092919063ffffffff16565b805190915015610b5d5780806020019051810190610bd59190610db3565b610b5d5760405162461bcd60e51b815260206004820152602a60248201527f5361666545524332303a204552433230206f7065726174696f6e20646964206e6044820152691bdd081cdd58d8d9595960b21b60648201526084015b60405180910390fd5b6060610c488484600085610c52565b90505b9392505050565b606082471015610cb35760405162461bcd60e51b815260206004820152602660248201527f416464726573733a20696e73756666696369656e742062616c616e636520666f6044820152651c8818d85b1b60d21b6064820152608401610c30565b843b610d015760405162461bcd60e51b815260206004820152601d60248201527f416464726573733a2063616c6c20746f206e6f6e2d636f6e74726163740000006044820152606401610c30565b600080866001600160a01b03168587604051610d1d9190610dd3565b60006040518083038185875af1925050503d8060008114610d5a576040519150601f19603f3d011682016040523d82523d6000602084013e610d5f565b606091505b5091509150610d6f828286610d7a565b979650505050505050565b60608315610d89575081610c4b565b825115610d995782518084602001fd5b8160405162461bcd60e51b8152600401610c309190610def565b600060208284031215610dc4578081fd5b81518015158114610c4b578182fd5b60008251610de5818460208701610e70565b9190910192915050565b6020815260008251806020840152610e0e816040850160208701610e70565b601f01601f19169190910160400192915050565b60008219821115610e3557610e35610e9c565b500190565b6000816000190483118215151615610e5457610e54610e9c565b500290565b600082821015610e6b57610e6b610e9c565b500390565b60005b83811015610e8b578181015183820152602001610e73565b83811115610aec5750506000910152565b634e487b7160e01b600052601160045260246000fdfe54726561737572793a206163636f756e742063616e206e6f74206265207a65726fa26469706673582212207f215d58f7fce86c8fe1d86af8aa131c19ebd42b2ffff0ec49bfc1796bc05a7e64736f6c63430008040033",
  "devdoc": {
    "kind": "dev",
    "methods": {
      "drip(address)": {
        "details": "Note: this will only drip up to the amount of tokens available.",
        "returns": {
          "_0": "The amount of tokens dripped in this call"
        }
      }
    },
    "version": 1
  },
  "userdoc": {
    "kind": "user",
    "methods": {
      "drip(address)": {
        "notice": "Drips the maximum amount of tokens to match the drip rate since inception"
      },
      "token()": {
        "notice": "Reference to token to drip (immutable)"
      }
    },
    "version": 1
  },
  "storageLayout": {
    "storage": [
      {
        "astId": 23299,
        "contract": "contracts/treasury/Treasury.sol:Treasury",
        "label": "newAdmin",
        "offset": 0,
        "slot": "0",
        "type": "t_address"
      },
      {
        "astId": 23301,
        "contract": "contracts/treasury/Treasury.sol:Treasury",
        "label": "admin",
        "offset": 0,
        "slot": "1",
        "type": "t_address"
      },
      {
        "astId": 23317,
        "contract": "contracts/treasury/Treasury.sol:Treasury",
        "label": "tokenSchedules",
        "offset": 0,
        "slot": "2",
        "type": "t_mapping(t_address,t_struct(Schedule)23312_storage)"
      }
    ],
    "types": {
      "t_address": {
        "encoding": "inplace",
        "label": "address",
        "numberOfBytes": "20"
      },
      "t_mapping(t_address,t_struct(Schedule)23312_storage)": {
        "encoding": "mapping",
        "key": "t_address",
        "label": "mapping(address => struct Treasury.Schedule)",
        "numberOfBytes": "32",
        "value": "t_struct(Schedule)23312_storage"
      },
      "t_struct(Schedule)23312_storage": {
        "encoding": "inplace",
        "label": "struct Treasury.Schedule",
        "members": [
          {
            "astId": 23303,
            "contract": "contracts/treasury/Treasury.sol:Treasury",
            "label": "dripStart",
            "offset": 0,
            "slot": "0",
            "type": "t_uint256"
          },
          {
            "astId": 23305,
            "contract": "contracts/treasury/Treasury.sol:Treasury",
            "label": "amount",
            "offset": 0,
            "slot": "1",
            "type": "t_uint256"
          },
          {
            "astId": 23307,
            "contract": "contracts/treasury/Treasury.sol:Treasury",
            "label": "dripRate",
            "offset": 0,
            "slot": "2",
            "type": "t_uint256"
          },
          {
            "astId": 23309,
            "contract": "contracts/treasury/Treasury.sol:Treasury",
            "label": "target",
            "offset": 0,
            "slot": "3",
            "type": "t_address"
          },
          {
            "astId": 23311,
            "contract": "contracts/treasury/Treasury.sol:Treasury",
            "label": "dripped",
            "offset": 0,
            "slot": "4",
            "type": "t_uint256"
          }
        ],
        "numberOfBytes": "160"
      },
      "t_uint256": {
        "encoding": "inplace",
        "label": "uint256",
        "numberOfBytes": "32"
      }
    }
  }
}