{
  "address": "0xF1A3C94c89cCA99EDfd9cA48ddf8f220E24E08F7",
  "abi": [
    {
      "inputs": [],
      "name": "AddressZero",
      "type": "error"
    },
    {
      "inputs": [],
      "name": "AmountZero",
      "type": "error"
    },
    {
      "inputs": [],
      "name": "AssetManagerDepositFailed",
      "type": "error"
    },
    {
      "inputs": [],
      "name": "AssetManagerWithdrawFailed",
      "type": "error"
    },
    {
      "inputs": [],
      "name": "AuthFailed",
      "type": "error"
    },
    {
      "inputs": [],
      "name": "ErrorData",
      "type": "error"
    },
    {
      "inputs": [],
      "name": "ErrorSelfVouching",
      "type": "error"
    },
    {
      "inputs": [],
      "name": "ErrorTotalStake",
      "type": "error"
    },
    {
      "inputs": [],
      "name": "ExceedsLocked",
      "type": "error"
    },
    {
      "inputs": [],
      "name": "ExceedsTotalFrozen",
      "type": "error"
    },
    {
      "inputs": [],
      "name": "ExceedsTotalStaked",
      "type": "error"
    },
    {
      "inputs": [],
      "name": "InsufficientBalance",
      "type": "error"
    },
    {
      "inputs": [],
      "name": "LengthNotMatch",
      "type": "error"
    },
    {
      "inputs": [],
      "name": "LockedStakeNonZero",
      "type": "error"
    },
    {
      "inputs": [],
      "name": "MaxTrustLimitReached",
      "type": "error"
    },
    {
      "inputs": [],
      "name": "NoExistingMember",
      "type": "error"
    },
    {
      "inputs": [],
      "name": "NotCreditLimitModel",
      "type": "error"
    },
    {
      "inputs": [],
      "name": "NotEnoughStakers",
      "type": "error"
    },
    {
      "inputs": [],
      "name": "NotOverdue",
      "type": "error"
    },
    {
      "inputs": [],
      "name": "StakeLimitReached",
      "type": "error"
    },
    {
      "inputs": [],
      "name": "TrustAmountTooLarge",
      "type": "error"
    },
    {
      "anonymous": false,
      "inputs": [
        {
          "indexed": false,
          "internalType": "address",
          "name": "previousAdmin",
          "type": "address"
        },
        {
          "indexed": false,
          "internalType": "address",
          "name": "newAdmin",
          "type": "address"
        }
      ],
      "name": "AdminChanged",
      "type": "event"
    },
    {
      "anonymous": false,
      "inputs": [
        {
          "indexed": true,
          "internalType": "address",
          "name": "beacon",
          "type": "address"
        }
      ],
      "name": "BeaconUpgraded",
      "type": "event"
    },
    {
      "anonymous": false,
      "inputs": [
        {
          "indexed": false,
          "internalType": "address",
          "name": "member",
          "type": "address"
        }
      ],
      "name": "LogAddMember",
      "type": "event"
    },
    {
      "anonymous": false,
      "inputs": [
        {
          "indexed": true,
          "internalType": "address",
          "name": "account",
          "type": "address"
        },
        {
          "indexed": true,
          "internalType": "address",
          "name": "borrower",
          "type": "address"
        }
      ],
      "name": "LogCancelVouch",
      "type": "event"
    },
    {
      "anonymous": false,
      "inputs": [
        {
          "indexed": true,
          "internalType": "address",
          "name": "staker",
          "type": "address"
        },
        {
          "indexed": true,
          "internalType": "address",
          "name": "borrower",
          "type": "address"
        },
        {
          "indexed": false,
          "internalType": "uint256",
          "name": "amount",
          "type": "uint256"
        }
      ],
      "name": "LogDebtWriteOff",
      "type": "event"
    },
    {
      "anonymous": false,
      "inputs": [
        {
          "indexed": false,
          "internalType": "address",
          "name": "newCreditLimitModel",
          "type": "address"
        }
      ],
      "name": "LogNewCreditLimitModel",
      "type": "event"
    },
    {
      "anonymous": false,
      "inputs": [
        {
          "indexed": true,
          "internalType": "address",
          "name": "account",
          "type": "address"
        },
        {
          "indexed": true,
          "internalType": "address",
          "name": "borrower",
          "type": "address"
        }
      ],
      "name": "LogRegisterMember",
      "type": "event"
    },
    {
      "anonymous": false,
      "inputs": [
        {
          "indexed": false,
          "internalType": "uint256",
          "name": "oldMaxStakeAmount",
          "type": "uint256"
        },
        {
          "indexed": false,
          "internalType": "uint256",
          "name": "newMaxStakeAmount",
          "type": "uint256"
        }
      ],
      "name": "LogSetMaxStakeAmount",
      "type": "event"
    },
    {
      "anonymous": false,
      "inputs": [
        {
          "indexed": false,
          "internalType": "uint256",
          "name": "oldMemberFee",
          "type": "uint256"
        },
        {
          "indexed": false,
          "internalType": "uint256",
          "name": "newMemberFee",
          "type": "uint256"
        }
      ],
      "name": "LogSetNewMemberFee",
      "type": "event"
    },
    {
      "anonymous": false,
      "inputs": [
        {
          "indexed": false,
          "internalType": "address",
          "name": "uToken",
          "type": "address"
        }
      ],
      "name": "LogSetUToken",
      "type": "event"
    },
    {
      "anonymous": false,
      "inputs": [
        {
          "indexed": true,
          "internalType": "address",
          "name": "account",
          "type": "address"
        },
        {
          "indexed": false,
          "internalType": "uint256",
          "name": "amount",
          "type": "uint256"
        }
      ],
      "name": "LogStake",
      "type": "event"
    },
    {
      "anonymous": false,
      "inputs": [
        {
          "indexed": true,
          "internalType": "address",
          "name": "account",
          "type": "address"
        },
        {
          "indexed": false,
          "internalType": "uint256",
          "name": "amount",
          "type": "uint256"
        }
      ],
      "name": "LogUnstake",
      "type": "event"
    },
    {
      "anonymous": false,
      "inputs": [
        {
          "indexed": true,
          "internalType": "address",
          "name": "staker",
          "type": "address"
        },
        {
          "indexed": true,
          "internalType": "address",
          "name": "borrower",
          "type": "address"
        },
        {
          "indexed": false,
          "internalType": "uint256",
          "name": "trustAmount",
          "type": "uint256"
        }
      ],
      "name": "LogUpdateTrust",
      "type": "event"
    },
    {
      "anonymous": false,
      "inputs": [
        {
          "indexed": false,
          "internalType": "address",
          "name": "account",
          "type": "address"
        }
      ],
      "name": "Paused",
      "type": "event"
    },
    {
      "anonymous": false,
      "inputs": [
        {
          "indexed": true,
          "internalType": "bytes32",
          "name": "role",
          "type": "bytes32"
        },
        {
          "indexed": true,
          "internalType": "bytes32",
          "name": "previousAdminRole",
          "type": "bytes32"
        },
        {
          "indexed": true,
          "internalType": "bytes32",
          "name": "newAdminRole",
          "type": "bytes32"
        }
      ],
      "name": "RoleAdminChanged",
      "type": "event"
    },
    {
      "anonymous": false,
      "inputs": [
        {
          "indexed": true,
          "internalType": "bytes32",
          "name": "role",
          "type": "bytes32"
        },
        {
          "indexed": true,
          "internalType": "address",
          "name": "account",
          "type": "address"
        },
        {
          "indexed": true,
          "internalType": "address",
          "name": "sender",
          "type": "address"
        }
      ],
      "name": "RoleGranted",
      "type": "event"
    },
    {
      "anonymous": false,
      "inputs": [
        {
          "indexed": true,
          "internalType": "bytes32",
          "name": "role",
          "type": "bytes32"
        },
        {
          "indexed": true,
          "internalType": "address",
          "name": "account",
          "type": "address"
        },
        {
          "indexed": true,
          "internalType": "address",
          "name": "sender",
          "type": "address"
        }
      ],
      "name": "RoleRevoked",
      "type": "event"
    },
    {
      "anonymous": false,
      "inputs": [
        {
          "indexed": false,
          "internalType": "address",
          "name": "account",
          "type": "address"
        }
      ],
      "name": "Unpaused",
      "type": "event"
    },
    {
      "anonymous": false,
      "inputs": [
        {
          "indexed": true,
          "internalType": "address",
          "name": "implementation",
          "type": "address"
        }
      ],
      "name": "Upgraded",
      "type": "event"
    },
    {
      "inputs": [],
      "name": "DEFAULT_ADMIN_ROLE",
      "outputs": [
        {
          "internalType": "bytes32",
          "name": "",
          "type": "bytes32"
        }
      ],
      "stateMutability": "view",
      "type": "function"
    },
    {
      "inputs": [],
      "name": "ROLE_ADMIN",
      "outputs": [
        {
          "internalType": "bytes32",
          "name": "",
          "type": "bytes32"
        }
      ],
      "stateMutability": "view",
      "type": "function"
    },
    {
      "inputs": [
        {
          "internalType": "address",
          "name": "admin_",
          "type": "address"
        }
      ],
      "name": "__Controller_init",
      "outputs": [],
      "stateMutability": "nonpayable",
      "type": "function"
    },
    {
      "inputs": [
        {
          "internalType": "address",
          "name": "assetManager_",
          "type": "address"
        },
        {
          "internalType": "address",
          "name": "unionToken_",
          "type": "address"
        },
        {
          "internalType": "address",
          "name": "stakingToken_",
          "type": "address"
        },
        {
          "internalType": "address",
          "name": "creditLimitModel_",
          "type": "address"
        },
        {
          "internalType": "address",
          "name": "comptroller_",
          "type": "address"
        },
        {
          "internalType": "address",
          "name": "admin_",
          "type": "address"
        }
      ],
      "name": "__UserManager_init",
      "outputs": [],
      "stateMutability": "nonpayable",
      "type": "function"
    },
    {
      "inputs": [
        {
          "internalType": "address",
          "name": "account",
          "type": "address"
        }
      ],
      "name": "addAdmin",
      "outputs": [],
      "stateMutability": "nonpayable",
      "type": "function"
    },
    {
      "inputs": [
        {
          "internalType": "address",
          "name": "account",
          "type": "address"
        }
      ],
      "name": "addMember",
      "outputs": [],
      "stateMutability": "nonpayable",
      "type": "function"
    },
    {
      "inputs": [],
      "name": "assetManager",
      "outputs": [
        {
          "internalType": "address",
          "name": "",
          "type": "address"
        }
      ],
      "stateMutability": "view",
      "type": "function"
    },
    {
      "inputs": [
        {
          "internalType": "address[]",
          "name": "accounts",
          "type": "address[]"
        },
        {
          "internalType": "bool[]",
          "name": "isOverdues",
          "type": "bool[]"
        }
      ],
      "name": "batchUpdateTotalFrozen",
      "outputs": [],
      "stateMutability": "nonpayable",
      "type": "function"
    },
    {
      "inputs": [
        {
          "internalType": "address",
          "name": "staker",
          "type": "address"
        },
        {
          "internalType": "address",
          "name": "borrower",
          "type": "address"
        }
      ],
      "name": "cancelVouch",
      "outputs": [],
      "stateMutability": "nonpayable",
      "type": "function"
    },
    {
      "inputs": [
        {
          "internalType": "address",
          "name": "account",
          "type": "address"
        }
      ],
      "name": "checkIsMember",
      "outputs": [
        {
          "internalType": "bool",
          "name": "",
          "type": "bool"
        }
      ],
      "stateMutability": "view",
      "type": "function"
    },
    {
      "inputs": [],
      "name": "comptroller",
      "outputs": [
        {
          "internalType": "contract IComptroller",
          "name": "",
          "type": "address"
        }
      ],
      "stateMutability": "view",
      "type": "function"
    },
    {
      "inputs": [],
      "name": "creditLimitModel",
      "outputs": [
        {
          "internalType": "contract ICreditLimitModel",
          "name": "",
          "type": "address"
        }
      ],
      "stateMutability": "view",
      "type": "function"
    },
    {
      "inputs": [
        {
          "internalType": "address",
          "name": "borrower",
          "type": "address"
        },
        {
          "internalType": "uint256",
          "name": "amount",
          "type": "uint256"
        }
      ],
      "name": "debtWriteOff",
      "outputs": [],
      "stateMutability": "nonpayable",
      "type": "function"
    },
    {
      "inputs": [
        {
          "internalType": "address",
          "name": "account",
          "type": "address"
        }
      ],
      "name": "getBorrowerAddresses",
      "outputs": [
        {
          "internalType": "address[]",
          "name": "",
          "type": "address[]"
        }
      ],
      "stateMutability": "view",
      "type": "function"
    },
    {
      "inputs": [
        {
          "internalType": "address",
          "name": "account",
          "type": "address"
        },
        {
          "internalType": "address",
          "name": "borrower",
          "type": "address"
        }
      ],
      "name": "getBorrowerAsset",
      "outputs": [
        {
          "internalType": "uint256",
          "name": "trustAmount",
          "type": "uint256"
        },
        {
          "internalType": "uint256",
          "name": "vouchingAmount",
          "type": "uint256"
        },
        {
          "internalType": "uint256",
          "name": "lockedStake",
          "type": "uint256"
        }
      ],
      "stateMutability": "view",
      "type": "function"
    },
    {
      "inputs": [
        {
          "internalType": "address",
          "name": "borrower",
          "type": "address"
        }
      ],
      "name": "getCreditLimit",
      "outputs": [
        {
          "internalType": "int256",
          "name": "",
          "type": "int256"
        }
      ],
      "stateMutability": "view",
      "type": "function"
    },
    {
      "inputs": [
        {
          "internalType": "address",
          "name": "staker",
          "type": "address"
        },
        {
          "internalType": "uint256",
          "name": "pastBlocks",
          "type": "uint256"
        }
      ],
      "name": "getFrozenCoinAge",
      "outputs": [
        {
          "internalType": "uint256",
          "name": "",
          "type": "uint256"
        }
      ],
      "stateMutability": "view",
      "type": "function"
    },
    {
      "inputs": [
        {
          "internalType": "address",
          "name": "staker",
          "type": "address"
        },
        {
          "internalType": "address",
          "name": "borrower",
          "type": "address"
        }
      ],
      "name": "getLockedStake",
      "outputs": [
        {
          "internalType": "uint256",
          "name": "",
          "type": "uint256"
        }
      ],
      "stateMutability": "view",
      "type": "function"
    },
    {
      "inputs": [
        {
          "internalType": "bytes32",
          "name": "role",
          "type": "bytes32"
        }
      ],
      "name": "getRoleAdmin",
      "outputs": [
        {
          "internalType": "bytes32",
          "name": "",
          "type": "bytes32"
        }
      ],
      "stateMutability": "view",
      "type": "function"
    },
    {
      "inputs": [
        {
          "internalType": "address",
          "name": "account",
          "type": "address"
        }
      ],
      "name": "getStakerAddresses",
      "outputs": [
        {
          "internalType": "address[]",
          "name": "",
          "type": "address[]"
        }
      ],
      "stateMutability": "view",
      "type": "function"
    },
    {
      "inputs": [
        {
          "internalType": "address",
          "name": "account",
          "type": "address"
        },
        {
          "internalType": "address",
          "name": "staker",
          "type": "address"
        }
      ],
      "name": "getStakerAsset",
      "outputs": [
        {
          "internalType": "uint256",
          "name": "trustAmount",
          "type": "uint256"
        },
        {
          "internalType": "uint256",
          "name": "vouchingAmount",
          "type": "uint256"
        },
        {
          "internalType": "uint256",
          "name": "lockedStake",
          "type": "uint256"
        }
      ],
      "stateMutability": "view",
      "type": "function"
    },
    {
      "inputs": [
        {
          "internalType": "address",
          "name": "account",
          "type": "address"
        }
      ],
      "name": "getStakerBalance",
      "outputs": [
        {
          "internalType": "uint256",
          "name": "",
          "type": "uint256"
        }
      ],
      "stateMutability": "view",
      "type": "function"
    },
    {
      "inputs": [
        {
          "internalType": "address",
          "name": "staker",
          "type": "address"
        }
      ],
      "name": "getTotalFrozenAmount",
      "outputs": [
        {
          "internalType": "uint256",
          "name": "",
          "type": "uint256"
        }
      ],
      "stateMutability": "view",
      "type": "function"
    },
    {
      "inputs": [
        {
          "internalType": "address",
          "name": "staker",
          "type": "address"
        }
      ],
      "name": "getTotalLockedStake",
      "outputs": [
        {
          "internalType": "uint256",
          "name": "",
          "type": "uint256"
        }
      ],
      "stateMutability": "view",
      "type": "function"
    },
    {
      "inputs": [
        {
          "internalType": "address",
          "name": "staker",
          "type": "address"
        },
        {
          "internalType": "address",
          "name": "borrower",
          "type": "address"
        }
      ],
      "name": "getVouchingAmount",
      "outputs": [
        {
          "internalType": "uint256",
          "name": "",
          "type": "uint256"
        }
      ],
      "stateMutability": "view",
      "type": "function"
    },
    {
      "inputs": [
        {
          "internalType": "bytes32",
          "name": "role",
          "type": "bytes32"
        },
        {
          "internalType": "address",
          "name": "account",
          "type": "address"
        }
      ],
      "name": "grantRole",
      "outputs": [],
      "stateMutability": "nonpayable",
      "type": "function"
    },
    {
      "inputs": [
        {
          "internalType": "bytes32",
          "name": "role",
          "type": "bytes32"
        },
        {
          "internalType": "address",
          "name": "account",
          "type": "address"
        }
      ],
      "name": "hasRole",
      "outputs": [
        {
          "internalType": "bool",
          "name": "",
          "type": "bool"
        }
      ],
      "stateMutability": "view",
      "type": "function"
    },
    {
      "inputs": [
        {
          "internalType": "address",
          "name": "account",
          "type": "address"
        }
      ],
      "name": "isAdmin",
      "outputs": [
        {
          "internalType": "bool",
          "name": "",
          "type": "bool"
        }
      ],
      "stateMutability": "view",
      "type": "function"
    },
    {
      "inputs": [],
      "name": "maxStakeAmount",
      "outputs": [
        {
          "internalType": "uint256",
          "name": "",
          "type": "uint256"
        }
      ],
      "stateMutability": "view",
      "type": "function"
    },
    {
      "inputs": [
        {
          "internalType": "address",
          "name": "",
          "type": "address"
        }
      ],
      "name": "memberFrozen",
      "outputs": [
        {
          "internalType": "uint256",
          "name": "",
          "type": "uint256"
        }
      ],
      "stateMutability": "view",
      "type": "function"
    },
    {
      "inputs": [],
      "name": "newMemberFee",
      "outputs": [
        {
          "internalType": "uint256",
          "name": "",
          "type": "uint256"
        }
      ],
      "stateMutability": "view",
      "type": "function"
    },
    {
      "inputs": [],
      "name": "pause",
      "outputs": [],
      "stateMutability": "nonpayable",
      "type": "function"
    },
    {
      "inputs": [],
      "name": "pauseGuardian",
      "outputs": [
        {
          "internalType": "address",
          "name": "",
          "type": "address"
        }
      ],
      "stateMutability": "view",
      "type": "function"
    },
    {
      "inputs": [],
      "name": "paused",
      "outputs": [
        {
          "internalType": "bool",
          "name": "",
          "type": "bool"
        }
      ],
      "stateMutability": "view",
      "type": "function"
    },
    {
      "inputs": [
        {
          "internalType": "address",
          "name": "newMember",
          "type": "address"
        }
      ],
      "name": "registerMember",
      "outputs": [],
      "stateMutability": "nonpayable",
      "type": "function"
    },
    {
      "inputs": [
        {
          "internalType": "address",
          "name": "newMember",
          "type": "address"
        },
        {
          "internalType": "uint256",
          "name": "value",
          "type": "uint256"
        },
        {
          "internalType": "uint256",
          "name": "deadline",
          "type": "uint256"
        },
        {
          "internalType": "uint8",
          "name": "v",
          "type": "uint8"
        },
        {
          "internalType": "bytes32",
          "name": "r",
          "type": "bytes32"
        },
        {
          "internalType": "bytes32",
          "name": "s",
          "type": "bytes32"
        }
      ],
      "name": "registerMemberWithPermit",
      "outputs": [],
      "stateMutability": "nonpayable",
      "type": "function"
    },
    {
      "inputs": [],
      "name": "renounceAdmin",
      "outputs": [],
      "stateMutability": "nonpayable",
      "type": "function"
    },
    {
      "inputs": [
        {
          "internalType": "bytes32",
          "name": "role",
          "type": "bytes32"
        },
        {
          "internalType": "address",
          "name": "account",
          "type": "address"
        }
      ],
      "name": "renounceRole",
      "outputs": [],
      "stateMutability": "nonpayable",
      "type": "function"
    },
    {
      "inputs": [
        {
          "internalType": "address",
          "name": "account",
          "type": "address"
        },
        {
          "internalType": "address",
          "name": "token",
          "type": "address"
        },
        {
          "internalType": "uint256",
          "name": "lastRepay",
          "type": "uint256"
        }
      ],
      "name": "repayLoanOverdue",
      "outputs": [],
      "stateMutability": "nonpayable",
      "type": "function"
    },
    {
      "inputs": [
        {
          "internalType": "bytes32",
          "name": "role",
          "type": "bytes32"
        },
        {
          "internalType": "address",
          "name": "account",
          "type": "address"
        }
      ],
      "name": "revokeRole",
      "outputs": [],
      "stateMutability": "nonpayable",
      "type": "function"
    },
    {
      "inputs": [
        {
          "internalType": "address",
          "name": "newCreditLimitModel",
          "type": "address"
        }
      ],
      "name": "setCreditLimitModel",
      "outputs": [],
      "stateMutability": "nonpayable",
      "type": "function"
    },
    {
      "inputs": [
        {
          "internalType": "address",
          "name": "account",
          "type": "address"
        }
      ],
      "name": "setGuardian",
      "outputs": [],
      "stateMutability": "nonpayable",
      "type": "function"
    },
    {
      "inputs": [
        {
          "internalType": "uint256",
          "name": "maxStakeAmount_",
          "type": "uint256"
        }
      ],
      "name": "setMaxStakeAmount",
      "outputs": [],
      "stateMutability": "nonpayable",
      "type": "function"
    },
    {
      "inputs": [
        {
          "internalType": "uint256",
          "name": "amount",
          "type": "uint256"
        }
      ],
      "name": "setNewMemberFee",
      "outputs": [],
      "stateMutability": "nonpayable",
      "type": "function"
    },
    {
      "inputs": [
        {
          "internalType": "address",
          "name": "uToken_",
          "type": "address"
        }
      ],
      "name": "setUToken",
      "outputs": [],
      "stateMutability": "nonpayable",
      "type": "function"
    },
    {
      "inputs": [
        {
          "internalType": "uint256",
          "name": "amount",
          "type": "uint256"
        }
      ],
      "name": "stake",
      "outputs": [],
      "stateMutability": "nonpayable",
      "type": "function"
    },
    {
      "inputs": [
        {
          "internalType": "uint256",
          "name": "amount",
          "type": "uint256"
        },
        {
          "internalType": "uint256",
          "name": "nonce",
          "type": "uint256"
        },
        {
          "internalType": "uint256",
          "name": "expiry",
          "type": "uint256"
        },
        {
          "internalType": "uint8",
          "name": "v",
          "type": "uint8"
        },
        {
          "internalType": "bytes32",
          "name": "r",
          "type": "bytes32"
        },
        {
          "internalType": "bytes32",
          "name": "s",
          "type": "bytes32"
        }
      ],
      "name": "stakeWithPermit",
      "outputs": [],
      "stateMutability": "nonpayable",
      "type": "function"
    },
    {
      "inputs": [
        {
          "internalType": "address",
          "name": "",
          "type": "address"
        }
      ],
      "name": "stakers",
      "outputs": [
        {
          "internalType": "uint256",
          "name": "",
          "type": "uint256"
        }
      ],
      "stateMutability": "view",
      "type": "function"
    },
    {
      "inputs": [],
      "name": "stakingToken",
      "outputs": [
        {
          "internalType": "address",
          "name": "",
          "type": "address"
        }
      ],
      "stateMutability": "view",
      "type": "function"
    },
    {
      "inputs": [
        {
          "internalType": "bytes4",
          "name": "interfaceId",
          "type": "bytes4"
        }
      ],
      "name": "supportsInterface",
      "outputs": [
        {
          "internalType": "bool",
          "name": "",
          "type": "bool"
        }
      ],
      "stateMutability": "view",
      "type": "function"
    },
    {
      "inputs": [],
      "name": "totalFrozen",
      "outputs": [
        {
          "internalType": "uint256",
          "name": "",
          "type": "uint256"
        }
      ],
      "stateMutability": "view",
      "type": "function"
    },
    {
      "inputs": [],
      "name": "totalStaked",
      "outputs": [
        {
          "internalType": "uint256",
          "name": "",
          "type": "uint256"
        }
      ],
      "stateMutability": "view",
      "type": "function"
    },
    {
      "inputs": [],
      "name": "uToken",
      "outputs": [
        {
          "internalType": "contract IUToken",
          "name": "",
          "type": "address"
        }
      ],
      "stateMutability": "view",
      "type": "function"
    },
    {
      "inputs": [],
      "name": "unionToken",
      "outputs": [
        {
          "internalType": "address",
          "name": "",
          "type": "address"
        }
      ],
      "stateMutability": "view",
      "type": "function"
    },
    {
      "inputs": [],
      "name": "unpause",
      "outputs": [],
      "stateMutability": "nonpayable",
      "type": "function"
    },
    {
      "inputs": [
        {
          "internalType": "uint256",
          "name": "amount",
          "type": "uint256"
        }
      ],
      "name": "unstake",
      "outputs": [],
      "stateMutability": "nonpayable",
      "type": "function"
    },
    {
      "inputs": [
        {
          "internalType": "address",
          "name": "borrower",
          "type": "address"
        },
        {
          "internalType": "uint256",
          "name": "amount",
          "type": "uint256"
        },
        {
          "internalType": "bool",
          "name": "isBorrow",
          "type": "bool"
        }
      ],
      "name": "updateLockedData",
      "outputs": [],
      "stateMutability": "nonpayable",
      "type": "function"
    },
    {
      "inputs": [
        {
          "internalType": "address",
          "name": "account",
          "type": "address"
        },
        {
          "internalType": "bool",
          "name": "isOverdue",
          "type": "bool"
        }
      ],
      "name": "updateTotalFrozen",
      "outputs": [],
      "stateMutability": "nonpayable",
      "type": "function"
    },
    {
      "inputs": [
        {
          "internalType": "address",
          "name": "borrower_",
          "type": "address"
        },
        {
          "internalType": "uint256",
          "name": "trustAmount",
          "type": "uint256"
        }
      ],
      "name": "updateTrust",
      "outputs": [],
      "stateMutability": "nonpayable",
      "type": "function"
    },
    {
      "inputs": [
        {
          "internalType": "address",
          "name": "newImplementation",
          "type": "address"
        }
      ],
      "name": "upgradeTo",
      "outputs": [],
      "stateMutability": "nonpayable",
      "type": "function"
    },
    {
      "inputs": [
        {
          "internalType": "address",
          "name": "newImplementation",
          "type": "address"
        },
        {
          "internalType": "bytes",
          "name": "data",
          "type": "bytes"
        }
      ],
      "name": "upgradeToAndCall",
      "outputs": [],
      "stateMutability": "payable",
      "type": "function"
    },
    {
      "inputs": [],
      "name": "withdrawRewards",
      "outputs": [],
      "stateMutability": "nonpayable",
      "type": "function"
    }
  ],
  "transactionHash": "0x4af7f8db72ebcd8877075acec6b48fc2cd4a61e2c019149cde4fcc135d11ad8f",
  "args": [],
  "solcInputHash": "4793ff3a0960b82e3cabf228d8731952",
  "bytecode": "0x60a06040523060601b60805234801561001757600080fd5b5060805160601c6158e26200004c600039600081816115340152818161157401528181611db70152611df701526158e26000f3fe60806040526004361061032d5760003560e01c806370480275116101a7578063b157bf03116100ed578063dcc2a55e11610090578063dcc2a55e14610a2a578063dd2368c914610a4a578063dd63f76214610a6a578063eb14845914610a8a578063f015846114610aaa578063f70222e114610acb578063fa84a8a314610aec578063fcb4888e14610b0c57600080fd5b8063b157bf031461090b578063b40d57fd14610946578063b6a93faf14610966578063b8845f7514610993578063c7b8981c146109b3578063ca6d56dc146109c8578063d391014b146109e8578063d547741f14610a0a57600080fd5b80638bad0c0a116101555780638bad0c0a146108125780639168ae721461082757806391d148541461085557806394217ad1146108755780639f3da8ef14610896578063a217fddf146108b6578063a694fc3a146108cb578063ab4ffaa9146108eb57600080fd5b806370480275146107455780637223325d1461076557806372f702f314610785578063817b1cd2146107a65780638456cb59146107bd57806385bde8f2146107d25780638a0dac4a146107f257600080fd5b806337262d38116102775780635c975abb1161021a5780635c975abb1461065d5780635d40db1e146106755780635d80ca32146106955780635fe3b567146106ac57806363315637146106cd578063644214f6146106ee57806364a118a1146107055780636c461a731461072557600080fd5b806337262d38146105755780633f4ba83a146105955780633feaf532146105aa57806343fbb8f5146105ca5780634f1ef286146105ea5780635668b02e146105fd578063574dadba1461061d578063591d637d1461063d57600080fd5b80632640d9db116102df5780632640d9db1461045057806327a9626b14610487578063293512c5146104b55780632c333e25146104d55780632e17de78146104f55780632f2ff15d1461051557806336568abe146105355780633659cfe61461055557600080fd5b806301ffc9a7146103325780630babf336146103675780631e7f87bc1461038957806321d2a573146103ae578063248a9ca3146103ce57806324a3d622146103fe57806324d7806c14610430575b600080fd5b34801561033e57600080fd5b5061035261034d36600461524b565b610b2c565b60405190151581526020015b60405180910390f35b34801561037357600080fd5b50610387610382366004614ec6565b610b63565b005b34801561039557600080fd5b506103a061016a5481565b60405190815260200161035e565b3480156103ba57600080fd5b506103526103c9366004614ec6565b610bd3565b3480156103da57600080fd5b506103a06103e9366004615211565b600090815260c9602052604090206001015490565b34801561040a57600080fd5b5060fc546104239061010090046001600160a01b031681565b60405161035e919061534c565b34801561043c57600080fd5b5061035261044b366004614ec6565b610bf2565b34801561045c57600080fd5b506103a061046b366004614ec6565b6001600160a01b0316600090815261016c602052604090205490565b34801561049357600080fd5b506103a06104a2366004614ec6565b61016d6020526000908152604090205481565b3480156104c157600080fd5b506103876104d0366004614f85565b610c0c565b3480156104e157600080fd5b506103a06104f0366004614ec6565b610d57565b34801561050157600080fd5b50610387610510366004615211565b61121d565b34801561052157600080fd5b50610387610530366004615229565b611480565b34801561054157600080fd5b50610387610550366004615229565b6114ab565b34801561056157600080fd5b50610387610570366004614ec6565b611529565b34801561058157600080fd5b506103a0610590366004614ec6565b6115ef565b3480156105a157600080fd5b506103876117a2565b3480156105b657600080fd5b506103876105c536600461511a565b611860565b3480156105d657600080fd5b506103876105e53660046150b2565b611920565b6103876105f8366004614ff6565b611dac565b34801561060957600080fd5b5061038761061836600461528b565b611e62565b34801561062957600080fd5b506103a0610638366004614ec6565b611f21565b34801561064957600080fd5b50610387610658366004614fc0565b612026565b34801561066957600080fd5b5060fc5460ff16610352565b34801561068157600080fd5b50610387610690366004615171565b61215b565b3480156106a157600080fd5b506103a06101615481565b3480156106b857600080fd5b5061016754610423906001600160a01b031681565b3480156106d957600080fd5b5061016554610423906001600160a01b031681565b3480156106fa57600080fd5b506103a06101685481565b34801561071157600080fd5b50610387610720366004614ec6565b61237a565b34801561073157600080fd5b50610387610740366004614ec6565b61242c565b34801561075157600080fd5b50610387610760366004614ec6565b612537565b34801561077157600080fd5b506103a0610780366004614ee0565b612644565b34801561079157600080fd5b5061016254610423906001600160a01b031681565b3480156107b257600080fd5b506103a06101695481565b3480156107c957600080fd5b50610387612698565b3480156107de57600080fd5b506103876107ed366004614ee0565b612727565b3480156107fe57600080fd5b5061038761080d366004614ec6565b612bbd565b34801561081e57600080fd5b50610387612c19565b34801561083357600080fd5b506103a0610842366004614ec6565b61016c6020526000908152604090205481565b34801561086157600080fd5b50610352610870366004615229565b612c50565b34801561088157600080fd5b5061016454610423906001600160a01b031681565b3480156108a257600080fd5b506103876108b1366004614f12565b612c7b565b3480156108c257600080fd5b506103a0600081565b3480156108d757600080fd5b506103876108e6366004615211565b612d76565b3480156108f757600080fd5b506103876109063660046150db565b612fee565b34801561091757600080fd5b5061092b610926366004614ee0565b613388565b6040805193845260208401929092529082015260600161035e565b34801561095257600080fd5b5061092b610961366004614ee0565b6133d6565b34801561097257600080fd5b50610986610981366004614ec6565b61341b565b60405161035e91906153b7565b34801561099f57600080fd5b506103876109ae3660046150b2565b613495565b3480156109bf57600080fd5b506103876138c5565b3480156109d457600080fd5b506103876109e3366004614ec6565b6139a6565b3480156109f457600080fd5b506103a060008051602061586683398151915281565b348015610a1657600080fd5b50610387610a25366004615229565b613a2e565b348015610a3657600080fd5b50610387610a45366004615211565b613a54565b348015610a5657600080fd5b506103a0610a65366004614ee0565b613acf565b348015610a7657600080fd5b506103a0610a853660046150b2565b613aff565b348015610a9657600080fd5b50610986610aa5366004614ec6565b613cc1565b348015610ab657600080fd5b5061016654610423906001600160a01b031681565b348015610ad757600080fd5b5061016354610423906001600160a01b031681565b348015610af857600080fd5b50610387610b07366004615211565b613d39565b348015610b1857600080fd5b50610387610b27366004614ec6565b613dac565b60006001600160e01b03198216637965db0b60e01b1480610b5d57506301ffc9a760e01b6001600160e01b03198316145b92915050565b610b7b60008051602061586683398151915233612c50565b610ba05760405162461bcd60e51b8152600401610b9790615591565b60405180910390fd5b6001600160a01b038116610bc757604051639fabe1c160e01b815260040160405180910390fd5b610bd081613fe6565b50565b6001600160a01b0316600090815261016b602052604090205460ff1690565b6000610b5d60008051602061586683398151915283612c50565b60fc5460ff1615610c2f5760405162461bcd60e51b8152600401610b9790615714565b610165546001600160a01b03163314801590610c515750610c4f33610bf2565b155b15610c6f5760405163458bc09b60e01b815260040160405180910390fd5b6000610c7a8461341b565b90506000805b81811015610d4f576000838281518110610caa57634e487b7160e01b600052603260045260246000fd5b602002602001015190506000610cc088836133d6565b61016754604051635525631360e01b81526001600160a01b0387811660048301528c8116602483015260448201849052606482018c90529295509116925063552563139150608401600060405180830381600087803b158015610d2257600080fd5b505af1158015610d36573d6000803e3d6000fd5b5050505050508080610d4790615810565b915050610c80565b505050505050565b6000610d61614dca565b6001600160a01b038316600090815261016b602090815260409182902060040180548351818402810184019094528084529091830182828015610dcd57602002820191906000526020600020905b81546001600160a01b03168152600190910190602001808311610daf575b5050508284525050600060408301819052905190816001600160401b03811115610e0757634e487b7160e01b600052604160045260246000fd5b604051908082528060200260200182016040528015610e30578160200160208202803683370190505b50905060005b82811015611039578351805182908110610e6057634e487b7160e01b600052603260045260246000fd5b6020908102919091018101516001600160a01b031660608601818152600091825261016c909252604090205460a086015251610e9c9087612644565b608085018190521561102757610eb58460600151613cc1565b602085015260a084015160c08501526060840151600090610ed590611f21565b9050808560a0015111610eee57600060c0860152610f04565b808560a00151610efe91906157b6565b60c08601525b610f12856060015188613acf565b60e0860181905260808601511015610f3d576040516365a029e560e01b815260040160405180910390fd5b8460e001518560c00151610f519190615740565b856080015110610f95578460c0015183866040015181518110610f8457634e487b7160e01b600052603260045260246000fd5b60200260200101818152505061100f565b8460e00151856080015111610fca57600083866040015181518110610f8457634e487b7160e01b600052603260045260246000fd5b8460e001518560800151610fde91906157b6565b8386604001518151811061100257634e487b7160e01b600052603260045260246000fd5b6020026020010181815250505b6001856040018181516110229190615740565b905250505b8061103181615810565b915050610e36565b50600083604001516001600160401b0381111561106657634e487b7160e01b600052604160045260246000fd5b60405190808252806020026020018201604052801561108f578160200160208202803683370190505b50905060005b8460400151811015611106578281815181106110c157634e487b7160e01b600052603260045260246000fd5b60200260200101518282815181106110e957634e487b7160e01b600052603260045260246000fd5b6020908102919091010152806110fe81615810565b915050611095565b5061016554604051630da5a3cb60e31b81526001600160a01b0390911690636d2d1e589061113890899060040161534c565b60206040518083038186803b15801561115057600080fd5b505afa158015611164573d6000803e3d6000fd5b505050506040513d601f19601f820116820180604052508101906111889190615273565b61016654604051634c9cc67360e01b81526001600160a01b0390911690634c9cc673906111b990859060040161548e565b60206040518083038186803b1580156111d157600080fd5b505afa1580156111e5573d6000803e3d6000fd5b505050506040513d601f19601f820116820180604052508101906112099190615273565b6112139190615777565b9695505050505050565b60fc5460ff16156112405760405162461bcd60e51b8152600401610b9790615714565b600261012f5414156112645760405162461bcd60e51b8152600401610b97906156dd565b600261012f556101625433600081815261016c60205260409020546001600160a01b039092169190839061129790611f21565b6112a190836157b6565b10156112c057604051631e9acf1760e31b815260040160405180910390fd5b6101675461016254604051637104c0e560e11b81526001600160a01b039283169263e20981ca926112f992339290911690600401615360565b602060405180830381600087803b15801561131357600080fd5b505af1158015611327573d6000803e3d6000fd5b505050506040513d601f19601f8201168201806040525081019061134b9190615273565b5061135683826157b6565b33600090815261016c6020526040812091909155610169805485929061137d9084906157b6565b90915550506101645461016254604051636ce5768960e11b81526001600160a01b039283169263d9caed12926113bc929116903090889060040161537a565b602060405180830381600087803b1580156113d657600080fd5b505af11580156113ea573d6000803e3d6000fd5b505050506040513d601f19601f8201168201806040525081019061140e91906151f5565b61142b576040516363be299360e01b815260040160405180910390fd5b61143f6001600160a01b03831633856140c0565b60405183815233907faf14da4c9c7eeb91ef462950405340d31988005c789d867d3a1394f082105e89906020015b60405180910390a25050600161012f5550565b600082815260c9602052604090206001015461149c8133614116565b6114a6838361417a565b505050565b6001600160a01b038116331461151b5760405162461bcd60e51b815260206004820152602f60248201527f416363657373436f6e74726f6c3a2063616e206f6e6c792072656e6f756e636560448201526e103937b632b9903337b91039b2b63360891b6064820152608401610b97565b6115258282614200565b5050565b306001600160a01b037f00000000000000000000000000000000000000000000000000000000000000001614156115725760405162461bcd60e51b8152600401610b97906154f9565b7f00000000000000000000000000000000000000000000000000000000000000006001600160a01b03166115a4614267565b6001600160a01b0316146115ca5760405162461bcd60e51b8152600401610b9790615545565b6115d381614295565b60408051600080825260208201909252610bd0918391906142c9565b60006115f9614dca565b6001600160a01b038316600090815261016b602090815260408083206002018054825181850281018501909352808352919290919083018282801561166757602002820191906000526020600020905b81546001600160a01b03168152600190910190602001808311611649575b505050505060208381019182526001600160a01b038616600090815261016c909152604081205460a0850152905151815b8181101561177f57846020015181815181106116c457634e487b7160e01b600052603260045260246000fd5b602090810291909101015161016554604051634da9983d60e11b81529194506001600160a01b031690639b53307a9061170190869060040161534c565b60206040518083038186803b15801561171957600080fd5b505afa15801561172d573d6000803e3d6000fd5b505050506040513d601f19601f8201168201806040525081019061175191906151f5565b1561176d576117608784613acf565b61176a9085615740565b93505b8061177781615810565b915050611698565b50828460a0015110611795575090949350505050565b50505060a0015192915050565b60fc5461010090046001600160a01b031633146117d15760405162461bcd60e51b8152600401610b97906155c0565b60fc5460ff1661181c5760405162461bcd60e51b815260206004820152601660248201527510dbdb9d1c9bdb1b195c8e881b9bdd081c185d5cd95960521b6044820152606401610b97565b60fc805460ff191690556040517f5db9ee0a495bf2e6ff9c91a7834c1ba4fdd244a5e8aa4e537bd38aeae4b073aa9061185690339061534c565b60405180910390a1565b60fc5460ff16156118835760405162461bcd60e51b8152600401610b9790615714565b6101635460405163d505accf60e01b8152336004820152306024820152604481018790526064810186905260ff8516608482015260a4810184905260c481018390526001600160a01b0390911690819063d505accf9060e401600060405180830381600087803b1580156118f657600080fd5b505af115801561190a573d6000803e3d6000fd5b5050505061191787613dac565b50505050505050565b3361192a81610bd3565b6119475760405163458bc09b60e01b815260040160405180910390fd5b60fc5460ff161561196a5760405162461bcd60e51b8152600401610b9790615714565b6001600160a01b03831661199157604051639fabe1c160e01b815260040160405180910390fd5b8261199a614dca565b33606082018190526001600160a01b03831614156119cb576040516302c8b80960e31b815260040160405180910390fd5b60326001600160a01b038316600090815261016b6020526040902060040154101580611a185750603260608201516001600160a01b0316600090815261016b602052604090206002015410155b15611a3657604051637c5aec3360e01b815260040160405180910390fd5b60608101516001600160a01b0316600090815261016b602090815260409182902060020180548351818402810184019094528084529091830182828015611aa657602002820191906000526020600020905b81546001600160a01b03168152600190910190602001808311611a88575b50505050602080840192909252506001600160a01b038316600090815261016b825260409081902060040180548251818502810185019093528083529192909190830182828015611b2057602002820191906000526020600020905b81546001600160a01b03168152600190910190602001808311611b02575b50505091835250506060810151611b379083613acf565b60e08201819052841015611b5e5760405163450f3fe560e11b815260040160405180910390fd5b60608101516001600160a01b0316600090815261016b602052604081206002015490805b82811015611bea57846001600160a01b031684602001518281518110611bb857634e487b7160e01b600052603260045260246000fd5b60200260200101516001600160a01b03161415611bd85760019150611bea565b80611be281615810565b915050611b82565b506001600160a01b038416600090815261016b602052604081206004015490805b82811015611c775785606001516001600160a01b031686600001518281518110611c4557634e487b7160e01b600052603260045260246000fd5b60200260200101516001600160a01b03161415611c655760019150611c77565b80611c6f81615810565b915050611c0b565b5082611cc55760608501516001600160a01b03908116600090815261016b602090815260408220600201805460018101825590835291200180546001600160a01b0319169188169190911790555b80611d14576001600160a01b03868116600090815261016b602090815260408220606089015160049091018054600181018255908452919092200180546001600160a01b031916919092161790555b6060850180516001600160a01b03908116600090815261016b602081815260408084208c8616808652600190910183528185208f9055928252808420865186168552600301909152918290208c9055925190519116907f6726f80fa910f3db24051175cda8d3c2af86b536cc2b137c1dbbf83136fe7c5c90611d99908c815260200190565b60405180910390a3505050505050505050565b306001600160a01b037f0000000000000000000000000000000000000000000000000000000000000000161415611df55760405162461bcd60e51b8152600401610b97906154f9565b7f00000000000000000000000000000000000000000000000000000000000000006001600160a01b0316611e27614267565b6001600160a01b031614611e4d5760405162461bcd60e51b8152600401610b9790615545565b611e5682614295565b611525828260016142c9565b60fc5460ff1615611e855760405162461bcd60e51b8152600401610b9790615714565b610162546040516323f2ebc360e21b815233600482015230602482015260448101879052606481018690526001608482015260ff851660a482015260c4810184905260e481018390526001600160a01b03909116908190638fcbaf0c9061010401600060405180830381600087803b158015611f0057600080fd5b505af1158015611f14573d6000803e3d6000fd5b5050505061191787612d76565b6001600160a01b038116600090815261016c602090815260408083205461016b8352818420600201805483518186028101860190945280845285949293859390929190830182828015611f9d57602002820191906000526020600020905b81546001600160a01b03168152600190910190602001808311611f7f575b505050505090506000808251905060005b8181101561200857838181518110611fd657634e487b7160e01b600052603260045260246000fd5b60200260200101519250611fea8884613acf565b611ff49087615740565b95508061200081615810565b915050611fae565b5084841061201b57509295945050505050565b509195945050505050565b610165546001600160a01b03163314801590612048575061204633610bf2565b155b156120665760405163458bc09b60e01b815260040160405180910390fd5b60fc5460ff16156120895760405162461bcd60e51b8152600401610b9790615714565b61016a546101695410156120b0576040516306f2ec6960e41b815260040160405180910390fd5b600061016a54610169546120c491906157b6565b6101675461016254604051630133821360e51b81529293506001600160a01b03918216926326704260926120fe921690859060040161539e565b602060405180830381600087803b15801561211857600080fd5b505af115801561212c573d6000803e3d6000fd5b505050506040513d601f19601f8201168201806040525081019061215091906151f5565b506114a68383614410565b610165546001600160a01b0316331480159061217d575061217b33610bf2565b155b1561219b5760405163458bc09b60e01b815260040160405180910390fd5b60fc5460ff16156121be5760405162461bcd60e51b8152600401610b9790615714565b8281146121de57604051631985132360e31b815260040160405180910390fd5b61016a54610169541015612205576040516306f2ec6960e41b815260040160405180910390fd5b600061016a546101695461221991906157b6565b6101675461016254604051630133821360e51b81529293506001600160a01b0391821692632670426092612253921690859060040161539e565b602060405180830381600087803b15801561226d57600080fd5b505af1158015612281573d6000803e3d6000fd5b505050506040513d601f19601f820116820180604052508101906122a591906151f5565b5060005b84811015610d4f5760008686838181106122d357634e487b7160e01b600052603260045260246000fd5b90506020020160208101906122e89190614ec6565b6001600160a01b0316146123685761236886868381811061231957634e487b7160e01b600052603260045260246000fd5b905060200201602081019061232e9190614ec6565b85858481811061234e57634e487b7160e01b600052603260045260246000fd5b905060200201602081019061236391906151d9565b614410565b8061237281615810565b9150506122a9565b61239260008051602061586683398151915233612c50565b6123ae5760405162461bcd60e51b8152600401610b9790615591565b6001600160a01b0381166123d557604051639fabe1c160e01b815260040160405180910390fd5b61016580546001600160a01b0319166001600160a01b0383161790556040517fa7ee46aebb9f5e2669fe2e2ff586cb308e2fc07d64bf563fbb491f8e9ab83e0c9061242190839061534c565b60405180910390a150565b600054610100900460ff166124475760005460ff161561244b565b303b155b6124675760405162461bcd60e51b8152600401610b9790615644565b600054610100900460ff16158015612489576000805461ffff19166101011790555b6001600160a01b0382166124af5760405162461bcd60e51b8152600401610b9790615612565b60fc805460ff191690556001600160a01b038216600081815260fb6020526040902080546001600160a01b03191690911790556124ea6145d0565b61250260008051602061586683398151915283614609565b60fc8054610100600160a81b0319166101006001600160a01b038516021790558015611525576000805461ff00191690555050565b61254f60008051602061586683398151915233612c50565b61256b5760405162461bcd60e51b8152600401610b9790615591565b6001600160a01b0381166125915760405162461bcd60e51b8152600401610b9790615612565b6001600160a01b03818116600090815260fb602052604090205416156126035760405162461bcd60e51b815260206004820152602160248201527f436f6e74726f6c6c65723a2061646d696e20616c7265616479206578697374656044820152601960fa1b6064820152608401610b97565b6001600160a01b038116600081815260fb6020526040902080546001600160a01b0319169091179055610bd060008051602061586683398151915282614609565b6001600160a01b03808316600081815261016c6020908152604080832054948616835261016b8252808320938352600390930190529081205490919081811161268d578061268f565b815b95945050505050565b60fc5461010090046001600160a01b031633146126c75760405162461bcd60e51b8152600401610b97906155c0565b60fc5460ff16156126ea5760405162461bcd60e51b8152600401610b9790615714565b60fc805460ff191660011790556040517f62e78cea01bee320cd4e420270b5ea74000d11b0c9f74754ebdbfc544b05a2589061185690339061534c565b3361273181610bd3565b61274e5760405163458bc09b60e01b815260040160405180910390fd5b60fc5460ff16156127715760405162461bcd60e51b8152600401610b9790615714565b336001600160a01b038416148015906127935750336001600160a01b03831614155b156127b15760405163458bc09b60e01b815260040160405180910390fd5b6127bb8383613acf565b156127d95760405163408757e360e11b815260040160405180910390fd5b6001600160a01b038216600090815261016b60205260408120600401549080805b8381101561287c576001600160a01b03868116600090815261016b602052604090206004018054918916918390811061284357634e487b7160e01b600052603260045260246000fd5b6000918252602090912001546001600160a01b0316141561286a576001925080915061287c565b8061287481615810565b9150506127fa565b506001600160a01b038616600090815261016b60205260408120600201549080805b83811015612920576001600160a01b038a8116600090815261016b602052604090206002018054918b1691839081106128e757634e487b7160e01b600052603260045260246000fd5b6000918252602090912001546001600160a01b0316141561290e5760019250809150612920565b8061291881615810565b91505061289e565b508115612a35576001600160a01b038916600090815261016b6020526040902060020161294e6001856157b6565b8154811061296c57634e487b7160e01b600052603260045260246000fd5b60009182526020808320909101546001600160a01b038c8116845261016b90925260409092206002018054919092169190839081106129bb57634e487b7160e01b600052603260045260246000fd5b600091825260208083209190910180546001600160a01b0319166001600160a01b03948516179055918b16815261016b90915260409020600201805480612a1257634e487b7160e01b600052603160045260246000fd5b600082815260209020810160001990810180546001600160a01b03191690550190555b8415612b49576001600160a01b038816600090815261016b60205260409020600401612a626001886157b6565b81548110612a8057634e487b7160e01b600052603260045260246000fd5b60009182526020808320909101546001600160a01b038b8116845261016b9092526040909220600401805491909216919086908110612acf57634e487b7160e01b600052603260045260246000fd5b600091825260208083209190910180546001600160a01b0319166001600160a01b03948516179055918a16815261016b90915260409020600401805480612b2657634e487b7160e01b600052603160045260246000fd5b600082815260209020810160001990810180546001600160a01b03191690550190555b6001600160a01b03808a16600081815261016b60208181526040808420958e16808552600190960182528084208490559181528183208484526003019052808220829055517fb620e4928572d86c4aa852f12b72cdb824405b403dc7c3cb5d60dece51cb648c9190a3505050505050505050565b612bd560008051602061586683398151915233612c50565b612bf15760405162461bcd60e51b8152600401610b9790615591565b60fc80546001600160a01b0390921661010002610100600160a81b0319909216919091179055565b612c31600080516020615866833981519152336114ab565b33600090815260fb6020526040902080546001600160a01b0319169055565b600091825260c9602090815260408084206001600160a01b0393909316845291905290205460ff1690565b600054610100900460ff16612c965760005460ff1615612c9a565b303b155b612cb65760405162461bcd60e51b8152600401610b9790615644565b600054610100900460ff16158015612cd8576000805461ffff19166101011790555b612ce18261242c565b612ce9614613565b612cf284613fe6565b61016780546001600160a01b038086166001600160a01b03199283161790925561016480548a84169083161790556101638054898416908316179055610162805492881692909116919091179055670de0b6b3a76400006101685569010f0cf064dd59200000610161558015611917576000805461ff001916905550505050505050565b60fc5460ff1615612d995760405162461bcd60e51b8152600401610b9790615714565b600261012f541415612dbd5760405162461bcd60e51b8152600401610b97906156dd565b600261012f556101625461016754604051637104c0e560e11b81526001600160a01b03928316929091169063e20981ca90612dfe9033908590600401615360565b602060405180830381600087803b158015612e1857600080fd5b505af1158015612e2c573d6000803e3d6000fd5b505050506040513d601f19601f82011682018060405250810190612e509190615273565b5033600090815261016c602052604090205461016154612e708483615740565b1115612e9257604051600162dbd46160e01b0319815260040160405180910390fd5b612e9c8382615740565b33600090815261016c60205260408120919091556101698054859290612ec3908490615740565b90915550612ede90506001600160a01b038316333086614642565b61016454612efa906001600160a01b0384811691166000614669565b61016454612f15906001600160a01b03848116911685614669565b61016454610162546040516311f9fbc960e21b81526001600160a01b03928316926347e7ef2492612f4d92911690879060040161539e565b602060405180830381600087803b158015612f6757600080fd5b505af1158015612f7b573d6000803e3d6000fd5b505050506040513d601f19601f82011682018060405250810190612f9f91906151f5565b612fbc57604051639a3107e160e01b815260040160405180910390fd5b60405183815233907f3dbdcfd4c1f2e08931aae3d544e149a1e643143f5234d166fe3debb7833884959060200161146d565b610165546001600160a01b03163314801590613010575061300e33610bf2565b155b1561302e5760405163458bc09b60e01b815260040160405180910390fd5b613036614dca565b6001600160a01b038416600090815261016b6020908152604091829020600401805483518184028101840190945280845290918301828280156130a257602002820191906000526020600020905b81546001600160a01b03168152600190910190602001808311613084575b5050508284525050516000906001600160401b038111156130d357634e487b7160e01b600052604160045260246000fd5b60405190808252806020026020018201604052801561310c57816020015b6130f9614e1f565b8152602001906001900390816130f15790505b5082515190915060005b8181101561324857613126614e1f565b845180518390811061314857634e487b7160e01b600052603260045260246000fd5b6020908102919091018101516001600160a01b031660608701818152600091825261016c909252604090205460a0870152516131849089612644565b6080860152606085015161319790611f21565b610100860181905260a0860151116131b557600060c08601526131d0565b8461010001518560a001516131ca91906157b6565b60c08601525b6060850180516001600160a01b0316825260808601516020830152516131f69089613acf565b604082015260c085015160608201528351819085908490811061322957634e487b7160e01b600052603260045260246000fd5b602002602001018190525050808061324090615810565b915050613116565b50815160005b8181101561337e576101665484516001600160a01b039091169063a0d9987b90869081908590811061329057634e487b7160e01b600052603260045260246000fd5b6020026020010151600001518a8a6040518563ffffffff1660e01b81526004016132bd9493929190615404565b60206040518083038186803b1580156132d557600080fd5b505afa1580156132e9573d6000803e3d6000fd5b505050506040513d601f19601f8201168201806040525081019061330d9190615273565b61016b600086848151811061333257634e487b7160e01b600052603260045260246000fd5b602090810291909101810151516001600160a01b0390811683528282019390935260409182016000908120938d168152600590930190529020558061337681615810565b91505061324e565b5050505050505050565b6001600160a01b03808316600090815261016b602090815260408083209385168352600190930190529081205490806133c18585613acf565b90506133cd8585612644565b91509250925092565b6001600160a01b03808316600090815261016b6020908152604080832093851683526003909301905290812054908061340f8486613acf565b90506133cd8486612644565b6001600160a01b038116600090815261016b602090815260409182902060040180548351818402810184019094528084526060939283018282801561348957602002820191906000526020600020905b81546001600160a01b0316815260019091019060200180831161346b575b50505050509050919050565b806134b3576040516365e52d5160e11b815260040160405180910390fd5b610169548111156134d75760405163441ea20b60e01b815260040160405180910390fd5b61016554604051634da9983d60e11b81526001600160a01b0390911690639b53307a9061350890859060040161534c565b60206040518083038186803b15801561352057600080fd5b505afa158015613534573d6000803e3d6000fd5b505050506040513d601f19601f8201168201806040525081019061355891906151f5565b6135755760405163f7d8046b60e01b815260040160405180910390fd5b60006135813384613acf565b9050808211156135a45760405163678ec84b60e11b815260040160405180910390fd5b6135af836001614410565b61016a548211156135d357604051634e62d08b60e11b815260040160405180910390fd5b6101675461016254604051637104c0e560e11b81526001600160a01b039283169263e20981ca9261360c92339290911690600401615360565b602060405180830381600087803b15801561362657600080fd5b505af115801561363a573d6000803e3d6000fd5b505050506040513d601f19601f8201168201806040525081019061365e9190615273565b5033600090815261016c60205260408120805484929061367f9084906157b6565b9250508190555081610169600082825461369991906157b6565b925050819055508161016a60008282546136b391906157b6565b90915550506001600160a01b038316600090815261016d6020526040902054821161370c576001600160a01b038316600090815261016d6020526040812080548492906137019084906157b6565b909155506137279050565b6001600160a01b038316600090815261016d60205260408120555b61373182826157b6565b33600090815261016b602090815260408083206001600160a01b03881684526005810183528184209490945560019093019052908120549061377384836157b6565b33600081815261016b602081815260408084206001600160a01b038c811686526001909101835281852087905592825280842094845260039094019052908290208390556101645461016254925163b8845f7560e01b815293945081169263b8845f75926137e7921690889060040161539e565b600060405180830381600087803b15801561380157600080fd5b505af1158015613815573d6000803e3d6000fd5b50506101655460405163b8845f7560e01b81526001600160a01b03909116925063b8845f75915061384c908890889060040161539e565b600060405180830381600087803b15801561386657600080fd5b505af115801561387a573d6000803e3d6000fd5b50506040518681526001600160a01b03881692503391507f721dd838cd211473250d3276b95ede5c746ea6711f9ca7364967246bf2c8db849060200160405180910390a35050505050565b60fc5460ff16156138e85760405162461bcd60e51b8152600401610b9790615714565b600261012f54141561390c5760405162461bcd60e51b8152600401610b97906156dd565b600261012f556101675461016254604051637104c0e560e11b81526001600160a01b039283169263e20981ca9261394b92339290911690600401615360565b602060405180830381600087803b15801561396557600080fd5b505af1158015613979573d6000803e3d6000fd5b505050506040513d601f19601f8201168201806040525081019061399d9190615273565b50600161012f55565b6139be60008051602061586683398151915233612c50565b6139da5760405162461bcd60e51b8152600401610b9790615591565b6001600160a01b038116600090815261016b602052604090819020805460ff19166001179055517f5e1ee096236e8660dc7150f7b5ecb274fb28105175e61ace07f7525ab72ede449061242190839061534c565b600082815260c96020526040902060010154613a4a8133614116565b6114a68383614200565b613a6c60008051602061586683398151915233612c50565b613a885760405162461bcd60e51b8152600401610b9790615591565b61016180549082905560408051828152602081018490527f4df262040f2b057fb44aa36002925ea5c877c6ce81fbb210b7e85ee1bc3a498491015b60405180910390a15050565b6001600160a01b03918216600090815261016b602090815260408083209390941682526005909201909152205490565b60008080613b0c85613cc1565b805190915060005b8181101561201b576000838281518110613b3e57634e487b7160e01b600052603260045260246000fd5b602090810291909101015161016554604051632592fb6760e01b81529192506000916001600160a01b0390911690632592fb6790613b8090859060040161534c565b60206040518083038186803b158015613b9857600080fd5b505afa158015613bac573d6000803e3d6000fd5b505050506040513d601f19601f82011682018060405250810190613bd09190615273565b613bda90436157b6565b61016554604051634da9983d60e11b81529192506001600160a01b031690639b53307a90613c0c90859060040161534c565b60206040518083038186803b158015613c2457600080fd5b505afa158015613c38573d6000803e3d6000fd5b505050506040513d601f19601f82011682018060405250810190613c5c91906151f5565b15613cac576000613c6d838b6133d6565b92505050818910613c9357613c828282615758565b613c8c9088615740565b9650613caa565b613c9d8982615758565b613ca79088615740565b96505b505b50508080613cb990615810565b915050613b14565b6001600160a01b038116600090815261016b6020908152604091829020600201805483518184028101840190945280845260609392830182828015613489576020028201919060005260206000209081546001600160a01b0316815260019091019060200180831161346b5750505050509050919050565b613d5160008051602061586683398151915233612c50565b613d6d5760405162461bcd60e51b8152600401610b9790615591565b61016880549082905560408051828152602081018490527f498fc03364d7fc570a80360564e057678eefc3a22931b102a63fefff80bc87579101613ac3565b60fc5460ff1615613dcf5760405162461bcd60e51b8152600401610b9790615714565b613dd881610bd3565b15613df657604051638176867d60e01b815260040160405180910390fd5b610163546001600160a01b03828116600090815261016b60205260408120600401549190921691908190815b81811015613ec0576001600160a01b038616600090815261016b60205260409020600401805482908110613e6657634e487b7160e01b600052603260045260246000fd5b6000918252602090912001546001600160a01b03169250613e8683610bd3565b8015613e9b57506000613e998488612644565b115b15613eae57613eab600185615740565b93505b80613eb881615810565b915050613e22565b5061016660009054906101000a90046001600160a01b03166001600160a01b03166351118cfb6040518163ffffffff1660e01b8152600401602060405180830381600087803b158015613f1257600080fd5b505af1158015613f26573d6000803e3d6000fd5b505050506040513d601f19601f82011682018060405250810190613f4a9190615273565b831015613f6a576040516302c0ac8f60e61b815260040160405180910390fd5b6001600160a01b03808616600090815261016b60205260409020805460ff191660011790556101675461016854613fa992878116923392911690614642565b6040516001600160a01b0386169033907f9d20d3ae19788f508f4eab7f2347e8be09a77d3394e12b3f4ebb15f63c85b37a90600090a35050505050565b806001600160a01b031663b0db49306040518163ffffffff1660e01b815260040160206040518083038186803b15801561401f57600080fd5b505afa158015614033573d6000803e3d6000fd5b505050506040513d601f19601f8201168201806040525081019061405791906151f5565b61407457604051634573d3f960e01b815260040160405180910390fd5b61016680546001600160a01b0319166001600160a01b0383161790556040517f5d836e0ba607c52b1dceb0fd428714bc02d853f50390605467267c834f7c2af49061242190839061534c565b6114a68363a9059cbb60e01b84846040516024016140df92919061539e565b60408051601f198184030181529190526020810180516001600160e01b03166001600160e01b03199093169290921790915261477b565b6141208282612c50565b61152557614138816001600160a01b0316601461484d565b61414383602061484d565b6040516020016141549291906152dd565b60408051601f198184030181529082905262461bcd60e51b8252610b97916004016154c6565b6141848282612c50565b61152557600082815260c9602090815260408083206001600160a01b03851684529091529020805460ff191660011790556141bc3390565b6001600160a01b0316816001600160a01b0316837f2f8788117e7eff1d82e926ec794901d17c78024a50270940304540a733656f0d60405160405180910390a45050565b61420a8282612c50565b1561152557600082815260c9602090815260408083206001600160a01b0385168085529252808320805460ff1916905551339285917ff6391f5c32d9c69d2a47ea670b442974b53935d1edc7fd64eb21e047a839171b9190a45050565b7f360894a13ba1a3210667c828492db98dca3e2076cc3735a920a3ca505d382bbc546001600160a01b031690565b6142ad60008051602061586683398151915233612c50565b610bd05760405162461bcd60e51b8152600401610b9790615591565b60006142d3614267565b90506142de84614a35565b6000835111806142eb5750815b156142fc576142fa8484614ada565b505b7f4910fdfa16fed3260ed0e7147f7cc6da11a60208b5b9406d12a635614ffd9143805460ff1661440957805460ff1916600117815560405161437790869061434890859060240161534c565b60408051601f198184030181529190526020810180516001600160e01b0316631b2ce7f360e11b179052614ada565b50805460ff19168155614388614267565b6001600160a01b0316826001600160a01b0316146144005760405162461bcd60e51b815260206004820152602f60248201527f45524331393637557067726164653a207570677261646520627265616b73206660448201526e75727468657220757067726164657360881b6064820152608401610b97565b61440985614bbc565b5050505050565b8015614550576000805b6001600160a01b038416600090815261016b60205260409020600401548110156144bd576001600160a01b038416600090815261016b6020526040812060040180548390811061447a57634e487b7160e01b600052603260045260246000fd5b60009182526020822001546001600160a01b0316915061449a8287613acf565b90506144a68185615740565b9350505080806144b590615810565b91505061441a565b506001600160a01b038316600090815261016d60205260409020546144fa578061016a60008282546144ef9190615740565b909155506145329050565b6001600160a01b038316600090815261016d602052604090205461016a54614523908390615740565b61452d91906157b6565b61016a555b6001600160a01b038316600090815261016d60205260409020555050565b6001600160a01b038216600090815261016d602052604090205461016a5411156145ad576001600160a01b038216600090815261016d602052604081205461016a8054919290916145a29084906157b6565b909155506145b49050565b600061016a555b506001600160a01b0316600090815261016d6020526040812055565b600054610100900460ff166145f75760405162461bcd60e51b8152600401610b9790615692565b6145ff614bfc565b614607614bfc565b565b611525828261417a565b600054610100900460ff1661463a5760405162461bcd60e51b8152600401610b9790615692565b614607614c23565b614663846323b872dd60e01b8585856040516024016140df9392919061537a565b50505050565b8015806146f15750604051636eb1769f60e11b81526001600160a01b0384169063dd62ed3e9061469f9030908690600401615360565b60206040518083038186803b1580156146b757600080fd5b505afa1580156146cb573d6000803e3d6000fd5b505050506040513d601f19601f820116820180604052508101906146ef9190615273565b155b61475c5760405162461bcd60e51b815260206004820152603660248201527f5361666545524332303a20617070726f76652066726f6d206e6f6e2d7a65726f60448201527520746f206e6f6e2d7a65726f20616c6c6f77616e636560501b6064820152608401610b97565b6114a68363095ea7b360e01b84846040516024016140df92919061539e565b60006147d0826040518060400160405280602081526020017f5361666545524332303a206c6f772d6c6576656c2063616c6c206661696c6564815250856001600160a01b0316614c529092919063ffffffff16565b8051909150156114a657808060200190518101906147ee91906151f5565b6114a65760405162461bcd60e51b815260206004820152602a60248201527f5361666545524332303a204552433230206f7065726174696f6e20646964206e6044820152691bdd081cdd58d8d9595960b21b6064820152608401610b97565b6060600061485c836002615758565b614867906002615740565b6001600160401b0381111561488c57634e487b7160e01b600052604160045260246000fd5b6040519080825280601f01601f1916602001820160405280156148b6576020820181803683370190505b509050600360fc1b816000815181106148df57634e487b7160e01b600052603260045260246000fd5b60200101906001600160f81b031916908160001a905350600f60fb1b8160018151811061491c57634e487b7160e01b600052603260045260246000fd5b60200101906001600160f81b031916908160001a9053506000614940846002615758565b61494b906001615740565b90505b60018111156149df576f181899199a1a9b1b9c1cb0b131b232b360811b85600f166010811061498d57634e487b7160e01b600052603260045260246000fd5b1a60f81b8282815181106149b157634e487b7160e01b600052603260045260246000fd5b60200101906001600160f81b031916908160001a90535060049490941c936149d8816157f9565b905061494e565b508315614a2e5760405162461bcd60e51b815260206004820181905260248201527f537472696e67733a20686578206c656e67746820696e73756666696369656e746044820152606401610b97565b9392505050565b803b614a995760405162461bcd60e51b815260206004820152602d60248201527f455243313936373a206e657720696d706c656d656e746174696f6e206973206e60448201526c1bdd08184818dbdb9d1c9858dd609a1b6064820152608401610b97565b7f360894a13ba1a3210667c828492db98dca3e2076cc3735a920a3ca505d382bbc80546001600160a01b0319166001600160a01b0392909216919091179055565b6060823b614b395760405162461bcd60e51b815260206004820152602660248201527f416464726573733a2064656c65676174652063616c6c20746f206e6f6e2d636f6044820152651b9d1c9858dd60d21b6064820152608401610b97565b600080846001600160a01b031684604051614b5491906152c1565b600060405180830381855af49150503d8060008114614b8f576040519150601f19603f3d011682016040523d82523d6000602084013e614b94565b606091505b509150915061268f828260405180606001604052806027815260200161588660279139614c69565b614bc581614a35565b6040516001600160a01b038216907fbc7cd75a20ee27fd9adebab32041f755214dbc6bffa90cc0225b39da2e5c2d3b90600090a250565b600054610100900460ff166146075760405162461bcd60e51b8152600401610b9790615692565b600054610100900460ff16614c4a5760405162461bcd60e51b8152600401610b9790615692565b600161012f55565b6060614c618484600085614ca2565b949350505050565b60608315614c78575081614a2e565b825115614c885782518084602001fd5b8160405162461bcd60e51b8152600401610b9791906154c6565b606082471015614d035760405162461bcd60e51b815260206004820152602660248201527f416464726573733a20696e73756666696369656e742062616c616e636520666f6044820152651c8818d85b1b60d21b6064820152608401610b97565b843b614d515760405162461bcd60e51b815260206004820152601d60248201527f416464726573733a2063616c6c20746f206e6f6e2d636f6e74726163740000006044820152606401610b97565b600080866001600160a01b03168587604051614d6d91906152c1565b60006040518083038185875af1925050503d8060008114614daa576040519150601f19603f3d011682016040523d82523d6000602084013e614daf565b606091505b5091509150614dbf828286614c69565b979650505050505050565b60405180610120016040528060608152602001606081526020016000815260200160006001600160a01b0316815260200160008152602001600081526020016000815260200160008152602001600081525090565b604051806080016040528060006001600160a01b031681526020016000815260200160008152602001600081525090565b80356001600160a01b0381168114614e6757600080fd5b919050565b60008083601f840112614e7d578081fd5b5081356001600160401b03811115614e93578182fd5b6020830191508360208260051b8501011115614eae57600080fd5b9250929050565b803560ff81168114614e6757600080fd5b600060208284031215614ed7578081fd5b614a2e82614e50565b60008060408385031215614ef2578081fd5b614efb83614e50565b9150614f0960208401614e50565b90509250929050565b60008060008060008060c08789031215614f2a578182fd5b614f3387614e50565b9550614f4160208801614e50565b9450614f4f60408801614e50565b9350614f5d60608801614e50565b9250614f6b60808801614e50565b9150614f7960a08801614e50565b90509295509295509295565b600080600060608486031215614f99578283fd5b614fa284614e50565b9250614fb060208501614e50565b9150604084013590509250925092565b60008060408385031215614fd2578182fd5b614fdb83614e50565b91506020830135614feb81615857565b809150509250929050565b60008060408385031215615008578182fd5b61501183614e50565b915060208301356001600160401b038082111561502c578283fd5b818501915085601f83011261503f578283fd5b81358181111561505157615051615841565b604051601f8201601f19908116603f0116810190838211818310171561507957615079615841565b81604052828152886020848701011115615091578586fd5b82602086016020830137856020848301015280955050505050509250929050565b600080604083850312156150c4578182fd5b6150cd83614e50565b946020939093013593505050565b6000806000606084860312156150ef578283fd5b6150f884614e50565b925060208401359150604084013561510f81615857565b809150509250925092565b60008060008060008060c08789031215615132578182fd5b61513b87614e50565b9550602087013594506040870135935061515760608801614eb5565b92506080870135915060a087013590509295509295509295565b60008060008060408587031215615186578182fd5b84356001600160401b038082111561519c578384fd5b6151a888838901614e6c565b909650945060208701359150808211156151c0578384fd5b506151cd87828801614e6c565b95989497509550505050565b6000602082840312156151ea578081fd5b8135614a2e81615857565b600060208284031215615206578081fd5b8151614a2e81615857565b600060208284031215615222578081fd5b5035919050565b6000806040838503121561523b578182fd5b82359150614f0960208401614e50565b60006020828403121561525c578081fd5b81356001600160e01b031981168114614a2e578182fd5b600060208284031215615284578081fd5b5051919050565b60008060008060008060c087890312156152a3578384fd5b86359550602087013594506040870135935061515760608801614eb5565b600082516152d38184602087016157cd565b9190910192915050565b76020b1b1b2b9b9a1b7b73a3937b61d1030b1b1b7bab73a1604d1b81526000835161530f8160178501602088016157cd565b7001034b99036b4b9b9b4b733903937b6329607d1b60179184019182015283516153408160288401602088016157cd565b01602801949350505050565b6001600160a01b0391909116815260200190565b6001600160a01b0392831681529116602082015260400190565b6001600160a01b039384168152919092166020820152604081019190915260600190565b6001600160a01b03929092168252602082015260400190565b6020808252825182820181905260009190848201906040850190845b818110156153f85783516001600160a01b0316835292840192918401916001016153d3565b50909695505050505050565b608080825285518282018190526000919060209060a0850190828a01855b8281101561546557815180516001600160a01b03168552858101518686015260408082015190860152606090810151908501529285019290840190600101615422565b5050506001600160a01b038816858301529250505083604083015261268f606083018415159052565b6020808252825182820181905260009190848201906040850190845b818110156153f8578351835292840192918401916001016154aa565b60208152600082518060208401526154e58160408501602087016157cd565b601f01601f19169190910160400192915050565b6020808252602c908201527f46756e6374696f6e206d7573742062652063616c6c6564207468726f7567682060408201526b19195b1959d85d1958d85b1b60a21b606082015260800190565b6020808252602c908201527f46756e6374696f6e206d7573742062652063616c6c6564207468726f7567682060408201526b6163746976652070726f787960a01b606082015260800190565b60208082526015908201527421b7b73a3937b63632b91d103737ba1030b236b4b760591b604082015260600190565b60208082526032908201527f436f6e74726f6c6c65723a2063616c6c657220646f6573206e6f7420686176656040820152712074686520677561726469616e20726f6c6560701b606082015260800190565b602080825260189082015277436f6e74726f6c6c65723a2061646472657373207a65726f60401b604082015260600190565b6020808252602e908201527f496e697469616c697a61626c653a20636f6e747261637420697320616c72656160408201526d191e481a5b9a5d1a585b1a5e995960921b606082015260800190565b6020808252602b908201527f496e697469616c697a61626c653a20636f6e7472616374206973206e6f74206960408201526a6e697469616c697a696e6760a81b606082015260800190565b6020808252601f908201527f5265656e7472616e637947756172643a207265656e7472616e742063616c6c00604082015260600190565b60208082526012908201527110dbdb9d1c9bdb1b195c8e881c185d5cd95960721b604082015260600190565b600082198211156157535761575361582b565b500190565b60008160001904831182151516156157725761577261582b565b500290565b60008083128015600160ff1b8501841216156157955761579561582b565b6001600160ff1b03840183138116156157b0576157b061582b565b50500390565b6000828210156157c8576157c861582b565b500390565b60005b838110156157e85781810151838201526020016157d0565b838111156146635750506000910152565b6000816158085761580861582b565b506000190190565b60006000198214156158245761582461582b565b5060010190565b634e487b7160e01b600052601160045260246000fd5b634e487b7160e01b600052604160045260246000fd5b8015158114610bd057600080fdfe2172861495e7b85edac73e3cd5fbb42dd675baadf627720e687bcfdaca025096416464726573733a206c6f772d6c6576656c2064656c65676174652063616c6c206661696c6564a2646970667358221220838e5968c845549abb564c264633707b76de263ad11320bb1b25025765c5e52a64736f6c63430008040033",
  "devdoc": {
    "kind": "dev",
    "methods": {
      "addAdmin(address)": {
        "details": "Add a new admin account",
        "params": {
          "account": "Account address"
        }
      },
      "addMember(address)": {
        "details": "Add member  Accept claims only from the admin",
        "params": {
          "account": "Member address"
        }
      },
      "cancelVouch(address,address)": {
        "details": "Stop vouch for other member.",
        "params": {
          "borrower": "borrower address",
          "staker": "Staker address"
        }
      },
      "checkIsMember(address)": {
        "details": "Check if the account is a valid member",
        "params": {
          "account": "Member address"
        },
        "returns": {
          "_0": "Address whether is member"
        }
      },
      "getBorrowerAddresses(address)": {
        "details": "Get member borrowerAddresses",
        "params": {
          "account": "Member address"
        },
        "returns": {
          "_0": "Address array"
        }
      },
      "getBorrowerAsset(address,address)": {
        "details": "Get member backer asset",
        "params": {
          "account": "Member address",
          "borrower": "Borrower address"
        },
        "returns": {
          "trustAmount": "vouchingAmount lockedStake. Trust amount, vouch amount, and locked stake amount"
        }
      },
      "getCreditLimit(address)": {
        "details": "Get the member's available credit line",
        "params": {
          "borrower": "Member address"
        },
        "returns": {
          "_0": "Credit line amount"
        }
      },
      "getLockedStake(address,address)": {
        "details": "Get staker locked stake for a borrower",
        "params": {
          "borrower": "Borrower address",
          "staker": "Staker address"
        },
        "returns": {
          "_0": "LockedStake"
        }
      },
      "getRoleAdmin(bytes32)": {
        "details": "Returns the admin role that controls `role`. See {grantRole} and {revokeRole}. To change a role's admin, use {_setRoleAdmin}."
      },
      "getStakerAddresses(address)": {
        "details": "Get member stakerAddresses",
        "params": {
          "account": "Member address"
        },
        "returns": {
          "_0": "Address array"
        }
      },
      "getStakerAsset(address,address)": {
        "details": "Get member stakers asset",
        "params": {
          "account": "Member address",
          "staker": "Staker address"
        },
        "returns": {
          "trustAmount": "lockedStake vouchingAmount. Vouch amount and lockedStake"
        }
      },
      "getStakerBalance(address)": {
        "details": "Get the user's deposited stake amount",
        "params": {
          "account": "Member address"
        },
        "returns": {
          "_0": "Deposited stake amount"
        }
      },
      "getTotalFrozenAmount(address)": {
        "details": "Get staker's defaulted / frozen staked token amount",
        "params": {
          "staker": "Staker address"
        },
        "returns": {
          "_0": "Frozen token amount"
        }
      },
      "getTotalLockedStake(address)": {
        "details": "Get the user's locked stake from all his backed loans",
        "params": {
          "staker": "Staker address"
        },
        "returns": {
          "_0": "LockedStake"
        }
      },
      "getVouchingAmount(address,address)": {
        "details": "Get vouching amount",
        "params": {
          "borrower": "Borrower address",
          "staker": "Staker address"
        }
      },
      "grantRole(bytes32,address)": {
        "details": "Grants `role` to `account`. If `account` had not been already granted `role`, emits a {RoleGranted} event. Requirements: - the caller must have ``role``'s admin role."
      },
      "hasRole(bytes32,address)": {
        "details": "Returns `true` if `account` has been granted `role`."
      },
      "isAdmin(address)": {
        "details": "Check if the address provided is the admin",
        "params": {
          "account": "Account address"
        }
      },
      "pause()": {
        "details": "Called by a pauser to pause, triggers stopped state."
      },
      "paused()": {
        "details": "Returns true if the contract is paused, and false otherwise."
      },
      "registerMember(address)": {
        "details": "Register member with a fee, send fees back to comptroller",
        "params": {
          "newMember": "New member address"
        }
      },
      "renounceAdmin()": {
        "details": "Renouce the admin from the sender's address"
      },
      "renounceRole(bytes32,address)": {
        "details": "Revokes `role` from the calling account. Roles are often managed via {grantRole} and {revokeRole}: this function's purpose is to provide a mechanism for accounts to lose their privileges if they are compromised (such as when a trusted device is misplaced). If the calling account had been revoked `role`, emits a {RoleRevoked} event. Requirements: - the caller must be `account`."
      },
      "repayLoanOverdue(address,address,uint256)": {
        "details": "Repay user's loan overdue, called only from the lending market",
        "params": {
          "account": "User address",
          "lastRepay": "Last repay block number",
          "token": "The asset token repaying to"
        }
      },
      "revokeRole(bytes32,address)": {
        "details": "Revokes `role` from `account`. If `account` had been granted `role`, emits a {RoleRevoked} event. Requirements: - the caller must have ``role``'s admin role."
      },
      "setCreditLimitModel(address)": {
        "details": "Change the credit limit model  Accept claims only from the admin",
        "params": {
          "newCreditLimitModel": "New credit limit model address"
        }
      },
      "setGuardian(address)": {
        "details": "Set pauseGuardian account",
        "params": {
          "account": "Account address"
        }
      },
      "stake(uint256)": {
        "details": "Stake",
        "params": {
          "amount": "Amount"
        }
      },
      "stakeWithPermit(uint256,uint256,uint256,uint8,bytes32,bytes32)": {
        "details": "stakeWithPermit",
        "params": {
          "amount": "Amount"
        }
      },
      "supportsInterface(bytes4)": {
        "details": "See {IERC165-supportsInterface}."
      },
      "unpause()": {
        "details": "Called by a pauser to unpause, returns to normal state."
      },
      "unstake(uint256)": {
        "details": "Unstake",
        "params": {
          "amount": "Amount"
        }
      },
      "updateLockedData(address,uint256,bool)": {
        "details": "Update userManager locked info",
        "params": {
          "amount": "Borrow or repay amount(Including previously accrued interest)",
          "borrower": "Borrower address",
          "isBorrow": "True is borrow, false is repay"
        }
      },
      "updateTotalFrozen(address,bool)": {
        "details": "Update total frozen",
        "params": {
          "account": "borrower address",
          "isOverdue": "account is overdue"
        }
      },
      "updateTrust(address,uint256)": {
        "details": "Update the trust amount for exisitng members.",
        "params": {
          "borrower_": "Account address",
          "trustAmount": "Trust amount"
        }
      },
      "upgradeTo(address)": {
        "details": "Upgrade the implementation of the proxy to `newImplementation`. Calls {_authorizeUpgrade}. Emits an {Upgraded} event."
      },
      "upgradeToAndCall(address,bytes)": {
        "details": "Upgrade the implementation of the proxy to `newImplementation`, and subsequently execute the function call encoded in `data`. Calls {_authorizeUpgrade}. Emits an {Upgraded} event."
      }
    },
    "version": 1
  },
  "userdoc": {
    "kind": "user",
    "methods": {},
    "version": 1
  },
  "storageLayout": {
    "storage": [
      {
        "astId": 824,
        "contract": "contracts/user/UserManagerArb.sol:UserManagerArb",
        "label": "_initialized",
        "offset": 0,
        "slot": "0",
        "type": "t_bool"
      },
      {
        "astId": 827,
        "contract": "contracts/user/UserManagerArb.sol:UserManagerArb",
        "label": "_initializing",
        "offset": 1,
        "slot": "0",
        "type": "t_bool"
      },
      {
        "astId": 806,
        "contract": "contracts/user/UserManagerArb.sol:UserManagerArb",
        "label": "__gap",
        "offset": 0,
        "slot": "1",
        "type": "t_array(t_uint256)50_storage"
      },
      {
        "astId": 1001,
        "contract": "contracts/user/UserManagerArb.sol:UserManagerArb",
        "label": "__gap",
        "offset": 0,
        "slot": "51",
        "type": "t_array(t_uint256)50_storage"
      },
      {
        "astId": 2481,
        "contract": "contracts/user/UserManagerArb.sol:UserManagerArb",
        "label": "__gap",
        "offset": 0,
        "slot": "101",
        "type": "t_array(t_uint256)50_storage"
      },
      {
        "astId": 3403,
        "contract": "contracts/user/UserManagerArb.sol:UserManagerArb",
        "label": "__gap",
        "offset": 0,
        "slot": "151",
        "type": "t_array(t_uint256)50_storage"
      },
      {
        "astId": 48,
        "contract": "contracts/user/UserManagerArb.sol:UserManagerArb",
        "label": "_roles",
        "offset": 0,
        "slot": "201",
        "type": "t_mapping(t_bytes32,t_struct(RoleData)43_storage)"
      },
      {
        "astId": 335,
        "contract": "contracts/user/UserManagerArb.sol:UserManagerArb",
        "label": "__gap",
        "offset": 0,
        "slot": "202",
        "type": "t_array(t_uint256)49_storage"
      },
      {
        "astId": 12161,
        "contract": "contracts/user/UserManagerArb.sol:UserManagerArb",
        "label": "_admins",
        "offset": 0,
        "slot": "251",
        "type": "t_mapping(t_address,t_address)"
      },
      {
        "astId": 12163,
        "contract": "contracts/user/UserManagerArb.sol:UserManagerArb",
        "label": "_paused",
        "offset": 0,
        "slot": "252",
        "type": "t_bool"
      },
      {
        "astId": 12165,
        "contract": "contracts/user/UserManagerArb.sol:UserManagerArb",
        "label": "pauseGuardian",
        "offset": 1,
        "slot": "252",
        "type": "t_address"
      },
      {
        "astId": 12405,
        "contract": "contracts/user/UserManagerArb.sol:UserManagerArb",
        "label": "______gap",
        "offset": 0,
        "slot": "253",
        "type": "t_array(t_uint256)50_storage"
      },
      {
        "astId": 1016,
        "contract": "contracts/user/UserManagerArb.sol:UserManagerArb",
        "label": "_status",
        "offset": 0,
        "slot": "303",
        "type": "t_uint256"
      },
      {
        "astId": 1059,
        "contract": "contracts/user/UserManagerArb.sol:UserManagerArb",
        "label": "__gap",
        "offset": 0,
        "slot": "304",
        "type": "t_array(t_uint256)49_storage"
      },
      {
        "astId": 25272,
        "contract": "contracts/user/UserManagerArb.sol:UserManagerArb",
        "label": "maxStakeAmount",
        "offset": 0,
        "slot": "353",
        "type": "t_uint256"
      },
      {
        "astId": 25274,
        "contract": "contracts/user/UserManagerArb.sol:UserManagerArb",
        "label": "stakingToken",
        "offset": 0,
        "slot": "354",
        "type": "t_address"
      },
      {
        "astId": 25276,
        "contract": "contracts/user/UserManagerArb.sol:UserManagerArb",
        "label": "unionToken",
        "offset": 0,
        "slot": "355",
        "type": "t_address"
      },
      {
        "astId": 25278,
        "contract": "contracts/user/UserManagerArb.sol:UserManagerArb",
        "label": "assetManager",
        "offset": 0,
        "slot": "356",
        "type": "t_address"
      },
      {
        "astId": 25281,
        "contract": "contracts/user/UserManagerArb.sol:UserManagerArb",
        "label": "uToken",
        "offset": 0,
        "slot": "357",
        "type": "t_contract(IUToken)17040"
      },
      {
        "astId": 25284,
        "contract": "contracts/user/UserManagerArb.sol:UserManagerArb",
        "label": "creditLimitModel",
        "offset": 0,
        "slot": "358",
        "type": "t_contract(ICreditLimitModel)16598"
      },
      {
        "astId": 25287,
        "contract": "contracts/user/UserManagerArb.sol:UserManagerArb",
        "label": "comptroller",
        "offset": 0,
        "slot": "359",
        "type": "t_contract(IComptroller)16550"
      },
      {
        "astId": 25289,
        "contract": "contracts/user/UserManagerArb.sol:UserManagerArb",
        "label": "newMemberFee",
        "offset": 0,
        "slot": "360",
        "type": "t_uint256"
      },
      {
        "astId": 25292,
        "contract": "contracts/user/UserManagerArb.sol:UserManagerArb",
        "label": "totalStaked",
        "offset": 0,
        "slot": "361",
        "type": "t_uint256"
      },
      {
        "astId": 25295,
        "contract": "contracts/user/UserManagerArb.sol:UserManagerArb",
        "label": "totalFrozen",
        "offset": 0,
        "slot": "362",
        "type": "t_uint256"
      },
      {
        "astId": 25300,
        "contract": "contracts/user/UserManagerArb.sol:UserManagerArb",
        "label": "members",
        "offset": 0,
        "slot": "363",
        "type": "t_mapping(t_address,t_struct(Member)25230_storage)"
      },
      {
        "astId": 25304,
        "contract": "contracts/user/UserManagerArb.sol:UserManagerArb",
        "label": "stakers",
        "offset": 0,
        "slot": "364",
        "type": "t_mapping(t_address,t_uint256)"
      },
      {
        "astId": 25308,
        "contract": "contracts/user/UserManagerArb.sol:UserManagerArb",
        "label": "memberFrozen",
        "offset": 0,
        "slot": "365",
        "type": "t_mapping(t_address,t_uint256)"
      }
    ],
    "types": {
      "t_address": {
        "encoding": "inplace",
        "label": "address",
        "numberOfBytes": "20"
      },
      "t_array(t_address)dyn_storage": {
        "base": "t_address",
        "encoding": "dynamic_array",
        "label": "address[]",
        "numberOfBytes": "32"
      },
      "t_array(t_uint256)49_storage": {
        "base": "t_uint256",
        "encoding": "inplace",
        "label": "uint256[49]",
        "numberOfBytes": "1568"
      },
      "t_array(t_uint256)50_storage": {
        "base": "t_uint256",
        "encoding": "inplace",
        "label": "uint256[50]",
        "numberOfBytes": "1600"
      },
      "t_bool": {
        "encoding": "inplace",
        "label": "bool",
        "numberOfBytes": "1"
      },
      "t_bytes32": {
        "encoding": "inplace",
        "label": "bytes32",
        "numberOfBytes": "32"
      },
      "t_contract(IComptroller)16550": {
        "encoding": "inplace",
        "label": "contract IComptroller",
        "numberOfBytes": "20"
      },
      "t_contract(ICreditLimitModel)16598": {
        "encoding": "inplace",
        "label": "contract ICreditLimitModel",
        "numberOfBytes": "20"
      },
      "t_contract(IUToken)17040": {
        "encoding": "inplace",
        "label": "contract IUToken",
        "numberOfBytes": "20"
      },
      "t_mapping(t_address,t_address)": {
        "encoding": "mapping",
        "key": "t_address",
        "label": "mapping(address => address)",
        "numberOfBytes": "32",
        "value": "t_address"
      },
      "t_mapping(t_address,t_bool)": {
        "encoding": "mapping",
        "key": "t_address",
        "label": "mapping(address => bool)",
        "numberOfBytes": "32",
        "value": "t_bool"
      },
      "t_mapping(t_address,t_struct(Member)25230_storage)": {
        "encoding": "mapping",
        "key": "t_address",
        "label": "mapping(address => struct UserManager.Member)",
        "numberOfBytes": "32",
        "value": "t_struct(Member)25230_storage"
      },
      "t_mapping(t_address,t_uint256)": {
        "encoding": "mapping",
        "key": "t_address",
        "label": "mapping(address => uint256)",
        "numberOfBytes": "32",
        "value": "t_uint256"
      },
      "t_mapping(t_bytes32,t_struct(RoleData)43_storage)": {
        "encoding": "mapping",
        "key": "t_bytes32",
        "label": "mapping(bytes32 => struct AccessControlUpgradeable.RoleData)",
        "numberOfBytes": "32",
        "value": "t_struct(RoleData)43_storage"
      },
      "t_struct(CreditLine)25249_storage": {
        "encoding": "inplace",
        "label": "struct UserManager.CreditLine",
        "members": [
          {
            "astId": 25234,
            "contract": "contracts/user/UserManagerArb.sol:UserManagerArb",
            "label": "borrowers",
            "offset": 0,
            "slot": "0",
            "type": "t_mapping(t_address,t_uint256)"
          },
          {
            "astId": 25237,
            "contract": "contracts/user/UserManagerArb.sol:UserManagerArb",
            "label": "borrowerAddresses",
            "offset": 0,
            "slot": "1",
            "type": "t_array(t_address)dyn_storage"
          },
          {
            "astId": 25241,
            "contract": "contracts/user/UserManagerArb.sol:UserManagerArb",
            "label": "stakers",
            "offset": 0,
            "slot": "2",
            "type": "t_mapping(t_address,t_uint256)"
          },
          {
            "astId": 25244,
            "contract": "contracts/user/UserManagerArb.sol:UserManagerArb",
            "label": "stakerAddresses",
            "offset": 0,
            "slot": "3",
            "type": "t_array(t_address)dyn_storage"
          },
          {
            "astId": 25248,
            "contract": "contracts/user/UserManagerArb.sol:UserManagerArb",
            "label": "lockedAmount",
            "offset": 0,
            "slot": "4",
            "type": "t_mapping(t_address,t_uint256)"
          }
        ],
        "numberOfBytes": "160"
      },
      "t_struct(Member)25230_storage": {
        "encoding": "inplace",
        "label": "struct UserManager.Member",
        "members": [
          {
            "astId": 25226,
            "contract": "contracts/user/UserManagerArb.sol:UserManagerArb",
            "label": "isMember",
            "offset": 0,
            "slot": "0",
            "type": "t_bool"
          },
          {
            "astId": 25229,
            "contract": "contracts/user/UserManagerArb.sol:UserManagerArb",
            "label": "creditLine",
            "offset": 0,
            "slot": "1",
            "type": "t_struct(CreditLine)25249_storage"
          }
        ],
        "numberOfBytes": "192"
      },
      "t_struct(RoleData)43_storage": {
        "encoding": "inplace",
        "label": "struct AccessControlUpgradeable.RoleData",
        "members": [
          {
            "astId": 40,
            "contract": "contracts/user/UserManagerArb.sol:UserManagerArb",
            "label": "members",
            "offset": 0,
            "slot": "0",
            "type": "t_mapping(t_address,t_bool)"
          },
          {
            "astId": 42,
            "contract": "contracts/user/UserManagerArb.sol:UserManagerArb",
            "label": "adminRole",
            "offset": 0,
            "slot": "1",
            "type": "t_bytes32"
          }
        ],
        "numberOfBytes": "64"
      },
      "t_uint256": {
        "encoding": "inplace",
        "label": "uint256",
        "numberOfBytes": "32"
      }
    }
  }
}