{
  "address": "0x9e21ca9e50823F90eC1604477884cab5491eF0AB",
  "abi": [
    {
      "inputs": [
        {
          "internalType": "address",
          "name": "_l2Gateway",
          "type": "address"
        },
        {
          "internalType": "address",
          "name": "_l1TokenAddress",
          "type": "address"
        }
      ],
      "stateMutability": "nonpayable",
      "type": "constructor"
    },
    {
      "anonymous": false,
      "inputs": [
        {
          "indexed": true,
          "internalType": "address",
          "name": "owner",
          "type": "address"
        },
        {
          "indexed": true,
          "internalType": "address",
          "name": "spender",
          "type": "address"
        },
        {
          "indexed": false,
          "internalType": "uint256",
          "name": "value",
          "type": "uint256"
        }
      ],
      "name": "Approval",
      "type": "event"
    },
    {
      "anonymous": false,
      "inputs": [
        {
          "indexed": true,
          "internalType": "address",
          "name": "previousOwner",
          "type": "address"
        },
        {
          "indexed": true,
          "internalType": "address",
          "name": "newOwner",
          "type": "address"
        }
      ],
      "name": "OwnershipTransferred",
      "type": "event"
    },
    {
      "anonymous": false,
      "inputs": [
        {
          "indexed": true,
          "internalType": "address",
          "name": "from",
          "type": "address"
        },
        {
          "indexed": true,
          "internalType": "address",
          "name": "to",
          "type": "address"
        },
        {
          "indexed": false,
          "internalType": "uint256",
          "name": "value",
          "type": "uint256"
        }
      ],
      "name": "Transfer",
      "type": "event"
    },
    {
      "anonymous": false,
      "inputs": [
        {
          "indexed": true,
          "internalType": "address",
          "name": "_account",
          "type": "address"
        }
      ],
      "name": "Unwhitelisted",
      "type": "event"
    },
    {
      "anonymous": false,
      "inputs": [],
      "name": "WhitelistDisabled",
      "type": "event"
    },
    {
      "anonymous": false,
      "inputs": [],
      "name": "WhitelistEnabled",
      "type": "event"
    },
    {
      "anonymous": false,
      "inputs": [
        {
          "indexed": true,
          "internalType": "address",
          "name": "_account",
          "type": "address"
        }
      ],
      "name": "Whitelisted",
      "type": "event"
    },
    {
      "inputs": [
        {
          "internalType": "address",
          "name": "owner",
          "type": "address"
        },
        {
          "internalType": "address",
          "name": "spender",
          "type": "address"
        }
      ],
      "name": "allowance",
      "outputs": [
        {
          "internalType": "uint256",
          "name": "",
          "type": "uint256"
        }
      ],
      "stateMutability": "view",
      "type": "function"
    },
    {
      "inputs": [
        {
          "internalType": "address",
          "name": "spender",
          "type": "address"
        },
        {
          "internalType": "uint256",
          "name": "amount",
          "type": "uint256"
        }
      ],
      "name": "approve",
      "outputs": [
        {
          "internalType": "bool",
          "name": "",
          "type": "bool"
        }
      ],
      "stateMutability": "nonpayable",
      "type": "function"
    },
    {
      "inputs": [
        {
          "internalType": "address",
          "name": "account",
          "type": "address"
        }
      ],
      "name": "balanceOf",
      "outputs": [
        {
          "internalType": "uint256",
          "name": "",
          "type": "uint256"
        }
      ],
      "stateMutability": "view",
      "type": "function"
    },
    {
      "inputs": [
        {
          "internalType": "address",
          "name": "account",
          "type": "address"
        },
        {
          "internalType": "uint256",
          "name": "amount",
          "type": "uint256"
        }
      ],
      "name": "bridgeBurn",
      "outputs": [],
      "stateMutability": "nonpayable",
      "type": "function"
    },
    {
      "inputs": [
        {
          "internalType": "address",
          "name": "account",
          "type": "address"
        },
        {
          "internalType": "uint256",
          "name": "amount",
          "type": "uint256"
        }
      ],
      "name": "bridgeMint",
      "outputs": [],
      "stateMutability": "nonpayable",
      "type": "function"
    },
    {
      "inputs": [],
      "name": "decimals",
      "outputs": [
        {
          "internalType": "uint8",
          "name": "",
          "type": "uint8"
        }
      ],
      "stateMutability": "view",
      "type": "function"
    },
    {
      "inputs": [
        {
          "internalType": "address",
          "name": "spender",
          "type": "address"
        },
        {
          "internalType": "uint256",
          "name": "subtractedValue",
          "type": "uint256"
        }
      ],
      "name": "decreaseAllowance",
      "outputs": [
        {
          "internalType": "bool",
          "name": "",
          "type": "bool"
        }
      ],
      "stateMutability": "nonpayable",
      "type": "function"
    },
    {
      "inputs": [],
      "name": "disableWhitelist",
      "outputs": [],
      "stateMutability": "nonpayable",
      "type": "function"
    },
    {
      "inputs": [],
      "name": "enableWhitelist",
      "outputs": [],
      "stateMutability": "nonpayable",
      "type": "function"
    },
    {
      "inputs": [],
      "name": "getChainId",
      "outputs": [
        {
          "internalType": "uint256",
          "name": "chainId",
          "type": "uint256"
        }
      ],
      "stateMutability": "view",
      "type": "function"
    },
    {
      "inputs": [
        {
          "internalType": "address",
          "name": "spender",
          "type": "address"
        },
        {
          "internalType": "uint256",
          "name": "addedValue",
          "type": "uint256"
        }
      ],
      "name": "increaseAllowance",
      "outputs": [
        {
          "internalType": "bool",
          "name": "",
          "type": "bool"
        }
      ],
      "stateMutability": "nonpayable",
      "type": "function"
    },
    {
      "inputs": [
        {
          "internalType": "address",
          "name": "_account",
          "type": "address"
        }
      ],
      "name": "isWhitelisted",
      "outputs": [
        {
          "internalType": "bool",
          "name": "",
          "type": "bool"
        }
      ],
      "stateMutability": "view",
      "type": "function"
    },
    {
      "inputs": [],
      "name": "l1Address",
      "outputs": [
        {
          "internalType": "address",
          "name": "",
          "type": "address"
        }
      ],
      "stateMutability": "view",
      "type": "function"
    },
    {
      "inputs": [],
      "name": "l2Gateway",
      "outputs": [
        {
          "internalType": "address",
          "name": "",
          "type": "address"
        }
      ],
      "stateMutability": "view",
      "type": "function"
    },
    {
      "inputs": [],
      "name": "name",
      "outputs": [
        {
          "internalType": "string",
          "name": "",
          "type": "string"
        }
      ],
      "stateMutability": "view",
      "type": "function"
    },
    {
      "inputs": [],
      "name": "owner",
      "outputs": [
        {
          "internalType": "address",
          "name": "",
          "type": "address"
        }
      ],
      "stateMutability": "view",
      "type": "function"
    },
    {
      "inputs": [],
      "name": "renounceOwnership",
      "outputs": [],
      "stateMutability": "nonpayable",
      "type": "function"
    },
    {
      "inputs": [],
      "name": "symbol",
      "outputs": [
        {
          "internalType": "string",
          "name": "",
          "type": "string"
        }
      ],
      "stateMutability": "view",
      "type": "function"
    },
    {
      "inputs": [],
      "name": "totalSupply",
      "outputs": [
        {
          "internalType": "uint256",
          "name": "",
          "type": "uint256"
        }
      ],
      "stateMutability": "view",
      "type": "function"
    },
    {
      "inputs": [
        {
          "internalType": "address",
          "name": "recipient",
          "type": "address"
        },
        {
          "internalType": "uint256",
          "name": "amount",
          "type": "uint256"
        }
      ],
      "name": "transfer",
      "outputs": [
        {
          "internalType": "bool",
          "name": "",
          "type": "bool"
        }
      ],
      "stateMutability": "nonpayable",
      "type": "function"
    },
    {
      "inputs": [
        {
          "internalType": "address",
          "name": "sender",
          "type": "address"
        },
        {
          "internalType": "address",
          "name": "recipient",
          "type": "address"
        },
        {
          "internalType": "uint256",
          "name": "amount",
          "type": "uint256"
        }
      ],
      "name": "transferFrom",
      "outputs": [
        {
          "internalType": "bool",
          "name": "",
          "type": "bool"
        }
      ],
      "stateMutability": "nonpayable",
      "type": "function"
    },
    {
      "inputs": [
        {
          "internalType": "address",
          "name": "newOwner",
          "type": "address"
        }
      ],
      "name": "transferOwnership",
      "outputs": [],
      "stateMutability": "nonpayable",
      "type": "function"
    },
    {
      "inputs": [
        {
          "internalType": "address",
          "name": "_account",
          "type": "address"
        }
      ],
      "name": "unwhitelist",
      "outputs": [],
      "stateMutability": "nonpayable",
      "type": "function"
    },
    {
      "inputs": [
        {
          "internalType": "address",
          "name": "_account",
          "type": "address"
        }
      ],
      "name": "whitelist",
      "outputs": [],
      "stateMutability": "nonpayable",
      "type": "function"
    },
    {
      "inputs": [],
      "name": "whitelistEnabled",
      "outputs": [
        {
          "internalType": "bool",
          "name": "",
          "type": "bool"
        }
      ],
      "stateMutability": "view",
      "type": "function"
    }
  ],
  "transactionHash": "0xd4715a918c76a3dffd4a0787a8483393f797030eca61c3788619a0dae312bd85",
  "args": [
    "0x9b014455AcC2Fe90c52803849d0002aeEC184a06",
    "0xb5f13dcaa7a95EF3A087F1D22e848bD58b3076Ba"
  ],
  "solcInputHash": "dc2b0dfb667b258313b5e6ac5e5a477f",
  "bytecode": "0x60a06040523480156200001157600080fd5b50604051620015c7380380620015c7833981016040819052620000349162000318565b604080518082018252600e81526d20b93134ba393ab6902aa724a7a760911b60208083019182528351808501909452600884526730b9312aa724a7a760c11b9084015281519192916200008a9160039162000255565b508051620000a090600490602084019062000255565b505050620000bd620000b76200010d60201b60201c565b62000111565b600780546001600160a01b0319166001600160a01b038416908117909155606082901b6001600160601b0319166080526005805460ff60a01b19169055620001059062000163565b50506200038c565b3390565b600580546001600160a01b038381166001600160a01b0319831681179093556040519116919082907f8be0079c531659141344cd1fd0a4f28419497f9722a3daafe3b4186f6b6457e090600090a35050565b6005546001600160a01b03163314620001c25760405162461bcd60e51b815260206004820181905260248201527f4f776e61626c653a2063616c6c6572206973206e6f7420746865206f776e6572604482015260640160405180910390fd5b6001600160a01b038116620002095760405162461bcd60e51b8152600401808060200182810382526026815260200180620015a16026913960400191505060405180910390fd5b6001600160a01b038116600081815260066020526040808220805460ff19166001179055517faab7954e9d246b167ef88aeddad35209ca2489d95a8aeb59e288d9b19fae5a549190a250565b82805462000263906200034f565b90600052602060002090601f016020900481019282620002875760008555620002d2565b82601f10620002a257805160ff1916838001178555620002d2565b82800160010185558215620002d2579182015b82811115620002d2578251825591602001919060010190620002b5565b50620002e0929150620002e4565b5090565b5b80821115620002e05760008155600101620002e5565b80516001600160a01b03811681146200031357600080fd5b919050565b600080604083850312156200032b578182fd5b6200033683620002fb565b91506200034660208401620002fb565b90509250929050565b600181811c908216806200036457607f821691505b602082108114156200038657634e487b7160e01b600052602260045260246000fd5b50919050565b60805160601c6111f6620003ab600039600061031b01526111f66000f3fe608060405234801561001057600080fd5b50600436106101635760003560e01c80638c2a993e116100ce578063a457c2d711610087578063a457c2d7146102f0578063a9059cbb14610303578063c2eeeebd14610316578063cdfb2b4e1461033d578063d6b0f48414610345578063dd62ed3e1461034d578063f2fde38b1461038657600080fd5b80638c2a993e1461027c5780638da5cb5b1461028f5780638fa74a0e146102af57806395d89b41146102c25780639a590427146102ca5780639b19251a146102dd57600080fd5b8063395093511161012057806339509351146101e35780633af32abf146101f657806351fb012d1461022257806370a0823114610236578063715018a61461025f57806374f4f5471461026957600080fd5b806306fdde0314610168578063095ea7b31461018657806318160ddd146101a957806323b872dd146101bb578063313ce567146101ce5780633408e470146101dd575b600080fd5b610170610399565b60405161017d919061104d565b60405180910390f35b610199610194366004611024565b61042b565b604051901515815260200161017d565b6002545b60405190815260200161017d565b6101996101c9366004610fe9565b610441565b6040516012815260200161017d565b466101ad565b6101996101f1366004611024565b6104f0565b610199610204366004610f96565b6001600160a01b031660009081526006602052604090205460ff1690565b60055461019990600160a01b900460ff1681565b6101ad610244366004610f96565b6001600160a01b031660009081526020819052604090205490565b61026761052c565b005b610267610277366004611024565b610567565b61026761028a366004611024565b61059f565b6102976105d3565b6040516001600160a01b03909116815260200161017d565b600754610297906001600160a01b031681565b6101706105e2565b6102676102d8366004610f96565b6105f1565b6102676102eb366004610f96565b6106ae565b6101996102fe366004611024565b61076e565b610199610311366004611024565b610807565b6102977f000000000000000000000000000000000000000000000000000000000000000081565b610267610814565b610267610881565b6101ad61035b366004610fb7565b6001600160a01b03918216600090815260016020908152604080832093909416825291909152205490565b610267610394366004610f96565b6108e8565b6060600380546103a890611129565b80601f01602080910402602001604051908101604052809291908181526020018280546103d490611129565b80156104215780601f106103f657610100808354040283529160200191610421565b820191906000526020600020905b81548152906001019060200180831161040457829003601f168201915b5050505050905090565b6000610438338484610988565b50600192915050565b600061044e848484610aac565b6001600160a01b0384166000908152600160209081526040808320338452909152902054828110156104d85760405162461bcd60e51b815260206004820152602860248201527f45524332303a207472616e7366657220616d6f756e74206578636565647320616044820152676c6c6f77616e636560c01b60648201526084015b60405180910390fd5b6104e58533858403610988565b506001949350505050565b3360008181526001602090815260408083206001600160a01b038716845290915281205490916104389185906105279086906110fa565b610988565b336105356105d3565b6001600160a01b03161461055b5760405162461bcd60e51b81526004016104cf906110c5565b6105656000610c74565b565b6007546001600160a01b031633146105915760405162461bcd60e51b81526004016104cf906110a0565b61059b8282610cc6565b5050565b6007546001600160a01b031633146105c95760405162461bcd60e51b81526004016104cf906110a0565b61059b8282610e0f565b6005546001600160a01b031690565b6060600480546103a890611129565b336105fa6105d3565b6001600160a01b0316146106205760405162461bcd60e51b81526004016104cf906110c5565b6001600160a01b0381166106655760405162461bcd60e51b815260040180806020018281038252602681526020018061117b6026913960400191505060405180910390fd5b6001600160a01b038116600081815260066020526040808220805460ff19169055517f51085ddf9ebdded84b76e829eb58c4078e4b5bdf97d9a94723f336039da467919190a250565b336106b76105d3565b6001600160a01b0316146106dd5760405162461bcd60e51b81526004016104cf906110c5565b6001600160a01b0381166107225760405162461bcd60e51b815260040180806020018281038252602681526020018061117b6026913960400191505060405180910390fd5b6001600160a01b038116600081815260066020526040808220805460ff19166001179055517faab7954e9d246b167ef88aeddad35209ca2489d95a8aeb59e288d9b19fae5a549190a250565b3360009081526001602090815260408083206001600160a01b0386168452909152812054828110156107f05760405162461bcd60e51b815260206004820152602560248201527f45524332303a2064656372656173656420616c6c6f77616e63652062656c6f77604482015264207a65726f60d81b60648201526084016104cf565b6107fd3385858403610988565b5060019392505050565b6000610438338484610aac565b3361081d6105d3565b6001600160a01b0316146108435760405162461bcd60e51b81526004016104cf906110c5565b6005805460ff60a01b1916600160a01b1790556040517fe5e5846f783279948f6ec5faad38318cde86fe5be7ea845ede56d62f16c3743490600090a1565b3361088a6105d3565b6001600160a01b0316146108b05760405162461bcd60e51b81526004016104cf906110c5565b6005805460ff60a01b191690556040517f212c6e1d3045c9581ef0adf2504dbb1d137f52f38162ccf77a16c69d14eba5c390600090a1565b336108f16105d3565b6001600160a01b0316146109175760405162461bcd60e51b81526004016104cf906110c5565b6001600160a01b03811661097c5760405162461bcd60e51b815260206004820152602660248201527f4f776e61626c653a206e6577206f776e657220697320746865207a65726f206160448201526564647265737360d01b60648201526084016104cf565b61098581610c74565b50565b6001600160a01b0383166109ea5760405162461bcd60e51b8152602060048201526024808201527f45524332303a20617070726f76652066726f6d20746865207a65726f206164646044820152637265737360e01b60648201526084016104cf565b6001600160a01b038216610a4b5760405162461bcd60e51b815260206004820152602260248201527f45524332303a20617070726f766520746f20746865207a65726f206164647265604482015261737360f01b60648201526084016104cf565b6001600160a01b0383811660008181526001602090815260408083209487168084529482529182902085905590518481527f8c5be1e5ebec7d5bd14f71427d1e84f3dd0314c0f7b2291e5b200ac8c7c3b925910160405180910390a3505050565b6001600160a01b038316610b105760405162461bcd60e51b815260206004820152602560248201527f45524332303a207472616e736665722066726f6d20746865207a65726f206164604482015264647265737360d81b60648201526084016104cf565b6001600160a01b038216610b725760405162461bcd60e51b815260206004820152602360248201527f45524332303a207472616e7366657220746f20746865207a65726f206164647260448201526265737360e81b60648201526084016104cf565b610b7d838383610ee8565b6001600160a01b03831660009081526020819052604090205481811015610bf55760405162461bcd60e51b815260206004820152602660248201527f45524332303a207472616e7366657220616d6f756e7420657863656564732062604482015265616c616e636560d01b60648201526084016104cf565b6001600160a01b03808516600090815260208190526040808220858503905591851681529081208054849290610c2c9084906110fa565b92505081905550826001600160a01b0316846001600160a01b03166000805160206111a183398151915284604051610c6691815260200190565b60405180910390a350505050565b600580546001600160a01b038381166001600160a01b0319831681179093556040519116919082907f8be0079c531659141344cd1fd0a4f28419497f9722a3daafe3b4186f6b6457e090600090a35050565b6001600160a01b038216610d265760405162461bcd60e51b815260206004820152602160248201527f45524332303a206275726e2066726f6d20746865207a65726f206164647265736044820152607360f81b60648201526084016104cf565b610d3282600083610ee8565b6001600160a01b03821660009081526020819052604090205481811015610da65760405162461bcd60e51b815260206004820152602260248201527f45524332303a206275726e20616d6f756e7420657863656564732062616c616e604482015261636560f01b60648201526084016104cf565b6001600160a01b0383166000908152602081905260408120838303905560028054849290610dd5908490611112565b90915550506040518281526000906001600160a01b038516906000805160206111a18339815191529060200160405180910390a35b505050565b6001600160a01b038216610e655760405162461bcd60e51b815260206004820152601f60248201527f45524332303a206d696e7420746f20746865207a65726f20616464726573730060448201526064016104cf565b610e7160008383610ee8565b8060026000828254610e8391906110fa565b90915550506001600160a01b03821660009081526020819052604081208054839290610eb09084906110fa565b90915550506040518181526001600160a01b038316906000906000805160206111a18339815191529060200160405180910390a35050565b600554600160a01b900460ff1615610e0a573360009081526006602052604090205460ff1680610f1f57506001600160a01b038216155b610e0a5760405162461bcd60e51b815260206004820152602660248201527f57686974656c69737461626c653a2061646472657373206e6f742077686974656044820152651b1a5cdd195960d21b60648201526084016104cf565b80356001600160a01b0381168114610f9157600080fd5b919050565b600060208284031215610fa7578081fd5b610fb082610f7a565b9392505050565b60008060408385031215610fc9578081fd5b610fd283610f7a565b9150610fe060208401610f7a565b90509250929050565b600080600060608486031215610ffd578081fd5b61100684610f7a565b925061101460208501610f7a565b9150604084013590509250925092565b60008060408385031215611036578182fd5b61103f83610f7a565b946020939093013593505050565b6000602080835283518082850152825b818110156110795785810183015185820160400152820161105d565b8181111561108a5783604083870101525b50601f01601f1916929092016040019392505050565b6020808252600b908201526a4e4f545f4741544557415960a81b604082015260600190565b6020808252818101527f4f776e61626c653a2063616c6c6572206973206e6f7420746865206f776e6572604082015260600190565b6000821982111561110d5761110d611164565b500190565b60008282101561112457611124611164565b500390565b600181811c9082168061113d57607f821691505b6020821081141561115e57634e487b7160e01b600052602260045260246000fd5b50919050565b634e487b7160e01b600052601160045260246000fdfe57686974656c69737461626c653a206163636f756e742063616e206e6f74206265207a65726fddf252ad1be2c89b69c2b068fc378daa952ba7f163c4a11628f55a4df523b3efa2646970667358221220f37a4aaa6c2a79c098dca5b0a0e5f8f01abc639f6d332589cef33deca750d81d64736f6c6343000804003357686974656c69737461626c653a206163636f756e742063616e206e6f74206265207a65726f",
  "devdoc": {
    "kind": "dev",
    "methods": {
      "allowance(address,address)": {
        "details": "See {IERC20-allowance}."
      },
      "approve(address,uint256)": {
        "details": "See {IERC20-approve}. Requirements: - `spender` cannot be the zero address."
      },
      "balanceOf(address)": {
        "details": "See {IERC20-balanceOf}."
      },
      "decimals()": {
        "details": "Returns the number of decimals used to get its user representation. For example, if `decimals` equals `2`, a balance of `505` tokens should be displayed to a user as `5.05` (`505 / 10 ** 2`). Tokens usually opt for a value of 18, imitating the relationship between Ether and Wei. This is the value {ERC20} uses, unless this function is overridden; NOTE: This information is only used for _display_ purposes: it in no way affects any of the arithmetic of the contract, including {IERC20-balanceOf} and {IERC20-transfer}."
      },
      "decreaseAllowance(address,uint256)": {
        "details": "Atomically decreases the allowance granted to `spender` by the caller. This is an alternative to {approve} that can be used as a mitigation for problems described in {IERC20-approve}. Emits an {Approval} event indicating the updated allowance. Requirements: - `spender` cannot be the zero address. - `spender` must have allowance for the caller of at least `subtractedValue`."
      },
      "increaseAllowance(address,uint256)": {
        "details": "Atomically increases the allowance granted to `spender` by the caller. This is an alternative to {approve} that can be used as a mitigation for problems described in {IERC20-approve}. Emits an {Approval} event indicating the updated allowance. Requirements: - `spender` cannot be the zero address."
      },
      "isWhitelisted(address)": {
        "details": "Checks if account is whitelisted",
        "params": {
          "_account": "The address to check"
        }
      },
      "name()": {
        "details": "Returns the name of the token."
      },
      "owner()": {
        "details": "Returns the address of the current owner."
      },
      "renounceOwnership()": {
        "details": "Leaves the contract without owner. It will not be possible to call `onlyOwner` functions anymore. Can only be called by the current owner. NOTE: Renouncing ownership will leave the contract without an owner, thereby removing any functionality that is only available to the owner."
      },
      "symbol()": {
        "details": "Returns the symbol of the token, usually a shorter version of the name."
      },
      "totalSupply()": {
        "details": "See {IERC20-totalSupply}."
      },
      "transfer(address,uint256)": {
        "details": "See {IERC20-transfer}. Requirements: - `recipient` cannot be the zero address. - the caller must have a balance of at least `amount`."
      },
      "transferFrom(address,address,uint256)": {
        "details": "See {IERC20-transferFrom}. Emits an {Approval} event indicating the updated allowance. This is not required by the EIP. See the note at the beginning of {ERC20}. Requirements: - `sender` and `recipient` cannot be the zero address. - `sender` must have a balance of at least `amount`. - the caller must have allowance for ``sender``'s tokens of at least `amount`."
      },
      "transferOwnership(address)": {
        "details": "Transfers ownership of the contract to a new account (`newOwner`). Can only be called by the current owner."
      },
      "unwhitelist(address)": {
        "details": "Removes account from whitelist",
        "params": {
          "_account": "The address to remove from the whitelist"
        }
      },
      "whitelist(address)": {
        "details": "Adds account to whitelist",
        "params": {
          "_account": "The address to whitelist"
        }
      }
    },
    "stateVariables": {
      "l1Address": {
        "return": "address of layer 1 token",
        "returns": {
          "_0": "address of layer 1 token"
        }
      }
    },
    "version": 1
  },
  "userdoc": {
    "kind": "user",
    "methods": {
      "bridgeBurn(address,uint256)": {
        "notice": "should decrease token supply by amount, and should (probably) only be callable by the L1 bridge."
      },
      "bridgeMint(address,uint256)": {
        "notice": "should increase token supply by amount, and should (probably) only be callable by the L1 bridge."
      },
      "disableWhitelist()": {
        "notice": "disable whitelist and allow transfers for everyone"
      },
      "enableWhitelist()": {
        "notice": "enable whitelist and only allow transfers from whitelisted addresses"
      }
    },
    "version": 1
  },
  "storageLayout": {
    "storage": [
      {
        "astId": 7784,
        "contract": "contracts/token/ArbUnion.sol:ArbUnion",
        "label": "_balances",
        "offset": 0,
        "slot": "0",
        "type": "t_mapping(t_address,t_uint256)"
      },
      {
        "astId": 7790,
        "contract": "contracts/token/ArbUnion.sol:ArbUnion",
        "label": "_allowances",
        "offset": 0,
        "slot": "1",
        "type": "t_mapping(t_address,t_mapping(t_address,t_uint256))"
      },
      {
        "astId": 7792,
        "contract": "contracts/token/ArbUnion.sol:ArbUnion",
        "label": "_totalSupply",
        "offset": 0,
        "slot": "2",
        "type": "t_uint256"
      },
      {
        "astId": 7794,
        "contract": "contracts/token/ArbUnion.sol:ArbUnion",
        "label": "_name",
        "offset": 0,
        "slot": "3",
        "type": "t_string_storage"
      },
      {
        "astId": 7796,
        "contract": "contracts/token/ArbUnion.sol:ArbUnion",
        "label": "_symbol",
        "offset": 0,
        "slot": "4",
        "type": "t_string_storage"
      },
      {
        "astId": 3806,
        "contract": "contracts/token/ArbUnion.sol:ArbUnion",
        "label": "_owner",
        "offset": 0,
        "slot": "5",
        "type": "t_address"
      },
      {
        "astId": 23759,
        "contract": "contracts/token/ArbUnion.sol:ArbUnion",
        "label": "whitelistEnabled",
        "offset": 20,
        "slot": "5",
        "type": "t_bool"
      },
      {
        "astId": 23763,
        "contract": "contracts/token/ArbUnion.sol:ArbUnion",
        "label": "_whitelisted",
        "offset": 0,
        "slot": "6",
        "type": "t_mapping(t_address,t_bool)"
      },
      {
        "astId": 21867,
        "contract": "contracts/token/ArbUnion.sol:ArbUnion",
        "label": "l2Gateway",
        "offset": 0,
        "slot": "7",
        "type": "t_address"
      }
    ],
    "types": {
      "t_address": {
        "encoding": "inplace",
        "label": "address",
        "numberOfBytes": "20"
      },
      "t_bool": {
        "encoding": "inplace",
        "label": "bool",
        "numberOfBytes": "1"
      },
      "t_mapping(t_address,t_bool)": {
        "encoding": "mapping",
        "key": "t_address",
        "label": "mapping(address => bool)",
        "numberOfBytes": "32",
        "value": "t_bool"
      },
      "t_mapping(t_address,t_mapping(t_address,t_uint256))": {
        "encoding": "mapping",
        "key": "t_address",
        "label": "mapping(address => mapping(address => uint256))",
        "numberOfBytes": "32",
        "value": "t_mapping(t_address,t_uint256)"
      },
      "t_mapping(t_address,t_uint256)": {
        "encoding": "mapping",
        "key": "t_address",
        "label": "mapping(address => uint256)",
        "numberOfBytes": "32",
        "value": "t_uint256"
      },
      "t_string_storage": {
        "encoding": "bytes",
        "label": "string",
        "numberOfBytes": "32"
      },
      "t_uint256": {
        "encoding": "inplace",
        "label": "uint256",
        "numberOfBytes": "32"
      }
    }
  }
}