{
  "address": "0xed4FF7e6D62088b5656439d3FC3dFFe279933853",
  "abi": [
    {
      "anonymous": false,
      "inputs": [
        {
          "indexed": false,
          "internalType": "address",
          "name": "previousAdmin",
          "type": "address"
        },
        {
          "indexed": false,
          "internalType": "address",
          "name": "newAdmin",
          "type": "address"
        }
      ],
      "name": "AdminChanged",
      "type": "event"
    },
    {
      "anonymous": false,
      "inputs": [
        {
          "indexed": true,
          "internalType": "address",
          "name": "beacon",
          "type": "address"
        }
      ],
      "name": "BeaconUpgraded",
      "type": "event"
    },
    {
      "anonymous": false,
      "inputs": [
        {
          "indexed": true,
          "internalType": "address",
          "name": "account",
          "type": "address"
        },
        {
          "indexed": false,
          "internalType": "uint256",
          "name": "amount",
          "type": "uint256"
        }
      ],
      "name": "LogWithdrawRewards",
      "type": "event"
    },
    {
      "anonymous": false,
      "inputs": [
        {
          "indexed": false,
          "internalType": "address",
          "name": "account",
          "type": "address"
        }
      ],
      "name": "Paused",
      "type": "event"
    },
    {
      "anonymous": false,
      "inputs": [
        {
          "indexed": true,
          "internalType": "bytes32",
          "name": "role",
          "type": "bytes32"
        },
        {
          "indexed": true,
          "internalType": "bytes32",
          "name": "previousAdminRole",
          "type": "bytes32"
        },
        {
          "indexed": true,
          "internalType": "bytes32",
          "name": "newAdminRole",
          "type": "bytes32"
        }
      ],
      "name": "RoleAdminChanged",
      "type": "event"
    },
    {
      "anonymous": false,
      "inputs": [
        {
          "indexed": true,
          "internalType": "bytes32",
          "name": "role",
          "type": "bytes32"
        },
        {
          "indexed": true,
          "internalType": "address",
          "name": "account",
          "type": "address"
        },
        {
          "indexed": true,
          "internalType": "address",
          "name": "sender",
          "type": "address"
        }
      ],
      "name": "RoleGranted",
      "type": "event"
    },
    {
      "anonymous": false,
      "inputs": [
        {
          "indexed": true,
          "internalType": "bytes32",
          "name": "role",
          "type": "bytes32"
        },
        {
          "indexed": true,
          "internalType": "address",
          "name": "account",
          "type": "address"
        },
        {
          "indexed": true,
          "internalType": "address",
          "name": "sender",
          "type": "address"
        }
      ],
      "name": "RoleRevoked",
      "type": "event"
    },
    {
      "anonymous": false,
      "inputs": [
        {
          "indexed": false,
          "internalType": "address",
          "name": "account",
          "type": "address"
        }
      ],
      "name": "Unpaused",
      "type": "event"
    },
    {
      "anonymous": false,
      "inputs": [
        {
          "indexed": true,
          "internalType": "address",
          "name": "implementation",
          "type": "address"
        }
      ],
      "name": "Upgraded",
      "type": "event"
    },
    {
      "inputs": [],
      "name": "DEFAULT_ADMIN_ROLE",
      "outputs": [
        {
          "internalType": "bytes32",
          "name": "",
          "type": "bytes32"
        }
      ],
      "stateMutability": "view",
      "type": "function"
    },
    {
      "inputs": [],
      "name": "INIT_INFLATION_INDEX",
      "outputs": [
        {
          "internalType": "uint256",
          "name": "",
          "type": "uint256"
        }
      ],
      "stateMutability": "view",
      "type": "function"
    },
    {
      "inputs": [],
      "name": "ROLE_ADMIN",
      "outputs": [
        {
          "internalType": "bytes32",
          "name": "",
          "type": "bytes32"
        }
      ],
      "stateMutability": "view",
      "type": "function"
    },
    {
      "inputs": [
        {
          "internalType": "address",
          "name": "unionToken_",
          "type": "address"
        },
        {
          "internalType": "address",
          "name": "marketRegistry_",
          "type": "address"
        }
      ],
      "name": "__Comptroller_init",
      "outputs": [],
      "stateMutability": "nonpayable",
      "type": "function"
    },
    {
      "inputs": [
        {
          "internalType": "address",
          "name": "admin_",
          "type": "address"
        }
      ],
      "name": "__Controller_init",
      "outputs": [],
      "stateMutability": "nonpayable",
      "type": "function"
    },
    {
      "inputs": [
        {
          "internalType": "address",
          "name": "account",
          "type": "address"
        }
      ],
      "name": "addAdmin",
      "outputs": [],
      "stateMutability": "nonpayable",
      "type": "function"
    },
    {
      "inputs": [
        {
          "internalType": "address",
          "name": "staker",
          "type": "address"
        },
        {
          "internalType": "address",
          "name": "token",
          "type": "address"
        },
        {
          "internalType": "uint256",
          "name": "lockedStake",
          "type": "uint256"
        },
        {
          "internalType": "uint256",
          "name": "lastRepay",
          "type": "uint256"
        }
      ],
      "name": "addFrozenCoinAge",
      "outputs": [],
      "stateMutability": "nonpayable",
      "type": "function"
    },
    {
      "inputs": [
        {
          "internalType": "address",
          "name": "account",
          "type": "address"
        },
        {
          "internalType": "address",
          "name": "token",
          "type": "address"
        }
      ],
      "name": "calculateRewards",
      "outputs": [
        {
          "internalType": "uint256",
          "name": "",
          "type": "uint256"
        }
      ],
      "stateMutability": "view",
      "type": "function"
    },
    {
      "inputs": [
        {
          "internalType": "address",
          "name": "account",
          "type": "address"
        },
        {
          "internalType": "address",
          "name": "token",
          "type": "address"
        },
        {
          "internalType": "uint256",
          "name": "futureBlocks",
          "type": "uint256"
        }
      ],
      "name": "calculateRewardsByBlocks",
      "outputs": [
        {
          "internalType": "uint256",
          "name": "",
          "type": "uint256"
        }
      ],
      "stateMutability": "view",
      "type": "function"
    },
    {
      "inputs": [],
      "name": "gInflationIndex",
      "outputs": [
        {
          "internalType": "uint256",
          "name": "",
          "type": "uint256"
        }
      ],
      "stateMutability": "view",
      "type": "function"
    },
    {
      "inputs": [],
      "name": "gLastUpdatedBlock",
      "outputs": [
        {
          "internalType": "uint256",
          "name": "",
          "type": "uint256"
        }
      ],
      "stateMutability": "view",
      "type": "function"
    },
    {
      "inputs": [
        {
          "internalType": "address",
          "name": "account",
          "type": "address"
        },
        {
          "internalType": "address",
          "name": "token",
          "type": "address"
        }
      ],
      "name": "getRewardsMultiplier",
      "outputs": [
        {
          "internalType": "uint256",
          "name": "",
          "type": "uint256"
        }
      ],
      "stateMutability": "view",
      "type": "function"
    },
    {
      "inputs": [
        {
          "internalType": "bytes32",
          "name": "role",
          "type": "bytes32"
        }
      ],
      "name": "getRoleAdmin",
      "outputs": [
        {
          "internalType": "bytes32",
          "name": "",
          "type": "bytes32"
        }
      ],
      "stateMutability": "view",
      "type": "function"
    },
    {
      "inputs": [
        {
          "internalType": "bytes32",
          "name": "role",
          "type": "bytes32"
        },
        {
          "internalType": "address",
          "name": "account",
          "type": "address"
        }
      ],
      "name": "grantRole",
      "outputs": [],
      "stateMutability": "nonpayable",
      "type": "function"
    },
    {
      "inputs": [],
      "name": "halfDecayPoint",
      "outputs": [
        {
          "internalType": "uint256",
          "name": "",
          "type": "uint256"
        }
      ],
      "stateMutability": "view",
      "type": "function"
    },
    {
      "inputs": [
        {
          "internalType": "bytes32",
          "name": "role",
          "type": "bytes32"
        },
        {
          "internalType": "address",
          "name": "account",
          "type": "address"
        }
      ],
      "name": "hasRole",
      "outputs": [
        {
          "internalType": "bool",
          "name": "",
          "type": "bool"
        }
      ],
      "stateMutability": "view",
      "type": "function"
    },
    {
      "inputs": [
        {
          "internalType": "uint256",
          "name": "effectiveTotalStake",
          "type": "uint256"
        }
      ],
      "name": "inflationPerBlock",
      "outputs": [
        {
          "internalType": "uint256",
          "name": "",
          "type": "uint256"
        }
      ],
      "stateMutability": "view",
      "type": "function"
    },
    {
      "inputs": [
        {
          "internalType": "address",
          "name": "account",
          "type": "address"
        }
      ],
      "name": "isAdmin",
      "outputs": [
        {
          "internalType": "bool",
          "name": "",
          "type": "bool"
        }
      ],
      "stateMutability": "view",
      "type": "function"
    },
    {
      "inputs": [
        {
          "internalType": "uint256",
          "name": "index",
          "type": "uint256"
        }
      ],
      "name": "lookup",
      "outputs": [
        {
          "internalType": "uint256",
          "name": "",
          "type": "uint256"
        }
      ],
      "stateMutability": "pure",
      "type": "function"
    },
    {
      "inputs": [],
      "name": "marketRegistry",
      "outputs": [
        {
          "internalType": "contract IMarketRegistry",
          "name": "",
          "type": "address"
        }
      ],
      "stateMutability": "view",
      "type": "function"
    },
    {
      "inputs": [],
      "name": "memberRatio",
      "outputs": [
        {
          "internalType": "uint256",
          "name": "",
          "type": "uint256"
        }
      ],
      "stateMutability": "view",
      "type": "function"
    },
    {
      "inputs": [],
      "name": "nonMemberRatio",
      "outputs": [
        {
          "internalType": "uint256",
          "name": "",
          "type": "uint256"
        }
      ],
      "stateMutability": "view",
      "type": "function"
    },
    {
      "inputs": [],
      "name": "pause",
      "outputs": [],
      "stateMutability": "nonpayable",
      "type": "function"
    },
    {
      "inputs": [],
      "name": "pauseGuardian",
      "outputs": [
        {
          "internalType": "address",
          "name": "",
          "type": "address"
        }
      ],
      "stateMutability": "view",
      "type": "function"
    },
    {
      "inputs": [],
      "name": "paused",
      "outputs": [
        {
          "internalType": "bool",
          "name": "",
          "type": "bool"
        }
      ],
      "stateMutability": "view",
      "type": "function"
    },
    {
      "inputs": [],
      "name": "renounceAdmin",
      "outputs": [],
      "stateMutability": "nonpayable",
      "type": "function"
    },
    {
      "inputs": [
        {
          "internalType": "bytes32",
          "name": "role",
          "type": "bytes32"
        },
        {
          "internalType": "address",
          "name": "account",
          "type": "address"
        }
      ],
      "name": "renounceRole",
      "outputs": [],
      "stateMutability": "nonpayable",
      "type": "function"
    },
    {
      "inputs": [
        {
          "internalType": "bytes32",
          "name": "role",
          "type": "bytes32"
        },
        {
          "internalType": "address",
          "name": "account",
          "type": "address"
        }
      ],
      "name": "revokeRole",
      "outputs": [],
      "stateMutability": "nonpayable",
      "type": "function"
    },
    {
      "inputs": [
        {
          "internalType": "address",
          "name": "account",
          "type": "address"
        }
      ],
      "name": "setGuardian",
      "outputs": [],
      "stateMutability": "nonpayable",
      "type": "function"
    },
    {
      "inputs": [
        {
          "internalType": "uint256",
          "name": "point",
          "type": "uint256"
        }
      ],
      "name": "setHalfDecayPoint",
      "outputs": [],
      "stateMutability": "nonpayable",
      "type": "function"
    },
    {
      "inputs": [
        {
          "internalType": "bytes4",
          "name": "interfaceId",
          "type": "bytes4"
        }
      ],
      "name": "supportsInterface",
      "outputs": [
        {
          "internalType": "bool",
          "name": "",
          "type": "bool"
        }
      ],
      "stateMutability": "view",
      "type": "function"
    },
    {
      "inputs": [],
      "name": "unionToken",
      "outputs": [
        {
          "internalType": "contract IERC20Upgradeable",
          "name": "",
          "type": "address"
        }
      ],
      "stateMutability": "view",
      "type": "function"
    },
    {
      "inputs": [],
      "name": "unpause",
      "outputs": [],
      "stateMutability": "nonpayable",
      "type": "function"
    },
    {
      "inputs": [
        {
          "internalType": "address",
          "name": "token",
          "type": "address"
        },
        {
          "internalType": "uint256",
          "name": "totalStaked",
          "type": "uint256"
        }
      ],
      "name": "updateTotalStaked",
      "outputs": [
        {
          "internalType": "bool",
          "name": "",
          "type": "bool"
        }
      ],
      "stateMutability": "nonpayable",
      "type": "function"
    },
    {
      "inputs": [
        {
          "internalType": "address",
          "name": "newImplementation",
          "type": "address"
        }
      ],
      "name": "upgradeTo",
      "outputs": [],
      "stateMutability": "nonpayable",
      "type": "function"
    },
    {
      "inputs": [
        {
          "internalType": "address",
          "name": "newImplementation",
          "type": "address"
        },
        {
          "internalType": "bytes",
          "name": "data",
          "type": "bytes"
        }
      ],
      "name": "upgradeToAndCall",
      "outputs": [],
      "stateMutability": "payable",
      "type": "function"
    },
    {
      "inputs": [
        {
          "internalType": "address",
          "name": "",
          "type": "address"
        },
        {
          "internalType": "address",
          "name": "",
          "type": "address"
        }
      ],
      "name": "users",
      "outputs": [
        {
          "internalType": "uint256",
          "name": "frozenCoinAge",
          "type": "uint256"
        },
        {
          "internalType": "uint256",
          "name": "updatedBlock",
          "type": "uint256"
        },
        {
          "internalType": "uint256",
          "name": "inflationIndex",
          "type": "uint256"
        },
        {
          "internalType": "uint256",
          "name": "accrued",
          "type": "uint256"
        }
      ],
      "stateMutability": "view",
      "type": "function"
    },
    {
      "inputs": [
        {
          "internalType": "address",
          "name": "sender",
          "type": "address"
        },
        {
          "internalType": "address",
          "name": "token",
          "type": "address"
        }
      ],
      "name": "withdrawRewards",
      "outputs": [
        {
          "internalType": "uint256",
          "name": "",
          "type": "uint256"
        }
      ],
      "stateMutability": "nonpayable",
      "type": "function"
    }
  ],
  "transactionHash": "0x09e4e39b2ce40e53e42dd360767557550eae25dddd4c61b15ccc0bf0d5fb60de",
  "args": [],
  "solcInputHash": "dc2b0dfb667b258313b5e6ac5e5a477f",
  "bytecode": "0x60a06040523060601b60805234801561001757600080fd5b5060805160601c612ffe61004b60003960008181610ac401528181610b0401528181610c4b0152610c8b0152612ffe6000f3fe6080604052600436106102045760003560e01c8063677e1de711610113578063973e5ad5116100ab578063d391014b1161006f578063d391014b1461063a578063d547741f1461065c578063e20981ca1461067c578063ecb96fe61461069c578063f70222e1146106bd57600080fd5b8063973e5ad5146105d2578063a068b33c146105e9578063a217fddf14610605578063a84afb301461061a578063cf996b60146105e957600080fd5b8063677e1de7146104cc5780636c461a73146104ec578063704802751461050c57806377e90d061461052c5780637f38a81a1461054c5780638456cb59146105685780638a0dac4a1461057d5780638bad0c0a1461059d57806391d14854146105b257600080fd5b80632f2ff15d116101a15780634f1ef286116101655780634f1ef286146103fc578063552563131461040f5780635c975abb1461042f5780635e80536a14610447578063624a169c146104b557600080fd5b80632f2ff15d1461037057806336568abe146103905780633659cfe6146103b05780633f4ba83a146103d057806340a76634146103e557600080fd5b8062c9d5091461020957806301ffc9a71461023c57806304a328831461026c5780630a874df61461028c5780630cc9c970146102ac578063248a9ca3146102ce57806324a3d622146102fe57806324d7806c146103305780632670426014610350575b600080fd5b34801561021557600080fd5b506102296102243660046128f2565b6106de565b6040519081526020015b60405180910390f35b34801561024857600080fd5b5061025c610257366004612b23565b6106f5565b6040519015158152602001610233565b34801561027857600080fd5b50610229610287366004612ae7565b61072a565b34801561029857600080fd5b506102296102a7366004612ae7565b61074e565b3480156102b857600080fd5b506102cc6102c7366004612ae7565b6108be565b005b3480156102da57600080fd5b506102296102e9366004612ae7565b600090815260c9602052604090206001015490565b34801561030a57600080fd5b5060fc546103239061010090046001600160a01b031681565b6040516102339190612bee565b34801561033c57600080fd5b5061025c61034b3660046128d6565b610962565b34801561035c57600080fd5b5061025c61036b366004612a9c565b61097c565b34801561037c57600080fd5b506102cc61038b366004612aff565b610a10565b34801561039c57600080fd5b506102cc6103ab366004612aff565b610a3b565b3480156103bc57600080fd5b506102cc6103cb3660046128d6565b610ab9565b3480156103dc57600080fd5b506102cc610b82565b3480156103f157600080fd5b5061022961012f5481565b6102cc61040a3660046129dd565b610c40565b34801561041b57600080fd5b506102cc61042a366004612998565b610cf6565b34801561043b57600080fd5b5060fc5460ff1661025c565b34801561045357600080fd5b506104956104623660046128f2565b61013460209081526000928352604080842090915290825290208054600182015460028301546003909301549192909184565b604080519485526020850193909352918301526060820152608001610233565b3480156104c157600080fd5b506102296101305481565b3480156104d857600080fd5b506102cc6104e73660046128f2565b610dd3565b3480156104f857600080fd5b506102cc6105073660046128d6565b610e9b565b34801561051857600080fd5b506102cc6105273660046128d6565b610fa6565b34801561053857600080fd5b50610229610547366004612958565b6110b3565b34801561055857600080fd5b50610229670a688906bd8b000081565b34801561057457600080fd5b506102cc611580565b34801561058957600080fd5b506102cc6105983660046128d6565b61160f565b3480156105a957600080fd5b506102cc61166b565b3480156105be57600080fd5b5061025c6105cd366004612aff565b6116a2565b3480156105de57600080fd5b506102296101315481565b3480156105f557600080fd5b50610229670de0b6b3a764000081565b34801561061157600080fd5b50610229600081565b34801561062657600080fd5b506102296106353660046128f2565b6116cd565b34801561064657600080fd5b50610229600080516020612f8283398151915281565b34801561066857600080fd5b506102cc610677366004612aff565b6118f3565b34801561068857600080fd5b506102296106973660046128f2565b611919565b3480156106a857600080fd5b5061013354610323906001600160a01b031681565b3480156106c957600080fd5b5061013254610323906001600160a01b031681565b60006106ec838360006110b3565b90505b92915050565b60006001600160e01b03198216637965db0b60e01b14806106ef57506301ffc9a760e01b6001600160e01b03198316146106ef565b60008061012f548361073c9190612ea3565b90506107478161074e565b9392505050565b60006509184e72a000821161076c5750670de0b6b3a7640000919050565b655af3107a400082116107885750670c7d713b49da0000919050565b66038d7ea4c6800082116107a55750670b1a2bc2ec500000919050565b662386f26fc1000082116107c257506709b6e64a8ec60000919050565b67016345785d8a000082116107e05750670853a0d2313c0000919050565b670de0b6b3a764000082116107fe57506706f05b59d3b20000919050565b674563918244f40000821161081c57506703782dace9d90000919050565b678ac7230489e80000821161083a575067016345785d8a0000919050565b68056bc75e2d6310000082116108585750662386f26fc10000919050565b683635c9adc5dea000008211610876575066038d7ea4c68000919050565b69021e19e0c9bab240000082116108945750655af3107a4000919050565b69152d02c7e14af680000082116108b257506509184e72a000919050565b5064e8d4a51000919050565b6108d6600080516020612f82833981519152336116a2565b6108fb5760405162461bcd60e51b81526004016108f290612ccd565b60405180910390fd5b8061095c5760405162461bcd60e51b815260206004820152602b60248201527f436f6d7074726f6c6c65723a2068616c664465636179506f696e742063616e2060448201526a6e6f74206265207a65726f60a81b60648201526084016108f2565b61012f55565b60006106ef600080516020612f82833981519152836116a2565b60fc5460009060ff16156109a25760405162461bcd60e51b81526004016108f290612e5f565b826109ac81611c66565b6001600160a01b0316336001600160a01b0316146109dc5760405162461bcd60e51b81526004016108f290612d4e565b82156109ff576109fa8361013154436109f59190612ee2565b611ce7565b610130555b4361013155600191505b5092915050565b600082815260c96020526040902060010154610a2c8133611d1a565b610a368383611d7e565b505050565b6001600160a01b0381163314610aab5760405162461bcd60e51b815260206004820152602f60248201527f416363657373436f6e74726f6c3a2063616e206f6e6c792072656e6f756e636560448201526e103937b632b9903337b91039b2b63360891b60648201526084016108f2565b610ab58282611e04565b5050565b306001600160a01b037f0000000000000000000000000000000000000000000000000000000000000000161415610b025760405162461bcd60e51b81526004016108f290612c35565b7f00000000000000000000000000000000000000000000000000000000000000006001600160a01b0316610b34611e6b565b6001600160a01b031614610b5a5760405162461bcd60e51b81526004016108f290612c81565b610b6381611e99565b60408051600080825260208201909252610b7f91839190611ecd565b50565b60fc5461010090046001600160a01b03163314610bb15760405162461bcd60e51b81526004016108f290612cfc565b60fc5460ff16610bfc5760405162461bcd60e51b815260206004820152601660248201527510dbdb9d1c9bdb1b195c8e881b9bdd081c185d5cd95960521b60448201526064016108f2565b60fc805460ff191690556040517f5db9ee0a495bf2e6ff9c91a7834c1ba4fdd244a5e8aa4e537bd38aeae4b073aa90610c36903390612bee565b60405180910390a1565b306001600160a01b037f0000000000000000000000000000000000000000000000000000000000000000161415610c895760405162461bcd60e51b81526004016108f290612c35565b7f00000000000000000000000000000000000000000000000000000000000000006001600160a01b0316610cbb611e6b565b6001600160a01b031614610ce15760405162461bcd60e51b81526004016108f290612c81565b610cea82611e99565b610ab582826001611ecd565b82610d0081611c66565b6001600160a01b0316336001600160a01b031614610d305760405162461bcd60e51b81526004016108f290612d4e565b6001600160a01b038086166000908152610134602090815260408083209388168352929052908120600101549083821115610d7657610d6f8243612ee2565b9050610d83565b610d808443612ee2565b90505b610d8d8186612ec3565b6001600160a01b03808916600090815261013460209081526040808320938b1683529290529081208054909190610dc5908490612e8b565b909155505050505050505050565b600054610100900460ff16610dee5760005460ff1615610df2565b303b155b610e0e5760405162461bcd60e51b81526004016108f290612dc6565b600054610100900460ff16158015610e30576000805461ffff19166101011790555b610e3933610e9b565b61013280546001600160a01b038086166001600160a01b031992831617909255610133805492851692909116919091179055670de0b6b3a76400006101305543610131556207a12061012f558015610a36576000805461ff0019169055505050565b600054610100900460ff16610eb65760005460ff1615610eba565b303b155b610ed65760405162461bcd60e51b81526004016108f290612dc6565b600054610100900460ff16158015610ef8576000805461ffff19166101011790555b6001600160a01b038216610f1e5760405162461bcd60e51b81526004016108f290612d94565b60fc805460ff191690556001600160a01b038216600081815260fb6020526040902080546001600160a01b0319169091179055610f59612014565b610f71600080516020612f828339815191528361204d565b60fc8054610100600160a81b0319166101006001600160a01b038516021790558015610ab5576000805461ff00191690555050565b610fbe600080516020612f82833981519152336116a2565b610fda5760405162461bcd60e51b81526004016108f290612ccd565b6001600160a01b0381166110005760405162461bcd60e51b81526004016108f290612d94565b6001600160a01b03818116600090815260fb602052604090205416156110725760405162461bcd60e51b815260206004820152602160248201527f436f6e74726f6c6c65723a2061646d696e20616c7265616479206578697374656044820152601960fa1b60648201526084016108f2565b6001600160a01b038116600081815260fb6020526040902080546001600160a01b0319169091179055610b7f600080516020612f828339815191528261204d565b6000806110bf84611c66565b6001600160a01b03808716600090815261013460209081526040808320938916835292815282822083516080808201865282548252600183015482850152600283015482870152600390920154606080830191909152855160e081018752858152938401859052948301849052938201839052810182905260a0810182905260c081019190915291925090826001600160a01b0316631e7f87bc6040518163ffffffff1660e01b815260040160206040518083038186803b15801561118357600080fd5b505afa158015611197573d6000803e3d6000fd5b505050506040513d601f19601f820116820180604052508101906111bb9190612b4b565b6020820152604051632640d9db60e01b81526001600160a01b03841690632640d9db906111ec908a90600401612bee565b60206040518083038186803b15801561120457600080fd5b505afa158015611218573d6000803e3d6000fd5b505050506040513d601f19601f8201168201806040525081019061123c9190612b4b565b81526040516306e4c5a760e31b81526001600160a01b038416906337262d389061126a908a90600401612bee565b60206040518083038186803b15801561128257600080fd5b505afa158015611296573d6000803e3d6000fd5b505050506040513d601f19601f820116820180604052508101906112ba9190612b4b565b8160600181815250508060200151836001600160a01b031663817b1cd26040518163ffffffff1660e01b815260040160206040518083038186803b15801561130157600080fd5b505afa158015611315573d6000803e3d6000fd5b505050506040513d601f19601f820116820180604052508101906113399190612b4b565b6113439190612ee2565b60408201819052670de0b6b3a7640000111561136857670de0b6b3a764000060408201525b6020820151438111156113785750435b6000866113858343612ee2565b61138f9190612e8b565b8451604051636eb1fbb160e11b81526001600160a01b038c8116600483015260248201849052929350909187169063dd63f7629060440160206040518083038186803b1580156113de57600080fd5b505afa1580156113f2573d6000803e3d6000fd5b505050506040513d601f19601f820116820180604052508101906114169190612b4b565b6114209190612e8b565b6080840152604051632ba6d6dd60e11b81526001600160a01b0386169063574dadba90611451908c90600401612bee565b60206040518083038186803b15801561146957600080fd5b505afa15801561147d573d6000803e3d6000fd5b505050506040513d601f19601f820116820180604052508101906114a19190612b4b565b60a08401526040516321d2a57360e01b81526001600160a01b038616906321d2a573906114d2908c90600401612bee565b60206040518083038186803b1580156114ea57600080fd5b505afa1580156114fe573d6000803e3d6000fd5b505050506040513d601f19601f820116820180604052508101906115229190612ac7565b151560c08401819052835160a0850151606086015160009361154693929190612057565b90506115638a8a86604001518760000151886080015187876120e4565b85606001516115729190612e8b565b9a9950505050505050505050565b60fc5461010090046001600160a01b031633146115af5760405162461bcd60e51b81526004016108f290612cfc565b60fc5460ff16156115d25760405162461bcd60e51b81526004016108f290612e5f565b60fc805460ff191660011790556040517f62e78cea01bee320cd4e420270b5ea74000d11b0c9f74754ebdbfc544b05a25890610c36903390612bee565b611627600080516020612f82833981519152336116a2565b6116435760405162461bcd60e51b81526004016108f290612ccd565b60fc80546001600160a01b0390921661010002610100600160a81b0319909216919091179055565b611683600080516020612f8283398151915233610a3b565b33600090815260fb6020526040902080546001600160a01b0319169055565b600091825260c9602090815260408084206001600160a01b0393909316845291905290205460ff1690565b6000806116d983611c66565b90506000816001600160a01b0316632640d9db866040518263ffffffff1660e01b81526004016117099190612bee565b60206040518083038186803b15801561172157600080fd5b505afa158015611735573d6000803e3d6000fd5b505050506040513d601f19601f820116820180604052508101906117599190612b4b565b90506000826001600160a01b031663574dadba876040518263ffffffff1660e01b81526004016117899190612bee565b60206040518083038186803b1580156117a157600080fd5b505afa1580156117b5573d6000803e3d6000fd5b505050506040513d601f19601f820116820180604052508101906117d99190612b4b565b90506000836001600160a01b03166337262d38886040518263ffffffff1660e01b81526004016118099190612bee565b60206040518083038186803b15801561182157600080fd5b505afa158015611835573d6000803e3d6000fd5b505050506040513d601f19601f820116820180604052508101906118599190612b4b565b90506000846001600160a01b03166321d2a573896040518263ffffffff1660e01b81526004016118899190612bee565b60206040518083038186803b1580156118a157600080fd5b505afa1580156118b5573d6000803e3d6000fd5b505050506040513d601f19601f820116820180604052508101906118d99190612ac7565b90506118e784848484612057565b98975050505050505050565b600082815260c9602052604090206001015461190f8133611d1a565b610a368383611e04565b60fc5460009060ff161561193f5760405162461bcd60e51b81526004016108f290612e5f565b8161194981611c66565b6001600160a01b0316336001600160a01b0316146119795760405162461bcd60e51b81526004016108f290612d4e565b6000611987858560006110b3565b9050600061199485611c66565b90506000816001600160a01b0316631e7f87bc6040518163ffffffff1660e01b815260040160206040518083038186803b1580156119d157600080fd5b505afa1580156119e5573d6000803e3d6000fd5b505050506040513d601f19601f82011682018060405250810190611a099190612b4b565b826001600160a01b031663817b1cd26040518163ffffffff1660e01b815260040160206040518083038186803b158015611a4257600080fd5b505afa158015611a56573d6000803e3d6000fd5b505050506040513d601f19601f82011682018060405250810190611a7a9190612b4b565b611a849190612ee2565b9050611a998161013154436109f59190612ee2565b610130908155436101318190556001600160a01b038981166000908152610134602090815260408083208c85168452909152808220918255600182019390935592546002909301929092556101325490516370a0823160e01b8152859291909116906370a0823190611b0f903090600401612bee565b60206040518083038186803b158015611b2757600080fd5b505afa158015611b3b573d6000803e3d6000fd5b505050506040513d601f19601f82011682018060405250810190611b5f9190612b4b565b10158015611b6d5750600083115b15611bfa5761013254611b8a906001600160a01b0316888561223e565b6001600160a01b03808816600081815261013460209081526040808320948b1683529390528281206003015590517f9074ae8fe137f8dd6d158c0e5f1d0b3169b04ba4be11a18ec03b9269b8e91a1a90611be79086815260200190565b60405180910390a2829450505050610a09565b6001600160a01b03878116600081815261013460209081526040808320948b168352938152838220600301879055925190815290917f9074ae8fe137f8dd6d158c0e5f1d0b3169b04ba4be11a18ec03b9269b8e91a1a910160405180910390a260009450505050610a09565b6101335460405163e486033960e01b81526000916001600160a01b03169063e486033990611c98908590600401612bee565b604080518083038186803b158015611caf57600080fd5b505afa158015611cc3573d6000803e3d6000fd5b505050506040513d601f19601f82011682018060405250810190610747919061292a565b600082611cfd5750670de0b6b3a76400006106ef565b81611d0c5750610130546106ef565b6106ec836101305484612290565b611d2482826116a2565b610ab557611d3c816001600160a01b031660146122ba565b611d478360206122ba565b604051602001611d58929190612b7f565b60408051601f198184030181529082905262461bcd60e51b82526108f291600401612c02565b611d8882826116a2565b610ab557600082815260c9602090815260408083206001600160a01b03851684529091529020805460ff19166001179055611dc03390565b6001600160a01b0316816001600160a01b0316837f2f8788117e7eff1d82e926ec794901d17c78024a50270940304540a733656f0d60405160405180910390a45050565b611e0e82826116a2565b15610ab557600082815260c9602090815260408083206001600160a01b0385168085529252808320805460ff1916905551339285917ff6391f5c32d9c69d2a47ea670b442974b53935d1edc7fd64eb21e047a839171b9190a45050565b7f360894a13ba1a3210667c828492db98dca3e2076cc3735a920a3ca505d382bbc546001600160a01b031690565b611eb1600080516020612f82833981519152336116a2565b610b7f5760405162461bcd60e51b81526004016108f290612ccd565b6000611ed7611e6b565b9050611ee28461249c565b600083511180611eef5750815b15611f0057611efe8484612541565b505b7f4910fdfa16fed3260ed0e7147f7cc6da11a60208b5b9406d12a635614ffd9143805460ff1661200d57805460ff19166001178155604051611f7b908690611f4c908590602401612bee565b60408051601f198184030181529190526020810180516001600160e01b0316631b2ce7f360e11b179052612541565b50805460ff19168155611f8c611e6b565b6001600160a01b0316826001600160a01b0316146120045760405162461bcd60e51b815260206004820152602f60248201527f45524331393637557067726164653a207570677261646520627265616b73206660448201526e75727468657220757067726164657360881b60648201526084016108f2565b61200d8561262c565b5050505050565b600054610100900460ff1661203b5760405162461bcd60e51b81526004016108f290612e14565b61204361266c565b61204b61266c565b565b610ab58282611d7e565b600081156120d15784158061206c5750838310155b806120775750848310155b1561208b5750670de0b6b3a76400006120dc565b60006120978486612ee2565b905060006120a58588612ee2565b905060006120b38383612693565b90506120c7670de0b6b3a764000082612e8b565b93505050506120dc565b50670a688906bd8b00005b949350505050565b6001600160a01b03808816600090815261013460209081526040808320938a168352929052908120600201548461211b8588612ec3565b10156121695760405162461bcd60e51b815260206004820181905260248201527f436f6d7074726f6c6c65723a2066726f7a656e436f696e416765206572726f7260448201526064016108f2565b851580612174575086155b8061217d575080155b80612186575083155b15612195576000915050612233565b600084866121a3828a612ec3565b6121ad9190612ee2565b6121b79190612ea3565b905060006121c58987611ce7565b9050828110156122175760405162461bcd60e51b815260206004820181905260248201527f436f6d7074726f6c6c65723a696e666c6174696f6e496e646578206572726f7260448201526064016108f2565b61222d8561222784818786612ee2565b906126d2565b93505050505b979650505050505050565b604080516001600160a01b038416602482015260448082018490528251808303909101815260649091019091526020810180516001600160e01b031663a9059cbb60e01b179052610a36908490612704565b6000826122a6856122a08761072a565b90612693565b6122b09084612ec3565b6120dc9190612e8b565b606060006122c9836002612ec3565b6122d4906002612e8b565b67ffffffffffffffff8111156122fa57634e487b7160e01b600052604160045260246000fd5b6040519080825280601f01601f191660200182016040528015612324576020820181803683370190505b509050600360fc1b8160008151811061234d57634e487b7160e01b600052603260045260246000fd5b60200101906001600160f81b031916908160001a905350600f60fb1b8160018151811061238a57634e487b7160e01b600052603260045260246000fd5b60200101906001600160f81b031916908160001a90535060006123ae846002612ec3565b6123b9906001612e8b565b90505b600181111561244d576f181899199a1a9b1b9c1cb0b131b232b360811b85600f16601081106123fb57634e487b7160e01b600052603260045260246000fd5b1a60f81b82828151811061241f57634e487b7160e01b600052603260045260246000fd5b60200101906001600160f81b031916908160001a90535060049490941c9361244681612f29565b90506123bc565b5083156106ec5760405162461bcd60e51b815260206004820181905260248201527f537472696e67733a20686578206c656e67746820696e73756666696369656e7460448201526064016108f2565b803b6125005760405162461bcd60e51b815260206004820152602d60248201527f455243313936373a206e657720696d706c656d656e746174696f6e206973206e60448201526c1bdd08184818dbdb9d1c9858dd609a1b60648201526084016108f2565b7f360894a13ba1a3210667c828492db98dca3e2076cc3735a920a3ca505d382bbc80546001600160a01b0319166001600160a01b0392909216919091179055565b6060823b6125a05760405162461bcd60e51b815260206004820152602660248201527f416464726573733a2064656c65676174652063616c6c20746f206e6f6e2d636f6044820152651b9d1c9858dd60d21b60648201526084016108f2565b600080846001600160a01b0316846040516125bb9190612b63565b600060405180830381855af49150503d80600081146125f6576040519150601f19603f3d011682016040523d82523d6000602084013e6125fb565b606091505b50915091506126238282604051806060016040528060278152602001612fa2602791396127d6565b95945050505050565b6126358161249c565b6040516001600160a01b038216907fbc7cd75a20ee27fd9adebab32041f755214dbc6bffa90cc0225b39da2e5c2d3b90600090a250565b600054610100900460ff1661204b5760405162461bcd60e51b81526004016108f290612e14565b60006126a0826002612ec3565b670de0b6b3a76400006126b4856002612ec3565b6126be9190612ec3565b6126c89084612e8b565b6106ec9190612ea3565b6000670de0b6b3a76400006126e78385612ec3565b6126fa6002670de0b6b3a7640000612ea3565b6126c89190612e8b565b6000612759826040518060400160405280602081526020017f5361666545524332303a206c6f772d6c6576656c2063616c6c206661696c6564815250856001600160a01b031661280f9092919063ffffffff16565b805190915015610a3657808060200190518101906127779190612ac7565b610a365760405162461bcd60e51b815260206004820152602a60248201527f5361666545524332303a204552433230206f7065726174696f6e20646964206e6044820152691bdd081cdd58d8d9595960b21b60648201526084016108f2565b606083156127e5575081610747565b8251156127f55782518084602001fd5b8160405162461bcd60e51b81526004016108f29190612c02565b60606120dc848460008585843b6128685760405162461bcd60e51b815260206004820152601d60248201527f416464726573733a2063616c6c20746f206e6f6e2d636f6e747261637400000060448201526064016108f2565b600080866001600160a01b031685876040516128849190612b63565b60006040518083038185875af1925050503d80600081146128c1576040519150601f19603f3d011682016040523d82523d6000602084013e6128c6565b606091505b50915091506122338282866127d6565b6000602082840312156128e7578081fd5b81356106ec81612f6c565b60008060408385031215612904578081fd5b823561290f81612f6c565b9150602083013561291f81612f6c565b809150509250929050565b6000806040838503121561293c578182fd5b825161294781612f6c565b602084015190925061291f81612f6c565b60008060006060848603121561296c578081fd5b833561297781612f6c565b9250602084013561298781612f6c565b929592945050506040919091013590565b600080600080608085870312156129ad578081fd5b84356129b881612f6c565b935060208501356129c881612f6c565b93969395505050506040820135916060013590565b600080604083850312156129ef578182fd5b82356129fa81612f6c565b9150602083013567ffffffffffffffff80821115612a16578283fd5b818501915085601f830112612a29578283fd5b813581811115612a3b57612a3b612f56565b604051601f8201601f19908116603f01168101908382118183101715612a6357612a63612f56565b81604052828152886020848701011115612a7b578586fd5b82602086016020830137856020848301015280955050505050509250929050565b60008060408385031215612aae578182fd5b8235612ab981612f6c565b946020939093013593505050565b600060208284031215612ad8578081fd5b815180151581146106ec578182fd5b600060208284031215612af8578081fd5b5035919050565b60008060408385031215612b11578182fd5b82359150602083013561291f81612f6c565b600060208284031215612b34578081fd5b81356001600160e01b0319811681146106ec578182fd5b600060208284031215612b5c578081fd5b5051919050565b60008251612b75818460208701612ef9565b9190910192915050565b76020b1b1b2b9b9a1b7b73a3937b61d1030b1b1b7bab73a1604d1b815260008351612bb1816017850160208801612ef9565b7001034b99036b4b9b9b4b733903937b6329607d1b6017918401918201528351612be2816028840160208801612ef9565b01602801949350505050565b6001600160a01b0391909116815260200190565b6020815260008251806020840152612c21816040850160208701612ef9565b601f01601f19169190910160400192915050565b6020808252602c908201527f46756e6374696f6e206d7573742062652063616c6c6564207468726f7567682060408201526b19195b1959d85d1958d85b1b60a21b606082015260800190565b6020808252602c908201527f46756e6374696f6e206d7573742062652063616c6c6564207468726f7567682060408201526b6163746976652070726f787960a01b606082015260800190565b60208082526015908201527421b7b73a3937b63632b91d103737ba1030b236b4b760591b604082015260600190565b60208082526032908201527f436f6e74726f6c6c65723a2063616c6c657220646f6573206e6f7420686176656040820152712074686520677561726469616e20726f6c6560701b606082015260800190565b60208082526026908201527f556e696f6e546f6b656e3a206f6e6c792075736572206d616e616765722063616040820152651b8818d85b1b60d21b606082015260800190565b602080825260189082015277436f6e74726f6c6c65723a2061646472657373207a65726f60401b604082015260600190565b6020808252602e908201527f496e697469616c697a61626c653a20636f6e747261637420697320616c72656160408201526d191e481a5b9a5d1a585b1a5e995960921b606082015260800190565b6020808252602b908201527f496e697469616c697a61626c653a20636f6e7472616374206973206e6f74206960408201526a6e697469616c697a696e6760a81b606082015260800190565b60208082526012908201527110dbdb9d1c9bdb1b195c8e881c185d5cd95960721b604082015260600190565b60008219821115612e9e57612e9e612f40565b500190565b600082612ebe57634e487b7160e01b81526012600452602481fd5b500490565b6000816000190483118215151615612edd57612edd612f40565b500290565b600082821015612ef457612ef4612f40565b500390565b60005b83811015612f14578181015183820152602001612efc565b83811115612f23576000848401525b50505050565b600081612f3857612f38612f40565b506000190190565b634e487b7160e01b600052601160045260246000fd5b634e487b7160e01b600052604160045260246000fd5b6001600160a01b0381168114610b7f57600080fdfe2172861495e7b85edac73e3cd5fbb42dd675baadf627720e687bcfdaca025096416464726573733a206c6f772d6c6576656c2064656c65676174652063616c6c206661696c6564a2646970667358221220e5378324f7639dbc2f0d947484774d735470bc02570c751fa1b604a0a458088464736f6c63430008040033",
  "devdoc": {
    "events": {
      "LogWithdrawRewards(address,uint256)": {
        "details": "Withdraw rewards event",
        "params": {
          "account": "The staker's address",
          "amount": "The amount of Union tokens to withdraw"
        }
      }
    },
    "kind": "dev",
    "methods": {
      "addAdmin(address)": {
        "details": "Add a new admin account",
        "params": {
          "account": "Account address"
        }
      },
      "calculateRewards(address,address)": {
        "details": "Calculate currently unclaimed rewards",
        "params": {
          "account": "Account address",
          "token": "Staking token address"
        },
        "returns": {
          "_0": "Unclaimed rewards"
        }
      },
      "calculateRewardsByBlocks(address,address,uint256)": {
        "details": "Calculate unclaimed rewards based on blocks",
        "params": {
          "account": "User address",
          "futureBlocks": "Number of blocks in the future",
          "token": "Staking token address"
        },
        "returns": {
          "_0": "Unclaimed rewards"
        }
      },
      "getRewardsMultiplier(address,address)": {
        "details": "Get the reward multipier based on the account status",
        "params": {
          "account": "Account address",
          "token": "ERC20 token address"
        },
        "returns": {
          "_0": "Multiplier number (in wei)"
        }
      },
      "getRoleAdmin(bytes32)": {
        "details": "Returns the admin role that controls `role`. See {grantRole} and {revokeRole}. To change a role's admin, use {_setRoleAdmin}."
      },
      "grantRole(bytes32,address)": {
        "details": "Grants `role` to `account`. If `account` had not been already granted `role`, emits a {RoleGranted} event. Requirements: - the caller must have ``role``'s admin role."
      },
      "hasRole(bytes32,address)": {
        "details": "Returns `true` if `account` has been granted `role`."
      },
      "inflationPerBlock(uint256)": {
        "details": "Calculate inflation per block",
        "params": {
          "effectiveTotalStake": "Effective total stake"
        },
        "returns": {
          "_0": "Inflation amount, div totalSupply is the inflation rate"
        }
      },
      "isAdmin(address)": {
        "details": "Check if the address provided is the admin",
        "params": {
          "account": "Account address"
        }
      },
      "pause()": {
        "details": "Called by a pauser to pause, triggers stopped state."
      },
      "paused()": {
        "details": "Returns true if the contract is paused, and false otherwise."
      },
      "renounceAdmin()": {
        "details": "Renouce the admin from the sender's address"
      },
      "renounceRole(bytes32,address)": {
        "details": "Revokes `role` from the calling account. Roles are often managed via {grantRole} and {revokeRole}: this function's purpose is to provide a mechanism for accounts to lose their privileges if they are compromised (such as when a trusted device is misplaced). If the calling account had been revoked `role`, emits a {RoleRevoked} event. Requirements: - the caller must be `account`."
      },
      "revokeRole(bytes32,address)": {
        "details": "Revokes `role` from `account`. If `account` had been granted `role`, emits a {RoleRevoked} event. Requirements: - the caller must have ``role``'s admin role."
      },
      "setGuardian(address)": {
        "details": "Set pauseGuardian account",
        "params": {
          "account": "Account address"
        }
      },
      "supportsInterface(bytes4)": {
        "details": "See {IERC165-supportsInterface}."
      },
      "unpause()": {
        "details": "Called by a pauser to unpause, returns to normal state."
      },
      "updateTotalStaked(address,uint256)": {
        "details": "When total staked change update inflation index",
        "params": {
          "totalStaked": "totalStaked amount"
        },
        "returns": {
          "_0": "Whether succeeded"
        }
      },
      "upgradeTo(address)": {
        "details": "Upgrade the implementation of the proxy to `newImplementation`. Calls {_authorizeUpgrade}. Emits an {Upgraded} event."
      },
      "upgradeToAndCall(address,bytes)": {
        "details": "Upgrade the implementation of the proxy to `newImplementation`, and subsequently execute the function call encoded in `data`. Calls {_authorizeUpgrade}. Emits an {Upgraded} event."
      },
      "withdrawRewards(address,address)": {
        "details": "Withdraw rewards",
        "params": {
          "token": "Staking token address"
        },
        "returns": {
          "_0": "Amount of rewards"
        }
      }
    },
    "version": 1
  },
  "userdoc": {
    "kind": "user",
    "methods": {},
    "version": 1
  },
  "storageLayout": {
    "storage": [
      {
        "astId": 824,
        "contract": "contracts/token/Comptroller.sol:Comptroller",
        "label": "_initialized",
        "offset": 0,
        "slot": "0",
        "type": "t_bool"
      },
      {
        "astId": 827,
        "contract": "contracts/token/Comptroller.sol:Comptroller",
        "label": "_initializing",
        "offset": 1,
        "slot": "0",
        "type": "t_bool"
      },
      {
        "astId": 806,
        "contract": "contracts/token/Comptroller.sol:Comptroller",
        "label": "__gap",
        "offset": 0,
        "slot": "1",
        "type": "t_array(t_uint256)50_storage"
      },
      {
        "astId": 1001,
        "contract": "contracts/token/Comptroller.sol:Comptroller",
        "label": "__gap",
        "offset": 0,
        "slot": "51",
        "type": "t_array(t_uint256)50_storage"
      },
      {
        "astId": 2481,
        "contract": "contracts/token/Comptroller.sol:Comptroller",
        "label": "__gap",
        "offset": 0,
        "slot": "101",
        "type": "t_array(t_uint256)50_storage"
      },
      {
        "astId": 3403,
        "contract": "contracts/token/Comptroller.sol:Comptroller",
        "label": "__gap",
        "offset": 0,
        "slot": "151",
        "type": "t_array(t_uint256)50_storage"
      },
      {
        "astId": 48,
        "contract": "contracts/token/Comptroller.sol:Comptroller",
        "label": "_roles",
        "offset": 0,
        "slot": "201",
        "type": "t_mapping(t_bytes32,t_struct(RoleData)43_storage)"
      },
      {
        "astId": 335,
        "contract": "contracts/token/Comptroller.sol:Comptroller",
        "label": "__gap",
        "offset": 0,
        "slot": "202",
        "type": "t_array(t_uint256)49_storage"
      },
      {
        "astId": 12161,
        "contract": "contracts/token/Comptroller.sol:Comptroller",
        "label": "_admins",
        "offset": 0,
        "slot": "251",
        "type": "t_mapping(t_address,t_address)"
      },
      {
        "astId": 12163,
        "contract": "contracts/token/Comptroller.sol:Comptroller",
        "label": "_paused",
        "offset": 0,
        "slot": "252",
        "type": "t_bool"
      },
      {
        "astId": 12165,
        "contract": "contracts/token/Comptroller.sol:Comptroller",
        "label": "pauseGuardian",
        "offset": 1,
        "slot": "252",
        "type": "t_address"
      },
      {
        "astId": 12405,
        "contract": "contracts/token/Comptroller.sol:Comptroller",
        "label": "______gap",
        "offset": 0,
        "slot": "253",
        "type": "t_array(t_uint256)50_storage"
      },
      {
        "astId": 22365,
        "contract": "contracts/token/Comptroller.sol:Comptroller",
        "label": "halfDecayPoint",
        "offset": 0,
        "slot": "303",
        "type": "t_uint256"
      },
      {
        "astId": 22367,
        "contract": "contracts/token/Comptroller.sol:Comptroller",
        "label": "gInflationIndex",
        "offset": 0,
        "slot": "304",
        "type": "t_uint256"
      },
      {
        "astId": 22369,
        "contract": "contracts/token/Comptroller.sol:Comptroller",
        "label": "gLastUpdatedBlock",
        "offset": 0,
        "slot": "305",
        "type": "t_uint256"
      },
      {
        "astId": 22372,
        "contract": "contracts/token/Comptroller.sol:Comptroller",
        "label": "unionToken",
        "offset": 0,
        "slot": "306",
        "type": "t_contract(IERC20Upgradeable)1711"
      },
      {
        "astId": 22375,
        "contract": "contracts/token/Comptroller.sol:Comptroller",
        "label": "marketRegistry",
        "offset": 0,
        "slot": "307",
        "type": "t_contract(IMarketRegistry)16761"
      },
      {
        "astId": 22382,
        "contract": "contracts/token/Comptroller.sol:Comptroller",
        "label": "users",
        "offset": 0,
        "slot": "308",
        "type": "t_mapping(t_address,t_mapping(t_address,t_struct(Info)22331_storage))"
      }
    ],
    "types": {
      "t_address": {
        "encoding": "inplace",
        "label": "address",
        "numberOfBytes": "20"
      },
      "t_array(t_uint256)49_storage": {
        "base": "t_uint256",
        "encoding": "inplace",
        "label": "uint256[49]",
        "numberOfBytes": "1568"
      },
      "t_array(t_uint256)50_storage": {
        "base": "t_uint256",
        "encoding": "inplace",
        "label": "uint256[50]",
        "numberOfBytes": "1600"
      },
      "t_bool": {
        "encoding": "inplace",
        "label": "bool",
        "numberOfBytes": "1"
      },
      "t_bytes32": {
        "encoding": "inplace",
        "label": "bytes32",
        "numberOfBytes": "32"
      },
      "t_contract(IERC20Upgradeable)1711": {
        "encoding": "inplace",
        "label": "contract IERC20Upgradeable",
        "numberOfBytes": "20"
      },
      "t_contract(IMarketRegistry)16761": {
        "encoding": "inplace",
        "label": "contract IMarketRegistry",
        "numberOfBytes": "20"
      },
      "t_mapping(t_address,t_address)": {
        "encoding": "mapping",
        "key": "t_address",
        "label": "mapping(address => address)",
        "numberOfBytes": "32",
        "value": "t_address"
      },
      "t_mapping(t_address,t_bool)": {
        "encoding": "mapping",
        "key": "t_address",
        "label": "mapping(address => bool)",
        "numberOfBytes": "32",
        "value": "t_bool"
      },
      "t_mapping(t_address,t_mapping(t_address,t_struct(Info)22331_storage))": {
        "encoding": "mapping",
        "key": "t_address",
        "label": "mapping(address => mapping(address => struct Comptroller.Info))",
        "numberOfBytes": "32",
        "value": "t_mapping(t_address,t_struct(Info)22331_storage)"
      },
      "t_mapping(t_address,t_struct(Info)22331_storage)": {
        "encoding": "mapping",
        "key": "t_address",
        "label": "mapping(address => struct Comptroller.Info)",
        "numberOfBytes": "32",
        "value": "t_struct(Info)22331_storage"
      },
      "t_mapping(t_bytes32,t_struct(RoleData)43_storage)": {
        "encoding": "mapping",
        "key": "t_bytes32",
        "label": "mapping(bytes32 => struct AccessControlUpgradeable.RoleData)",
        "numberOfBytes": "32",
        "value": "t_struct(RoleData)43_storage"
      },
      "t_struct(Info)22331_storage": {
        "encoding": "inplace",
        "label": "struct Comptroller.Info",
        "members": [
          {
            "astId": 22324,
            "contract": "contracts/token/Comptroller.sol:Comptroller",
            "label": "frozenCoinAge",
            "offset": 0,
            "slot": "0",
            "type": "t_uint256"
          },
          {
            "astId": 22326,
            "contract": "contracts/token/Comptroller.sol:Comptroller",
            "label": "updatedBlock",
            "offset": 0,
            "slot": "1",
            "type": "t_uint256"
          },
          {
            "astId": 22328,
            "contract": "contracts/token/Comptroller.sol:Comptroller",
            "label": "inflationIndex",
            "offset": 0,
            "slot": "2",
            "type": "t_uint256"
          },
          {
            "astId": 22330,
            "contract": "contracts/token/Comptroller.sol:Comptroller",
            "label": "accrued",
            "offset": 0,
            "slot": "3",
            "type": "t_uint256"
          }
        ],
        "numberOfBytes": "128"
      },
      "t_struct(RoleData)43_storage": {
        "encoding": "inplace",
        "label": "struct AccessControlUpgradeable.RoleData",
        "members": [
          {
            "astId": 40,
            "contract": "contracts/token/Comptroller.sol:Comptroller",
            "label": "members",
            "offset": 0,
            "slot": "0",
            "type": "t_mapping(t_address,t_bool)"
          },
          {
            "astId": 42,
            "contract": "contracts/token/Comptroller.sol:Comptroller",
            "label": "adminRole",
            "offset": 0,
            "slot": "1",
            "type": "t_bytes32"
          }
        ],
        "numberOfBytes": "64"
      },
      "t_uint256": {
        "encoding": "inplace",
        "label": "uint256",
        "numberOfBytes": "32"
      }
    }
  }
}