{
  "address": "0x71c103E1e4fD29f737D36a6bD8149d73EA573d18",
  "abi": [
    {
      "anonymous": false,
      "inputs": [
        {
          "indexed": false,
          "internalType": "address",
          "name": "previousAdmin",
          "type": "address"
        },
        {
          "indexed": false,
          "internalType": "address",
          "name": "newAdmin",
          "type": "address"
        }
      ],
      "name": "AdminChanged",
      "type": "event"
    },
    {
      "anonymous": false,
      "inputs": [
        {
          "indexed": true,
          "internalType": "address",
          "name": "beacon",
          "type": "address"
        }
      ],
      "name": "BeaconUpgraded",
      "type": "event"
    },
    {
      "anonymous": false,
      "inputs": [
        {
          "indexed": true,
          "internalType": "address",
          "name": "tokenAddress",
          "type": "address"
        },
        {
          "indexed": false,
          "internalType": "address",
          "name": "contractAddress",
          "type": "address"
        }
      ],
      "name": "LogAddUToken",
      "type": "event"
    },
    {
      "anonymous": false,
      "inputs": [
        {
          "indexed": true,
          "internalType": "address",
          "name": "tokenAddress",
          "type": "address"
        },
        {
          "indexed": false,
          "internalType": "address",
          "name": "contractAddress",
          "type": "address"
        }
      ],
      "name": "LogAddUserManager",
      "type": "event"
    },
    {
      "anonymous": false,
      "inputs": [
        {
          "indexed": false,
          "internalType": "address",
          "name": "account",
          "type": "address"
        }
      ],
      "name": "Paused",
      "type": "event"
    },
    {
      "anonymous": false,
      "inputs": [
        {
          "indexed": true,
          "internalType": "bytes32",
          "name": "role",
          "type": "bytes32"
        },
        {
          "indexed": true,
          "internalType": "bytes32",
          "name": "previousAdminRole",
          "type": "bytes32"
        },
        {
          "indexed": true,
          "internalType": "bytes32",
          "name": "newAdminRole",
          "type": "bytes32"
        }
      ],
      "name": "RoleAdminChanged",
      "type": "event"
    },
    {
      "anonymous": false,
      "inputs": [
        {
          "indexed": true,
          "internalType": "bytes32",
          "name": "role",
          "type": "bytes32"
        },
        {
          "indexed": true,
          "internalType": "address",
          "name": "account",
          "type": "address"
        },
        {
          "indexed": true,
          "internalType": "address",
          "name": "sender",
          "type": "address"
        }
      ],
      "name": "RoleGranted",
      "type": "event"
    },
    {
      "anonymous": false,
      "inputs": [
        {
          "indexed": true,
          "internalType": "bytes32",
          "name": "role",
          "type": "bytes32"
        },
        {
          "indexed": true,
          "internalType": "address",
          "name": "account",
          "type": "address"
        },
        {
          "indexed": true,
          "internalType": "address",
          "name": "sender",
          "type": "address"
        }
      ],
      "name": "RoleRevoked",
      "type": "event"
    },
    {
      "anonymous": false,
      "inputs": [
        {
          "indexed": false,
          "internalType": "address",
          "name": "account",
          "type": "address"
        }
      ],
      "name": "Unpaused",
      "type": "event"
    },
    {
      "anonymous": false,
      "inputs": [
        {
          "indexed": true,
          "internalType": "address",
          "name": "implementation",
          "type": "address"
        }
      ],
      "name": "Upgraded",
      "type": "event"
    },
    {
      "inputs": [],
      "name": "DEFAULT_ADMIN_ROLE",
      "outputs": [
        {
          "internalType": "bytes32",
          "name": "",
          "type": "bytes32"
        }
      ],
      "stateMutability": "view",
      "type": "function"
    },
    {
      "inputs": [],
      "name": "ROLE_ADMIN",
      "outputs": [
        {
          "internalType": "bytes32",
          "name": "",
          "type": "bytes32"
        }
      ],
      "stateMutability": "view",
      "type": "function"
    },
    {
      "inputs": [
        {
          "internalType": "address",
          "name": "admin_",
          "type": "address"
        }
      ],
      "name": "__Controller_init",
      "outputs": [],
      "stateMutability": "nonpayable",
      "type": "function"
    },
    {
      "inputs": [],
      "name": "__MarketRegistry_init",
      "outputs": [],
      "stateMutability": "nonpayable",
      "type": "function"
    },
    {
      "inputs": [
        {
          "internalType": "address",
          "name": "account",
          "type": "address"
        }
      ],
      "name": "addAdmin",
      "outputs": [],
      "stateMutability": "nonpayable",
      "type": "function"
    },
    {
      "inputs": [
        {
          "internalType": "address",
          "name": "token",
          "type": "address"
        },
        {
          "internalType": "address",
          "name": "uToken",
          "type": "address"
        }
      ],
      "name": "addUToken",
      "outputs": [],
      "stateMutability": "nonpayable",
      "type": "function"
    },
    {
      "inputs": [
        {
          "internalType": "address",
          "name": "token",
          "type": "address"
        },
        {
          "internalType": "address",
          "name": "userManager",
          "type": "address"
        }
      ],
      "name": "addUserManager",
      "outputs": [],
      "stateMutability": "nonpayable",
      "type": "function"
    },
    {
      "inputs": [
        {
          "internalType": "address",
          "name": "token",
          "type": "address"
        }
      ],
      "name": "deleteMarket",
      "outputs": [],
      "stateMutability": "nonpayable",
      "type": "function"
    },
    {
      "inputs": [
        {
          "internalType": "bytes32",
          "name": "role",
          "type": "bytes32"
        }
      ],
      "name": "getRoleAdmin",
      "outputs": [
        {
          "internalType": "bytes32",
          "name": "",
          "type": "bytes32"
        }
      ],
      "stateMutability": "view",
      "type": "function"
    },
    {
      "inputs": [],
      "name": "getUTokens",
      "outputs": [
        {
          "internalType": "address[]",
          "name": "",
          "type": "address[]"
        }
      ],
      "stateMutability": "view",
      "type": "function"
    },
    {
      "inputs": [],
      "name": "getUserManagers",
      "outputs": [
        {
          "internalType": "address[]",
          "name": "",
          "type": "address[]"
        }
      ],
      "stateMutability": "view",
      "type": "function"
    },
    {
      "inputs": [
        {
          "internalType": "bytes32",
          "name": "role",
          "type": "bytes32"
        },
        {
          "internalType": "address",
          "name": "account",
          "type": "address"
        }
      ],
      "name": "grantRole",
      "outputs": [],
      "stateMutability": "nonpayable",
      "type": "function"
    },
    {
      "inputs": [
        {
          "internalType": "bytes32",
          "name": "role",
          "type": "bytes32"
        },
        {
          "internalType": "address",
          "name": "account",
          "type": "address"
        }
      ],
      "name": "hasRole",
      "outputs": [
        {
          "internalType": "bool",
          "name": "",
          "type": "bool"
        }
      ],
      "stateMutability": "view",
      "type": "function"
    },
    {
      "inputs": [
        {
          "internalType": "address",
          "name": "account",
          "type": "address"
        }
      ],
      "name": "isAdmin",
      "outputs": [
        {
          "internalType": "bool",
          "name": "",
          "type": "bool"
        }
      ],
      "stateMutability": "view",
      "type": "function"
    },
    {
      "inputs": [],
      "name": "pause",
      "outputs": [],
      "stateMutability": "nonpayable",
      "type": "function"
    },
    {
      "inputs": [],
      "name": "pauseGuardian",
      "outputs": [
        {
          "internalType": "address",
          "name": "",
          "type": "address"
        }
      ],
      "stateMutability": "view",
      "type": "function"
    },
    {
      "inputs": [],
      "name": "paused",
      "outputs": [
        {
          "internalType": "bool",
          "name": "",
          "type": "bool"
        }
      ],
      "stateMutability": "view",
      "type": "function"
    },
    {
      "inputs": [],
      "name": "renounceAdmin",
      "outputs": [],
      "stateMutability": "nonpayable",
      "type": "function"
    },
    {
      "inputs": [
        {
          "internalType": "bytes32",
          "name": "role",
          "type": "bytes32"
        },
        {
          "internalType": "address",
          "name": "account",
          "type": "address"
        }
      ],
      "name": "renounceRole",
      "outputs": [],
      "stateMutability": "nonpayable",
      "type": "function"
    },
    {
      "inputs": [
        {
          "internalType": "bytes32",
          "name": "role",
          "type": "bytes32"
        },
        {
          "internalType": "address",
          "name": "account",
          "type": "address"
        }
      ],
      "name": "revokeRole",
      "outputs": [],
      "stateMutability": "nonpayable",
      "type": "function"
    },
    {
      "inputs": [
        {
          "internalType": "address",
          "name": "account",
          "type": "address"
        }
      ],
      "name": "setGuardian",
      "outputs": [],
      "stateMutability": "nonpayable",
      "type": "function"
    },
    {
      "inputs": [
        {
          "internalType": "bytes4",
          "name": "interfaceId",
          "type": "bytes4"
        }
      ],
      "name": "supportsInterface",
      "outputs": [
        {
          "internalType": "bool",
          "name": "",
          "type": "bool"
        }
      ],
      "stateMutability": "view",
      "type": "function"
    },
    {
      "inputs": [
        {
          "internalType": "address",
          "name": "",
          "type": "address"
        }
      ],
      "name": "tokens",
      "outputs": [
        {
          "internalType": "address",
          "name": "uToken",
          "type": "address"
        },
        {
          "internalType": "address",
          "name": "userManager",
          "type": "address"
        }
      ],
      "stateMutability": "view",
      "type": "function"
    },
    {
      "inputs": [],
      "name": "unpause",
      "outputs": [],
      "stateMutability": "nonpayable",
      "type": "function"
    },
    {
      "inputs": [
        {
          "internalType": "address",
          "name": "newImplementation",
          "type": "address"
        }
      ],
      "name": "upgradeTo",
      "outputs": [],
      "stateMutability": "nonpayable",
      "type": "function"
    },
    {
      "inputs": [
        {
          "internalType": "address",
          "name": "newImplementation",
          "type": "address"
        },
        {
          "internalType": "bytes",
          "name": "data",
          "type": "bytes"
        }
      ],
      "name": "upgradeToAndCall",
      "outputs": [],
      "stateMutability": "payable",
      "type": "function"
    }
  ],
  "transactionHash": "0xcbf230de82337972f90c00e207813ea66772b2b04444c2bdfdf9ce25149a0aaf",
  "args": [],
  "solcInputHash": "6c6acfc1ad00e71c15f11bd55ffab942",
  "bytecode": "0x60a06040523060601b60805234801561001757600080fd5b5060805160601c611fac61004b60003960008181610605015281816106450152818161078c01526107cc0152611fac6000f3fe6080604052600436106101615760003560e01c80636c461a73116100c15780639c93ff011161007a5780639c93ff01146103ce578063a217fddf146103e3578063cdbffbf8146103f8578063d391014b14610418578063d547741f1461043a578063d960e94a1461045a578063e48603391461047a57600080fd5b80636c461a731461032457806370480275146103445780638456cb59146103645780638a0dac4a146103795780638bad0c0a1461039957806391d14854146103ae57600080fd5b80632f2ff15d1161011e5780632f2ff15d1461026257806336568abe146102845780633659cfe6146102a45780633f4ba83a146102c45780634f1ef286146102d9578063561b08da146102ec5780635c975abb1461030c57600080fd5b806301ffc9a71461016657806314833a3b1461019b578063248a9ca3146101bd57806324a3d622146101fb57806324d7806c1461022d578063292252881461024d575b600080fd5b34801561017257600080fd5b50610186610181366004611b43565b6104dc565b60405190151581526020015b60405180910390f35b3480156101a757600080fd5b506101b0610513565b6040516101929190611c0a565b3480156101c957600080fd5b506101ed6101d8366004611b09565b600090815260c9602052604090206001015490565b604051908152602001610192565b34801561020757600080fd5b5060fc546102209061010090046001600160a01b031681565b6040516101929190611bf6565b34801561023957600080fd5b50610186610248366004611a00565b610525565b34801561025957600080fd5b506101b061053f565b34801561026e57600080fd5b5061028261027d366004611b21565b61054c565b005b34801561029057600080fd5b5061028261029f366004611b21565b610577565b3480156102b057600080fd5b506102826102bf366004611a00565b6105fa565b3480156102d057600080fd5b506102826106c3565b6102826102e7366004611a4c565b610781565b3480156102f857600080fd5b50610282610307366004611a1a565b610837565b34801561031857600080fd5b5060fc5460ff16610186565b34801561033057600080fd5b5061028261033f366004611a00565b6109fc565b34801561035057600080fd5b5061028261035f366004611a00565b610b07565b34801561037057600080fd5b50610282610c14565b34801561038557600080fd5b50610282610394366004611a00565b610cc8565b3480156103a557600080fd5b50610282610d24565b3480156103ba57600080fd5b506101866103c9366004611b21565b610d5b565b3480156103da57600080fd5b50610282610d86565b3480156103ef57600080fd5b506101ed600081565b34801561040457600080fd5b50610282610413366004611a1a565b610e00565b34801561042457600080fd5b506101ed600080516020611f3083398151915281565b34801561044657600080fd5b50610282610455366004611b21565b610fa8565b34801561046657600080fd5b50610282610475366004611a00565b610fce565b34801561048657600080fd5b506104bc610495366004611a00565b61013360205260009081526040902080546001909101546001600160a01b03918216911682565b604080516001600160a01b03938416815292909116602083015201610192565b60006001600160e01b03198216637965db0b60e01b148061050d57506301ffc9a760e01b6001600160e01b03198316145b92915050565b606061052061013161108f565b905090565b600061050d600080516020611f3083398151915283610d5b565b606061052061012f61108f565b600082815260c9602052604090206001015461056881336110a3565b6105728383611107565b505050565b6001600160a01b03811633146105ec5760405162461bcd60e51b815260206004820152602f60248201527f416363657373436f6e74726f6c3a2063616e206f6e6c792072656e6f756e636560448201526e103937b632b9903337b91039b2b63360891b60648201526084015b60405180910390fd5b6105f6828261118d565b5050565b306001600160a01b037f00000000000000000000000000000000000000000000000000000000000000001614156106435760405162461bcd60e51b81526004016105e390611c8a565b7f00000000000000000000000000000000000000000000000000000000000000006001600160a01b03166106756111f4565b6001600160a01b03161461069b5760405162461bcd60e51b81526004016105e390611cd6565b6106a481611222565b604080516000808252602082019092526106c091839190611256565b50565b60fc5461010090046001600160a01b031633146106f25760405162461bcd60e51b81526004016105e390611d51565b60fc5460ff1661073d5760405162461bcd60e51b815260206004820152601660248201527510dbdb9d1c9bdb1b195c8e881b9bdd081c185d5cd95960521b60448201526064016105e3565b60fc805460ff191690556040517f5db9ee0a495bf2e6ff9c91a7834c1ba4fdd244a5e8aa4e537bd38aeae4b073aa90610777903390611bf6565b60405180910390a1565b306001600160a01b037f00000000000000000000000000000000000000000000000000000000000000001614156107ca5760405162461bcd60e51b81526004016105e390611c8a565b7f00000000000000000000000000000000000000000000000000000000000000006001600160a01b03166107fc6111f4565b6001600160a01b0316146108225760405162461bcd60e51b81526004016105e390611cd6565b61082b82611222565b6105f682826001611256565b6001600160a01b0380831660009081526101336020526040902060010154839116156108c05760405162461bcd60e51b815260206004820152603260248201527f4d61726b657452656769737472793a2068617320616c726561647920657869736044820152713a103a3434b9903ab9b2b926b0b730b3b2b960711b60648201526084016105e3565b6108d8600080516020611f3083398151915233610d5b565b6108f45760405162461bcd60e51b81526004016105e390611d22565b6001600160a01b0383161580159061091457506001600160a01b03821615155b61097e5760405162461bcd60e51b815260206004820152603560248201527f4d61726b657452656769737472793a20746f6b656e20616e6420757365724d616044820152746e616765722063616e206e6f74206265207a65726f60581b60648201526084016105e3565b61098a6101318361139d565b506001600160a01b03838116600081815261013360205260409081902060010180546001600160a01b0319169386169390931790925590517f081428de8cb860717cb137b42e1e2226ea2f3e6c9f6b811bc12c8d611157aaf3906109ef908590611bf6565b60405180910390a2505050565b600054610100900460ff16610a175760005460ff1615610a1b565b303b155b610a375760405162461bcd60e51b81526004016105e390611dd5565b600054610100900460ff16158015610a59576000805461ffff19166101011790555b6001600160a01b038216610a7f5760405162461bcd60e51b81526004016105e390611da3565b60fc805460ff191690556001600160a01b038216600081815260fb6020526040902080546001600160a01b0319169091179055610aba6113b2565b610ad2600080516020611f30833981519152836113eb565b60fc8054610100600160a81b0319166101006001600160a01b0385160217905580156105f6576000805461ff00191690555050565b610b1f600080516020611f3083398151915233610d5b565b610b3b5760405162461bcd60e51b81526004016105e390611d22565b6001600160a01b038116610b615760405162461bcd60e51b81526004016105e390611da3565b6001600160a01b03818116600090815260fb60205260409020541615610bd35760405162461bcd60e51b815260206004820152602160248201527f436f6e74726f6c6c65723a2061646d696e20616c7265616479206578697374656044820152601960fa1b60648201526084016105e3565b6001600160a01b038116600081815260fb6020526040902080546001600160a01b03191690911790556106c0600080516020611f30833981519152826113eb565b60fc5461010090046001600160a01b03163314610c435760405162461bcd60e51b81526004016105e390611d51565b60fc5460ff1615610c8b5760405162461bcd60e51b815260206004820152601260248201527110dbdb9d1c9bdb1b195c8e881c185d5cd95960721b60448201526064016105e3565b60fc805460ff191660011790556040517f62e78cea01bee320cd4e420270b5ea74000d11b0c9f74754ebdbfc544b05a25890610777903390611bf6565b610ce0600080516020611f3083398151915233610d5b565b610cfc5760405162461bcd60e51b81526004016105e390611d22565b60fc80546001600160a01b0390921661010002610100600160a81b0319909216919091179055565b610d3c600080516020611f3083398151915233610577565b33600090815260fb6020526040902080546001600160a01b0319169055565b600091825260c9602090815260408084206001600160a01b0393909316845291905290205460ff1690565b600054610100900460ff16610da15760005460ff1615610da5565b303b155b610dc15760405162461bcd60e51b81526004016105e390611dd5565b600054610100900460ff16158015610de3576000805461ffff19166101011790555b610dec336109fc565b80156106c0576000805461ff001916905550565b6001600160a01b038083166000908152610133602052604090205483911615610e815760405162461bcd60e51b815260206004820152602d60248201527f4d61726b657452656769737472793a2068617320616c7265616479206578697360448201526c3a103a3434b9903aaa37b5b2b760991b60648201526084016105e3565b610e99600080516020611f3083398151915233610d5b565b610eb55760405162461bcd60e51b81526004016105e390611d22565b6001600160a01b03831615801590610ed557506001600160a01b03821615155b610f3a5760405162461bcd60e51b815260206004820152603060248201527f4d61726b657452656769737472793a20746f6b656e20616e642075546f6b656e60448201526f2063616e206e6f74206265207a65726f60801b60648201526084016105e3565b610f4661012f8361139d565b506001600160a01b03838116600081815261013360205260409081902080546001600160a01b0319169386169390931790925590517fa8ddf380e0018e0fe64254567490e65f8df5c1e5ad620dad96349c8eecc4475c906109ef908590611bf6565b600082815260c96020526040902060010154610fc481336110a3565b610572838361118d565b610fe6600080516020611f3083398151915233610d5b565b6110025760405162461bcd60e51b81526004016105e390611d22565b6001600160a01b038082166000908152610133602052604090205461102b9161012f91166113f5565b506001600160a01b03808216600090815261013360205260409020600101546110589161013191166113f5565b506001600160a01b031660009081526101336020526040902080546001600160a01b03199081168255600190910180549091169055565b6060600061109c8361140a565b9392505050565b6110ad8282610d5b565b6105f6576110c5816001600160a01b03166014611466565b6110d0836020611466565b6040516020016110e1929190611b87565b60408051601f198184030181529082905262461bcd60e51b82526105e391600401611c57565b6111118282610d5b565b6105f657600082815260c9602090815260408083206001600160a01b03851684529091529020805460ff191660011790556111493390565b6001600160a01b0316816001600160a01b0316837f2f8788117e7eff1d82e926ec794901d17c78024a50270940304540a733656f0d60405160405180910390a45050565b6111978282610d5b565b156105f657600082815260c9602090815260408083206001600160a01b0385168085529252808320805460ff1916905551339285917ff6391f5c32d9c69d2a47ea670b442974b53935d1edc7fd64eb21e047a839171b9190a45050565b7f360894a13ba1a3210667c828492db98dca3e2076cc3735a920a3ca505d382bbc546001600160a01b031690565b61123a600080516020611f3083398151915233610d5b565b6106c05760405162461bcd60e51b81526004016105e390611d22565b60006112606111f4565b905061126b84611648565b6000835111806112785750815b156112895761128784846116ed565b505b7f4910fdfa16fed3260ed0e7147f7cc6da11a60208b5b9406d12a635614ffd9143805460ff1661139657805460ff191660011781556040516113049086906112d5908590602401611bf6565b60408051601f198184030181529190526020810180516001600160e01b0316631b2ce7f360e11b1790526116ed565b50805460ff191681556113156111f4565b6001600160a01b0316826001600160a01b03161461138d5760405162461bcd60e51b815260206004820152602f60248201527f45524331393637557067726164653a207570677261646520627265616b73206660448201526e75727468657220757067726164657360881b60648201526084016105e3565b611396856117d8565b5050505050565b600061109c836001600160a01b038416611818565b600054610100900460ff166113d95760405162461bcd60e51b81526004016105e390611e23565b6113e1611867565b6113e9611867565b565b6105f68282611107565b600061109c836001600160a01b03841661188e565b60608160000180548060200260200160405190810160405280929190818152602001828054801561145a57602002820191906000526020600020905b815481526020019060010190808311611446575b50505050509050919050565b60606000611475836002611e86565b611480906002611e6e565b67ffffffffffffffff8111156114a657634e487b7160e01b600052604160045260246000fd5b6040519080825280601f01601f1916602001820160405280156114d0576020820181803683370190505b509050600360fc1b816000815181106114f957634e487b7160e01b600052603260045260246000fd5b60200101906001600160f81b031916908160001a905350600f60fb1b8160018151811061153657634e487b7160e01b600052603260045260246000fd5b60200101906001600160f81b031916908160001a905350600061155a846002611e86565b611565906001611e6e565b90505b60018111156115f9576f181899199a1a9b1b9c1cb0b131b232b360811b85600f16601081106115a757634e487b7160e01b600052603260045260246000fd5b1a60f81b8282815181106115cb57634e487b7160e01b600052603260045260246000fd5b60200101906001600160f81b031916908160001a90535060049490941c936115f281611eec565b9050611568565b50831561109c5760405162461bcd60e51b815260206004820181905260248201527f537472696e67733a20686578206c656e67746820696e73756666696369656e7460448201526064016105e3565b803b6116ac5760405162461bcd60e51b815260206004820152602d60248201527f455243313936373a206e657720696d706c656d656e746174696f6e206973206e60448201526c1bdd08184818dbdb9d1c9858dd609a1b60648201526084016105e3565b7f360894a13ba1a3210667c828492db98dca3e2076cc3735a920a3ca505d382bbc80546001600160a01b0319166001600160a01b0392909216919091179055565b6060823b61174c5760405162461bcd60e51b815260206004820152602660248201527f416464726573733a2064656c65676174652063616c6c20746f206e6f6e2d636f6044820152651b9d1c9858dd60d21b60648201526084016105e3565b600080846001600160a01b0316846040516117679190611b6b565b600060405180830381855af49150503d80600081146117a2576040519150601f19603f3d011682016040523d82523d6000602084013e6117a7565b606091505b50915091506117cf8282604051806060016040528060278152602001611f50602791396119ab565b95945050505050565b6117e181611648565b6040516001600160a01b038216907fbc7cd75a20ee27fd9adebab32041f755214dbc6bffa90cc0225b39da2e5c2d3b90600090a250565b600081815260018301602052604081205461185f5750815460018181018455600084815260208082209093018490558454848252828601909352604090209190915561050d565b50600061050d565b600054610100900460ff166113e95760405162461bcd60e51b81526004016105e390611e23565b600081815260018301602052604081205480156119a15760006118b2600183611ea5565b85549091506000906118c690600190611ea5565b90508181146119475760008660000182815481106118f457634e487b7160e01b600052603260045260246000fd5b906000526020600020015490508087600001848154811061192557634e487b7160e01b600052603260045260246000fd5b6000918252602080832090910192909255918252600188019052604090208390555b855486908061196657634e487b7160e01b600052603160045260246000fd5b60019003818190600052602060002001600090559055856001016000868152602001908152602001600020600090556001935050505061050d565b600091505061050d565b606083156119ba57508161109c565b8251156119ca5782518084602001fd5b8160405162461bcd60e51b81526004016105e39190611c57565b80356001600160a01b03811681146119fb57600080fd5b919050565b600060208284031215611a11578081fd5b61109c826119e4565b60008060408385031215611a2c578081fd5b611a35836119e4565b9150611a43602084016119e4565b90509250929050565b60008060408385031215611a5e578182fd5b611a67836119e4565b9150602083013567ffffffffffffffff80821115611a83578283fd5b818501915085601f830112611a96578283fd5b813581811115611aa857611aa8611f19565b604051601f8201601f19908116603f01168101908382118183101715611ad057611ad0611f19565b81604052828152886020848701011115611ae8578586fd5b82602086016020830137856020848301015280955050505050509250929050565b600060208284031215611b1a578081fd5b5035919050565b60008060408385031215611b33578182fd5b82359150611a43602084016119e4565b600060208284031215611b54578081fd5b81356001600160e01b03198116811461109c578182fd5b60008251611b7d818460208701611ebc565b9190910192915050565b76020b1b1b2b9b9a1b7b73a3937b61d1030b1b1b7bab73a1604d1b815260008351611bb9816017850160208801611ebc565b7001034b99036b4b9b9b4b733903937b6329607d1b6017918401918201528351611bea816028840160208801611ebc565b01602801949350505050565b6001600160a01b0391909116815260200190565b6020808252825182820181905260009190848201906040850190845b81811015611c4b5783516001600160a01b031683529284019291840191600101611c26565b50909695505050505050565b6020815260008251806020840152611c76816040850160208701611ebc565b601f01601f19169190910160400192915050565b6020808252602c908201527f46756e6374696f6e206d7573742062652063616c6c6564207468726f7567682060408201526b19195b1959d85d1958d85b1b60a21b606082015260800190565b6020808252602c908201527f46756e6374696f6e206d7573742062652063616c6c6564207468726f7567682060408201526b6163746976652070726f787960a01b606082015260800190565b60208082526015908201527421b7b73a3937b63632b91d103737ba1030b236b4b760591b604082015260600190565b60208082526032908201527f436f6e74726f6c6c65723a2063616c6c657220646f6573206e6f7420686176656040820152712074686520677561726469616e20726f6c6560701b606082015260800190565b602080825260189082015277436f6e74726f6c6c65723a2061646472657373207a65726f60401b604082015260600190565b6020808252602e908201527f496e697469616c697a61626c653a20636f6e747261637420697320616c72656160408201526d191e481a5b9a5d1a585b1a5e995960921b606082015260800190565b6020808252602b908201527f496e697469616c697a61626c653a20636f6e7472616374206973206e6f74206960408201526a6e697469616c697a696e6760a81b606082015260800190565b60008219821115611e8157611e81611f03565b500190565b6000816000190483118215151615611ea057611ea0611f03565b500290565b600082821015611eb757611eb7611f03565b500390565b60005b83811015611ed7578181015183820152602001611ebf565b83811115611ee6576000848401525b50505050565b600081611efb57611efb611f03565b506000190190565b634e487b7160e01b600052601160045260246000fd5b634e487b7160e01b600052604160045260246000fdfe2172861495e7b85edac73e3cd5fbb42dd675baadf627720e687bcfdaca025096416464726573733a206c6f772d6c6576656c2064656c65676174652063616c6c206661696c6564a26469706673582212208461ce154f83b08f28075223363339045b86dc39cd088f28eb16dddd8a2166e564736f6c63430008040033",
  "devdoc": {
    "details": "Registering and managing all the lending markets.",
    "kind": "dev",
    "methods": {
      "__MarketRegistry_init()": {
        "details": "Initialization function"
      },
      "addAdmin(address)": {
        "details": "Add a new admin account",
        "params": {
          "account": "Account address"
        }
      },
      "getRoleAdmin(bytes32)": {
        "details": "Returns the admin role that controls `role`. See {grantRole} and {revokeRole}. To change a role's admin, use {_setRoleAdmin}."
      },
      "getUTokens()": {
        "details": "Retrieves the value of the state variable `uTokenList`",
        "returns": {
          "_0": "Stored uToken address"
        }
      },
      "grantRole(bytes32,address)": {
        "details": "Grants `role` to `account`. If `account` had not been already granted `role`, emits a {RoleGranted} event. Requirements: - the caller must have ``role``'s admin role."
      },
      "hasRole(bytes32,address)": {
        "details": "Returns `true` if `account` has been granted `role`."
      },
      "isAdmin(address)": {
        "details": "Check if the address provided is the admin",
        "params": {
          "account": "Account address"
        }
      },
      "pause()": {
        "details": "Called by a pauser to pause, triggers stopped state."
      },
      "paused()": {
        "details": "Returns true if the contract is paused, and false otherwise."
      },
      "renounceAdmin()": {
        "details": "Renouce the admin from the sender's address"
      },
      "renounceRole(bytes32,address)": {
        "details": "Revokes `role` from the calling account. Roles are often managed via {grantRole} and {revokeRole}: this function's purpose is to provide a mechanism for accounts to lose their privileges if they are compromised (such as when a trusted device is misplaced). If the calling account had been revoked `role`, emits a {RoleRevoked} event. Requirements: - the caller must be `account`."
      },
      "revokeRole(bytes32,address)": {
        "details": "Revokes `role` from `account`. If `account` had been granted `role`, emits a {RoleRevoked} event. Requirements: - the caller must have ``role``'s admin role."
      },
      "setGuardian(address)": {
        "details": "Set pauseGuardian account",
        "params": {
          "account": "Account address"
        }
      },
      "supportsInterface(bytes4)": {
        "details": "See {IERC165-supportsInterface}."
      },
      "unpause()": {
        "details": "Called by a pauser to unpause, returns to normal state."
      },
      "upgradeTo(address)": {
        "details": "Upgrade the implementation of the proxy to `newImplementation`. Calls {_authorizeUpgrade}. Emits an {Upgraded} event."
      },
      "upgradeToAndCall(address,bytes)": {
        "details": "Upgrade the implementation of the proxy to `newImplementation`, and subsequently execute the function call encoded in `data`. Calls {_authorizeUpgrade}. Emits an {Upgraded} event."
      }
    },
    "title": "MarketRegistry Contract",
    "version": 1
  },
  "userdoc": {
    "kind": "user",
    "methods": {},
    "version": 1
  },
  "storageLayout": {
    "storage": [
      {
        "astId": 824,
        "contract": "contracts/market/MarketRegistry.sol:MarketRegistry",
        "label": "_initialized",
        "offset": 0,
        "slot": "0",
        "type": "t_bool"
      },
      {
        "astId": 827,
        "contract": "contracts/market/MarketRegistry.sol:MarketRegistry",
        "label": "_initializing",
        "offset": 1,
        "slot": "0",
        "type": "t_bool"
      },
      {
        "astId": 806,
        "contract": "contracts/market/MarketRegistry.sol:MarketRegistry",
        "label": "__gap",
        "offset": 0,
        "slot": "1",
        "type": "t_array(t_uint256)50_storage"
      },
      {
        "astId": 1001,
        "contract": "contracts/market/MarketRegistry.sol:MarketRegistry",
        "label": "__gap",
        "offset": 0,
        "slot": "51",
        "type": "t_array(t_uint256)50_storage"
      },
      {
        "astId": 2481,
        "contract": "contracts/market/MarketRegistry.sol:MarketRegistry",
        "label": "__gap",
        "offset": 0,
        "slot": "101",
        "type": "t_array(t_uint256)50_storage"
      },
      {
        "astId": 3403,
        "contract": "contracts/market/MarketRegistry.sol:MarketRegistry",
        "label": "__gap",
        "offset": 0,
        "slot": "151",
        "type": "t_array(t_uint256)50_storage"
      },
      {
        "astId": 48,
        "contract": "contracts/market/MarketRegistry.sol:MarketRegistry",
        "label": "_roles",
        "offset": 0,
        "slot": "201",
        "type": "t_mapping(t_bytes32,t_struct(RoleData)43_storage)"
      },
      {
        "astId": 335,
        "contract": "contracts/market/MarketRegistry.sol:MarketRegistry",
        "label": "__gap",
        "offset": 0,
        "slot": "202",
        "type": "t_array(t_uint256)49_storage"
      },
      {
        "astId": 12153,
        "contract": "contracts/market/MarketRegistry.sol:MarketRegistry",
        "label": "_admins",
        "offset": 0,
        "slot": "251",
        "type": "t_mapping(t_address,t_address)"
      },
      {
        "astId": 12155,
        "contract": "contracts/market/MarketRegistry.sol:MarketRegistry",
        "label": "_paused",
        "offset": 0,
        "slot": "252",
        "type": "t_bool"
      },
      {
        "astId": 12157,
        "contract": "contracts/market/MarketRegistry.sol:MarketRegistry",
        "label": "pauseGuardian",
        "offset": 1,
        "slot": "252",
        "type": "t_address"
      },
      {
        "astId": 12397,
        "contract": "contracts/market/MarketRegistry.sol:MarketRegistry",
        "label": "______gap",
        "offset": 0,
        "slot": "253",
        "type": "t_array(t_uint256)50_storage"
      },
      {
        "astId": 17315,
        "contract": "contracts/market/MarketRegistry.sol:MarketRegistry",
        "label": "uTokenList",
        "offset": 0,
        "slot": "303",
        "type": "t_struct(AddressSet)11845_storage"
      },
      {
        "astId": 17318,
        "contract": "contracts/market/MarketRegistry.sol:MarketRegistry",
        "label": "userManagerList",
        "offset": 0,
        "slot": "305",
        "type": "t_struct(AddressSet)11845_storage"
      },
      {
        "astId": 17323,
        "contract": "contracts/market/MarketRegistry.sol:MarketRegistry",
        "label": "tokens",
        "offset": 0,
        "slot": "307",
        "type": "t_mapping(t_address,t_struct(Market)17312_storage)"
      }
    ],
    "types": {
      "t_address": {
        "encoding": "inplace",
        "label": "address",
        "numberOfBytes": "20"
      },
      "t_array(t_bytes32)dyn_storage": {
        "base": "t_bytes32",
        "encoding": "dynamic_array",
        "label": "bytes32[]",
        "numberOfBytes": "32"
      },
      "t_array(t_uint256)49_storage": {
        "base": "t_uint256",
        "encoding": "inplace",
        "label": "uint256[49]",
        "numberOfBytes": "1568"
      },
      "t_array(t_uint256)50_storage": {
        "base": "t_uint256",
        "encoding": "inplace",
        "label": "uint256[50]",
        "numberOfBytes": "1600"
      },
      "t_bool": {
        "encoding": "inplace",
        "label": "bool",
        "numberOfBytes": "1"
      },
      "t_bytes32": {
        "encoding": "inplace",
        "label": "bytes32",
        "numberOfBytes": "32"
      },
      "t_mapping(t_address,t_address)": {
        "encoding": "mapping",
        "key": "t_address",
        "label": "mapping(address => address)",
        "numberOfBytes": "32",
        "value": "t_address"
      },
      "t_mapping(t_address,t_bool)": {
        "encoding": "mapping",
        "key": "t_address",
        "label": "mapping(address => bool)",
        "numberOfBytes": "32",
        "value": "t_bool"
      },
      "t_mapping(t_address,t_struct(Market)17312_storage)": {
        "encoding": "mapping",
        "key": "t_address",
        "label": "mapping(address => struct MarketRegistry.Market)",
        "numberOfBytes": "32",
        "value": "t_struct(Market)17312_storage"
      },
      "t_mapping(t_bytes32,t_struct(RoleData)43_storage)": {
        "encoding": "mapping",
        "key": "t_bytes32",
        "label": "mapping(bytes32 => struct AccessControlUpgradeable.RoleData)",
        "numberOfBytes": "32",
        "value": "t_struct(RoleData)43_storage"
      },
      "t_mapping(t_bytes32,t_uint256)": {
        "encoding": "mapping",
        "key": "t_bytes32",
        "label": "mapping(bytes32 => uint256)",
        "numberOfBytes": "32",
        "value": "t_uint256"
      },
      "t_struct(AddressSet)11845_storage": {
        "encoding": "inplace",
        "label": "struct EnumerableSet.AddressSet",
        "members": [
          {
            "astId": 11844,
            "contract": "contracts/market/MarketRegistry.sol:MarketRegistry",
            "label": "_inner",
            "offset": 0,
            "slot": "0",
            "type": "t_struct(Set)11544_storage"
          }
        ],
        "numberOfBytes": "64"
      },
      "t_struct(Market)17312_storage": {
        "encoding": "inplace",
        "label": "struct MarketRegistry.Market",
        "members": [
          {
            "astId": 17309,
            "contract": "contracts/market/MarketRegistry.sol:MarketRegistry",
            "label": "uToken",
            "offset": 0,
            "slot": "0",
            "type": "t_address"
          },
          {
            "astId": 17311,
            "contract": "contracts/market/MarketRegistry.sol:MarketRegistry",
            "label": "userManager",
            "offset": 0,
            "slot": "1",
            "type": "t_address"
          }
        ],
        "numberOfBytes": "64"
      },
      "t_struct(RoleData)43_storage": {
        "encoding": "inplace",
        "label": "struct AccessControlUpgradeable.RoleData",
        "members": [
          {
            "astId": 40,
            "contract": "contracts/market/MarketRegistry.sol:MarketRegistry",
            "label": "members",
            "offset": 0,
            "slot": "0",
            "type": "t_mapping(t_address,t_bool)"
          },
          {
            "astId": 42,
            "contract": "contracts/market/MarketRegistry.sol:MarketRegistry",
            "label": "adminRole",
            "offset": 0,
            "slot": "1",
            "type": "t_bytes32"
          }
        ],
        "numberOfBytes": "64"
      },
      "t_struct(Set)11544_storage": {
        "encoding": "inplace",
        "label": "struct EnumerableSet.Set",
        "members": [
          {
            "astId": 11539,
            "contract": "contracts/market/MarketRegistry.sol:MarketRegistry",
            "label": "_values",
            "offset": 0,
            "slot": "0",
            "type": "t_array(t_bytes32)dyn_storage"
          },
          {
            "astId": 11543,
            "contract": "contracts/market/MarketRegistry.sol:MarketRegistry",
            "label": "_indexes",
            "offset": 0,
            "slot": "1",
            "type": "t_mapping(t_bytes32,t_uint256)"
          }
        ],
        "numberOfBytes": "64"
      },
      "t_uint256": {
        "encoding": "inplace",
        "label": "uint256",
        "numberOfBytes": "32"
      }
    }
  }
}