{
  "address": "0xD7c33F78fACEfa7AA98a2Df50B1D9759F2878b0C",
  "abi": [
    {
      "inputs": [
        {
          "internalType": "address",
          "name": "_l2Gateway",
          "type": "address"
        },
        {
          "internalType": "address",
          "name": "_l1TokenAddress",
          "type": "address"
        }
      ],
      "stateMutability": "nonpayable",
      "type": "constructor"
    },
    {
      "anonymous": false,
      "inputs": [
        {
          "indexed": true,
          "internalType": "address",
          "name": "owner",
          "type": "address"
        },
        {
          "indexed": true,
          "internalType": "address",
          "name": "spender",
          "type": "address"
        },
        {
          "indexed": false,
          "internalType": "uint256",
          "name": "value",
          "type": "uint256"
        }
      ],
      "name": "Approval",
      "type": "event"
    },
    {
      "anonymous": false,
      "inputs": [
        {
          "indexed": true,
          "internalType": "address",
          "name": "previousOwner",
          "type": "address"
        },
        {
          "indexed": true,
          "internalType": "address",
          "name": "newOwner",
          "type": "address"
        }
      ],
      "name": "OwnershipTransferred",
      "type": "event"
    },
    {
      "anonymous": false,
      "inputs": [
        {
          "indexed": true,
          "internalType": "address",
          "name": "from",
          "type": "address"
        },
        {
          "indexed": true,
          "internalType": "address",
          "name": "to",
          "type": "address"
        },
        {
          "indexed": false,
          "internalType": "uint256",
          "name": "value",
          "type": "uint256"
        }
      ],
      "name": "Transfer",
      "type": "event"
    },
    {
      "anonymous": false,
      "inputs": [
        {
          "indexed": true,
          "internalType": "address",
          "name": "_account",
          "type": "address"
        }
      ],
      "name": "Unwhitelisted",
      "type": "event"
    },
    {
      "anonymous": false,
      "inputs": [],
      "name": "WhitelistDisabled",
      "type": "event"
    },
    {
      "anonymous": false,
      "inputs": [],
      "name": "WhitelistEnabled",
      "type": "event"
    },
    {
      "anonymous": false,
      "inputs": [
        {
          "indexed": true,
          "internalType": "address",
          "name": "_account",
          "type": "address"
        }
      ],
      "name": "Whitelisted",
      "type": "event"
    },
    {
      "inputs": [],
      "name": "DOMAIN_SEPARATOR",
      "outputs": [
        {
          "internalType": "bytes32",
          "name": "",
          "type": "bytes32"
        }
      ],
      "stateMutability": "view",
      "type": "function"
    },
    {
      "inputs": [
        {
          "internalType": "address",
          "name": "owner",
          "type": "address"
        },
        {
          "internalType": "address",
          "name": "spender",
          "type": "address"
        }
      ],
      "name": "allowance",
      "outputs": [
        {
          "internalType": "uint256",
          "name": "",
          "type": "uint256"
        }
      ],
      "stateMutability": "view",
      "type": "function"
    },
    {
      "inputs": [
        {
          "internalType": "address",
          "name": "spender",
          "type": "address"
        },
        {
          "internalType": "uint256",
          "name": "amount",
          "type": "uint256"
        }
      ],
      "name": "approve",
      "outputs": [
        {
          "internalType": "bool",
          "name": "",
          "type": "bool"
        }
      ],
      "stateMutability": "nonpayable",
      "type": "function"
    },
    {
      "inputs": [
        {
          "internalType": "address",
          "name": "account",
          "type": "address"
        }
      ],
      "name": "balanceOf",
      "outputs": [
        {
          "internalType": "uint256",
          "name": "",
          "type": "uint256"
        }
      ],
      "stateMutability": "view",
      "type": "function"
    },
    {
      "inputs": [
        {
          "internalType": "address",
          "name": "account",
          "type": "address"
        },
        {
          "internalType": "uint256",
          "name": "amount",
          "type": "uint256"
        }
      ],
      "name": "bridgeBurn",
      "outputs": [],
      "stateMutability": "nonpayable",
      "type": "function"
    },
    {
      "inputs": [
        {
          "internalType": "address",
          "name": "account",
          "type": "address"
        },
        {
          "internalType": "uint256",
          "name": "amount",
          "type": "uint256"
        }
      ],
      "name": "bridgeMint",
      "outputs": [],
      "stateMutability": "nonpayable",
      "type": "function"
    },
    {
      "inputs": [],
      "name": "decimals",
      "outputs": [
        {
          "internalType": "uint8",
          "name": "",
          "type": "uint8"
        }
      ],
      "stateMutability": "view",
      "type": "function"
    },
    {
      "inputs": [
        {
          "internalType": "address",
          "name": "spender",
          "type": "address"
        },
        {
          "internalType": "uint256",
          "name": "subtractedValue",
          "type": "uint256"
        }
      ],
      "name": "decreaseAllowance",
      "outputs": [
        {
          "internalType": "bool",
          "name": "",
          "type": "bool"
        }
      ],
      "stateMutability": "nonpayable",
      "type": "function"
    },
    {
      "inputs": [],
      "name": "disableWhitelist",
      "outputs": [],
      "stateMutability": "nonpayable",
      "type": "function"
    },
    {
      "inputs": [],
      "name": "enableWhitelist",
      "outputs": [],
      "stateMutability": "nonpayable",
      "type": "function"
    },
    {
      "inputs": [],
      "name": "getChainId",
      "outputs": [
        {
          "internalType": "uint256",
          "name": "chainId",
          "type": "uint256"
        }
      ],
      "stateMutability": "view",
      "type": "function"
    },
    {
      "inputs": [
        {
          "internalType": "address",
          "name": "spender",
          "type": "address"
        },
        {
          "internalType": "uint256",
          "name": "addedValue",
          "type": "uint256"
        }
      ],
      "name": "increaseAllowance",
      "outputs": [
        {
          "internalType": "bool",
          "name": "",
          "type": "bool"
        }
      ],
      "stateMutability": "nonpayable",
      "type": "function"
    },
    {
      "inputs": [
        {
          "internalType": "address",
          "name": "_account",
          "type": "address"
        }
      ],
      "name": "isWhitelisted",
      "outputs": [
        {
          "internalType": "bool",
          "name": "",
          "type": "bool"
        }
      ],
      "stateMutability": "view",
      "type": "function"
    },
    {
      "inputs": [],
      "name": "l1Address",
      "outputs": [
        {
          "internalType": "address",
          "name": "",
          "type": "address"
        }
      ],
      "stateMutability": "view",
      "type": "function"
    },
    {
      "inputs": [],
      "name": "l2Gateway",
      "outputs": [
        {
          "internalType": "address",
          "name": "",
          "type": "address"
        }
      ],
      "stateMutability": "view",
      "type": "function"
    },
    {
      "inputs": [],
      "name": "name",
      "outputs": [
        {
          "internalType": "string",
          "name": "",
          "type": "string"
        }
      ],
      "stateMutability": "view",
      "type": "function"
    },
    {
      "inputs": [
        {
          "internalType": "address",
          "name": "owner",
          "type": "address"
        }
      ],
      "name": "nonces",
      "outputs": [
        {
          "internalType": "uint256",
          "name": "",
          "type": "uint256"
        }
      ],
      "stateMutability": "view",
      "type": "function"
    },
    {
      "inputs": [],
      "name": "owner",
      "outputs": [
        {
          "internalType": "address",
          "name": "",
          "type": "address"
        }
      ],
      "stateMutability": "view",
      "type": "function"
    },
    {
      "inputs": [
        {
          "internalType": "address",
          "name": "owner",
          "type": "address"
        },
        {
          "internalType": "address",
          "name": "spender",
          "type": "address"
        },
        {
          "internalType": "uint256",
          "name": "value",
          "type": "uint256"
        },
        {
          "internalType": "uint256",
          "name": "deadline",
          "type": "uint256"
        },
        {
          "internalType": "uint8",
          "name": "v",
          "type": "uint8"
        },
        {
          "internalType": "bytes32",
          "name": "r",
          "type": "bytes32"
        },
        {
          "internalType": "bytes32",
          "name": "s",
          "type": "bytes32"
        }
      ],
      "name": "permit",
      "outputs": [],
      "stateMutability": "nonpayable",
      "type": "function"
    },
    {
      "inputs": [],
      "name": "renounceOwnership",
      "outputs": [],
      "stateMutability": "nonpayable",
      "type": "function"
    },
    {
      "inputs": [],
      "name": "symbol",
      "outputs": [
        {
          "internalType": "string",
          "name": "",
          "type": "string"
        }
      ],
      "stateMutability": "view",
      "type": "function"
    },
    {
      "inputs": [],
      "name": "totalSupply",
      "outputs": [
        {
          "internalType": "uint256",
          "name": "",
          "type": "uint256"
        }
      ],
      "stateMutability": "view",
      "type": "function"
    },
    {
      "inputs": [
        {
          "internalType": "address",
          "name": "recipient",
          "type": "address"
        },
        {
          "internalType": "uint256",
          "name": "amount",
          "type": "uint256"
        }
      ],
      "name": "transfer",
      "outputs": [
        {
          "internalType": "bool",
          "name": "",
          "type": "bool"
        }
      ],
      "stateMutability": "nonpayable",
      "type": "function"
    },
    {
      "inputs": [
        {
          "internalType": "address",
          "name": "sender",
          "type": "address"
        },
        {
          "internalType": "address",
          "name": "recipient",
          "type": "address"
        },
        {
          "internalType": "uint256",
          "name": "amount",
          "type": "uint256"
        }
      ],
      "name": "transferFrom",
      "outputs": [
        {
          "internalType": "bool",
          "name": "",
          "type": "bool"
        }
      ],
      "stateMutability": "nonpayable",
      "type": "function"
    },
    {
      "inputs": [
        {
          "internalType": "address",
          "name": "newOwner",
          "type": "address"
        }
      ],
      "name": "transferOwnership",
      "outputs": [],
      "stateMutability": "nonpayable",
      "type": "function"
    },
    {
      "inputs": [
        {
          "internalType": "address",
          "name": "_account",
          "type": "address"
        }
      ],
      "name": "unwhitelist",
      "outputs": [],
      "stateMutability": "nonpayable",
      "type": "function"
    },
    {
      "inputs": [
        {
          "internalType": "address",
          "name": "_account",
          "type": "address"
        }
      ],
      "name": "whitelist",
      "outputs": [],
      "stateMutability": "nonpayable",
      "type": "function"
    },
    {
      "inputs": [],
      "name": "whitelistEnabled",
      "outputs": [
        {
          "internalType": "bool",
          "name": "",
          "type": "bool"
        }
      ],
      "stateMutability": "view",
      "type": "function"
    }
  ],
  "transactionHash": "0x19ce0bf9e061d87c50668b228a845b39af3702a1b0764532dc557d2da3c24c8c",
  "args": [
    "0x8b6990830cF135318f75182487A4D7698549C717",
    "0xbf723c4641800a5878654ca9384145D70721f9E8"
  ],
  "solcInputHash": "f7d03dd6e1ae76ba59a3c936c5c3225b",
  "bytecode": "0x6101806040527f6e71edae12b1b97f4d1f60370fef10105fa2faae0126114a169c64845d6126c9610140523480156200003757600080fd5b5060405162001e0a38038062001e0a8339810160408190526200005a916200041d565b6040518060400160405280600e81526020016d20b93134ba393ab6902aa724a7a760911b81525080604051806040016040528060018152602001603160f81b8152506040518060400160405280600e81526020016d20b93134ba393ab6902aa724a7a760911b8152506040518060400160405280600881526020016730b9312aa724a7a760c11b8152508160039080519060200190620000fc9291906200035a565b508051620001129060049060208401906200035a565b5050825160208085019190912083518483012060e08290526101008190524660a0818152604080517f8b73c3c69bb8fe3d512ecc4cf759cc79239f7b179b0ffacaa9a75d522b39400f81880181905281830187905260608201869052608082019490945230818401528151808203909301835260c0019052805194019390932091935091906080523060601b60c0526101205250620001c19350620001bb925050620002129050565b62000216565b600880546001600160a01b0319166001600160a01b038416908117909155606082901b6001600160601b031916610160526006805460ff60a01b191690556200020a9062000268565b505062000491565b3390565b600680546001600160a01b038381166001600160a01b0319831681179093556040519116919082907f8be0079c531659141344cd1fd0a4f28419497f9722a3daafe3b4186f6b6457e090600090a35050565b6006546001600160a01b03163314620002c75760405162461bcd60e51b815260206004820181905260248201527f4f776e61626c653a2063616c6c6572206973206e6f7420746865206f776e6572604482015260640160405180910390fd5b6001600160a01b0381166200030e5760405162461bcd60e51b815260040180806020018281038252602681526020018062001de46026913960400191505060405180910390fd5b6001600160a01b038116600081815260076020526040808220805460ff19166001179055517faab7954e9d246b167ef88aeddad35209ca2489d95a8aeb59e288d9b19fae5a549190a250565b828054620003689062000454565b90600052602060002090601f0160209004810192826200038c5760008555620003d7565b82601f10620003a757805160ff1916838001178555620003d7565b82800160010185558215620003d7579182015b82811115620003d7578251825591602001919060010190620003ba565b50620003e5929150620003e9565b5090565b5b80821115620003e55760008155600101620003ea565b80516001600160a01b03811681146200041857600080fd5b919050565b6000806040838503121562000430578182fd5b6200043b8362000400565b91506200044b6020840162000400565b90509250929050565b600181811c908216806200046957607f821691505b602082108114156200048b57634e487b7160e01b600052602260045260246000fd5b50919050565b60805160a05160c05160601c60e0516101005161012051610140516101605160601c6118e7620004fd60003960006103570152600061095301526000610ee001526000610f2f01526000610f0a01526000610e6301526000610e8d01526000610eb701526118e76000f3fe608060405234801561001057600080fd5b50600436106101845760003560e01c80638c2a993e116100d9578063a9059cbb11610087578063a9059cbb1461033f578063c2eeeebd14610352578063cdfb2b4e14610379578063d505accf14610381578063d6b0f48414610394578063dd62ed3e1461039c578063f2fde38b146103d557600080fd5b80638c2a993e146102b85780638da5cb5b146102cb5780638fa74a0e146102eb57806395d89b41146102fe5780639a590427146103065780639b19251a14610319578063a457c2d71461032c57600080fd5b80633950935111610136578063395093511461020c5780633af32abf1461021f57806351fb012d1461024b57806370a082311461025f578063715018a61461028857806374f4f547146102925780637ecebe00146102a557600080fd5b806306fdde0314610189578063095ea7b3146101a757806318160ddd146101ca57806323b872dd146101dc578063313ce567146101ef5780633408e470146101fe5780633644e51514610204575b600080fd5b6101916103e8565b60405161019e9190611744565b60405180910390f35b6101ba6101b536600461171b565b61047a565b604051901515815260200161019e565b6002545b60405190815260200161019e565b6101ba6101ea36600461166f565b610490565b6040516012815260200161019e565b466101ce565b6101ce61053f565b6101ba61021a36600461171b565b61054e565b6101ba61022d36600461161c565b6001600160a01b031660009081526007602052604090205460ff1690565b6006546101ba90600160a01b900460ff1681565b6101ce61026d36600461161c565b6001600160a01b031660009081526020819052604090205490565b61029061058a565b005b6102906102a036600461171b565b6105c5565b6101ce6102b336600461161c565b6105fd565b6102906102c636600461171b565b61061d565b6102d3610651565b6040516001600160a01b03909116815260200161019e565b6008546102d3906001600160a01b031681565b610191610660565b61029061031436600461161c565b61066f565b61029061032736600461161c565b61072c565b6101ba61033a36600461171b565b6107ec565b6101ba61034d36600461171b565b610885565b6102d37f000000000000000000000000000000000000000000000000000000000000000081565b610290610892565b61029061038f3660046116aa565b6108ff565b610290610a63565b6101ce6103aa36600461163d565b6001600160a01b03918216600090815260016020908152604080832093909416825291909152205490565b6102906103e336600461161c565b610aca565b6060600380546103f790611820565b80601f016020809104026020016040519081016040528092919081815260200182805461042390611820565b80156104705780601f1061044557610100808354040283529160200191610470565b820191906000526020600020905b81548152906001019060200180831161045357829003601f168201915b5050505050905090565b6000610487338484610b6a565b50600192915050565b600061049d848484610c8e565b6001600160a01b0384166000908152600160209081526040808320338452909152902054828110156105275760405162461bcd60e51b815260206004820152602860248201527f45524332303a207472616e7366657220616d6f756e74206578636565647320616044820152676c6c6f77616e636560c01b60648201526084015b60405180910390fd5b6105348533858403610b6a565b506001949350505050565b6000610549610e56565b905090565b3360008181526001602090815260408083206001600160a01b038716845290915281205490916104879185906105859086906117f1565b610b6a565b33610593610651565b6001600160a01b0316146105b95760405162461bcd60e51b815260040161051e906117bc565b6105c36000610f7d565b565b6008546001600160a01b031633146105ef5760405162461bcd60e51b815260040161051e90611797565b6105f98282610fcf565b5050565b6001600160a01b0381166000908152600560205260408120545b92915050565b6008546001600160a01b031633146106475760405162461bcd60e51b815260040161051e90611797565b6105f98282611118565b6006546001600160a01b031690565b6060600480546103f790611820565b33610678610651565b6001600160a01b03161461069e5760405162461bcd60e51b815260040161051e906117bc565b6001600160a01b0381166106e35760405162461bcd60e51b815260040180806020018281038252602681526020018061186c6026913960400191505060405180910390fd5b6001600160a01b038116600081815260076020526040808220805460ff19169055517f51085ddf9ebdded84b76e829eb58c4078e4b5bdf97d9a94723f336039da467919190a250565b33610735610651565b6001600160a01b03161461075b5760405162461bcd60e51b815260040161051e906117bc565b6001600160a01b0381166107a05760405162461bcd60e51b815260040180806020018281038252602681526020018061186c6026913960400191505060405180910390fd5b6001600160a01b038116600081815260076020526040808220805460ff19166001179055517faab7954e9d246b167ef88aeddad35209ca2489d95a8aeb59e288d9b19fae5a549190a250565b3360009081526001602090815260408083206001600160a01b03861684529091528120548281101561086e5760405162461bcd60e51b815260206004820152602560248201527f45524332303a2064656372656173656420616c6c6f77616e63652062656c6f77604482015264207a65726f60d81b606482015260840161051e565b61087b3385858403610b6a565b5060019392505050565b6000610487338484610c8e565b3361089b610651565b6001600160a01b0316146108c15760405162461bcd60e51b815260040161051e906117bc565b6006805460ff60a01b1916600160a01b1790556040517fe5e5846f783279948f6ec5faad38318cde86fe5be7ea845ede56d62f16c3743490600090a1565b8342111561094f5760405162461bcd60e51b815260206004820152601d60248201527f45524332305065726d69743a206578706972656420646561646c696e65000000604482015260640161051e565b60007f000000000000000000000000000000000000000000000000000000000000000088888861097e8c6111f1565b6040805160208101969096526001600160a01b0394851690860152929091166060840152608083015260a082015260c0810186905260e00160405160208183030381529060405280519060200120905060006109d982611219565b905060006109e982878787611267565b9050896001600160a01b0316816001600160a01b031614610a4c5760405162461bcd60e51b815260206004820152601e60248201527f45524332305065726d69743a20696e76616c6964207369676e61747572650000604482015260640161051e565b610a578a8a8a610b6a565b50505050505050505050565b33610a6c610651565b6001600160a01b031614610a925760405162461bcd60e51b815260040161051e906117bc565b6006805460ff60a01b191690556040517f212c6e1d3045c9581ef0adf2504dbb1d137f52f38162ccf77a16c69d14eba5c390600090a1565b33610ad3610651565b6001600160a01b031614610af95760405162461bcd60e51b815260040161051e906117bc565b6001600160a01b038116610b5e5760405162461bcd60e51b815260206004820152602660248201527f4f776e61626c653a206e6577206f776e657220697320746865207a65726f206160448201526564647265737360d01b606482015260840161051e565b610b6781610f7d565b50565b6001600160a01b038316610bcc5760405162461bcd60e51b8152602060048201526024808201527f45524332303a20617070726f76652066726f6d20746865207a65726f206164646044820152637265737360e01b606482015260840161051e565b6001600160a01b038216610c2d5760405162461bcd60e51b815260206004820152602260248201527f45524332303a20617070726f766520746f20746865207a65726f206164647265604482015261737360f01b606482015260840161051e565b6001600160a01b0383811660008181526001602090815260408083209487168084529482529182902085905590518481527f8c5be1e5ebec7d5bd14f71427d1e84f3dd0314c0f7b2291e5b200ac8c7c3b925910160405180910390a3505050565b6001600160a01b038316610cf25760405162461bcd60e51b815260206004820152602560248201527f45524332303a207472616e736665722066726f6d20746865207a65726f206164604482015264647265737360d81b606482015260840161051e565b6001600160a01b038216610d545760405162461bcd60e51b815260206004820152602360248201527f45524332303a207472616e7366657220746f20746865207a65726f206164647260448201526265737360e81b606482015260840161051e565b610d5f83838361128f565b6001600160a01b03831660009081526020819052604090205481811015610dd75760405162461bcd60e51b815260206004820152602660248201527f45524332303a207472616e7366657220616d6f756e7420657863656564732062604482015265616c616e636560d01b606482015260840161051e565b6001600160a01b03808516600090815260208190526040808220858503905591851681529081208054849290610e0e9084906117f1565b92505081905550826001600160a01b0316846001600160a01b031660008051602061189283398151915284604051610e4891815260200190565b60405180910390a350505050565b6000306001600160a01b037f000000000000000000000000000000000000000000000000000000000000000016148015610eaf57507f000000000000000000000000000000000000000000000000000000000000000046145b15610ed957507f000000000000000000000000000000000000000000000000000000000000000090565b50604080517f00000000000000000000000000000000000000000000000000000000000000006020808301919091527f0000000000000000000000000000000000000000000000000000000000000000828401527f000000000000000000000000000000000000000000000000000000000000000060608301524660808301523060a0808401919091528351808403909101815260c0909201909252805191012090565b600680546001600160a01b038381166001600160a01b0319831681179093556040519116919082907f8be0079c531659141344cd1fd0a4f28419497f9722a3daafe3b4186f6b6457e090600090a35050565b6001600160a01b03821661102f5760405162461bcd60e51b815260206004820152602160248201527f45524332303a206275726e2066726f6d20746865207a65726f206164647265736044820152607360f81b606482015260840161051e565b61103b8260008361128f565b6001600160a01b038216600090815260208190526040902054818110156110af5760405162461bcd60e51b815260206004820152602260248201527f45524332303a206275726e20616d6f756e7420657863656564732062616c616e604482015261636560f01b606482015260840161051e565b6001600160a01b03831660009081526020819052604081208383039055600280548492906110de908490611809565b90915550506040518281526000906001600160a01b038516906000805160206118928339815191529060200160405180910390a35b505050565b6001600160a01b03821661116e5760405162461bcd60e51b815260206004820152601f60248201527f45524332303a206d696e7420746f20746865207a65726f206164647265737300604482015260640161051e565b61117a6000838361128f565b806002600082825461118c91906117f1565b90915550506001600160a01b038216600090815260208190526040812080548392906111b99084906117f1565b90915550506040518181526001600160a01b038316906000906000805160206118928339815191529060200160405180910390a35050565b6001600160a01b03811660009081526005602052604090208054600181018255905b50919050565b6000610617611226610e56565b8360405161190160f01b6020820152602281018390526042810182905260009060620160405160208183030381529060405280519060200120905092915050565b600080600061127887878787611321565b9150915061128581611404565b5095945050505050565b600654600160a01b900460ff1615611113573360009081526007602052604090205460ff16806112c657506001600160a01b038216155b6111135760405162461bcd60e51b815260206004820152602660248201527f57686974656c69737461626c653a2061646472657373206e6f742077686974656044820152651b1a5cdd195960d21b606482015260840161051e565b6000806fa2a8918ca85bafe22016d0b997e4df60600160ff1b0383111561134e57506000905060036113fb565b8460ff16601b1415801561136657508460ff16601c14155b1561137757506000905060046113fb565b6040805160008082526020820180845289905260ff881692820192909252606081018690526080810185905260019060a0016020604051602081039080840390855afa1580156113cb573d6000803e3d6000fd5b5050604051601f1901519150506001600160a01b0381166113f4576000600192509250506113fb565b9150600090505b94509492505050565b600081600481111561142657634e487b7160e01b600052602160045260246000fd5b141561142f5750565b600181600481111561145157634e487b7160e01b600052602160045260246000fd5b141561149a5760405162461bcd60e51b815260206004820152601860248201527745434453413a20696e76616c6964207369676e617475726560401b604482015260640161051e565b60028160048111156114bc57634e487b7160e01b600052602160045260246000fd5b141561150a5760405162461bcd60e51b815260206004820152601f60248201527f45434453413a20696e76616c6964207369676e6174757265206c656e67746800604482015260640161051e565b600381600481111561152c57634e487b7160e01b600052602160045260246000fd5b14156115855760405162461bcd60e51b815260206004820152602260248201527f45434453413a20696e76616c6964207369676e6174757265202773272076616c604482015261756560f01b606482015260840161051e565b60048160048111156115a757634e487b7160e01b600052602160045260246000fd5b1415610b675760405162461bcd60e51b815260206004820152602260248201527f45434453413a20696e76616c6964207369676e6174757265202776272076616c604482015261756560f01b606482015260840161051e565b80356001600160a01b038116811461161757600080fd5b919050565b60006020828403121561162d578081fd5b61163682611600565b9392505050565b6000806040838503121561164f578081fd5b61165883611600565b915061166660208401611600565b90509250929050565b600080600060608486031215611683578081fd5b61168c84611600565b925061169a60208501611600565b9150604084013590509250925092565b600080600080600080600060e0888a0312156116c4578283fd5b6116cd88611600565b96506116db60208901611600565b95506040880135945060608801359350608088013560ff811681146116fe578384fd5b9699959850939692959460a0840135945060c09093013592915050565b6000806040838503121561172d578182fd5b61173683611600565b946020939093013593505050565b6000602080835283518082850152825b8181101561177057858101830151858201604001528201611754565b818111156117815783604083870101525b50601f01601f1916929092016040019392505050565b6020808252600b908201526a4e4f545f4741544557415960a81b604082015260600190565b6020808252818101527f4f776e61626c653a2063616c6c6572206973206e6f7420746865206f776e6572604082015260600190565b6000821982111561180457611804611855565b500190565b60008282101561181b5761181b611855565b500390565b600181811c9082168061183457607f821691505b6020821081141561121357634e487b7160e01b600052602260045260246000fd5b634e487b7160e01b600052601160045260246000fdfe57686974656c69737461626c653a206163636f756e742063616e206e6f74206265207a65726fddf252ad1be2c89b69c2b068fc378daa952ba7f163c4a11628f55a4df523b3efa26469706673582212209a9519c0567a54d9fedeec3244ee5d1d9ddaa97a76eba6cc96a4e1c41e4720f464736f6c6343000804003357686974656c69737461626c653a206163636f756e742063616e206e6f74206265207a65726f",
  "devdoc": {
    "kind": "dev",
    "methods": {
      "DOMAIN_SEPARATOR()": {
        "details": "See {IERC20Permit-DOMAIN_SEPARATOR}."
      },
      "allowance(address,address)": {
        "details": "See {IERC20-allowance}."
      },
      "approve(address,uint256)": {
        "details": "See {IERC20-approve}. Requirements: - `spender` cannot be the zero address."
      },
      "balanceOf(address)": {
        "details": "See {IERC20-balanceOf}."
      },
      "decimals()": {
        "details": "Returns the number of decimals used to get its user representation. For example, if `decimals` equals `2`, a balance of `505` tokens should be displayed to a user as `5.05` (`505 / 10 ** 2`). Tokens usually opt for a value of 18, imitating the relationship between Ether and Wei. This is the value {ERC20} uses, unless this function is overridden; NOTE: This information is only used for _display_ purposes: it in no way affects any of the arithmetic of the contract, including {IERC20-balanceOf} and {IERC20-transfer}."
      },
      "decreaseAllowance(address,uint256)": {
        "details": "Atomically decreases the allowance granted to `spender` by the caller. This is an alternative to {approve} that can be used as a mitigation for problems described in {IERC20-approve}. Emits an {Approval} event indicating the updated allowance. Requirements: - `spender` cannot be the zero address. - `spender` must have allowance for the caller of at least `subtractedValue`."
      },
      "increaseAllowance(address,uint256)": {
        "details": "Atomically increases the allowance granted to `spender` by the caller. This is an alternative to {approve} that can be used as a mitigation for problems described in {IERC20-approve}. Emits an {Approval} event indicating the updated allowance. Requirements: - `spender` cannot be the zero address."
      },
      "isWhitelisted(address)": {
        "details": "Checks if account is whitelisted",
        "params": {
          "_account": "The address to check"
        }
      },
      "name()": {
        "details": "Returns the name of the token."
      },
      "nonces(address)": {
        "details": "See {IERC20Permit-nonces}."
      },
      "owner()": {
        "details": "Returns the address of the current owner."
      },
      "permit(address,address,uint256,uint256,uint8,bytes32,bytes32)": {
        "details": "See {IERC20Permit-permit}."
      },
      "renounceOwnership()": {
        "details": "Leaves the contract without owner. It will not be possible to call `onlyOwner` functions anymore. Can only be called by the current owner. NOTE: Renouncing ownership will leave the contract without an owner, thereby removing any functionality that is only available to the owner."
      },
      "symbol()": {
        "details": "Returns the symbol of the token, usually a shorter version of the name."
      },
      "totalSupply()": {
        "details": "See {IERC20-totalSupply}."
      },
      "transfer(address,uint256)": {
        "details": "See {IERC20-transfer}. Requirements: - `recipient` cannot be the zero address. - the caller must have a balance of at least `amount`."
      },
      "transferFrom(address,address,uint256)": {
        "details": "See {IERC20-transferFrom}. Emits an {Approval} event indicating the updated allowance. This is not required by the EIP. See the note at the beginning of {ERC20}. Requirements: - `sender` and `recipient` cannot be the zero address. - `sender` must have a balance of at least `amount`. - the caller must have allowance for ``sender``'s tokens of at least `amount`."
      },
      "transferOwnership(address)": {
        "details": "Transfers ownership of the contract to a new account (`newOwner`). Can only be called by the current owner."
      },
      "unwhitelist(address)": {
        "details": "Removes account from whitelist",
        "params": {
          "_account": "The address to remove from the whitelist"
        }
      },
      "whitelist(address)": {
        "details": "Adds account to whitelist",
        "params": {
          "_account": "The address to whitelist"
        }
      }
    },
    "stateVariables": {
      "l1Address": {
        "return": "address of layer 1 token",
        "returns": {
          "_0": "address of layer 1 token"
        }
      }
    },
    "version": 1
  },
  "userdoc": {
    "kind": "user",
    "methods": {
      "bridgeBurn(address,uint256)": {
        "notice": "should decrease token supply by amount, and should (probably) only be callable by the L1 bridge."
      },
      "bridgeMint(address,uint256)": {
        "notice": "should increase token supply by amount, and should (probably) only be callable by the L1 bridge."
      },
      "disableWhitelist()": {
        "notice": "disable whitelist and allow transfers for everyone"
      },
      "enableWhitelist()": {
        "notice": "enable whitelist and only allow transfers from whitelisted addresses"
      }
    },
    "version": 1
  },
  "storageLayout": {
    "storage": [
      {
        "astId": 7784,
        "contract": "contracts/token/ArbUnion.sol:ArbUnion",
        "label": "_balances",
        "offset": 0,
        "slot": "0",
        "type": "t_mapping(t_address,t_uint256)"
      },
      {
        "astId": 7790,
        "contract": "contracts/token/ArbUnion.sol:ArbUnion",
        "label": "_allowances",
        "offset": 0,
        "slot": "1",
        "type": "t_mapping(t_address,t_mapping(t_address,t_uint256))"
      },
      {
        "astId": 7792,
        "contract": "contracts/token/ArbUnion.sol:ArbUnion",
        "label": "_totalSupply",
        "offset": 0,
        "slot": "2",
        "type": "t_uint256"
      },
      {
        "astId": 7794,
        "contract": "contracts/token/ArbUnion.sol:ArbUnion",
        "label": "_name",
        "offset": 0,
        "slot": "3",
        "type": "t_string_storage"
      },
      {
        "astId": 7796,
        "contract": "contracts/token/ArbUnion.sol:ArbUnion",
        "label": "_symbol",
        "offset": 0,
        "slot": "4",
        "type": "t_string_storage"
      },
      {
        "astId": 9204,
        "contract": "contracts/token/ArbUnion.sol:ArbUnion",
        "label": "_nonces",
        "offset": 0,
        "slot": "5",
        "type": "t_mapping(t_address,t_struct(Counter)9935_storage)"
      },
      {
        "astId": 3806,
        "contract": "contracts/token/ArbUnion.sol:ArbUnion",
        "label": "_owner",
        "offset": 0,
        "slot": "6",
        "type": "t_address"
      },
      {
        "astId": 25207,
        "contract": "contracts/token/ArbUnion.sol:ArbUnion",
        "label": "whitelistEnabled",
        "offset": 20,
        "slot": "6",
        "type": "t_bool"
      },
      {
        "astId": 25211,
        "contract": "contracts/token/ArbUnion.sol:ArbUnion",
        "label": "_whitelisted",
        "offset": 0,
        "slot": "7",
        "type": "t_mapping(t_address,t_bool)"
      },
      {
        "astId": 23312,
        "contract": "contracts/token/ArbUnion.sol:ArbUnion",
        "label": "l2Gateway",
        "offset": 0,
        "slot": "8",
        "type": "t_address"
      }
    ],
    "types": {
      "t_address": {
        "encoding": "inplace",
        "label": "address",
        "numberOfBytes": "20"
      },
      "t_bool": {
        "encoding": "inplace",
        "label": "bool",
        "numberOfBytes": "1"
      },
      "t_mapping(t_address,t_bool)": {
        "encoding": "mapping",
        "key": "t_address",
        "label": "mapping(address => bool)",
        "numberOfBytes": "32",
        "value": "t_bool"
      },
      "t_mapping(t_address,t_mapping(t_address,t_uint256))": {
        "encoding": "mapping",
        "key": "t_address",
        "label": "mapping(address => mapping(address => uint256))",
        "numberOfBytes": "32",
        "value": "t_mapping(t_address,t_uint256)"
      },
      "t_mapping(t_address,t_struct(Counter)9935_storage)": {
        "encoding": "mapping",
        "key": "t_address",
        "label": "mapping(address => struct Counters.Counter)",
        "numberOfBytes": "32",
        "value": "t_struct(Counter)9935_storage"
      },
      "t_mapping(t_address,t_uint256)": {
        "encoding": "mapping",
        "key": "t_address",
        "label": "mapping(address => uint256)",
        "numberOfBytes": "32",
        "value": "t_uint256"
      },
      "t_string_storage": {
        "encoding": "bytes",
        "label": "string",
        "numberOfBytes": "32"
      },
      "t_struct(Counter)9935_storage": {
        "encoding": "inplace",
        "label": "struct Counters.Counter",
        "members": [
          {
            "astId": 9934,
            "contract": "contracts/token/ArbUnion.sol:ArbUnion",
            "label": "_value",
            "offset": 0,
            "slot": "0",
            "type": "t_uint256"
          }
        ],
        "numberOfBytes": "32"
      },
      "t_uint256": {
        "encoding": "inplace",
        "label": "uint256",
        "numberOfBytes": "32"
      }
    }
  }
}