{
  "address": "0x8C1023C32D4a1c0602F127B5bB03F8d39F688A69",
  "abi": [
    {
      "anonymous": false,
      "inputs": [
        {
          "indexed": false,
          "internalType": "address",
          "name": "previousAdmin",
          "type": "address"
        },
        {
          "indexed": false,
          "internalType": "address",
          "name": "newAdmin",
          "type": "address"
        }
      ],
      "name": "AdminChanged",
      "type": "event"
    },
    {
      "anonymous": false,
      "inputs": [
        {
          "indexed": true,
          "internalType": "address",
          "name": "beacon",
          "type": "address"
        }
      ],
      "name": "BeaconUpgraded",
      "type": "event"
    },
    {
      "anonymous": false,
      "inputs": [
        {
          "indexed": false,
          "internalType": "address",
          "name": "account",
          "type": "address"
        }
      ],
      "name": "Paused",
      "type": "event"
    },
    {
      "anonymous": false,
      "inputs": [
        {
          "indexed": true,
          "internalType": "bytes32",
          "name": "role",
          "type": "bytes32"
        },
        {
          "indexed": true,
          "internalType": "bytes32",
          "name": "previousAdminRole",
          "type": "bytes32"
        },
        {
          "indexed": true,
          "internalType": "bytes32",
          "name": "newAdminRole",
          "type": "bytes32"
        }
      ],
      "name": "RoleAdminChanged",
      "type": "event"
    },
    {
      "anonymous": false,
      "inputs": [
        {
          "indexed": true,
          "internalType": "bytes32",
          "name": "role",
          "type": "bytes32"
        },
        {
          "indexed": true,
          "internalType": "address",
          "name": "account",
          "type": "address"
        },
        {
          "indexed": true,
          "internalType": "address",
          "name": "sender",
          "type": "address"
        }
      ],
      "name": "RoleGranted",
      "type": "event"
    },
    {
      "anonymous": false,
      "inputs": [
        {
          "indexed": true,
          "internalType": "bytes32",
          "name": "role",
          "type": "bytes32"
        },
        {
          "indexed": true,
          "internalType": "address",
          "name": "account",
          "type": "address"
        },
        {
          "indexed": true,
          "internalType": "address",
          "name": "sender",
          "type": "address"
        }
      ],
      "name": "RoleRevoked",
      "type": "event"
    },
    {
      "anonymous": false,
      "inputs": [
        {
          "indexed": false,
          "internalType": "address",
          "name": "account",
          "type": "address"
        }
      ],
      "name": "Unpaused",
      "type": "event"
    },
    {
      "anonymous": false,
      "inputs": [
        {
          "indexed": true,
          "internalType": "address",
          "name": "implementation",
          "type": "address"
        }
      ],
      "name": "Upgraded",
      "type": "event"
    },
    {
      "inputs": [],
      "name": "DEFAULT_ADMIN_ROLE",
      "outputs": [
        {
          "internalType": "bytes32",
          "name": "",
          "type": "bytes32"
        }
      ],
      "stateMutability": "view",
      "type": "function"
    },
    {
      "inputs": [],
      "name": "ROLE_ADMIN",
      "outputs": [
        {
          "internalType": "bytes32",
          "name": "",
          "type": "bytes32"
        }
      ],
      "stateMutability": "view",
      "type": "function"
    },
    {
      "inputs": [
        {
          "internalType": "address",
          "name": "admin_",
          "type": "address"
        }
      ],
      "name": "__Controller_init",
      "outputs": [],
      "stateMutability": "nonpayable",
      "type": "function"
    },
    {
      "inputs": [
        {
          "internalType": "address",
          "name": "_assetManager",
          "type": "address"
        }
      ],
      "name": "__PureTokenAdapter_init",
      "outputs": [],
      "stateMutability": "nonpayable",
      "type": "function"
    },
    {
      "inputs": [
        {
          "internalType": "address",
          "name": "account",
          "type": "address"
        }
      ],
      "name": "addAdmin",
      "outputs": [],
      "stateMutability": "nonpayable",
      "type": "function"
    },
    {
      "inputs": [],
      "name": "assetManager",
      "outputs": [
        {
          "internalType": "address",
          "name": "",
          "type": "address"
        }
      ],
      "stateMutability": "view",
      "type": "function"
    },
    {
      "inputs": [
        {
          "internalType": "address",
          "name": "",
          "type": "address"
        }
      ],
      "name": "ceilingMap",
      "outputs": [
        {
          "internalType": "uint256",
          "name": "",
          "type": "uint256"
        }
      ],
      "stateMutability": "view",
      "type": "function"
    },
    {
      "inputs": [
        {
          "internalType": "address",
          "name": "tokenAddress",
          "type": "address"
        }
      ],
      "name": "claimRewards",
      "outputs": [],
      "stateMutability": "nonpayable",
      "type": "function"
    },
    {
      "inputs": [
        {
          "internalType": "address",
          "name": "tokenAddress",
          "type": "address"
        },
        {
          "internalType": "address",
          "name": "recipient",
          "type": "address"
        }
      ],
      "name": "claimTokens",
      "outputs": [],
      "stateMutability": "nonpayable",
      "type": "function"
    },
    {
      "inputs": [
        {
          "internalType": "address",
          "name": "tokenAddress",
          "type": "address"
        }
      ],
      "name": "deposit",
      "outputs": [],
      "stateMutability": "view",
      "type": "function"
    },
    {
      "inputs": [
        {
          "internalType": "address",
          "name": "",
          "type": "address"
        }
      ],
      "name": "floorMap",
      "outputs": [
        {
          "internalType": "uint256",
          "name": "",
          "type": "uint256"
        }
      ],
      "stateMutability": "view",
      "type": "function"
    },
    {
      "inputs": [
        {
          "internalType": "address",
          "name": "",
          "type": "address"
        }
      ],
      "name": "getRate",
      "outputs": [
        {
          "internalType": "uint256",
          "name": "",
          "type": "uint256"
        }
      ],
      "stateMutability": "pure",
      "type": "function"
    },
    {
      "inputs": [
        {
          "internalType": "bytes32",
          "name": "role",
          "type": "bytes32"
        }
      ],
      "name": "getRoleAdmin",
      "outputs": [
        {
          "internalType": "bytes32",
          "name": "",
          "type": "bytes32"
        }
      ],
      "stateMutability": "view",
      "type": "function"
    },
    {
      "inputs": [
        {
          "internalType": "address",
          "name": "tokenAddress",
          "type": "address"
        }
      ],
      "name": "getSupply",
      "outputs": [
        {
          "internalType": "uint256",
          "name": "",
          "type": "uint256"
        }
      ],
      "stateMutability": "view",
      "type": "function"
    },
    {
      "inputs": [
        {
          "internalType": "address",
          "name": "tokenAddress",
          "type": "address"
        }
      ],
      "name": "getSupplyView",
      "outputs": [
        {
          "internalType": "uint256",
          "name": "",
          "type": "uint256"
        }
      ],
      "stateMutability": "view",
      "type": "function"
    },
    {
      "inputs": [
        {
          "internalType": "bytes32",
          "name": "role",
          "type": "bytes32"
        },
        {
          "internalType": "address",
          "name": "account",
          "type": "address"
        }
      ],
      "name": "grantRole",
      "outputs": [],
      "stateMutability": "nonpayable",
      "type": "function"
    },
    {
      "inputs": [
        {
          "internalType": "bytes32",
          "name": "role",
          "type": "bytes32"
        },
        {
          "internalType": "address",
          "name": "account",
          "type": "address"
        }
      ],
      "name": "hasRole",
      "outputs": [
        {
          "internalType": "bool",
          "name": "",
          "type": "bool"
        }
      ],
      "stateMutability": "view",
      "type": "function"
    },
    {
      "inputs": [
        {
          "internalType": "address",
          "name": "account",
          "type": "address"
        }
      ],
      "name": "isAdmin",
      "outputs": [
        {
          "internalType": "bool",
          "name": "",
          "type": "bool"
        }
      ],
      "stateMutability": "view",
      "type": "function"
    },
    {
      "inputs": [],
      "name": "pause",
      "outputs": [],
      "stateMutability": "nonpayable",
      "type": "function"
    },
    {
      "inputs": [],
      "name": "pauseGuardian",
      "outputs": [
        {
          "internalType": "address",
          "name": "",
          "type": "address"
        }
      ],
      "stateMutability": "view",
      "type": "function"
    },
    {
      "inputs": [],
      "name": "paused",
      "outputs": [
        {
          "internalType": "bool",
          "name": "",
          "type": "bool"
        }
      ],
      "stateMutability": "view",
      "type": "function"
    },
    {
      "inputs": [],
      "name": "renounceAdmin",
      "outputs": [],
      "stateMutability": "nonpayable",
      "type": "function"
    },
    {
      "inputs": [
        {
          "internalType": "bytes32",
          "name": "role",
          "type": "bytes32"
        },
        {
          "internalType": "address",
          "name": "account",
          "type": "address"
        }
      ],
      "name": "renounceRole",
      "outputs": [],
      "stateMutability": "nonpayable",
      "type": "function"
    },
    {
      "inputs": [
        {
          "internalType": "bytes32",
          "name": "role",
          "type": "bytes32"
        },
        {
          "internalType": "address",
          "name": "account",
          "type": "address"
        }
      ],
      "name": "revokeRole",
      "outputs": [],
      "stateMutability": "nonpayable",
      "type": "function"
    },
    {
      "inputs": [
        {
          "internalType": "address",
          "name": "_assetManager",
          "type": "address"
        }
      ],
      "name": "setAssetManager",
      "outputs": [],
      "stateMutability": "nonpayable",
      "type": "function"
    },
    {
      "inputs": [
        {
          "internalType": "address",
          "name": "tokenAddress",
          "type": "address"
        },
        {
          "internalType": "uint256",
          "name": "ceiling",
          "type": "uint256"
        }
      ],
      "name": "setCeiling",
      "outputs": [],
      "stateMutability": "nonpayable",
      "type": "function"
    },
    {
      "inputs": [
        {
          "internalType": "address",
          "name": "tokenAddress",
          "type": "address"
        },
        {
          "internalType": "uint256",
          "name": "floor",
          "type": "uint256"
        }
      ],
      "name": "setFloor",
      "outputs": [],
      "stateMutability": "nonpayable",
      "type": "function"
    },
    {
      "inputs": [
        {
          "internalType": "address",
          "name": "account",
          "type": "address"
        }
      ],
      "name": "setGuardian",
      "outputs": [],
      "stateMutability": "nonpayable",
      "type": "function"
    },
    {
      "inputs": [
        {
          "internalType": "bytes4",
          "name": "interfaceId",
          "type": "bytes4"
        }
      ],
      "name": "supportsInterface",
      "outputs": [
        {
          "internalType": "bool",
          "name": "",
          "type": "bool"
        }
      ],
      "stateMutability": "view",
      "type": "function"
    },
    {
      "inputs": [
        {
          "internalType": "address",
          "name": "tokenAddress",
          "type": "address"
        }
      ],
      "name": "supportsToken",
      "outputs": [
        {
          "internalType": "bool",
          "name": "",
          "type": "bool"
        }
      ],
      "stateMutability": "view",
      "type": "function"
    },
    {
      "inputs": [],
      "name": "unpause",
      "outputs": [],
      "stateMutability": "nonpayable",
      "type": "function"
    },
    {
      "inputs": [
        {
          "internalType": "address",
          "name": "newImplementation",
          "type": "address"
        }
      ],
      "name": "upgradeTo",
      "outputs": [],
      "stateMutability": "nonpayable",
      "type": "function"
    },
    {
      "inputs": [
        {
          "internalType": "address",
          "name": "newImplementation",
          "type": "address"
        },
        {
          "internalType": "bytes",
          "name": "data",
          "type": "bytes"
        }
      ],
      "name": "upgradeToAndCall",
      "outputs": [],
      "stateMutability": "payable",
      "type": "function"
    },
    {
      "inputs": [
        {
          "internalType": "address",
          "name": "tokenAddress",
          "type": "address"
        },
        {
          "internalType": "address",
          "name": "recipient",
          "type": "address"
        },
        {
          "internalType": "uint256",
          "name": "tokenAmount",
          "type": "uint256"
        }
      ],
      "name": "withdraw",
      "outputs": [],
      "stateMutability": "nonpayable",
      "type": "function"
    },
    {
      "inputs": [
        {
          "internalType": "address",
          "name": "tokenAddress",
          "type": "address"
        },
        {
          "internalType": "address",
          "name": "recipient",
          "type": "address"
        }
      ],
      "name": "withdrawAll",
      "outputs": [],
      "stateMutability": "nonpayable",
      "type": "function"
    }
  ],
  "transactionHash": "0x7e031beedc9cae053397a457dc84540e5a4acd33ada680c60b782137c1d7c4b9",
  "args": [],
  "solcInputHash": "f7d03dd6e1ae76ba59a3c936c5c3225b",
  "bytecode": "0x60a06040523060601b60805234801561001757600080fd5b5060805160601c61237061004b60003960008181610c4501528181610c8501528181610e230152610e6301526123706000f3fe6080604052600436106101c45760003560e01c806369ffa08a116100f857806394217ad11161009057806394217ad11461077f578063a217fddf146107a0578063c99c7d93146107b5578063d391014b146107ee578063d547741f14610810578063d9caed1214610849578063ed8a1e54146102b4578063ef5cfb8c1461088c578063f340fa01146108bf57600080fd5b806369ffa08a146105ce5780636c00c7f0146106095780636c461a731461064257806370480275146106755780638456cb59146106a85780638a0dac4a146106bd5780638bad0c0a146106f0578063904d32611461070557806391d148541461074657600080fd5b80632f2ff15d1161016b5780632f2ff15d146103a7578063363f68ce146103e057806336568abe146104215780633659cfe61461045a57806337cef7911461048d5780633f4ba83a146104b857806343060237146104cd5780634f1ef286146105005780635c975abb146105b657600080fd5b806301ffc9a7146101c9578063061f76501461021157806309b12ff51461024457806309cae2c8146102795780631fd433aa146102b4578063248a9ca3146102f957806324a3d6221461033357806324d7806c14610374575b600080fd5b3480156101d557600080fd5b506101fd600480360360208110156101ec57600080fd5b50356001600160e01b0319166108f2565b604080519115158252519081900360200190f35b34801561021d57600080fd5b506101fd6004803603602081101561023457600080fd5b50356001600160a01b0316610929565b34801561025057600080fd5b506102776004803603602081101561026757600080fd5b50356001600160a01b0316610934565b005b34801561028557600080fd5b506102776004803603604081101561029c57600080fd5b506001600160a01b03813581169160200135166109d5565b3480156102c057600080fd5b506102e7600480360360208110156102d757600080fd5b50356001600160a01b0316610afd565b60408051918252519081900360200190f35b34801561030557600080fd5b506102e76004803603602081101561031c57600080fd5b5035600090815260c9602052604090206001015490565b34801561033f57600080fd5b5060fc546103589061010090046001600160a01b031681565b604080516001600160a01b039092168252519081900360200190f35b34801561038057600080fd5b506101fd6004803603602081101561039757600080fd5b50356001600160a01b0316610b7b565b3480156103b357600080fd5b50610277600480360360408110156103ca57600080fd5b50803590602001356001600160a01b0316610b95565b3480156103ec57600080fd5b506102e76004803603602081101561040357600080fd5b50610131602052356001600160a01b03166000908152604090205481565b34801561042d57600080fd5b506102776004803603604081101561044457600080fd5b50803590602001356001600160a01b0316610bc0565b34801561046657600080fd5b506102776004803603602081101561047d57600080fd5b50356001600160a01b0316610c3a565b34801561049957600080fd5b506102e7600480360360208110156104b057600080fd5b506000919050565b3480156104c457600080fd5b50610277610d03565b3480156104d957600080fd5b50610277600480360360208110156104f057600080fd5b50356001600160a01b0316610dc1565b6102776004803603604081101561051657600080fd5b6001600160a01b03823516919081019060408101602082013564010000000081111561054157600080fd5b82018360208201111561055357600080fd5b8035906020019184600183028401116401000000008311171561057557600080fd5b91908080601f016020809104026020016040519081016040528093929190818152602001838380828437600092019190915250929550610e18945050505050565b3480156105c257600080fd5b5060fc5460ff166101fd565b3480156105da57600080fd5b50610277600480360360408110156105f157600080fd5b506001600160a01b0381358116916020013516610ece565b34801561061557600080fd5b506102776004803603604081101561062c57600080fd5b506001600160a01b038135169060200135610f22565b34801561064e57600080fd5b506102776004803603602081101561066557600080fd5b50356001600160a01b0316610f73565b34801561068157600080fd5b506102776004803603602081101561069857600080fd5b50356001600160a01b031661107e565b3480156106b457600080fd5b5061027761118b565b3480156106c957600080fd5b50610277600480360360208110156106e057600080fd5b50356001600160a01b031661123f565b3480156106fc57600080fd5b5061027761129b565b34801561071157600080fd5b506102e76004803603602081101561072857600080fd5b50610130602052356001600160a01b03166000908152604090205481565b34801561075257600080fd5b506101fd6004803603604081101561076957600080fd5b50803590602001356001600160a01b03166112d2565b34801561078b57600080fd5b5061012f54610358906001600160a01b031681565b3480156107ac57600080fd5b506102e7600081565b3480156107c157600080fd5b50610277600480360360408110156107d857600080fd5b506001600160a01b0381351690602001356112fd565b3480156107fa57600080fd5b506102e76000805160206122f483398151915281565b34801561081c57600080fd5b506102776004803603604081101561083357600080fd5b50803590602001356001600160a01b031661134e565b34801561085557600080fd5b506102776004803603606081101561086c57600080fd5b506001600160a01b03813581169160208101359091169060400135611374565b34801561089857600080fd5b50610277600480360360208110156108af57600080fd5b50356001600160a01b031661141f565b3480156108cb57600080fd5b50610277600480360360208110156108e257600080fd5b50356001600160a01b0316611453565b60006001600160e01b03198216637965db0b60e01b148061092357506301ffc9a760e01b6001600160e01b03198316145b92915050565b600061092382611498565b600054610100900460ff1661094f5760005460ff1615610953565b303b155b6109785760405162461bcd60e51b815260040161096f90612178565b60405180910390fd5b600054610100900460ff1615801561099a576000805461ffff19166101011790555b6109a333610f73565b61012f80546001600160a01b0319166001600160a01b03841617905580156109d1576000805461ff00191690555b5050565b61012f546001600160a01b03163314610a1f5760405162461bcd60e51b815260040180806020018281038252602d8152602001806122c7602d913960400191505060405180910390fd5b81610a2981611498565b610a645760405162461bcd60e51b81526004018080602001828103825260258152602001806122a26025913960400191505060405180910390fd5b6000839050610af783826001600160a01b03166370a08231306040518263ffffffff1660e01b815260040180826001600160a01b0316815260200191505060206040518083038186803b158015610aba57600080fd5b505afa158015610ace573d6000803e3d6000fd5b505050506040513d6020811015610ae457600080fd5b50516001600160a01b0384169190611530565b50505050565b604080516370a0823160e01b8152306004820152905160009183916001600160a01b038316916370a08231916024808301926020929190829003018186803b158015610b4857600080fd5b505afa158015610b5c573d6000803e3d6000fd5b505050506040513d6020811015610b7257600080fd5b50519392505050565b60006109236000805160206122f4833981519152836112d2565b600082815260c96020526040902060010154610bb18133611582565b610bbb83836115e6565b505050565b6001600160a01b0381163314610c305760405162461bcd60e51b815260206004820152602f60248201527f416363657373436f6e74726f6c3a2063616e206f6e6c792072656e6f756e636560448201526e103937b632b9903337b91039b2b63360891b606482015260840161096f565b6109d1828261166c565b306001600160a01b037f0000000000000000000000000000000000000000000000000000000000000000161415610c835760405162461bcd60e51b815260040161096f9061202d565b7f00000000000000000000000000000000000000000000000000000000000000006001600160a01b0316610cb56116d3565b6001600160a01b031614610cdb5760405162461bcd60e51b815260040161096f90612079565b610ce48161141f565b60408051600080825260208201909252610d0091839190611701565b50565b60fc5461010090046001600160a01b03163314610d325760405162461bcd60e51b815260040161096f906120f4565b60fc5460ff16610d7d5760405162461bcd60e51b815260206004820152601660248201527510dbdb9d1c9bdb1b195c8e881b9bdd081c185d5cd95960521b604482015260640161096f565b60fc805460ff191690556040517f5db9ee0a495bf2e6ff9c91a7834c1ba4fdd244a5e8aa4e537bd38aeae4b073aa90610db7903390611fe6565b60405180910390a1565b610dd96000805160206122f4833981519152336112d2565b610df55760405162461bcd60e51b815260040161096f906120c5565b61012f80546001600160a01b0319166001600160a01b0392909216919091179055565b306001600160a01b037f0000000000000000000000000000000000000000000000000000000000000000161415610e615760405162461bcd60e51b815260040161096f9061202d565b7f00000000000000000000000000000000000000000000000000000000000000006001600160a01b0316610e936116d3565b6001600160a01b031614610eb95760405162461bcd60e51b815260040161096f90612079565b610ec28261141f565b6109d182826001611701565b61012f546001600160a01b03163314610f185760405162461bcd60e51b815260040180806020018281038252602d8152602001806122c7602d913960400191505060405180910390fd5b6109d18282611841565b610f3a6000805160206122f4833981519152336112d2565b610f565760405162461bcd60e51b815260040161096f906120c5565b6001600160a01b0390911660009081526101316020526040902055565b600054610100900460ff16610f8e5760005460ff1615610f92565b303b155b610fae5760405162461bcd60e51b815260040161096f90612178565b600054610100900460ff16158015610fd0576000805461ffff19166101011790555b6001600160a01b038216610ff65760405162461bcd60e51b815260040161096f90612146565b60fc805460ff191690556001600160a01b038216600081815260fb6020526040902080546001600160a01b03191690911790556110316118ce565b6110496000805160206122f483398151915283611907565b60fc8054610100600160a81b0319166101006001600160a01b0385160217905580156109d1576000805461ff00191690555050565b6110966000805160206122f4833981519152336112d2565b6110b25760405162461bcd60e51b815260040161096f906120c5565b6001600160a01b0381166110d85760405162461bcd60e51b815260040161096f90612146565b6001600160a01b03818116600090815260fb6020526040902054161561114a5760405162461bcd60e51b815260206004820152602160248201527f436f6e74726f6c6c65723a2061646d696e20616c7265616479206578697374656044820152601960fa1b606482015260840161096f565b6001600160a01b038116600081815260fb6020526040902080546001600160a01b0319169091179055610d006000805160206122f483398151915282611907565b60fc5461010090046001600160a01b031633146111ba5760405162461bcd60e51b815260040161096f906120f4565b60fc5460ff16156112025760405162461bcd60e51b815260206004820152601260248201527110dbdb9d1c9bdb1b195c8e881c185d5cd95960721b604482015260640161096f565b60fc805460ff191660011790556040517f62e78cea01bee320cd4e420270b5ea74000d11b0c9f74754ebdbfc544b05a25890610db7903390611fe6565b6112576000805160206122f4833981519152336112d2565b6112735760405162461bcd60e51b815260040161096f906120c5565b60fc80546001600160a01b0390921661010002610100600160a81b0319909216919091179055565b6112b36000805160206122f483398151915233610bc0565b33600090815260fb6020526040902080546001600160a01b0319169055565b600091825260c9602090815260408084206001600160a01b0393909316845291905290205460ff1690565b6113156000805160206122f4833981519152336112d2565b6113315760405162461bcd60e51b815260040161096f906120c5565b6001600160a01b0390911660009081526101306020526040902055565b600082815260c9602052604090206001015461136a8133611582565b610bbb838361166c565b61012f546001600160a01b031633146113be5760405162461bcd60e51b815260040180806020018281038252602d8152602001806122c7602d913960400191505060405180910390fd5b826113c881611498565b6114035760405162461bcd60e51b81526004018080602001828103825260258152602001806122a26025913960400191505060405180910390fd5b836114186001600160a01b0382168585611530565b5050505050565b6114376000805160206122f4833981519152336112d2565b610d005760405162461bcd60e51b815260040161096f906120c5565b8061145d81611498565b6109d15760405162461bcd60e51b81526004018080602001828103825260258152602001806122a26025913960400191505060405180910390fd5b60006001600160a01b0382161580159061092357506000826001600160a01b03166370a08231306040518263ffffffff1660e01b815260040180826001600160a01b0316815260200191505060206040518083038186803b1580156114fc57600080fd5b505afa158015611510573d6000803e3d6000fd5b505050506040513d602081101561152657600080fd5b5051101592915050565b604080516001600160a01b038416602482015260448082018490528251808303909101815260649091019091526020810180516001600160e01b031663a9059cbb60e01b179052610bbb908490611911565b61158c82826112d2565b6109d1576115a4816001600160a01b031660146119e3565b6115af8360206119e3565b6040516020016115c0929190611f77565b60408051601f198184030181529082905262461bcd60e51b825261096f91600401611ffa565b6115f082826112d2565b6109d157600082815260c9602090815260408083206001600160a01b03851684529091529020805460ff191660011790556116283390565b6001600160a01b0316816001600160a01b0316837f2f8788117e7eff1d82e926ec794901d17c78024a50270940304540a733656f0d60405160405180910390a45050565b61167682826112d2565b156109d157600082815260c9602090815260408083206001600160a01b0385168085529252808320805460ff1916905551339285917ff6391f5c32d9c69d2a47ea670b442974b53935d1edc7fd64eb21e047a839171b9190a45050565b7f360894a13ba1a3210667c828492db98dca3e2076cc3735a920a3ca505d382bbc546001600160a01b031690565b600061170b6116d3565b905061171684611bcc565b6000835111806117235750815b15611734576117328484611c71565b505b7f4910fdfa16fed3260ed0e7147f7cc6da11a60208b5b9406d12a635614ffd9143805460ff1661141857805460ff191660011781556040516117af908690611780908590602401611fe6565b60408051601f198184030181529190526020810180516001600160e01b0316631b2ce7f360e11b179052611c71565b50805460ff191681556117c06116d3565b6001600160a01b0316826001600160a01b0316146118385760405162461bcd60e51b815260206004820152602f60248201527f45524331393637557067726164653a207570677261646520627265616b73206660448201526e75727468657220757067726164657360881b606482015260840161096f565b61141885611d5c565b604080516370a0823160e01b8152306004820152905183916000916001600160a01b038416916370a08231916024808301926020929190829003018186803b15801561188c57600080fd5b505afa1580156118a0573d6000803e3d6000fd5b505050506040513d60208110156118b657600080fd5b50519050610af76001600160a01b0383168483611530565b600054610100900460ff166118f55760405162461bcd60e51b815260040161096f906121c6565b6118fd611d9c565b611905611d9c565b565b6109d182826115e6565b6000611966826040518060400160405280602081526020017f5361666545524332303a206c6f772d6c6576656c2063616c6c206661696c6564815250856001600160a01b0316611dc39092919063ffffffff16565b805190915015610bbb57808060200190518101906119849190611f3b565b610bbb5760405162461bcd60e51b815260206004820152602a60248201527f5361666545524332303a204552433230206f7065726174696f6e20646964206e6044820152691bdd081cdd58d8d9595960b21b606482015260840161096f565b606060006119f2836002612229565b6119fd906002612211565b67ffffffffffffffff811115611a2357634e487b7160e01b600052604160045260246000fd5b6040519080825280601f01601f191660200182016040528015611a4d576020820181803683370190505b509050600360fc1b81600081518110611a7657634e487b7160e01b600052603260045260246000fd5b60200101906001600160f81b031916908160001a905350600f60fb1b81600181518110611ab357634e487b7160e01b600052603260045260246000fd5b60200101906001600160f81b031916908160001a9053506000611ad7846002612229565b611ae2906001612211565b90505b6001811115611b76576f181899199a1a9b1b9c1cb0b131b232b360811b85600f1660108110611b2457634e487b7160e01b600052603260045260246000fd5b1a60f81b828281518110611b4857634e487b7160e01b600052603260045260246000fd5b60200101906001600160f81b031916908160001a90535060049490941c93611b6f81612274565b9050611ae5565b508315611bc55760405162461bcd60e51b815260206004820181905260248201527f537472696e67733a20686578206c656e67746820696e73756666696369656e74604482015260640161096f565b9392505050565b803b611c305760405162461bcd60e51b815260206004820152602d60248201527f455243313936373a206e657720696d706c656d656e746174696f6e206973206e60448201526c1bdd08184818dbdb9d1c9858dd609a1b606482015260840161096f565b7f360894a13ba1a3210667c828492db98dca3e2076cc3735a920a3ca505d382bbc80546001600160a01b0319166001600160a01b0392909216919091179055565b6060823b611cd05760405162461bcd60e51b815260206004820152602660248201527f416464726573733a2064656c65676174652063616c6c20746f206e6f6e2d636f6044820152651b9d1c9858dd60d21b606482015260840161096f565b600080846001600160a01b031684604051611ceb9190611f5b565b600060405180830381855af49150503d8060008114611d26576040519150601f19603f3d011682016040523d82523d6000602084013e611d2b565b606091505b5091509150611d53828260405180606001604052806027815260200161231460279139611dda565b95945050505050565b611d6581611bcc565b6040516001600160a01b038216907fbc7cd75a20ee27fd9adebab32041f755214dbc6bffa90cc0225b39da2e5c2d3b90600090a250565b600054610100900460ff166119055760405162461bcd60e51b815260040161096f906121c6565b6060611dd28484600085611e13565b949350505050565b60608315611de9575081611bc5565b825115611df95782518084602001fd5b8160405162461bcd60e51b815260040161096f9190611ffa565b606082471015611e745760405162461bcd60e51b815260206004820152602660248201527f416464726573733a20696e73756666696369656e742062616c616e636520666f6044820152651c8818d85b1b60d21b606482015260840161096f565b843b611ec25760405162461bcd60e51b815260206004820152601d60248201527f416464726573733a2063616c6c20746f206e6f6e2d636f6e7472616374000000604482015260640161096f565b600080866001600160a01b03168587604051611ede9190611f5b565b60006040518083038185875af1925050503d8060008114611f1b576040519150601f19603f3d011682016040523d82523d6000602084013e611f20565b606091505b5091509150611f30828286611dda565b979650505050505050565b600060208284031215611f4c578081fd5b81518015158114611bc5578182fd5b60008251611f6d818460208701612248565b9190910192915050565b76020b1b1b2b9b9a1b7b73a3937b61d1030b1b1b7bab73a1604d1b815260008351611fa9816017850160208801612248565b7001034b99036b4b9b9b4b733903937b6329607d1b6017918401918201528351611fda816028840160208801612248565b01602801949350505050565b6001600160a01b0391909116815260200190565b6020815260008251806020840152612019816040850160208701612248565b601f01601f19169190910160400192915050565b6020808252602c908201527f46756e6374696f6e206d7573742062652063616c6c6564207468726f7567682060408201526b19195b1959d85d1958d85b1b60a21b606082015260800190565b6020808252602c908201527f46756e6374696f6e206d7573742062652063616c6c6564207468726f7567682060408201526b6163746976652070726f787960a01b606082015260800190565b60208082526015908201527421b7b73a3937b63632b91d103737ba1030b236b4b760591b604082015260600190565b60208082526032908201527f436f6e74726f6c6c65723a2063616c6c657220646f6573206e6f7420686176656040820152712074686520677561726469616e20726f6c6560701b606082015260800190565b602080825260189082015277436f6e74726f6c6c65723a2061646472657373207a65726f60401b604082015260600190565b6020808252602e908201527f496e697469616c697a61626c653a20636f6e747261637420697320616c72656160408201526d191e481a5b9a5d1a585b1a5e995960921b606082015260800190565b6020808252602b908201527f496e697469616c697a61626c653a20636f6e7472616374206973206e6f74206960408201526a6e697469616c697a696e6760a81b606082015260800190565b600082198211156122245761222461228b565b500190565b60008160001904831182151516156122435761224361228b565b500290565b60005b8381101561226357818101518382015260200161224b565b83811115610af75750506000910152565b6000816122835761228361228b565b506000190190565b634e487b7160e01b600052601160045260246000fdfe50757265546f6b656e416461707465723a20746f6b656e206e6f7420737570706f7274656450757265546f6b656e416461707465723a206f6e6c79206173736574206d616e616765722063616e2063616c6c2172861495e7b85edac73e3cd5fbb42dd675baadf627720e687bcfdaca025096416464726573733a206c6f772d6c6576656c2064656c65676174652063616c6c206661696c6564a2646970667358221220364245c2f566b89b5d884d3df3a344925a9717d9469ace78b01ff7134f2f1c4d64736f6c63430008040033",
  "devdoc": {
    "kind": "dev",
    "methods": {
      "addAdmin(address)": {
        "details": "Add a new admin account",
        "params": {
          "account": "Account address"
        }
      },
      "deposit(address)": {
        "details": "Deposits the given amount of tokens in the underlying money market."
      },
      "getRoleAdmin(bytes32)": {
        "details": "Returns the admin role that controls `role`. See {grantRole} and {revokeRole}. To change a role's admin, use {_setRoleAdmin}."
      },
      "getSupply(address)": {
        "details": "Returns the supply for the given token, including accrued interest. This function can have side effects."
      },
      "getSupplyView(address)": {
        "details": "Returns the supply for the given token; it might not include accrued interest. This function *cannot* have side effects."
      },
      "grantRole(bytes32,address)": {
        "details": "Grants `role` to `account`. If `account` had not been already granted `role`, emits a {RoleGranted} event. Requirements: - the caller must have ``role``'s admin role."
      },
      "hasRole(bytes32,address)": {
        "details": "Returns `true` if `account` has been granted `role`."
      },
      "isAdmin(address)": {
        "details": "Check if the address provided is the admin",
        "params": {
          "account": "Account address"
        }
      },
      "pause()": {
        "details": "Called by a pauser to pause, triggers stopped state."
      },
      "paused()": {
        "details": "Returns true if the contract is paused, and false otherwise."
      },
      "renounceAdmin()": {
        "details": "Renouce the admin from the sender's address"
      },
      "renounceRole(bytes32,address)": {
        "details": "Revokes `role` from the calling account. Roles are often managed via {grantRole} and {revokeRole}: this function's purpose is to provide a mechanism for accounts to lose their privileges if they are compromised (such as when a trusted device is misplaced). If the calling account had been revoked `role`, emits a {RoleRevoked} event. Requirements: - the caller must be `account`."
      },
      "revokeRole(bytes32,address)": {
        "details": "Revokes `role` from `account`. If `account` had been granted `role`, emits a {RoleRevoked} event. Requirements: - the caller must have ``role``'s admin role."
      },
      "setGuardian(address)": {
        "details": "Set pauseGuardian account",
        "params": {
          "account": "Account address"
        }
      },
      "supportsInterface(bytes4)": {
        "details": "See {IERC165-supportsInterface}."
      },
      "supportsToken(address)": {
        "details": "Indicates if the adapter supports the token with the given address."
      },
      "unpause()": {
        "details": "Called by a pauser to unpause, returns to normal state."
      },
      "upgradeTo(address)": {
        "details": "Upgrade the implementation of the proxy to `newImplementation`. Calls {_authorizeUpgrade}. Emits an {Upgraded} event."
      },
      "upgradeToAndCall(address,bytes)": {
        "details": "Upgrade the implementation of the proxy to `newImplementation`, and subsequently execute the function call encoded in `data`. Calls {_authorizeUpgrade}. Emits an {Upgraded} event."
      },
      "withdrawAll(address,address)": {
        "details": "Withdraws all the tokens from the underlying money market and transfers them to `recipient`."
      }
    },
    "stateVariables": {
      "ceilingMap": {
        "details": "The maximum amount that should be deposited in money market",
        "params": {
          "tokenAddress": "The address of token whose ceiling is being fetched"
        }
      },
      "floorMap": {
        "details": "The minimum amount that should be deposited in money market before moving to next priority market",
        "params": {
          "tokenAddress": "The address of token whose floor is being fetched"
        }
      }
    },
    "version": 1
  },
  "userdoc": {
    "kind": "user",
    "methods": {},
    "version": 1
  },
  "storageLayout": {
    "storage": [
      {
        "astId": 824,
        "contract": "contracts/asset/PureTokenAdapter.sol:PureTokenAdapter",
        "label": "_initialized",
        "offset": 0,
        "slot": "0",
        "type": "t_bool"
      },
      {
        "astId": 827,
        "contract": "contracts/asset/PureTokenAdapter.sol:PureTokenAdapter",
        "label": "_initializing",
        "offset": 1,
        "slot": "0",
        "type": "t_bool"
      },
      {
        "astId": 806,
        "contract": "contracts/asset/PureTokenAdapter.sol:PureTokenAdapter",
        "label": "__gap",
        "offset": 0,
        "slot": "1",
        "type": "t_array(t_uint256)50_storage"
      },
      {
        "astId": 1001,
        "contract": "contracts/asset/PureTokenAdapter.sol:PureTokenAdapter",
        "label": "__gap",
        "offset": 0,
        "slot": "51",
        "type": "t_array(t_uint256)50_storage"
      },
      {
        "astId": 2481,
        "contract": "contracts/asset/PureTokenAdapter.sol:PureTokenAdapter",
        "label": "__gap",
        "offset": 0,
        "slot": "101",
        "type": "t_array(t_uint256)50_storage"
      },
      {
        "astId": 3403,
        "contract": "contracts/asset/PureTokenAdapter.sol:PureTokenAdapter",
        "label": "__gap",
        "offset": 0,
        "slot": "151",
        "type": "t_array(t_uint256)50_storage"
      },
      {
        "astId": 48,
        "contract": "contracts/asset/PureTokenAdapter.sol:PureTokenAdapter",
        "label": "_roles",
        "offset": 0,
        "slot": "201",
        "type": "t_mapping(t_bytes32,t_struct(RoleData)43_storage)"
      },
      {
        "astId": 335,
        "contract": "contracts/asset/PureTokenAdapter.sol:PureTokenAdapter",
        "label": "__gap",
        "offset": 0,
        "slot": "202",
        "type": "t_array(t_uint256)49_storage"
      },
      {
        "astId": 12161,
        "contract": "contracts/asset/PureTokenAdapter.sol:PureTokenAdapter",
        "label": "_admins",
        "offset": 0,
        "slot": "251",
        "type": "t_mapping(t_address,t_address)"
      },
      {
        "astId": 12163,
        "contract": "contracts/asset/PureTokenAdapter.sol:PureTokenAdapter",
        "label": "_paused",
        "offset": 0,
        "slot": "252",
        "type": "t_bool"
      },
      {
        "astId": 12165,
        "contract": "contracts/asset/PureTokenAdapter.sol:PureTokenAdapter",
        "label": "pauseGuardian",
        "offset": 1,
        "slot": "252",
        "type": "t_address"
      },
      {
        "astId": 12405,
        "contract": "contracts/asset/PureTokenAdapter.sol:PureTokenAdapter",
        "label": "______gap",
        "offset": 0,
        "slot": "253",
        "type": "t_array(t_uint256)50_storage"
      },
      {
        "astId": 16087,
        "contract": "contracts/asset/PureTokenAdapter.sol:PureTokenAdapter",
        "label": "assetManager",
        "offset": 0,
        "slot": "303",
        "type": "t_address"
      },
      {
        "astId": 16092,
        "contract": "contracts/asset/PureTokenAdapter.sol:PureTokenAdapter",
        "label": "floorMap",
        "offset": 0,
        "slot": "304",
        "type": "t_mapping(t_address,t_uint256)"
      },
      {
        "astId": 16097,
        "contract": "contracts/asset/PureTokenAdapter.sol:PureTokenAdapter",
        "label": "ceilingMap",
        "offset": 0,
        "slot": "305",
        "type": "t_mapping(t_address,t_uint256)"
      }
    ],
    "types": {
      "t_address": {
        "encoding": "inplace",
        "label": "address",
        "numberOfBytes": "20"
      },
      "t_array(t_uint256)49_storage": {
        "base": "t_uint256",
        "encoding": "inplace",
        "label": "uint256[49]",
        "numberOfBytes": "1568"
      },
      "t_array(t_uint256)50_storage": {
        "base": "t_uint256",
        "encoding": "inplace",
        "label": "uint256[50]",
        "numberOfBytes": "1600"
      },
      "t_bool": {
        "encoding": "inplace",
        "label": "bool",
        "numberOfBytes": "1"
      },
      "t_bytes32": {
        "encoding": "inplace",
        "label": "bytes32",
        "numberOfBytes": "32"
      },
      "t_mapping(t_address,t_address)": {
        "encoding": "mapping",
        "key": "t_address",
        "label": "mapping(address => address)",
        "numberOfBytes": "32",
        "value": "t_address"
      },
      "t_mapping(t_address,t_bool)": {
        "encoding": "mapping",
        "key": "t_address",
        "label": "mapping(address => bool)",
        "numberOfBytes": "32",
        "value": "t_bool"
      },
      "t_mapping(t_address,t_uint256)": {
        "encoding": "mapping",
        "key": "t_address",
        "label": "mapping(address => uint256)",
        "numberOfBytes": "32",
        "value": "t_uint256"
      },
      "t_mapping(t_bytes32,t_struct(RoleData)43_storage)": {
        "encoding": "mapping",
        "key": "t_bytes32",
        "label": "mapping(bytes32 => struct AccessControlUpgradeable.RoleData)",
        "numberOfBytes": "32",
        "value": "t_struct(RoleData)43_storage"
      },
      "t_struct(RoleData)43_storage": {
        "encoding": "inplace",
        "label": "struct AccessControlUpgradeable.RoleData",
        "members": [
          {
            "astId": 40,
            "contract": "contracts/asset/PureTokenAdapter.sol:PureTokenAdapter",
            "label": "members",
            "offset": 0,
            "slot": "0",
            "type": "t_mapping(t_address,t_bool)"
          },
          {
            "astId": 42,
            "contract": "contracts/asset/PureTokenAdapter.sol:PureTokenAdapter",
            "label": "adminRole",
            "offset": 0,
            "slot": "1",
            "type": "t_bytes32"
          }
        ],
        "numberOfBytes": "64"
      },
      "t_uint256": {
        "encoding": "inplace",
        "label": "uint256",
        "numberOfBytes": "32"
      }
    }
  }
}