{
  "address": "0x01Cc03de0742dF77b934C3aFA848AE2BB73576Ed",
  "abi": [
    {
      "inputs": [],
      "name": "AddressZero",
      "type": "error"
    },
    {
      "inputs": [],
      "name": "AmountZero",
      "type": "error"
    },
    {
      "inputs": [],
      "name": "AssetManagerDepositFailed",
      "type": "error"
    },
    {
      "inputs": [],
      "name": "AssetManagerWithdrawFailed",
      "type": "error"
    },
    {
      "inputs": [],
      "name": "AuthFailed",
      "type": "error"
    },
    {
      "inputs": [],
      "name": "ErrorData",
      "type": "error"
    },
    {
      "inputs": [],
      "name": "ErrorSelfVouching",
      "type": "error"
    },
    {
      "inputs": [],
      "name": "ErrorTotalStake",
      "type": "error"
    },
    {
      "inputs": [],
      "name": "ExceedsLocked",
      "type": "error"
    },
    {
      "inputs": [],
      "name": "ExceedsTotalFrozen",
      "type": "error"
    },
    {
      "inputs": [],
      "name": "ExceedsTotalStaked",
      "type": "error"
    },
    {
      "inputs": [],
      "name": "InsufficientBalance",
      "type": "error"
    },
    {
      "inputs": [],
      "name": "LengthNotMatch",
      "type": "error"
    },
    {
      "inputs": [],
      "name": "LockedStakeNonZero",
      "type": "error"
    },
    {
      "inputs": [],
      "name": "MaxTrustLimitReached",
      "type": "error"
    },
    {
      "inputs": [],
      "name": "NoExistingMember",
      "type": "error"
    },
    {
      "inputs": [],
      "name": "NotCreditLimitModel",
      "type": "error"
    },
    {
      "inputs": [],
      "name": "NotEnoughStakers",
      "type": "error"
    },
    {
      "inputs": [],
      "name": "NotOverdue",
      "type": "error"
    },
    {
      "inputs": [],
      "name": "StakeLimitReached",
      "type": "error"
    },
    {
      "inputs": [],
      "name": "TrustAmountTooLarge",
      "type": "error"
    },
    {
      "anonymous": false,
      "inputs": [
        {
          "indexed": false,
          "internalType": "address",
          "name": "previousAdmin",
          "type": "address"
        },
        {
          "indexed": false,
          "internalType": "address",
          "name": "newAdmin",
          "type": "address"
        }
      ],
      "name": "AdminChanged",
      "type": "event"
    },
    {
      "anonymous": false,
      "inputs": [
        {
          "indexed": true,
          "internalType": "address",
          "name": "beacon",
          "type": "address"
        }
      ],
      "name": "BeaconUpgraded",
      "type": "event"
    },
    {
      "anonymous": false,
      "inputs": [
        {
          "indexed": false,
          "internalType": "address",
          "name": "member",
          "type": "address"
        }
      ],
      "name": "LogAddMember",
      "type": "event"
    },
    {
      "anonymous": false,
      "inputs": [
        {
          "indexed": true,
          "internalType": "address",
          "name": "account",
          "type": "address"
        },
        {
          "indexed": true,
          "internalType": "address",
          "name": "borrower",
          "type": "address"
        }
      ],
      "name": "LogCancelVouch",
      "type": "event"
    },
    {
      "anonymous": false,
      "inputs": [
        {
          "indexed": true,
          "internalType": "address",
          "name": "staker",
          "type": "address"
        },
        {
          "indexed": true,
          "internalType": "address",
          "name": "borrower",
          "type": "address"
        },
        {
          "indexed": false,
          "internalType": "uint256",
          "name": "amount",
          "type": "uint256"
        }
      ],
      "name": "LogDebtWriteOff",
      "type": "event"
    },
    {
      "anonymous": false,
      "inputs": [
        {
          "indexed": false,
          "internalType": "address",
          "name": "newCreditLimitModel",
          "type": "address"
        }
      ],
      "name": "LogNewCreditLimitModel",
      "type": "event"
    },
    {
      "anonymous": false,
      "inputs": [
        {
          "indexed": true,
          "internalType": "address",
          "name": "account",
          "type": "address"
        },
        {
          "indexed": true,
          "internalType": "address",
          "name": "borrower",
          "type": "address"
        }
      ],
      "name": "LogRegisterMember",
      "type": "event"
    },
    {
      "anonymous": false,
      "inputs": [
        {
          "indexed": false,
          "internalType": "uint256",
          "name": "oldMaxStakeAmount",
          "type": "uint256"
        },
        {
          "indexed": false,
          "internalType": "uint256",
          "name": "newMaxStakeAmount",
          "type": "uint256"
        }
      ],
      "name": "LogSetMaxStakeAmount",
      "type": "event"
    },
    {
      "anonymous": false,
      "inputs": [
        {
          "indexed": false,
          "internalType": "uint256",
          "name": "oldMemberFee",
          "type": "uint256"
        },
        {
          "indexed": false,
          "internalType": "uint256",
          "name": "newMemberFee",
          "type": "uint256"
        }
      ],
      "name": "LogSetNewMemberFee",
      "type": "event"
    },
    {
      "anonymous": false,
      "inputs": [
        {
          "indexed": false,
          "internalType": "address",
          "name": "uToken",
          "type": "address"
        }
      ],
      "name": "LogSetUToken",
      "type": "event"
    },
    {
      "anonymous": false,
      "inputs": [
        {
          "indexed": true,
          "internalType": "address",
          "name": "account",
          "type": "address"
        },
        {
          "indexed": false,
          "internalType": "uint256",
          "name": "amount",
          "type": "uint256"
        }
      ],
      "name": "LogStake",
      "type": "event"
    },
    {
      "anonymous": false,
      "inputs": [
        {
          "indexed": true,
          "internalType": "address",
          "name": "account",
          "type": "address"
        },
        {
          "indexed": false,
          "internalType": "uint256",
          "name": "amount",
          "type": "uint256"
        }
      ],
      "name": "LogUnstake",
      "type": "event"
    },
    {
      "anonymous": false,
      "inputs": [
        {
          "indexed": true,
          "internalType": "address",
          "name": "staker",
          "type": "address"
        },
        {
          "indexed": true,
          "internalType": "address",
          "name": "borrower",
          "type": "address"
        },
        {
          "indexed": false,
          "internalType": "uint256",
          "name": "trustAmount",
          "type": "uint256"
        }
      ],
      "name": "LogUpdateTrust",
      "type": "event"
    },
    {
      "anonymous": false,
      "inputs": [
        {
          "indexed": false,
          "internalType": "address",
          "name": "account",
          "type": "address"
        }
      ],
      "name": "Paused",
      "type": "event"
    },
    {
      "anonymous": false,
      "inputs": [
        {
          "indexed": true,
          "internalType": "bytes32",
          "name": "role",
          "type": "bytes32"
        },
        {
          "indexed": true,
          "internalType": "bytes32",
          "name": "previousAdminRole",
          "type": "bytes32"
        },
        {
          "indexed": true,
          "internalType": "bytes32",
          "name": "newAdminRole",
          "type": "bytes32"
        }
      ],
      "name": "RoleAdminChanged",
      "type": "event"
    },
    {
      "anonymous": false,
      "inputs": [
        {
          "indexed": true,
          "internalType": "bytes32",
          "name": "role",
          "type": "bytes32"
        },
        {
          "indexed": true,
          "internalType": "address",
          "name": "account",
          "type": "address"
        },
        {
          "indexed": true,
          "internalType": "address",
          "name": "sender",
          "type": "address"
        }
      ],
      "name": "RoleGranted",
      "type": "event"
    },
    {
      "anonymous": false,
      "inputs": [
        {
          "indexed": true,
          "internalType": "bytes32",
          "name": "role",
          "type": "bytes32"
        },
        {
          "indexed": true,
          "internalType": "address",
          "name": "account",
          "type": "address"
        },
        {
          "indexed": true,
          "internalType": "address",
          "name": "sender",
          "type": "address"
        }
      ],
      "name": "RoleRevoked",
      "type": "event"
    },
    {
      "anonymous": false,
      "inputs": [
        {
          "indexed": false,
          "internalType": "address",
          "name": "account",
          "type": "address"
        }
      ],
      "name": "Unpaused",
      "type": "event"
    },
    {
      "anonymous": false,
      "inputs": [
        {
          "indexed": true,
          "internalType": "address",
          "name": "implementation",
          "type": "address"
        }
      ],
      "name": "Upgraded",
      "type": "event"
    },
    {
      "inputs": [],
      "name": "DEFAULT_ADMIN_ROLE",
      "outputs": [
        {
          "internalType": "bytes32",
          "name": "",
          "type": "bytes32"
        }
      ],
      "stateMutability": "view",
      "type": "function"
    },
    {
      "inputs": [],
      "name": "ROLE_ADMIN",
      "outputs": [
        {
          "internalType": "bytes32",
          "name": "",
          "type": "bytes32"
        }
      ],
      "stateMutability": "view",
      "type": "function"
    },
    {
      "inputs": [
        {
          "internalType": "address",
          "name": "admin_",
          "type": "address"
        }
      ],
      "name": "__Controller_init",
      "outputs": [],
      "stateMutability": "nonpayable",
      "type": "function"
    },
    {
      "inputs": [
        {
          "internalType": "address",
          "name": "assetManager_",
          "type": "address"
        },
        {
          "internalType": "address",
          "name": "unionToken_",
          "type": "address"
        },
        {
          "internalType": "address",
          "name": "stakingToken_",
          "type": "address"
        },
        {
          "internalType": "address",
          "name": "creditLimitModel_",
          "type": "address"
        },
        {
          "internalType": "address",
          "name": "comptroller_",
          "type": "address"
        },
        {
          "internalType": "address",
          "name": "admin_",
          "type": "address"
        }
      ],
      "name": "__UserManager_init",
      "outputs": [],
      "stateMutability": "nonpayable",
      "type": "function"
    },
    {
      "inputs": [
        {
          "internalType": "address",
          "name": "account",
          "type": "address"
        }
      ],
      "name": "addAdmin",
      "outputs": [],
      "stateMutability": "nonpayable",
      "type": "function"
    },
    {
      "inputs": [
        {
          "internalType": "address",
          "name": "account",
          "type": "address"
        }
      ],
      "name": "addMember",
      "outputs": [],
      "stateMutability": "nonpayable",
      "type": "function"
    },
    {
      "inputs": [],
      "name": "assetManager",
      "outputs": [
        {
          "internalType": "address",
          "name": "",
          "type": "address"
        }
      ],
      "stateMutability": "view",
      "type": "function"
    },
    {
      "inputs": [
        {
          "internalType": "address[]",
          "name": "accounts",
          "type": "address[]"
        },
        {
          "internalType": "bool[]",
          "name": "isOverdues",
          "type": "bool[]"
        }
      ],
      "name": "batchUpdateTotalFrozen",
      "outputs": [],
      "stateMutability": "nonpayable",
      "type": "function"
    },
    {
      "inputs": [
        {
          "internalType": "address",
          "name": "staker",
          "type": "address"
        },
        {
          "internalType": "address",
          "name": "borrower",
          "type": "address"
        }
      ],
      "name": "cancelVouch",
      "outputs": [],
      "stateMutability": "nonpayable",
      "type": "function"
    },
    {
      "inputs": [
        {
          "internalType": "address",
          "name": "account",
          "type": "address"
        }
      ],
      "name": "checkIsMember",
      "outputs": [
        {
          "internalType": "bool",
          "name": "",
          "type": "bool"
        }
      ],
      "stateMutability": "view",
      "type": "function"
    },
    {
      "inputs": [],
      "name": "comptroller",
      "outputs": [
        {
          "internalType": "contract IComptroller",
          "name": "",
          "type": "address"
        }
      ],
      "stateMutability": "view",
      "type": "function"
    },
    {
      "inputs": [],
      "name": "creditLimitModel",
      "outputs": [
        {
          "internalType": "contract ICreditLimitModel",
          "name": "",
          "type": "address"
        }
      ],
      "stateMutability": "view",
      "type": "function"
    },
    {
      "inputs": [
        {
          "internalType": "address",
          "name": "borrower",
          "type": "address"
        },
        {
          "internalType": "uint256",
          "name": "amount",
          "type": "uint256"
        }
      ],
      "name": "debtWriteOff",
      "outputs": [],
      "stateMutability": "nonpayable",
      "type": "function"
    },
    {
      "inputs": [
        {
          "internalType": "address",
          "name": "account",
          "type": "address"
        }
      ],
      "name": "getBorrowerAddresses",
      "outputs": [
        {
          "internalType": "address[]",
          "name": "",
          "type": "address[]"
        }
      ],
      "stateMutability": "view",
      "type": "function"
    },
    {
      "inputs": [
        {
          "internalType": "address",
          "name": "account",
          "type": "address"
        },
        {
          "internalType": "address",
          "name": "borrower",
          "type": "address"
        }
      ],
      "name": "getBorrowerAsset",
      "outputs": [
        {
          "internalType": "uint256",
          "name": "trustAmount",
          "type": "uint256"
        },
        {
          "internalType": "uint256",
          "name": "vouchingAmount",
          "type": "uint256"
        },
        {
          "internalType": "uint256",
          "name": "lockedStake",
          "type": "uint256"
        }
      ],
      "stateMutability": "view",
      "type": "function"
    },
    {
      "inputs": [
        {
          "internalType": "address",
          "name": "borrower",
          "type": "address"
        }
      ],
      "name": "getCreditLimit",
      "outputs": [
        {
          "internalType": "int256",
          "name": "",
          "type": "int256"
        }
      ],
      "stateMutability": "view",
      "type": "function"
    },
    {
      "inputs": [
        {
          "internalType": "address",
          "name": "staker",
          "type": "address"
        },
        {
          "internalType": "uint256",
          "name": "pastBlocks",
          "type": "uint256"
        }
      ],
      "name": "getFrozenCoinAge",
      "outputs": [
        {
          "internalType": "uint256",
          "name": "",
          "type": "uint256"
        }
      ],
      "stateMutability": "view",
      "type": "function"
    },
    {
      "inputs": [
        {
          "internalType": "address",
          "name": "staker",
          "type": "address"
        },
        {
          "internalType": "address",
          "name": "borrower",
          "type": "address"
        }
      ],
      "name": "getLockedStake",
      "outputs": [
        {
          "internalType": "uint256",
          "name": "",
          "type": "uint256"
        }
      ],
      "stateMutability": "view",
      "type": "function"
    },
    {
      "inputs": [
        {
          "internalType": "bytes32",
          "name": "role",
          "type": "bytes32"
        }
      ],
      "name": "getRoleAdmin",
      "outputs": [
        {
          "internalType": "bytes32",
          "name": "",
          "type": "bytes32"
        }
      ],
      "stateMutability": "view",
      "type": "function"
    },
    {
      "inputs": [
        {
          "internalType": "address",
          "name": "account",
          "type": "address"
        }
      ],
      "name": "getStakerAddresses",
      "outputs": [
        {
          "internalType": "address[]",
          "name": "",
          "type": "address[]"
        }
      ],
      "stateMutability": "view",
      "type": "function"
    },
    {
      "inputs": [
        {
          "internalType": "address",
          "name": "account",
          "type": "address"
        },
        {
          "internalType": "address",
          "name": "staker",
          "type": "address"
        }
      ],
      "name": "getStakerAsset",
      "outputs": [
        {
          "internalType": "uint256",
          "name": "trustAmount",
          "type": "uint256"
        },
        {
          "internalType": "uint256",
          "name": "vouchingAmount",
          "type": "uint256"
        },
        {
          "internalType": "uint256",
          "name": "lockedStake",
          "type": "uint256"
        }
      ],
      "stateMutability": "view",
      "type": "function"
    },
    {
      "inputs": [
        {
          "internalType": "address",
          "name": "account",
          "type": "address"
        }
      ],
      "name": "getStakerBalance",
      "outputs": [
        {
          "internalType": "uint256",
          "name": "",
          "type": "uint256"
        }
      ],
      "stateMutability": "view",
      "type": "function"
    },
    {
      "inputs": [
        {
          "internalType": "address",
          "name": "staker",
          "type": "address"
        }
      ],
      "name": "getTotalFrozenAmount",
      "outputs": [
        {
          "internalType": "uint256",
          "name": "",
          "type": "uint256"
        }
      ],
      "stateMutability": "view",
      "type": "function"
    },
    {
      "inputs": [
        {
          "internalType": "address",
          "name": "staker",
          "type": "address"
        }
      ],
      "name": "getTotalLockedStake",
      "outputs": [
        {
          "internalType": "uint256",
          "name": "",
          "type": "uint256"
        }
      ],
      "stateMutability": "view",
      "type": "function"
    },
    {
      "inputs": [
        {
          "internalType": "address",
          "name": "staker",
          "type": "address"
        },
        {
          "internalType": "address",
          "name": "borrower",
          "type": "address"
        }
      ],
      "name": "getVouchingAmount",
      "outputs": [
        {
          "internalType": "uint256",
          "name": "",
          "type": "uint256"
        }
      ],
      "stateMutability": "view",
      "type": "function"
    },
    {
      "inputs": [
        {
          "internalType": "bytes32",
          "name": "role",
          "type": "bytes32"
        },
        {
          "internalType": "address",
          "name": "account",
          "type": "address"
        }
      ],
      "name": "grantRole",
      "outputs": [],
      "stateMutability": "nonpayable",
      "type": "function"
    },
    {
      "inputs": [
        {
          "internalType": "bytes32",
          "name": "role",
          "type": "bytes32"
        },
        {
          "internalType": "address",
          "name": "account",
          "type": "address"
        }
      ],
      "name": "hasRole",
      "outputs": [
        {
          "internalType": "bool",
          "name": "",
          "type": "bool"
        }
      ],
      "stateMutability": "view",
      "type": "function"
    },
    {
      "inputs": [
        {
          "internalType": "address",
          "name": "account",
          "type": "address"
        }
      ],
      "name": "isAdmin",
      "outputs": [
        {
          "internalType": "bool",
          "name": "",
          "type": "bool"
        }
      ],
      "stateMutability": "view",
      "type": "function"
    },
    {
      "inputs": [],
      "name": "maxStakeAmount",
      "outputs": [
        {
          "internalType": "uint256",
          "name": "",
          "type": "uint256"
        }
      ],
      "stateMutability": "view",
      "type": "function"
    },
    {
      "inputs": [
        {
          "internalType": "address",
          "name": "",
          "type": "address"
        }
      ],
      "name": "memberFrozen",
      "outputs": [
        {
          "internalType": "uint256",
          "name": "",
          "type": "uint256"
        }
      ],
      "stateMutability": "view",
      "type": "function"
    },
    {
      "inputs": [],
      "name": "newMemberFee",
      "outputs": [
        {
          "internalType": "uint256",
          "name": "",
          "type": "uint256"
        }
      ],
      "stateMutability": "view",
      "type": "function"
    },
    {
      "inputs": [],
      "name": "pause",
      "outputs": [],
      "stateMutability": "nonpayable",
      "type": "function"
    },
    {
      "inputs": [],
      "name": "pauseGuardian",
      "outputs": [
        {
          "internalType": "address",
          "name": "",
          "type": "address"
        }
      ],
      "stateMutability": "view",
      "type": "function"
    },
    {
      "inputs": [],
      "name": "paused",
      "outputs": [
        {
          "internalType": "bool",
          "name": "",
          "type": "bool"
        }
      ],
      "stateMutability": "view",
      "type": "function"
    },
    {
      "inputs": [
        {
          "internalType": "address",
          "name": "newMember",
          "type": "address"
        }
      ],
      "name": "registerMember",
      "outputs": [],
      "stateMutability": "nonpayable",
      "type": "function"
    },
    {
      "inputs": [
        {
          "internalType": "address",
          "name": "newMember",
          "type": "address"
        },
        {
          "internalType": "uint256",
          "name": "value",
          "type": "uint256"
        },
        {
          "internalType": "uint256",
          "name": "deadline",
          "type": "uint256"
        },
        {
          "internalType": "uint8",
          "name": "v",
          "type": "uint8"
        },
        {
          "internalType": "bytes32",
          "name": "r",
          "type": "bytes32"
        },
        {
          "internalType": "bytes32",
          "name": "s",
          "type": "bytes32"
        }
      ],
      "name": "registerMemberWithPermit",
      "outputs": [],
      "stateMutability": "nonpayable",
      "type": "function"
    },
    {
      "inputs": [],
      "name": "renounceAdmin",
      "outputs": [],
      "stateMutability": "nonpayable",
      "type": "function"
    },
    {
      "inputs": [
        {
          "internalType": "bytes32",
          "name": "role",
          "type": "bytes32"
        },
        {
          "internalType": "address",
          "name": "account",
          "type": "address"
        }
      ],
      "name": "renounceRole",
      "outputs": [],
      "stateMutability": "nonpayable",
      "type": "function"
    },
    {
      "inputs": [
        {
          "internalType": "address",
          "name": "account",
          "type": "address"
        },
        {
          "internalType": "address",
          "name": "token",
          "type": "address"
        },
        {
          "internalType": "uint256",
          "name": "lastRepay",
          "type": "uint256"
        }
      ],
      "name": "repayLoanOverdue",
      "outputs": [],
      "stateMutability": "nonpayable",
      "type": "function"
    },
    {
      "inputs": [
        {
          "internalType": "bytes32",
          "name": "role",
          "type": "bytes32"
        },
        {
          "internalType": "address",
          "name": "account",
          "type": "address"
        }
      ],
      "name": "revokeRole",
      "outputs": [],
      "stateMutability": "nonpayable",
      "type": "function"
    },
    {
      "inputs": [
        {
          "internalType": "address",
          "name": "newCreditLimitModel",
          "type": "address"
        }
      ],
      "name": "setCreditLimitModel",
      "outputs": [],
      "stateMutability": "nonpayable",
      "type": "function"
    },
    {
      "inputs": [
        {
          "internalType": "address",
          "name": "account",
          "type": "address"
        }
      ],
      "name": "setGuardian",
      "outputs": [],
      "stateMutability": "nonpayable",
      "type": "function"
    },
    {
      "inputs": [
        {
          "internalType": "uint256",
          "name": "maxStakeAmount_",
          "type": "uint256"
        }
      ],
      "name": "setMaxStakeAmount",
      "outputs": [],
      "stateMutability": "nonpayable",
      "type": "function"
    },
    {
      "inputs": [
        {
          "internalType": "uint256",
          "name": "amount",
          "type": "uint256"
        }
      ],
      "name": "setNewMemberFee",
      "outputs": [],
      "stateMutability": "nonpayable",
      "type": "function"
    },
    {
      "inputs": [
        {
          "internalType": "address",
          "name": "uToken_",
          "type": "address"
        }
      ],
      "name": "setUToken",
      "outputs": [],
      "stateMutability": "nonpayable",
      "type": "function"
    },
    {
      "inputs": [
        {
          "internalType": "uint256",
          "name": "amount",
          "type": "uint256"
        }
      ],
      "name": "stake",
      "outputs": [],
      "stateMutability": "nonpayable",
      "type": "function"
    },
    {
      "inputs": [
        {
          "internalType": "uint256",
          "name": "amount",
          "type": "uint256"
        },
        {
          "internalType": "uint256",
          "name": "deadline",
          "type": "uint256"
        },
        {
          "internalType": "uint8",
          "name": "v",
          "type": "uint8"
        },
        {
          "internalType": "bytes32",
          "name": "r",
          "type": "bytes32"
        },
        {
          "internalType": "bytes32",
          "name": "s",
          "type": "bytes32"
        }
      ],
      "name": "stakeWithERC20Permit",
      "outputs": [],
      "stateMutability": "nonpayable",
      "type": "function"
    },
    {
      "inputs": [
        {
          "internalType": "uint256",
          "name": "amount",
          "type": "uint256"
        },
        {
          "internalType": "uint256",
          "name": "nonce",
          "type": "uint256"
        },
        {
          "internalType": "uint256",
          "name": "expiry",
          "type": "uint256"
        },
        {
          "internalType": "uint8",
          "name": "v",
          "type": "uint8"
        },
        {
          "internalType": "bytes32",
          "name": "r",
          "type": "bytes32"
        },
        {
          "internalType": "bytes32",
          "name": "s",
          "type": "bytes32"
        }
      ],
      "name": "stakeWithPermit",
      "outputs": [],
      "stateMutability": "nonpayable",
      "type": "function"
    },
    {
      "inputs": [
        {
          "internalType": "address",
          "name": "",
          "type": "address"
        }
      ],
      "name": "stakers",
      "outputs": [
        {
          "internalType": "uint256",
          "name": "",
          "type": "uint256"
        }
      ],
      "stateMutability": "view",
      "type": "function"
    },
    {
      "inputs": [],
      "name": "stakingToken",
      "outputs": [
        {
          "internalType": "address",
          "name": "",
          "type": "address"
        }
      ],
      "stateMutability": "view",
      "type": "function"
    },
    {
      "inputs": [
        {
          "internalType": "bytes4",
          "name": "interfaceId",
          "type": "bytes4"
        }
      ],
      "name": "supportsInterface",
      "outputs": [
        {
          "internalType": "bool",
          "name": "",
          "type": "bool"
        }
      ],
      "stateMutability": "view",
      "type": "function"
    },
    {
      "inputs": [],
      "name": "totalFrozen",
      "outputs": [
        {
          "internalType": "uint256",
          "name": "",
          "type": "uint256"
        }
      ],
      "stateMutability": "view",
      "type": "function"
    },
    {
      "inputs": [],
      "name": "totalStaked",
      "outputs": [
        {
          "internalType": "uint256",
          "name": "",
          "type": "uint256"
        }
      ],
      "stateMutability": "view",
      "type": "function"
    },
    {
      "inputs": [],
      "name": "uToken",
      "outputs": [
        {
          "internalType": "contract IUToken",
          "name": "",
          "type": "address"
        }
      ],
      "stateMutability": "view",
      "type": "function"
    },
    {
      "inputs": [],
      "name": "unionToken",
      "outputs": [
        {
          "internalType": "address",
          "name": "",
          "type": "address"
        }
      ],
      "stateMutability": "view",
      "type": "function"
    },
    {
      "inputs": [],
      "name": "unpause",
      "outputs": [],
      "stateMutability": "nonpayable",
      "type": "function"
    },
    {
      "inputs": [
        {
          "internalType": "uint256",
          "name": "amount",
          "type": "uint256"
        }
      ],
      "name": "unstake",
      "outputs": [],
      "stateMutability": "nonpayable",
      "type": "function"
    },
    {
      "inputs": [
        {
          "internalType": "address",
          "name": "borrower",
          "type": "address"
        },
        {
          "internalType": "uint256",
          "name": "amount",
          "type": "uint256"
        },
        {
          "internalType": "bool",
          "name": "isBorrow",
          "type": "bool"
        }
      ],
      "name": "updateLockedData",
      "outputs": [],
      "stateMutability": "nonpayable",
      "type": "function"
    },
    {
      "inputs": [
        {
          "internalType": "address",
          "name": "account",
          "type": "address"
        },
        {
          "internalType": "bool",
          "name": "isOverdue",
          "type": "bool"
        }
      ],
      "name": "updateTotalFrozen",
      "outputs": [],
      "stateMutability": "nonpayable",
      "type": "function"
    },
    {
      "inputs": [
        {
          "internalType": "address",
          "name": "borrower_",
          "type": "address"
        },
        {
          "internalType": "uint256",
          "name": "trustAmount",
          "type": "uint256"
        }
      ],
      "name": "updateTrust",
      "outputs": [],
      "stateMutability": "nonpayable",
      "type": "function"
    },
    {
      "inputs": [
        {
          "internalType": "address",
          "name": "newImplementation",
          "type": "address"
        }
      ],
      "name": "upgradeTo",
      "outputs": [],
      "stateMutability": "nonpayable",
      "type": "function"
    },
    {
      "inputs": [
        {
          "internalType": "address",
          "name": "newImplementation",
          "type": "address"
        },
        {
          "internalType": "bytes",
          "name": "data",
          "type": "bytes"
        }
      ],
      "name": "upgradeToAndCall",
      "outputs": [],
      "stateMutability": "payable",
      "type": "function"
    },
    {
      "inputs": [],
      "name": "withdrawRewards",
      "outputs": [],
      "stateMutability": "nonpayable",
      "type": "function"
    }
  ],
  "transactionHash": "0x476aa5b699d899aa289174a28140069056986c4d7e8c39065e152ad732057611",
  "args": [],
  "solcInputHash": "f7d03dd6e1ae76ba59a3c936c5c3225b",
  "bytecode": "0x60a06040523060601b60805234801561001757600080fd5b5060805160601c615a196200004c600039600081816115fe0152818161163e01528181611e670152611ea70152615a196000f3fe6080604052600436106103385760003560e01c80636c461a73116101b2578063b157bf03116100ed578063dcc2a55e11610090578063dcc2a55e14610a55578063dd2368c914610a75578063dd63f76214610a95578063eb14845914610ab5578063f015846114610ad5578063f70222e114610af6578063fa84a8a314610b17578063fcb4888e14610b3757600080fd5b8063b157bf0314610936578063b40d57fd14610971578063b6a93faf14610991578063b8845f75146109be578063c7b8981c146109de578063ca6d56dc146109f3578063d391014b14610a13578063d547741f14610a3557600080fd5b80638bad0c0a116101555780638bad0c0a1461083d5780639168ae721461085257806391d148541461088057806394217ad1146108a05780639f3da8ef146108c1578063a217fddf146108e1578063a694fc3a146108f6578063ab4ffaa91461091657600080fd5b80636c461a731461075057806370480275146107705780637223325d1461079057806372f702f3146107b0578063817b1cd2146107d15780638456cb59146107e857806385bde8f2146107fd5780638a0dac4a1461081d57600080fd5b80633659cfe611610282578063591d637d11610225578063591d637d146106685780635c975abb146106885780635d40db1e146106a05780635d80ca32146106c05780635fe3b567146106d757806363315637146106f8578063644214f61461071957806364a118a11461073057600080fd5b80633659cfe61461058057806337262d38146105a05780633f4ba83a146105c05780633feaf532146105d557806343fbb8f5146105f55780634f1ef286146106155780635668b02e14610628578063574dadba1461064857600080fd5b806324d7806c116102ea57806324d7806c1461045b5780632640d9db1461047b57806327a9626b146104b2578063293512c5146104e05780632c333e25146105005780632e17de78146105205780632f2ff15d1461054057806336568abe1461056057600080fd5b806301ffc9a71461033d578063053e377f146103725780630babf336146103945780631e7f87bc146103b457806321d2a573146103d9578063248a9ca3146103f957806324a3d62214610429575b600080fd5b34801561034957600080fd5b5061035d6103583660046152fb565b610b57565b60405190151581526020015b60405180910390f35b34801561037e57600080fd5b5061039261038d366004615371565b610b8e565b005b3480156103a057600080fd5b506103926103af366004614f76565b610c3c565b3480156103c057600080fd5b506103cb61016a5481565b604051908152602001610369565b3480156103e557600080fd5b5061035d6103f4366004614f76565b610ca3565b34801561040557600080fd5b506103cb6104143660046152c1565b600090815260c9602052604090206001015490565b34801561043557600080fd5b5060fc5461044e9061010090046001600160a01b031681565b6040516103699190615442565b34801561046757600080fd5b5061035d610476366004614f76565b610cc2565b34801561048757600080fd5b506103cb610496366004614f76565b6001600160a01b0316600090815261016c602052604090205490565b3480156104be57600080fd5b506103cb6104cd366004614f76565b61016d6020526000908152604090205481565b3480156104ec57600080fd5b506103926104fb366004615035565b610cdc565b34801561050c57600080fd5b506103cb61051b366004614f76565b610e21565b34801561052c57600080fd5b5061039261053b3660046152c1565b6112e7565b34801561054c57600080fd5b5061039261055b3660046152d9565b61154a565b34801561056c57600080fd5b5061039261057b3660046152d9565b611575565b34801561058c57600080fd5b5061039261059b366004614f76565b6115f3565b3480156105ac57600080fd5b506103cb6105bb366004614f76565b6116b9565b3480156105cc57600080fd5b5061039261186c565b3480156105e157600080fd5b506103926105f03660046151ca565b61192a565b34801561060157600080fd5b50610392610610366004615162565b6119d0565b6103926106233660046150a6565b611e5c565b34801561063457600080fd5b5061039261064336600461533b565b611f12565b34801561065457600080fd5b506103cb610663366004614f76565b611fd1565b34801561067457600080fd5b50610392610683366004615070565b6120d6565b34801561069457600080fd5b5060fc5460ff1661035d565b3480156106ac57600080fd5b506103926106bb366004615221565b61220b565b3480156106cc57600080fd5b506103cb6101615481565b3480156106e357600080fd5b506101675461044e906001600160a01b031681565b34801561070457600080fd5b506101655461044e906001600160a01b031681565b34801561072557600080fd5b506103cb6101685481565b34801561073c57600080fd5b5061039261074b366004614f76565b61242a565b34801561075c57600080fd5b5061039261076b366004614f76565b6124dc565b34801561077c57600080fd5b5061039261078b366004614f76565b6125e7565b34801561079c57600080fd5b506103cb6107ab366004614f90565b6126f4565b3480156107bc57600080fd5b506101625461044e906001600160a01b031681565b3480156107dd57600080fd5b506103cb6101695481565b3480156107f457600080fd5b50610392612748565b34801561080957600080fd5b50610392610818366004614f90565b6127d7565b34801561082957600080fd5b50610392610838366004614f76565b612c6d565b34801561084957600080fd5b50610392612cc9565b34801561085e57600080fd5b506103cb61086d366004614f76565b61016c6020526000908152604090205481565b34801561088c57600080fd5b5061035d61089b3660046152d9565b612d00565b3480156108ac57600080fd5b506101645461044e906001600160a01b031681565b3480156108cd57600080fd5b506103926108dc366004614fc2565b612d2b565b3480156108ed57600080fd5b506103cb600081565b34801561090257600080fd5b506103926109113660046152c1565b612e26565b34801561092257600080fd5b5061039261093136600461518b565b61309e565b34801561094257600080fd5b50610956610951366004614f90565b613438565b60408051938452602084019290925290820152606001610369565b34801561097d57600080fd5b5061095661098c366004614f90565b613486565b34801561099d57600080fd5b506109b16109ac366004614f76565b6134cb565b60405161036991906154ee565b3480156109ca57600080fd5b506103926109d9366004615162565b613545565b3480156109ea57600080fd5b50610392613975565b3480156109ff57600080fd5b50610392610a0e366004614f76565b613a56565b348015610a1f57600080fd5b506103cb60008051602061599d83398151915281565b348015610a4157600080fd5b50610392610a503660046152d9565b613ade565b348015610a6157600080fd5b50610392610a703660046152c1565b613b04565b348015610a8157600080fd5b506103cb610a90366004614f90565b613b7f565b348015610aa157600080fd5b506103cb610ab0366004615162565b613baf565b348015610ac157600080fd5b506109b1610ad0366004614f76565b613d71565b348015610ae157600080fd5b506101665461044e906001600160a01b031681565b348015610b0257600080fd5b506101635461044e906001600160a01b031681565b348015610b2357600080fd5b50610392610b323660046152c1565b613de9565b348015610b4357600080fd5b50610392610b52366004614f76565b613e5c565b60006001600160e01b03198216637965db0b60e01b1480610b8857506301ffc9a760e01b6001600160e01b03198316145b92915050565b60fc5460ff1615610bba5760405162461bcd60e51b8152600401610bb19061584b565b60405180910390fd5b6101625460405163d505accf60e01b81526001600160a01b0390911690819063d505accf90610bf990339030908b908b908b908b908b90600401615494565b600060405180830381600087803b158015610c1357600080fd5b505af1158015610c27573d6000803e3d6000fd5b50505050610c3486612e26565b505050505050565b610c5460008051602061599d83398151915233612d00565b610c705760405162461bcd60e51b8152600401610bb1906156c8565b6001600160a01b038116610c9757604051639fabe1c160e01b815260040160405180910390fd5b610ca081614096565b50565b6001600160a01b0316600090815261016b602052604090205460ff1690565b6000610b8860008051602061599d83398151915283612d00565b60fc5460ff1615610cff5760405162461bcd60e51b8152600401610bb19061584b565b610165546001600160a01b03163314801590610d215750610d1f33610cc2565b155b15610d3f5760405163458bc09b60e01b815260040160405180910390fd5b6000610d4a846134cb565b805190915060005b81811015610c34576000838281518110610d7c57634e487b7160e01b600052603260045260246000fd5b602002602001015190506000610d928883613486565b61016754604051635525631360e01b81526001600160a01b0387811660048301528c8116602483015260448201849052606482018c90529295509116925063552563139150608401600060405180830381600087803b158015610df457600080fd5b505af1158015610e08573d6000803e3d6000fd5b5050505050508080610e1990615947565b915050610d52565b6000610e2b614e7a565b6001600160a01b038316600090815261016b602090815260409182902060040180548351818402810184019094528084529091830182828015610e9757602002820191906000526020600020905b81546001600160a01b03168152600190910190602001808311610e79575b5050508284525050600060408301819052905190816001600160401b03811115610ed157634e487b7160e01b600052604160045260246000fd5b604051908082528060200260200182016040528015610efa578160200160208202803683370190505b50905060005b82811015611103578351805182908110610f2a57634e487b7160e01b600052603260045260246000fd5b6020908102919091018101516001600160a01b031660608601818152600091825261016c909252604090205460a086015251610f6690876126f4565b60808501819052156110f157610f7f8460600151613d71565b602085015260a084015160c08501526060840151600090610f9f90611fd1565b9050808560a0015111610fb857600060c0860152610fce565b808560a00151610fc891906158ed565b60c08601525b610fdc856060015188613b7f565b60e0860181905260808601511015611007576040516365a029e560e01b815260040160405180910390fd5b8460e001518560c0015161101b9190615877565b85608001511061105f578460c001518386604001518151811061104e57634e487b7160e01b600052603260045260246000fd5b6020026020010181815250506110d9565b8460e001518560800151116110945760008386604001518151811061104e57634e487b7160e01b600052603260045260246000fd5b8460e0015185608001516110a891906158ed565b838660400151815181106110cc57634e487b7160e01b600052603260045260246000fd5b6020026020010181815250505b6001856040018181516110ec9190615877565b905250505b806110fb81615947565b915050610f00565b50600083604001516001600160401b0381111561113057634e487b7160e01b600052604160045260246000fd5b604051908082528060200260200182016040528015611159578160200160208202803683370190505b50905060005b84604001518110156111d05782818151811061118b57634e487b7160e01b600052603260045260246000fd5b60200260200101518282815181106111b357634e487b7160e01b600052603260045260246000fd5b6020908102919091010152806111c881615947565b91505061115f565b5061016554604051630da5a3cb60e31b81526001600160a01b0390911690636d2d1e5890611202908990600401615442565b60206040518083038186803b15801561121a57600080fd5b505afa15801561122e573d6000803e3d6000fd5b505050506040513d601f19601f820116820180604052508101906112529190615323565b61016654604051634c9cc67360e01b81526001600160a01b0390911690634c9cc673906112839085906004016155c5565b60206040518083038186803b15801561129b57600080fd5b505afa1580156112af573d6000803e3d6000fd5b505050506040513d601f19601f820116820180604052508101906112d39190615323565b6112dd91906158ae565b9695505050505050565b60fc5460ff161561130a5760405162461bcd60e51b8152600401610bb19061584b565b600261012f54141561132e5760405162461bcd60e51b8152600401610bb190615814565b600261012f556101625433600081815261016c60205260409020546001600160a01b039092169190839061136190611fd1565b61136b90836158ed565b101561138a57604051631e9acf1760e31b815260040160405180910390fd5b6101675461016254604051637104c0e560e11b81526001600160a01b039283169263e20981ca926113c392339290911690600401615456565b602060405180830381600087803b1580156113dd57600080fd5b505af11580156113f1573d6000803e3d6000fd5b505050506040513d601f19601f820116820180604052508101906114159190615323565b5061142083826158ed565b33600090815261016c602052604081209190915561016980548592906114479084906158ed565b90915550506101645461016254604051636ce5768960e11b81526001600160a01b039283169263d9caed12926114869291169030908890600401615470565b602060405180830381600087803b1580156114a057600080fd5b505af11580156114b4573d6000803e3d6000fd5b505050506040513d601f19601f820116820180604052508101906114d891906152a5565b6114f5576040516363be299360e01b815260040160405180910390fd5b6115096001600160a01b0383163385614170565b60405183815233907faf14da4c9c7eeb91ef462950405340d31988005c789d867d3a1394f082105e89906020015b60405180910390a25050600161012f5550565b600082815260c9602052604090206001015461156681336141c6565b611570838361422a565b505050565b6001600160a01b03811633146115e55760405162461bcd60e51b815260206004820152602f60248201527f416363657373436f6e74726f6c3a2063616e206f6e6c792072656e6f756e636560448201526e103937b632b9903337b91039b2b63360891b6064820152608401610bb1565b6115ef82826142b0565b5050565b306001600160a01b037f000000000000000000000000000000000000000000000000000000000000000016141561163c5760405162461bcd60e51b8152600401610bb190615630565b7f00000000000000000000000000000000000000000000000000000000000000006001600160a01b031661166e614317565b6001600160a01b0316146116945760405162461bcd60e51b8152600401610bb19061567c565b61169d81614345565b60408051600080825260208201909252610ca091839190614379565b60006116c3614e7a565b6001600160a01b038316600090815261016b602090815260408083206002018054825181850281018501909352808352919290919083018282801561173157602002820191906000526020600020905b81546001600160a01b03168152600190910190602001808311611713575b505050505060208381019182526001600160a01b038616600090815261016c909152604081205460a0850152905151815b81811015611849578460200151818151811061178e57634e487b7160e01b600052603260045260246000fd5b602090810291909101015161016554604051634da9983d60e11b81529194506001600160a01b031690639b53307a906117cb908690600401615442565b60206040518083038186803b1580156117e357600080fd5b505afa1580156117f7573d6000803e3d6000fd5b505050506040513d601f19601f8201168201806040525081019061181b91906152a5565b156118375761182a8784613b7f565b6118349085615877565b93505b8061184181615947565b915050611762565b50828460a001511061185f575090949350505050565b50505060a0015192915050565b60fc5461010090046001600160a01b0316331461189b5760405162461bcd60e51b8152600401610bb1906156f7565b60fc5460ff166118e65760405162461bcd60e51b815260206004820152601660248201527510dbdb9d1c9bdb1b195c8e881b9bdd081c185d5cd95960521b6044820152606401610bb1565b60fc805460ff191690556040517f5db9ee0a495bf2e6ff9c91a7834c1ba4fdd244a5e8aa4e537bd38aeae4b073aa90611920903390615442565b60405180910390a1565b60fc5460ff161561194d5760405162461bcd60e51b8152600401610bb19061584b565b6101635460405163d505accf60e01b81526001600160a01b0390911690819063d505accf9061198c90339030908b908b908b908b908b90600401615494565b600060405180830381600087803b1580156119a657600080fd5b505af11580156119ba573d6000803e3d6000fd5b505050506119c787613e5c565b50505050505050565b336119da81610ca3565b6119f75760405163458bc09b60e01b815260040160405180910390fd5b60fc5460ff1615611a1a5760405162461bcd60e51b8152600401610bb19061584b565b6001600160a01b038316611a4157604051639fabe1c160e01b815260040160405180910390fd5b82611a4a614e7a565b33606082018190526001600160a01b0383161415611a7b576040516302c8b80960e31b815260040160405180910390fd5b60326001600160a01b038316600090815261016b6020526040902060040154101580611ac85750603260608201516001600160a01b0316600090815261016b602052604090206002015410155b15611ae657604051637c5aec3360e01b815260040160405180910390fd5b60608101516001600160a01b0316600090815261016b602090815260409182902060020180548351818402810184019094528084529091830182828015611b5657602002820191906000526020600020905b81546001600160a01b03168152600190910190602001808311611b38575b50505050602080840192909252506001600160a01b038316600090815261016b825260409081902060040180548251818502810185019093528083529192909190830182828015611bd057602002820191906000526020600020905b81546001600160a01b03168152600190910190602001808311611bb2575b50505091835250506060810151611be79083613b7f565b60e08201819052841015611c0e5760405163450f3fe560e11b815260040160405180910390fd5b60608101516001600160a01b0316600090815261016b602052604081206002015490805b82811015611c9a57846001600160a01b031684602001518281518110611c6857634e487b7160e01b600052603260045260246000fd5b60200260200101516001600160a01b03161415611c885760019150611c9a565b80611c9281615947565b915050611c32565b506001600160a01b038416600090815261016b602052604081206004015490805b82811015611d275785606001516001600160a01b031686600001518281518110611cf557634e487b7160e01b600052603260045260246000fd5b60200260200101516001600160a01b03161415611d155760019150611d27565b80611d1f81615947565b915050611cbb565b5082611d755760608501516001600160a01b03908116600090815261016b602090815260408220600201805460018101825590835291200180546001600160a01b0319169188169190911790555b80611dc4576001600160a01b03868116600090815261016b602090815260408220606089015160049091018054600181018255908452919092200180546001600160a01b031916919092161790555b6060850180516001600160a01b03908116600090815261016b602081815260408084208c8616808652600190910183528185208f9055928252808420865186168552600301909152918290208c9055925190519116907f6726f80fa910f3db24051175cda8d3c2af86b536cc2b137c1dbbf83136fe7c5c90611e49908c815260200190565b60405180910390a3505050505050505050565b306001600160a01b037f0000000000000000000000000000000000000000000000000000000000000000161415611ea55760405162461bcd60e51b8152600401610bb190615630565b7f00000000000000000000000000000000000000000000000000000000000000006001600160a01b0316611ed7614317565b6001600160a01b031614611efd5760405162461bcd60e51b8152600401610bb19061567c565b611f0682614345565b6115ef82826001614379565b60fc5460ff1615611f355760405162461bcd60e51b8152600401610bb19061584b565b610162546040516323f2ebc360e21b815233600482015230602482015260448101879052606481018690526001608482015260ff851660a482015260c4810184905260e481018390526001600160a01b03909116908190638fcbaf0c9061010401600060405180830381600087803b158015611fb057600080fd5b505af1158015611fc4573d6000803e3d6000fd5b505050506119c787612e26565b6001600160a01b038116600090815261016c602090815260408083205461016b835281842060020180548351818602810186019094528084528594929385939092919083018282801561204d57602002820191906000526020600020905b81546001600160a01b0316815260019091019060200180831161202f575b505050505090506000808251905060005b818110156120b85783818151811061208657634e487b7160e01b600052603260045260246000fd5b6020026020010151925061209a8884613b7f565b6120a49087615877565b9550806120b081615947565b91505061205e565b508484106120cb57509295945050505050565b509195945050505050565b610165546001600160a01b031633148015906120f857506120f633610cc2565b155b156121165760405163458bc09b60e01b815260040160405180910390fd5b60fc5460ff16156121395760405162461bcd60e51b8152600401610bb19061584b565b61016a54610169541015612160576040516306f2ec6960e41b815260040160405180910390fd5b600061016a546101695461217491906158ed565b6101675461016254604051630133821360e51b81529293506001600160a01b03918216926326704260926121ae92169085906004016154d5565b602060405180830381600087803b1580156121c857600080fd5b505af11580156121dc573d6000803e3d6000fd5b505050506040513d601f19601f8201168201806040525081019061220091906152a5565b5061157083836144c0565b610165546001600160a01b0316331480159061222d575061222b33610cc2565b155b1561224b5760405163458bc09b60e01b815260040160405180910390fd5b60fc5460ff161561226e5760405162461bcd60e51b8152600401610bb19061584b565b82811461228e57604051631985132360e31b815260040160405180910390fd5b61016a546101695410156122b5576040516306f2ec6960e41b815260040160405180910390fd5b600061016a54610169546122c991906158ed565b6101675461016254604051630133821360e51b81529293506001600160a01b039182169263267042609261230392169085906004016154d5565b602060405180830381600087803b15801561231d57600080fd5b505af1158015612331573d6000803e3d6000fd5b505050506040513d601f19601f8201168201806040525081019061235591906152a5565b5060005b84811015610c3457600086868381811061238357634e487b7160e01b600052603260045260246000fd5b90506020020160208101906123989190614f76565b6001600160a01b031614612418576124188686838181106123c957634e487b7160e01b600052603260045260246000fd5b90506020020160208101906123de9190614f76565b8585848181106123fe57634e487b7160e01b600052603260045260246000fd5b90506020020160208101906124139190615289565b6144c0565b8061242281615947565b915050612359565b61244260008051602061599d83398151915233612d00565b61245e5760405162461bcd60e51b8152600401610bb1906156c8565b6001600160a01b03811661248557604051639fabe1c160e01b815260040160405180910390fd5b61016580546001600160a01b0319166001600160a01b0383161790556040517fa7ee46aebb9f5e2669fe2e2ff586cb308e2fc07d64bf563fbb491f8e9ab83e0c906124d1908390615442565b60405180910390a150565b600054610100900460ff166124f75760005460ff16156124fb565b303b155b6125175760405162461bcd60e51b8152600401610bb19061577b565b600054610100900460ff16158015612539576000805461ffff19166101011790555b6001600160a01b03821661255f5760405162461bcd60e51b8152600401610bb190615749565b60fc805460ff191690556001600160a01b038216600081815260fb6020526040902080546001600160a01b031916909117905561259a614680565b6125b260008051602061599d833981519152836146b9565b60fc8054610100600160a81b0319166101006001600160a01b0385160217905580156115ef576000805461ff00191690555050565b6125ff60008051602061599d83398151915233612d00565b61261b5760405162461bcd60e51b8152600401610bb1906156c8565b6001600160a01b0381166126415760405162461bcd60e51b8152600401610bb190615749565b6001600160a01b03818116600090815260fb602052604090205416156126b35760405162461bcd60e51b815260206004820152602160248201527f436f6e74726f6c6c65723a2061646d696e20616c7265616479206578697374656044820152601960fa1b6064820152608401610bb1565b6001600160a01b038116600081815260fb6020526040902080546001600160a01b0319169091179055610ca060008051602061599d833981519152826146b9565b6001600160a01b03808316600081815261016c6020908152604080832054948616835261016b8252808320938352600390930190529081205490919081811161273d578061273f565b815b95945050505050565b60fc5461010090046001600160a01b031633146127775760405162461bcd60e51b8152600401610bb1906156f7565b60fc5460ff161561279a5760405162461bcd60e51b8152600401610bb19061584b565b60fc805460ff191660011790556040517f62e78cea01bee320cd4e420270b5ea74000d11b0c9f74754ebdbfc544b05a25890611920903390615442565b336127e181610ca3565b6127fe5760405163458bc09b60e01b815260040160405180910390fd5b60fc5460ff16156128215760405162461bcd60e51b8152600401610bb19061584b565b336001600160a01b038416148015906128435750336001600160a01b03831614155b156128615760405163458bc09b60e01b815260040160405180910390fd5b61286b8383613b7f565b156128895760405163408757e360e11b815260040160405180910390fd5b6001600160a01b038216600090815261016b60205260408120600401549080805b8381101561292c576001600160a01b03868116600090815261016b60205260409020600401805491891691839081106128f357634e487b7160e01b600052603260045260246000fd5b6000918252602090912001546001600160a01b0316141561291a576001925080915061292c565b8061292481615947565b9150506128aa565b506001600160a01b038616600090815261016b60205260408120600201549080805b838110156129d0576001600160a01b038a8116600090815261016b602052604090206002018054918b16918390811061299757634e487b7160e01b600052603260045260246000fd5b6000918252602090912001546001600160a01b031614156129be57600192508091506129d0565b806129c881615947565b91505061294e565b508115612ae5576001600160a01b038916600090815261016b602052604090206002016129fe6001856158ed565b81548110612a1c57634e487b7160e01b600052603260045260246000fd5b60009182526020808320909101546001600160a01b038c8116845261016b9092526040909220600201805491909216919083908110612a6b57634e487b7160e01b600052603260045260246000fd5b600091825260208083209190910180546001600160a01b0319166001600160a01b03948516179055918b16815261016b90915260409020600201805480612ac257634e487b7160e01b600052603160045260246000fd5b600082815260209020810160001990810180546001600160a01b03191690550190555b8415612bf9576001600160a01b038816600090815261016b60205260409020600401612b126001886158ed565b81548110612b3057634e487b7160e01b600052603260045260246000fd5b60009182526020808320909101546001600160a01b038b8116845261016b9092526040909220600401805491909216919086908110612b7f57634e487b7160e01b600052603260045260246000fd5b600091825260208083209190910180546001600160a01b0319166001600160a01b03948516179055918a16815261016b90915260409020600401805480612bd657634e487b7160e01b600052603160045260246000fd5b600082815260209020810160001990810180546001600160a01b03191690550190555b6001600160a01b03808a16600081815261016b60208181526040808420958e16808552600190960182528084208490559181528183208484526003019052808220829055517fb620e4928572d86c4aa852f12b72cdb824405b403dc7c3cb5d60dece51cb648c9190a3505050505050505050565b612c8560008051602061599d83398151915233612d00565b612ca15760405162461bcd60e51b8152600401610bb1906156c8565b60fc80546001600160a01b0390921661010002610100600160a81b0319909216919091179055565b612ce160008051602061599d83398151915233611575565b33600090815260fb6020526040902080546001600160a01b0319169055565b600091825260c9602090815260408084206001600160a01b0393909316845291905290205460ff1690565b600054610100900460ff16612d465760005460ff1615612d4a565b303b155b612d665760405162461bcd60e51b8152600401610bb19061577b565b600054610100900460ff16158015612d88576000805461ffff19166101011790555b612d91826124dc565b612d996146c3565b612da284614096565b61016780546001600160a01b038086166001600160a01b03199283161790925561016480548a84169083161790556101638054898416908316179055610162805492881692909116919091179055670de0b6b3a76400006101685569010f0cf064dd592000006101615580156119c7576000805461ff001916905550505050505050565b60fc5460ff1615612e495760405162461bcd60e51b8152600401610bb19061584b565b600261012f541415612e6d5760405162461bcd60e51b8152600401610bb190615814565b600261012f556101625461016754604051637104c0e560e11b81526001600160a01b03928316929091169063e20981ca90612eae9033908590600401615456565b602060405180830381600087803b158015612ec857600080fd5b505af1158015612edc573d6000803e3d6000fd5b505050506040513d601f19601f82011682018060405250810190612f009190615323565b5033600090815261016c602052604090205461016154612f208483615877565b1115612f4257604051600162dbd46160e01b0319815260040160405180910390fd5b612f4c8382615877565b33600090815261016c60205260408120919091556101698054859290612f73908490615877565b90915550612f8e90506001600160a01b0383163330866146f2565b61016454612faa906001600160a01b0384811691166000614719565b61016454612fc5906001600160a01b03848116911685614719565b61016454610162546040516311f9fbc960e21b81526001600160a01b03928316926347e7ef2492612ffd9291169087906004016154d5565b602060405180830381600087803b15801561301757600080fd5b505af115801561302b573d6000803e3d6000fd5b505050506040513d601f19601f8201168201806040525081019061304f91906152a5565b61306c57604051639a3107e160e01b815260040160405180910390fd5b60405183815233907f3dbdcfd4c1f2e08931aae3d544e149a1e643143f5234d166fe3debb78338849590602001611537565b610165546001600160a01b031633148015906130c057506130be33610cc2565b155b156130de5760405163458bc09b60e01b815260040160405180910390fd5b6130e6614e7a565b6001600160a01b038416600090815261016b60209081526040918290206004018054835181840281018401909452808452909183018282801561315257602002820191906000526020600020905b81546001600160a01b03168152600190910190602001808311613134575b5050508284525050516000906001600160401b0381111561318357634e487b7160e01b600052604160045260246000fd5b6040519080825280602002602001820160405280156131bc57816020015b6131a9614ecf565b8152602001906001900390816131a15790505b5082515190915060005b818110156132f8576131d6614ecf565b84518051839081106131f857634e487b7160e01b600052603260045260246000fd5b6020908102919091018101516001600160a01b031660608701818152600091825261016c909252604090205460a08701525161323490896126f4565b6080860152606085015161324790611fd1565b610100860181905260a08601511161326557600060c0860152613280565b8461010001518560a0015161327a91906158ed565b60c08601525b6060850180516001600160a01b0316825260808601516020830152516132a69089613b7f565b604082015260c08501516060820152835181908590849081106132d957634e487b7160e01b600052603260045260246000fd5b60200260200101819052505080806132f090615947565b9150506131c6565b50815160005b8181101561342e576101665484516001600160a01b039091169063a0d9987b90869081908590811061334057634e487b7160e01b600052603260045260246000fd5b6020026020010151600001518a8a6040518563ffffffff1660e01b815260040161336d949392919061553b565b60206040518083038186803b15801561338557600080fd5b505afa158015613399573d6000803e3d6000fd5b505050506040513d601f19601f820116820180604052508101906133bd9190615323565b61016b60008684815181106133e257634e487b7160e01b600052603260045260246000fd5b602090810291909101810151516001600160a01b0390811683528282019390935260409182016000908120938d168152600590930190529020558061342681615947565b9150506132fe565b5050505050505050565b6001600160a01b03808316600090815261016b602090815260408083209385168352600190930190529081205490806134718585613b7f565b905061347d85856126f4565b91509250925092565b6001600160a01b03808316600090815261016b602090815260408083209385168352600390930190529081205490806134bf8486613b7f565b905061347d84866126f4565b6001600160a01b038116600090815261016b602090815260409182902060040180548351818402810184019094528084526060939283018282801561353957602002820191906000526020600020905b81546001600160a01b0316815260019091019060200180831161351b575b50505050509050919050565b80613563576040516365e52d5160e11b815260040160405180910390fd5b610169548111156135875760405163441ea20b60e01b815260040160405180910390fd5b61016554604051634da9983d60e11b81526001600160a01b0390911690639b53307a906135b8908590600401615442565b60206040518083038186803b1580156135d057600080fd5b505afa1580156135e4573d6000803e3d6000fd5b505050506040513d601f19601f8201168201806040525081019061360891906152a5565b6136255760405163f7d8046b60e01b815260040160405180910390fd5b60006136313384613b7f565b9050808211156136545760405163678ec84b60e11b815260040160405180910390fd5b61365f8360016144c0565b61016a5482111561368357604051634e62d08b60e11b815260040160405180910390fd5b6101675461016254604051637104c0e560e11b81526001600160a01b039283169263e20981ca926136bc92339290911690600401615456565b602060405180830381600087803b1580156136d657600080fd5b505af11580156136ea573d6000803e3d6000fd5b505050506040513d601f19601f8201168201806040525081019061370e9190615323565b5033600090815261016c60205260408120805484929061372f9084906158ed565b9250508190555081610169600082825461374991906158ed565b925050819055508161016a600082825461376391906158ed565b90915550506001600160a01b038316600090815261016d602052604090205482116137bc576001600160a01b038316600090815261016d6020526040812080548492906137b19084906158ed565b909155506137d79050565b6001600160a01b038316600090815261016d60205260408120555b6137e182826158ed565b33600090815261016b602090815260408083206001600160a01b03881684526005810183528184209490945560019093019052908120549061382384836158ed565b33600081815261016b602081815260408084206001600160a01b038c811686526001909101835281852087905592825280842094845260039094019052908290208390556101645461016254925163b8845f7560e01b815293945081169263b8845f759261389792169088906004016154d5565b600060405180830381600087803b1580156138b157600080fd5b505af11580156138c5573d6000803e3d6000fd5b50506101655460405163b8845f7560e01b81526001600160a01b03909116925063b8845f7591506138fc90889088906004016154d5565b600060405180830381600087803b15801561391657600080fd5b505af115801561392a573d6000803e3d6000fd5b50506040518681526001600160a01b03881692503391507f721dd838cd211473250d3276b95ede5c746ea6711f9ca7364967246bf2c8db849060200160405180910390a35050505050565b60fc5460ff16156139985760405162461bcd60e51b8152600401610bb19061584b565b600261012f5414156139bc5760405162461bcd60e51b8152600401610bb190615814565b600261012f556101675461016254604051637104c0e560e11b81526001600160a01b039283169263e20981ca926139fb92339290911690600401615456565b602060405180830381600087803b158015613a1557600080fd5b505af1158015613a29573d6000803e3d6000fd5b505050506040513d601f19601f82011682018060405250810190613a4d9190615323565b50600161012f55565b613a6e60008051602061599d83398151915233612d00565b613a8a5760405162461bcd60e51b8152600401610bb1906156c8565b6001600160a01b038116600090815261016b602052604090819020805460ff19166001179055517f5e1ee096236e8660dc7150f7b5ecb274fb28105175e61ace07f7525ab72ede44906124d1908390615442565b600082815260c96020526040902060010154613afa81336141c6565b61157083836142b0565b613b1c60008051602061599d83398151915233612d00565b613b385760405162461bcd60e51b8152600401610bb1906156c8565b61016180549082905560408051828152602081018490527f4df262040f2b057fb44aa36002925ea5c877c6ce81fbb210b7e85ee1bc3a498491015b60405180910390a15050565b6001600160a01b03918216600090815261016b602090815260408083209390941682526005909201909152205490565b60008080613bbc85613d71565b805190915060005b818110156120cb576000838281518110613bee57634e487b7160e01b600052603260045260246000fd5b602090810291909101015161016554604051632592fb6760e01b81529192506000916001600160a01b0390911690632592fb6790613c30908590600401615442565b60206040518083038186803b158015613c4857600080fd5b505afa158015613c5c573d6000803e3d6000fd5b505050506040513d601f19601f82011682018060405250810190613c809190615323565b613c8a90436158ed565b61016554604051634da9983d60e11b81529192506001600160a01b031690639b53307a90613cbc908590600401615442565b60206040518083038186803b158015613cd457600080fd5b505afa158015613ce8573d6000803e3d6000fd5b505050506040513d601f19601f82011682018060405250810190613d0c91906152a5565b15613d5c576000613d1d838b613486565b92505050818910613d4357613d32828261588f565b613d3c9088615877565b9650613d5a565b613d4d898261588f565b613d579088615877565b96505b505b50508080613d6990615947565b915050613bc4565b6001600160a01b038116600090815261016b6020908152604091829020600201805483518184028101840190945280845260609392830182828015613539576020028201919060005260206000209081546001600160a01b0316815260019091019060200180831161351b5750505050509050919050565b613e0160008051602061599d83398151915233612d00565b613e1d5760405162461bcd60e51b8152600401610bb1906156c8565b61016880549082905560408051828152602081018490527f498fc03364d7fc570a80360564e057678eefc3a22931b102a63fefff80bc87579101613b73565b60fc5460ff1615613e7f5760405162461bcd60e51b8152600401610bb19061584b565b613e8881610ca3565b15613ea657604051638176867d60e01b815260040160405180910390fd5b610163546001600160a01b03828116600090815261016b60205260408120600401549190921691908190815b81811015613f70576001600160a01b038616600090815261016b60205260409020600401805482908110613f1657634e487b7160e01b600052603260045260246000fd5b6000918252602090912001546001600160a01b03169250613f3683610ca3565b8015613f4b57506000613f4984886126f4565b115b15613f5e57613f5b600185615877565b93505b80613f6881615947565b915050613ed2565b5061016660009054906101000a90046001600160a01b03166001600160a01b03166351118cfb6040518163ffffffff1660e01b8152600401602060405180830381600087803b158015613fc257600080fd5b505af1158015613fd6573d6000803e3d6000fd5b505050506040513d601f19601f82011682018060405250810190613ffa9190615323565b83101561401a576040516302c0ac8f60e61b815260040160405180910390fd5b6001600160a01b03808616600090815261016b60205260409020805460ff191660011790556101675461016854614059928781169233929116906146f2565b6040516001600160a01b0386169033907f9d20d3ae19788f508f4eab7f2347e8be09a77d3394e12b3f4ebb15f63c85b37a90600090a35050505050565b806001600160a01b031663b0db49306040518163ffffffff1660e01b815260040160206040518083038186803b1580156140cf57600080fd5b505afa1580156140e3573d6000803e3d6000fd5b505050506040513d601f19601f8201168201806040525081019061410791906152a5565b61412457604051634573d3f960e01b815260040160405180910390fd5b61016680546001600160a01b0319166001600160a01b0383161790556040517f5d836e0ba607c52b1dceb0fd428714bc02d853f50390605467267c834f7c2af4906124d1908390615442565b6115708363a9059cbb60e01b848460405160240161418f9291906154d5565b60408051601f198184030181529190526020810180516001600160e01b03166001600160e01b03199093169290921790915261482b565b6141d08282612d00565b6115ef576141e8816001600160a01b031660146148fd565b6141f38360206148fd565b6040516020016142049291906153d3565b60408051601f198184030181529082905262461bcd60e51b8252610bb1916004016155fd565b6142348282612d00565b6115ef57600082815260c9602090815260408083206001600160a01b03851684529091529020805460ff1916600117905561426c3390565b6001600160a01b0316816001600160a01b0316837f2f8788117e7eff1d82e926ec794901d17c78024a50270940304540a733656f0d60405160405180910390a45050565b6142ba8282612d00565b156115ef57600082815260c9602090815260408083206001600160a01b0385168085529252808320805460ff1916905551339285917ff6391f5c32d9c69d2a47ea670b442974b53935d1edc7fd64eb21e047a839171b9190a45050565b7f360894a13ba1a3210667c828492db98dca3e2076cc3735a920a3ca505d382bbc546001600160a01b031690565b61435d60008051602061599d83398151915233612d00565b610ca05760405162461bcd60e51b8152600401610bb1906156c8565b6000614383614317565b905061438e84614ae5565b60008351118061439b5750815b156143ac576143aa8484614b8a565b505b7f4910fdfa16fed3260ed0e7147f7cc6da11a60208b5b9406d12a635614ffd9143805460ff166144b957805460ff191660011781556040516144279086906143f8908590602401615442565b60408051601f198184030181529190526020810180516001600160e01b0316631b2ce7f360e11b179052614b8a565b50805460ff19168155614438614317565b6001600160a01b0316826001600160a01b0316146144b05760405162461bcd60e51b815260206004820152602f60248201527f45524331393637557067726164653a207570677261646520627265616b73206660448201526e75727468657220757067726164657360881b6064820152608401610bb1565b6144b985614c6c565b5050505050565b8015614600576000805b6001600160a01b038416600090815261016b602052604090206004015481101561456d576001600160a01b038416600090815261016b6020526040812060040180548390811061452a57634e487b7160e01b600052603260045260246000fd5b60009182526020822001546001600160a01b0316915061454a8287613b7f565b90506145568185615877565b93505050808061456590615947565b9150506144ca565b506001600160a01b038316600090815261016d60205260409020546145aa578061016a600082825461459f9190615877565b909155506145e29050565b6001600160a01b038316600090815261016d602052604090205461016a546145d3908390615877565b6145dd91906158ed565b61016a555b6001600160a01b038316600090815261016d60205260409020555050565b6001600160a01b038216600090815261016d602052604090205461016a54111561465d576001600160a01b038216600090815261016d602052604081205461016a8054919290916146529084906158ed565b909155506146649050565b600061016a555b506001600160a01b0316600090815261016d6020526040812055565b600054610100900460ff166146a75760405162461bcd60e51b8152600401610bb1906157c9565b6146af614cac565b6146b7614cac565b565b6115ef828261422a565b600054610100900460ff166146ea5760405162461bcd60e51b8152600401610bb1906157c9565b6146b7614cd3565b614713846323b872dd60e01b85858560405160240161418f93929190615470565b50505050565b8015806147a15750604051636eb1769f60e11b81526001600160a01b0384169063dd62ed3e9061474f9030908690600401615456565b60206040518083038186803b15801561476757600080fd5b505afa15801561477b573d6000803e3d6000fd5b505050506040513d601f19601f8201168201806040525081019061479f9190615323565b155b61480c5760405162461bcd60e51b815260206004820152603660248201527f5361666545524332303a20617070726f76652066726f6d206e6f6e2d7a65726f60448201527520746f206e6f6e2d7a65726f20616c6c6f77616e636560501b6064820152608401610bb1565b6115708363095ea7b360e01b848460405160240161418f9291906154d5565b6000614880826040518060400160405280602081526020017f5361666545524332303a206c6f772d6c6576656c2063616c6c206661696c6564815250856001600160a01b0316614d029092919063ffffffff16565b805190915015611570578080602001905181019061489e91906152a5565b6115705760405162461bcd60e51b815260206004820152602a60248201527f5361666545524332303a204552433230206f7065726174696f6e20646964206e6044820152691bdd081cdd58d8d9595960b21b6064820152608401610bb1565b6060600061490c83600261588f565b614917906002615877565b6001600160401b0381111561493c57634e487b7160e01b600052604160045260246000fd5b6040519080825280601f01601f191660200182016040528015614966576020820181803683370190505b509050600360fc1b8160008151811061498f57634e487b7160e01b600052603260045260246000fd5b60200101906001600160f81b031916908160001a905350600f60fb1b816001815181106149cc57634e487b7160e01b600052603260045260246000fd5b60200101906001600160f81b031916908160001a90535060006149f084600261588f565b6149fb906001615877565b90505b6001811115614a8f576f181899199a1a9b1b9c1cb0b131b232b360811b85600f1660108110614a3d57634e487b7160e01b600052603260045260246000fd5b1a60f81b828281518110614a6157634e487b7160e01b600052603260045260246000fd5b60200101906001600160f81b031916908160001a90535060049490941c93614a8881615930565b90506149fe565b508315614ade5760405162461bcd60e51b815260206004820181905260248201527f537472696e67733a20686578206c656e67746820696e73756666696369656e746044820152606401610bb1565b9392505050565b803b614b495760405162461bcd60e51b815260206004820152602d60248201527f455243313936373a206e657720696d706c656d656e746174696f6e206973206e60448201526c1bdd08184818dbdb9d1c9858dd609a1b6064820152608401610bb1565b7f360894a13ba1a3210667c828492db98dca3e2076cc3735a920a3ca505d382bbc80546001600160a01b0319166001600160a01b0392909216919091179055565b6060823b614be95760405162461bcd60e51b815260206004820152602660248201527f416464726573733a2064656c65676174652063616c6c20746f206e6f6e2d636f6044820152651b9d1c9858dd60d21b6064820152608401610bb1565b600080846001600160a01b031684604051614c0491906153b7565b600060405180830381855af49150503d8060008114614c3f576040519150601f19603f3d011682016040523d82523d6000602084013e614c44565b606091505b509150915061273f82826040518060600160405280602781526020016159bd60279139614d19565b614c7581614ae5565b6040516001600160a01b038216907fbc7cd75a20ee27fd9adebab32041f755214dbc6bffa90cc0225b39da2e5c2d3b90600090a250565b600054610100900460ff166146b75760405162461bcd60e51b8152600401610bb1906157c9565b600054610100900460ff16614cfa5760405162461bcd60e51b8152600401610bb1906157c9565b600161012f55565b6060614d118484600085614d52565b949350505050565b60608315614d28575081614ade565b825115614d385782518084602001fd5b8160405162461bcd60e51b8152600401610bb191906155fd565b606082471015614db35760405162461bcd60e51b815260206004820152602660248201527f416464726573733a20696e73756666696369656e742062616c616e636520666f6044820152651c8818d85b1b60d21b6064820152608401610bb1565b843b614e015760405162461bcd60e51b815260206004820152601d60248201527f416464726573733a2063616c6c20746f206e6f6e2d636f6e74726163740000006044820152606401610bb1565b600080866001600160a01b03168587604051614e1d91906153b7565b60006040518083038185875af1925050503d8060008114614e5a576040519150601f19603f3d011682016040523d82523d6000602084013e614e5f565b606091505b5091509150614e6f828286614d19565b979650505050505050565b60405180610120016040528060608152602001606081526020016000815260200160006001600160a01b0316815260200160008152602001600081526020016000815260200160008152602001600081525090565b604051806080016040528060006001600160a01b031681526020016000815260200160008152602001600081525090565b80356001600160a01b0381168114614f1757600080fd5b919050565b60008083601f840112614f2d578081fd5b5081356001600160401b03811115614f43578182fd5b6020830191508360208260051b8501011115614f5e57600080fd5b9250929050565b803560ff81168114614f1757600080fd5b600060208284031215614f87578081fd5b614ade82614f00565b60008060408385031215614fa2578081fd5b614fab83614f00565b9150614fb960208401614f00565b90509250929050565b60008060008060008060c08789031215614fda578182fd5b614fe387614f00565b9550614ff160208801614f00565b9450614fff60408801614f00565b935061500d60608801614f00565b925061501b60808801614f00565b915061502960a08801614f00565b90509295509295509295565b600080600060608486031215615049578283fd5b61505284614f00565b925061506060208501614f00565b9150604084013590509250925092565b60008060408385031215615082578182fd5b61508b83614f00565b9150602083013561509b8161598e565b809150509250929050565b600080604083850312156150b8578182fd5b6150c183614f00565b915060208301356001600160401b03808211156150dc578283fd5b818501915085601f8301126150ef578283fd5b81358181111561510157615101615978565b604051601f8201601f19908116603f0116810190838211818310171561512957615129615978565b81604052828152886020848701011115615141578586fd5b82602086016020830137856020848301015280955050505050509250929050565b60008060408385031215615174578182fd5b61517d83614f00565b946020939093013593505050565b60008060006060848603121561519f578283fd5b6151a884614f00565b92506020840135915060408401356151bf8161598e565b809150509250925092565b60008060008060008060c087890312156151e2578182fd5b6151eb87614f00565b9550602087013594506040870135935061520760608801614f65565b92506080870135915060a087013590509295509295509295565b60008060008060408587031215615236578182fd5b84356001600160401b038082111561524c578384fd5b61525888838901614f1c565b90965094506020870135915080821115615270578384fd5b5061527d87828801614f1c565b95989497509550505050565b60006020828403121561529a578081fd5b8135614ade8161598e565b6000602082840312156152b6578081fd5b8151614ade8161598e565b6000602082840312156152d2578081fd5b5035919050565b600080604083850312156152eb578182fd5b82359150614fb960208401614f00565b60006020828403121561530c578081fd5b81356001600160e01b031981168114614ade578182fd5b600060208284031215615334578081fd5b5051919050565b60008060008060008060c08789031215615353578384fd5b86359550602087013594506040870135935061520760608801614f65565b600080600080600060a08688031215615388578283fd5b853594506020860135935061539f60408701614f65565b94979396509394606081013594506080013592915050565b600082516153c9818460208701615904565b9190910192915050565b76020b1b1b2b9b9a1b7b73a3937b61d1030b1b1b7bab73a1604d1b815260008351615405816017850160208801615904565b7001034b99036b4b9b9b4b733903937b6329607d1b6017918401918201528351615436816028840160208801615904565b01602801949350505050565b6001600160a01b0391909116815260200190565b6001600160a01b0392831681529116602082015260400190565b6001600160a01b039384168152919092166020820152604081019190915260600190565b6001600160a01b0397881681529590961660208601526040850193909352606084019190915260ff16608083015260a082015260c081019190915260e00190565b6001600160a01b03929092168252602082015260400190565b6020808252825182820181905260009190848201906040850190845b8181101561552f5783516001600160a01b03168352928401929184019160010161550a565b50909695505050505050565b608080825285518282018190526000919060209060a0850190828a01855b8281101561559c57815180516001600160a01b03168552858101518686015260408082015190860152606090810151908501529285019290840190600101615559565b5050506001600160a01b038816858301529250505083604083015261273f606083018415159052565b6020808252825182820181905260009190848201906040850190845b8181101561552f578351835292840192918401916001016155e1565b602081526000825180602084015261561c816040850160208701615904565b601f01601f19169190910160400192915050565b6020808252602c908201527f46756e6374696f6e206d7573742062652063616c6c6564207468726f7567682060408201526b19195b1959d85d1958d85b1b60a21b606082015260800190565b6020808252602c908201527f46756e6374696f6e206d7573742062652063616c6c6564207468726f7567682060408201526b6163746976652070726f787960a01b606082015260800190565b60208082526015908201527421b7b73a3937b63632b91d103737ba1030b236b4b760591b604082015260600190565b60208082526032908201527f436f6e74726f6c6c65723a2063616c6c657220646f6573206e6f7420686176656040820152712074686520677561726469616e20726f6c6560701b606082015260800190565b602080825260189082015277436f6e74726f6c6c65723a2061646472657373207a65726f60401b604082015260600190565b6020808252602e908201527f496e697469616c697a61626c653a20636f6e747261637420697320616c72656160408201526d191e481a5b9a5d1a585b1a5e995960921b606082015260800190565b6020808252602b908201527f496e697469616c697a61626c653a20636f6e7472616374206973206e6f74206960408201526a6e697469616c697a696e6760a81b606082015260800190565b6020808252601f908201527f5265656e7472616e637947756172643a207265656e7472616e742063616c6c00604082015260600190565b60208082526012908201527110dbdb9d1c9bdb1b195c8e881c185d5cd95960721b604082015260600190565b6000821982111561588a5761588a615962565b500190565b60008160001904831182151516156158a9576158a9615962565b500290565b60008083128015600160ff1b8501841216156158cc576158cc615962565b6001600160ff1b03840183138116156158e7576158e7615962565b50500390565b6000828210156158ff576158ff615962565b500390565b60005b8381101561591f578181015183820152602001615907565b838111156147135750506000910152565b60008161593f5761593f615962565b506000190190565b600060001982141561595b5761595b615962565b5060010190565b634e487b7160e01b600052601160045260246000fd5b634e487b7160e01b600052604160045260246000fd5b8015158114610ca057600080fdfe2172861495e7b85edac73e3cd5fbb42dd675baadf627720e687bcfdaca025096416464726573733a206c6f772d6c6576656c2064656c65676174652063616c6c206661696c6564a26469706673582212200f1aaef6a6333b7d3c28bcd806163ac6f457bfec5a92eff1bd20233aa410b31864736f6c63430008040033",
  "devdoc": {
    "kind": "dev",
    "methods": {
      "addAdmin(address)": {
        "details": "Add a new admin account",
        "params": {
          "account": "Account address"
        }
      },
      "addMember(address)": {
        "details": "Add member  Only accepts calls from the admin  Emit {LogAddMember} event",
        "params": {
          "account": "Member address"
        }
      },
      "batchUpdateTotalFrozen(address[],bool[])": {
        "details": "Batch update total Frozen",
        "params": {
          "accounts": "array of accounts to update frozen for",
          "isOverdues": "array of bools to determine if the account is overdue"
        }
      },
      "cancelVouch(address,address)": {
        "details": "Stop vouch for other member.  Only callable by a member when the contract is not paused  Emit {LogCancelVouch} event",
        "params": {
          "borrower": "borrower address",
          "staker": "Staker address"
        }
      },
      "checkIsMember(address)": {
        "details": "Check if the account is a valid member",
        "params": {
          "account": "Member address"
        },
        "returns": {
          "_0": "Address whether is member"
        }
      },
      "debtWriteOff(address,uint256)": {
        "details": "Write off a borrowers debt  Emits {LogDebtWriteOff} event",
        "params": {
          "amount": "amount to writeoff",
          "borrower": "address of borrower"
        }
      },
      "getBorrowerAddresses(address)": {
        "details": "Get member borrowerAddresses",
        "params": {
          "account": "Member address"
        },
        "returns": {
          "_0": "Address array"
        }
      },
      "getBorrowerAsset(address,address)": {
        "details": "Get member backer asset",
        "params": {
          "account": "Member address",
          "borrower": "Borrower address"
        },
        "returns": {
          "trustAmount": "vouchingAmount lockedStake. Trust amount, vouch amount, and locked stake amount"
        }
      },
      "getCreditLimit(address)": {
        "details": "Get the member's available credit line",
        "params": {
          "borrower": "Member address"
        },
        "returns": {
          "_0": "Credit line amount"
        }
      },
      "getFrozenCoinAge(address,uint256)": {
        "details": "get frozen coin age",
        "params": {
          "pastBlocks": "past blocks",
          "staker": "address of the staker"
        }
      },
      "getLockedStake(address,address)": {
        "details": "Get staker locked stake for a borrower",
        "params": {
          "borrower": "Borrower address",
          "staker": "Staker address"
        },
        "returns": {
          "_0": "LockedStake"
        }
      },
      "getRoleAdmin(bytes32)": {
        "details": "Returns the admin role that controls `role`. See {grantRole} and {revokeRole}. To change a role's admin, use {_setRoleAdmin}."
      },
      "getStakerAddresses(address)": {
        "details": "Get member stakerAddresses",
        "params": {
          "account": "Member address"
        },
        "returns": {
          "_0": "Address array"
        }
      },
      "getStakerAsset(address,address)": {
        "details": "Get member stakers asset",
        "params": {
          "account": "Member address",
          "staker": "Staker address"
        },
        "returns": {
          "trustAmount": "lockedStake vouchingAmount. Vouch amount and lockedStake"
        }
      },
      "getStakerBalance(address)": {
        "details": "Get the user's deposited stake amount",
        "params": {
          "account": "Member address"
        },
        "returns": {
          "_0": "Deposited stake amount"
        }
      },
      "getTotalFrozenAmount(address)": {
        "details": "Get staker's defaulted / frozen staked token amount",
        "params": {
          "staker": "Staker address"
        },
        "returns": {
          "_0": "Frozen token amount"
        }
      },
      "getTotalLockedStake(address)": {
        "details": "Get the user's locked stake from all his backed loans",
        "params": {
          "staker": "Staker address"
        },
        "returns": {
          "_0": "LockedStake"
        }
      },
      "getVouchingAmount(address,address)": {
        "details": "Get vouching amount",
        "params": {
          "borrower": "Borrower address",
          "staker": "Staker address"
        }
      },
      "grantRole(bytes32,address)": {
        "details": "Grants `role` to `account`. If `account` had not been already granted `role`, emits a {RoleGranted} event. Requirements: - the caller must have ``role``'s admin role."
      },
      "hasRole(bytes32,address)": {
        "details": "Returns `true` if `account` has been granted `role`."
      },
      "isAdmin(address)": {
        "details": "Check if the address provided is the admin",
        "params": {
          "account": "Account address"
        }
      },
      "pause()": {
        "details": "Called by a pauser to pause, triggers stopped state."
      },
      "paused()": {
        "details": "Returns true if the contract is paused, and false otherwise."
      },
      "registerMember(address)": {
        "details": "Register member with a fee, send fees back to comptroller",
        "params": {
          "newMember": "New member address"
        }
      },
      "registerMemberWithPermit(address,uint256,uint256,uint8,bytes32,bytes32)": {
        "details": "Apply for a membership using a signed permit",
        "params": {
          "deadline": "Timestamp for when the permit expires",
          "newMember": "New member address",
          "r": "secp256k1 signature part",
          "s": "secp256k1 signature part",
          "v": "secp256k1 signature part",
          "value": "Amount approved by permit"
        }
      },
      "renounceAdmin()": {
        "details": "Renouce the admin from the sender's address"
      },
      "renounceRole(bytes32,address)": {
        "details": "Revokes `role` from the calling account. Roles are often managed via {grantRole} and {revokeRole}: this function's purpose is to provide a mechanism for accounts to lose their privileges if they are compromised (such as when a trusted device is misplaced). If the calling account had been revoked `role`, emits a {RoleRevoked} event. Requirements: - the caller must be `account`."
      },
      "repayLoanOverdue(address,address,uint256)": {
        "details": "Repay user's loan overdue, only called by UToken",
        "params": {
          "account": "User address",
          "lastRepay": "Last repay block number",
          "token": "The asset token repaying to"
        }
      },
      "revokeRole(bytes32,address)": {
        "details": "Revokes `role` from `account`. If `account` had been granted `role`, emits a {RoleRevoked} event. Requirements: - the caller must have ``role``'s admin role."
      },
      "setCreditLimitModel(address)": {
        "details": "Change the credit limit model  Only accepts calls from the admin",
        "params": {
          "newCreditLimitModel": "New credit limit model address"
        }
      },
      "setGuardian(address)": {
        "details": "Set pauseGuardian account",
        "params": {
          "account": "Account address"
        }
      },
      "setMaxStakeAmount(uint256)": {
        "details": "Set the max amount that a user can stake Emits {LogSetMaxStakeAmount} event",
        "params": {
          "maxStakeAmount_": "The max stake amount"
        }
      },
      "setNewMemberFee(uint256)": {
        "details": "set New Member fee Emits {LogSetNewMemberFee} event",
        "params": {
          "amount": "New member fee amount"
        }
      },
      "setUToken(address)": {
        "details": "set the UToken contract address Emits {LogSetUToken} event",
        "params": {
          "uToken_": "UToken contract address"
        }
      },
      "stake(uint256)": {
        "details": "Stake staking token to earn rewards from the comptroller  Emits a {LogStake} event.",
        "params": {
          "amount": "Amount to stake"
        }
      },
      "stakeWithERC20Permit(uint256,uint256,uint8,bytes32,bytes32)": {
        "details": "Stake using ERC20 permit",
        "params": {
          "amount": "Amount"
        }
      },
      "stakeWithPermit(uint256,uint256,uint256,uint8,bytes32,bytes32)": {
        "details": "Stake using DAI permit",
        "params": {
          "amount": "Amount to stake",
          "expiry": "Timestamp for when the permit expires",
          "nonce": "Nonce",
          "r": "secp256k1 signature part",
          "s": "secp256k1 signature part",
          "v": "secp256k1 signature part"
        }
      },
      "supportsInterface(bytes4)": {
        "details": "See {IERC165-supportsInterface}."
      },
      "unpause()": {
        "details": "Called by a pauser to unpause, returns to normal state."
      },
      "unstake(uint256)": {
        "details": "Unstake staking token from comptroller  Emits {LogUnstake} event",
        "params": {
          "amount": "Amount to unstake"
        }
      },
      "updateLockedData(address,uint256,bool)": {
        "details": "Updates locked amounts for this borrowers stakers",
        "params": {
          "amount": "Amount being locked",
          "isBorrow": "if this is a borrow or a repayment"
        }
      },
      "updateTotalFrozen(address,bool)": {
        "details": "Update total frozen",
        "params": {
          "account": "borrower address",
          "isOverdue": "account is overdue"
        }
      },
      "updateTrust(address,uint256)": {
        "details": "Update the trust amount for exisitng members.  Emits {LogUpdateTrust} event",
        "params": {
          "borrower_": "Account address",
          "trustAmount": "Trust amount"
        }
      },
      "upgradeTo(address)": {
        "details": "Upgrade the implementation of the proxy to `newImplementation`. Calls {_authorizeUpgrade}. Emits an {Upgraded} event."
      },
      "upgradeToAndCall(address,bytes)": {
        "details": "Upgrade the implementation of the proxy to `newImplementation`, and subsequently execute the function call encoded in `data`. Calls {_authorizeUpgrade}. Emits an {Upgraded} event."
      }
    },
    "version": 1
  },
  "userdoc": {
    "kind": "user",
    "methods": {},
    "version": 1
  },
  "storageLayout": {
    "storage": [
      {
        "astId": 824,
        "contract": "contracts/user/UserManagerArb.sol:UserManagerArb",
        "label": "_initialized",
        "offset": 0,
        "slot": "0",
        "type": "t_bool"
      },
      {
        "astId": 827,
        "contract": "contracts/user/UserManagerArb.sol:UserManagerArb",
        "label": "_initializing",
        "offset": 1,
        "slot": "0",
        "type": "t_bool"
      },
      {
        "astId": 806,
        "contract": "contracts/user/UserManagerArb.sol:UserManagerArb",
        "label": "__gap",
        "offset": 0,
        "slot": "1",
        "type": "t_array(t_uint256)50_storage"
      },
      {
        "astId": 1001,
        "contract": "contracts/user/UserManagerArb.sol:UserManagerArb",
        "label": "__gap",
        "offset": 0,
        "slot": "51",
        "type": "t_array(t_uint256)50_storage"
      },
      {
        "astId": 2481,
        "contract": "contracts/user/UserManagerArb.sol:UserManagerArb",
        "label": "__gap",
        "offset": 0,
        "slot": "101",
        "type": "t_array(t_uint256)50_storage"
      },
      {
        "astId": 3403,
        "contract": "contracts/user/UserManagerArb.sol:UserManagerArb",
        "label": "__gap",
        "offset": 0,
        "slot": "151",
        "type": "t_array(t_uint256)50_storage"
      },
      {
        "astId": 48,
        "contract": "contracts/user/UserManagerArb.sol:UserManagerArb",
        "label": "_roles",
        "offset": 0,
        "slot": "201",
        "type": "t_mapping(t_bytes32,t_struct(RoleData)43_storage)"
      },
      {
        "astId": 335,
        "contract": "contracts/user/UserManagerArb.sol:UserManagerArb",
        "label": "__gap",
        "offset": 0,
        "slot": "202",
        "type": "t_array(t_uint256)49_storage"
      },
      {
        "astId": 12161,
        "contract": "contracts/user/UserManagerArb.sol:UserManagerArb",
        "label": "_admins",
        "offset": 0,
        "slot": "251",
        "type": "t_mapping(t_address,t_address)"
      },
      {
        "astId": 12163,
        "contract": "contracts/user/UserManagerArb.sol:UserManagerArb",
        "label": "_paused",
        "offset": 0,
        "slot": "252",
        "type": "t_bool"
      },
      {
        "astId": 12165,
        "contract": "contracts/user/UserManagerArb.sol:UserManagerArb",
        "label": "pauseGuardian",
        "offset": 1,
        "slot": "252",
        "type": "t_address"
      },
      {
        "astId": 12405,
        "contract": "contracts/user/UserManagerArb.sol:UserManagerArb",
        "label": "______gap",
        "offset": 0,
        "slot": "253",
        "type": "t_array(t_uint256)50_storage"
      },
      {
        "astId": 1016,
        "contract": "contracts/user/UserManagerArb.sol:UserManagerArb",
        "label": "_status",
        "offset": 0,
        "slot": "303",
        "type": "t_uint256"
      },
      {
        "astId": 1059,
        "contract": "contracts/user/UserManagerArb.sol:UserManagerArb",
        "label": "__gap",
        "offset": 0,
        "slot": "304",
        "type": "t_array(t_uint256)49_storage"
      },
      {
        "astId": 26722,
        "contract": "contracts/user/UserManagerArb.sol:UserManagerArb",
        "label": "maxStakeAmount",
        "offset": 0,
        "slot": "353",
        "type": "t_uint256"
      },
      {
        "astId": 26725,
        "contract": "contracts/user/UserManagerArb.sol:UserManagerArb",
        "label": "stakingToken",
        "offset": 0,
        "slot": "354",
        "type": "t_address"
      },
      {
        "astId": 26728,
        "contract": "contracts/user/UserManagerArb.sol:UserManagerArb",
        "label": "unionToken",
        "offset": 0,
        "slot": "355",
        "type": "t_address"
      },
      {
        "astId": 26731,
        "contract": "contracts/user/UserManagerArb.sol:UserManagerArb",
        "label": "assetManager",
        "offset": 0,
        "slot": "356",
        "type": "t_address"
      },
      {
        "astId": 26735,
        "contract": "contracts/user/UserManagerArb.sol:UserManagerArb",
        "label": "uToken",
        "offset": 0,
        "slot": "357",
        "type": "t_contract(IUToken)17610"
      },
      {
        "astId": 26739,
        "contract": "contracts/user/UserManagerArb.sol:UserManagerArb",
        "label": "creditLimitModel",
        "offset": 0,
        "slot": "358",
        "type": "t_contract(ICreditLimitModel)17168"
      },
      {
        "astId": 26743,
        "contract": "contracts/user/UserManagerArb.sol:UserManagerArb",
        "label": "comptroller",
        "offset": 0,
        "slot": "359",
        "type": "t_contract(IComptroller)17120"
      },
      {
        "astId": 26746,
        "contract": "contracts/user/UserManagerArb.sol:UserManagerArb",
        "label": "newMemberFee",
        "offset": 0,
        "slot": "360",
        "type": "t_uint256"
      },
      {
        "astId": 26750,
        "contract": "contracts/user/UserManagerArb.sol:UserManagerArb",
        "label": "totalStaked",
        "offset": 0,
        "slot": "361",
        "type": "t_uint256"
      },
      {
        "astId": 26754,
        "contract": "contracts/user/UserManagerArb.sol:UserManagerArb",
        "label": "totalFrozen",
        "offset": 0,
        "slot": "362",
        "type": "t_uint256"
      },
      {
        "astId": 26760,
        "contract": "contracts/user/UserManagerArb.sol:UserManagerArb",
        "label": "members",
        "offset": 0,
        "slot": "363",
        "type": "t_mapping(t_address,t_struct(Member)26679_storage)"
      },
      {
        "astId": 26765,
        "contract": "contracts/user/UserManagerArb.sol:UserManagerArb",
        "label": "stakers",
        "offset": 0,
        "slot": "364",
        "type": "t_mapping(t_address,t_uint256)"
      },
      {
        "astId": 26770,
        "contract": "contracts/user/UserManagerArb.sol:UserManagerArb",
        "label": "memberFrozen",
        "offset": 0,
        "slot": "365",
        "type": "t_mapping(t_address,t_uint256)"
      }
    ],
    "types": {
      "t_address": {
        "encoding": "inplace",
        "label": "address",
        "numberOfBytes": "20"
      },
      "t_array(t_address)dyn_storage": {
        "base": "t_address",
        "encoding": "dynamic_array",
        "label": "address[]",
        "numberOfBytes": "32"
      },
      "t_array(t_uint256)49_storage": {
        "base": "t_uint256",
        "encoding": "inplace",
        "label": "uint256[49]",
        "numberOfBytes": "1568"
      },
      "t_array(t_uint256)50_storage": {
        "base": "t_uint256",
        "encoding": "inplace",
        "label": "uint256[50]",
        "numberOfBytes": "1600"
      },
      "t_bool": {
        "encoding": "inplace",
        "label": "bool",
        "numberOfBytes": "1"
      },
      "t_bytes32": {
        "encoding": "inplace",
        "label": "bytes32",
        "numberOfBytes": "32"
      },
      "t_contract(IComptroller)17120": {
        "encoding": "inplace",
        "label": "contract IComptroller",
        "numberOfBytes": "20"
      },
      "t_contract(ICreditLimitModel)17168": {
        "encoding": "inplace",
        "label": "contract ICreditLimitModel",
        "numberOfBytes": "20"
      },
      "t_contract(IUToken)17610": {
        "encoding": "inplace",
        "label": "contract IUToken",
        "numberOfBytes": "20"
      },
      "t_mapping(t_address,t_address)": {
        "encoding": "mapping",
        "key": "t_address",
        "label": "mapping(address => address)",
        "numberOfBytes": "32",
        "value": "t_address"
      },
      "t_mapping(t_address,t_bool)": {
        "encoding": "mapping",
        "key": "t_address",
        "label": "mapping(address => bool)",
        "numberOfBytes": "32",
        "value": "t_bool"
      },
      "t_mapping(t_address,t_struct(Member)26679_storage)": {
        "encoding": "mapping",
        "key": "t_address",
        "label": "mapping(address => struct UserManager.Member)",
        "numberOfBytes": "32",
        "value": "t_struct(Member)26679_storage"
      },
      "t_mapping(t_address,t_uint256)": {
        "encoding": "mapping",
        "key": "t_address",
        "label": "mapping(address => uint256)",
        "numberOfBytes": "32",
        "value": "t_uint256"
      },
      "t_mapping(t_bytes32,t_struct(RoleData)43_storage)": {
        "encoding": "mapping",
        "key": "t_bytes32",
        "label": "mapping(bytes32 => struct AccessControlUpgradeable.RoleData)",
        "numberOfBytes": "32",
        "value": "t_struct(RoleData)43_storage"
      },
      "t_struct(CreditLine)26698_storage": {
        "encoding": "inplace",
        "label": "struct UserManager.CreditLine",
        "members": [
          {
            "astId": 26683,
            "contract": "contracts/user/UserManagerArb.sol:UserManagerArb",
            "label": "borrowers",
            "offset": 0,
            "slot": "0",
            "type": "t_mapping(t_address,t_uint256)"
          },
          {
            "astId": 26686,
            "contract": "contracts/user/UserManagerArb.sol:UserManagerArb",
            "label": "borrowerAddresses",
            "offset": 0,
            "slot": "1",
            "type": "t_array(t_address)dyn_storage"
          },
          {
            "astId": 26690,
            "contract": "contracts/user/UserManagerArb.sol:UserManagerArb",
            "label": "stakers",
            "offset": 0,
            "slot": "2",
            "type": "t_mapping(t_address,t_uint256)"
          },
          {
            "astId": 26693,
            "contract": "contracts/user/UserManagerArb.sol:UserManagerArb",
            "label": "stakerAddresses",
            "offset": 0,
            "slot": "3",
            "type": "t_array(t_address)dyn_storage"
          },
          {
            "astId": 26697,
            "contract": "contracts/user/UserManagerArb.sol:UserManagerArb",
            "label": "lockedAmount",
            "offset": 0,
            "slot": "4",
            "type": "t_mapping(t_address,t_uint256)"
          }
        ],
        "numberOfBytes": "160"
      },
      "t_struct(Member)26679_storage": {
        "encoding": "inplace",
        "label": "struct UserManager.Member",
        "members": [
          {
            "astId": 26675,
            "contract": "contracts/user/UserManagerArb.sol:UserManagerArb",
            "label": "isMember",
            "offset": 0,
            "slot": "0",
            "type": "t_bool"
          },
          {
            "astId": 26678,
            "contract": "contracts/user/UserManagerArb.sol:UserManagerArb",
            "label": "creditLine",
            "offset": 0,
            "slot": "1",
            "type": "t_struct(CreditLine)26698_storage"
          }
        ],
        "numberOfBytes": "192"
      },
      "t_struct(RoleData)43_storage": {
        "encoding": "inplace",
        "label": "struct AccessControlUpgradeable.RoleData",
        "members": [
          {
            "astId": 40,
            "contract": "contracts/user/UserManagerArb.sol:UserManagerArb",
            "label": "members",
            "offset": 0,
            "slot": "0",
            "type": "t_mapping(t_address,t_bool)"
          },
          {
            "astId": 42,
            "contract": "contracts/user/UserManagerArb.sol:UserManagerArb",
            "label": "adminRole",
            "offset": 0,
            "slot": "1",
            "type": "t_bytes32"
          }
        ],
        "numberOfBytes": "64"
      },
      "t_uint256": {
        "encoding": "inplace",
        "label": "uint256",
        "numberOfBytes": "32"
      }
    }
  }
}