{
  "address": "0x88fBf51538dB90b04809f9853a42c764fdFbE888",
  "abi": [
    {
      "inputs": [
        {
          "internalType": "contract ERC20VotesComp",
          "name": "_token",
          "type": "address"
        },
        {
          "internalType": "contract TimelockController",
          "name": "_timelock",
          "type": "address"
        },
        {
          "internalType": "uint256",
          "name": "initialVotingDelay",
          "type": "uint256"
        },
        {
          "internalType": "uint256",
          "name": "initialVotingPeriod",
          "type": "uint256"
        },
        {
          "internalType": "uint256",
          "name": "initialProposalThreshold",
          "type": "uint256"
        }
      ],
      "stateMutability": "nonpayable",
      "type": "constructor"
    },
    {
      "anonymous": false,
      "inputs": [
        {
          "indexed": false,
          "internalType": "uint256",
          "name": "proposalId",
          "type": "uint256"
        }
      ],
      "name": "ProposalCanceled",
      "type": "event"
    },
    {
      "anonymous": false,
      "inputs": [
        {
          "indexed": false,
          "internalType": "uint256",
          "name": "proposalId",
          "type": "uint256"
        },
        {
          "indexed": false,
          "internalType": "address",
          "name": "proposer",
          "type": "address"
        },
        {
          "indexed": false,
          "internalType": "address[]",
          "name": "targets",
          "type": "address[]"
        },
        {
          "indexed": false,
          "internalType": "uint256[]",
          "name": "values",
          "type": "uint256[]"
        },
        {
          "indexed": false,
          "internalType": "string[]",
          "name": "signatures",
          "type": "string[]"
        },
        {
          "indexed": false,
          "internalType": "bytes[]",
          "name": "calldatas",
          "type": "bytes[]"
        },
        {
          "indexed": false,
          "internalType": "uint256",
          "name": "startBlock",
          "type": "uint256"
        },
        {
          "indexed": false,
          "internalType": "uint256",
          "name": "endBlock",
          "type": "uint256"
        },
        {
          "indexed": false,
          "internalType": "string",
          "name": "description",
          "type": "string"
        }
      ],
      "name": "ProposalCreated",
      "type": "event"
    },
    {
      "anonymous": false,
      "inputs": [
        {
          "indexed": false,
          "internalType": "uint256",
          "name": "proposalId",
          "type": "uint256"
        }
      ],
      "name": "ProposalExecuted",
      "type": "event"
    },
    {
      "anonymous": false,
      "inputs": [
        {
          "indexed": false,
          "internalType": "uint256",
          "name": "proposalId",
          "type": "uint256"
        },
        {
          "indexed": false,
          "internalType": "uint256",
          "name": "eta",
          "type": "uint256"
        }
      ],
      "name": "ProposalQueued",
      "type": "event"
    },
    {
      "anonymous": false,
      "inputs": [
        {
          "indexed": false,
          "internalType": "uint256",
          "name": "oldProposalThreshold",
          "type": "uint256"
        },
        {
          "indexed": false,
          "internalType": "uint256",
          "name": "newProposalThreshold",
          "type": "uint256"
        }
      ],
      "name": "ProposalThresholdSet",
      "type": "event"
    },
    {
      "anonymous": false,
      "inputs": [
        {
          "indexed": false,
          "internalType": "address",
          "name": "oldTimelock",
          "type": "address"
        },
        {
          "indexed": false,
          "internalType": "address",
          "name": "newTimelock",
          "type": "address"
        }
      ],
      "name": "TimelockChange",
      "type": "event"
    },
    {
      "anonymous": false,
      "inputs": [
        {
          "indexed": true,
          "internalType": "address",
          "name": "voter",
          "type": "address"
        },
        {
          "indexed": false,
          "internalType": "uint256",
          "name": "proposalId",
          "type": "uint256"
        },
        {
          "indexed": false,
          "internalType": "uint8",
          "name": "support",
          "type": "uint8"
        },
        {
          "indexed": false,
          "internalType": "uint256",
          "name": "weight",
          "type": "uint256"
        },
        {
          "indexed": false,
          "internalType": "string",
          "name": "reason",
          "type": "string"
        }
      ],
      "name": "VoteCast",
      "type": "event"
    },
    {
      "anonymous": false,
      "inputs": [
        {
          "indexed": false,
          "internalType": "uint256",
          "name": "oldVotingDelay",
          "type": "uint256"
        },
        {
          "indexed": false,
          "internalType": "uint256",
          "name": "newVotingDelay",
          "type": "uint256"
        }
      ],
      "name": "VotingDelaySet",
      "type": "event"
    },
    {
      "anonymous": false,
      "inputs": [
        {
          "indexed": false,
          "internalType": "uint256",
          "name": "oldVotingPeriod",
          "type": "uint256"
        },
        {
          "indexed": false,
          "internalType": "uint256",
          "name": "newVotingPeriod",
          "type": "uint256"
        }
      ],
      "name": "VotingPeriodSet",
      "type": "event"
    },
    {
      "inputs": [],
      "name": "BALLOT_TYPEHASH",
      "outputs": [
        {
          "internalType": "bytes32",
          "name": "",
          "type": "bytes32"
        }
      ],
      "stateMutability": "view",
      "type": "function"
    },
    {
      "inputs": [],
      "name": "COUNTING_MODE",
      "outputs": [
        {
          "internalType": "string",
          "name": "",
          "type": "string"
        }
      ],
      "stateMutability": "pure",
      "type": "function"
    },
    {
      "inputs": [
        {
          "internalType": "uint256",
          "name": "proposalId",
          "type": "uint256"
        }
      ],
      "name": "cancel",
      "outputs": [],
      "stateMutability": "nonpayable",
      "type": "function"
    },
    {
      "inputs": [
        {
          "internalType": "uint256",
          "name": "proposalId",
          "type": "uint256"
        },
        {
          "internalType": "uint8",
          "name": "support",
          "type": "uint8"
        }
      ],
      "name": "castVote",
      "outputs": [
        {
          "internalType": "uint256",
          "name": "",
          "type": "uint256"
        }
      ],
      "stateMutability": "nonpayable",
      "type": "function"
    },
    {
      "inputs": [
        {
          "internalType": "uint256",
          "name": "proposalId",
          "type": "uint256"
        },
        {
          "internalType": "uint8",
          "name": "support",
          "type": "uint8"
        },
        {
          "internalType": "uint8",
          "name": "v",
          "type": "uint8"
        },
        {
          "internalType": "bytes32",
          "name": "r",
          "type": "bytes32"
        },
        {
          "internalType": "bytes32",
          "name": "s",
          "type": "bytes32"
        }
      ],
      "name": "castVoteBySig",
      "outputs": [
        {
          "internalType": "uint256",
          "name": "",
          "type": "uint256"
        }
      ],
      "stateMutability": "nonpayable",
      "type": "function"
    },
    {
      "inputs": [
        {
          "internalType": "uint256",
          "name": "proposalId",
          "type": "uint256"
        },
        {
          "internalType": "uint8",
          "name": "support",
          "type": "uint8"
        },
        {
          "internalType": "string",
          "name": "reason",
          "type": "string"
        }
      ],
      "name": "castVoteWithReason",
      "outputs": [
        {
          "internalType": "uint256",
          "name": "",
          "type": "uint256"
        }
      ],
      "stateMutability": "nonpayable",
      "type": "function"
    },
    {
      "inputs": [
        {
          "internalType": "address[]",
          "name": "targets",
          "type": "address[]"
        },
        {
          "internalType": "uint256[]",
          "name": "values",
          "type": "uint256[]"
        },
        {
          "internalType": "bytes[]",
          "name": "calldatas",
          "type": "bytes[]"
        },
        {
          "internalType": "bytes32",
          "name": "descriptionHash",
          "type": "bytes32"
        }
      ],
      "name": "execute",
      "outputs": [
        {
          "internalType": "uint256",
          "name": "",
          "type": "uint256"
        }
      ],
      "stateMutability": "payable",
      "type": "function"
    },
    {
      "inputs": [
        {
          "internalType": "uint256",
          "name": "proposalId",
          "type": "uint256"
        }
      ],
      "name": "execute",
      "outputs": [],
      "stateMutability": "payable",
      "type": "function"
    },
    {
      "inputs": [
        {
          "internalType": "uint256",
          "name": "proposalId",
          "type": "uint256"
        }
      ],
      "name": "getActions",
      "outputs": [
        {
          "internalType": "address[]",
          "name": "targets",
          "type": "address[]"
        },
        {
          "internalType": "uint256[]",
          "name": "values",
          "type": "uint256[]"
        },
        {
          "internalType": "string[]",
          "name": "signatures",
          "type": "string[]"
        },
        {
          "internalType": "bytes[]",
          "name": "calldatas",
          "type": "bytes[]"
        }
      ],
      "stateMutability": "view",
      "type": "function"
    },
    {
      "inputs": [
        {
          "internalType": "uint256",
          "name": "proposalId",
          "type": "uint256"
        },
        {
          "internalType": "address",
          "name": "voter",
          "type": "address"
        }
      ],
      "name": "getReceipt",
      "outputs": [
        {
          "components": [
            {
              "internalType": "bool",
              "name": "hasVoted",
              "type": "bool"
            },
            {
              "internalType": "uint8",
              "name": "support",
              "type": "uint8"
            },
            {
              "internalType": "uint96",
              "name": "votes",
              "type": "uint96"
            }
          ],
          "internalType": "struct IGovernorCompatibilityBravo.Receipt",
          "name": "",
          "type": "tuple"
        }
      ],
      "stateMutability": "view",
      "type": "function"
    },
    {
      "inputs": [
        {
          "internalType": "address",
          "name": "account",
          "type": "address"
        },
        {
          "internalType": "uint256",
          "name": "blockNumber",
          "type": "uint256"
        }
      ],
      "name": "getVotes",
      "outputs": [
        {
          "internalType": "uint256",
          "name": "",
          "type": "uint256"
        }
      ],
      "stateMutability": "view",
      "type": "function"
    },
    {
      "inputs": [
        {
          "internalType": "uint256",
          "name": "proposalId",
          "type": "uint256"
        },
        {
          "internalType": "address",
          "name": "account",
          "type": "address"
        }
      ],
      "name": "hasVoted",
      "outputs": [
        {
          "internalType": "bool",
          "name": "",
          "type": "bool"
        }
      ],
      "stateMutability": "view",
      "type": "function"
    },
    {
      "inputs": [
        {
          "internalType": "address[]",
          "name": "targets",
          "type": "address[]"
        },
        {
          "internalType": "uint256[]",
          "name": "values",
          "type": "uint256[]"
        },
        {
          "internalType": "bytes[]",
          "name": "calldatas",
          "type": "bytes[]"
        },
        {
          "internalType": "bytes32",
          "name": "descriptionHash",
          "type": "bytes32"
        }
      ],
      "name": "hashProposal",
      "outputs": [
        {
          "internalType": "uint256",
          "name": "",
          "type": "uint256"
        }
      ],
      "stateMutability": "pure",
      "type": "function"
    },
    {
      "inputs": [
        {
          "internalType": "address",
          "name": "",
          "type": "address"
        }
      ],
      "name": "latestProposalIds",
      "outputs": [
        {
          "internalType": "uint256",
          "name": "",
          "type": "uint256"
        }
      ],
      "stateMutability": "view",
      "type": "function"
    },
    {
      "inputs": [],
      "name": "name",
      "outputs": [
        {
          "internalType": "string",
          "name": "",
          "type": "string"
        }
      ],
      "stateMutability": "view",
      "type": "function"
    },
    {
      "inputs": [],
      "name": "proposalCount",
      "outputs": [
        {
          "internalType": "uint256",
          "name": "",
          "type": "uint256"
        }
      ],
      "stateMutability": "view",
      "type": "function"
    },
    {
      "inputs": [
        {
          "internalType": "uint256",
          "name": "proposalId",
          "type": "uint256"
        }
      ],
      "name": "proposalDeadline",
      "outputs": [
        {
          "internalType": "uint256",
          "name": "",
          "type": "uint256"
        }
      ],
      "stateMutability": "view",
      "type": "function"
    },
    {
      "inputs": [
        {
          "internalType": "uint256",
          "name": "proposalId",
          "type": "uint256"
        }
      ],
      "name": "proposalEta",
      "outputs": [
        {
          "internalType": "uint256",
          "name": "",
          "type": "uint256"
        }
      ],
      "stateMutability": "view",
      "type": "function"
    },
    {
      "inputs": [
        {
          "internalType": "uint256",
          "name": "proposalId",
          "type": "uint256"
        }
      ],
      "name": "proposalSnapshot",
      "outputs": [
        {
          "internalType": "uint256",
          "name": "",
          "type": "uint256"
        }
      ],
      "stateMutability": "view",
      "type": "function"
    },
    {
      "inputs": [],
      "name": "proposalThreshold",
      "outputs": [
        {
          "internalType": "uint256",
          "name": "",
          "type": "uint256"
        }
      ],
      "stateMutability": "view",
      "type": "function"
    },
    {
      "inputs": [
        {
          "internalType": "uint256",
          "name": "proposalId",
          "type": "uint256"
        }
      ],
      "name": "proposals",
      "outputs": [
        {
          "internalType": "uint256",
          "name": "id",
          "type": "uint256"
        },
        {
          "internalType": "address",
          "name": "proposer",
          "type": "address"
        },
        {
          "internalType": "uint256",
          "name": "eta",
          "type": "uint256"
        },
        {
          "internalType": "uint256",
          "name": "startBlock",
          "type": "uint256"
        },
        {
          "internalType": "uint256",
          "name": "endBlock",
          "type": "uint256"
        },
        {
          "internalType": "uint256",
          "name": "forVotes",
          "type": "uint256"
        },
        {
          "internalType": "uint256",
          "name": "againstVotes",
          "type": "uint256"
        },
        {
          "internalType": "uint256",
          "name": "abstainVotes",
          "type": "uint256"
        },
        {
          "internalType": "bool",
          "name": "canceled",
          "type": "bool"
        },
        {
          "internalType": "bool",
          "name": "executed",
          "type": "bool"
        }
      ],
      "stateMutability": "view",
      "type": "function"
    },
    {
      "inputs": [
        {
          "internalType": "address[]",
          "name": "targets",
          "type": "address[]"
        },
        {
          "internalType": "uint256[]",
          "name": "values",
          "type": "uint256[]"
        },
        {
          "internalType": "bytes[]",
          "name": "calldatas",
          "type": "bytes[]"
        },
        {
          "internalType": "string",
          "name": "description",
          "type": "string"
        }
      ],
      "name": "propose",
      "outputs": [
        {
          "internalType": "uint256",
          "name": "",
          "type": "uint256"
        }
      ],
      "stateMutability": "nonpayable",
      "type": "function"
    },
    {
      "inputs": [
        {
          "internalType": "address[]",
          "name": "targets",
          "type": "address[]"
        },
        {
          "internalType": "uint256[]",
          "name": "values",
          "type": "uint256[]"
        },
        {
          "internalType": "string[]",
          "name": "signatures",
          "type": "string[]"
        },
        {
          "internalType": "bytes[]",
          "name": "calldatas",
          "type": "bytes[]"
        },
        {
          "internalType": "string",
          "name": "description",
          "type": "string"
        }
      ],
      "name": "propose",
      "outputs": [
        {
          "internalType": "uint256",
          "name": "",
          "type": "uint256"
        }
      ],
      "stateMutability": "nonpayable",
      "type": "function"
    },
    {
      "inputs": [
        {
          "internalType": "address[]",
          "name": "targets",
          "type": "address[]"
        },
        {
          "internalType": "uint256[]",
          "name": "values",
          "type": "uint256[]"
        },
        {
          "internalType": "bytes[]",
          "name": "calldatas",
          "type": "bytes[]"
        },
        {
          "internalType": "bytes32",
          "name": "descriptionHash",
          "type": "bytes32"
        }
      ],
      "name": "queue",
      "outputs": [
        {
          "internalType": "uint256",
          "name": "",
          "type": "uint256"
        }
      ],
      "stateMutability": "nonpayable",
      "type": "function"
    },
    {
      "inputs": [
        {
          "internalType": "uint256",
          "name": "proposalId",
          "type": "uint256"
        }
      ],
      "name": "queue",
      "outputs": [],
      "stateMutability": "nonpayable",
      "type": "function"
    },
    {
      "inputs": [
        {
          "internalType": "uint256",
          "name": "blockNumber",
          "type": "uint256"
        }
      ],
      "name": "quorum",
      "outputs": [
        {
          "internalType": "uint256",
          "name": "",
          "type": "uint256"
        }
      ],
      "stateMutability": "view",
      "type": "function"
    },
    {
      "inputs": [],
      "name": "quorumVotes",
      "outputs": [
        {
          "internalType": "uint256",
          "name": "",
          "type": "uint256"
        }
      ],
      "stateMutability": "view",
      "type": "function"
    },
    {
      "inputs": [
        {
          "internalType": "uint256",
          "name": "newProposalThreshold",
          "type": "uint256"
        }
      ],
      "name": "setProposalThreshold",
      "outputs": [],
      "stateMutability": "nonpayable",
      "type": "function"
    },
    {
      "inputs": [
        {
          "internalType": "uint256",
          "name": "newVotingDelay",
          "type": "uint256"
        }
      ],
      "name": "setVotingDelay",
      "outputs": [],
      "stateMutability": "nonpayable",
      "type": "function"
    },
    {
      "inputs": [
        {
          "internalType": "uint256",
          "name": "newVotingPeriod",
          "type": "uint256"
        }
      ],
      "name": "setVotingPeriod",
      "outputs": [],
      "stateMutability": "nonpayable",
      "type": "function"
    },
    {
      "inputs": [
        {
          "internalType": "uint256",
          "name": "proposalId",
          "type": "uint256"
        }
      ],
      "name": "state",
      "outputs": [
        {
          "internalType": "enum IGovernor.ProposalState",
          "name": "",
          "type": "uint8"
        }
      ],
      "stateMutability": "view",
      "type": "function"
    },
    {
      "inputs": [
        {
          "internalType": "bytes4",
          "name": "interfaceId",
          "type": "bytes4"
        }
      ],
      "name": "supportsInterface",
      "outputs": [
        {
          "internalType": "bool",
          "name": "",
          "type": "bool"
        }
      ],
      "stateMutability": "view",
      "type": "function"
    },
    {
      "inputs": [],
      "name": "timelock",
      "outputs": [
        {
          "internalType": "address",
          "name": "",
          "type": "address"
        }
      ],
      "stateMutability": "view",
      "type": "function"
    },
    {
      "inputs": [],
      "name": "token",
      "outputs": [
        {
          "internalType": "contract ERC20VotesComp",
          "name": "",
          "type": "address"
        }
      ],
      "stateMutability": "view",
      "type": "function"
    },
    {
      "inputs": [
        {
          "internalType": "contract TimelockController",
          "name": "newTimelock",
          "type": "address"
        }
      ],
      "name": "updateTimelock",
      "outputs": [],
      "stateMutability": "nonpayable",
      "type": "function"
    },
    {
      "inputs": [],
      "name": "version",
      "outputs": [
        {
          "internalType": "string",
          "name": "",
          "type": "string"
        }
      ],
      "stateMutability": "view",
      "type": "function"
    },
    {
      "inputs": [],
      "name": "votingDelay",
      "outputs": [
        {
          "internalType": "uint256",
          "name": "",
          "type": "uint256"
        }
      ],
      "stateMutability": "view",
      "type": "function"
    },
    {
      "inputs": [],
      "name": "votingPeriod",
      "outputs": [
        {
          "internalType": "uint256",
          "name": "",
          "type": "uint256"
        }
      ],
      "stateMutability": "view",
      "type": "function"
    },
    {
      "stateMutability": "payable",
      "type": "receive"
    }
  ],
  "transactionHash": "0x973c7543071ce59d8830ecf6095f3a728c2d21ef7b79f10e6e020d87efd026d1",
  "args": [
    "0x23B0483E07196c425d771240E81A9c2f1E113D3A",
    "0x90dfc868784f5e684Bb8650Ab218775fc9F28860",
    "10",
    "20",
    "10000000000000000000000000"
  ],
  "solcInputHash": "f7d03dd6e1ae76ba59a3c936c5c3225b",
  "bytecode": "0x6101606040523480156200001257600080fd5b50604051620046f9380380620046f98339810160408190526200003591620003bc565b83858484846040518060400160405280600e81526020016d2ab734b7b71023b7bb32b93737b960911b81525080620000726200016a60201b60201c565b815160208084019190912082518383012060e08290526101008190524660a0818152604080517f8b73c3c69bb8fe3d512ecc4cf759cc79239f7b179b0ffacaa9a75d522b39400f81880181905281830187905260608201869052608082019490945230818401528151808203909301835260c00190528051940193909320919290916080523060601b60c05261012052505082516200011b925060009150602084019062000316565b506200012990508362000185565b6200013482620001c6565b6200013f816200026c565b50505060601b6001600160601b031916610140526200015e81620002ad565b50505050505062000469565b6040805180820190915260018152603160f81b602082015290565b60035460408051918252602082018390527fc565b045403dc03c2eea82b81a0465edad9e2e7fc4d97e11421c209da93d7a93910160405180910390a1600355565b600081116200022b5760405162461bcd60e51b815260206004820152602760248201527f476f7665726e6f7253657474696e67733a20766f74696e6720706572696f6420604482015266746f6f206c6f7760c81b606482015260840160405180910390fd5b60045460408051918252602082018390527f7e3f7f0708a84de9203036abaa450dccc85ad5ff52f78c170f3edb55cf5e8828910160405180910390a1600455565b60055460408051918252602082018390527fccb45da8d5717e6c4544694297c4ba5cf151d455c9bb0ed4fc7a38411bc05461910160405180910390a1600555565b600654604080516001600160a01b03928316815291831660208301527f08f74ea46ef7894f65eabfb5e6e695de773a000b47c529ab559178069b226401910160405180910390a1600680546001600160a01b0319166001600160a01b0392909216919091179055565b828054620003249062000413565b90600052602060002090601f01602090048101928262000348576000855562000393565b82601f106200036357805160ff191683800117855562000393565b8280016001018555821562000393579182015b828111156200039357825182559160200191906001019062000376565b50620003a1929150620003a5565b5090565b5b80821115620003a15760008155600101620003a6565b600080600080600060a08688031215620003d4578081fd5b8551620003e18162000450565b6020870151909550620003f48162000450565b6040870151606088015160809098015196999198509695945092505050565b600181811c908216806200042857607f821691505b602082108114156200044a57634e487b7160e01b600052602260045260246000fd5b50919050565b6001600160a01b03811681146200046657600080fd5b50565b60805160a05160c05160601c60e05161010051610120516101405160601c614221620004d86000396000818161084f0152818161197701526123fd015260006125fd0152600061264c0152600061262701526000612580015260006125aa015260006125d401526142216000f3fe6080604052600436106102095760003560e01c80637d5e81e211610113578063dd4e2ba5116100ab578063eb9019d41161006f578063eb9019d4146107dd578063ece40cc1146107fd578063f8ce560a1461081d578063fc0c546a1461083d578063fe0d94c11461087157600080fd5b8063dd4e2ba514610659578063ddf0b0091461069f578063deaaa7cc146106bf578063e23a9a52146106f3578063ea0217cf146107bd57600080fd5b80637d5e81e21461053c578063a890c9101461055c578063ab58fb8e1461057c578063b58131b01461059c578063c01f9e37146105b1578063c59057e4146105d1578063d33219b4146105f1578063da35c66414610623578063da95691a1461063957600080fd5b8063328dd982116101a15780634385963211610165578063438596321461046857806354fd4d50146104b257806356781388146104dc57806370b0f660146104fc5780637b3c71d31461051c57600080fd5b8063328dd982146103b65780633932abb1146103e65780633bccf4fd146103fb5780633e4f49e61461041b57806340e58ee51461044857600080fd5b8063013cf08b1461023157806301ffc9a7146102ac57806302a251a3146102dc57806306fdde03146102ff578063160cbed71461032157806317977c611461034157806324bc1a641461036e5780632656227d146103835780632d63f6931461039657600080fd5b3661022c5730610217610884565b6001600160a01b03161461022a57600080fd5b005b600080fd5b34801561023d57600080fd5b5061025161024c366004613ac0565b61089d565b604080519a8b526001600160a01b0390991660208b0152978901969096526060880194909452608087019290925260a086015260c085015260e084015215156101008301521515610120820152610140015b60405180910390f35b3480156102b857600080fd5b506102cc6102c7366004613a98565b610962565b60405190151581526020016102a3565b3480156102e857600080fd5b506102f1610973565b6040519081526020016102a3565b34801561030b57600080fd5b5061031461097e565b6040516102a39190613eb0565b34801561032d57600080fd5b506102f161033c366004613863565b610a10565b34801561034d57600080fd5b506102f161035c36600461381c565b60096020526000908152604090205481565b34801561037a57600080fd5b506102f1610c46565b6102f1610391366004613863565b610c56565b3480156103a257600080fd5b506102f16103b1366004613ac0565b610d45565b3480156103c257600080fd5b506103d66103d1366004613ac0565b610d7c565b6040516102a39493929190613e3b565b3480156103f257600080fd5b506102f161100d565b34801561040757600080fd5b506102f1610416366004613bb3565b611018565b34801561042757600080fd5b5061043b610436366004613ac0565b6110ac565b6040516102a39190613e88565b34801561045457600080fd5b5061022a610463366004613ac0565b6110b7565b34801561047457600080fd5b506102cc610483366004613ad8565b60008281526002602090815260408083206001600160a01b038516845260080190915290205460ff1692915050565b3480156104be57600080fd5b506040805180820190915260018152603160f81b6020820152610314565b3480156104e857600080fd5b506102f16104f7366004613b07565b6113cf565b34801561050857600080fd5b5061022a610517366004613ac0565b6113f8565b34801561052857600080fd5b506102f1610537366004613b32565b61143c565b34801561054857600080fd5b506102f16105573660046138ee565b61148e565b34801561056857600080fd5b5061022a61057736600461381c565b6114e2565b34801561058857600080fd5b506102f1610597366004613ac0565b611523565b3480156105a857600080fd5b506102f16115cd565b3480156105bd57600080fd5b506102f16105cc366004613ac0565b6115d8565b3480156105dd57600080fd5b506102f16105ec366004613863565b611607565b3480156105fd57600080fd5b506006546001600160a01b03165b6040516001600160a01b0390911681526020016102a3565b34801561062f57600080fd5b506102f160085481565b34801561064557600080fd5b506102f1610654366004613995565b611641565b34801561066557600080fd5b5060408051808201909152601a81527f737570706f72743d627261766f2671756f72756d3d627261766f0000000000006020820152610314565b3480156106ab57600080fd5b5061022a6106ba366004613ac0565b611650565b3480156106cb57600080fd5b506102f17f150214d74d59b7d1e90c73fc22ef3d991dd0a76b046543d4d80ab92d2a50328f81565b3480156106ff57600080fd5b5061078d61070e366004613ad8565b60408051606081018252600080825260208201819052918101919091525060009182526002602090815260408084206001600160a01b0393909316845260089092018152918190208151606081018352905460ff8082161515835261010082041693820193909352620100009092046001600160601b03169082015290565b6040805182511515815260208084015160ff1690820152918101516001600160601b0316908201526060016102a3565b3480156107c957600080fd5b5061022a6107d8366004613ac0565b6118be565b3480156107e957600080fd5b506102f16107f8366004613838565b6118ff565b34801561080957600080fd5b5061022a610818366004613ac0565b61190b565b34801561082957600080fd5b506102f1610838366004613ac0565b61194c565b34801561084957600080fd5b5061060b7f000000000000000000000000000000000000000000000000000000000000000081565b61022a61087f366004613ac0565b611a0c565b60006108986006546001600160a01b031690565b905090565b80600080808080808080806108b18a611523565b97506108bc8b610d45565b96506108c78b6115d8565b60008c815260026020526040812080546005820154600683015460078401546001600160a01b039093169e50949a5098509296509194506109078d6110ac565b9050600281600781111561092b57634e487b7160e01b600052602160045260246000fd5b149350600781600781111561095057634e487b7160e01b600052602160045260246000fd5b14925050509193959799509193959799565b600061096d82611c7a565b92915050565b600061089860045490565b60606000805461098d9061415a565b80601f01602080910402602001604051908101604052809291908181526020018280546109b99061415a565b8015610a065780601f106109db57610100808354040283529160200191610a06565b820191906000526020600020905b8154815290600101906020018083116109e957829003601f168201915b5050505050905090565b600080610a1f86868686611607565b90506004610a2c826110ac565b6007811115610a4b57634e487b7160e01b600052602160045260246000fd5b14610a715760405162461bcd60e51b8152600401610a6890613f36565b60405180910390fd5b6006546040805163793d064960e11b815290516000926001600160a01b03169163f27a0c92916004808301926020929190829003018186803b158015610ab657600080fd5b505afa158015610aca573d6000803e3d6000fd5b505050506040513d601f19601f82011682018060405250810190610aee9190613a80565b60065460405163b1c5f42760e01b81529192506001600160a01b03169063b1c5f42790610b28908a908a908a906000908b90600401613d95565b60206040518083038186803b158015610b4057600080fd5b505afa158015610b54573d6000803e3d6000fd5b505050506040513d601f19601f82011682018060405250810190610b789190613a80565b6000838152600760205260408082209290925560065491516308f2a0bb60e41b81526001600160a01b0390921691638f2a0bb091610bc3918b918b918b91908b908990600401613de3565b600060405180830381600087803b158015610bdd57600080fd5b505af1158015610bf1573d6000803e3d6000fd5b505050507f9a2e42fd6722813d69113e7d0079d3d940171428df7373df9c7f7617cfda2892828242610c239190614095565b604080519283526020830191909152015b60405180910390a15095945050505050565b6000610898610838600143614117565b600080610c6586868686611607565b90506000610c72826110ac565b90506004816007811115610c9657634e487b7160e01b600052602160045260246000fd5b1480610cc157506005816007811115610cbf57634e487b7160e01b600052602160045260246000fd5b145b610cdd5760405162461bcd60e51b8152600401610a6890613f36565b600082815260016020818152604092839020600201805460ff191690921790915590518381527f712ae1383f79ac853f8d882153778e0260ef8f03b504e2866e0593e04d2b291f910160405180910390a1610d3b8288888888611c9f565b5095945050505050565b60008181526001602090815260408083208151928301909152546001600160401b0316908190525b6001600160401b031692915050565b60608060608060006002600087815260200190815260200160002090508060010181600201826003018360040183805480602002602001604051908101604052809291908181526020018280548015610dfe57602002820191906000526020600020905b81546001600160a01b03168152600190910190602001808311610de0575b5050505050935082805480602002602001604051908101604052809291908181526020018280548015610e5057602002820191906000526020600020905b815481526020019060010190808311610e3c575b5050505050925081805480602002602001604051908101604052809291908181526020016000905b82821015610f24578382906000526020600020018054610e979061415a565b80601f0160208091040260200160405190810160405280929190818152602001828054610ec39061415a565b8015610f105780601f10610ee557610100808354040283529160200191610f10565b820191906000526020600020905b815481529060010190602001808311610ef357829003601f168201915b505050505081526020019060010190610e78565b50505050915080805480602002602001604051908101604052809291908181526020016000905b82821015610ff7578382906000526020600020018054610f6a9061415a565b80601f0160208091040260200160405190810160405280929190818152602001828054610f969061415a565b8015610fe35780601f10610fb857610100808354040283529160200191610fe3565b820191906000526020600020905b815481529060010190602001808311610fc657829003601f168201915b505050505081526020019060010190610f4b565b5050505090509450945094509450509193509193565b600061089860035490565b604080517f150214d74d59b7d1e90c73fc22ef3d991dd0a76b046543d4d80ab92d2a50328f602082015290810186905260ff8516606082015260009081906110849061107c9060800160405160208183030381529060405280519060200120611cb3565b868686611d01565b90506110a187828860405180602001604052806000815250611d1f565b979650505050505050565b600061096d82611e38565b600081815260026020526040902080546001600160a01b0316336001600160a01b0316148061110557506110e96115cd565b8154611103906001600160a01b03166107f8600143614117565b105b6111615760405162461bcd60e51b815260206004820152602760248201527f476f7665726e6f72427261766f3a2070726f706f7365722061626f76652074686044820152661c995cda1bdb1960ca1b6064820152608401610a68565b6113ca816001018054806020026020016040519081016040528092919081815260200182805480156111bc57602002820191906000526020600020905b81546001600160a01b0316815260019091019060200180831161119e575b50505050508260020180548060200260200160405190810160405280929190818152602001828054801561120f57602002820191906000526020600020905b8154815260200190600101908083116111fb575b50505050506113c084600301805480602002602001604051908101604052809291908181526020016000905b828210156112e757838290600052602060002001805461125a9061415a565b80601f01602080910402602001604051908101604052809291908181526020018280546112869061415a565b80156112d35780601f106112a8576101008083540402835291602001916112d3565b820191906000526020600020905b8154815290600101906020018083116112b657829003601f168201915b50505050508152602001906001019061123b565b50505060048701805460408051602080840282018101909252828152935060009084015b828210156113b757838290600052602060002001805461132a9061415a565b80601f01602080910402602001604051908101604052809291908181526020018280546113569061415a565b80156113a35780601f10611378576101008083540402835291602001916113a3565b820191906000526020600020905b81548152906001019060200180831161138657829003601f168201915b50505050508152602001906001019061130b565b50505050611f23565b84600901546120a9565b505050565b6000803390506113f084828560405180602001604052806000815250611d1f565b949350505050565b611400610884565b6001600160a01b0316336001600160a01b0316146114305760405162461bcd60e51b8152600401610a6890613ec3565b611439816120c0565b50565b60008033905061148486828787878080601f016020809104026020016040519081016040528093929190818152602001838380828437600092019190915250611d1f92505050565b9695505050505050565b6000611498612101565b600880549060006114a88361418f565b919050555060006114c28686868680519060200120611607565b33600090815260096020526040902081905590506114848686868661222f565b6114ea610884565b6001600160a01b0316336001600160a01b03161461151a5760405162461bcd60e51b8152600401610a6890613ec3565b611439816122a5565b60065460008281526007602052604080822054905163d45c443560e01b81526004810191909152909182916001600160a01b039091169063d45c44359060240160206040518083038186803b15801561157b57600080fd5b505afa15801561158f573d6000803e3d6000fd5b505050506040513d601f19601f820116820180604052508101906115b39190613a80565b9050806001146115c357806115c6565b60005b9392505050565b600061089860055490565b60008181526001602081815260408084208151928301909152909101546001600160401b031690819052610d6d565b6000848484846040516020016116209493929190613d4a565b60408051601f19818403018152919052805160209091012095945050505050565b6000611484868686868661230e565b60008181526002602090815260409182902060018101805484518185028101850190955280855291936113ca939092908301828280156116b957602002820191906000526020600020905b81546001600160a01b0316815260019091019060200180831161169b575b50505050508260020180548060200260200160405190810160405280929190818152602001828054801561170c57602002820191906000526020600020905b8154815260200190600101908083116116f8575b50505050506118b484600301805480602002602001604051908101604052809291908181526020016000905b828210156117e45783829060005260206000200180546117579061415a565b80601f01602080910402602001604051908101604052809291908181526020018280546117839061415a565b80156117d05780601f106117a5576101008083540402835291602001916117d0565b820191906000526020600020905b8154815290600101906020018083116117b357829003601f168201915b505050505081526020019060010190611738565b50505060048701805460408051602080840282018101909252828152935060009084015b828210156113b75783829060005260206000200180546118279061415a565b80601f01602080910402602001604051908101604052809291908181526020018280546118539061415a565b80156118a05780601f10611875576101008083540402835291602001916118a0565b820191906000526020600020905b81548152906001019060200180831161188357829003601f168201915b505050505081526020019060010190611808565b8460090154610a10565b6118c6610884565b6001600160a01b0316336001600160a01b0316146118f65760405162461bcd60e51b8152600401610a6890613ec3565b61143981612333565b60006115c683836123d4565b611913610884565b6001600160a01b0316336001600160a01b0316146119435760405162461bcd60e51b8152600401610a6890613ec3565b61143981612489565b604051632394e7a360e21b815260048101829052600090670de0b6b3a7640000906001600160a01b037f00000000000000000000000000000000000000000000000000000000000000001690638e539e8c9060240160206040518083038186803b1580156119b957600080fd5b505afa1580156119cd573d6000803e3d6000fd5b505050506040513d601f19601f820116820180604052508101906119f19190613a80565b611a0290668e1bc9bf0400006140f8565b61096d91906140d8565b60008181526002602090815260409182902060018101805484518185028101850190955280855291936113ca93909290830182828015611a7557602002820191906000526020600020905b81546001600160a01b03168152600190910190602001808311611a57575b505050505082600201805480602002602001604051908101604052809291908181526020018280548015611ac857602002820191906000526020600020905b815481526020019060010190808311611ab4575b5050505050611c7084600301805480602002602001604051908101604052809291908181526020016000905b82821015611ba0578382906000526020600020018054611b139061415a565b80601f0160208091040260200160405190810160405280929190818152602001828054611b3f9061415a565b8015611b8c5780601f10611b6157610100808354040283529160200191611b8c565b820191906000526020600020905b815481529060010190602001808311611b6f57829003601f168201915b505050505081526020019060010190611af4565b50505060048701805460408051602080840282018101909252828152935060009084015b828210156113b7578382906000526020600020018054611be39061415a565b80601f0160208091040260200160405190810160405280929190818152602001828054611c0f9061415a565b8015611c5c5780601f10611c3157610100808354040283529160200191611c5c565b820191906000526020600020905b815481529060010190602001808311611c3f57829003601f168201915b505050505081526020019060010190611bc4565b8460090154610c56565b60006001600160e01b03198216636e665ced60e01b148061096d575061096d826124ca565b611cac85858585856124ff565b5050505050565b600061096d611cc0612573565b8360405161190160f01b6020820152602281018390526042810182905260009060620160405160208183030381529060405280519060200120905092915050565b6000806000611d128787878761269a565b91509150610d3b8161277d565b6000848152600160208190526040822090611d39876110ac565b6007811115611d5857634e487b7160e01b600052602160045260246000fd5b14611db15760405162461bcd60e51b815260206004820152602360248201527f476f7665726e6f723a20766f7465206e6f742063757272656e746c792061637460448201526269766560e81b6064820152608401610a68565b604080516020810190915281546001600160401b031690819052600090611dd99087906118ff565b9050611de787878784612979565b856001600160a01b03167fb8e138887d0aa13bab447e82de9d5c1777041ecd21ca36ba824ff1e6c07ddda488878488604051611e26949392919061401a565b60405180910390a29695505050505050565b600080611e448361298b565b90506004816007811115611e6857634e487b7160e01b600052602160045260246000fd5b14611e735792915050565b60008381526007602052604090205480611e8e575092915050565b600654604051632ab0f52960e01b8152600481018390526001600160a01b0390911690632ab0f5299060240160206040518083038186803b158015611ed257600080fd5b505afa158015611ee6573d6000803e3d6000fd5b505050506040513d601f19601f82011682018060405250810190611f0a9190613a60565b15611f19575060079392505050565b5060059392505050565b6060600082516001600160401b03811115611f4e57634e487b7160e01b600052604160045260246000fd5b604051908082528060200260200182016040528015611f8157816020015b6060815260200190600190039081611f6c5790505b50905060005b84518110156120a157848181518110611fb057634e487b7160e01b600052603260045260246000fd5b60200260200101515160001461203c57848181518110611fe057634e487b7160e01b600052603260045260246000fd5b60200260200101518051906020012084828151811061200f57634e487b7160e01b600052603260045260246000fd5b6020026020010151604051602001612028929190613d19565b604051602081830303815290604052612065565b83818151811061205c57634e487b7160e01b600052603260045260246000fd5b60200260200101515b82828151811061208557634e487b7160e01b600052603260045260246000fd5b60200260200101819052508061209a9061418f565b9050611f87565b509392505050565b60006120b785858585612ae0565b95945050505050565b60035460408051918252602082018390527fc565b045403dc03c2eea82b81a0465edad9e2e7fc4d97e11421c209da93d7a93910160405180910390a1600355565b336000908152600960205260409020548015611439576000612122826110ac565b9050600181600781111561214657634e487b7160e01b600052602160045260246000fd5b14156121a75760405162461bcd60e51b815260206004820152602a60248201527f476f7665726e6f723a20666f756e6420616e20616c726561647920616374697660448201526919481c1c9bdc1bdcd85b60b21b6064820152608401610a68565b60008160078111156121c957634e487b7160e01b600052602160045260246000fd5b141561222b5760405162461bcd60e51b815260206004820152602b60248201527f476f7665726e6f723a20666f756e6420616e20616c72656164792070656e646960448201526a1b99c81c1c9bdc1bdcd85b60aa1b6064820152608401610a68565b5050565b600061229933868686516001600160401b0381111561225e57634e487b7160e01b600052604160045260246000fd5b60405190808252806020026020018201604052801561229157816020015b606081526020019060019003908161227c5790505b508787612b92565b6120b785858585612c4f565b600654604080516001600160a01b03928316815291831660208301527f08f74ea46ef7894f65eabfb5e6e695de773a000b47c529ab559178069b226401910160405180910390a1600680546001600160a01b0319166001600160a01b0392909216919091179055565b600061231e338787878787612b92565b611484868661232d8787611f23565b8561148e565b600081116123935760405162461bcd60e51b815260206004820152602760248201527f476f7665726e6f7253657474696e67733a20766f74696e6720706572696f6420604482015266746f6f206c6f7760c81b6064820152608401610a68565b60045460408051918252602082018390527f7e3f7f0708a84de9203036abaa450dccc85ad5ff52f78c170f3edb55cf5e8828910160405180910390a1600455565b60405163782d6fe160e01b81526001600160a01b038381166004830152602482018390526000917f00000000000000000000000000000000000000000000000000000000000000009091169063782d6fe19060440160206040518083038186803b15801561244157600080fd5b505afa158015612455573d6000803e3d6000fd5b505050506040513d601f19601f820116820180604052508101906124799190613c00565b6001600160601b03169392505050565b60055460408051918252602082018390527fccb45da8d5717e6c4544694297c4ba5cf151d455c9bb0ed4fc7a38411bc05461910160405180910390a1600555565b60006001600160e01b0319821663bf26d89760e01b148061096d57506301ffc9a760e01b6001600160e01b031983161461096d565b60065460405163e38335e560e01b81526001600160a01b039091169063e38335e590349061253a908890889088906000908990600401613d95565b6000604051808303818588803b15801561255357600080fd5b505af1158015612567573d6000803e3d6000fd5b50505050505050505050565b6000306001600160a01b037f0000000000000000000000000000000000000000000000000000000000000000161480156125cc57507f000000000000000000000000000000000000000000000000000000000000000046145b156125f657507f000000000000000000000000000000000000000000000000000000000000000090565b50604080517f00000000000000000000000000000000000000000000000000000000000000006020808301919091527f0000000000000000000000000000000000000000000000000000000000000000828401527f000000000000000000000000000000000000000000000000000000000000000060608301524660808301523060a0808401919091528351808403909101815260c0909201909252805191012090565b6000806fa2a8918ca85bafe22016d0b997e4df60600160ff1b038311156126c75750600090506003612774565b8460ff16601b141580156126df57508460ff16601c14155b156126f05750600090506004612774565b6040805160008082526020820180845289905260ff881692820192909252606081018690526080810185905260019060a0016020604051602081039080840390855afa158015612744573d6000803e3d6000fd5b5050604051601f1901519150506001600160a01b03811661276d57600060019250925050612774565b9150600090505b94509492505050565b600081600481111561279f57634e487b7160e01b600052602160045260246000fd5b14156127a85750565b60018160048111156127ca57634e487b7160e01b600052602160045260246000fd5b14156128135760405162461bcd60e51b815260206004820152601860248201527745434453413a20696e76616c6964207369676e617475726560401b6044820152606401610a68565b600281600481111561283557634e487b7160e01b600052602160045260246000fd5b14156128835760405162461bcd60e51b815260206004820152601f60248201527f45434453413a20696e76616c6964207369676e6174757265206c656e677468006044820152606401610a68565b60038160048111156128a557634e487b7160e01b600052602160045260246000fd5b14156128fe5760405162461bcd60e51b815260206004820152602260248201527f45434453413a20696e76616c6964207369676e6174757265202773272076616c604482015261756560f01b6064820152608401610a68565b600481600481111561292057634e487b7160e01b600052602160045260246000fd5b14156114395760405162461bcd60e51b815260206004820152602260248201527f45434453413a20696e76616c6964207369676e6174757265202776272076616c604482015261756560f01b6064820152608401610a68565b61298584848484612f12565b50505050565b6000818152600160208181526040808420815160a08101835281546001600160401b0390811660808301908152825283518086018552958301541685529283019390935260029092015460ff80821615801594840194909452610100909104161515606082015290612a005750600792915050565b806060015115612a135750600292915050565b80515143906001600160401b031610612a2f5750600092915050565b43612a3c82602001515190565b6001600160401b031610612a535750600192915050565b612a6081602001516130b7565b15612a9257612a6e836130e6565b8015612a7e5750612a7e836130f1565b612a895760036115c6565b60049392505050565b60405162461bcd60e51b815260206004820152601d60248201527f476f7665726e6f723a20756e6b6e6f776e2070726f706f73616c2069640000006044820152606401610a68565b50919050565b600080612aef86868686613110565b600081815260076020526040902054909150156120b7576006546000828152600760205260409081902054905163c4d252f560e01b81526001600160a01b039092169163c4d252f591612b489160040190815260200190565b600060405180830381600087803b158015612b6257600080fd5b505af1158015612b76573d6000803e3d6000fd5b5050506000828152600760205260408120555095945050505050565b805160208201206000612bb08787612baa8888611f23565b85611607565b6000818152600260205260409020600981015491925090612c445780546001600160a01b0319166001600160a01b038a161781558751612bf990600183019060208b0190613360565b508651612c0f90600283019060208a01906133c1565b508551612c2590600383019060208901906133fc565b508451612c3b9060048301906020880190613455565b50600981018390555b505050505050505050565b6000612c596115cd565b612c68336107f8600143614117565b1015612ce85760405162461bcd60e51b815260206004820152604360248201527f476f7665726e6f72436f6d7061746962696c697479427261766f3a2070726f7060448201527f6f73657220766f7465732062656c6f772070726f706f73616c207468726573686064820152621bdb1960ea1b608482015260a401610a68565b6000612cfd8686868680519060200120611607565b90508451865114612d205760405162461bcd60e51b8152600401610a6890613ef5565b8351865114612d415760405162461bcd60e51b8152600401610a6890613ef5565b6000865111612d8d5760405162461bcd60e51b815260206004820152601860248201527711dbdd995c9b9bdc8e88195b5c1d1e481c1c9bdc1bdcd85b60421b6044820152606401610a68565b600081815260016020908152604091829020825191820190925281546001600160401b03169081905215612e0d5760405162461bcd60e51b815260206004820152602160248201527f476f7665726e6f723a2070726f706f73616c20616c72656164792065786973746044820152607360f81b6064820152608401610a68565b6000612e1f612e1a61100d565b613246565b612e2843613246565b612e3291906140ad565b90506000612e41612e1a610973565b612e4b90836140ad565b9050612e5783836132b2565b612e6460018401826132b2565b7f7d84a6263ae0d98d3329bd7b46bb4e8d6f98cd35a7adb45c274c8b7fd5ebd5e084338b8b8d516001600160401b03811115612eb057634e487b7160e01b600052604160045260246000fd5b604051908082528060200260200182016040528015612ee357816020015b6060815260200190600190039081612ece5790505b508c88888e604051612efd99989796959493929190613f77565b60405180910390a15091979650505050505050565b60008481526002602090815260408083206001600160a01b038716845260088101909252909120805460ff1615612fa15760405162461bcd60e51b815260206004820152602d60248201527f476f7665726e6f72436f6d7061746962696c697479427261766f3a20766f746560448201526c08185b1c9958591e4818d85cdd609a1b6064820152608401610a68565b805460ff85166101000261ffff19909116176001178155612fc1836132d0565b81546001600160601b039190911662010000026dffffffffffffffffffffffff00001990911617815560ff841661301157828260060160008282546130069190614095565b909155506130af9050565b60ff84166001141561303157828260050160008282546130069190614095565b60ff84166002141561305157828260070160008282546130069190614095565b60405162461bcd60e51b815260206004820152602d60248201527f476f7665726e6f72436f6d7061746962696c697479427261766f3a20696e766160448201526c6c696420766f7465207479706560981b6064820152608401610a68565b505050505050565b60006130cc82516001600160401b0316151590565b801561096d57505051436001600160401b03909116111590565b600061096d82613338565b600081815260026020526040812060068101546005909101541161096d565b60008061311f86868686611607565b9050600061312c826110ac565b9050600281600781111561315057634e487b7160e01b600052602160045260246000fd5b1415801561317e5750600681600781111561317b57634e487b7160e01b600052602160045260246000fd5b14155b80156131aa575060078160078111156131a757634e487b7160e01b600052602160045260246000fd5b14155b6131f65760405162461bcd60e51b815260206004820152601d60248201527f476f7665726e6f723a2070726f706f73616c206e6f74206163746976650000006044820152606401610a68565b60008281526001602052604090819020600201805461ff001916610100179055517f789cf55be980739dad1d0699b93b58e806b51c9d96619bfa8fe0a28abaa7b30c90610c349084815260200190565b60006001600160401b038211156132ae5760405162461bcd60e51b815260206004820152602660248201527f53616665436173743a2076616c756520646f65736e27742066697420696e203660448201526534206269747360d01b6064820152608401610a68565b5090565b815467ffffffffffffffff19166001600160401b0391909116179055565b60006001600160601b038211156132ae5760405162461bcd60e51b815260206004820152602660248201527f53616665436173743a2076616c756520646f65736e27742066697420696e203960448201526536206269747360d01b6064820152608401610a68565b6000818152600260205260408120600581015461335761083885610d45565b11159392505050565b8280548282559060005260206000209081019282156133b5579160200282015b828111156133b557825182546001600160a01b0319166001600160a01b03909116178255602090920191600190910190613380565b506132ae9291506134ae565b8280548282559060005260206000209081019282156133b5579160200282015b828111156133b55782518255916020019190600101906133e1565b828054828255906000526020600020908101928215613449579160200282015b8281111561344957825180516134399184916020909101906134c3565b509160200191906001019061341c565b506132ae929150613536565b8280548282559060005260206000209081019282156134a2579160200282015b828111156134a257825180516134929184916020909101906134c3565b5091602001919060010190613475565b506132ae929150613553565b5b808211156132ae57600081556001016134af565b8280546134cf9061415a565b90600052602060002090601f0160209004810192826134f157600085556133b5565b82601f1061350a57805160ff19168380011785556133b5565b828001600101855582156133b557918201828111156133b55782518255916020019190600101906133e1565b808211156132ae57600061354a8282613570565b50600101613536565b808211156132ae5760006135678282613570565b50600101613553565b50805461357c9061415a565b6000825580601f1061358c575050565b601f01602090049060005260206000209081019061143991906134ae565b60006001600160401b038311156135c3576135c36141c0565b6135d6601f8401601f1916602001614042565b90508281528383830111156135ea57600080fd5b828260208301376000602084830101529392505050565b600082601f830112613611578081fd5b8135602061362661362183614072565b614042565b80838252828201915082860187848660051b8901011115613645578586fd5b855b8581101561366c57813561365a816141d6565b84529284019290840190600101613647565b5090979650505050505050565b600082601f830112613689578081fd5b8135602061369961362183614072565b80838252828201915082860187848660051b89010111156136b8578586fd5b855b8581101561366c5781356001600160401b038111156136d7578788fd5b8801603f81018a136136e7578788fd5b6136f88a87830135604084016135aa565b85525092840192908401906001016136ba565b600082601f83011261371b578081fd5b8135602061372b61362183614072565b80838252828201915082860187848660051b890101111561374a578586fd5b855b8581101561366c5781356001600160401b03811115613769578788fd5b6137778a87838c01016137e7565b855250928401929084019060010161374c565b600082601f83011261379a578081fd5b813560206137aa61362183614072565b80838252828201915082860187848660051b89010111156137c9578586fd5b855b8581101561366c578135845292840192908401906001016137cb565b600082601f8301126137f7578081fd5b6115c6838335602085016135aa565b803560ff8116811461381757600080fd5b919050565b60006020828403121561382d578081fd5b81356115c6816141d6565b6000806040838503121561384a578081fd5b8235613855816141d6565b946020939093013593505050565b60008060008060808587031215613878578182fd5b84356001600160401b038082111561388e578384fd5b61389a88838901613601565b955060208701359150808211156138af578384fd5b6138bb8883890161378a565b945060408701359150808211156138d0578384fd5b506138dd87828801613679565b949793965093946060013593505050565b60008060008060808587031215613903578182fd5b84356001600160401b0380821115613919578384fd5b61392588838901613601565b9550602087013591508082111561393a578384fd5b6139468883890161378a565b9450604087013591508082111561395b578384fd5b61396788838901613679565b9350606087013591508082111561397c578283fd5b50613989878288016137e7565b91505092959194509250565b600080600080600060a086880312156139ac578283fd5b85356001600160401b03808211156139c2578485fd5b6139ce89838a01613601565b965060208801359150808211156139e3578485fd5b6139ef89838a0161378a565b95506040880135915080821115613a04578485fd5b613a1089838a0161370b565b94506060880135915080821115613a25578283fd5b613a3189838a01613679565b93506080880135915080821115613a46578283fd5b50613a53888289016137e7565b9150509295509295909350565b600060208284031215613a71578081fd5b815180151581146115c6578182fd5b600060208284031215613a91578081fd5b5051919050565b600060208284031215613aa9578081fd5b81356001600160e01b0319811681146115c6578182fd5b600060208284031215613ad1578081fd5b5035919050565b60008060408385031215613aea578182fd5b823591506020830135613afc816141d6565b809150509250929050565b60008060408385031215613b19578182fd5b82359150613b2960208401613806565b90509250929050565b60008060008060608587031215613b47578182fd5b84359350613b5760208601613806565b925060408501356001600160401b0380821115613b72578384fd5b818701915087601f830112613b85578384fd5b813581811115613b93578485fd5b886020828501011115613ba4578485fd5b95989497505060200194505050565b600080600080600060a08688031215613bca578283fd5b85359450613bda60208701613806565b9350613be860408701613806565b94979396509394606081013594506080013592915050565b600060208284031215613c11578081fd5b81516001600160601b03811681146115c6578182fd5b6000815180845260208085019450808401835b83811015613c5f5781516001600160a01b031687529582019590820190600101613c3a565b509495945050505050565b600081518084526020808501808196508360051b81019150828601855b85811015613cb1578284038952613c9f848351613ced565b98850198935090840190600101613c87565b5091979650505050505050565b6000815180845260208085019450808401835b83811015613c5f57815187529582019590820190600101613cd1565b60008151808452613d0581602086016020860161412e565b601f01601f19169290920160200192915050565b6001600160e01b0319831681528151600090613d3c81600485016020870161412e565b919091016004019392505050565b608081526000613d5d6080830187613c27565b8281036020840152613d6f8187613cbe565b90508281036040840152613d838186613c6a565b91505082606083015295945050505050565b60a081526000613da860a0830188613c27565b8281036020840152613dba8188613cbe565b90508281036040840152613dce8187613c6a565b60608401959095525050608001529392505050565b60c081526000613df660c0830189613c27565b8281036020840152613e088189613cbe565b90508281036040840152613e1c8188613c6a565b60608401969096525050608081019290925260a0909101529392505050565b608081526000613e4e6080830187613c27565b8281036020840152613e608187613cbe565b90508281036040840152613e748186613c6a565b905082810360608401526110a18185613c6a565b6020810160088310613eaa57634e487b7160e01b600052602160045260246000fd5b91905290565b6020815260006115c66020830184613ced565b602080825260189082015277476f7665726e6f723a206f6e6c79476f7665726e616e636560401b604082015260600190565b60208082526021908201527f476f7665726e6f723a20696e76616c69642070726f706f73616c206c656e67746040820152600d60fb1b606082015260800190565b60208082526021908201527f476f7665726e6f723a2070726f706f73616c206e6f74207375636365737366756040820152601b60fa1b606082015260800190565b8981526001600160a01b038916602082015261012060408201819052600090613fa28382018b613c27565b90508281036060840152613fb6818a613cbe565b90508281036080840152613fca8189613c6a565b905082810360a0840152613fde8188613c6a565b6001600160401b0387811660c0860152861660e0850152838103610100850152905061400a8185613ced565b9c9b505050505050505050505050565b84815260ff841660208201528260408201526080606082015260006114846080830184613ced565b604051601f8201601f191681016001600160401b038111828210171561406a5761406a6141c0565b604052919050565b60006001600160401b0382111561408b5761408b6141c0565b5060051b60200190565b600082198211156140a8576140a86141aa565b500190565b60006001600160401b038083168185168083038211156140cf576140cf6141aa565b01949350505050565b6000826140f357634e487b7160e01b81526012600452602481fd5b500490565b6000816000190483118215151615614112576141126141aa565b500290565b600082821015614129576141296141aa565b500390565b60005b83811015614149578181015183820152602001614131565b838111156129855750506000910152565b600181811c9082168061416e57607f821691505b60208210811415612ada57634e487b7160e01b600052602260045260246000fd5b60006000198214156141a3576141a36141aa565b5060010190565b634e487b7160e01b600052601160045260246000fd5b634e487b7160e01b600052604160045260246000fd5b6001600160a01b038116811461143957600080fdfea26469706673582212209f833bc5dbd7185cee6e85f9567a4e99f512957575d38fd13c4c14ba2912e1fe64736f6c63430008040033",
  "devdoc": {
    "kind": "dev",
    "methods": {
      "COUNTING_MODE()": {
        "details": "A description of the possible `support` values for {castVote} and the way these votes are counted, meant to be consumed by UIs to show correct vote options and interpret the results. The string is a URL-encoded sequence of key-value pairs that each describe one aspect, for example `support=bravo&quorum=for,abstain`. There are 2 standard keys: `support` and `quorum`. - `support=bravo` refers to the vote options 0 = Against, 1 = For, 2 = Abstain, as in `GovernorBravo`. - `quorum=bravo` means that only For votes are counted towards quorum. - `quorum=for,abstain` means that both For and Abstain votes are counted towards quorum. NOTE: The string can be decoded by the standard https://developer.mozilla.org/en-US/docs/Web/API/URLSearchParams[`URLSearchParams`] JavaScript class."
      },
      "cancel(uint256)": {
        "details": "Cancels a proposal only if sender is the proposer, or proposer delegates dropped below proposal threshold."
      },
      "castVote(uint256,uint8)": {
        "details": "See {IGovernor-castVote}."
      },
      "castVoteBySig(uint256,uint8,uint8,bytes32,bytes32)": {
        "details": "See {IGovernor-castVoteBySig}."
      },
      "castVoteWithReason(uint256,uint8,string)": {
        "details": "See {IGovernor-castVoteWithReason}."
      },
      "execute(address[],uint256[],bytes[],bytes32)": {
        "details": "See {IGovernor-execute}."
      },
      "execute(uint256)": {
        "details": "See {IGovernorCompatibilityBravo-execute}."
      },
      "getActions(uint256)": {
        "details": "See {IGovernorCompatibilityBravo-getActions}."
      },
      "getReceipt(uint256,address)": {
        "details": "See {IGovernorCompatibilityBravo-getReceipt}."
      },
      "hasVoted(uint256,address)": {
        "details": "See {IGovernor-hasVoted}."
      },
      "hashProposal(address[],uint256[],bytes[],bytes32)": {
        "details": "See {IGovernor-hashProposal}. The proposal id is produced by hashing the RLC encoded `targets` array, the `values` array, the `calldatas` array and the descriptionHash (bytes32 which itself is the keccak256 hash of the description string). This proposal id can be produced from the proposal data which is part of the {ProposalCreated} event. It can even be computed in advance, before the proposal is submitted. Note that the chainId and the governor address are not part of the proposal id computation. Consequently, the same proposal (with same operation and same description) will have the same id if submitted on multiple governors accross multiple networks. This also means that in order to execute the same operation twice (on the same governor) the proposer will have to change the description in order to avoid proposal id conflicts."
      },
      "name()": {
        "details": "See {IGovernor-name}."
      },
      "proposalDeadline(uint256)": {
        "details": "See {IGovernor-proposalDeadline}."
      },
      "proposalEta(uint256)": {
        "details": "Public accessor to check the eta of a queued proposal"
      },
      "proposalSnapshot(uint256)": {
        "details": "See {IGovernor-proposalSnapshot}."
      },
      "proposals(uint256)": {
        "details": "See {IGovernorCompatibilityBravo-proposals}."
      },
      "propose(address[],uint256[],string[],bytes[],string)": {
        "details": "See {IGovernorCompatibilityBravo-propose}."
      },
      "queue(address[],uint256[],bytes[],bytes32)": {
        "details": "Function to queue a proposal to the timelock."
      },
      "queue(uint256)": {
        "details": "See {IGovernorCompatibilityBravo-queue}."
      },
      "quorum(uint256)": {
        "details": "Minimum number of cast voted required for a proposal to be successful. Note: The `blockNumber` parameter corresponds to the snaphot used for counting vote. This allows to scale the quroum depending on values such as the totalSupply of a token at this block (see {ERC20Votes})."
      },
      "quorumVotes()": {
        "details": "See {IGovernorCompatibilityBravo-quorumVotes}."
      },
      "setProposalThreshold(uint256)": {
        "details": "Update the proposal threshold. This operation can only be performed through a governance proposal. Emits a {ProposalThresholdSet} event."
      },
      "setVotingDelay(uint256)": {
        "details": "Update the voting delay. This operation can only be performed through a governance proposal. Emits a {VotingDelaySet} event."
      },
      "setVotingPeriod(uint256)": {
        "details": "Update the voting period. This operation can only be performed through a governance proposal. Emits a {VotingPeriodSet} event."
      },
      "timelock()": {
        "details": "Public accessor to check the address of the timelock"
      },
      "updateTimelock(address)": {
        "details": "Public endpoint to update the underlying timelock instance. Restricted to the timelock itself, so updates must be proposed, scheduled and executed using the {Governor} workflow."
      },
      "version()": {
        "details": "See {IGovernor-version}."
      }
    },
    "version": 1
  },
  "userdoc": {
    "kind": "user",
    "methods": {
      "COUNTING_MODE()": {
        "notice": "module:voting"
      },
      "quorum(uint256)": {
        "notice": "module:user-config"
      }
    },
    "version": 1
  },
  "storageLayout": {
    "storage": [
      {
        "astId": 3947,
        "contract": "contracts/governance/UnionGovernor.sol:UnionGovernor",
        "label": "_name",
        "offset": 0,
        "slot": "0",
        "type": "t_string_storage"
      },
      {
        "astId": 3952,
        "contract": "contracts/governance/UnionGovernor.sol:UnionGovernor",
        "label": "_proposals",
        "offset": 0,
        "slot": "1",
        "type": "t_mapping(t_uint256,t_struct(ProposalCore)3945_storage)"
      },
      {
        "astId": 5804,
        "contract": "contracts/governance/UnionGovernor.sol:UnionGovernor",
        "label": "_proposalDetails",
        "offset": 0,
        "slot": "2",
        "type": "t_mapping(t_uint256,t_struct(ProposalDetails)5799_storage)"
      },
      {
        "astId": 6685,
        "contract": "contracts/governance/UnionGovernor.sol:UnionGovernor",
        "label": "_votingDelay",
        "offset": 0,
        "slot": "3",
        "type": "t_uint256"
      },
      {
        "astId": 6687,
        "contract": "contracts/governance/UnionGovernor.sol:UnionGovernor",
        "label": "_votingPeriod",
        "offset": 0,
        "slot": "4",
        "type": "t_uint256"
      },
      {
        "astId": 6689,
        "contract": "contracts/governance/UnionGovernor.sol:UnionGovernor",
        "label": "_proposalThreshold",
        "offset": 0,
        "slot": "5",
        "type": "t_uint256"
      },
      {
        "astId": 6868,
        "contract": "contracts/governance/UnionGovernor.sol:UnionGovernor",
        "label": "_timelock",
        "offset": 0,
        "slot": "6",
        "type": "t_contract(TimelockController)5745"
      },
      {
        "astId": 6872,
        "contract": "contracts/governance/UnionGovernor.sol:UnionGovernor",
        "label": "_timelockIds",
        "offset": 0,
        "slot": "7",
        "type": "t_mapping(t_uint256,t_bytes32)"
      },
      {
        "astId": 16433,
        "contract": "contracts/governance/UnionGovernor.sol:UnionGovernor",
        "label": "proposalCount",
        "offset": 0,
        "slot": "8",
        "type": "t_uint256"
      },
      {
        "astId": 16437,
        "contract": "contracts/governance/UnionGovernor.sol:UnionGovernor",
        "label": "latestProposalIds",
        "offset": 0,
        "slot": "9",
        "type": "t_mapping(t_address,t_uint256)"
      }
    ],
    "types": {
      "t_address": {
        "encoding": "inplace",
        "label": "address",
        "numberOfBytes": "20"
      },
      "t_array(t_address)dyn_storage": {
        "base": "t_address",
        "encoding": "dynamic_array",
        "label": "address[]",
        "numberOfBytes": "32"
      },
      "t_array(t_bytes_storage)dyn_storage": {
        "base": "t_bytes_storage",
        "encoding": "dynamic_array",
        "label": "bytes[]",
        "numberOfBytes": "32"
      },
      "t_array(t_string_storage)dyn_storage": {
        "base": "t_string_storage",
        "encoding": "dynamic_array",
        "label": "string[]",
        "numberOfBytes": "32"
      },
      "t_array(t_uint256)dyn_storage": {
        "base": "t_uint256",
        "encoding": "dynamic_array",
        "label": "uint256[]",
        "numberOfBytes": "32"
      },
      "t_bool": {
        "encoding": "inplace",
        "label": "bool",
        "numberOfBytes": "1"
      },
      "t_bytes32": {
        "encoding": "inplace",
        "label": "bytes32",
        "numberOfBytes": "32"
      },
      "t_bytes_storage": {
        "encoding": "bytes",
        "label": "bytes",
        "numberOfBytes": "32"
      },
      "t_contract(TimelockController)5745": {
        "encoding": "inplace",
        "label": "contract TimelockController",
        "numberOfBytes": "20"
      },
      "t_mapping(t_address,t_struct(Receipt)6577_storage)": {
        "encoding": "mapping",
        "key": "t_address",
        "label": "mapping(address => struct IGovernorCompatibilityBravo.Receipt)",
        "numberOfBytes": "32",
        "value": "t_struct(Receipt)6577_storage"
      },
      "t_mapping(t_address,t_uint256)": {
        "encoding": "mapping",
        "key": "t_address",
        "label": "mapping(address => uint256)",
        "numberOfBytes": "32",
        "value": "t_uint256"
      },
      "t_mapping(t_uint256,t_bytes32)": {
        "encoding": "mapping",
        "key": "t_uint256",
        "label": "mapping(uint256 => bytes32)",
        "numberOfBytes": "32",
        "value": "t_bytes32"
      },
      "t_mapping(t_uint256,t_struct(ProposalCore)3945_storage)": {
        "encoding": "mapping",
        "key": "t_uint256",
        "label": "mapping(uint256 => struct Governor.ProposalCore)",
        "numberOfBytes": "32",
        "value": "t_struct(ProposalCore)3945_storage"
      },
      "t_mapping(t_uint256,t_struct(ProposalDetails)5799_storage)": {
        "encoding": "mapping",
        "key": "t_uint256",
        "label": "mapping(uint256 => struct GovernorCompatibilityBravo.ProposalDetails)",
        "numberOfBytes": "32",
        "value": "t_struct(ProposalDetails)5799_storage"
      },
      "t_string_storage": {
        "encoding": "bytes",
        "label": "string",
        "numberOfBytes": "32"
      },
      "t_struct(BlockNumber)10377_storage": {
        "encoding": "inplace",
        "label": "struct Timers.BlockNumber",
        "members": [
          {
            "astId": 10376,
            "contract": "contracts/governance/UnionGovernor.sol:UnionGovernor",
            "label": "_deadline",
            "offset": 0,
            "slot": "0",
            "type": "t_uint64"
          }
        ],
        "numberOfBytes": "32"
      },
      "t_struct(ProposalCore)3945_storage": {
        "encoding": "inplace",
        "label": "struct Governor.ProposalCore",
        "members": [
          {
            "astId": 3937,
            "contract": "contracts/governance/UnionGovernor.sol:UnionGovernor",
            "label": "voteStart",
            "offset": 0,
            "slot": "0",
            "type": "t_struct(BlockNumber)10377_storage"
          },
          {
            "astId": 3940,
            "contract": "contracts/governance/UnionGovernor.sol:UnionGovernor",
            "label": "voteEnd",
            "offset": 0,
            "slot": "1",
            "type": "t_struct(BlockNumber)10377_storage"
          },
          {
            "astId": 3942,
            "contract": "contracts/governance/UnionGovernor.sol:UnionGovernor",
            "label": "executed",
            "offset": 0,
            "slot": "2",
            "type": "t_bool"
          },
          {
            "astId": 3944,
            "contract": "contracts/governance/UnionGovernor.sol:UnionGovernor",
            "label": "canceled",
            "offset": 1,
            "slot": "2",
            "type": "t_bool"
          }
        ],
        "numberOfBytes": "96"
      },
      "t_struct(ProposalDetails)5799_storage": {
        "encoding": "inplace",
        "label": "struct GovernorCompatibilityBravo.ProposalDetails",
        "members": [
          {
            "astId": 5773,
            "contract": "contracts/governance/UnionGovernor.sol:UnionGovernor",
            "label": "proposer",
            "offset": 0,
            "slot": "0",
            "type": "t_address"
          },
          {
            "astId": 5776,
            "contract": "contracts/governance/UnionGovernor.sol:UnionGovernor",
            "label": "targets",
            "offset": 0,
            "slot": "1",
            "type": "t_array(t_address)dyn_storage"
          },
          {
            "astId": 5779,
            "contract": "contracts/governance/UnionGovernor.sol:UnionGovernor",
            "label": "values",
            "offset": 0,
            "slot": "2",
            "type": "t_array(t_uint256)dyn_storage"
          },
          {
            "astId": 5782,
            "contract": "contracts/governance/UnionGovernor.sol:UnionGovernor",
            "label": "signatures",
            "offset": 0,
            "slot": "3",
            "type": "t_array(t_string_storage)dyn_storage"
          },
          {
            "astId": 5785,
            "contract": "contracts/governance/UnionGovernor.sol:UnionGovernor",
            "label": "calldatas",
            "offset": 0,
            "slot": "4",
            "type": "t_array(t_bytes_storage)dyn_storage"
          },
          {
            "astId": 5787,
            "contract": "contracts/governance/UnionGovernor.sol:UnionGovernor",
            "label": "forVotes",
            "offset": 0,
            "slot": "5",
            "type": "t_uint256"
          },
          {
            "astId": 5789,
            "contract": "contracts/governance/UnionGovernor.sol:UnionGovernor",
            "label": "againstVotes",
            "offset": 0,
            "slot": "6",
            "type": "t_uint256"
          },
          {
            "astId": 5791,
            "contract": "contracts/governance/UnionGovernor.sol:UnionGovernor",
            "label": "abstainVotes",
            "offset": 0,
            "slot": "7",
            "type": "t_uint256"
          },
          {
            "astId": 5796,
            "contract": "contracts/governance/UnionGovernor.sol:UnionGovernor",
            "label": "receipts",
            "offset": 0,
            "slot": "8",
            "type": "t_mapping(t_address,t_struct(Receipt)6577_storage)"
          },
          {
            "astId": 5798,
            "contract": "contracts/governance/UnionGovernor.sol:UnionGovernor",
            "label": "descriptionHash",
            "offset": 0,
            "slot": "9",
            "type": "t_bytes32"
          }
        ],
        "numberOfBytes": "320"
      },
      "t_struct(Receipt)6577_storage": {
        "encoding": "inplace",
        "label": "struct IGovernorCompatibilityBravo.Receipt",
        "members": [
          {
            "astId": 6572,
            "contract": "contracts/governance/UnionGovernor.sol:UnionGovernor",
            "label": "hasVoted",
            "offset": 0,
            "slot": "0",
            "type": "t_bool"
          },
          {
            "astId": 6574,
            "contract": "contracts/governance/UnionGovernor.sol:UnionGovernor",
            "label": "support",
            "offset": 1,
            "slot": "0",
            "type": "t_uint8"
          },
          {
            "astId": 6576,
            "contract": "contracts/governance/UnionGovernor.sol:UnionGovernor",
            "label": "votes",
            "offset": 2,
            "slot": "0",
            "type": "t_uint96"
          }
        ],
        "numberOfBytes": "32"
      },
      "t_uint256": {
        "encoding": "inplace",
        "label": "uint256",
        "numberOfBytes": "32"
      },
      "t_uint64": {
        "encoding": "inplace",
        "label": "uint64",
        "numberOfBytes": "8"
      },
      "t_uint8": {
        "encoding": "inplace",
        "label": "uint8",
        "numberOfBytes": "1"
      },
      "t_uint96": {
        "encoding": "inplace",
        "label": "uint96",
        "numberOfBytes": "12"
      }
    }
  }
}