{
  "address": "0xdA1Ec391b7DF5f960b94E540504354B331251EA0",
  "abi": [
    {
      "anonymous": false,
      "inputs": [
        {
          "indexed": false,
          "internalType": "address",
          "name": "previousAdmin",
          "type": "address"
        },
        {
          "indexed": false,
          "internalType": "address",
          "name": "newAdmin",
          "type": "address"
        }
      ],
      "name": "AdminChanged",
      "type": "event"
    },
    {
      "anonymous": false,
      "inputs": [
        {
          "indexed": true,
          "internalType": "address",
          "name": "beacon",
          "type": "address"
        }
      ],
      "name": "BeaconUpgraded",
      "type": "event"
    },
    {
      "anonymous": false,
      "inputs": [
        {
          "indexed": true,
          "internalType": "address",
          "name": "token",
          "type": "address"
        },
        {
          "indexed": true,
          "internalType": "address",
          "name": "account",
          "type": "address"
        },
        {
          "indexed": false,
          "internalType": "uint256",
          "name": "amount",
          "type": "uint256"
        }
      ],
      "name": "LogDeposit",
      "type": "event"
    },
    {
      "anonymous": false,
      "inputs": [
        {
          "indexed": false,
          "internalType": "address",
          "name": "tokenAddress",
          "type": "address"
        },
        {
          "indexed": false,
          "internalType": "uint256[]",
          "name": "percentages",
          "type": "uint256[]"
        }
      ],
      "name": "LogRebalance",
      "type": "event"
    },
    {
      "anonymous": false,
      "inputs": [
        {
          "indexed": true,
          "internalType": "address",
          "name": "token",
          "type": "address"
        },
        {
          "indexed": true,
          "internalType": "address",
          "name": "account",
          "type": "address"
        },
        {
          "indexed": false,
          "internalType": "uint256",
          "name": "amount",
          "type": "uint256"
        },
        {
          "indexed": false,
          "internalType": "uint256",
          "name": "remaining",
          "type": "uint256"
        }
      ],
      "name": "LogWithdraw",
      "type": "event"
    },
    {
      "anonymous": false,
      "inputs": [
        {
          "indexed": false,
          "internalType": "address",
          "name": "account",
          "type": "address"
        }
      ],
      "name": "Paused",
      "type": "event"
    },
    {
      "anonymous": false,
      "inputs": [
        {
          "indexed": true,
          "internalType": "bytes32",
          "name": "role",
          "type": "bytes32"
        },
        {
          "indexed": true,
          "internalType": "bytes32",
          "name": "previousAdminRole",
          "type": "bytes32"
        },
        {
          "indexed": true,
          "internalType": "bytes32",
          "name": "newAdminRole",
          "type": "bytes32"
        }
      ],
      "name": "RoleAdminChanged",
      "type": "event"
    },
    {
      "anonymous": false,
      "inputs": [
        {
          "indexed": true,
          "internalType": "bytes32",
          "name": "role",
          "type": "bytes32"
        },
        {
          "indexed": true,
          "internalType": "address",
          "name": "account",
          "type": "address"
        },
        {
          "indexed": true,
          "internalType": "address",
          "name": "sender",
          "type": "address"
        }
      ],
      "name": "RoleGranted",
      "type": "event"
    },
    {
      "anonymous": false,
      "inputs": [
        {
          "indexed": true,
          "internalType": "bytes32",
          "name": "role",
          "type": "bytes32"
        },
        {
          "indexed": true,
          "internalType": "address",
          "name": "account",
          "type": "address"
        },
        {
          "indexed": true,
          "internalType": "address",
          "name": "sender",
          "type": "address"
        }
      ],
      "name": "RoleRevoked",
      "type": "event"
    },
    {
      "anonymous": false,
      "inputs": [
        {
          "indexed": false,
          "internalType": "address",
          "name": "account",
          "type": "address"
        }
      ],
      "name": "Unpaused",
      "type": "event"
    },
    {
      "anonymous": false,
      "inputs": [
        {
          "indexed": true,
          "internalType": "address",
          "name": "implementation",
          "type": "address"
        }
      ],
      "name": "Upgraded",
      "type": "event"
    },
    {
      "inputs": [],
      "name": "DEFAULT_ADMIN_ROLE",
      "outputs": [
        {
          "internalType": "bytes32",
          "name": "",
          "type": "bytes32"
        }
      ],
      "stateMutability": "view",
      "type": "function"
    },
    {
      "inputs": [],
      "name": "ROLE_ADMIN",
      "outputs": [
        {
          "internalType": "bytes32",
          "name": "",
          "type": "bytes32"
        }
      ],
      "stateMutability": "view",
      "type": "function"
    },
    {
      "inputs": [
        {
          "internalType": "address",
          "name": "_marketRegistry",
          "type": "address"
        }
      ],
      "name": "__AssetManager_init",
      "outputs": [],
      "stateMutability": "nonpayable",
      "type": "function"
    },
    {
      "inputs": [
        {
          "internalType": "address",
          "name": "admin_",
          "type": "address"
        }
      ],
      "name": "__Controller_init",
      "outputs": [],
      "stateMutability": "nonpayable",
      "type": "function"
    },
    {
      "inputs": [
        {
          "internalType": "address",
          "name": "adapterAddress",
          "type": "address"
        }
      ],
      "name": "addAdapter",
      "outputs": [],
      "stateMutability": "nonpayable",
      "type": "function"
    },
    {
      "inputs": [
        {
          "internalType": "address",
          "name": "account",
          "type": "address"
        }
      ],
      "name": "addAdmin",
      "outputs": [],
      "stateMutability": "nonpayable",
      "type": "function"
    },
    {
      "inputs": [
        {
          "internalType": "address",
          "name": "tokenAddress",
          "type": "address"
        }
      ],
      "name": "addToken",
      "outputs": [],
      "stateMutability": "nonpayable",
      "type": "function"
    },
    {
      "inputs": [
        {
          "internalType": "address",
          "name": "tokenAddress",
          "type": "address"
        }
      ],
      "name": "approveAllMarketsMax",
      "outputs": [],
      "stateMutability": "nonpayable",
      "type": "function"
    },
    {
      "inputs": [
        {
          "internalType": "address",
          "name": "adapterAddress",
          "type": "address"
        }
      ],
      "name": "approveAllTokensMax",
      "outputs": [],
      "stateMutability": "nonpayable",
      "type": "function"
    },
    {
      "inputs": [
        {
          "internalType": "address",
          "name": "",
          "type": "address"
        },
        {
          "internalType": "address",
          "name": "",
          "type": "address"
        }
      ],
      "name": "balances",
      "outputs": [
        {
          "internalType": "uint256",
          "name": "",
          "type": "uint256"
        }
      ],
      "stateMutability": "view",
      "type": "function"
    },
    {
      "inputs": [
        {
          "internalType": "uint256[]",
          "name": "newSeq",
          "type": "uint256[]"
        }
      ],
      "name": "changeWithdrawSequence",
      "outputs": [],
      "stateMutability": "nonpayable",
      "type": "function"
    },
    {
      "inputs": [
        {
          "internalType": "address",
          "name": "tokenAddress",
          "type": "address"
        },
        {
          "internalType": "address",
          "name": "recipient",
          "type": "address"
        }
      ],
      "name": "claimTokens",
      "outputs": [],
      "stateMutability": "nonpayable",
      "type": "function"
    },
    {
      "inputs": [
        {
          "internalType": "uint256",
          "name": "index",
          "type": "uint256"
        },
        {
          "internalType": "address",
          "name": "tokenAddress",
          "type": "address"
        },
        {
          "internalType": "address",
          "name": "recipient",
          "type": "address"
        }
      ],
      "name": "claimTokensFromAdapter",
      "outputs": [],
      "stateMutability": "nonpayable",
      "type": "function"
    },
    {
      "inputs": [
        {
          "internalType": "address",
          "name": "token",
          "type": "address"
        },
        {
          "internalType": "uint256",
          "name": "amount",
          "type": "uint256"
        }
      ],
      "name": "debtWriteOff",
      "outputs": [],
      "stateMutability": "nonpayable",
      "type": "function"
    },
    {
      "inputs": [
        {
          "internalType": "address",
          "name": "token",
          "type": "address"
        },
        {
          "internalType": "uint256",
          "name": "amount",
          "type": "uint256"
        }
      ],
      "name": "deposit",
      "outputs": [
        {
          "internalType": "bool",
          "name": "",
          "type": "bool"
        }
      ],
      "stateMutability": "nonpayable",
      "type": "function"
    },
    {
      "inputs": [
        {
          "internalType": "address",
          "name": "tokenAddress",
          "type": "address"
        }
      ],
      "name": "getLoanableAmount",
      "outputs": [
        {
          "internalType": "uint256",
          "name": "loanAmount",
          "type": "uint256"
        }
      ],
      "stateMutability": "view",
      "type": "function"
    },
    {
      "inputs": [
        {
          "internalType": "address",
          "name": "tokenAddress",
          "type": "address"
        },
        {
          "internalType": "uint256",
          "name": "marketId",
          "type": "uint256"
        }
      ],
      "name": "getMoneyMarket",
      "outputs": [
        {
          "internalType": "uint256",
          "name": "rate",
          "type": "uint256"
        },
        {
          "internalType": "uint256",
          "name": "tokenSupply",
          "type": "uint256"
        }
      ],
      "stateMutability": "view",
      "type": "function"
    },
    {
      "inputs": [
        {
          "internalType": "address",
          "name": "tokenAddress",
          "type": "address"
        }
      ],
      "name": "getPoolBalance",
      "outputs": [
        {
          "internalType": "uint256",
          "name": "",
          "type": "uint256"
        }
      ],
      "stateMutability": "view",
      "type": "function"
    },
    {
      "inputs": [
        {
          "internalType": "bytes32",
          "name": "role",
          "type": "bytes32"
        }
      ],
      "name": "getRoleAdmin",
      "outputs": [
        {
          "internalType": "bytes32",
          "name": "",
          "type": "bytes32"
        }
      ],
      "stateMutability": "view",
      "type": "function"
    },
    {
      "inputs": [
        {
          "internalType": "bytes32",
          "name": "role",
          "type": "bytes32"
        },
        {
          "internalType": "address",
          "name": "account",
          "type": "address"
        }
      ],
      "name": "grantRole",
      "outputs": [],
      "stateMutability": "nonpayable",
      "type": "function"
    },
    {
      "inputs": [
        {
          "internalType": "bytes32",
          "name": "role",
          "type": "bytes32"
        },
        {
          "internalType": "address",
          "name": "account",
          "type": "address"
        }
      ],
      "name": "hasRole",
      "outputs": [
        {
          "internalType": "bool",
          "name": "",
          "type": "bool"
        }
      ],
      "stateMutability": "view",
      "type": "function"
    },
    {
      "inputs": [
        {
          "internalType": "address",
          "name": "account",
          "type": "address"
        }
      ],
      "name": "isAdmin",
      "outputs": [
        {
          "internalType": "bool",
          "name": "",
          "type": "bool"
        }
      ],
      "stateMutability": "view",
      "type": "function"
    },
    {
      "inputs": [
        {
          "internalType": "address",
          "name": "tokenAddress",
          "type": "address"
        }
      ],
      "name": "isMarketSupported",
      "outputs": [
        {
          "internalType": "bool",
          "name": "",
          "type": "bool"
        }
      ],
      "stateMutability": "view",
      "type": "function"
    },
    {
      "inputs": [],
      "name": "marketRegistry",
      "outputs": [
        {
          "internalType": "address",
          "name": "",
          "type": "address"
        }
      ],
      "stateMutability": "view",
      "type": "function"
    },
    {
      "inputs": [
        {
          "internalType": "uint256",
          "name": "",
          "type": "uint256"
        }
      ],
      "name": "moneyMarkets",
      "outputs": [
        {
          "internalType": "contract IMoneyMarketAdapter",
          "name": "",
          "type": "address"
        }
      ],
      "stateMutability": "view",
      "type": "function"
    },
    {
      "inputs": [],
      "name": "moneyMarketsCount",
      "outputs": [
        {
          "internalType": "uint256",
          "name": "",
          "type": "uint256"
        }
      ],
      "stateMutability": "view",
      "type": "function"
    },
    {
      "inputs": [
        {
          "internalType": "address[]",
          "name": "adapters",
          "type": "address[]"
        }
      ],
      "name": "overwriteAdapters",
      "outputs": [],
      "stateMutability": "nonpayable",
      "type": "function"
    },
    {
      "inputs": [],
      "name": "pause",
      "outputs": [],
      "stateMutability": "nonpayable",
      "type": "function"
    },
    {
      "inputs": [],
      "name": "pauseGuardian",
      "outputs": [
        {
          "internalType": "address",
          "name": "",
          "type": "address"
        }
      ],
      "stateMutability": "view",
      "type": "function"
    },
    {
      "inputs": [],
      "name": "paused",
      "outputs": [
        {
          "internalType": "bool",
          "name": "",
          "type": "bool"
        }
      ],
      "stateMutability": "view",
      "type": "function"
    },
    {
      "inputs": [
        {
          "internalType": "address",
          "name": "tokenAddress",
          "type": "address"
        },
        {
          "internalType": "uint256[]",
          "name": "percentages",
          "type": "uint256[]"
        }
      ],
      "name": "rebalance",
      "outputs": [],
      "stateMutability": "nonpayable",
      "type": "function"
    },
    {
      "inputs": [
        {
          "internalType": "address",
          "name": "adapterAddress",
          "type": "address"
        }
      ],
      "name": "removeAdapter",
      "outputs": [],
      "stateMutability": "nonpayable",
      "type": "function"
    },
    {
      "inputs": [
        {
          "internalType": "address",
          "name": "tokenAddress",
          "type": "address"
        }
      ],
      "name": "removeToken",
      "outputs": [],
      "stateMutability": "nonpayable",
      "type": "function"
    },
    {
      "inputs": [],
      "name": "renounceAdmin",
      "outputs": [],
      "stateMutability": "nonpayable",
      "type": "function"
    },
    {
      "inputs": [
        {
          "internalType": "bytes32",
          "name": "role",
          "type": "bytes32"
        },
        {
          "internalType": "address",
          "name": "account",
          "type": "address"
        }
      ],
      "name": "renounceRole",
      "outputs": [],
      "stateMutability": "nonpayable",
      "type": "function"
    },
    {
      "inputs": [
        {
          "internalType": "bytes32",
          "name": "role",
          "type": "bytes32"
        },
        {
          "internalType": "address",
          "name": "account",
          "type": "address"
        }
      ],
      "name": "revokeRole",
      "outputs": [],
      "stateMutability": "nonpayable",
      "type": "function"
    },
    {
      "inputs": [
        {
          "internalType": "address",
          "name": "account",
          "type": "address"
        }
      ],
      "name": "setGuardian",
      "outputs": [],
      "stateMutability": "nonpayable",
      "type": "function"
    },
    {
      "inputs": [
        {
          "internalType": "address",
          "name": "_marketRegistry",
          "type": "address"
        }
      ],
      "name": "setMarketRegistry",
      "outputs": [],
      "stateMutability": "nonpayable",
      "type": "function"
    },
    {
      "inputs": [
        {
          "internalType": "address",
          "name": "",
          "type": "address"
        }
      ],
      "name": "supportedMarkets",
      "outputs": [
        {
          "internalType": "bool",
          "name": "",
          "type": "bool"
        }
      ],
      "stateMutability": "view",
      "type": "function"
    },
    {
      "inputs": [],
      "name": "supportedTokensCount",
      "outputs": [
        {
          "internalType": "uint256",
          "name": "",
          "type": "uint256"
        }
      ],
      "stateMutability": "view",
      "type": "function"
    },
    {
      "inputs": [
        {
          "internalType": "uint256",
          "name": "",
          "type": "uint256"
        }
      ],
      "name": "supportedTokensList",
      "outputs": [
        {
          "internalType": "address",
          "name": "",
          "type": "address"
        }
      ],
      "stateMutability": "view",
      "type": "function"
    },
    {
      "inputs": [
        {
          "internalType": "bytes4",
          "name": "interfaceId",
          "type": "bytes4"
        }
      ],
      "name": "supportsInterface",
      "outputs": [
        {
          "internalType": "bool",
          "name": "",
          "type": "bool"
        }
      ],
      "stateMutability": "view",
      "type": "function"
    },
    {
      "inputs": [
        {
          "internalType": "address",
          "name": "",
          "type": "address"
        }
      ],
      "name": "totalPrincipal",
      "outputs": [
        {
          "internalType": "uint256",
          "name": "",
          "type": "uint256"
        }
      ],
      "stateMutability": "view",
      "type": "function"
    },
    {
      "inputs": [
        {
          "internalType": "address",
          "name": "tokenAddress",
          "type": "address"
        }
      ],
      "name": "totalSupply",
      "outputs": [
        {
          "internalType": "uint256",
          "name": "tokenSupply",
          "type": "uint256"
        }
      ],
      "stateMutability": "nonpayable",
      "type": "function"
    },
    {
      "inputs": [
        {
          "internalType": "address",
          "name": "tokenAddress",
          "type": "address"
        }
      ],
      "name": "totalSupplyView",
      "outputs": [
        {
          "internalType": "uint256",
          "name": "tokenSupply",
          "type": "uint256"
        }
      ],
      "stateMutability": "view",
      "type": "function"
    },
    {
      "inputs": [],
      "name": "unpause",
      "outputs": [],
      "stateMutability": "nonpayable",
      "type": "function"
    },
    {
      "inputs": [
        {
          "internalType": "address",
          "name": "newImplementation",
          "type": "address"
        }
      ],
      "name": "upgradeTo",
      "outputs": [],
      "stateMutability": "nonpayable",
      "type": "function"
    },
    {
      "inputs": [
        {
          "internalType": "address",
          "name": "newImplementation",
          "type": "address"
        },
        {
          "internalType": "bytes",
          "name": "data",
          "type": "bytes"
        }
      ],
      "name": "upgradeToAndCall",
      "outputs": [],
      "stateMutability": "payable",
      "type": "function"
    },
    {
      "inputs": [
        {
          "internalType": "address",
          "name": "token",
          "type": "address"
        },
        {
          "internalType": "address",
          "name": "account",
          "type": "address"
        },
        {
          "internalType": "uint256",
          "name": "amount",
          "type": "uint256"
        }
      ],
      "name": "withdraw",
      "outputs": [
        {
          "internalType": "bool",
          "name": "",
          "type": "bool"
        }
      ],
      "stateMutability": "nonpayable",
      "type": "function"
    },
    {
      "inputs": [
        {
          "internalType": "uint256",
          "name": "",
          "type": "uint256"
        }
      ],
      "name": "withdrawSeq",
      "outputs": [
        {
          "internalType": "uint256",
          "name": "",
          "type": "uint256"
        }
      ],
      "stateMutability": "view",
      "type": "function"
    }
  ],
  "transactionHash": "0xbc2c1171426332a1b7249b6693b56f872aa7fda580678281687a735ed7003745",
  "args": [],
  "solcInputHash": "3176e70d3c8c813fe743857ae860e439",
  "bytecode": "0x60a06040523060601b60805234801561001757600080fd5b5060805160601c614dae61004b60003960008181611162015281816111a2015281816121a501526121e50152614dae6000f3fe6080604052600436106102a85760003560e01c80638456cb5911610165578063bb904dc0116100cc578063d547741f11610085578063d547741f14610c8c578063d857970414610cc5578063d9caed1214610cf8578063e49fba6b14610d3b578063e4dc2aa414610d51578063ecb96fe614610d84578063f9e1111c14610da557600080fd5b8063bb904dc014610b2d578063c23f001f14610b7f578063cbfe49af14610bd1578063d28682ea14610c04578063d391014b14610c37578063d48bfca714610c5957600080fd5b8063a217fddf1161011e578063a217fddf146109dd578063a2d11a77146109f2578063acc04b5814610a1c578063b19c897314610a97578063b8845f7514610ac1578063bae6f74014610afa57600080fd5b80638456cb59146108e15780638a0dac4a146108f65780638bad0c0a1461092957806391d148541461093e57806393737049146109775780639d386f2a146109aa57600080fd5b80633f4ba83a116102145780635c975abb116101cd5780635c975abb146107985780635fa7b584146107b057806360d54d41146107e357806363c918771461081657806369ffa08a146108405780636c461a731461087b57806370480275146108ae57600080fd5b80633f4ba83a146105c257806347e7ef24146105d75780634ef51c3f146106105780634f1ef2861461069b578063585cd34b1461074f5780635af9f1391461078257600080fd5b806324a3d6221161026657806324a3d6221461047657806324d7806c146104b75780632f2ff15d146104ea57806336568abe146105235780633659cfe61461055c5780633e80427d1461058f57600080fd5b8062703411146102ad57806301ffc9a7146102f257806310d0bbe31461033a578063129ac68c146103b757806320761fc4146103f8578063248a9ca31461043c575b600080fd5b3480156102b957600080fd5b506102e0600480360360208110156102d057600080fd5b50356001600160a01b0316610de6565b60408051918252519081900360200190f35b3480156102fe57600080fd5b506103266004803603602081101561031557600080fd5b50356001600160e01b031916610e47565b604080519115158252519081900360200190f35b34801561034657600080fd5b506103b56004803603602081101561035d57600080fd5b810190602081018135600160201b81111561037757600080fd5b82018360208201111561038957600080fd5b803590602001918460208302840111600160201b831117156103aa57600080fd5b509092509050610e7e565b005b3480156103c357600080fd5b506103b5600480360360608110156103da57600080fd5b508035906001600160a01b0360208201358116916040013516610fc1565b34801561040457600080fd5b506103266004803603602081101561041b57600080fd5b50610162602052356001600160a01b03166000908152604090205460ff1681565b34801561044857600080fd5b506102e06004803603602081101561045f57600080fd5b5035600090815260c9602052604090206001015490565b34801561048257600080fd5b5060fc5461049b9061010090046001600160a01b031681565b604080516001600160a01b039092168252519081900360200190f35b3480156104c357600080fd5b50610326600480360360208110156104da57600080fd5b50356001600160a01b0316611094565b3480156104f657600080fd5b506103b56004803603604081101561050d57600080fd5b50803590602001356001600160a01b03166110ae565b34801561052f57600080fd5b506103b56004803603604081101561054657600080fd5b50803590602001356001600160a01b03166110d9565b34801561056857600080fd5b506103b56004803603602081101561057f57600080fd5b50356001600160a01b0316611157565b34801561059b57600080fd5b506103b5600480360360208110156105b257600080fd5b50356001600160a01b0316611220565b3480156105ce57600080fd5b506103b56112d3565b3480156105e357600080fd5b50610326600480360360408110156105fa57600080fd5b506001600160a01b038135169060200135611391565b34801561061c57600080fd5b506103b56004803603604081101561063357600080fd5b6001600160a01b038235169190810190604081016020820135600160201b81111561065d57600080fd5b82018360208201111561066f57600080fd5b803590602001918460208302840111600160201b8311171561069057600080fd5b509092509050611a66565b6103b5600480360360408110156106b157600080fd5b6001600160a01b038235169190810190604081016020820135600160201b8111156106db57600080fd5b8201836020820111156106ed57600080fd5b803590602001918460018302840111600160201b8311171561070e57600080fd5b91908080601f01602080910402602001604051908101604052809392919081815260200183838082843760009201919091525092955061219a945050505050565b34801561075b57600080fd5b506103b56004803603602081101561077257600080fd5b50356001600160a01b0316612250565b34801561078e57600080fd5b50610161546102e0565b3480156107a457600080fd5b5060fc5460ff16610326565b3480156107bc57600080fd5b506103b5600480360360208110156107d357600080fd5b50356001600160a01b03166123da565b3480156107ef57600080fd5b506103b56004803603602081101561080657600080fd5b50356001600160a01b0316612585565b34801561082257600080fd5b5061049b6004803603602081101561083957600080fd5b50356126a5565b34801561084c57600080fd5b506103b56004803603604081101561086357600080fd5b506001600160a01b03813581169160200135166126d0565b34801561088757600080fd5b506103b56004803603602081101561089e57600080fd5b50356001600160a01b03166127ec565b3480156108ba57600080fd5b506103b5600480360360208110156108d157600080fd5b50356001600160a01b03166128f1565b3480156108ed57600080fd5b506103b56129fe565b34801561090257600080fd5b506103b56004803603602081101561091957600080fd5b50356001600160a01b0316612a8d565b34801561093557600080fd5b506103b5612ae9565b34801561094a57600080fd5b506103266004803603604081101561096157600080fd5b50803590602001356001600160a01b0316612b20565b34801561098357600080fd5b506102e06004803603602081101561099a57600080fd5b50356001600160a01b0316612b4b565b3480156109b657600080fd5b506103b5600480360360208110156109cd57600080fd5b50356001600160a01b0316612cd7565b3480156109e957600080fd5b506102e0600081565b3480156109fe57600080fd5b506102e060048036036020811015610a1557600080fd5b5035612db5565b348015610a2857600080fd5b506103b560048036036020811015610a3f57600080fd5b810190602081018135600160201b811115610a5957600080fd5b820183602082011115610a6b57600080fd5b803590602001918460208302840111600160201b83111715610a8c57600080fd5b509092509050612dd7565b348015610aa357600080fd5b5061049b60048036036020811015610aba57600080fd5b5035612e18565b348015610acd57600080fd5b506103b560048036036040811015610ae457600080fd5b506001600160a01b038135169060200135612e29565b348015610b0657600080fd5b506103b560048036036020811015610b1d57600080fd5b50356001600160a01b0316612f0d565b348015610b3957600080fd5b50610b6660048036036040811015610b5057600080fd5b506001600160a01b038135169060200135612fee565b6040805192835260208301919091528051918290030190f35b348015610b8b57600080fd5b506102e060048036036040811015610ba257600080fd5b5061016460209081526001600160a01b0382358116600090815260408082208452929093013516825290205481565b348015610bdd57600080fd5b5061032660048036036020811015610bf457600080fd5b50356001600160a01b031661314b565b348015610c1057600080fd5b506102e060048036036020811015610c2757600080fd5b50356001600160a01b031661316a565b348015610c4357600080fd5b506102e0600080516020614d0683398151915281565b348015610c6557600080fd5b506103b560048036036020811015610c7c57600080fd5b50356001600160a01b0316613217565b348015610c9857600080fd5b506103b560048036036040811015610caf57600080fd5b50803590602001356001600160a01b0316613328565b348015610cd157600080fd5b506103b560048036036020811015610ce857600080fd5b50356001600160a01b031661334e565b348015610d0457600080fd5b5061032660048036036060811015610d1b57600080fd5b506001600160a01b038135811691602081013590911690604001356133ea565b348015610d4757600080fd5b50610163546102e0565b348015610d5d57600080fd5b506102e060048036036020811015610d7457600080fd5b50356001600160a01b031661390f565b348015610d9057600080fd5b506101665461049b906001600160a01b031681565b348015610db157600080fd5b506102e060048036036020811015610dc857600080fd5b50610165602052356001600160a01b03166000908152604090205481565b600080610df28361316a565b6001600160a01b038416600090815261016560205260409020549091508111610e1c576000610e40565b6001600160a01b03831660009081526101656020526040902054610e409082614c42565b9392505050565b60006001600160e01b03198216637965db0b60e01b1480610e7857506301ffc9a760e01b6001600160e01b03198316145b92915050565b610e96600080516020614d0683398151915233612b20565b610ebb5760405162461bcd60e51b8152600401610eb290614a87565b60405180910390fd5b808067ffffffffffffffff811115610ee357634e487b7160e01b600052604160045260246000fd5b604051908082528060200260200182016040528015610f0c578160200160208202803683370190505b508051610f229161016191602090910190614830565b5060005b81811015610fbb57838382818110610f4e57634e487b7160e01b600052603260045260246000fd5b905060200201356001600160a01b03166101618281548110610f8057634e487b7160e01b600052603260045260246000fd5b600091825260209091200180546001600160a01b0319166001600160a01b039290921691909117905580610fb381614c9c565b915050610f26565b50505050565b610fd9600080516020614d0683398151915233612b20565b610ff55760405162461bcd60e51b8152600401610eb290614a87565b6000610161848154811061101957634e487b7160e01b600052603260045260246000fd5b6000918252602082200154604080516334ffd04560e11b81526001600160a01b0387811660048301528681166024830152915191909216935083926369ffa08a926044808201939182900301818387803b15801561107657600080fd5b505af115801561108a573d6000803e3d6000fd5b5050505050505050565b6000610e78600080516020614d0683398151915283612b20565b600082815260c960205260409020600101546110ca8133613aac565b6110d48383613b10565b505050565b6001600160a01b03811633146111495760405162461bcd60e51b815260206004820152602f60248201527f416363657373436f6e74726f6c3a2063616e206f6e6c792072656e6f756e636560448201526e103937b632b9903337b91039b2b63360891b6064820152608401610eb2565b6111538282613b96565b5050565b306001600160a01b037f00000000000000000000000000000000000000000000000000000000000000001614156111a05760405162461bcd60e51b8152600401610eb2906149ef565b7f00000000000000000000000000000000000000000000000000000000000000006001600160a01b03166111d2613bfd565b6001600160a01b0316146111f85760405162461bcd60e51b8152600401610eb290614a3b565b61120181613c2b565b6040805160008082526020820190925261121d91839190613c5f565b50565b611238600080516020614d0683398151915233612b20565b6112545760405162461bcd60e51b8152600401610eb290614a87565b6101635460005b818110156110d4576000610163828154811061128757634e487b7160e01b600052603260045260246000fd5b60009182526020822001546001600160a01b031691506112aa9082908690613da6565b6112c06001600160a01b03821685600019613da6565b50806112cb81614c9c565b91505061125b565b60fc5461010090046001600160a01b031633146113025760405162461bcd60e51b8152600401610eb290614ab6565b60fc5460ff1661134d5760405162461bcd60e51b815260206004820152601660248201527510dbdb9d1c9bdb1b195c8e881b9bdd081c185d5cd95960521b6044820152606401610eb2565b60fc805460ff191690556040517f5db9ee0a495bf2e6ff9c91a7834c1ba4fdd244a5e8aa4e537bd38aeae4b073aa906113879033906149a8565b60405180910390a1565b60fc5460009060ff16156113b75760405162461bcd60e51b8152600401610eb290614bbf565b826113c23382613efd565b806113d257506113d23382613f8f565b611423576040805162461bcd60e51b815260206004820152601d60248201527f41737365744d616e616765723a20756e6175746865642073656e646572000000604482015290519081900360640190fd5b600261012f5414156114475760405162461bcd60e51b8152600401610eb290614b88565b600261012f5583836114a0576040805162461bcd60e51b815260206004820152601e60248201527f41737365744d616e616765723a20616d6f756e742063616e7420626520300000604482015290519081900360640190fd5b6114aa3386613efd565b61151657336000908152610164602090815260408083206001600160a01b0389168452909152812080548692906114e2908490614beb565b90915550506001600160a01b0385166000908152610165602052604081208054869290611510908490614beb565b90915550505b60016115218661314b565b156119f8576101615460005b81811080156115395750825b1561177d576000610161828154811061156257634e487b7160e01b600052603260045260246000fd5b60009182526020918290200154604080516261f76560e41b81526001600160a01b038d811660048301529151919092169350839263061f76509260248082019391829003018186803b1580156115b757600080fd5b505afa1580156115cb573d6000803e3d6000fd5b505050506040513d60208110156115e157600080fd5b50516115ed575061176b565b806001600160a01b0316631fd433aa8a6040518263ffffffff1660e01b815260040180826001600160a01b03168152602001915050602060405180830381600087803b15801561163c57600080fd5b505af1158015611650573d6000803e3d6000fd5b505050506040513d602081101561166657600080fd5b50516040805163904d326160e01b81526001600160a01b038c8116600483015291519184169163904d326191602480820192602092909190829003018186803b1580156116b257600080fd5b505afa1580156116c6573d6000803e3d6000fd5b505050506040513d60208110156116dc57600080fd5b5051116116e9575061176b565b6116fe6001600160a01b03861633838b614024565b806001600160a01b031663f340fa018a6040518263ffffffff1660e01b815260040180826001600160a01b03168152602001915050600060405180830381600087803b15801561174d57600080fd5b505af1158015611761573d6000803e3d6000fd5b5050505060009350505b8061177581614c9c565b91505061152d565b50805b60008111801561178d5750825b156119f55760006101616117a2600184614c42565b815481106117c057634e487b7160e01b600052603260045260246000fd5b60009182526020918290200154604080516261f76560e41b81526001600160a01b038d811660048301529151919092169350839263061f76509260248082019391829003018186803b15801561181557600080fd5b505afa158015611829573d6000803e3d6000fd5b505050506040513d602081101561183f57600080fd5b505161184b57506119e3565b6000816001600160a01b0316631fd433aa8b6040518263ffffffff1660e01b815260040180826001600160a01b03168152602001915050602060405180830381600087803b15801561189c57600080fd5b505af11580156118b0573d6000803e3d6000fd5b505050506040513d60208110156118c657600080fd5b505160408051631b1fb46760e11b81526001600160a01b038d8116600483015291519293506000929185169163363f68ce91602480820192602092909190829003018186803b15801561191857600080fd5b505afa15801561192c573d6000803e3d6000fd5b505050506040513d602081101561194257600080fd5b50519050806119518b84614beb565b111561195f575050506119e3565b6119746001600160a01b03881633858d614024565b826001600160a01b031663f340fa018c6040518263ffffffff1660e01b815260040180826001600160a01b03168152602001915050600060405180830381600087803b1580156119c357600080fd5b505af11580156119d7573d6000803e3d6000fd5b50505050600095505050505b806119ed81614c85565b915050611780565b50505b8015611a1357611a136001600160a01b038316333088614024565b60408051868152905133916001600160a01b038916917f5c8d1f77b6233deba47b516a690497af4c7f1be42a768e331832cb02b3400d6b9181900360200190a360019350505050600161012f5592915050565b82611a708161314b565b611ac1576040805162461bcd60e51b815260206004820152601f60248201527f41737365744d616e616765723a20756e737570706f7274656420746f6b656e00604482015290519081900360640190fd5b611ad9600080516020614d0683398151915233612b20565b611af55760405162461bcd60e51b8152600401610eb290614a87565b6101615484908381611b08826001614beb565b14611b5a576040805162461bcd60e51b815260206004820152601f60248201527f41737365744d616e616765723a2070657263656e7461676573206572726f7200604482015290519081900360640190fd5b60005b82811015611c915760006101618281548110611b8957634e487b7160e01b600052603260045260246000fd5b60009182526020918290200154604080516261f76560e41b81526001600160a01b038d811660048301529151919092169350839263061f76509260248082019391829003018186803b158015611bde57600080fd5b505afa158015611bf2573d6000803e3d6000fd5b505050506040513d6020811015611c0857600080fd5b5051611c145750611c7f565b604080516301395c5960e31b81526001600160a01b038b811660048301523060248301529151918316916309cae2c89160448082019260009290919082900301818387803b158015611c6557600080fd5b505af1158015611c79573d6000803e3d6000fd5b50505050505b80611c8981614c9c565b915050611b5d565b506000836001600160a01b03166370a08231306040518263ffffffff1660e01b815260040180826001600160a01b0316815260200191505060206040518083038186803b158015611ce157600080fd5b505afa158015611cf5573d6000803e3d6000fd5b505050506040513d6020811015611d0b57600080fd5b5051905060005b82811015611ea85760006101618281548110611d3e57634e487b7160e01b600052603260045260246000fd5b60009182526020918290200154604080516261f76560e41b81526001600160a01b038e811660048301529151919092169350839263061f76509260248082019391829003018186803b158015611d9357600080fd5b505afa158015611da7573d6000803e3d6000fd5b505050506040513d6020811015611dbd57600080fd5b5051611dc95750611e96565b60006127108a8a85818110611dee57634e487b7160e01b600052603260045260246000fd5b9050602002013585611e009190614c23565b611e0a9190614c03565b905080611e18575050611e96565b611e2c6001600160a01b038816838361405c565b816001600160a01b031663f340fa018c6040518263ffffffff1660e01b815260040180826001600160a01b03168152602001915050600060405180830381600087803b158015611e7b57600080fd5b505af1158015611e8f573d6000803e3d6000fd5b5050505050505b80611ea081614c9c565b915050611d12565b506000846001600160a01b03166370a08231306040518263ffffffff1660e01b815260040180826001600160a01b0316815260200191505060206040518083038186803b158015611ef857600080fd5b505afa158015611f0c573d6000803e3d6000fd5b505050506040513d6020811015611f2257600080fd5b505190506000610161611f36600187614c42565b81548110611f5457634e487b7160e01b600052603260045260246000fd5b60009182526020918290200154604080516261f76560e41b81526001600160a01b038e811660048301529151919092169350839263061f76509260248082019391829003018186803b158015611fa957600080fd5b505afa158015611fbd573d6000803e3d6000fd5b505050506040513d6020811015611fd357600080fd5b50518015611fe15750600082115b1561206257611ffa6001600160a01b038716828461405c565b806001600160a01b031663f340fa018b6040518263ffffffff1660e01b815260040180826001600160a01b03168152602001915050600060405180830381600087803b15801561204957600080fd5b505af115801561205d573d6000803e3d6000fd5b505050505b612710866001600160a01b03166370a08231306040518263ffffffff1660e01b815260040180826001600160a01b0316815260200191505060206040518083038186803b1580156120b257600080fd5b505afa1580156120c6573d6000803e3d6000fd5b505050506040513d60208110156120dc57600080fd5b50511061211a5760405162461bcd60e51b8152600401808060200182810382526038815260200180614cce6038913960400191505060405180910390fd5b7f533315164704ded1aa86acf715b7aaf2c43680da34563ff042e27a574d42814f8a8a8a60405180846001600160a01b03168152602001806020018281038252848482818152602001925060200280828437600083820152604051601f909101601f1916909201829003965090945050505050a150505050505050505050565b306001600160a01b037f00000000000000000000000000000000000000000000000000000000000000001614156121e35760405162461bcd60e51b8152600401610eb2906149ef565b7f00000000000000000000000000000000000000000000000000000000000000006001600160a01b0316612215613bfd565b6001600160a01b03161461223b5760405162461bcd60e51b8152600401610eb290614a3b565b61224482613c2b565b61115382826001613c5f565b612268600080516020614d0683398151915233612b20565b6122845760405162461bcd60e51b8152600401610eb290614a87565b610161546000908190815b818110156122f65761016181815481106122b957634e487b7160e01b600052603260045260246000fd5b6000918252602090912001546001600160a01b03868116911614156122e457600193508092506122f6565b806122ee81614c9c565b91505061228f565b508215610fbb5761016161230b600183614c42565b8154811061232957634e487b7160e01b600052603260045260246000fd5b60009182526020909120015461016180546001600160a01b03909216918490811061236457634e487b7160e01b600052603260045260246000fd5b9060005260206000200160006101000a8154816001600160a01b0302191690836001600160a01b031602179055506101618054806123b257634e487b7160e01b600052603160045260246000fd5b600082815260209020810160001990810180546001600160a01b031916905501905550505050565b6123f2600080516020614d0683398151915233612b20565b61240e5760405162461bcd60e51b8152600401610eb290614a87565b610163546000908190815b8181101561248057610163818154811061244357634e487b7160e01b600052603260045260246000fd5b6000918252602090912001546001600160a01b038681169116141561246e5760019350809250612480565b8061247881614c9c565b915050612419565b508215610fbb57610163612495600183614c42565b815481106124b357634e487b7160e01b600052603260045260246000fd5b60009182526020909120015461016380546001600160a01b0390921691849081106124ee57634e487b7160e01b600052603260045260246000fd5b9060005260206000200160006101000a8154816001600160a01b0302191690836001600160a01b0316021790555061016380548061253c57634e487b7160e01b600052603160045260246000fd5b60008281526020808220830160001990810180546001600160a01b03191690559092019092556001600160a01b0386168252610162905260409020805460ff1916905550505050565b61259d600080516020614d0683398151915233612b20565b6125b95760405162461bcd60e51b8152600401610eb290614a87565b61016154600090815b818110156126225761016181815481106125ec57634e487b7160e01b600052603260045260246000fd5b6000918252602090912001546001600160a01b038581169116141561261057600192505b8061261a81614c9c565b9150506125c2565b508161269c5761016180546001808201835560008390527fafbb1c043347995df017ce3291b765e028ad5f784d2aa00c3f5e073760a4de8b90910180546001600160a01b0319166001600160a01b03871617905590546101679161268591614c42565b815460018101835560009283526020909220909101555b6110d483611220565b61016381815481106126b657600080fd5b6000918252602090912001546001600160a01b0316905081565b6126e8600080516020614d0683398151915233612b20565b6127045760405162461bcd60e51b8152600401610eb290614a87565b6001600160a01b03811661275f576040805162461bcd60e51b815260206004820181905260248201527f41737365744d616e616765723a726563697069656e742063616e742062652030604482015290519081900360640190fd5b604080516370a0823160e01b8152306004820152905183916000916001600160a01b038416916370a08231916024808301926020929190829003018186803b1580156127aa57600080fd5b505afa1580156127be573d6000803e3d6000fd5b505050506040513d60208110156127d457600080fd5b50519050610fbb6001600160a01b038316848361405c565b600054610100900460ff1680612805575060005460ff16155b6128215760405162461bcd60e51b8152600401610eb290614b3a565b600054610100900460ff16158015612843576000805461ffff19166101011790555b6001600160a01b0382166128695760405162461bcd60e51b8152600401610eb290614b08565b60fc805460ff191690556001600160a01b038216600081815260fb6020526040902080546001600160a01b03191690911790556128a461408c565b6128bc600080516020614d0683398151915283614107565b60fc8054610100600160a81b0319166101006001600160a01b038516021790558015611153576000805461ff00191690555050565b612909600080516020614d0683398151915233612b20565b6129255760405162461bcd60e51b8152600401610eb290614a87565b6001600160a01b03811661294b5760405162461bcd60e51b8152600401610eb290614b08565b6001600160a01b03818116600090815260fb602052604090205416156129bd5760405162461bcd60e51b815260206004820152602160248201527f436f6e74726f6c6c65723a2061646d696e20616c7265616479206578697374656044820152601960fa1b6064820152608401610eb2565b6001600160a01b038116600081815260fb6020526040902080546001600160a01b031916909117905561121d600080516020614d0683398151915282614107565b60fc5461010090046001600160a01b03163314612a2d5760405162461bcd60e51b8152600401610eb290614ab6565b60fc5460ff1615612a505760405162461bcd60e51b8152600401610eb290614bbf565b60fc805460ff191660011790556040517f62e78cea01bee320cd4e420270b5ea74000d11b0c9f74754ebdbfc544b05a258906113879033906149a8565b612aa5600080516020614d0683398151915233612b20565b612ac15760405162461bcd60e51b8152600401610eb290614a87565b60fc80546001600160a01b0390921661010002610100600160a81b0319909216919091179055565b612b01600080516020614d06833981519152336110d9565b33600090815260fb6020526040902080546001600160a01b0319169055565b600091825260c9602090815260408084206001600160a01b0393909316845291905290205460ff1690565b6000612b568261314b565b15612cd2576101615460005b81811015612ccf576101618181548110612b8c57634e487b7160e01b600052603260045260246000fd5b60009182526020918290200154604080516261f76560e41b81526001600160a01b0388811660048301529151919092169263061f76509260248082019391829003018186803b158015612bde57600080fd5b505afa158015612bf2573d6000803e3d6000fd5b505050506040513d6020811015612c0857600080fd5b505115612cbd576101618181548110612c3157634e487b7160e01b600052603260045260246000fd5b6000918252602091829020015460408051633b62879560e21b81526001600160a01b0388811660048301529151919092169263ed8a1e549260248082019391829003018186803b158015612c8457600080fd5b505afa158015612c98573d6000803e3d6000fd5b505050506040513d6020811015612cae57600080fd5b5051612cba9084614beb565b92505b80612cc781614c9c565b915050612b62565b50505b919050565b600054610100900460ff1680612cf0575060005460ff16155b612d0c5760405162461bcd60e51b8152600401610eb290614b3a565b600054610100900460ff16158015612d2e576000805461ffff19166101011790555b6001600160a01b038216612d735760405162461bcd60e51b815260040180806020018281038252602c815260200180614d4d602c913960400191505060405180910390fd5b612d7c336127ec565b612d84614111565b61016680546001600160a01b0319166001600160a01b0384161790558015611153576000805461ff00191690555050565b6101678181548110612dc657600080fd5b600091825260209091200154905081565b612def600080516020614d0683398151915233612b20565b612e0b5760405162461bcd60e51b8152600401610eb290614a87565b6110d46101678383614895565b61016181815481106126b657600080fd5b336000908152610164602090815260408083206001600160a01b0386168452909152902054811115612ea2576040805162461bcd60e51b815260206004820181905260248201527f41737365744d616e616765723a2062616c616e6365206e6f7420656e6f756768604482015290519081900360640190fd5b336000908152610164602090815260408083206001600160a01b038616845290915281208054839290612ed6908490614c42565b90915550506001600160a01b0382166000908152610165602052604081208054839290612f04908490614c42565b90915550505050565b612f25600080516020614d0683398151915233612b20565b612f415760405162461bcd60e51b8152600401610eb290614a87565b61016154819060005b81811015610fbb57612f966101618281548110612f7757634e487b7160e01b600052603260045260246000fd5b60009182526020822001546001600160a01b0386811692911690613da6565b612fdc6101618281548110612fbb57634e487b7160e01b600052603260045260246000fd5b6000918252602090912001546001600160a01b038581169116600019613da6565b80612fe681614c9c565b915050612f4a565b600080610161838154811061301357634e487b7160e01b600052603260045260246000fd5b60009182526020918290200154604080516337cef79160e01b81526001600160a01b038881166004830152915191909216926337cef7919260248082019391829003018186803b15801561306657600080fd5b505afa15801561307a573d6000803e3d6000fd5b505050506040513d602081101561309057600080fd5b5051610161805491935090849081106130b957634e487b7160e01b600052603260045260246000fd5b6000918252602091829020015460408051633b62879560e21b81526001600160a01b0388811660048301529151919092169263ed8a1e549260248082019391829003018186803b15801561310c57600080fd5b505afa158015613120573d6000803e3d6000fd5b505050506040513d602081101561313657600080fd5b50516131429082614beb565b90509250929050565b6001600160a01b03166000908152610162602052604090205460ff1690565b6000808290506000816001600160a01b03166370a08231306040518263ffffffff1660e01b815260040180826001600160a01b0316815260200191505060206040518083038186803b1580156131bf57600080fd5b505afa1580156131d3573d6000803e3d6000fd5b505050506040513d60208110156131e957600080fd5b505190506131f68461314b565b15610e40578061320585612b4b565b61320f9190614beb565b949350505050565b61322f600080516020614d0683398151915233612b20565b61324b5760405162461bcd60e51b8152600401610eb290614a87565b6001600160a01b0381166000908152610162602052604090205460ff16156132ba576040805162461bcd60e51b815260206004820152601a60248201527f41737365744d616e616765723a20746f6b656e20657869737473000000000000604482015290519081900360640190fd5b610163805460018082019092557fb0f3e90519fd0de3100ca1a24094c0a25e5cbf467d74a2603172b5a5204555b30180546001600160a01b0319166001600160a01b038416908117909155600090815261016260205260409020805460ff1916909117905561121d81612f0d565b600082815260c960205260409020600101546133448133613aac565b6110d48383613b96565b613366600080516020614d0683398151915233612b20565b6133825760405162461bcd60e51b8152600401610eb290614a87565b6001600160a01b0381166133c75760405162461bcd60e51b815260040180806020018281038252602c815260200180614d4d602c913960400191505060405180910390fd5b61016680546001600160a01b0319166001600160a01b0392909216919091179055565b60fc5460009060ff16156134105760405162461bcd60e51b8152600401610eb290614bbf565b600261012f5414156134345760405162461bcd60e51b8152600401610eb290614b88565b600261012f55836134453382613efd565b8061345557506134553382613f8f565b6134a6576040805162461bcd60e51b815260206004820152601d60248201527f41737365744d616e616765723a20756e6175746865642073656e646572000000604482015290519081900360640190fd5b6134b1338685614170565b613502576040805162461bcd60e51b815260206004820152601d60248201527f41737365744d616e616765723a2062616c616e636520746f6f206c6f77000000604482015290519081900360640190fd5b604080516370a0823160e01b8152306004820152905184916000916001600160a01b038916916370a08231916024808301926020929190829003018186803b15801561354d57600080fd5b505afa158015613561573d6000803e3d6000fd5b505050506040513d602081101561357757600080fd5b5051905080156135b65760008282106135905782613592565b815b905061359e8184614c42565b92506135b46001600160a01b038916888361405c565b505b6135bf8761314b565b156137fd576101675460005b81811080156135da5750600084115b156137fa576000610161610167838154811061360657634e487b7160e01b600052603260045260246000fd5b90600052602060002001548154811061362f57634e487b7160e01b600052603260045260246000fd5b60009182526020918290200154604080516261f76560e41b81526001600160a01b038e811660048301529151919092169350839263061f76509260248082019391829003018186803b15801561368457600080fd5b505afa158015613698573d6000803e3d6000fd5b505050506040513d60208110156136ae57600080fd5b50516136ba57506137e8565b6000816001600160a01b0316631fd433aa8c6040518263ffffffff1660e01b815260040180826001600160a01b03168152602001915050602060405180830381600087803b15801561370b57600080fd5b505af115801561371f573d6000803e3d6000fd5b505050506040513d602081101561373557600080fd5b50519050806137455750506137e8565b60008682106137545786613756565b815b90506137628188614c42565b9650826001600160a01b031663d9caed128d8d846040518463ffffffff1660e01b815260040180846001600160a01b03168152602001836001600160a01b031681526020018281526020019350505050600060405180830381600087803b1580156137cc57600080fd5b505af11580156137e0573d6000803e3d6000fd5b505050505050505b806137f281614c9c565b9150506135cb565b50505b6138073388613efd565b6138a857336000908152610164602090815260408083206001600160a01b038b168452909152902054829061383d908790614c42565b6138479190614beb565b336000908152610164602090815260408083206001600160a01b038c168452825280832093909355610165905220548290613883908790614c42565b61388d9190614beb565b6001600160a01b038816600090815261016560205260409020555b856001600160a01b0316876001600160a01b03167f74217ce088f00bfd283666b763c64f0d1b1c345591dfdd01891dddf52446694e8785604051808381526020018281526020019250505060405180910390a360019350505050600161012f559392505050565b600061391a8261314b565b15612cd2576101615460005b81811015612ccf57610161818154811061395057634e487b7160e01b600052603260045260246000fd5b60009182526020918290200154604080516261f76560e41b81526001600160a01b0388811660048301529151919092169263061f76509260248082019391829003018186803b1580156139a257600080fd5b505afa1580156139b6573d6000803e3d6000fd5b505050506040513d60208110156139cc57600080fd5b505115613a9a5761016181815481106139f557634e487b7160e01b600052603260045260246000fd5b9060005260206000200160009054906101000a90046001600160a01b03166001600160a01b0316631fd433aa856040518263ffffffff1660e01b815260040180826001600160a01b03168152602001915050602060405180830381600087803b158015613a6157600080fd5b505af1158015613a75573d6000803e3d6000fd5b505050506040513d6020811015613a8b57600080fd5b5051613a979084614beb565b92505b80613aa481614c9c565b915050613926565b613ab68282612b20565b61115357613ace816001600160a01b031660146141c6565b613ad98360206141c6565b604051602001613aea929190614939565b60408051601f198184030181529082905262461bcd60e51b8252610eb2916004016149bc565b613b1a8282612b20565b61115357600082815260c9602090815260408083206001600160a01b03851684529091529020805460ff19166001179055613b523390565b6001600160a01b0316816001600160a01b0316837f2f8788117e7eff1d82e926ec794901d17c78024a50270940304540a733656f0d60405160405180910390a45050565b613ba08282612b20565b1561115357600082815260c9602090815260408083206001600160a01b0385168085529252808320805460ff1916905551339285917ff6391f5c32d9c69d2a47ea670b442974b53935d1edc7fd64eb21e047a839171b9190a45050565b7f360894a13ba1a3210667c828492db98dca3e2076cc3735a920a3ca505d382bbc546001600160a01b031690565b613c43600080516020614d0683398151915233612b20565b61121d5760405162461bcd60e51b8152600401610eb290614a87565b6000613c69613bfd565b9050613c74846143a8565b600083511180613c815750815b15613c9257613c90848461444d565b505b7f4910fdfa16fed3260ed0e7147f7cc6da11a60208b5b9406d12a635614ffd9143805460ff16613d9f57805460ff19166001178155604051613d0d908690613cde9085906024016149a8565b60408051601f198184030181529190526020810180516001600160e01b0316631b2ce7f360e11b17905261444d565b50805460ff19168155613d1e613bfd565b6001600160a01b0316826001600160a01b031614613d965760405162461bcd60e51b815260206004820152602f60248201527f45524331393637557067726164653a207570677261646520627265616b73206660448201526e75727468657220757067726164657360881b6064820152608401610eb2565b613d9f85614538565b5050505050565b801580613e2f5750604051636eb1769f60e11b81523060048201526001600160a01b03838116602483015284169063dd62ed3e9060440160206040518083038186803b158015613df557600080fd5b505afa158015613e09573d6000803e3d6000fd5b505050506040513d601f19601f82011682018060405250810190613e2d9190614905565b155b613e9a5760405162461bcd60e51b815260206004820152603660248201527f5361666545524332303a20617070726f76652066726f6d206e6f6e2d7a65726f60448201527520746f206e6f6e2d7a65726f20616c6c6f77616e636560501b6064820152608401610eb2565b6040516001600160a01b0383166024820152604481018290526110d490849063095ea7b360e01b906064015b60408051601f198184030181529190526020810180516001600160e01b03166001600160e01b031990931692909217909152614578565b610166546040805163e486033960e01b81526001600160a01b0384811660048301528251600094859492169263e4860339926024808301939192829003018186803b158015613f4b57600080fd5b505afa158015613f5f573d6000803e3d6000fd5b505050506040513d6040811015613f7557600080fd5b50516001600160a01b039081169085161491505092915050565b610166546040805163e486033960e01b81526001600160a01b0384811660048301528251600094859492169263e4860339926024808301939192829003018186803b158015613fdd57600080fd5b505afa158015613ff1573d6000803e3d6000fd5b505050506040513d604081101561400757600080fd5b50602001516001600160a01b039081169085161491505092915050565b6040516001600160a01b0380851660248301528316604482015260648101829052610fbb9085906323b872dd60e01b90608401613ec6565b6040516001600160a01b0383166024820152604481018290526110d490849063a9059cbb60e01b90606401613ec6565b600054610100900460ff16806140a5575060005460ff16155b6140c15760405162461bcd60e51b8152600401610eb290614b3a565b600054610100900460ff161580156140e3576000805461ffff19166101011790555b6140eb61464a565b6140f361464a565b801561121d576000805461ff001916905550565b6111538282613b10565b600054610100900460ff168061412a575060005460ff16155b6141465760405162461bcd60e51b8152600401610eb290614b3a565b600054610100900460ff16158015614168576000805461ffff19166101011790555b6140f36146b4565b600061417c8484613efd565b15614194578161418b84610de6565b10159050610e40565b506001600160a01b03808416600090815261016460209081526040808320938616835292905220548111159392505050565b606060006141d5836002614c23565b6141e0906002614beb565b67ffffffffffffffff81111561420657634e487b7160e01b600052604160045260246000fd5b6040519080825280601f01601f191660200182016040528015614230576020820181803683370190505b509050600360fc1b8160008151811061425957634e487b7160e01b600052603260045260246000fd5b60200101906001600160f81b031916908160001a905350600f60fb1b8160018151811061429657634e487b7160e01b600052603260045260246000fd5b60200101906001600160f81b031916908160001a90535060006142ba846002614c23565b6142c5906001614beb565b90505b6001811115614359576f181899199a1a9b1b9c1cb0b131b232b360811b85600f166010811061430757634e487b7160e01b600052603260045260246000fd5b1a60f81b82828151811061432b57634e487b7160e01b600052603260045260246000fd5b60200101906001600160f81b031916908160001a90535060049490941c9361435281614c85565b90506142c8565b508315610e405760405162461bcd60e51b815260206004820181905260248201527f537472696e67733a20686578206c656e67746820696e73756666696369656e746044820152606401610eb2565b803b61440c5760405162461bcd60e51b815260206004820152602d60248201527f455243313936373a206e657720696d706c656d656e746174696f6e206973206e60448201526c1bdd08184818dbdb9d1c9858dd609a1b6064820152608401610eb2565b7f360894a13ba1a3210667c828492db98dca3e2076cc3735a920a3ca505d382bbc80546001600160a01b0319166001600160a01b0392909216919091179055565b6060823b6144ac5760405162461bcd60e51b815260206004820152602660248201527f416464726573733a2064656c65676174652063616c6c20746f206e6f6e2d636f6044820152651b9d1c9858dd60d21b6064820152608401610eb2565b600080846001600160a01b0316846040516144c7919061491d565b600060405180830381855af49150503d8060008114614502576040519150601f19603f3d011682016040523d82523d6000602084013e614507565b606091505b509150915061452f8282604051806060016040528060278152602001614d2660279139614725565b95945050505050565b614541816143a8565b6040516001600160a01b038216907fbc7cd75a20ee27fd9adebab32041f755214dbc6bffa90cc0225b39da2e5c2d3b90600090a250565b60006145cd826040518060400160405280602081526020017f5361666545524332303a206c6f772d6c6576656c2063616c6c206661696c6564815250856001600160a01b031661475e9092919063ffffffff16565b8051909150156110d457808060200190518101906145eb91906148e5565b6110d45760405162461bcd60e51b815260206004820152602a60248201527f5361666545524332303a204552433230206f7065726174696f6e20646964206e6044820152691bdd081cdd58d8d9595960b21b6064820152608401610eb2565b600054610100900460ff1680614663575060005460ff16155b61467f5760405162461bcd60e51b8152600401610eb290614b3a565b600054610100900460ff161580156140f3576000805461ffff1916610101179055801561121d576000805461ff001916905550565b600054610100900460ff16806146cd575060005460ff16155b6146e95760405162461bcd60e51b8152600401610eb290614b3a565b600054610100900460ff1615801561470b576000805461ffff19166101011790555b600161012f55801561121d576000805461ff001916905550565b60608315614734575081610e40565b8251156147445782518084602001fd5b8160405162461bcd60e51b8152600401610eb291906149bc565b606061320f848460008585843b6147b75760405162461bcd60e51b815260206004820152601d60248201527f416464726573733a2063616c6c20746f206e6f6e2d636f6e74726163740000006044820152606401610eb2565b600080866001600160a01b031685876040516147d3919061491d565b60006040518083038185875af1925050503d8060008114614810576040519150601f19603f3d011682016040523d82523d6000602084013e614815565b606091505b5091509150614825828286614725565b979650505050505050565b828054828255906000526020600020908101928215614885579160200282015b8281111561488557825182546001600160a01b0319166001600160a01b03909116178255602090920191600190910190614850565b506148919291506148d0565b5090565b828054828255906000526020600020908101928215614885579160200282015b828111156148855782358255916020019190600101906148b5565b5b8082111561489157600081556001016148d1565b6000602082840312156148f6578081fd5b81518015158114610e40578182fd5b600060208284031215614916578081fd5b5051919050565b6000825161492f818460208701614c59565b9190910192915050565b76020b1b1b2b9b9a1b7b73a3937b61d1030b1b1b7bab73a1604d1b81526000835161496b816017850160208801614c59565b7001034b99036b4b9b9b4b733903937b6329607d1b601791840191820152835161499c816028840160208801614c59565b01602801949350505050565b6001600160a01b0391909116815260200190565b60208152600082518060208401526149db816040850160208701614c59565b601f01601f19169190910160400192915050565b6020808252602c908201527f46756e6374696f6e206d7573742062652063616c6c6564207468726f7567682060408201526b19195b1959d85d1958d85b1b60a21b606082015260800190565b6020808252602c908201527f46756e6374696f6e206d7573742062652063616c6c6564207468726f7567682060408201526b6163746976652070726f787960a01b606082015260800190565b60208082526015908201527421b7b73a3937b63632b91d103737ba1030b236b4b760591b604082015260600190565b60208082526032908201527f436f6e74726f6c6c65723a2063616c6c657220646f6573206e6f7420686176656040820152712074686520677561726469616e20726f6c6560701b606082015260800190565b602080825260189082015277436f6e74726f6c6c65723a2061646472657373207a65726f60401b604082015260600190565b6020808252602e908201527f496e697469616c697a61626c653a20636f6e747261637420697320616c72656160408201526d191e481a5b9a5d1a585b1a5e995960921b606082015260800190565b6020808252601f908201527f5265656e7472616e637947756172643a207265656e7472616e742063616c6c00604082015260600190565b60208082526012908201527110dbdb9d1c9bdb1b195c8e881c185d5cd95960721b604082015260600190565b60008219821115614bfe57614bfe614cb7565b500190565b600082614c1e57634e487b7160e01b81526012600452602481fd5b500490565b6000816000190483118215151615614c3d57614c3d614cb7565b500290565b600082821015614c5457614c54614cb7565b500390565b60005b83811015614c74578181015183820152602001614c5c565b83811115610fbb5750506000910152565b600081614c9457614c94614cb7565b506000190190565b6000600019821415614cb057614cb0614cb7565b5060010190565b634e487b7160e01b600052601160045260246000fdfe41737365744d616e616765723a207468657265206172652072656d61696e696e672066756e647320696e207468652066756e6420706f6f6c2172861495e7b85edac73e3cd5fbb42dd675baadf627720e687bcfdaca025096416464726573733a206c6f772d6c6576656c2064656c65676174652063616c6c206661696c656441737365744d616e616765723a206d61726b657452656769737472792063616e206e6f74206265207a65726fa2646970667358221220f969619b915d68c3f7ad1a793a8bf4c159be04f910a7f90c99f3cac0c7c5b0bc64736f6c63430008040033",
  "devdoc": {
    "details": "Manage the token assets deposited by components and admins, and invest tokens to the integrated underlying lending protocols.",
    "events": {
      "LogDeposit(address,address,uint256)": {
        "details": "Emit when making a deposit",
        "params": {
          "account": "Account address",
          "amount": "Deposit amount, in wei",
          "token": "Depositing token address"
        }
      },
      "LogRebalance(address,uint256[])": {
        "details": "Emit when rebalancing among the integrated money markets",
        "params": {
          "percentages": "Array of the percentages of the tokens to deposit to the money markets",
          "tokenAddress": "The address of the token to be rebalanced"
        }
      },
      "LogWithdraw(address,address,uint256,uint256)": {
        "details": "Emit when withdrawing from AssetManager",
        "params": {
          "account": "Account address",
          "amount": "Withdraw amount, in wei",
          "remaining": "The amount cannot be withdrawn",
          "token": "Depositing token address"
        }
      }
    },
    "kind": "dev",
    "methods": {
      "addAdapter(address)": {
        "details": "Add a new adapter for the underlying lending protocol",
        "params": {
          "adapterAddress": "adapter address"
        }
      },
      "addAdmin(address)": {
        "details": "Add a new admin account",
        "params": {
          "account": "Account address"
        }
      },
      "addToken(address)": {
        "details": "Add a new ERC20 token to support in AssetManager",
        "params": {
          "tokenAddress": "ERC20 token address"
        }
      },
      "approveAllMarketsMax(address)": {
        "details": "For a give token set allowance for all integrated money markets",
        "params": {
          "tokenAddress": "ERC20 token address"
        }
      },
      "approveAllTokensMax(address)": {
        "details": "For a give moeny market set allowance for all underlying tokens",
        "params": {
          "adapterAddress": "Address of adaptor for money market"
        }
      },
      "changeWithdrawSequence(uint256[])": {
        "details": "Set withdraw sequence",
        "params": {
          "newSeq": "priority sequence of money market indices to be used while withdrawing"
        }
      },
      "claimTokens(address,address)": {
        "details": "Claim the tokens left on AssetManager balance, in case there are tokens get stuck here.",
        "params": {
          "recipient": "Recipient address",
          "tokenAddress": "ERC20 token address"
        }
      },
      "claimTokensFromAdapter(uint256,address,address)": {
        "details": "Claim the tokens stuck in the integrated adapters",
        "params": {
          "index": "MoneyMarkets array index",
          "recipient": "Recipient address",
          "tokenAddress": "ERC20 token address"
        }
      },
      "deposit(address,uint256)": {
        "details": "Deposit tokens to AssetManager, and those tokens will be passed along to adapters to deposit to integrated asset protocols if any is available.",
        "params": {
          "amount": "ERC20 token address",
          "token": "ERC20 token address"
        },
        "returns": {
          "_0": "Deposited amount"
        }
      },
      "getLoanableAmount(address)": {
        "details": "Returns the amount of the lending pool balance minus the amount of total staked.",
        "params": {
          "tokenAddress": "ERC20 token address"
        },
        "returns": {
          "loanAmount": "Amount can be borrowed"
        }
      },
      "getMoneyMarket(address,uint256)": {
        "details": "Get the supported lending protocol",
        "params": {
          "marketId": "MoneyMarkets array index",
          "tokenAddress": "ERC20 token address"
        },
        "returns": {
          "rate": "tokenSupply, rate(compound is supplyRatePerBlock 1e18, aave is supplyRatePerYear 1e27)"
        }
      },
      "getPoolBalance(address)": {
        "details": "Get the balance of asset manager, plus the total amount of tokens deposited to all the underlying lending protocols",
        "params": {
          "tokenAddress": "ERC20 token address"
        },
        "returns": {
          "_0": "Pool balance"
        }
      },
      "getRoleAdmin(bytes32)": {
        "details": "Returns the admin role that controls `role`. See {grantRole} and {revokeRole}. To change a role's admin, use {_setRoleAdmin}."
      },
      "grantRole(bytes32,address)": {
        "details": "Grants `role` to `account`. If `account` had not been already granted `role`, emits a {RoleGranted} event. Requirements: - the caller must have ``role``'s admin role."
      },
      "hasRole(bytes32,address)": {
        "details": "Returns `true` if `account` has been granted `role`."
      },
      "isAdmin(address)": {
        "details": "Check if the address provided is the admin",
        "params": {
          "account": "Account address"
        }
      },
      "isMarketSupported(address)": {
        "details": "Check if there is an underlying protocol available for the given ERC20 token.",
        "params": {
          "tokenAddress": "ERC20 token address"
        },
        "returns": {
          "_0": "Whether is supported"
        }
      },
      "moneyMarketsCount()": {
        "details": "Get the number of supported underlying protocols.",
        "returns": {
          "_0": "MoneyMarkets length"
        }
      },
      "pause()": {
        "details": "Called by a pauser to pause, triggers stopped state."
      },
      "paused()": {
        "details": "Returns true if the contract is paused, and false otherwise."
      },
      "rebalance(address,uint256[])": {
        "details": "Take all the supply of `tokenAddress` and redistribute it according to `percentages`. Rejects if the token is not supported.",
        "params": {
          "percentages": "A list of percentages, expressed as units in 10000, indicating how to deposit the tokens in each underlying money market. The length of this array is one less than the amount of money markets: the last money market will receive the remaining tokens. For example, if there are 3 money markets, and you want to rebalance so that the first one has 10.5% of the tokens, the second one 55%, and the third one 34.5%, this param will be [1050, 5500].",
          "tokenAddress": "Address of the token that is going to be rebalanced"
        }
      },
      "removeAdapter(address)": {
        "details": "Remove a adapter for the underlying lending protocol",
        "params": {
          "adapterAddress": "adapter address"
        }
      },
      "removeToken(address)": {
        "details": "Remove a ERC20 token to support in AssetManager",
        "params": {
          "tokenAddress": "ERC20 token address"
        }
      },
      "renounceAdmin()": {
        "details": "Renouce the admin from the sender's address"
      },
      "renounceRole(bytes32,address)": {
        "details": "Revokes `role` from the calling account. Roles are often managed via {grantRole} and {revokeRole}: this function's purpose is to provide a mechanism for accounts to lose their privileges if they are compromised (such as when a trusted device is misplaced). If the calling account had been revoked `role`, emits a {RoleRevoked} event. Requirements: - the caller must be `account`."
      },
      "revokeRole(bytes32,address)": {
        "details": "Revokes `role` from `account`. If `account` had been granted `role`, emits a {RoleRevoked} event. Requirements: - the caller must have ``role``'s admin role."
      },
      "setGuardian(address)": {
        "details": "Set pauseGuardian account",
        "params": {
          "account": "Account address"
        }
      },
      "supportedTokensCount()": {
        "details": "Get the count of supported tokens",
        "returns": {
          "_0": "Number of supported tokens"
        }
      },
      "supportsInterface(bytes4)": {
        "details": "See {IERC165-supportsInterface}."
      },
      "totalSupply(address)": {
        "details": "Get the total amount of tokens deposited to all the integrated underlying protocols without side effects.",
        "params": {
          "tokenAddress": "ERC20 token address"
        },
        "returns": {
          "tokenSupply": "Total market balance"
        }
      },
      "totalSupplyView(address)": {
        "details": "Get the total amount of tokens deposited to all the integrated underlying protocols, but without side effects. Safe to call anytime, but may not get the most updated number for the current block. Call totalSupply() for that purpose.",
        "params": {
          "tokenAddress": "ERC20 token address"
        },
        "returns": {
          "tokenSupply": "Total market balance"
        }
      },
      "unpause()": {
        "details": "Called by a pauser to unpause, returns to normal state."
      },
      "upgradeTo(address)": {
        "details": "Upgrade the implementation of the proxy to `newImplementation`. Calls {_authorizeUpgrade}. Emits an {Upgraded} event."
      },
      "upgradeToAndCall(address,bytes)": {
        "details": "Upgrade the implementation of the proxy to `newImplementation`, and subsequently execute the function call encoded in `data`. Calls {_authorizeUpgrade}. Emits an {Upgraded} event."
      },
      "withdraw(address,address,uint256)": {
        "details": "Withdraw from AssetManager",
        "params": {
          "account": "User address",
          "amount": "ERC20 token address",
          "token": "ERC20 token address"
        },
        "returns": {
          "_0": "Withdraw amount"
        }
      }
    },
    "title": "AssetManager",
    "version": 1
  },
  "userdoc": {
    "kind": "user",
    "methods": {},
    "version": 1
  },
  "storageLayout": {
    "storage": [
      {
        "astId": 823,
        "contract": "contracts/asset/AssetManager.sol:AssetManager",
        "label": "_initialized",
        "offset": 0,
        "slot": "0",
        "type": "t_bool"
      },
      {
        "astId": 826,
        "contract": "contracts/asset/AssetManager.sol:AssetManager",
        "label": "_initializing",
        "offset": 1,
        "slot": "0",
        "type": "t_bool"
      },
      {
        "astId": 806,
        "contract": "contracts/asset/AssetManager.sol:AssetManager",
        "label": "__gap",
        "offset": 0,
        "slot": "1",
        "type": "t_array(t_uint256)50_storage"
      },
      {
        "astId": 973,
        "contract": "contracts/asset/AssetManager.sol:AssetManager",
        "label": "__gap",
        "offset": 0,
        "slot": "51",
        "type": "t_array(t_uint256)50_storage"
      },
      {
        "astId": 2453,
        "contract": "contracts/asset/AssetManager.sol:AssetManager",
        "label": "__gap",
        "offset": 0,
        "slot": "101",
        "type": "t_array(t_uint256)50_storage"
      },
      {
        "astId": 3375,
        "contract": "contracts/asset/AssetManager.sol:AssetManager",
        "label": "__gap",
        "offset": 0,
        "slot": "151",
        "type": "t_array(t_uint256)50_storage"
      },
      {
        "astId": 48,
        "contract": "contracts/asset/AssetManager.sol:AssetManager",
        "label": "_roles",
        "offset": 0,
        "slot": "201",
        "type": "t_mapping(t_bytes32,t_struct(RoleData)43_storage)"
      },
      {
        "astId": 335,
        "contract": "contracts/asset/AssetManager.sol:AssetManager",
        "label": "__gap",
        "offset": 0,
        "slot": "202",
        "type": "t_array(t_uint256)49_storage"
      },
      {
        "astId": 11947,
        "contract": "contracts/asset/AssetManager.sol:AssetManager",
        "label": "_admins",
        "offset": 0,
        "slot": "251",
        "type": "t_mapping(t_address,t_address)"
      },
      {
        "astId": 11949,
        "contract": "contracts/asset/AssetManager.sol:AssetManager",
        "label": "_paused",
        "offset": 0,
        "slot": "252",
        "type": "t_bool"
      },
      {
        "astId": 11951,
        "contract": "contracts/asset/AssetManager.sol:AssetManager",
        "label": "pauseGuardian",
        "offset": 1,
        "slot": "252",
        "type": "t_address"
      },
      {
        "astId": 12191,
        "contract": "contracts/asset/AssetManager.sol:AssetManager",
        "label": "______gap",
        "offset": 0,
        "slot": "253",
        "type": "t_array(t_uint256)50_storage"
      },
      {
        "astId": 988,
        "contract": "contracts/asset/AssetManager.sol:AssetManager",
        "label": "_status",
        "offset": 0,
        "slot": "303",
        "type": "t_uint256"
      },
      {
        "astId": 1031,
        "contract": "contracts/asset/AssetManager.sol:AssetManager",
        "label": "__gap",
        "offset": 0,
        "slot": "304",
        "type": "t_array(t_uint256)49_storage"
      },
      {
        "astId": 12853,
        "contract": "contracts/asset/AssetManager.sol:AssetManager",
        "label": "moneyMarkets",
        "offset": 0,
        "slot": "353",
        "type": "t_array(t_contract(IMoneyMarketAdapter)16279)dyn_storage"
      },
      {
        "astId": 12857,
        "contract": "contracts/asset/AssetManager.sol:AssetManager",
        "label": "supportedMarkets",
        "offset": 0,
        "slot": "354",
        "type": "t_mapping(t_address,t_bool)"
      },
      {
        "astId": 12860,
        "contract": "contracts/asset/AssetManager.sol:AssetManager",
        "label": "supportedTokensList",
        "offset": 0,
        "slot": "355",
        "type": "t_array(t_address)dyn_storage"
      },
      {
        "astId": 12866,
        "contract": "contracts/asset/AssetManager.sol:AssetManager",
        "label": "balances",
        "offset": 0,
        "slot": "356",
        "type": "t_mapping(t_address,t_mapping(t_address,t_uint256))"
      },
      {
        "astId": 12870,
        "contract": "contracts/asset/AssetManager.sol:AssetManager",
        "label": "totalPrincipal",
        "offset": 0,
        "slot": "357",
        "type": "t_mapping(t_address,t_uint256)"
      },
      {
        "astId": 12872,
        "contract": "contracts/asset/AssetManager.sol:AssetManager",
        "label": "marketRegistry",
        "offset": 0,
        "slot": "358",
        "type": "t_address"
      },
      {
        "astId": 12875,
        "contract": "contracts/asset/AssetManager.sol:AssetManager",
        "label": "withdrawSeq",
        "offset": 0,
        "slot": "359",
        "type": "t_array(t_uint256)dyn_storage"
      }
    ],
    "types": {
      "t_address": {
        "encoding": "inplace",
        "label": "address",
        "numberOfBytes": "20"
      },
      "t_array(t_address)dyn_storage": {
        "base": "t_address",
        "encoding": "dynamic_array",
        "label": "address[]",
        "numberOfBytes": "32"
      },
      "t_array(t_contract(IMoneyMarketAdapter)16279)dyn_storage": {
        "base": "t_contract(IMoneyMarketAdapter)16279",
        "encoding": "dynamic_array",
        "label": "contract IMoneyMarketAdapter[]",
        "numberOfBytes": "32"
      },
      "t_array(t_uint256)49_storage": {
        "base": "t_uint256",
        "encoding": "inplace",
        "label": "uint256[49]",
        "numberOfBytes": "1568"
      },
      "t_array(t_uint256)50_storage": {
        "base": "t_uint256",
        "encoding": "inplace",
        "label": "uint256[50]",
        "numberOfBytes": "1600"
      },
      "t_array(t_uint256)dyn_storage": {
        "base": "t_uint256",
        "encoding": "dynamic_array",
        "label": "uint256[]",
        "numberOfBytes": "32"
      },
      "t_bool": {
        "encoding": "inplace",
        "label": "bool",
        "numberOfBytes": "1"
      },
      "t_bytes32": {
        "encoding": "inplace",
        "label": "bytes32",
        "numberOfBytes": "32"
      },
      "t_contract(IMoneyMarketAdapter)16279": {
        "encoding": "inplace",
        "label": "contract IMoneyMarketAdapter",
        "numberOfBytes": "20"
      },
      "t_mapping(t_address,t_address)": {
        "encoding": "mapping",
        "key": "t_address",
        "label": "mapping(address => address)",
        "numberOfBytes": "32",
        "value": "t_address"
      },
      "t_mapping(t_address,t_bool)": {
        "encoding": "mapping",
        "key": "t_address",
        "label": "mapping(address => bool)",
        "numberOfBytes": "32",
        "value": "t_bool"
      },
      "t_mapping(t_address,t_mapping(t_address,t_uint256))": {
        "encoding": "mapping",
        "key": "t_address",
        "label": "mapping(address => mapping(address => uint256))",
        "numberOfBytes": "32",
        "value": "t_mapping(t_address,t_uint256)"
      },
      "t_mapping(t_address,t_uint256)": {
        "encoding": "mapping",
        "key": "t_address",
        "label": "mapping(address => uint256)",
        "numberOfBytes": "32",
        "value": "t_uint256"
      },
      "t_mapping(t_bytes32,t_struct(RoleData)43_storage)": {
        "encoding": "mapping",
        "key": "t_bytes32",
        "label": "mapping(bytes32 => struct AccessControlUpgradeable.RoleData)",
        "numberOfBytes": "32",
        "value": "t_struct(RoleData)43_storage"
      },
      "t_struct(RoleData)43_storage": {
        "encoding": "inplace",
        "label": "struct AccessControlUpgradeable.RoleData",
        "members": [
          {
            "astId": 40,
            "contract": "contracts/asset/AssetManager.sol:AssetManager",
            "label": "members",
            "offset": 0,
            "slot": "0",
            "type": "t_mapping(t_address,t_bool)"
          },
          {
            "astId": 42,
            "contract": "contracts/asset/AssetManager.sol:AssetManager",
            "label": "adminRole",
            "offset": 0,
            "slot": "1",
            "type": "t_bytes32"
          }
        ],
        "numberOfBytes": "64"
      },
      "t_uint256": {
        "encoding": "inplace",
        "label": "uint256",
        "numberOfBytes": "32"
      }
    }
  }
}