{
  "address": "0xf89e0413644260771B878979Eff987C684b78Fa9",
  "abi": [
    {
      "anonymous": false,
      "inputs": [
        {
          "indexed": false,
          "internalType": "address",
          "name": "previousAdmin",
          "type": "address"
        },
        {
          "indexed": false,
          "internalType": "address",
          "name": "newAdmin",
          "type": "address"
        }
      ],
      "name": "AdminChanged",
      "type": "event"
    },
    {
      "anonymous": false,
      "inputs": [
        {
          "indexed": true,
          "internalType": "address",
          "name": "beacon",
          "type": "address"
        }
      ],
      "name": "BeaconUpgraded",
      "type": "event"
    },
    {
      "anonymous": false,
      "inputs": [
        {
          "indexed": false,
          "internalType": "address",
          "name": "account",
          "type": "address"
        }
      ],
      "name": "Paused",
      "type": "event"
    },
    {
      "anonymous": false,
      "inputs": [
        {
          "indexed": true,
          "internalType": "bytes32",
          "name": "role",
          "type": "bytes32"
        },
        {
          "indexed": true,
          "internalType": "bytes32",
          "name": "previousAdminRole",
          "type": "bytes32"
        },
        {
          "indexed": true,
          "internalType": "bytes32",
          "name": "newAdminRole",
          "type": "bytes32"
        }
      ],
      "name": "RoleAdminChanged",
      "type": "event"
    },
    {
      "anonymous": false,
      "inputs": [
        {
          "indexed": true,
          "internalType": "bytes32",
          "name": "role",
          "type": "bytes32"
        },
        {
          "indexed": true,
          "internalType": "address",
          "name": "account",
          "type": "address"
        },
        {
          "indexed": true,
          "internalType": "address",
          "name": "sender",
          "type": "address"
        }
      ],
      "name": "RoleGranted",
      "type": "event"
    },
    {
      "anonymous": false,
      "inputs": [
        {
          "indexed": true,
          "internalType": "bytes32",
          "name": "role",
          "type": "bytes32"
        },
        {
          "indexed": true,
          "internalType": "address",
          "name": "account",
          "type": "address"
        },
        {
          "indexed": true,
          "internalType": "address",
          "name": "sender",
          "type": "address"
        }
      ],
      "name": "RoleRevoked",
      "type": "event"
    },
    {
      "anonymous": false,
      "inputs": [
        {
          "indexed": false,
          "internalType": "address",
          "name": "account",
          "type": "address"
        }
      ],
      "name": "Unpaused",
      "type": "event"
    },
    {
      "anonymous": false,
      "inputs": [
        {
          "indexed": true,
          "internalType": "address",
          "name": "implementation",
          "type": "address"
        }
      ],
      "name": "Upgraded",
      "type": "event"
    },
    {
      "inputs": [],
      "name": "DEFAULT_ADMIN_ROLE",
      "outputs": [
        {
          "internalType": "bytes32",
          "name": "",
          "type": "bytes32"
        }
      ],
      "stateMutability": "view",
      "type": "function"
    },
    {
      "inputs": [],
      "name": "ROLE_ADMIN",
      "outputs": [
        {
          "internalType": "bytes32",
          "name": "",
          "type": "bytes32"
        }
      ],
      "stateMutability": "view",
      "type": "function"
    },
    {
      "inputs": [
        {
          "internalType": "address",
          "name": "_assetManager",
          "type": "address"
        },
        {
          "internalType": "address",
          "name": "_comptroller",
          "type": "address"
        }
      ],
      "name": "__CompoundAdapter_init",
      "outputs": [],
      "stateMutability": "nonpayable",
      "type": "function"
    },
    {
      "inputs": [
        {
          "internalType": "address",
          "name": "admin_",
          "type": "address"
        }
      ],
      "name": "__Controller_init",
      "outputs": [],
      "stateMutability": "nonpayable",
      "type": "function"
    },
    {
      "inputs": [
        {
          "internalType": "address",
          "name": "account",
          "type": "address"
        }
      ],
      "name": "addAdmin",
      "outputs": [],
      "stateMutability": "nonpayable",
      "type": "function"
    },
    {
      "inputs": [],
      "name": "assetManager",
      "outputs": [
        {
          "internalType": "address",
          "name": "",
          "type": "address"
        }
      ],
      "stateMutability": "view",
      "type": "function"
    },
    {
      "inputs": [
        {
          "internalType": "address",
          "name": "",
          "type": "address"
        }
      ],
      "name": "ceilingMap",
      "outputs": [
        {
          "internalType": "uint256",
          "name": "",
          "type": "uint256"
        }
      ],
      "stateMutability": "view",
      "type": "function"
    },
    {
      "inputs": [
        {
          "internalType": "address",
          "name": "tokenAddress",
          "type": "address"
        }
      ],
      "name": "claimRewards",
      "outputs": [],
      "stateMutability": "nonpayable",
      "type": "function"
    },
    {
      "inputs": [
        {
          "internalType": "address",
          "name": "tokenAddress",
          "type": "address"
        },
        {
          "internalType": "address",
          "name": "recipient",
          "type": "address"
        }
      ],
      "name": "claimTokens",
      "outputs": [],
      "stateMutability": "nonpayable",
      "type": "function"
    },
    {
      "inputs": [],
      "name": "comptroller",
      "outputs": [
        {
          "internalType": "contract CComptroller",
          "name": "",
          "type": "address"
        }
      ],
      "stateMutability": "view",
      "type": "function"
    },
    {
      "inputs": [
        {
          "internalType": "address",
          "name": "tokenAddress",
          "type": "address"
        }
      ],
      "name": "deposit",
      "outputs": [],
      "stateMutability": "nonpayable",
      "type": "function"
    },
    {
      "inputs": [
        {
          "internalType": "address",
          "name": "",
          "type": "address"
        }
      ],
      "name": "floorMap",
      "outputs": [
        {
          "internalType": "uint256",
          "name": "",
          "type": "uint256"
        }
      ],
      "stateMutability": "view",
      "type": "function"
    },
    {
      "inputs": [
        {
          "internalType": "address",
          "name": "tokenAddress",
          "type": "address"
        }
      ],
      "name": "getRate",
      "outputs": [
        {
          "internalType": "uint256",
          "name": "",
          "type": "uint256"
        }
      ],
      "stateMutability": "view",
      "type": "function"
    },
    {
      "inputs": [
        {
          "internalType": "bytes32",
          "name": "role",
          "type": "bytes32"
        }
      ],
      "name": "getRoleAdmin",
      "outputs": [
        {
          "internalType": "bytes32",
          "name": "",
          "type": "bytes32"
        }
      ],
      "stateMutability": "view",
      "type": "function"
    },
    {
      "inputs": [
        {
          "internalType": "address",
          "name": "tokenAddress",
          "type": "address"
        }
      ],
      "name": "getSupply",
      "outputs": [
        {
          "internalType": "uint256",
          "name": "",
          "type": "uint256"
        }
      ],
      "stateMutability": "nonpayable",
      "type": "function"
    },
    {
      "inputs": [
        {
          "internalType": "address",
          "name": "tokenAddress",
          "type": "address"
        }
      ],
      "name": "getSupplyView",
      "outputs": [
        {
          "internalType": "uint256",
          "name": "",
          "type": "uint256"
        }
      ],
      "stateMutability": "view",
      "type": "function"
    },
    {
      "inputs": [
        {
          "internalType": "bytes32",
          "name": "role",
          "type": "bytes32"
        },
        {
          "internalType": "address",
          "name": "account",
          "type": "address"
        }
      ],
      "name": "grantRole",
      "outputs": [],
      "stateMutability": "nonpayable",
      "type": "function"
    },
    {
      "inputs": [
        {
          "internalType": "bytes32",
          "name": "role",
          "type": "bytes32"
        },
        {
          "internalType": "address",
          "name": "account",
          "type": "address"
        }
      ],
      "name": "hasRole",
      "outputs": [
        {
          "internalType": "bool",
          "name": "",
          "type": "bool"
        }
      ],
      "stateMutability": "view",
      "type": "function"
    },
    {
      "inputs": [
        {
          "internalType": "address",
          "name": "account",
          "type": "address"
        }
      ],
      "name": "isAdmin",
      "outputs": [
        {
          "internalType": "bool",
          "name": "",
          "type": "bool"
        }
      ],
      "stateMutability": "view",
      "type": "function"
    },
    {
      "inputs": [
        {
          "internalType": "address",
          "name": "tokenAddress",
          "type": "address"
        },
        {
          "internalType": "address",
          "name": "cTokenAddress",
          "type": "address"
        }
      ],
      "name": "mapTokenToCToken",
      "outputs": [],
      "stateMutability": "nonpayable",
      "type": "function"
    },
    {
      "inputs": [],
      "name": "pause",
      "outputs": [],
      "stateMutability": "nonpayable",
      "type": "function"
    },
    {
      "inputs": [],
      "name": "pauseGuardian",
      "outputs": [
        {
          "internalType": "address",
          "name": "",
          "type": "address"
        }
      ],
      "stateMutability": "view",
      "type": "function"
    },
    {
      "inputs": [],
      "name": "paused",
      "outputs": [
        {
          "internalType": "bool",
          "name": "",
          "type": "bool"
        }
      ],
      "stateMutability": "view",
      "type": "function"
    },
    {
      "inputs": [],
      "name": "renounceAdmin",
      "outputs": [],
      "stateMutability": "nonpayable",
      "type": "function"
    },
    {
      "inputs": [
        {
          "internalType": "bytes32",
          "name": "role",
          "type": "bytes32"
        },
        {
          "internalType": "address",
          "name": "account",
          "type": "address"
        }
      ],
      "name": "renounceRole",
      "outputs": [],
      "stateMutability": "nonpayable",
      "type": "function"
    },
    {
      "inputs": [
        {
          "internalType": "bytes32",
          "name": "role",
          "type": "bytes32"
        },
        {
          "internalType": "address",
          "name": "account",
          "type": "address"
        }
      ],
      "name": "revokeRole",
      "outputs": [],
      "stateMutability": "nonpayable",
      "type": "function"
    },
    {
      "inputs": [
        {
          "internalType": "address",
          "name": "_assetManager",
          "type": "address"
        }
      ],
      "name": "setAssetManager",
      "outputs": [],
      "stateMutability": "nonpayable",
      "type": "function"
    },
    {
      "inputs": [
        {
          "internalType": "address",
          "name": "tokenAddress",
          "type": "address"
        },
        {
          "internalType": "uint256",
          "name": "ceiling",
          "type": "uint256"
        }
      ],
      "name": "setCeiling",
      "outputs": [],
      "stateMutability": "nonpayable",
      "type": "function"
    },
    {
      "inputs": [
        {
          "internalType": "address",
          "name": "_comptroller",
          "type": "address"
        }
      ],
      "name": "setComptroller",
      "outputs": [],
      "stateMutability": "nonpayable",
      "type": "function"
    },
    {
      "inputs": [
        {
          "internalType": "address",
          "name": "tokenAddress",
          "type": "address"
        },
        {
          "internalType": "uint256",
          "name": "floor",
          "type": "uint256"
        }
      ],
      "name": "setFloor",
      "outputs": [],
      "stateMutability": "nonpayable",
      "type": "function"
    },
    {
      "inputs": [
        {
          "internalType": "address",
          "name": "account",
          "type": "address"
        }
      ],
      "name": "setGuardian",
      "outputs": [],
      "stateMutability": "nonpayable",
      "type": "function"
    },
    {
      "inputs": [
        {
          "internalType": "bytes4",
          "name": "interfaceId",
          "type": "bytes4"
        }
      ],
      "name": "supportsInterface",
      "outputs": [
        {
          "internalType": "bool",
          "name": "",
          "type": "bool"
        }
      ],
      "stateMutability": "view",
      "type": "function"
    },
    {
      "inputs": [
        {
          "internalType": "address",
          "name": "tokenAddress",
          "type": "address"
        }
      ],
      "name": "supportsToken",
      "outputs": [
        {
          "internalType": "bool",
          "name": "",
          "type": "bool"
        }
      ],
      "stateMutability": "view",
      "type": "function"
    },
    {
      "inputs": [
        {
          "internalType": "address",
          "name": "",
          "type": "address"
        }
      ],
      "name": "tokenToCToken",
      "outputs": [
        {
          "internalType": "address",
          "name": "",
          "type": "address"
        }
      ],
      "stateMutability": "view",
      "type": "function"
    },
    {
      "inputs": [],
      "name": "unpause",
      "outputs": [],
      "stateMutability": "nonpayable",
      "type": "function"
    },
    {
      "inputs": [
        {
          "internalType": "address",
          "name": "newImplementation",
          "type": "address"
        }
      ],
      "name": "upgradeTo",
      "outputs": [],
      "stateMutability": "nonpayable",
      "type": "function"
    },
    {
      "inputs": [
        {
          "internalType": "address",
          "name": "newImplementation",
          "type": "address"
        },
        {
          "internalType": "bytes",
          "name": "data",
          "type": "bytes"
        }
      ],
      "name": "upgradeToAndCall",
      "outputs": [],
      "stateMutability": "payable",
      "type": "function"
    },
    {
      "inputs": [
        {
          "internalType": "address",
          "name": "tokenAddress",
          "type": "address"
        },
        {
          "internalType": "address",
          "name": "recipient",
          "type": "address"
        },
        {
          "internalType": "uint256",
          "name": "tokenAmount",
          "type": "uint256"
        }
      ],
      "name": "withdraw",
      "outputs": [],
      "stateMutability": "nonpayable",
      "type": "function"
    },
    {
      "inputs": [
        {
          "internalType": "address",
          "name": "tokenAddress",
          "type": "address"
        },
        {
          "internalType": "address",
          "name": "recipient",
          "type": "address"
        }
      ],
      "name": "withdrawAll",
      "outputs": [],
      "stateMutability": "nonpayable",
      "type": "function"
    }
  ],
  "transactionHash": "0x19d3954c39b10a7002e505edee43237adce821785a7f3a75bd6316343df7365b",
  "args": [],
  "solcInputHash": "17396099ecbd857f406d78caa623130a",
  "bytecode": "0x60a06040523060601b60805234801561001757600080fd5b5060805160601c612fa561004b60003960008181610f1801528181610f580152818161115f015261119f0152612fa56000f3fe6080604052600436106102205760003560e01c806369ffa08a1161012e57806394217ad1116100ab578063d9caed121161006f578063d9caed121461094d578063ec7b6fd814610990578063ed8a1e54146109cb578063ef5cfb8c146109fe578063f340fa0114610a3157600080fd5b806394217ad114610883578063a217fddf146108a4578063c99c7d93146108b9578063d391014b146108f2578063d547741f1461091457600080fd5b80638a0dac4a116100f25780638a0dac4a1461078e5780638bad0c0a146107c15780638bad38dd146107d6578063904d32611461080957806391d148541461084a57600080fd5b806369ffa08a1461069f5780636c00c7f0146106da5780636c461a731461071357806370480275146107465780638456cb591461077957600080fd5b8063363f68ce116101bc578063430602371161018057806343060237146105425780634f1ef286146105755780635c975abb1461062b5780635fe3b5671461064357806366a207911461066457600080fd5b8063363f68ce1461044d57806336568abe1461048e5780633659cfe6146104c757806337cef791146104fa5780633f4ba83a1461052d57600080fd5b806301ffc9a714610225578063061f76501461026d57806309cae2c8146102a05780631fd433aa146102dd578063248a9ca31461032257806324a3d6221461035c57806324d7806c1461039d57806325888f0b146103d05780632f2ff15d14610414575b600080fd5b34801561023157600080fd5b506102596004803603602081101561024857600080fd5b50356001600160e01b031916610a64565b604080519115158252519081900360200190f35b34801561027957600080fd5b506102596004803603602081101561029057600080fd5b50356001600160a01b0316610a9b565b3480156102ac57600080fd5b506102db600480360360408110156102c357600080fd5b506001600160a01b0381358116916020013516610aa6565b005b3480156102e957600080fd5b506103106004803603602081101561030057600080fd5b50356001600160a01b0316610d2e565b60408051918252519081900360200190f35b34801561032e57600080fd5b506103106004803603602081101561034557600080fd5b5035600090815260c9602052604090206001015490565b34801561036857600080fd5b5060fc546103819061010090046001600160a01b031681565b604080516001600160a01b039092168252519081900360200190f35b3480156103a957600080fd5b50610259600480360360208110156103c057600080fd5b50356001600160a01b0316610e45565b3480156103dc57600080fd5b50610381600480360360208110156103f357600080fd5b5061012f6020526001600160a01b0390358116600090815260409020541681565b34801561042057600080fd5b506102db6004803603604081101561043757600080fd5b50803590602001356001600160a01b0316610e5f565b34801561045957600080fd5b506103106004803603602081101561047057600080fd5b50610133602052356001600160a01b03166000908152604090205481565b34801561049a57600080fd5b506102db600480360360408110156104b157600080fd5b50803590602001356001600160a01b0316610e8a565b3480156104d357600080fd5b506102db600480360360208110156104ea57600080fd5b50356001600160a01b0316610f0d565b34801561050657600080fd5b506103106004803603602081101561051d57600080fd5b50356001600160a01b0316610fd6565b34801561053957600080fd5b506102db61103f565b34801561054e57600080fd5b506102db6004803603602081101561056557600080fd5b50356001600160a01b03166110fd565b6102db6004803603604081101561058b57600080fd5b6001600160a01b0382351691908101906040810160208201356401000000008111156105b657600080fd5b8201836020820111156105c857600080fd5b803590602001918460018302840111640100000000831117156105ea57600080fd5b91908080601f016020809104026020016040519081016040528093929190818152602001838380828437600092019190915250929550611154945050505050565b34801561063757600080fd5b5060fc5460ff16610259565b34801561064f57600080fd5b5061013154610381906001600160a01b031681565b34801561067057600080fd5b506102db6004803603604081101561068757600080fd5b506001600160a01b038135811691602001351661120a565b3480156106ab57600080fd5b506102db600480360360408110156106c257600080fd5b506001600160a01b03813581169160200135166112b2565b3480156106e657600080fd5b506102db600480360360408110156106fd57600080fd5b506001600160a01b03813516906020013561130a565b34801561071f57600080fd5b506102db6004803603602081101561073657600080fd5b50356001600160a01b031661135b565b34801561075257600080fd5b506102db6004803603602081101561076957600080fd5b50356001600160a01b0316611460565b34801561078557600080fd5b506102db61156d565b34801561079a57600080fd5b506102db600480360360208110156107b157600080fd5b50356001600160a01b0316611621565b3480156107cd57600080fd5b506102db61167d565b3480156107e257600080fd5b506102db600480360360208110156107f957600080fd5b50356001600160a01b03166116b4565b34801561081557600080fd5b506103106004803603602081101561082c57600080fd5b50610132602052356001600160a01b03166000908152604090205481565b34801561085657600080fd5b506102596004803603604081101561086d57600080fd5b50803590602001356001600160a01b031661170b565b34801561088f57600080fd5b5061013054610381906001600160a01b031681565b3480156108b057600080fd5b50610310600081565b3480156108c557600080fd5b506102db600480360360408110156108dc57600080fd5b506001600160a01b038135169060200135611736565b3480156108fe57600080fd5b50610310600080516020612f2983398151915281565b34801561092057600080fd5b506102db6004803603604081101561093757600080fd5b50803590602001356001600160a01b0316611787565b34801561095957600080fd5b506102db6004803603606081101561097057600080fd5b506001600160a01b038135811691602081013590911690604001356117ad565b34801561099c57600080fd5b506102db600480360360408110156109b357600080fd5b506001600160a01b038135811691602001351661194c565b3480156109d757600080fd5b50610310600480360360208110156109ee57600080fd5b50356001600160a01b03166119af565b348015610a0a57600080fd5b506102db60048036036020811015610a2157600080fd5b50356001600160a01b0316611b52565b348015610a3d57600080fd5b506102db60048036036020811015610a5457600080fd5b50356001600160a01b0316611d73565b60006001600160e01b03198216637965db0b60e01b1480610a9557506301ffc9a760e01b6001600160e01b03198316145b92915050565b6000610a9582611f3e565b610130546001600160a01b03163314610af4576040805162461bcd60e51b815260206004820152601b6024820152600080516020612f09833981519152604482015290519081900360640190fd5b81610afe81611f3e565b610b45576040805162461bcd60e51b8152602060048201526013602482015272151bdad95b881b9bdd081cdd5c1c1bdc9d1959606a1b604482015290519081900360640190fd5b6001600160a01b03808416600090815261012f60209081526040808320548151633af9e66960e01b815230600482015291518895919091169384939092849263852a12e3928492633af9e669926024808301939282900301818987803b158015610bae57600080fd5b505af1158015610bc2573d6000803e3d6000fd5b505050506040513d6020811015610bd857600080fd5b5051604080516001600160e01b031960e085901b16815260048101929092525160248083019260209291908290030181600087803b158015610c1957600080fd5b505af1158015610c2d573d6000803e3d6000fd5b505050506040513d6020811015610c4357600080fd5b505190508015610c97576040805162461bcd60e51b815260206004820152601a60248201527922b93937b9103932b232b2b6b4b733903a34329031aa37b5b2b760311b604482015290519081900360640190fd5b610d2586856001600160a01b03166370a08231306040518263ffffffff1660e01b815260040180826001600160a01b0316815260200191505060206040518083038186803b158015610ce857600080fd5b505afa158015610cfc573d6000803e3d6000fd5b505050506040513d6020811015610d1257600080fd5b50516001600160a01b0387169190611f5f565b50505050505050565b6001600160a01b03808216600090815261012f602090815260408083205481516370a0823160e01b81523060048201529151939416928392600a9284926370a0823192602480840193919291829003018186803b158015610d8e57600080fd5b505afa158015610da2573d6000803e3d6000fd5b505050506040513d6020811015610db857600080fd5b505111610dc9575060009392505050565b60408051633af9e66960e01b815230600482015290516001600160a01b03831691633af9e6699160248083019260209291908290030181600087803b158015610e1157600080fd5b505af1158015610e25573d6000803e3d6000fd5b505050506040513d6020811015610e3b57600080fd5b5051949350505050565b6000610a95600080516020612f298339815191528361170b565b600082815260c96020526040902060010154610e7b8133611fc2565b610e858383612026565b505050565b6001600160a01b0381163314610eff5760405162461bcd60e51b815260206004820152602f60248201527f416363657373436f6e74726f6c3a2063616e206f6e6c792072656e6f756e636560448201526e103937b632b9903337b91039b2b63360891b60648201526084015b60405180910390fd5b610f0982826120ac565b5050565b306001600160a01b037f0000000000000000000000000000000000000000000000000000000000000000161415610f565760405162461bcd60e51b8152600401610ef690612cbf565b7f00000000000000000000000000000000000000000000000000000000000000006001600160a01b0316610f88612113565b6001600160a01b031614610fae5760405162461bcd60e51b8152600401610ef690612d0b565b610fb781612141565b60408051600080825260208201909252610fd391839190612175565b50565b6001600160a01b03808216600090815261012f60209081526040808320548151630ae9d70b60e41b81529151939416928392839263ae9d70b09260048083019392829003018186803b15801561102b57600080fd5b505afa158015610e25573d6000803e3d6000fd5b60fc5461010090046001600160a01b0316331461106e5760405162461bcd60e51b8152600401610ef690612d86565b60fc5460ff166110b95760405162461bcd60e51b815260206004820152601660248201527510dbdb9d1c9bdb1b195c8e881b9bdd081c185d5cd95960521b6044820152606401610ef6565b60fc805460ff191690556040517f5db9ee0a495bf2e6ff9c91a7834c1ba4fdd244a5e8aa4e537bd38aeae4b073aa906110f3903390612c78565b60405180910390a1565b611115600080516020612f298339815191523361170b565b6111315760405162461bcd60e51b8152600401610ef690612d57565b61013080546001600160a01b0319166001600160a01b0392909216919091179055565b306001600160a01b037f000000000000000000000000000000000000000000000000000000000000000016141561119d5760405162461bcd60e51b8152600401610ef690612cbf565b7f00000000000000000000000000000000000000000000000000000000000000006001600160a01b03166111cf612113565b6001600160a01b0316146111f55760405162461bcd60e51b8152600401610ef690612d0b565b6111fe82612141565b610f0982826001612175565b600054610100900460ff1680611223575060005460ff16155b61123f5760405162461bcd60e51b8152600401610ef690612e0a565b600054610100900460ff16158015611261576000805461ffff19166101011790555b61126a3361135b565b61013080546001600160a01b038086166001600160a01b0319928316179092556101318054928516929091169190911790558015610e85576000805461ff0019169055505050565b610130546001600160a01b03163314611300576040805162461bcd60e51b815260206004820152601b6024820152600080516020612f09833981519152604482015290519081900360640190fd5b610f0982826122b5565b611322600080516020612f298339815191523361170b565b61133e5760405162461bcd60e51b8152600401610ef690612d57565b6001600160a01b0390911660009081526101336020526040902055565b600054610100900460ff1680611374575060005460ff16155b6113905760405162461bcd60e51b8152600401610ef690612e0a565b600054610100900460ff161580156113b2576000805461ffff19166101011790555b6001600160a01b0382166113d85760405162461bcd60e51b8152600401610ef690612dd8565b60fc805460ff191690556001600160a01b038216600081815260fb6020526040902080546001600160a01b031916909117905561141361239f565b61142b600080516020612f298339815191528361241a565b60fc8054610100600160a81b0319166101006001600160a01b038516021790558015610f09576000805461ff00191690555050565b611478600080516020612f298339815191523361170b565b6114945760405162461bcd60e51b8152600401610ef690612d57565b6001600160a01b0381166114ba5760405162461bcd60e51b8152600401610ef690612dd8565b6001600160a01b03818116600090815260fb6020526040902054161561152c5760405162461bcd60e51b815260206004820152602160248201527f436f6e74726f6c6c65723a2061646d696e20616c7265616479206578697374656044820152601960fa1b6064820152608401610ef6565b6001600160a01b038116600081815260fb6020526040902080546001600160a01b0319169091179055610fd3600080516020612f298339815191528261241a565b60fc5461010090046001600160a01b0316331461159c5760405162461bcd60e51b8152600401610ef690612d86565b60fc5460ff16156115e45760405162461bcd60e51b815260206004820152601260248201527110dbdb9d1c9bdb1b195c8e881c185d5cd95960721b6044820152606401610ef6565b60fc805460ff191660011790556040517f62e78cea01bee320cd4e420270b5ea74000d11b0c9f74754ebdbfc544b05a258906110f3903390612c78565b611639600080516020612f298339815191523361170b565b6116555760405162461bcd60e51b8152600401610ef690612d57565b60fc80546001600160a01b0390921661010002610100600160a81b0319909216919091179055565b611695600080516020612f2983398151915233610e8a565b33600090815260fb6020526040902080546001600160a01b0319169055565b6116cc600080516020612f298339815191523361170b565b6116e85760405162461bcd60e51b8152600401610ef690612d57565b61013180546001600160a01b0319166001600160a01b0392909216919091179055565b600091825260c9602090815260408084206001600160a01b0393909316845291905290205460ff1690565b61174e600080516020612f298339815191523361170b565b61176a5760405162461bcd60e51b8152600401610ef690612d57565b6001600160a01b0390911660009081526101326020526040902055565b600082815260c960205260409020600101546117a38133611fc2565b610e8583836120ac565b610130546001600160a01b031633146117fb576040805162461bcd60e51b815260206004820152601b6024820152600080516020612f09833981519152604482015290519081900360640190fd5b8261180581611f3e565b61184c576040805162461bcd60e51b8152602060048201526013602482015272151bdad95b881b9bdd081cdd5c1c1bdc9d1959606a1b604482015290519081900360640190fd5b6001600160a01b03808516600090815261012f6020908152604080832054815163852a12e360e01b81526004810188905291518995919091169384939092849263852a12e39260248084019391929182900301818787803b1580156118b057600080fd5b505af11580156118c4573d6000803e3d6000fd5b505050506040513d60208110156118da57600080fd5b50519050801561192e576040805162461bcd60e51b815260206004820152601a60248201527922b93937b9103932b232b2b6b4b733903a34329031aa37b5b2b760311b604482015290519081900360640190fd5b6119426001600160a01b0385168888611f5f565b5050505050505050565b611964600080516020612f298339815191523361170b565b6119805760405162461bcd60e51b8152600401610ef690612d57565b6001600160a01b03918216600090815261012f6020526040902080546001600160a01b03191691909216179055565b6001600160a01b03808216600090815261012f602090815260408083205481516370a0823160e01b81523060048201529151939416928392600a9284926370a0823192602480840193919291829003018186803b158015611a0f57600080fd5b505afa158015611a23573d6000803e3d6000fd5b505050506040513d6020811015611a3957600080fd5b505111611a4a575060009392505050565b6000816001600160a01b031663182df0f56040518163ffffffff1660e01b815260040160206040518083038186803b158015611a8557600080fd5b505afa158015611a99573d6000803e3d6000fd5b505050506040513d6020811015611aaf57600080fd5b5051604080516370a0823160e01b815230600482015290519192506000916001600160a01b038516916370a08231916024808301926020929190829003018186803b158015611afd57600080fd5b505afa158015611b11573d6000803e3d6000fd5b505050506040513d6020811015611b2757600080fd5b50519050670de0b6b3a7640000611b3e8383612e90565b611b489190612e70565b9695505050505050565b611b6a600080516020612f298339815191523361170b565b611b865760405162461bcd60e51b8152600401610ef690612d57565b6101315460408051634e8dad0560e11b815290516000926001600160a01b031691639d1b5a0a916004808301926020929190829003018186803b158015611bcc57600080fd5b505afa158015611be0573d6000803e3d6000fd5b505050506040513d6020811015611bf657600080fd5b50516001600160a01b03838116600090815261012f602052604080822054815160018082528184019093529495509092169283928160200160208202803683370190505090508181600081518110611c5e57634e487b7160e01b600052603260045260246000fd5b6001600160a01b03928316602091820292909201810191909152610131546040805162e1ed9760e51b81523060048201818152602483019384528751604484015287519490961695631c3db2e0959194889491939192606490920191858101910280838360005b83811015611cdd578181015183820152602001611cc5565b505050509050019350505050600060405180830381600087803b158015611d0357600080fd5b505af1158015611d17573d6000803e3d6000fd5b50505050611d6c33856001600160a01b03166370a08231306040518263ffffffff1660e01b815260040180826001600160a01b0316815260200191505060206040518083038186803b158015610ce857600080fd5b5050505050565b80611d7d81611f3e565b611dc4576040805162461bcd60e51b8152602060048201526013602482015272151bdad95b881b9bdd081cdd5c1c1bdc9d1959606a1b604482015290519081900360640190fd5b6001600160a01b03808316600081815261012f602090815260408083205481516370a0823160e01b815230600482015291518896919091169485949390926370a082319260248083019392829003018186803b158015611e2357600080fd5b505afa158015611e37573d6000803e3d6000fd5b505050506040513d6020811015611e4d57600080fd5b50519050611e666001600160a01b038516846000612424565b611e7a6001600160a01b0385168483612424565b6000826001600160a01b031663a0712d68836040518263ffffffff1660e01b815260040180828152602001915050602060405180830381600087803b158015611ec257600080fd5b505af1158015611ed6573d6000803e3d6000fd5b505050506040513d6020811015611eec57600080fd5b505190508015610d25576040805162461bcd60e51b815260206004820152601860248201527722b93937b91036b4b73a34b733903a34329031aa37b5b2b760411b604482015290519081900360640190fd5b6001600160a01b03908116600090815261012f602052604090205416151590565b6040516001600160a01b038316602482015260448101829052610e8590849063a9059cbb60e01b906064015b60408051601f198184030181529190526020810180516001600160e01b03166001600160e01b031990931692909217909152612548565b611fcc828261170b565b610f0957611fe4816001600160a01b0316601461261a565b611fef83602061261a565b604051602001612000929190612c09565b60408051601f198184030181529082905262461bcd60e51b8252610ef691600401612c8c565b612030828261170b565b610f0957600082815260c9602090815260408083206001600160a01b03851684529091529020805460ff191660011790556120683390565b6001600160a01b0316816001600160a01b0316837f2f8788117e7eff1d82e926ec794901d17c78024a50270940304540a733656f0d60405160405180910390a45050565b6120b6828261170b565b15610f0957600082815260c9602090815260408083206001600160a01b0385168085529252808320805460ff1916905551339285917ff6391f5c32d9c69d2a47ea670b442974b53935d1edc7fd64eb21e047a839171b9190a45050565b7f360894a13ba1a3210667c828492db98dca3e2076cc3735a920a3ca505d382bbc546001600160a01b031690565b612159600080516020612f298339815191523361170b565b610fd35760405162461bcd60e51b8152600401610ef690612d57565b600061217f612113565b905061218a84612803565b6000835111806121975750815b156121a8576121a684846128a8565b505b7f4910fdfa16fed3260ed0e7147f7cc6da11a60208b5b9406d12a635614ffd9143805460ff16611d6c57805460ff191660011781556040516122239086906121f4908590602401612c78565b60408051601f198184030181529190526020810180516001600160e01b0316631b2ce7f360e11b1790526128a8565b50805460ff19168155612234612113565b6001600160a01b0316826001600160a01b0316146122ac5760405162461bcd60e51b815260206004820152602f60248201527f45524331393637557067726164653a207570677261646520627265616b73206660448201526e75727468657220757067726164657360881b6064820152608401610ef6565b611d6c85612993565b6001600160a01b03811661230c576040805162461bcd60e51b8152602060048201526019602482015278526563697069656e742063616e206e6f74206265207a65726f60381b604482015290519081900360640190fd5b604080516370a0823160e01b8152306004820152905183916000916001600160a01b038416916370a08231916024808301926020929190829003018186803b15801561235757600080fd5b505afa15801561236b573d6000803e3d6000fd5b505050506040513d602081101561238157600080fd5b505190506123996001600160a01b0383168483611f5f565b50505050565b600054610100900460ff16806123b8575060005460ff16155b6123d45760405162461bcd60e51b8152600401610ef690612e0a565b600054610100900460ff161580156123f6576000805461ffff19166101011790555b6123fe6129d3565b6124066129d3565b8015610fd3576000805461ff001916905550565b610f098282612026565b8015806124ad5750604051636eb1769f60e11b81523060048201526001600160a01b03838116602483015284169063dd62ed3e9060440160206040518083038186803b15801561247357600080fd5b505afa158015612487573d6000803e3d6000fd5b505050506040513d601f19601f820116820180604052508101906124ab9190612bd5565b155b6125185760405162461bcd60e51b815260206004820152603660248201527f5361666545524332303a20617070726f76652066726f6d206e6f6e2d7a65726f60448201527520746f206e6f6e2d7a65726f20616c6c6f77616e636560501b6064820152608401610ef6565b6040516001600160a01b038316602482015260448101829052610e8590849063095ea7b360e01b90606401611f8b565b600061259d826040518060400160405280602081526020017f5361666545524332303a206c6f772d6c6576656c2063616c6c206661696c6564815250856001600160a01b0316612a3d9092919063ffffffff16565b805190915015610e8557808060200190518101906125bb9190612bb5565b610e855760405162461bcd60e51b815260206004820152602a60248201527f5361666545524332303a204552433230206f7065726174696f6e20646964206e6044820152691bdd081cdd58d8d9595960b21b6064820152608401610ef6565b60606000612629836002612e90565b612634906002612e58565b67ffffffffffffffff81111561265a57634e487b7160e01b600052604160045260246000fd5b6040519080825280601f01601f191660200182016040528015612684576020820181803683370190505b509050600360fc1b816000815181106126ad57634e487b7160e01b600052603260045260246000fd5b60200101906001600160f81b031916908160001a905350600f60fb1b816001815181106126ea57634e487b7160e01b600052603260045260246000fd5b60200101906001600160f81b031916908160001a905350600061270e846002612e90565b612719906001612e58565b90505b60018111156127ad576f181899199a1a9b1b9c1cb0b131b232b360811b85600f166010811061275b57634e487b7160e01b600052603260045260246000fd5b1a60f81b82828151811061277f57634e487b7160e01b600052603260045260246000fd5b60200101906001600160f81b031916908160001a90535060049490941c936127a681612edb565b905061271c565b5083156127fc5760405162461bcd60e51b815260206004820181905260248201527f537472696e67733a20686578206c656e67746820696e73756666696369656e746044820152606401610ef6565b9392505050565b803b6128675760405162461bcd60e51b815260206004820152602d60248201527f455243313936373a206e657720696d706c656d656e746174696f6e206973206e60448201526c1bdd08184818dbdb9d1c9858dd609a1b6064820152608401610ef6565b7f360894a13ba1a3210667c828492db98dca3e2076cc3735a920a3ca505d382bbc80546001600160a01b0319166001600160a01b0392909216919091179055565b6060823b6129075760405162461bcd60e51b815260206004820152602660248201527f416464726573733a2064656c65676174652063616c6c20746f206e6f6e2d636f6044820152651b9d1c9858dd60d21b6064820152608401610ef6565b600080846001600160a01b0316846040516129229190612bed565b600060405180830381855af49150503d806000811461295d576040519150601f19603f3d011682016040523d82523d6000602084013e612962565b606091505b509150915061298a8282604051806060016040528060278152602001612f4960279139612a54565b95945050505050565b61299c81612803565b6040516001600160a01b038216907fbc7cd75a20ee27fd9adebab32041f755214dbc6bffa90cc0225b39da2e5c2d3b90600090a250565b600054610100900460ff16806129ec575060005460ff16155b612a085760405162461bcd60e51b8152600401610ef690612e0a565b600054610100900460ff16158015612406576000805461ffff19166101011790558015610fd3576000805461ff001916905550565b6060612a4c8484600085612a8d565b949350505050565b60608315612a635750816127fc565b825115612a735782518084602001fd5b8160405162461bcd60e51b8152600401610ef69190612c8c565b606082471015612aee5760405162461bcd60e51b815260206004820152602660248201527f416464726573733a20696e73756666696369656e742062616c616e636520666f6044820152651c8818d85b1b60d21b6064820152608401610ef6565b843b612b3c5760405162461bcd60e51b815260206004820152601d60248201527f416464726573733a2063616c6c20746f206e6f6e2d636f6e74726163740000006044820152606401610ef6565b600080866001600160a01b03168587604051612b589190612bed565b60006040518083038185875af1925050503d8060008114612b95576040519150601f19603f3d011682016040523d82523d6000602084013e612b9a565b606091505b5091509150612baa828286612a54565b979650505050505050565b600060208284031215612bc6578081fd5b815180151581146127fc578182fd5b600060208284031215612be6578081fd5b5051919050565b60008251612bff818460208701612eaf565b9190910192915050565b76020b1b1b2b9b9a1b7b73a3937b61d1030b1b1b7bab73a1604d1b815260008351612c3b816017850160208801612eaf565b7001034b99036b4b9b9b4b733903937b6329607d1b6017918401918201528351612c6c816028840160208801612eaf565b01602801949350505050565b6001600160a01b0391909116815260200190565b6020815260008251806020840152612cab816040850160208701612eaf565b601f01601f19169190910160400192915050565b6020808252602c908201527f46756e6374696f6e206d7573742062652063616c6c6564207468726f7567682060408201526b19195b1959d85d1958d85b1b60a21b606082015260800190565b6020808252602c908201527f46756e6374696f6e206d7573742062652063616c6c6564207468726f7567682060408201526b6163746976652070726f787960a01b606082015260800190565b60208082526015908201527421b7b73a3937b63632b91d103737ba1030b236b4b760591b604082015260600190565b60208082526032908201527f436f6e74726f6c6c65723a2063616c6c657220646f6573206e6f7420686176656040820152712074686520677561726469616e20726f6c6560701b606082015260800190565b602080825260189082015277436f6e74726f6c6c65723a2061646472657373207a65726f60401b604082015260600190565b6020808252602e908201527f496e697469616c697a61626c653a20636f6e747261637420697320616c72656160408201526d191e481a5b9a5d1a585b1a5e995960921b606082015260800190565b60008219821115612e6b57612e6b612ef2565b500190565b600082612e8b57634e487b7160e01b81526012600452602481fd5b500490565b6000816000190483118215151615612eaa57612eaa612ef2565b500290565b60005b83811015612eca578181015183820152602001612eb2565b838111156123995750506000910152565b600081612eea57612eea612ef2565b506000190190565b634e487b7160e01b600052601160045260246000fdfe4f6e6c79206173736574206d616e616765722063616e2063616c6c00000000002172861495e7b85edac73e3cd5fbb42dd675baadf627720e687bcfdaca025096416464726573733a206c6f772d6c6576656c2064656c65676174652063616c6c206661696c6564a26469706673582212201f537ad2ab94b26f905002fbf609bd77cc6f2b2ac5167be740ff66e7b8d63dfe64736f6c63430008040033",
  "devdoc": {
    "details": "The implementation of Compound.Finance MoneyMarket that integrates with AssetManager.",
    "kind": "dev",
    "methods": {
      "addAdmin(address)": {
        "details": "Add a new admin account",
        "params": {
          "account": "Account address"
        }
      },
      "deposit(address)": {
        "details": "Deposits the given amount of tokens in the underlying money market."
      },
      "getRate(address)": {
        "details": "Returns the interest rate per block for the given token."
      },
      "getRoleAdmin(bytes32)": {
        "details": "Returns the admin role that controls `role`. See {grantRole} and {revokeRole}. To change a role's admin, use {_setRoleAdmin}."
      },
      "getSupply(address)": {
        "details": "Returns the supply for the given token, including accrued interest. This function can have side effects."
      },
      "getSupplyView(address)": {
        "details": "Returns the supply for the given token; it might not include accrued interest. This function *cannot* have side effects."
      },
      "grantRole(bytes32,address)": {
        "details": "Grants `role` to `account`. If `account` had not been already granted `role`, emits a {RoleGranted} event. Requirements: - the caller must have ``role``'s admin role."
      },
      "hasRole(bytes32,address)": {
        "details": "Returns `true` if `account` has been granted `role`."
      },
      "isAdmin(address)": {
        "details": "Check if the address provided is the admin",
        "params": {
          "account": "Account address"
        }
      },
      "pause()": {
        "details": "Called by a pauser to pause, triggers stopped state."
      },
      "paused()": {
        "details": "Returns true if the contract is paused, and false otherwise."
      },
      "renounceAdmin()": {
        "details": "Renouce the admin from the sender's address"
      },
      "renounceRole(bytes32,address)": {
        "details": "Revokes `role` from the calling account. Roles are often managed via {grantRole} and {revokeRole}: this function's purpose is to provide a mechanism for accounts to lose their privileges if they are compromised (such as when a trusted device is misplaced). If the calling account had been revoked `role`, emits a {RoleRevoked} event. Requirements: - the caller must be `account`."
      },
      "revokeRole(bytes32,address)": {
        "details": "Revokes `role` from `account`. If `account` had been granted `role`, emits a {RoleRevoked} event. Requirements: - the caller must have ``role``'s admin role."
      },
      "setGuardian(address)": {
        "details": "Set pauseGuardian account",
        "params": {
          "account": "Account address"
        }
      },
      "supportsInterface(bytes4)": {
        "details": "See {IERC165-supportsInterface}."
      },
      "supportsToken(address)": {
        "details": "Indicates if the adapter supports the token with the given address."
      },
      "unpause()": {
        "details": "Called by a pauser to unpause, returns to normal state."
      },
      "upgradeTo(address)": {
        "details": "Upgrade the implementation of the proxy to `newImplementation`. Calls {_authorizeUpgrade}. Emits an {Upgraded} event."
      },
      "upgradeToAndCall(address,bytes)": {
        "details": "Upgrade the implementation of the proxy to `newImplementation`, and subsequently execute the function call encoded in `data`. Calls {_authorizeUpgrade}. Emits an {Upgraded} event."
      },
      "withdrawAll(address,address)": {
        "details": "Withdraws all the tokens from the underlying money market and transfers them to `recipient`."
      }
    },
    "stateVariables": {
      "ceilingMap": {
        "details": "The maximum amount that should be deposited in money market",
        "params": {
          "tokenAddress": "The address of token whose ceiling is being fetched"
        }
      },
      "floorMap": {
        "details": "The minimum amount that should be deposited in money market before moving to next priority market",
        "params": {
          "tokenAddress": "The address of token whose floor is being fetched"
        }
      }
    },
    "title": "CompoundAdapter",
    "version": 1
  },
  "userdoc": {
    "kind": "user",
    "methods": {},
    "version": 1
  },
  "storageLayout": {
    "storage": [
      {
        "astId": 823,
        "contract": "contracts/asset/CompoundAdapter.sol:CompoundAdapter",
        "label": "_initialized",
        "offset": 0,
        "slot": "0",
        "type": "t_bool"
      },
      {
        "astId": 826,
        "contract": "contracts/asset/CompoundAdapter.sol:CompoundAdapter",
        "label": "_initializing",
        "offset": 1,
        "slot": "0",
        "type": "t_bool"
      },
      {
        "astId": 806,
        "contract": "contracts/asset/CompoundAdapter.sol:CompoundAdapter",
        "label": "__gap",
        "offset": 0,
        "slot": "1",
        "type": "t_array(t_uint256)50_storage"
      },
      {
        "astId": 973,
        "contract": "contracts/asset/CompoundAdapter.sol:CompoundAdapter",
        "label": "__gap",
        "offset": 0,
        "slot": "51",
        "type": "t_array(t_uint256)50_storage"
      },
      {
        "astId": 2453,
        "contract": "contracts/asset/CompoundAdapter.sol:CompoundAdapter",
        "label": "__gap",
        "offset": 0,
        "slot": "101",
        "type": "t_array(t_uint256)50_storage"
      },
      {
        "astId": 3375,
        "contract": "contracts/asset/CompoundAdapter.sol:CompoundAdapter",
        "label": "__gap",
        "offset": 0,
        "slot": "151",
        "type": "t_array(t_uint256)50_storage"
      },
      {
        "astId": 48,
        "contract": "contracts/asset/CompoundAdapter.sol:CompoundAdapter",
        "label": "_roles",
        "offset": 0,
        "slot": "201",
        "type": "t_mapping(t_bytes32,t_struct(RoleData)43_storage)"
      },
      {
        "astId": 335,
        "contract": "contracts/asset/CompoundAdapter.sol:CompoundAdapter",
        "label": "__gap",
        "offset": 0,
        "slot": "202",
        "type": "t_array(t_uint256)49_storage"
      },
      {
        "astId": 12125,
        "contract": "contracts/asset/CompoundAdapter.sol:CompoundAdapter",
        "label": "_admins",
        "offset": 0,
        "slot": "251",
        "type": "t_mapping(t_address,t_address)"
      },
      {
        "astId": 12127,
        "contract": "contracts/asset/CompoundAdapter.sol:CompoundAdapter",
        "label": "_paused",
        "offset": 0,
        "slot": "252",
        "type": "t_bool"
      },
      {
        "astId": 12129,
        "contract": "contracts/asset/CompoundAdapter.sol:CompoundAdapter",
        "label": "pauseGuardian",
        "offset": 1,
        "slot": "252",
        "type": "t_address"
      },
      {
        "astId": 12369,
        "contract": "contracts/asset/CompoundAdapter.sol:CompoundAdapter",
        "label": "______gap",
        "offset": 0,
        "slot": "253",
        "type": "t_array(t_uint256)50_storage"
      },
      {
        "astId": 14840,
        "contract": "contracts/asset/CompoundAdapter.sol:CompoundAdapter",
        "label": "tokenToCToken",
        "offset": 0,
        "slot": "303",
        "type": "t_mapping(t_address,t_address)"
      },
      {
        "astId": 14842,
        "contract": "contracts/asset/CompoundAdapter.sol:CompoundAdapter",
        "label": "assetManager",
        "offset": 0,
        "slot": "304",
        "type": "t_address"
      },
      {
        "astId": 14845,
        "contract": "contracts/asset/CompoundAdapter.sol:CompoundAdapter",
        "label": "comptroller",
        "offset": 0,
        "slot": "305",
        "type": "t_contract(CComptroller)14827"
      },
      {
        "astId": 14850,
        "contract": "contracts/asset/CompoundAdapter.sol:CompoundAdapter",
        "label": "floorMap",
        "offset": 0,
        "slot": "306",
        "type": "t_mapping(t_address,t_uint256)"
      },
      {
        "astId": 14855,
        "contract": "contracts/asset/CompoundAdapter.sol:CompoundAdapter",
        "label": "ceilingMap",
        "offset": 0,
        "slot": "307",
        "type": "t_mapping(t_address,t_uint256)"
      }
    ],
    "types": {
      "t_address": {
        "encoding": "inplace",
        "label": "address",
        "numberOfBytes": "20"
      },
      "t_array(t_uint256)49_storage": {
        "base": "t_uint256",
        "encoding": "inplace",
        "label": "uint256[49]",
        "numberOfBytes": "1568"
      },
      "t_array(t_uint256)50_storage": {
        "base": "t_uint256",
        "encoding": "inplace",
        "label": "uint256[50]",
        "numberOfBytes": "1600"
      },
      "t_bool": {
        "encoding": "inplace",
        "label": "bool",
        "numberOfBytes": "1"
      },
      "t_bytes32": {
        "encoding": "inplace",
        "label": "bytes32",
        "numberOfBytes": "32"
      },
      "t_contract(CComptroller)14827": {
        "encoding": "inplace",
        "label": "contract CComptroller",
        "numberOfBytes": "20"
      },
      "t_mapping(t_address,t_address)": {
        "encoding": "mapping",
        "key": "t_address",
        "label": "mapping(address => address)",
        "numberOfBytes": "32",
        "value": "t_address"
      },
      "t_mapping(t_address,t_bool)": {
        "encoding": "mapping",
        "key": "t_address",
        "label": "mapping(address => bool)",
        "numberOfBytes": "32",
        "value": "t_bool"
      },
      "t_mapping(t_address,t_uint256)": {
        "encoding": "mapping",
        "key": "t_address",
        "label": "mapping(address => uint256)",
        "numberOfBytes": "32",
        "value": "t_uint256"
      },
      "t_mapping(t_bytes32,t_struct(RoleData)43_storage)": {
        "encoding": "mapping",
        "key": "t_bytes32",
        "label": "mapping(bytes32 => struct AccessControlUpgradeable.RoleData)",
        "numberOfBytes": "32",
        "value": "t_struct(RoleData)43_storage"
      },
      "t_struct(RoleData)43_storage": {
        "encoding": "inplace",
        "label": "struct AccessControlUpgradeable.RoleData",
        "members": [
          {
            "astId": 40,
            "contract": "contracts/asset/CompoundAdapter.sol:CompoundAdapter",
            "label": "members",
            "offset": 0,
            "slot": "0",
            "type": "t_mapping(t_address,t_bool)"
          },
          {
            "astId": 42,
            "contract": "contracts/asset/CompoundAdapter.sol:CompoundAdapter",
            "label": "adminRole",
            "offset": 0,
            "slot": "1",
            "type": "t_bytes32"
          }
        ],
        "numberOfBytes": "64"
      },
      "t_uint256": {
        "encoding": "inplace",
        "label": "uint256",
        "numberOfBytes": "32"
      }
    }
  }
}