{
  "address": "0xa24996eFdD9E9dB33936D72Ce82bb0232493Aa23",
  "abi": [
    {
      "anonymous": false,
      "inputs": [
        {
          "indexed": false,
          "internalType": "address",
          "name": "previousAdmin",
          "type": "address"
        },
        {
          "indexed": false,
          "internalType": "address",
          "name": "newAdmin",
          "type": "address"
        }
      ],
      "name": "AdminChanged",
      "type": "event"
    },
    {
      "anonymous": false,
      "inputs": [
        {
          "indexed": true,
          "internalType": "address",
          "name": "beacon",
          "type": "address"
        }
      ],
      "name": "BeaconUpgraded",
      "type": "event"
    },
    {
      "anonymous": false,
      "inputs": [
        {
          "indexed": false,
          "internalType": "address",
          "name": "account",
          "type": "address"
        }
      ],
      "name": "Paused",
      "type": "event"
    },
    {
      "anonymous": false,
      "inputs": [
        {
          "indexed": true,
          "internalType": "bytes32",
          "name": "role",
          "type": "bytes32"
        },
        {
          "indexed": true,
          "internalType": "bytes32",
          "name": "previousAdminRole",
          "type": "bytes32"
        },
        {
          "indexed": true,
          "internalType": "bytes32",
          "name": "newAdminRole",
          "type": "bytes32"
        }
      ],
      "name": "RoleAdminChanged",
      "type": "event"
    },
    {
      "anonymous": false,
      "inputs": [
        {
          "indexed": true,
          "internalType": "bytes32",
          "name": "role",
          "type": "bytes32"
        },
        {
          "indexed": true,
          "internalType": "address",
          "name": "account",
          "type": "address"
        },
        {
          "indexed": true,
          "internalType": "address",
          "name": "sender",
          "type": "address"
        }
      ],
      "name": "RoleGranted",
      "type": "event"
    },
    {
      "anonymous": false,
      "inputs": [
        {
          "indexed": true,
          "internalType": "bytes32",
          "name": "role",
          "type": "bytes32"
        },
        {
          "indexed": true,
          "internalType": "address",
          "name": "account",
          "type": "address"
        },
        {
          "indexed": true,
          "internalType": "address",
          "name": "sender",
          "type": "address"
        }
      ],
      "name": "RoleRevoked",
      "type": "event"
    },
    {
      "anonymous": false,
      "inputs": [
        {
          "indexed": false,
          "internalType": "address",
          "name": "account",
          "type": "address"
        }
      ],
      "name": "Unpaused",
      "type": "event"
    },
    {
      "anonymous": false,
      "inputs": [
        {
          "indexed": true,
          "internalType": "address",
          "name": "implementation",
          "type": "address"
        }
      ],
      "name": "Upgraded",
      "type": "event"
    },
    {
      "inputs": [],
      "name": "DEFAULT_ADMIN_ROLE",
      "outputs": [
        {
          "internalType": "bytes32",
          "name": "",
          "type": "bytes32"
        }
      ],
      "stateMutability": "view",
      "type": "function"
    },
    {
      "inputs": [],
      "name": "ROLE_ADMIN",
      "outputs": [
        {
          "internalType": "bytes32",
          "name": "",
          "type": "bytes32"
        }
      ],
      "stateMutability": "view",
      "type": "function"
    },
    {
      "inputs": [
        {
          "internalType": "address",
          "name": "_assetManager",
          "type": "address"
        }
      ],
      "name": "__CompoundAdapter_init",
      "outputs": [],
      "stateMutability": "nonpayable",
      "type": "function"
    },
    {
      "inputs": [
        {
          "internalType": "address",
          "name": "admin_",
          "type": "address"
        }
      ],
      "name": "__Controller_init",
      "outputs": [],
      "stateMutability": "nonpayable",
      "type": "function"
    },
    {
      "inputs": [
        {
          "internalType": "address",
          "name": "account",
          "type": "address"
        }
      ],
      "name": "addAdmin",
      "outputs": [],
      "stateMutability": "nonpayable",
      "type": "function"
    },
    {
      "inputs": [],
      "name": "assetManager",
      "outputs": [
        {
          "internalType": "address",
          "name": "",
          "type": "address"
        }
      ],
      "stateMutability": "view",
      "type": "function"
    },
    {
      "inputs": [
        {
          "internalType": "address",
          "name": "",
          "type": "address"
        }
      ],
      "name": "ceilingMap",
      "outputs": [
        {
          "internalType": "uint256",
          "name": "",
          "type": "uint256"
        }
      ],
      "stateMutability": "view",
      "type": "function"
    },
    {
      "inputs": [
        {
          "internalType": "address",
          "name": "tokenAddress",
          "type": "address"
        },
        {
          "internalType": "address",
          "name": "recipient",
          "type": "address"
        }
      ],
      "name": "claimTokens",
      "outputs": [],
      "stateMutability": "nonpayable",
      "type": "function"
    },
    {
      "inputs": [
        {
          "internalType": "address",
          "name": "tokenAddress",
          "type": "address"
        }
      ],
      "name": "deposit",
      "outputs": [],
      "stateMutability": "nonpayable",
      "type": "function"
    },
    {
      "inputs": [
        {
          "internalType": "address",
          "name": "",
          "type": "address"
        }
      ],
      "name": "floorMap",
      "outputs": [
        {
          "internalType": "uint256",
          "name": "",
          "type": "uint256"
        }
      ],
      "stateMutability": "view",
      "type": "function"
    },
    {
      "inputs": [
        {
          "internalType": "address",
          "name": "tokenAddress",
          "type": "address"
        }
      ],
      "name": "getRate",
      "outputs": [
        {
          "internalType": "uint256",
          "name": "",
          "type": "uint256"
        }
      ],
      "stateMutability": "view",
      "type": "function"
    },
    {
      "inputs": [
        {
          "internalType": "bytes32",
          "name": "role",
          "type": "bytes32"
        }
      ],
      "name": "getRoleAdmin",
      "outputs": [
        {
          "internalType": "bytes32",
          "name": "",
          "type": "bytes32"
        }
      ],
      "stateMutability": "view",
      "type": "function"
    },
    {
      "inputs": [
        {
          "internalType": "address",
          "name": "tokenAddress",
          "type": "address"
        }
      ],
      "name": "getSupply",
      "outputs": [
        {
          "internalType": "uint256",
          "name": "",
          "type": "uint256"
        }
      ],
      "stateMutability": "nonpayable",
      "type": "function"
    },
    {
      "inputs": [
        {
          "internalType": "address",
          "name": "tokenAddress",
          "type": "address"
        }
      ],
      "name": "getSupplyView",
      "outputs": [
        {
          "internalType": "uint256",
          "name": "",
          "type": "uint256"
        }
      ],
      "stateMutability": "view",
      "type": "function"
    },
    {
      "inputs": [
        {
          "internalType": "bytes32",
          "name": "role",
          "type": "bytes32"
        },
        {
          "internalType": "address",
          "name": "account",
          "type": "address"
        }
      ],
      "name": "grantRole",
      "outputs": [],
      "stateMutability": "nonpayable",
      "type": "function"
    },
    {
      "inputs": [
        {
          "internalType": "bytes32",
          "name": "role",
          "type": "bytes32"
        },
        {
          "internalType": "address",
          "name": "account",
          "type": "address"
        }
      ],
      "name": "hasRole",
      "outputs": [
        {
          "internalType": "bool",
          "name": "",
          "type": "bool"
        }
      ],
      "stateMutability": "view",
      "type": "function"
    },
    {
      "inputs": [
        {
          "internalType": "address",
          "name": "account",
          "type": "address"
        }
      ],
      "name": "isAdmin",
      "outputs": [
        {
          "internalType": "bool",
          "name": "",
          "type": "bool"
        }
      ],
      "stateMutability": "view",
      "type": "function"
    },
    {
      "inputs": [
        {
          "internalType": "address",
          "name": "tokenAddress",
          "type": "address"
        },
        {
          "internalType": "address",
          "name": "cTokenAddress",
          "type": "address"
        }
      ],
      "name": "mapTokenToCToken",
      "outputs": [],
      "stateMutability": "nonpayable",
      "type": "function"
    },
    {
      "inputs": [],
      "name": "pause",
      "outputs": [],
      "stateMutability": "nonpayable",
      "type": "function"
    },
    {
      "inputs": [],
      "name": "pauseGuardian",
      "outputs": [
        {
          "internalType": "address",
          "name": "",
          "type": "address"
        }
      ],
      "stateMutability": "view",
      "type": "function"
    },
    {
      "inputs": [],
      "name": "paused",
      "outputs": [
        {
          "internalType": "bool",
          "name": "",
          "type": "bool"
        }
      ],
      "stateMutability": "view",
      "type": "function"
    },
    {
      "inputs": [],
      "name": "renounceAdmin",
      "outputs": [],
      "stateMutability": "nonpayable",
      "type": "function"
    },
    {
      "inputs": [
        {
          "internalType": "bytes32",
          "name": "role",
          "type": "bytes32"
        },
        {
          "internalType": "address",
          "name": "account",
          "type": "address"
        }
      ],
      "name": "renounceRole",
      "outputs": [],
      "stateMutability": "nonpayable",
      "type": "function"
    },
    {
      "inputs": [
        {
          "internalType": "bytes32",
          "name": "role",
          "type": "bytes32"
        },
        {
          "internalType": "address",
          "name": "account",
          "type": "address"
        }
      ],
      "name": "revokeRole",
      "outputs": [],
      "stateMutability": "nonpayable",
      "type": "function"
    },
    {
      "inputs": [
        {
          "internalType": "address",
          "name": "_assetManager",
          "type": "address"
        }
      ],
      "name": "setAssetManager",
      "outputs": [],
      "stateMutability": "nonpayable",
      "type": "function"
    },
    {
      "inputs": [
        {
          "internalType": "address",
          "name": "tokenAddress",
          "type": "address"
        },
        {
          "internalType": "uint256",
          "name": "ceiling",
          "type": "uint256"
        }
      ],
      "name": "setCeiling",
      "outputs": [],
      "stateMutability": "nonpayable",
      "type": "function"
    },
    {
      "inputs": [
        {
          "internalType": "address",
          "name": "tokenAddress",
          "type": "address"
        },
        {
          "internalType": "uint256",
          "name": "floor",
          "type": "uint256"
        }
      ],
      "name": "setFloor",
      "outputs": [],
      "stateMutability": "nonpayable",
      "type": "function"
    },
    {
      "inputs": [
        {
          "internalType": "address",
          "name": "account",
          "type": "address"
        }
      ],
      "name": "setGuardian",
      "outputs": [],
      "stateMutability": "nonpayable",
      "type": "function"
    },
    {
      "inputs": [
        {
          "internalType": "bytes4",
          "name": "interfaceId",
          "type": "bytes4"
        }
      ],
      "name": "supportsInterface",
      "outputs": [
        {
          "internalType": "bool",
          "name": "",
          "type": "bool"
        }
      ],
      "stateMutability": "view",
      "type": "function"
    },
    {
      "inputs": [
        {
          "internalType": "address",
          "name": "tokenAddress",
          "type": "address"
        }
      ],
      "name": "supportsToken",
      "outputs": [
        {
          "internalType": "bool",
          "name": "",
          "type": "bool"
        }
      ],
      "stateMutability": "view",
      "type": "function"
    },
    {
      "inputs": [
        {
          "internalType": "address",
          "name": "",
          "type": "address"
        }
      ],
      "name": "tokenToCToken",
      "outputs": [
        {
          "internalType": "address",
          "name": "",
          "type": "address"
        }
      ],
      "stateMutability": "view",
      "type": "function"
    },
    {
      "inputs": [],
      "name": "unpause",
      "outputs": [],
      "stateMutability": "nonpayable",
      "type": "function"
    },
    {
      "inputs": [
        {
          "internalType": "address",
          "name": "newImplementation",
          "type": "address"
        }
      ],
      "name": "upgradeTo",
      "outputs": [],
      "stateMutability": "nonpayable",
      "type": "function"
    },
    {
      "inputs": [
        {
          "internalType": "address",
          "name": "newImplementation",
          "type": "address"
        },
        {
          "internalType": "bytes",
          "name": "data",
          "type": "bytes"
        }
      ],
      "name": "upgradeToAndCall",
      "outputs": [],
      "stateMutability": "payable",
      "type": "function"
    },
    {
      "inputs": [
        {
          "internalType": "address",
          "name": "tokenAddress",
          "type": "address"
        },
        {
          "internalType": "address",
          "name": "recipient",
          "type": "address"
        },
        {
          "internalType": "uint256",
          "name": "tokenAmount",
          "type": "uint256"
        }
      ],
      "name": "withdraw",
      "outputs": [],
      "stateMutability": "nonpayable",
      "type": "function"
    },
    {
      "inputs": [
        {
          "internalType": "address",
          "name": "tokenAddress",
          "type": "address"
        },
        {
          "internalType": "address",
          "name": "recipient",
          "type": "address"
        }
      ],
      "name": "withdrawAll",
      "outputs": [],
      "stateMutability": "nonpayable",
      "type": "function"
    }
  ],
  "transactionHash": "0x09bf404c1424ed0c304adae952fb692b07f0a4d1a9fca8c4ea440a84521bab7d",
  "args": [],
  "solcInputHash": "1bad13edcd3c88f2ca9238985c18d480",
  "bytecode": "0x608060405234801561001057600080fd5b50612a62806100206000396000f3fe6080604052600436106101cf5760003560e01c80636c00c7f0116100f8578063a217fddf11610090578063a217fddf146107c4578063b4fe49b0146107d9578063c99c7d931461080c578063d391014b14610845578063d547741f14610867578063d9caed12146108a0578063ec7b6fd8146108e3578063ed8a1e541461091e578063f340fa011461095157600080fd5b80636c00c7f01461062d5780636c461a731461066657806370480275146106995780638456cb59146106cc5780638a0dac4a146106e15780638bad0c0a14610714578063904d32611461072957806391d148541461076a57806394217ad1146107a357600080fd5b8063363f68ce1161016b578063363f68ce146103fc57806336568abe1461043d5780633659cfe61461047657806337cef791146104a95780633f4ba83a146104dc57806343060237146104f15780634f1ef286146105245780635c975abb146105da57806369ffa08a146105f257600080fd5b806301ffc9a7146101d4578063061f76501461021c57806309cae2c81461024f5780631fd433aa1461028c578063248a9ca3146102d157806324a3d6221461030b57806324d7806c1461034c57806325888f0b1461037f5780632f2ff15d146103c3575b600080fd5b3480156101e057600080fd5b50610208600480360360208110156101f757600080fd5b50356001600160e01b031916610984565b604080519115158252519081900360200190f35b34801561022857600080fd5b506102086004803603602081101561023f57600080fd5b50356001600160a01b03166109bb565b34801561025b57600080fd5b5061028a6004803603604081101561027257600080fd5b506001600160a01b03813581169160200135166109c6565b005b34801561029857600080fd5b506102bf600480360360208110156102af57600080fd5b50356001600160a01b0316610c4e565b60408051918252519081900360200190f35b3480156102dd57600080fd5b506102bf600480360360208110156102f457600080fd5b5035600090815260c9602052604090206001015490565b34801561031757600080fd5b5060fc546103309061010090046001600160a01b031681565b604080516001600160a01b039092168252519081900360200190f35b34801561035857600080fd5b506102086004803603602081101561036f57600080fd5b50356001600160a01b0316610d65565b34801561038b57600080fd5b50610330600480360360208110156103a257600080fd5b5061012f6020526001600160a01b0390358116600090815260409020541681565b3480156103cf57600080fd5b5061028a600480360360408110156103e657600080fd5b50803590602001356001600160a01b0316610d7f565b34801561040857600080fd5b506102bf6004803603602081101561041f57600080fd5b50610132602052356001600160a01b03166000908152604090205481565b34801561044957600080fd5b5061028a6004803603604081101561046057600080fd5b50803590602001356001600160a01b0316610daa565b34801561048257600080fd5b5061028a6004803603602081101561049957600080fd5b50356001600160a01b0316610e2d565b3480156104b557600080fd5b506102bf600480360360208110156104cc57600080fd5b50356001600160a01b0316610e54565b3480156104e857600080fd5b5061028a610ebd565b3480156104fd57600080fd5b5061028a6004803603602081101561051457600080fd5b50356001600160a01b0316610f7b565b61028a6004803603604081101561053a57600080fd5b6001600160a01b03823516919081019060408101602082013564010000000081111561056557600080fd5b82018360208201111561057757600080fd5b8035906020019184600183028401116401000000008311171561059957600080fd5b91908080601f016020809104026020016040519081016040528093929190818152602001838380828437600092019190915250929550610fd2945050505050565b3480156105e657600080fd5b5060fc5460ff16610208565b3480156105fe57600080fd5b5061028a6004803603604081101561061557600080fd5b506001600160a01b0381358116916020013516610fe7565b34801561063957600080fd5b5061028a6004803603604081101561065057600080fd5b506001600160a01b03813516906020013561103f565b34801561067257600080fd5b5061028a6004803603602081101561068957600080fd5b50356001600160a01b0316611090565b3480156106a557600080fd5b5061028a600480360360208110156106bc57600080fd5b50356001600160a01b0316611195565b3480156106d857600080fd5b5061028a6112a2565b3480156106ed57600080fd5b5061028a6004803603602081101561070457600080fd5b50356001600160a01b0316611356565b34801561072057600080fd5b5061028a6113b2565b34801561073557600080fd5b506102bf6004803603602081101561074c57600080fd5b50610131602052356001600160a01b03166000908152604090205481565b34801561077657600080fd5b506102086004803603604081101561078d57600080fd5b50803590602001356001600160a01b03166113e9565b3480156107af57600080fd5b5061013054610330906001600160a01b031681565b3480156107d057600080fd5b506102bf600081565b3480156107e557600080fd5b5061028a600480360360208110156107fc57600080fd5b50356001600160a01b0316611414565b34801561081857600080fd5b5061028a6004803603604081101561082f57600080fd5b506001600160a01b0381351690602001356114a5565b34801561085157600080fd5b506102bf6000805160206129e683398151915281565b34801561087357600080fd5b5061028a6004803603604081101561088a57600080fd5b50803590602001356001600160a01b03166114f6565b3480156108ac57600080fd5b5061028a600480360360608110156108c357600080fd5b506001600160a01b0381358116916020810135909116906040013561151c565b3480156108ef57600080fd5b5061028a6004803603604081101561090657600080fd5b506001600160a01b03813581169160200135166116bb565b34801561092a57600080fd5b506102bf6004803603602081101561094157600080fd5b50356001600160a01b031661171e565b34801561095d57600080fd5b5061028a6004803603602081101561097457600080fd5b50356001600160a01b03166118c1565b60006001600160e01b03198216637965db0b60e01b14806109b557506301ffc9a760e01b6001600160e01b03198316145b92915050565b60006109b582611a8c565b610130546001600160a01b03163314610a14576040805162461bcd60e51b815260206004820152601b60248201526000805160206129c6833981519152604482015290519081900360640190fd5b81610a1e81611a8c565b610a65576040805162461bcd60e51b8152602060048201526013602482015272151bdad95b881b9bdd081cdd5c1c1bdc9d1959606a1b604482015290519081900360640190fd5b6001600160a01b03808416600090815261012f60209081526040808320548151633af9e66960e01b815230600482015291518895919091169384939092849263852a12e3928492633af9e669926024808301939282900301818987803b158015610ace57600080fd5b505af1158015610ae2573d6000803e3d6000fd5b505050506040513d6020811015610af857600080fd5b5051604080516001600160e01b031960e085901b16815260048101929092525160248083019260209291908290030181600087803b158015610b3957600080fd5b505af1158015610b4d573d6000803e3d6000fd5b505050506040513d6020811015610b6357600080fd5b505190508015610bb7576040805162461bcd60e51b815260206004820152601a60248201527922b93937b9103932b232b2b6b4b733903a34329031aa37b5b2b760311b604482015290519081900360640190fd5b610c4586856001600160a01b03166370a08231306040518263ffffffff1660e01b815260040180826001600160a01b0316815260200191505060206040518083038186803b158015610c0857600080fd5b505afa158015610c1c573d6000803e3d6000fd5b505050506040513d6020811015610c3257600080fd5b50516001600160a01b0387169190611aad565b50505050505050565b6001600160a01b03808216600090815261012f602090815260408083205481516370a0823160e01b81523060048201529151939416928392600a9284926370a0823192602480840193919291829003018186803b158015610cae57600080fd5b505afa158015610cc2573d6000803e3d6000fd5b505050506040513d6020811015610cd857600080fd5b505111610ce9575060009392505050565b60408051633af9e66960e01b815230600482015290516001600160a01b03831691633af9e6699160248083019260209291908290030181600087803b158015610d3157600080fd5b505af1158015610d45573d6000803e3d6000fd5b505050506040513d6020811015610d5b57600080fd5b5051949350505050565b60006109b56000805160206129e6833981519152836113e9565b600082815260c96020526040902060010154610d9b8133611b10565b610da58383611b74565b505050565b6001600160a01b0381163314610e1f5760405162461bcd60e51b815260206004820152602f60248201527f416363657373436f6e74726f6c3a2063616e206f6e6c792072656e6f756e636560448201526e103937b632b9903337b91039b2b63360891b60648201526084015b60405180910390fd5b610e298282611bfa565b5050565b610e3681611c61565b610e5181604051806020016040528060008152506000611c95565b50565b6001600160a01b03808216600090815261012f60209081526040808320548151630ae9d70b60e41b81529151939416928392839263ae9d70b09260048083019392829003018186803b158015610ea957600080fd5b505afa158015610d45573d6000803e3d6000fd5b60fc5461010090046001600160a01b03163314610eec5760405162461bcd60e51b8152600401610e1690612843565b60fc5460ff16610f375760405162461bcd60e51b815260206004820152601660248201527510dbdb9d1c9bdb1b195c8e881b9bdd081c185d5cd95960521b6044820152606401610e16565b60fc805460ff191690556040517f5db9ee0a495bf2e6ff9c91a7834c1ba4fdd244a5e8aa4e537bd38aeae4b073aa90610f719033906127cd565b60405180910390a1565b610f936000805160206129e6833981519152336113e9565b610faf5760405162461bcd60e51b8152600401610e1690612814565b61013080546001600160a01b0319166001600160a01b0392909216919091179055565b610fdb82611c61565b610e2982826001611c95565b610130546001600160a01b03163314611035576040805162461bcd60e51b815260206004820152601b60248201526000805160206129c6833981519152604482015290519081900360640190fd5b610e298282611ddc565b6110576000805160206129e6833981519152336113e9565b6110735760405162461bcd60e51b8152600401610e1690612814565b6001600160a01b0390911660009081526101326020526040902055565b600054610100900460ff16806110a9575060005460ff16155b6110c55760405162461bcd60e51b8152600401610e16906128c7565b600054610100900460ff161580156110e7576000805461ffff19166101011790555b6001600160a01b03821661110d5760405162461bcd60e51b8152600401610e1690612895565b60fc805460ff191690556001600160a01b038216600081815260fb6020526040902080546001600160a01b0319169091179055611148611ec6565b6111606000805160206129e683398151915283611f41565b60fc8054610100600160a81b0319166101006001600160a01b038516021790558015610e29576000805461ff00191690555050565b6111ad6000805160206129e6833981519152336113e9565b6111c95760405162461bcd60e51b8152600401610e1690612814565b6001600160a01b0381166111ef5760405162461bcd60e51b8152600401610e1690612895565b6001600160a01b03818116600090815260fb602052604090205416156112615760405162461bcd60e51b815260206004820152602160248201527f436f6e74726f6c6c65723a2061646d696e20616c7265616479206578697374656044820152601960fa1b6064820152608401610e16565b6001600160a01b038116600081815260fb6020526040902080546001600160a01b0319169091179055610e516000805160206129e683398151915282611f41565b60fc5461010090046001600160a01b031633146112d15760405162461bcd60e51b8152600401610e1690612843565b60fc5460ff16156113195760405162461bcd60e51b815260206004820152601260248201527110dbdb9d1c9bdb1b195c8e881c185d5cd95960721b6044820152606401610e16565b60fc805460ff191660011790556040517f62e78cea01bee320cd4e420270b5ea74000d11b0c9f74754ebdbfc544b05a25890610f719033906127cd565b61136e6000805160206129e6833981519152336113e9565b61138a5760405162461bcd60e51b8152600401610e1690612814565b60fc80546001600160a01b0390921661010002610100600160a81b0319909216919091179055565b6113ca6000805160206129e683398151915233610daa565b33600090815260fb6020526040902080546001600160a01b0319169055565b600091825260c9602090815260408084206001600160a01b0393909316845291905290205460ff1690565b600054610100900460ff168061142d575060005460ff16155b6114495760405162461bcd60e51b8152600401610e16906128c7565b600054610100900460ff1615801561146b576000805461ffff19166101011790555b61147433611090565b61013080546001600160a01b0319166001600160a01b0384161790558015610e29576000805461ff00191690555050565b6114bd6000805160206129e6833981519152336113e9565b6114d95760405162461bcd60e51b8152600401610e1690612814565b6001600160a01b0390911660009081526101316020526040902055565b600082815260c960205260409020600101546115128133611b10565b610da58383611bfa565b610130546001600160a01b0316331461156a576040805162461bcd60e51b815260206004820152601b60248201526000805160206129c6833981519152604482015290519081900360640190fd5b8261157481611a8c565b6115bb576040805162461bcd60e51b8152602060048201526013602482015272151bdad95b881b9bdd081cdd5c1c1bdc9d1959606a1b604482015290519081900360640190fd5b6001600160a01b03808516600090815261012f6020908152604080832054815163852a12e360e01b81526004810188905291518995919091169384939092849263852a12e39260248084019391929182900301818787803b15801561161f57600080fd5b505af1158015611633573d6000803e3d6000fd5b505050506040513d602081101561164957600080fd5b50519050801561169d576040805162461bcd60e51b815260206004820152601a60248201527922b93937b9103932b232b2b6b4b733903a34329031aa37b5b2b760311b604482015290519081900360640190fd5b6116b16001600160a01b0385168888611aad565b5050505050505050565b6116d36000805160206129e6833981519152336113e9565b6116ef5760405162461bcd60e51b8152600401610e1690612814565b6001600160a01b03918216600090815261012f6020526040902080546001600160a01b03191691909216179055565b6001600160a01b03808216600090815261012f602090815260408083205481516370a0823160e01b81523060048201529151939416928392600a9284926370a0823192602480840193919291829003018186803b15801561177e57600080fd5b505afa158015611792573d6000803e3d6000fd5b505050506040513d60208110156117a857600080fd5b5051116117b9575060009392505050565b6000816001600160a01b031663182df0f56040518163ffffffff1660e01b815260040160206040518083038186803b1580156117f457600080fd5b505afa158015611808573d6000803e3d6000fd5b505050506040513d602081101561181e57600080fd5b5051604080516370a0823160e01b815230600482015290519192506000916001600160a01b038516916370a08231916024808301926020929190829003018186803b15801561186c57600080fd5b505afa158015611880573d6000803e3d6000fd5b505050506040513d602081101561189657600080fd5b50519050670de0b6b3a76400006118ad838361294d565b6118b7919061292d565b9695505050505050565b806118cb81611a8c565b611912576040805162461bcd60e51b8152602060048201526013602482015272151bdad95b881b9bdd081cdd5c1c1bdc9d1959606a1b604482015290519081900360640190fd5b6001600160a01b03808316600081815261012f602090815260408083205481516370a0823160e01b815230600482015291518896919091169485949390926370a082319260248083019392829003018186803b15801561197157600080fd5b505afa158015611985573d6000803e3d6000fd5b505050506040513d602081101561199b57600080fd5b505190506119b46001600160a01b038516846000611f4b565b6119c86001600160a01b0385168483611f4b565b6000826001600160a01b031663a0712d68836040518263ffffffff1660e01b815260040180828152602001915050602060405180830381600087803b158015611a1057600080fd5b505af1158015611a24573d6000803e3d6000fd5b505050506040513d6020811015611a3a57600080fd5b505190508015610c45576040805162461bcd60e51b815260206004820152601860248201527722b93937b91036b4b73a34b733903a34329031aa37b5b2b760411b604482015290519081900360640190fd5b6001600160a01b03908116600090815261012f602052604090205416151590565b6040516001600160a01b038316602482015260448101829052610da590849063a9059cbb60e01b906064015b60408051601f198184030181529190526020810180516001600160e01b03166001600160e01b03199093169290921790915261206f565b611b1a82826113e9565b610e2957611b32816001600160a01b03166014612141565b611b3d836020612141565b604051602001611b4e92919061275e565b60408051601f198184030181529082905262461bcd60e51b8252610e16916004016127e1565b611b7e82826113e9565b610e2957600082815260c9602090815260408083206001600160a01b03851684529091529020805460ff19166001179055611bb63390565b6001600160a01b0316816001600160a01b0316837f2f8788117e7eff1d82e926ec794901d17c78024a50270940304540a733656f0d60405160405180910390a45050565b611c0482826113e9565b15610e2957600082815260c9602090815260408083206001600160a01b0385168085529252808320805460ff1916905551339285917ff6391f5c32d9c69d2a47ea670b442974b53935d1edc7fd64eb21e047a839171b9190a45050565b611c796000805160206129e6833981519152336113e9565b610e515760405162461bcd60e51b8152600401610e1690612814565b6000611c9f61232a565b9050611caa84612358565b600083511180611cb75750815b15611cc857611cc684846123fd565b505b7f4910fdfa16fed3260ed0e7147f7cc6da11a60208b5b9406d12a635614ffd9143805460ff16611dd557805460ff19166001178155604051611d43908690611d149085906024016127cd565b60408051601f198184030181529190526020810180516001600160e01b0316631b2ce7f360e11b1790526123fd565b50805460ff19168155611d5461232a565b6001600160a01b0316826001600160a01b031614611dcc5760405162461bcd60e51b815260206004820152602f60248201527f45524331393637557067726164653a207570677261646520627265616b73206660448201526e75727468657220757067726164657360881b6064820152608401610e16565b611dd5856124e8565b5050505050565b6001600160a01b038116611e33576040805162461bcd60e51b8152602060048201526019602482015278526563697069656e742063616e206e6f74206265207a65726f60381b604482015290519081900360640190fd5b604080516370a0823160e01b8152306004820152905183916000916001600160a01b038416916370a08231916024808301926020929190829003018186803b158015611e7e57600080fd5b505afa158015611e92573d6000803e3d6000fd5b505050506040513d6020811015611ea857600080fd5b50519050611ec06001600160a01b0383168483611aad565b50505050565b600054610100900460ff1680611edf575060005460ff16155b611efb5760405162461bcd60e51b8152600401610e16906128c7565b600054610100900460ff16158015611f1d576000805461ffff19166101011790555b611f25612528565b611f2d612528565b8015610e51576000805461ff001916905550565b610e298282611b74565b801580611fd45750604051636eb1769f60e11b81523060048201526001600160a01b03838116602483015284169063dd62ed3e9060440160206040518083038186803b158015611f9a57600080fd5b505afa158015611fae573d6000803e3d6000fd5b505050506040513d601f19601f82011682018060405250810190611fd2919061272a565b155b61203f5760405162461bcd60e51b815260206004820152603660248201527f5361666545524332303a20617070726f76652066726f6d206e6f6e2d7a65726f60448201527520746f206e6f6e2d7a65726f20616c6c6f77616e636560501b6064820152608401610e16565b6040516001600160a01b038316602482015260448101829052610da590849063095ea7b360e01b90606401611ad9565b60006120c4826040518060400160405280602081526020017f5361666545524332303a206c6f772d6c6576656c2063616c6c206661696c6564815250856001600160a01b03166125929092919063ffffffff16565b805190915015610da557808060200190518101906120e2919061270a565b610da55760405162461bcd60e51b815260206004820152602a60248201527f5361666545524332303a204552433230206f7065726174696f6e20646964206e6044820152691bdd081cdd58d8d9595960b21b6064820152608401610e16565b6060600061215083600261294d565b61215b906002612915565b67ffffffffffffffff81111561218157634e487b7160e01b600052604160045260246000fd5b6040519080825280601f01601f1916602001820160405280156121ab576020820181803683370190505b509050600360fc1b816000815181106121d457634e487b7160e01b600052603260045260246000fd5b60200101906001600160f81b031916908160001a905350600f60fb1b8160018151811061221157634e487b7160e01b600052603260045260246000fd5b60200101906001600160f81b031916908160001a905350600061223584600261294d565b612240906001612915565b90505b60018111156122d4576f181899199a1a9b1b9c1cb0b131b232b360811b85600f166010811061228257634e487b7160e01b600052603260045260246000fd5b1a60f81b8282815181106122a657634e487b7160e01b600052603260045260246000fd5b60200101906001600160f81b031916908160001a90535060049490941c936122cd81612998565b9050612243565b5083156123235760405162461bcd60e51b815260206004820181905260248201527f537472696e67733a20686578206c656e67746820696e73756666696369656e746044820152606401610e16565b9392505050565b7f360894a13ba1a3210667c828492db98dca3e2076cc3735a920a3ca505d382bbc546001600160a01b031690565b803b6123bc5760405162461bcd60e51b815260206004820152602d60248201527f455243313936373a206e657720696d706c656d656e746174696f6e206973206e60448201526c1bdd08184818dbdb9d1c9858dd609a1b6064820152608401610e16565b7f360894a13ba1a3210667c828492db98dca3e2076cc3735a920a3ca505d382bbc80546001600160a01b0319166001600160a01b0392909216919091179055565b6060823b61245c5760405162461bcd60e51b815260206004820152602660248201527f416464726573733a2064656c65676174652063616c6c20746f206e6f6e2d636f6044820152651b9d1c9858dd60d21b6064820152608401610e16565b600080846001600160a01b0316846040516124779190612742565b600060405180830381855af49150503d80600081146124b2576040519150601f19603f3d011682016040523d82523d6000602084013e6124b7565b606091505b50915091506124df8282604051806060016040528060278152602001612a06602791396125a9565b95945050505050565b6124f181612358565b6040516001600160a01b038216907fbc7cd75a20ee27fd9adebab32041f755214dbc6bffa90cc0225b39da2e5c2d3b90600090a250565b600054610100900460ff1680612541575060005460ff16155b61255d5760405162461bcd60e51b8152600401610e16906128c7565b600054610100900460ff16158015611f2d576000805461ffff19166101011790558015610e51576000805461ff001916905550565b60606125a184846000856125e2565b949350505050565b606083156125b8575081612323565b8251156125c85782518084602001fd5b8160405162461bcd60e51b8152600401610e1691906127e1565b6060824710156126435760405162461bcd60e51b815260206004820152602660248201527f416464726573733a20696e73756666696369656e742062616c616e636520666f6044820152651c8818d85b1b60d21b6064820152608401610e16565b843b6126915760405162461bcd60e51b815260206004820152601d60248201527f416464726573733a2063616c6c20746f206e6f6e2d636f6e74726163740000006044820152606401610e16565b600080866001600160a01b031685876040516126ad9190612742565b60006040518083038185875af1925050503d80600081146126ea576040519150601f19603f3d011682016040523d82523d6000602084013e6126ef565b606091505b50915091506126ff8282866125a9565b979650505050505050565b60006020828403121561271b578081fd5b81518015158114612323578182fd5b60006020828403121561273b578081fd5b5051919050565b6000825161275481846020870161296c565b9190910192915050565b76020b1b1b2b9b9a1b7b73a3937b61d1030b1b1b7bab73a1604d1b81526000835161279081601785016020880161296c565b7001034b99036b4b9b9b4b733903937b6329607d1b60179184019182015283516127c181602884016020880161296c565b01602801949350505050565b6001600160a01b0391909116815260200190565b602081526000825180602084015261280081604085016020870161296c565b601f01601f19169190910160400192915050565b60208082526015908201527421b7b73a3937b63632b91d103737ba1030b236b4b760591b604082015260600190565b60208082526032908201527f436f6e74726f6c6c65723a2063616c6c657220646f6573206e6f7420686176656040820152712074686520677561726469616e20726f6c6560701b606082015260800190565b602080825260189082015277436f6e74726f6c6c65723a2061646472657373207a65726f60401b604082015260600190565b6020808252602e908201527f496e697469616c697a61626c653a20636f6e747261637420697320616c72656160408201526d191e481a5b9a5d1a585b1a5e995960921b606082015260800190565b60008219821115612928576129286129af565b500190565b60008261294857634e487b7160e01b81526012600452602481fd5b500490565b6000816000190483118215151615612967576129676129af565b500290565b60005b8381101561298757818101518382015260200161296f565b83811115611ec05750506000910152565b6000816129a7576129a76129af565b506000190190565b634e487b7160e01b600052601160045260246000fdfe4f6e6c79206173736574206d616e616765722063616e2063616c6c00000000002172861495e7b85edac73e3cd5fbb42dd675baadf627720e687bcfdaca025096416464726573733a206c6f772d6c6576656c2064656c65676174652063616c6c206661696c6564a2646970667358221220beef4290dbefa3d39d51b677b50b0a2afaf5476d0c08ee5747041fb1423d4c7b64736f6c63430008040033",
  "devdoc": {
    "details": "The implementation of Compound.Finance MoneyMarket that integrates with AssetManager.",
    "kind": "dev",
    "methods": {
      "addAdmin(address)": {
        "details": "Add a new admin account",
        "params": {
          "account": "Account address"
        }
      },
      "deposit(address)": {
        "details": "Deposits the given amount of tokens in the underlying money market."
      },
      "getRate(address)": {
        "details": "Returns the interest rate per block for the given token."
      },
      "getRoleAdmin(bytes32)": {
        "details": "Returns the admin role that controls `role`. See {grantRole} and {revokeRole}. To change a role's admin, use {_setRoleAdmin}."
      },
      "getSupply(address)": {
        "details": "Returns the supply for the given token, including accrued interest. This function can have side effects."
      },
      "getSupplyView(address)": {
        "details": "Returns the supply for the given token; it might not include accrued interest. This function *cannot* have side effects."
      },
      "grantRole(bytes32,address)": {
        "details": "Grants `role` to `account`. If `account` had not been already granted `role`, emits a {RoleGranted} event. Requirements: - the caller must have ``role``'s admin role."
      },
      "hasRole(bytes32,address)": {
        "details": "Returns `true` if `account` has been granted `role`."
      },
      "isAdmin(address)": {
        "details": "Check if the address provided is the admin",
        "params": {
          "account": "Account address"
        }
      },
      "pause()": {
        "details": "Called by a pauser to pause, triggers stopped state."
      },
      "paused()": {
        "details": "Returns true if the contract is paused, and false otherwise."
      },
      "renounceAdmin()": {
        "details": "Renouce the admin from the sender's address"
      },
      "renounceRole(bytes32,address)": {
        "details": "Revokes `role` from the calling account. Roles are often managed via {grantRole} and {revokeRole}: this function's purpose is to provide a mechanism for accounts to lose their privileges if they are compromised (such as when a trusted device is misplaced). If the calling account had been granted `role`, emits a {RoleRevoked} event. Requirements: - the caller must be `account`."
      },
      "revokeRole(bytes32,address)": {
        "details": "Revokes `role` from `account`. If `account` had been granted `role`, emits a {RoleRevoked} event. Requirements: - the caller must have ``role``'s admin role."
      },
      "setGuardian(address)": {
        "details": "Set pauseGuardian account",
        "params": {
          "account": "Account address"
        }
      },
      "supportsInterface(bytes4)": {
        "details": "See {IERC165-supportsInterface}."
      },
      "supportsToken(address)": {
        "details": "Indicates if the adapter supports the token with the given address."
      },
      "unpause()": {
        "details": "Called by a pauser to unpause, returns to normal state."
      },
      "upgradeTo(address)": {
        "details": "Upgrade the implementation of the proxy to `newImplementation`. Calls {_authorizeUpgrade}. Emits an {Upgraded} event."
      },
      "upgradeToAndCall(address,bytes)": {
        "details": "Upgrade the implementation of the proxy to `newImplementation`, and subsequently execute the function call encoded in `data`. Calls {_authorizeUpgrade}. Emits an {Upgraded} event."
      },
      "withdrawAll(address,address)": {
        "details": "Withdraws all the tokens from the underlying money market and transfers them to `recipient`."
      }
    },
    "stateVariables": {
      "ceilingMap": {
        "details": "The maximum amount that should be deposited in money market",
        "params": {
          "tokenAddress": "The address of token whose ceiling is being fetched"
        }
      },
      "floorMap": {
        "details": "The minimum amount that should be deposited in money market before moving to next priority market",
        "params": {
          "tokenAddress": "The address of token whose floor is being fetched"
        }
      }
    },
    "title": "CompoundAdapter",
    "version": 1
  },
  "userdoc": {
    "kind": "user",
    "methods": {},
    "version": 1
  },
  "storageLayout": {
    "storage": [
      {
        "astId": 821,
        "contract": "contracts/asset/CompoundAdapter.sol:CompoundAdapter",
        "label": "_initialized",
        "offset": 0,
        "slot": "0",
        "type": "t_bool"
      },
      {
        "astId": 824,
        "contract": "contracts/asset/CompoundAdapter.sol:CompoundAdapter",
        "label": "_initializing",
        "offset": 1,
        "slot": "0",
        "type": "t_bool"
      },
      {
        "astId": 804,
        "contract": "contracts/asset/CompoundAdapter.sol:CompoundAdapter",
        "label": "__gap",
        "offset": 0,
        "slot": "1",
        "type": "t_array(t_uint256)50_storage"
      },
      {
        "astId": 937,
        "contract": "contracts/asset/CompoundAdapter.sol:CompoundAdapter",
        "label": "__gap",
        "offset": 0,
        "slot": "51",
        "type": "t_array(t_uint256)50_storage"
      },
      {
        "astId": 2184,
        "contract": "contracts/asset/CompoundAdapter.sol:CompoundAdapter",
        "label": "__gap",
        "offset": 0,
        "slot": "101",
        "type": "t_array(t_uint256)50_storage"
      },
      {
        "astId": 2493,
        "contract": "contracts/asset/CompoundAdapter.sol:CompoundAdapter",
        "label": "__gap",
        "offset": 0,
        "slot": "151",
        "type": "t_array(t_uint256)50_storage"
      },
      {
        "astId": 48,
        "contract": "contracts/asset/CompoundAdapter.sol:CompoundAdapter",
        "label": "_roles",
        "offset": 0,
        "slot": "201",
        "type": "t_mapping(t_bytes32,t_struct(RoleData)43_storage)"
      },
      {
        "astId": 333,
        "contract": "contracts/asset/CompoundAdapter.sol:CompoundAdapter",
        "label": "__gap",
        "offset": 0,
        "slot": "202",
        "type": "t_array(t_uint256)49_storage"
      },
      {
        "astId": 11052,
        "contract": "contracts/asset/CompoundAdapter.sol:CompoundAdapter",
        "label": "_admins",
        "offset": 0,
        "slot": "251",
        "type": "t_mapping(t_address,t_address)"
      },
      {
        "astId": 11054,
        "contract": "contracts/asset/CompoundAdapter.sol:CompoundAdapter",
        "label": "_paused",
        "offset": 0,
        "slot": "252",
        "type": "t_bool"
      },
      {
        "astId": 11056,
        "contract": "contracts/asset/CompoundAdapter.sol:CompoundAdapter",
        "label": "pauseGuardian",
        "offset": 1,
        "slot": "252",
        "type": "t_address"
      },
      {
        "astId": 11296,
        "contract": "contracts/asset/CompoundAdapter.sol:CompoundAdapter",
        "label": "______gap",
        "offset": 0,
        "slot": "253",
        "type": "t_array(t_uint256)50_storage"
      },
      {
        "astId": 13620,
        "contract": "contracts/asset/CompoundAdapter.sol:CompoundAdapter",
        "label": "tokenToCToken",
        "offset": 0,
        "slot": "303",
        "type": "t_mapping(t_address,t_address)"
      },
      {
        "astId": 13622,
        "contract": "contracts/asset/CompoundAdapter.sol:CompoundAdapter",
        "label": "assetManager",
        "offset": 0,
        "slot": "304",
        "type": "t_address"
      },
      {
        "astId": 13627,
        "contract": "contracts/asset/CompoundAdapter.sol:CompoundAdapter",
        "label": "floorMap",
        "offset": 0,
        "slot": "305",
        "type": "t_mapping(t_address,t_uint256)"
      },
      {
        "astId": 13632,
        "contract": "contracts/asset/CompoundAdapter.sol:CompoundAdapter",
        "label": "ceilingMap",
        "offset": 0,
        "slot": "306",
        "type": "t_mapping(t_address,t_uint256)"
      }
    ],
    "types": {
      "t_address": {
        "encoding": "inplace",
        "label": "address",
        "numberOfBytes": "20"
      },
      "t_array(t_uint256)49_storage": {
        "base": "t_uint256",
        "encoding": "inplace",
        "label": "uint256[49]",
        "numberOfBytes": "1568"
      },
      "t_array(t_uint256)50_storage": {
        "base": "t_uint256",
        "encoding": "inplace",
        "label": "uint256[50]",
        "numberOfBytes": "1600"
      },
      "t_bool": {
        "encoding": "inplace",
        "label": "bool",
        "numberOfBytes": "1"
      },
      "t_bytes32": {
        "encoding": "inplace",
        "label": "bytes32",
        "numberOfBytes": "32"
      },
      "t_mapping(t_address,t_address)": {
        "encoding": "mapping",
        "key": "t_address",
        "label": "mapping(address => address)",
        "numberOfBytes": "32",
        "value": "t_address"
      },
      "t_mapping(t_address,t_bool)": {
        "encoding": "mapping",
        "key": "t_address",
        "label": "mapping(address => bool)",
        "numberOfBytes": "32",
        "value": "t_bool"
      },
      "t_mapping(t_address,t_uint256)": {
        "encoding": "mapping",
        "key": "t_address",
        "label": "mapping(address => uint256)",
        "numberOfBytes": "32",
        "value": "t_uint256"
      },
      "t_mapping(t_bytes32,t_struct(RoleData)43_storage)": {
        "encoding": "mapping",
        "key": "t_bytes32",
        "label": "mapping(bytes32 => struct AccessControlUpgradeable.RoleData)",
        "numberOfBytes": "32",
        "value": "t_struct(RoleData)43_storage"
      },
      "t_struct(RoleData)43_storage": {
        "encoding": "inplace",
        "label": "struct AccessControlUpgradeable.RoleData",
        "members": [
          {
            "astId": 40,
            "contract": "contracts/asset/CompoundAdapter.sol:CompoundAdapter",
            "label": "members",
            "offset": 0,
            "slot": "0",
            "type": "t_mapping(t_address,t_bool)"
          },
          {
            "astId": 42,
            "contract": "contracts/asset/CompoundAdapter.sol:CompoundAdapter",
            "label": "adminRole",
            "offset": 0,
            "slot": "1",
            "type": "t_bytes32"
          }
        ],
        "numberOfBytes": "64"
      },
      "t_uint256": {
        "encoding": "inplace",
        "label": "uint256",
        "numberOfBytes": "32"
      }
    }
  }
}