{
  "address": "0xd654b31e9e3bA3fAD8bC7208f9c34800b4714d3a",
  "abi": [
    {
      "inputs": [
        {
          "internalType": "uint256",
          "name": "interestRatePerBlock_",
          "type": "uint256"
        }
      ],
      "stateMutability": "nonpayable",
      "type": "constructor"
    },
    {
      "anonymous": false,
      "inputs": [
        {
          "indexed": false,
          "internalType": "uint256",
          "name": "interestRate",
          "type": "uint256"
        }
      ],
      "name": "LogNewInterestParams",
      "type": "event"
    },
    {
      "anonymous": false,
      "inputs": [
        {
          "indexed": true,
          "internalType": "address",
          "name": "previousOwner",
          "type": "address"
        },
        {
          "indexed": true,
          "internalType": "address",
          "name": "newOwner",
          "type": "address"
        }
      ],
      "name": "OwnershipTransferred",
      "type": "event"
    },
    {
      "inputs": [],
      "name": "BORROW_RATE_MAX_MANTISSA",
      "outputs": [
        {
          "internalType": "uint256",
          "name": "",
          "type": "uint256"
        }
      ],
      "stateMutability": "view",
      "type": "function"
    },
    {
      "inputs": [],
      "name": "getBorrowRate",
      "outputs": [
        {
          "internalType": "uint256",
          "name": "",
          "type": "uint256"
        }
      ],
      "stateMutability": "view",
      "type": "function"
    },
    {
      "inputs": [
        {
          "internalType": "uint256",
          "name": "reserveFactorMantissa",
          "type": "uint256"
        }
      ],
      "name": "getSupplyRate",
      "outputs": [
        {
          "internalType": "uint256",
          "name": "",
          "type": "uint256"
        }
      ],
      "stateMutability": "view",
      "type": "function"
    },
    {
      "inputs": [],
      "name": "interestRatePerBlock",
      "outputs": [
        {
          "internalType": "uint256",
          "name": "",
          "type": "uint256"
        }
      ],
      "stateMutability": "view",
      "type": "function"
    },
    {
      "inputs": [],
      "name": "isInterestRateModel",
      "outputs": [
        {
          "internalType": "bool",
          "name": "",
          "type": "bool"
        }
      ],
      "stateMutability": "view",
      "type": "function"
    },
    {
      "inputs": [],
      "name": "owner",
      "outputs": [
        {
          "internalType": "address",
          "name": "",
          "type": "address"
        }
      ],
      "stateMutability": "view",
      "type": "function"
    },
    {
      "inputs": [],
      "name": "renounceOwnership",
      "outputs": [],
      "stateMutability": "nonpayable",
      "type": "function"
    },
    {
      "inputs": [
        {
          "internalType": "uint256",
          "name": "interestRatePerBlock_",
          "type": "uint256"
        }
      ],
      "name": "setInterestRate",
      "outputs": [],
      "stateMutability": "nonpayable",
      "type": "function"
    },
    {
      "inputs": [
        {
          "internalType": "address",
          "name": "newOwner",
          "type": "address"
        }
      ],
      "name": "transferOwnership",
      "outputs": [],
      "stateMutability": "nonpayable",
      "type": "function"
    }
  ],
  "transactionHash": "0x76ff2e1a74b7f138f04395a45bca2f6de70a18c333cbc240f55a082df6bbc785",
  "args": [
    "95129375951"
  ],
  "solcInputHash": "1bad13edcd3c88f2ca9238985c18d480",
  "bytecode": "0x608060405234801561001057600080fd5b5060405161059f38038061059f8339818101604052602081101561003357600080fd5b505161003e3361007c565b60018190556040805182815290517f72b60adc9f1a39b51ceffe989f8fdaf749fbee6059c5d0ba7e5e1ed5d455b9439181900360200190a1506100cc565b600080546001600160a01b038381166001600160a01b0319831681178455604051919092169283917f8be0079c531659141344cd1fd0a4f28419497f9722a3daafe3b4186f6b6457e09190a35050565b6104c4806100db6000396000f3fe608060405234801561001057600080fd5b50600436106100835760003560e01c80632191f92a146100885780632ff7709e146100a45780635f84f302146100bf578063715018a6146100de578063751229b3146100e65780638da5cb5b146100f3578063ba1c5e801461011b578063d955759d14610123578063f2fde38b14610140575b600080fd5b610090600181565b604080519115158252519081900360200190f35b6100ad60015481565b60408051918252519081900360200190f35b6100dc600480360360208110156100d557600080fd5b5035610166565b005b6100dc61022f565b6100ad65048c2739500081565b6000546001600160a01b0316604080516001600160a01b039092168252519081900360200190f35b6001546100ad565b6100ad6004803603602081101561013957600080fd5b5035610265565b6100dc6004803603602081101561015657600080fd5b50356001600160a01b0316610302565b6000546001600160a01b031633146101995760405162461bcd60e51b8152600401610190906103ed565b60405180910390fd5b65048c273950008111156101f4576040805162461bcd60e51b815260206004820152601c60248201527f626f72726f772072617465206973206162737572646c79206869676800000000604482015290519081900360640190fd5b60018190556040805182815290517f72b60adc9f1a39b51ceffe989f8fdaf749fbee6059c5d0ba7e5e1ed5d455b9439181900360200190a150565b6000546001600160a01b031633146102595760405162461bcd60e51b8152600401610190906103ed565b610263600061039d565b565b6000670de0b6b3a76400008211156102c4576040805162461bcd60e51b815260206004820152601b60248201527f72657365727665466163746f724d616e7469737361206572726f720000000000604482015290519081900360640190fd5b60006102d883670de0b6b3a7640000610461565b9050670de0b6b3a7640000816001546102f19190610442565b6102fb9190610422565b9392505050565b6000546001600160a01b0316331461032c5760405162461bcd60e51b8152600401610190906103ed565b6001600160a01b0381166103915760405162461bcd60e51b815260206004820152602660248201527f4f776e61626c653a206e6577206f776e657220697320746865207a65726f206160448201526564647265737360d01b6064820152608401610190565b61039a8161039d565b50565b600080546001600160a01b038381166001600160a01b0319831681178455604051919092169283917f8be0079c531659141344cd1fd0a4f28419497f9722a3daafe3b4186f6b6457e09190a35050565b6020808252818101527f4f776e61626c653a2063616c6c6572206973206e6f7420746865206f776e6572604082015260600190565b60008261043d57634e487b7160e01b81526012600452602481fd5b500490565b600081600019048311821515161561045c5761045c610478565b500290565b60008282101561047357610473610478565b500390565b634e487b7160e01b600052601160045260246000fdfea26469706673582212201f3b511cf425f013dd96be4694907cce3f567405df2f41cf15f473756dcc67ff64736f6c63430008040033",
  "devdoc": {
    "events": {
      "LogNewInterestParams(uint256)": {
        "details": "Update interest parameters event",
        "params": {
          "interestRate": "New interest rate, 1e18 = 100%"
        }
      }
    },
    "kind": "dev",
    "methods": {
      "getBorrowRate()": {
        "details": "Calculates the current borrow interest rate per block",
        "returns": {
          "_0": "The borrow rate per block (as a percentage, and scaled by 1e18)"
        }
      },
      "getSupplyRate(uint256)": {
        "details": "Calculates the current suppier interest rate per block",
        "returns": {
          "_0": "The supply rate per block (as a percentage, and scaled by 1e18)"
        }
      },
      "owner()": {
        "details": "Returns the address of the current owner."
      },
      "renounceOwnership()": {
        "details": "Leaves the contract without owner. It will not be possible to call `onlyOwner` functions anymore. Can only be called by the current owner. NOTE: Renouncing ownership will leave the contract without an owner, thereby removing any functionality that is only available to the owner."
      },
      "setInterestRate(uint256)": {
        "details": "Set the borrow interest rate per block"
      },
      "transferOwnership(address)": {
        "details": "Transfers ownership of the contract to a new account (`newOwner`). Can only be called by the current owner."
      }
    },
    "stateVariables": {
      "isInterestRateModel": {
        "details": "Check to see if it is a valid interest rate model",
        "return": "Return true for a valid interest rate model",
        "returns": {
          "_0": "Return true for a valid interest rate model"
        }
      }
    },
    "version": 1
  },
  "userdoc": {
    "kind": "user",
    "methods": {},
    "version": 1
  },
  "storageLayout": {
    "storage": [
      {
        "astId": 2894,
        "contract": "contracts/market/FixedInterestRateModel.sol:FixedInterestRateModel",
        "label": "_owner",
        "offset": 0,
        "slot": "0",
        "type": "t_address"
      },
      {
        "astId": 15910,
        "contract": "contracts/market/FixedInterestRateModel.sol:FixedInterestRateModel",
        "label": "interestRatePerBlock",
        "offset": 0,
        "slot": "1",
        "type": "t_uint256"
      }
    ],
    "types": {
      "t_address": {
        "encoding": "inplace",
        "label": "address",
        "numberOfBytes": "20"
      },
      "t_uint256": {
        "encoding": "inplace",
        "label": "uint256",
        "numberOfBytes": "32"
      }
    }
  }
}