{
  "address": "0x390Eda0BBBa70Fc96C4410aA381631D35f0ce5Dd",
  "abi": [
    {
      "anonymous": false,
      "inputs": [
        {
          "indexed": false,
          "internalType": "address",
          "name": "previousAdmin",
          "type": "address"
        },
        {
          "indexed": false,
          "internalType": "address",
          "name": "newAdmin",
          "type": "address"
        }
      ],
      "name": "AdminChanged",
      "type": "event"
    },
    {
      "anonymous": false,
      "inputs": [
        {
          "indexed": true,
          "internalType": "address",
          "name": "beacon",
          "type": "address"
        }
      ],
      "name": "BeaconUpgraded",
      "type": "event"
    },
    {
      "anonymous": false,
      "inputs": [
        {
          "indexed": true,
          "internalType": "address",
          "name": "tokenAddress",
          "type": "address"
        },
        {
          "indexed": false,
          "internalType": "address",
          "name": "contractAddress",
          "type": "address"
        }
      ],
      "name": "LogAddUToken",
      "type": "event"
    },
    {
      "anonymous": false,
      "inputs": [
        {
          "indexed": true,
          "internalType": "address",
          "name": "tokenAddress",
          "type": "address"
        },
        {
          "indexed": false,
          "internalType": "address",
          "name": "contractAddress",
          "type": "address"
        }
      ],
      "name": "LogAddUserManager",
      "type": "event"
    },
    {
      "anonymous": false,
      "inputs": [
        {
          "indexed": false,
          "internalType": "address",
          "name": "account",
          "type": "address"
        }
      ],
      "name": "Paused",
      "type": "event"
    },
    {
      "anonymous": false,
      "inputs": [
        {
          "indexed": true,
          "internalType": "bytes32",
          "name": "role",
          "type": "bytes32"
        },
        {
          "indexed": true,
          "internalType": "bytes32",
          "name": "previousAdminRole",
          "type": "bytes32"
        },
        {
          "indexed": true,
          "internalType": "bytes32",
          "name": "newAdminRole",
          "type": "bytes32"
        }
      ],
      "name": "RoleAdminChanged",
      "type": "event"
    },
    {
      "anonymous": false,
      "inputs": [
        {
          "indexed": true,
          "internalType": "bytes32",
          "name": "role",
          "type": "bytes32"
        },
        {
          "indexed": true,
          "internalType": "address",
          "name": "account",
          "type": "address"
        },
        {
          "indexed": true,
          "internalType": "address",
          "name": "sender",
          "type": "address"
        }
      ],
      "name": "RoleGranted",
      "type": "event"
    },
    {
      "anonymous": false,
      "inputs": [
        {
          "indexed": true,
          "internalType": "bytes32",
          "name": "role",
          "type": "bytes32"
        },
        {
          "indexed": true,
          "internalType": "address",
          "name": "account",
          "type": "address"
        },
        {
          "indexed": true,
          "internalType": "address",
          "name": "sender",
          "type": "address"
        }
      ],
      "name": "RoleRevoked",
      "type": "event"
    },
    {
      "anonymous": false,
      "inputs": [
        {
          "indexed": false,
          "internalType": "address",
          "name": "account",
          "type": "address"
        }
      ],
      "name": "Unpaused",
      "type": "event"
    },
    {
      "anonymous": false,
      "inputs": [
        {
          "indexed": true,
          "internalType": "address",
          "name": "implementation",
          "type": "address"
        }
      ],
      "name": "Upgraded",
      "type": "event"
    },
    {
      "inputs": [],
      "name": "DEFAULT_ADMIN_ROLE",
      "outputs": [
        {
          "internalType": "bytes32",
          "name": "",
          "type": "bytes32"
        }
      ],
      "stateMutability": "view",
      "type": "function"
    },
    {
      "inputs": [],
      "name": "ROLE_ADMIN",
      "outputs": [
        {
          "internalType": "bytes32",
          "name": "",
          "type": "bytes32"
        }
      ],
      "stateMutability": "view",
      "type": "function"
    },
    {
      "inputs": [
        {
          "internalType": "address",
          "name": "admin_",
          "type": "address"
        }
      ],
      "name": "__Controller_init",
      "outputs": [],
      "stateMutability": "nonpayable",
      "type": "function"
    },
    {
      "inputs": [],
      "name": "__MarketRegistry_init",
      "outputs": [],
      "stateMutability": "nonpayable",
      "type": "function"
    },
    {
      "inputs": [
        {
          "internalType": "address",
          "name": "account",
          "type": "address"
        }
      ],
      "name": "addAdmin",
      "outputs": [],
      "stateMutability": "nonpayable",
      "type": "function"
    },
    {
      "inputs": [
        {
          "internalType": "address",
          "name": "token",
          "type": "address"
        },
        {
          "internalType": "address",
          "name": "uToken",
          "type": "address"
        }
      ],
      "name": "addUToken",
      "outputs": [],
      "stateMutability": "nonpayable",
      "type": "function"
    },
    {
      "inputs": [
        {
          "internalType": "address",
          "name": "token",
          "type": "address"
        },
        {
          "internalType": "address",
          "name": "userManager",
          "type": "address"
        }
      ],
      "name": "addUserManager",
      "outputs": [],
      "stateMutability": "nonpayable",
      "type": "function"
    },
    {
      "inputs": [
        {
          "internalType": "address",
          "name": "token",
          "type": "address"
        }
      ],
      "name": "deleteMarket",
      "outputs": [],
      "stateMutability": "nonpayable",
      "type": "function"
    },
    {
      "inputs": [
        {
          "internalType": "bytes32",
          "name": "role",
          "type": "bytes32"
        }
      ],
      "name": "getRoleAdmin",
      "outputs": [
        {
          "internalType": "bytes32",
          "name": "",
          "type": "bytes32"
        }
      ],
      "stateMutability": "view",
      "type": "function"
    },
    {
      "inputs": [],
      "name": "getUTokens",
      "outputs": [
        {
          "internalType": "address[]",
          "name": "",
          "type": "address[]"
        }
      ],
      "stateMutability": "view",
      "type": "function"
    },
    {
      "inputs": [],
      "name": "getUserManagers",
      "outputs": [
        {
          "internalType": "address[]",
          "name": "",
          "type": "address[]"
        }
      ],
      "stateMutability": "view",
      "type": "function"
    },
    {
      "inputs": [
        {
          "internalType": "bytes32",
          "name": "role",
          "type": "bytes32"
        },
        {
          "internalType": "address",
          "name": "account",
          "type": "address"
        }
      ],
      "name": "grantRole",
      "outputs": [],
      "stateMutability": "nonpayable",
      "type": "function"
    },
    {
      "inputs": [
        {
          "internalType": "bytes32",
          "name": "role",
          "type": "bytes32"
        },
        {
          "internalType": "address",
          "name": "account",
          "type": "address"
        }
      ],
      "name": "hasRole",
      "outputs": [
        {
          "internalType": "bool",
          "name": "",
          "type": "bool"
        }
      ],
      "stateMutability": "view",
      "type": "function"
    },
    {
      "inputs": [
        {
          "internalType": "address",
          "name": "account",
          "type": "address"
        }
      ],
      "name": "isAdmin",
      "outputs": [
        {
          "internalType": "bool",
          "name": "",
          "type": "bool"
        }
      ],
      "stateMutability": "view",
      "type": "function"
    },
    {
      "inputs": [],
      "name": "pause",
      "outputs": [],
      "stateMutability": "nonpayable",
      "type": "function"
    },
    {
      "inputs": [],
      "name": "pauseGuardian",
      "outputs": [
        {
          "internalType": "address",
          "name": "",
          "type": "address"
        }
      ],
      "stateMutability": "view",
      "type": "function"
    },
    {
      "inputs": [],
      "name": "paused",
      "outputs": [
        {
          "internalType": "bool",
          "name": "",
          "type": "bool"
        }
      ],
      "stateMutability": "view",
      "type": "function"
    },
    {
      "inputs": [],
      "name": "renounceAdmin",
      "outputs": [],
      "stateMutability": "nonpayable",
      "type": "function"
    },
    {
      "inputs": [
        {
          "internalType": "bytes32",
          "name": "role",
          "type": "bytes32"
        },
        {
          "internalType": "address",
          "name": "account",
          "type": "address"
        }
      ],
      "name": "renounceRole",
      "outputs": [],
      "stateMutability": "nonpayable",
      "type": "function"
    },
    {
      "inputs": [
        {
          "internalType": "bytes32",
          "name": "role",
          "type": "bytes32"
        },
        {
          "internalType": "address",
          "name": "account",
          "type": "address"
        }
      ],
      "name": "revokeRole",
      "outputs": [],
      "stateMutability": "nonpayable",
      "type": "function"
    },
    {
      "inputs": [
        {
          "internalType": "address",
          "name": "account",
          "type": "address"
        }
      ],
      "name": "setGuardian",
      "outputs": [],
      "stateMutability": "nonpayable",
      "type": "function"
    },
    {
      "inputs": [
        {
          "internalType": "bytes4",
          "name": "interfaceId",
          "type": "bytes4"
        }
      ],
      "name": "supportsInterface",
      "outputs": [
        {
          "internalType": "bool",
          "name": "",
          "type": "bool"
        }
      ],
      "stateMutability": "view",
      "type": "function"
    },
    {
      "inputs": [
        {
          "internalType": "address",
          "name": "",
          "type": "address"
        }
      ],
      "name": "tokens",
      "outputs": [
        {
          "internalType": "address",
          "name": "uToken",
          "type": "address"
        },
        {
          "internalType": "address",
          "name": "userManager",
          "type": "address"
        }
      ],
      "stateMutability": "view",
      "type": "function"
    },
    {
      "inputs": [],
      "name": "unpause",
      "outputs": [],
      "stateMutability": "nonpayable",
      "type": "function"
    },
    {
      "inputs": [
        {
          "internalType": "address",
          "name": "newImplementation",
          "type": "address"
        }
      ],
      "name": "upgradeTo",
      "outputs": [],
      "stateMutability": "nonpayable",
      "type": "function"
    },
    {
      "inputs": [
        {
          "internalType": "address",
          "name": "newImplementation",
          "type": "address"
        },
        {
          "internalType": "bytes",
          "name": "data",
          "type": "bytes"
        }
      ],
      "name": "upgradeToAndCall",
      "outputs": [],
      "stateMutability": "payable",
      "type": "function"
    }
  ],
  "transactionHash": "0x215f6e1e7e6a075268b9e964e8127ff4c1a44995bd246dddca7067fd705e5df4",
  "args": [],
  "solcInputHash": "1bad13edcd3c88f2ca9238985c18d480",
  "bytecode": "0x608060405234801561001057600080fd5b50611deb806100206000396000f3fe6080604052600436106101615760003560e01c80636c461a73116100c15780639c93ff011161007a5780639c93ff01146103ce578063a217fddf146103e3578063cdbffbf8146103f8578063d391014b14610418578063d547741f1461043a578063d960e94a1461045a578063e48603391461047a57600080fd5b80636c461a731461032457806370480275146103445780638456cb59146103645780638a0dac4a146103795780638bad0c0a1461039957806391d14854146103ae57600080fd5b80632f2ff15d1161011e5780632f2ff15d1461026257806336568abe146102845780633659cfe6146102a45780633f4ba83a146102c45780634f1ef286146102d9578063561b08da146102ec5780635c975abb1461030c57600080fd5b806301ffc9a71461016657806314833a3b1461019b578063248a9ca3146101bd57806324a3d622146101fb57806324d7806c1461022d578063292252881461024d575b600080fd5b34801561017257600080fd5b50610186610181366004611a65565b6104dc565b60405190151581526020015b60405180910390f35b3480156101a757600080fd5b506101b0610513565b6040516101929190611b2c565b3480156101c957600080fd5b506101ed6101d8366004611a2b565b600090815260c9602052604090206001015490565b604051908152602001610192565b34801561020757600080fd5b5060fc546102209061010090046001600160a01b031681565b6040516101929190611b18565b34801561023957600080fd5b50610186610248366004611922565b610525565b34801561025957600080fd5b506101b061053f565b34801561026e57600080fd5b5061028261027d366004611a43565b61054c565b005b34801561029057600080fd5b5061028261029f366004611a43565b610577565b3480156102b057600080fd5b506102826102bf366004611922565b6105fa565b3480156102d057600080fd5b50610282610621565b6102826102e736600461196e565b6106df565b3480156102f857600080fd5b5061028261030736600461193c565b6106f4565b34801561031857600080fd5b5060fc5460ff16610186565b34801561033057600080fd5b5061028261033f366004611922565b6108b9565b34801561035057600080fd5b5061028261035f366004611922565b6109be565b34801561037057600080fd5b50610282610acb565b34801561038557600080fd5b50610282610394366004611922565b610b7f565b3480156103a557600080fd5b50610282610bdb565b3480156103ba57600080fd5b506101866103c9366004611a43565b610c12565b3480156103da57600080fd5b50610282610c3d565b3480156103ef57600080fd5b506101ed600081565b34801561040457600080fd5b5061028261041336600461193c565b610cb1565b34801561042457600080fd5b506101ed600080516020611d6f83398151915281565b34801561044657600080fd5b50610282610455366004611a43565b610e59565b34801561046657600080fd5b50610282610475366004611922565b610e7f565b34801561048657600080fd5b506104bc610495366004611922565b61013360205260009081526040902080546001909101546001600160a01b03918216911682565b604080516001600160a01b03938416815292909116602083015201610192565b60006001600160e01b03198216637965db0b60e01b148061050d57506301ffc9a760e01b6001600160e01b03198316145b92915050565b6060610520610131610f40565b905090565b600061050d600080516020611d6f83398151915283610c12565b606061052061012f610f40565b600082815260c960205260409020600101546105688133610f54565b6105728383610fb8565b505050565b6001600160a01b03811633146105ec5760405162461bcd60e51b815260206004820152602f60248201527f416363657373436f6e74726f6c3a2063616e206f6e6c792072656e6f756e636560448201526e103937b632b9903337b91039b2b63360891b60648201526084015b60405180910390fd5b6105f6828261103e565b5050565b610603816110a5565b61061e816040518060200160405280600081525060006110d9565b50565b60fc5461010090046001600160a01b031633146106505760405162461bcd60e51b81526004016105e390611bdb565b60fc5460ff1661069b5760405162461bcd60e51b815260206004820152601660248201527510dbdb9d1c9bdb1b195c8e881b9bdd081c185d5cd95960521b60448201526064016105e3565b60fc805460ff191690556040517f5db9ee0a495bf2e6ff9c91a7834c1ba4fdd244a5e8aa4e537bd38aeae4b073aa906106d5903390611b18565b60405180910390a1565b6106e8826110a5565b6105f6828260016110d9565b6001600160a01b03808316600090815261013360205260409020600101548391161561077d5760405162461bcd60e51b815260206004820152603260248201527f4d61726b657452656769737472793a2068617320616c726561647920657869736044820152713a103a3434b9903ab9b2b926b0b730b3b2b960711b60648201526084016105e3565b610795600080516020611d6f83398151915233610c12565b6107b15760405162461bcd60e51b81526004016105e390611bac565b6001600160a01b038316158015906107d157506001600160a01b03821615155b61083b5760405162461bcd60e51b815260206004820152603560248201527f4d61726b657452656769737472793a20746f6b656e20616e6420757365724d616044820152746e616765722063616e206e6f74206265207a65726f60581b60648201526084016105e3565b61084761013183611220565b506001600160a01b03838116600081815261013360205260409081902060010180546001600160a01b0319169386169390931790925590517f081428de8cb860717cb137b42e1e2226ea2f3e6c9f6b811bc12c8d611157aaf3906108ac908590611b18565b60405180910390a2505050565b600054610100900460ff16806108d2575060005460ff16155b6108ee5760405162461bcd60e51b81526004016105e390611c5f565b600054610100900460ff16158015610910576000805461ffff19166101011790555b6001600160a01b0382166109365760405162461bcd60e51b81526004016105e390611c2d565b60fc805460ff191690556001600160a01b038216600081815260fb6020526040902080546001600160a01b0319169091179055610971611235565b610989600080516020611d6f8339815191528361129c565b60fc8054610100600160a81b0319166101006001600160a01b0385160217905580156105f6576000805461ff00191690555050565b6109d6600080516020611d6f83398151915233610c12565b6109f25760405162461bcd60e51b81526004016105e390611bac565b6001600160a01b038116610a185760405162461bcd60e51b81526004016105e390611c2d565b6001600160a01b03818116600090815260fb60205260409020541615610a8a5760405162461bcd60e51b815260206004820152602160248201527f436f6e74726f6c6c65723a2061646d696e20616c7265616479206578697374656044820152601960fa1b60648201526084016105e3565b6001600160a01b038116600081815260fb6020526040902080546001600160a01b031916909117905561061e600080516020611d6f8339815191528261129c565b60fc5461010090046001600160a01b03163314610afa5760405162461bcd60e51b81526004016105e390611bdb565b60fc5460ff1615610b425760405162461bcd60e51b815260206004820152601260248201527110dbdb9d1c9bdb1b195c8e881c185d5cd95960721b60448201526064016105e3565b60fc805460ff191660011790556040517f62e78cea01bee320cd4e420270b5ea74000d11b0c9f74754ebdbfc544b05a258906106d5903390611b18565b610b97600080516020611d6f83398151915233610c12565b610bb35760405162461bcd60e51b81526004016105e390611bac565b60fc80546001600160a01b0390921661010002610100600160a81b0319909216919091179055565b610bf3600080516020611d6f83398151915233610577565b33600090815260fb6020526040902080546001600160a01b0319169055565b600091825260c9602090815260408084206001600160a01b0393909316845291905290205460ff1690565b600054610100900460ff1680610c56575060005460ff16155b610c725760405162461bcd60e51b81526004016105e390611c5f565b600054610100900460ff16158015610c94576000805461ffff19166101011790555b610c9d336108b9565b801561061e576000805461ff001916905550565b6001600160a01b038083166000908152610133602052604090205483911615610d325760405162461bcd60e51b815260206004820152602d60248201527f4d61726b657452656769737472793a2068617320616c7265616479206578697360448201526c3a103a3434b9903aaa37b5b2b760991b60648201526084016105e3565b610d4a600080516020611d6f83398151915233610c12565b610d665760405162461bcd60e51b81526004016105e390611bac565b6001600160a01b03831615801590610d8657506001600160a01b03821615155b610deb5760405162461bcd60e51b815260206004820152603060248201527f4d61726b657452656769737472793a20746f6b656e20616e642075546f6b656e60448201526f2063616e206e6f74206265207a65726f60801b60648201526084016105e3565b610df761012f83611220565b506001600160a01b03838116600081815261013360205260409081902080546001600160a01b0319169386169390931790925590517fa8ddf380e0018e0fe64254567490e65f8df5c1e5ad620dad96349c8eecc4475c906108ac908590611b18565b600082815260c96020526040902060010154610e758133610f54565b610572838361103e565b610e97600080516020611d6f83398151915233610c12565b610eb35760405162461bcd60e51b81526004016105e390611bac565b6001600160a01b0380821660009081526101336020526040902054610edc9161012f91166112a6565b506001600160a01b0380821660009081526101336020526040902060010154610f099161013191166112a6565b506001600160a01b031660009081526101336020526040902080546001600160a01b03199081168255600190910180549091169055565b60606000610f4d836112bb565b9392505050565b610f5e8282610c12565b6105f657610f76816001600160a01b03166014611317565b610f81836020611317565b604051602001610f92929190611aa9565b60408051601f198184030181529082905262461bcd60e51b82526105e391600401611b79565b610fc28282610c12565b6105f657600082815260c9602090815260408083206001600160a01b03851684529091529020805460ff19166001179055610ffa3390565b6001600160a01b0316816001600160a01b0316837f2f8788117e7eff1d82e926ec794901d17c78024a50270940304540a733656f0d60405160405180910390a45050565b6110488282610c12565b156105f657600082815260c9602090815260408083206001600160a01b0385168085529252808320805460ff1916905551339285917ff6391f5c32d9c69d2a47ea670b442974b53935d1edc7fd64eb21e047a839171b9190a45050565b6110bd600080516020611d6f83398151915233610c12565b61061e5760405162461bcd60e51b81526004016105e390611bac565b60006110e36114f9565b90506110ee84611527565b6000835111806110fb5750815b1561110c5761110a84846115cc565b505b7f4910fdfa16fed3260ed0e7147f7cc6da11a60208b5b9406d12a635614ffd9143805460ff1661121957805460ff19166001178155604051611187908690611158908590602401611b18565b60408051601f198184030181529190526020810180516001600160e01b0316631b2ce7f360e11b1790526115cc565b50805460ff191681556111986114f9565b6001600160a01b0316826001600160a01b0316146112105760405162461bcd60e51b815260206004820152602f60248201527f45524331393637557067726164653a207570677261646520627265616b73206660448201526e75727468657220757067726164657360881b60648201526084016105e3565b611219856116b7565b5050505050565b6000610f4d836001600160a01b0384166116f7565b600054610100900460ff168061124e575060005460ff16155b61126a5760405162461bcd60e51b81526004016105e390611c5f565b600054610100900460ff1615801561128c576000805461ffff19166101011790555b611294611746565b610c9d611746565b6105f68282610fb8565b6000610f4d836001600160a01b0384166117b0565b60608160000180548060200260200160405190810160405280929190818152602001828054801561130b57602002820191906000526020600020905b8154815260200190600101908083116112f7575b50505050509050919050565b60606000611326836002611cc5565b611331906002611cad565b67ffffffffffffffff81111561135757634e487b7160e01b600052604160045260246000fd5b6040519080825280601f01601f191660200182016040528015611381576020820181803683370190505b509050600360fc1b816000815181106113aa57634e487b7160e01b600052603260045260246000fd5b60200101906001600160f81b031916908160001a905350600f60fb1b816001815181106113e757634e487b7160e01b600052603260045260246000fd5b60200101906001600160f81b031916908160001a905350600061140b846002611cc5565b611416906001611cad565b90505b60018111156114aa576f181899199a1a9b1b9c1cb0b131b232b360811b85600f166010811061145857634e487b7160e01b600052603260045260246000fd5b1a60f81b82828151811061147c57634e487b7160e01b600052603260045260246000fd5b60200101906001600160f81b031916908160001a90535060049490941c936114a381611d2b565b9050611419565b508315610f4d5760405162461bcd60e51b815260206004820181905260248201527f537472696e67733a20686578206c656e67746820696e73756666696369656e7460448201526064016105e3565b7f360894a13ba1a3210667c828492db98dca3e2076cc3735a920a3ca505d382bbc546001600160a01b031690565b803b61158b5760405162461bcd60e51b815260206004820152602d60248201527f455243313936373a206e657720696d706c656d656e746174696f6e206973206e60448201526c1bdd08184818dbdb9d1c9858dd609a1b60648201526084016105e3565b7f360894a13ba1a3210667c828492db98dca3e2076cc3735a920a3ca505d382bbc80546001600160a01b0319166001600160a01b0392909216919091179055565b6060823b61162b5760405162461bcd60e51b815260206004820152602660248201527f416464726573733a2064656c65676174652063616c6c20746f206e6f6e2d636f6044820152651b9d1c9858dd60d21b60648201526084016105e3565b600080846001600160a01b0316846040516116469190611a8d565b600060405180830381855af49150503d8060008114611681576040519150601f19603f3d011682016040523d82523d6000602084013e611686565b606091505b50915091506116ae8282604051806060016040528060278152602001611d8f602791396118cd565b95945050505050565b6116c081611527565b6040516001600160a01b038216907fbc7cd75a20ee27fd9adebab32041f755214dbc6bffa90cc0225b39da2e5c2d3b90600090a250565b600081815260018301602052604081205461173e5750815460018181018455600084815260208082209093018490558454848252828601909352604090209190915561050d565b50600061050d565b600054610100900460ff168061175f575060005460ff16155b61177b5760405162461bcd60e51b81526004016105e390611c5f565b600054610100900460ff16158015610c9d576000805461ffff1916610101179055801561061e576000805461ff001916905550565b600081815260018301602052604081205480156118c35760006117d4600183611ce4565b85549091506000906117e890600190611ce4565b905081811461186957600086600001828154811061181657634e487b7160e01b600052603260045260246000fd5b906000526020600020015490508087600001848154811061184757634e487b7160e01b600052603260045260246000fd5b6000918252602080832090910192909255918252600188019052604090208390555b855486908061188857634e487b7160e01b600052603160045260246000fd5b60019003818190600052602060002001600090559055856001016000868152602001908152602001600020600090556001935050505061050d565b600091505061050d565b606083156118dc575081610f4d565b8251156118ec5782518084602001fd5b8160405162461bcd60e51b81526004016105e39190611b79565b80356001600160a01b038116811461191d57600080fd5b919050565b600060208284031215611933578081fd5b610f4d82611906565b6000806040838503121561194e578081fd5b61195783611906565b915061196560208401611906565b90509250929050565b60008060408385031215611980578182fd5b61198983611906565b9150602083013567ffffffffffffffff808211156119a5578283fd5b818501915085601f8301126119b8578283fd5b8135818111156119ca576119ca611d58565b604051601f8201601f19908116603f011681019083821181831017156119f2576119f2611d58565b81604052828152886020848701011115611a0a578586fd5b82602086016020830137856020848301015280955050505050509250929050565b600060208284031215611a3c578081fd5b5035919050565b60008060408385031215611a55578182fd5b8235915061196560208401611906565b600060208284031215611a76578081fd5b81356001600160e01b031981168114610f4d578182fd5b60008251611a9f818460208701611cfb565b9190910192915050565b76020b1b1b2b9b9a1b7b73a3937b61d1030b1b1b7bab73a1604d1b815260008351611adb816017850160208801611cfb565b7001034b99036b4b9b9b4b733903937b6329607d1b6017918401918201528351611b0c816028840160208801611cfb565b01602801949350505050565b6001600160a01b0391909116815260200190565b6020808252825182820181905260009190848201906040850190845b81811015611b6d5783516001600160a01b031683529284019291840191600101611b48565b50909695505050505050565b6020815260008251806020840152611b98816040850160208701611cfb565b601f01601f19169190910160400192915050565b60208082526015908201527421b7b73a3937b63632b91d103737ba1030b236b4b760591b604082015260600190565b60208082526032908201527f436f6e74726f6c6c65723a2063616c6c657220646f6573206e6f7420686176656040820152712074686520677561726469616e20726f6c6560701b606082015260800190565b602080825260189082015277436f6e74726f6c6c65723a2061646472657373207a65726f60401b604082015260600190565b6020808252602e908201527f496e697469616c697a61626c653a20636f6e747261637420697320616c72656160408201526d191e481a5b9a5d1a585b1a5e995960921b606082015260800190565b60008219821115611cc057611cc0611d42565b500190565b6000816000190483118215151615611cdf57611cdf611d42565b500290565b600082821015611cf657611cf6611d42565b500390565b60005b83811015611d16578181015183820152602001611cfe565b83811115611d25576000848401525b50505050565b600081611d3a57611d3a611d42565b506000190190565b634e487b7160e01b600052601160045260246000fd5b634e487b7160e01b600052604160045260246000fdfe2172861495e7b85edac73e3cd5fbb42dd675baadf627720e687bcfdaca025096416464726573733a206c6f772d6c6576656c2064656c65676174652063616c6c206661696c6564a26469706673582212200fe4017f692ee590620925552d965fdf3557a8d05e527bba628ad07e58e7b78b64736f6c63430008040033",
  "devdoc": {
    "details": "Registering and managing all the lending markets.",
    "kind": "dev",
    "methods": {
      "__MarketRegistry_init()": {
        "details": "Initialization function"
      },
      "addAdmin(address)": {
        "details": "Add a new admin account",
        "params": {
          "account": "Account address"
        }
      },
      "getRoleAdmin(bytes32)": {
        "details": "Returns the admin role that controls `role`. See {grantRole} and {revokeRole}. To change a role's admin, use {_setRoleAdmin}."
      },
      "getUTokens()": {
        "details": "Retrieves the value of the state variable `uTokenList`",
        "returns": {
          "_0": "Stored uToken address"
        }
      },
      "grantRole(bytes32,address)": {
        "details": "Grants `role` to `account`. If `account` had not been already granted `role`, emits a {RoleGranted} event. Requirements: - the caller must have ``role``'s admin role."
      },
      "hasRole(bytes32,address)": {
        "details": "Returns `true` if `account` has been granted `role`."
      },
      "isAdmin(address)": {
        "details": "Check if the address provided is the admin",
        "params": {
          "account": "Account address"
        }
      },
      "pause()": {
        "details": "Called by a pauser to pause, triggers stopped state."
      },
      "paused()": {
        "details": "Returns true if the contract is paused, and false otherwise."
      },
      "renounceAdmin()": {
        "details": "Renouce the admin from the sender's address"
      },
      "renounceRole(bytes32,address)": {
        "details": "Revokes `role` from the calling account. Roles are often managed via {grantRole} and {revokeRole}: this function's purpose is to provide a mechanism for accounts to lose their privileges if they are compromised (such as when a trusted device is misplaced). If the calling account had been granted `role`, emits a {RoleRevoked} event. Requirements: - the caller must be `account`."
      },
      "revokeRole(bytes32,address)": {
        "details": "Revokes `role` from `account`. If `account` had been granted `role`, emits a {RoleRevoked} event. Requirements: - the caller must have ``role``'s admin role."
      },
      "setGuardian(address)": {
        "details": "Set pauseGuardian account",
        "params": {
          "account": "Account address"
        }
      },
      "supportsInterface(bytes4)": {
        "details": "See {IERC165-supportsInterface}."
      },
      "unpause()": {
        "details": "Called by a pauser to unpause, returns to normal state."
      },
      "upgradeTo(address)": {
        "details": "Upgrade the implementation of the proxy to `newImplementation`. Calls {_authorizeUpgrade}. Emits an {Upgraded} event."
      },
      "upgradeToAndCall(address,bytes)": {
        "details": "Upgrade the implementation of the proxy to `newImplementation`, and subsequently execute the function call encoded in `data`. Calls {_authorizeUpgrade}. Emits an {Upgraded} event."
      }
    },
    "title": "MarketRegistry Contract",
    "version": 1
  },
  "userdoc": {
    "kind": "user",
    "methods": {},
    "version": 1
  },
  "storageLayout": {
    "storage": [
      {
        "astId": 821,
        "contract": "contracts/market/MarketRegistry.sol:MarketRegistry",
        "label": "_initialized",
        "offset": 0,
        "slot": "0",
        "type": "t_bool"
      },
      {
        "astId": 824,
        "contract": "contracts/market/MarketRegistry.sol:MarketRegistry",
        "label": "_initializing",
        "offset": 1,
        "slot": "0",
        "type": "t_bool"
      },
      {
        "astId": 804,
        "contract": "contracts/market/MarketRegistry.sol:MarketRegistry",
        "label": "__gap",
        "offset": 0,
        "slot": "1",
        "type": "t_array(t_uint256)50_storage"
      },
      {
        "astId": 937,
        "contract": "contracts/market/MarketRegistry.sol:MarketRegistry",
        "label": "__gap",
        "offset": 0,
        "slot": "51",
        "type": "t_array(t_uint256)50_storage"
      },
      {
        "astId": 2184,
        "contract": "contracts/market/MarketRegistry.sol:MarketRegistry",
        "label": "__gap",
        "offset": 0,
        "slot": "101",
        "type": "t_array(t_uint256)50_storage"
      },
      {
        "astId": 2493,
        "contract": "contracts/market/MarketRegistry.sol:MarketRegistry",
        "label": "__gap",
        "offset": 0,
        "slot": "151",
        "type": "t_array(t_uint256)50_storage"
      },
      {
        "astId": 48,
        "contract": "contracts/market/MarketRegistry.sol:MarketRegistry",
        "label": "_roles",
        "offset": 0,
        "slot": "201",
        "type": "t_mapping(t_bytes32,t_struct(RoleData)43_storage)"
      },
      {
        "astId": 333,
        "contract": "contracts/market/MarketRegistry.sol:MarketRegistry",
        "label": "__gap",
        "offset": 0,
        "slot": "202",
        "type": "t_array(t_uint256)49_storage"
      },
      {
        "astId": 11052,
        "contract": "contracts/market/MarketRegistry.sol:MarketRegistry",
        "label": "_admins",
        "offset": 0,
        "slot": "251",
        "type": "t_mapping(t_address,t_address)"
      },
      {
        "astId": 11054,
        "contract": "contracts/market/MarketRegistry.sol:MarketRegistry",
        "label": "_paused",
        "offset": 0,
        "slot": "252",
        "type": "t_bool"
      },
      {
        "astId": 11056,
        "contract": "contracts/market/MarketRegistry.sol:MarketRegistry",
        "label": "pauseGuardian",
        "offset": 1,
        "slot": "252",
        "type": "t_address"
      },
      {
        "astId": 11296,
        "contract": "contracts/market/MarketRegistry.sol:MarketRegistry",
        "label": "______gap",
        "offset": 0,
        "slot": "253",
        "type": "t_array(t_uint256)50_storage"
      },
      {
        "astId": 16014,
        "contract": "contracts/market/MarketRegistry.sol:MarketRegistry",
        "label": "uTokenList",
        "offset": 0,
        "slot": "303",
        "type": "t_struct(AddressSet)10744_storage"
      },
      {
        "astId": 16017,
        "contract": "contracts/market/MarketRegistry.sol:MarketRegistry",
        "label": "userManagerList",
        "offset": 0,
        "slot": "305",
        "type": "t_struct(AddressSet)10744_storage"
      },
      {
        "astId": 16022,
        "contract": "contracts/market/MarketRegistry.sol:MarketRegistry",
        "label": "tokens",
        "offset": 0,
        "slot": "307",
        "type": "t_mapping(t_address,t_struct(Market)16011_storage)"
      }
    ],
    "types": {
      "t_address": {
        "encoding": "inplace",
        "label": "address",
        "numberOfBytes": "20"
      },
      "t_array(t_bytes32)dyn_storage": {
        "base": "t_bytes32",
        "encoding": "dynamic_array",
        "label": "bytes32[]",
        "numberOfBytes": "32"
      },
      "t_array(t_uint256)49_storage": {
        "base": "t_uint256",
        "encoding": "inplace",
        "label": "uint256[49]",
        "numberOfBytes": "1568"
      },
      "t_array(t_uint256)50_storage": {
        "base": "t_uint256",
        "encoding": "inplace",
        "label": "uint256[50]",
        "numberOfBytes": "1600"
      },
      "t_bool": {
        "encoding": "inplace",
        "label": "bool",
        "numberOfBytes": "1"
      },
      "t_bytes32": {
        "encoding": "inplace",
        "label": "bytes32",
        "numberOfBytes": "32"
      },
      "t_mapping(t_address,t_address)": {
        "encoding": "mapping",
        "key": "t_address",
        "label": "mapping(address => address)",
        "numberOfBytes": "32",
        "value": "t_address"
      },
      "t_mapping(t_address,t_bool)": {
        "encoding": "mapping",
        "key": "t_address",
        "label": "mapping(address => bool)",
        "numberOfBytes": "32",
        "value": "t_bool"
      },
      "t_mapping(t_address,t_struct(Market)16011_storage)": {
        "encoding": "mapping",
        "key": "t_address",
        "label": "mapping(address => struct MarketRegistry.Market)",
        "numberOfBytes": "32",
        "value": "t_struct(Market)16011_storage"
      },
      "t_mapping(t_bytes32,t_struct(RoleData)43_storage)": {
        "encoding": "mapping",
        "key": "t_bytes32",
        "label": "mapping(bytes32 => struct AccessControlUpgradeable.RoleData)",
        "numberOfBytes": "32",
        "value": "t_struct(RoleData)43_storage"
      },
      "t_mapping(t_bytes32,t_uint256)": {
        "encoding": "mapping",
        "key": "t_bytes32",
        "label": "mapping(bytes32 => uint256)",
        "numberOfBytes": "32",
        "value": "t_uint256"
      },
      "t_struct(AddressSet)10744_storage": {
        "encoding": "inplace",
        "label": "struct EnumerableSet.AddressSet",
        "members": [
          {
            "astId": 10743,
            "contract": "contracts/market/MarketRegistry.sol:MarketRegistry",
            "label": "_inner",
            "offset": 0,
            "slot": "0",
            "type": "t_struct(Set)10443_storage"
          }
        ],
        "numberOfBytes": "64"
      },
      "t_struct(Market)16011_storage": {
        "encoding": "inplace",
        "label": "struct MarketRegistry.Market",
        "members": [
          {
            "astId": 16008,
            "contract": "contracts/market/MarketRegistry.sol:MarketRegistry",
            "label": "uToken",
            "offset": 0,
            "slot": "0",
            "type": "t_address"
          },
          {
            "astId": 16010,
            "contract": "contracts/market/MarketRegistry.sol:MarketRegistry",
            "label": "userManager",
            "offset": 0,
            "slot": "1",
            "type": "t_address"
          }
        ],
        "numberOfBytes": "64"
      },
      "t_struct(RoleData)43_storage": {
        "encoding": "inplace",
        "label": "struct AccessControlUpgradeable.RoleData",
        "members": [
          {
            "astId": 40,
            "contract": "contracts/market/MarketRegistry.sol:MarketRegistry",
            "label": "members",
            "offset": 0,
            "slot": "0",
            "type": "t_mapping(t_address,t_bool)"
          },
          {
            "astId": 42,
            "contract": "contracts/market/MarketRegistry.sol:MarketRegistry",
            "label": "adminRole",
            "offset": 0,
            "slot": "1",
            "type": "t_bytes32"
          }
        ],
        "numberOfBytes": "64"
      },
      "t_struct(Set)10443_storage": {
        "encoding": "inplace",
        "label": "struct EnumerableSet.Set",
        "members": [
          {
            "astId": 10438,
            "contract": "contracts/market/MarketRegistry.sol:MarketRegistry",
            "label": "_values",
            "offset": 0,
            "slot": "0",
            "type": "t_array(t_bytes32)dyn_storage"
          },
          {
            "astId": 10442,
            "contract": "contracts/market/MarketRegistry.sol:MarketRegistry",
            "label": "_indexes",
            "offset": 0,
            "slot": "1",
            "type": "t_mapping(t_bytes32,t_uint256)"
          }
        ],
        "numberOfBytes": "64"
      },
      "t_uint256": {
        "encoding": "inplace",
        "label": "uint256",
        "numberOfBytes": "32"
      }
    }
  }
}