{
  "address": "0xeF83f4325d4F603dd1ff2D24aCCbeAF926d9194D",
  "abi": [
    {
      "anonymous": false,
      "inputs": [
        {
          "indexed": false,
          "internalType": "address",
          "name": "previousAdmin",
          "type": "address"
        },
        {
          "indexed": false,
          "internalType": "address",
          "name": "newAdmin",
          "type": "address"
        }
      ],
      "name": "AdminChanged",
      "type": "event"
    },
    {
      "anonymous": false,
      "inputs": [
        {
          "indexed": true,
          "internalType": "address",
          "name": "beacon",
          "type": "address"
        }
      ],
      "name": "BeaconUpgraded",
      "type": "event"
    },
    {
      "anonymous": false,
      "inputs": [
        {
          "indexed": false,
          "internalType": "address",
          "name": "account",
          "type": "address"
        }
      ],
      "name": "Paused",
      "type": "event"
    },
    {
      "anonymous": false,
      "inputs": [
        {
          "indexed": true,
          "internalType": "bytes32",
          "name": "role",
          "type": "bytes32"
        },
        {
          "indexed": true,
          "internalType": "bytes32",
          "name": "previousAdminRole",
          "type": "bytes32"
        },
        {
          "indexed": true,
          "internalType": "bytes32",
          "name": "newAdminRole",
          "type": "bytes32"
        }
      ],
      "name": "RoleAdminChanged",
      "type": "event"
    },
    {
      "anonymous": false,
      "inputs": [
        {
          "indexed": true,
          "internalType": "bytes32",
          "name": "role",
          "type": "bytes32"
        },
        {
          "indexed": true,
          "internalType": "address",
          "name": "account",
          "type": "address"
        },
        {
          "indexed": true,
          "internalType": "address",
          "name": "sender",
          "type": "address"
        }
      ],
      "name": "RoleGranted",
      "type": "event"
    },
    {
      "anonymous": false,
      "inputs": [
        {
          "indexed": true,
          "internalType": "bytes32",
          "name": "role",
          "type": "bytes32"
        },
        {
          "indexed": true,
          "internalType": "address",
          "name": "account",
          "type": "address"
        },
        {
          "indexed": true,
          "internalType": "address",
          "name": "sender",
          "type": "address"
        }
      ],
      "name": "RoleRevoked",
      "type": "event"
    },
    {
      "anonymous": false,
      "inputs": [
        {
          "indexed": false,
          "internalType": "address",
          "name": "account",
          "type": "address"
        }
      ],
      "name": "Unpaused",
      "type": "event"
    },
    {
      "anonymous": false,
      "inputs": [
        {
          "indexed": true,
          "internalType": "address",
          "name": "implementation",
          "type": "address"
        }
      ],
      "name": "Upgraded",
      "type": "event"
    },
    {
      "inputs": [],
      "name": "DEFAULT_ADMIN_ROLE",
      "outputs": [
        {
          "internalType": "bytes32",
          "name": "",
          "type": "bytes32"
        }
      ],
      "stateMutability": "view",
      "type": "function"
    },
    {
      "inputs": [],
      "name": "ROLE_ADMIN",
      "outputs": [
        {
          "internalType": "bytes32",
          "name": "",
          "type": "bytes32"
        }
      ],
      "stateMutability": "view",
      "type": "function"
    },
    {
      "inputs": [
        {
          "internalType": "address",
          "name": "admin_",
          "type": "address"
        }
      ],
      "name": "__Controller_init",
      "outputs": [],
      "stateMutability": "nonpayable",
      "type": "function"
    },
    {
      "inputs": [
        {
          "internalType": "address",
          "name": "_assetManager",
          "type": "address"
        }
      ],
      "name": "__PureTokenAdapter_init",
      "outputs": [],
      "stateMutability": "nonpayable",
      "type": "function"
    },
    {
      "inputs": [
        {
          "internalType": "address",
          "name": "account",
          "type": "address"
        }
      ],
      "name": "addAdmin",
      "outputs": [],
      "stateMutability": "nonpayable",
      "type": "function"
    },
    {
      "inputs": [],
      "name": "assetManager",
      "outputs": [
        {
          "internalType": "address",
          "name": "",
          "type": "address"
        }
      ],
      "stateMutability": "view",
      "type": "function"
    },
    {
      "inputs": [
        {
          "internalType": "address",
          "name": "",
          "type": "address"
        }
      ],
      "name": "ceilingMap",
      "outputs": [
        {
          "internalType": "uint256",
          "name": "",
          "type": "uint256"
        }
      ],
      "stateMutability": "view",
      "type": "function"
    },
    {
      "inputs": [
        {
          "internalType": "address",
          "name": "tokenAddress",
          "type": "address"
        },
        {
          "internalType": "address",
          "name": "recipient",
          "type": "address"
        }
      ],
      "name": "claimTokens",
      "outputs": [],
      "stateMutability": "nonpayable",
      "type": "function"
    },
    {
      "inputs": [
        {
          "internalType": "address",
          "name": "tokenAddress",
          "type": "address"
        }
      ],
      "name": "deposit",
      "outputs": [],
      "stateMutability": "view",
      "type": "function"
    },
    {
      "inputs": [
        {
          "internalType": "address",
          "name": "",
          "type": "address"
        }
      ],
      "name": "floorMap",
      "outputs": [
        {
          "internalType": "uint256",
          "name": "",
          "type": "uint256"
        }
      ],
      "stateMutability": "view",
      "type": "function"
    },
    {
      "inputs": [
        {
          "internalType": "address",
          "name": "",
          "type": "address"
        }
      ],
      "name": "getRate",
      "outputs": [
        {
          "internalType": "uint256",
          "name": "",
          "type": "uint256"
        }
      ],
      "stateMutability": "pure",
      "type": "function"
    },
    {
      "inputs": [
        {
          "internalType": "bytes32",
          "name": "role",
          "type": "bytes32"
        }
      ],
      "name": "getRoleAdmin",
      "outputs": [
        {
          "internalType": "bytes32",
          "name": "",
          "type": "bytes32"
        }
      ],
      "stateMutability": "view",
      "type": "function"
    },
    {
      "inputs": [
        {
          "internalType": "address",
          "name": "tokenAddress",
          "type": "address"
        }
      ],
      "name": "getSupply",
      "outputs": [
        {
          "internalType": "uint256",
          "name": "",
          "type": "uint256"
        }
      ],
      "stateMutability": "view",
      "type": "function"
    },
    {
      "inputs": [
        {
          "internalType": "address",
          "name": "tokenAddress",
          "type": "address"
        }
      ],
      "name": "getSupplyView",
      "outputs": [
        {
          "internalType": "uint256",
          "name": "",
          "type": "uint256"
        }
      ],
      "stateMutability": "view",
      "type": "function"
    },
    {
      "inputs": [
        {
          "internalType": "bytes32",
          "name": "role",
          "type": "bytes32"
        },
        {
          "internalType": "address",
          "name": "account",
          "type": "address"
        }
      ],
      "name": "grantRole",
      "outputs": [],
      "stateMutability": "nonpayable",
      "type": "function"
    },
    {
      "inputs": [
        {
          "internalType": "bytes32",
          "name": "role",
          "type": "bytes32"
        },
        {
          "internalType": "address",
          "name": "account",
          "type": "address"
        }
      ],
      "name": "hasRole",
      "outputs": [
        {
          "internalType": "bool",
          "name": "",
          "type": "bool"
        }
      ],
      "stateMutability": "view",
      "type": "function"
    },
    {
      "inputs": [
        {
          "internalType": "address",
          "name": "account",
          "type": "address"
        }
      ],
      "name": "isAdmin",
      "outputs": [
        {
          "internalType": "bool",
          "name": "",
          "type": "bool"
        }
      ],
      "stateMutability": "view",
      "type": "function"
    },
    {
      "inputs": [],
      "name": "pause",
      "outputs": [],
      "stateMutability": "nonpayable",
      "type": "function"
    },
    {
      "inputs": [],
      "name": "pauseGuardian",
      "outputs": [
        {
          "internalType": "address",
          "name": "",
          "type": "address"
        }
      ],
      "stateMutability": "view",
      "type": "function"
    },
    {
      "inputs": [],
      "name": "paused",
      "outputs": [
        {
          "internalType": "bool",
          "name": "",
          "type": "bool"
        }
      ],
      "stateMutability": "view",
      "type": "function"
    },
    {
      "inputs": [],
      "name": "renounceAdmin",
      "outputs": [],
      "stateMutability": "nonpayable",
      "type": "function"
    },
    {
      "inputs": [
        {
          "internalType": "bytes32",
          "name": "role",
          "type": "bytes32"
        },
        {
          "internalType": "address",
          "name": "account",
          "type": "address"
        }
      ],
      "name": "renounceRole",
      "outputs": [],
      "stateMutability": "nonpayable",
      "type": "function"
    },
    {
      "inputs": [
        {
          "internalType": "bytes32",
          "name": "role",
          "type": "bytes32"
        },
        {
          "internalType": "address",
          "name": "account",
          "type": "address"
        }
      ],
      "name": "revokeRole",
      "outputs": [],
      "stateMutability": "nonpayable",
      "type": "function"
    },
    {
      "inputs": [
        {
          "internalType": "address",
          "name": "_assetManager",
          "type": "address"
        }
      ],
      "name": "setAssetManager",
      "outputs": [],
      "stateMutability": "nonpayable",
      "type": "function"
    },
    {
      "inputs": [
        {
          "internalType": "address",
          "name": "tokenAddress",
          "type": "address"
        },
        {
          "internalType": "uint256",
          "name": "ceiling",
          "type": "uint256"
        }
      ],
      "name": "setCeiling",
      "outputs": [],
      "stateMutability": "nonpayable",
      "type": "function"
    },
    {
      "inputs": [
        {
          "internalType": "address",
          "name": "tokenAddress",
          "type": "address"
        },
        {
          "internalType": "uint256",
          "name": "floor",
          "type": "uint256"
        }
      ],
      "name": "setFloor",
      "outputs": [],
      "stateMutability": "nonpayable",
      "type": "function"
    },
    {
      "inputs": [
        {
          "internalType": "address",
          "name": "account",
          "type": "address"
        }
      ],
      "name": "setGuardian",
      "outputs": [],
      "stateMutability": "nonpayable",
      "type": "function"
    },
    {
      "inputs": [
        {
          "internalType": "bytes4",
          "name": "interfaceId",
          "type": "bytes4"
        }
      ],
      "name": "supportsInterface",
      "outputs": [
        {
          "internalType": "bool",
          "name": "",
          "type": "bool"
        }
      ],
      "stateMutability": "view",
      "type": "function"
    },
    {
      "inputs": [
        {
          "internalType": "address",
          "name": "tokenAddress",
          "type": "address"
        }
      ],
      "name": "supportsToken",
      "outputs": [
        {
          "internalType": "bool",
          "name": "",
          "type": "bool"
        }
      ],
      "stateMutability": "view",
      "type": "function"
    },
    {
      "inputs": [],
      "name": "unpause",
      "outputs": [],
      "stateMutability": "nonpayable",
      "type": "function"
    },
    {
      "inputs": [
        {
          "internalType": "address",
          "name": "newImplementation",
          "type": "address"
        }
      ],
      "name": "upgradeTo",
      "outputs": [],
      "stateMutability": "nonpayable",
      "type": "function"
    },
    {
      "inputs": [
        {
          "internalType": "address",
          "name": "newImplementation",
          "type": "address"
        },
        {
          "internalType": "bytes",
          "name": "data",
          "type": "bytes"
        }
      ],
      "name": "upgradeToAndCall",
      "outputs": [],
      "stateMutability": "payable",
      "type": "function"
    },
    {
      "inputs": [
        {
          "internalType": "address",
          "name": "tokenAddress",
          "type": "address"
        },
        {
          "internalType": "address",
          "name": "recipient",
          "type": "address"
        },
        {
          "internalType": "uint256",
          "name": "tokenAmount",
          "type": "uint256"
        }
      ],
      "name": "withdraw",
      "outputs": [],
      "stateMutability": "nonpayable",
      "type": "function"
    },
    {
      "inputs": [
        {
          "internalType": "address",
          "name": "tokenAddress",
          "type": "address"
        },
        {
          "internalType": "address",
          "name": "recipient",
          "type": "address"
        }
      ],
      "name": "withdrawAll",
      "outputs": [],
      "stateMutability": "nonpayable",
      "type": "function"
    }
  ],
  "transactionHash": "0x50d670c5f11c5b9f0af6318ffa0f326f9305abc69681524394192a12203ba2e1",
  "args": [],
  "solcInputHash": "1bad13edcd3c88f2ca9238985c18d480",
  "bytecode": "0x608060405234801561001057600080fd5b50612181806100206000396000f3fe6080604052600436106101b95760003560e01c806369ffa08a116100ed57806391d148541161009057806391d148541461073b57806394217ad114610774578063a217fddf14610795578063c99c7d93146107aa578063d391014b146107e3578063d547741f14610805578063d9caed121461083e578063ed8a1e54146102a9578063f340fa011461088157600080fd5b806369ffa08a146105c35780636c00c7f0146105fe5780636c461a7314610637578063704802751461066a5780638456cb591461069d5780638a0dac4a146106b25780638bad0c0a146106e5578063904d3261146106fa57600080fd5b80632f2ff15d116101605780632f2ff15d1461039c578063363f68ce146103d557806336568abe146104165780633659cfe61461044f57806337cef791146104825780633f4ba83a146104ad57806343060237146104c25780634f1ef286146104f55780635c975abb146105ab57600080fd5b806301ffc9a7146101be578063061f76501461020657806309b12ff51461023957806309cae2c81461026e5780631fd433aa146102a9578063248a9ca3146102ee57806324a3d6221461032857806324d7806c14610369575b600080fd5b3480156101ca57600080fd5b506101f2600480360360208110156101e157600080fd5b50356001600160e01b0319166108b4565b604080519115158252519081900360200190f35b34801561021257600080fd5b506101f26004803603602081101561022957600080fd5b50356001600160a01b03166108eb565b34801561024557600080fd5b5061026c6004803603602081101561025c57600080fd5b50356001600160a01b03166108f6565b005b34801561027a57600080fd5b5061026c6004803603604081101561029157600080fd5b506001600160a01b0381358116916020013516610991565b3480156102b557600080fd5b506102dc600480360360208110156102cc57600080fd5b50356001600160a01b0316610ab9565b60408051918252519081900360200190f35b3480156102fa57600080fd5b506102dc6004803603602081101561031157600080fd5b5035600090815260c9602052604090206001015490565b34801561033457600080fd5b5060fc5461034d9061010090046001600160a01b031681565b604080516001600160a01b039092168252519081900360200190f35b34801561037557600080fd5b506101f26004803603602081101561038c57600080fd5b50356001600160a01b0316610b37565b3480156103a857600080fd5b5061026c600480360360408110156103bf57600080fd5b50803590602001356001600160a01b0316610b51565b3480156103e157600080fd5b506102dc600480360360208110156103f857600080fd5b50610131602052356001600160a01b03166000908152604090205481565b34801561042257600080fd5b5061026c6004803603604081101561043957600080fd5b50803590602001356001600160a01b0316610b7c565b34801561045b57600080fd5b5061026c6004803603602081101561047257600080fd5b50356001600160a01b0316610bf6565b34801561048e57600080fd5b506102dc600480360360208110156104a557600080fd5b506000919050565b3480156104b957600080fd5b5061026c610c1d565b3480156104ce57600080fd5b5061026c600480360360208110156104e557600080fd5b50356001600160a01b0316610cdb565b61026c6004803603604081101561050b57600080fd5b6001600160a01b03823516919081019060408101602082013564010000000081111561053657600080fd5b82018360208201111561054857600080fd5b8035906020019184600183028401116401000000008311171561056a57600080fd5b91908080601f016020809104026020016040519081016040528093929190818152602001838380828437600092019190915250929550610d32945050505050565b3480156105b757600080fd5b5060fc5460ff166101f2565b3480156105cf57600080fd5b5061026c600480360360408110156105e657600080fd5b506001600160a01b0381358116916020013516610d47565b34801561060a57600080fd5b5061026c6004803603604081101561062157600080fd5b506001600160a01b038135169060200135610d9b565b34801561064357600080fd5b5061026c6004803603602081101561065a57600080fd5b50356001600160a01b0316610dec565b34801561067657600080fd5b5061026c6004803603602081101561068d57600080fd5b50356001600160a01b0316610ef1565b3480156106a957600080fd5b5061026c610ffe565b3480156106be57600080fd5b5061026c600480360360208110156106d557600080fd5b50356001600160a01b03166110b2565b3480156106f157600080fd5b5061026c61110e565b34801561070657600080fd5b506102dc6004803603602081101561071d57600080fd5b50610130602052356001600160a01b03166000908152604090205481565b34801561074757600080fd5b506101f26004803603604081101561075e57600080fd5b50803590602001356001600160a01b0316611145565b34801561078057600080fd5b5061012f5461034d906001600160a01b031681565b3480156107a157600080fd5b506102dc600081565b3480156107b657600080fd5b5061026c600480360360408110156107cd57600080fd5b506001600160a01b038135169060200135611170565b3480156107ef57600080fd5b506102dc60008051602061210583398151915281565b34801561081157600080fd5b5061026c6004803603604081101561082857600080fd5b50803590602001356001600160a01b03166111c1565b34801561084a57600080fd5b5061026c6004803603606081101561086157600080fd5b506001600160a01b038135811691602081013590911690604001356111e7565b34801561088d57600080fd5b5061026c600480360360208110156108a457600080fd5b50356001600160a01b0316611292565b60006001600160e01b03198216637965db0b60e01b14806108e557506301ffc9a760e01b6001600160e01b03198316145b92915050565b60006108e5826112d7565b600054610100900460ff168061090f575060005460ff16155b6109345760405162461bcd60e51b815260040161092b90611fd4565b60405180910390fd5b600054610100900460ff16158015610956576000805461ffff19166101011790555b61095f33610dec565b61012f80546001600160a01b0319166001600160a01b038416179055801561098d576000805461ff00191690555b5050565b61012f546001600160a01b031633146109db5760405162461bcd60e51b815260040180806020018281038252602d8152602001806120d8602d913960400191505060405180910390fd5b816109e5816112d7565b610a205760405162461bcd60e51b81526004018080602001828103825260258152602001806120b36025913960400191505060405180910390fd5b6000839050610ab383826001600160a01b03166370a08231306040518263ffffffff1660e01b815260040180826001600160a01b0316815260200191505060206040518083038186803b158015610a7657600080fd5b505afa158015610a8a573d6000803e3d6000fd5b505050506040513d6020811015610aa057600080fd5b50516001600160a01b0384169190611372565b50505050565b604080516370a0823160e01b8152306004820152905160009183916001600160a01b038316916370a08231916024808301926020929190829003018186803b158015610b0457600080fd5b505afa158015610b18573d6000803e3d6000fd5b505050506040513d6020811015610b2e57600080fd5b50519392505050565b60006108e560008051602061210583398151915283611145565b600082815260c96020526040902060010154610b6d81336113c4565b610b778383611428565b505050565b6001600160a01b0381163314610bec5760405162461bcd60e51b815260206004820152602f60248201527f416363657373436f6e74726f6c3a2063616e206f6e6c792072656e6f756e636560448201526e103937b632b9903337b91039b2b63360891b606482015260840161092b565b61098d82826114ae565b610bff81611515565b610c1a81604051806020016040528060008152506000611549565b50565b60fc5461010090046001600160a01b03163314610c4c5760405162461bcd60e51b815260040161092b90611f50565b60fc5460ff16610c975760405162461bcd60e51b815260206004820152601660248201527510dbdb9d1c9bdb1b195c8e881b9bdd081c185d5cd95960521b604482015260640161092b565b60fc805460ff191690556040517f5db9ee0a495bf2e6ff9c91a7834c1ba4fdd244a5e8aa4e537bd38aeae4b073aa90610cd1903390611eda565b60405180910390a1565b610cf360008051602061210583398151915233611145565b610d0f5760405162461bcd60e51b815260040161092b90611f21565b61012f80546001600160a01b0319166001600160a01b0392909216919091179055565b610d3b82611515565b61098d82826001611549565b61012f546001600160a01b03163314610d915760405162461bcd60e51b815260040180806020018281038252602d8152602001806120d8602d913960400191505060405180910390fd5b61098d8282611689565b610db360008051602061210583398151915233611145565b610dcf5760405162461bcd60e51b815260040161092b90611f21565b6001600160a01b0390911660009081526101316020526040902055565b600054610100900460ff1680610e05575060005460ff16155b610e215760405162461bcd60e51b815260040161092b90611fd4565b600054610100900460ff16158015610e43576000805461ffff19166101011790555b6001600160a01b038216610e695760405162461bcd60e51b815260040161092b90611fa2565b60fc805460ff191690556001600160a01b038216600081815260fb6020526040902080546001600160a01b0319169091179055610ea4611716565b610ebc60008051602061210583398151915283611791565b60fc8054610100600160a81b0319166101006001600160a01b03851602179055801561098d576000805461ff00191690555050565b610f0960008051602061210583398151915233611145565b610f255760405162461bcd60e51b815260040161092b90611f21565b6001600160a01b038116610f4b5760405162461bcd60e51b815260040161092b90611fa2565b6001600160a01b03818116600090815260fb60205260409020541615610fbd5760405162461bcd60e51b815260206004820152602160248201527f436f6e74726f6c6c65723a2061646d696e20616c7265616479206578697374656044820152601960fa1b606482015260840161092b565b6001600160a01b038116600081815260fb6020526040902080546001600160a01b0319169091179055610c1a60008051602061210583398151915282611791565b60fc5461010090046001600160a01b0316331461102d5760405162461bcd60e51b815260040161092b90611f50565b60fc5460ff16156110755760405162461bcd60e51b815260206004820152601260248201527110dbdb9d1c9bdb1b195c8e881c185d5cd95960721b604482015260640161092b565b60fc805460ff191660011790556040517f62e78cea01bee320cd4e420270b5ea74000d11b0c9f74754ebdbfc544b05a25890610cd1903390611eda565b6110ca60008051602061210583398151915233611145565b6110e65760405162461bcd60e51b815260040161092b90611f21565b60fc80546001600160a01b0390921661010002610100600160a81b0319909216919091179055565b61112660008051602061210583398151915233610b7c565b33600090815260fb6020526040902080546001600160a01b0319169055565b600091825260c9602090815260408084206001600160a01b0393909316845291905290205460ff1690565b61118860008051602061210583398151915233611145565b6111a45760405162461bcd60e51b815260040161092b90611f21565b6001600160a01b0390911660009081526101306020526040902055565b600082815260c960205260409020600101546111dd81336113c4565b610b7783836114ae565b61012f546001600160a01b031633146112315760405162461bcd60e51b815260040180806020018281038252602d8152602001806120d8602d913960400191505060405180910390fd5b8261123b816112d7565b6112765760405162461bcd60e51b81526004018080602001828103825260258152602001806120b36025913960400191505060405180910390fd5b8361128b6001600160a01b0382168585611372565b5050505050565b8061129c816112d7565b61098d5760405162461bcd60e51b81526004018080602001828103825260258152602001806120b36025913960400191505060405180910390fd5b6000816001600160a01b0381161580159061136b57506000816001600160a01b03166370a08231306040518263ffffffff1660e01b815260040180826001600160a01b0316815260200191505060206040518083038186803b15801561133c57600080fd5b505afa158015611350573d6000803e3d6000fd5b505050506040513d602081101561136657600080fd5b505110155b9392505050565b604080516001600160a01b038416602482015260448082018490528251808303909101815260649091019091526020810180516001600160e01b031663a9059cbb60e01b179052610b7790849061179b565b6113ce8282611145565b61098d576113e6816001600160a01b0316601461186d565b6113f183602061186d565b604051602001611402929190611e6b565b60408051601f198184030181529082905262461bcd60e51b825261092b91600401611eee565b6114328282611145565b61098d57600082815260c9602090815260408083206001600160a01b03851684529091529020805460ff1916600117905561146a3390565b6001600160a01b0316816001600160a01b0316837f2f8788117e7eff1d82e926ec794901d17c78024a50270940304540a733656f0d60405160405180910390a45050565b6114b88282611145565b1561098d57600082815260c9602090815260408083206001600160a01b0385168085529252808320805460ff1916905551339285917ff6391f5c32d9c69d2a47ea670b442974b53935d1edc7fd64eb21e047a839171b9190a45050565b61152d60008051602061210583398151915233611145565b610c1a5760405162461bcd60e51b815260040161092b90611f21565b6000611553611a4f565b905061155e84611a7d565b60008351118061156b5750815b1561157c5761157a8484611b22565b505b7f4910fdfa16fed3260ed0e7147f7cc6da11a60208b5b9406d12a635614ffd9143805460ff1661128b57805460ff191660011781556040516115f79086906115c8908590602401611eda565b60408051601f198184030181529190526020810180516001600160e01b0316631b2ce7f360e11b179052611b22565b50805460ff19168155611608611a4f565b6001600160a01b0316826001600160a01b0316146116805760405162461bcd60e51b815260206004820152602f60248201527f45524331393637557067726164653a207570677261646520627265616b73206660448201526e75727468657220757067726164657360881b606482015260840161092b565b61128b85611c0d565b604080516370a0823160e01b8152306004820152905183916000916001600160a01b038416916370a08231916024808301926020929190829003018186803b1580156116d457600080fd5b505afa1580156116e8573d6000803e3d6000fd5b505050506040513d60208110156116fe57600080fd5b50519050610ab36001600160a01b0383168483611372565b600054610100900460ff168061172f575060005460ff16155b61174b5760405162461bcd60e51b815260040161092b90611fd4565b600054610100900460ff1615801561176d576000805461ffff19166101011790555b611775611c4d565b61177d611c4d565b8015610c1a576000805461ff001916905550565b61098d8282611428565b60006117f0826040518060400160405280602081526020017f5361666545524332303a206c6f772d6c6576656c2063616c6c206661696c6564815250856001600160a01b0316611cb79092919063ffffffff16565b805190915015610b77578080602001905181019061180e9190611e2f565b610b775760405162461bcd60e51b815260206004820152602a60248201527f5361666545524332303a204552433230206f7065726174696f6e20646964206e6044820152691bdd081cdd58d8d9595960b21b606482015260840161092b565b6060600061187c83600261203a565b611887906002612022565b67ffffffffffffffff8111156118ad57634e487b7160e01b600052604160045260246000fd5b6040519080825280601f01601f1916602001820160405280156118d7576020820181803683370190505b509050600360fc1b8160008151811061190057634e487b7160e01b600052603260045260246000fd5b60200101906001600160f81b031916908160001a905350600f60fb1b8160018151811061193d57634e487b7160e01b600052603260045260246000fd5b60200101906001600160f81b031916908160001a905350600061196184600261203a565b61196c906001612022565b90505b6001811115611a00576f181899199a1a9b1b9c1cb0b131b232b360811b85600f16601081106119ae57634e487b7160e01b600052603260045260246000fd5b1a60f81b8282815181106119d257634e487b7160e01b600052603260045260246000fd5b60200101906001600160f81b031916908160001a90535060049490941c936119f981612085565b905061196f565b50831561136b5760405162461bcd60e51b815260206004820181905260248201527f537472696e67733a20686578206c656e67746820696e73756666696369656e74604482015260640161092b565b7f360894a13ba1a3210667c828492db98dca3e2076cc3735a920a3ca505d382bbc546001600160a01b031690565b803b611ae15760405162461bcd60e51b815260206004820152602d60248201527f455243313936373a206e657720696d706c656d656e746174696f6e206973206e60448201526c1bdd08184818dbdb9d1c9858dd609a1b606482015260840161092b565b7f360894a13ba1a3210667c828492db98dca3e2076cc3735a920a3ca505d382bbc80546001600160a01b0319166001600160a01b0392909216919091179055565b6060823b611b815760405162461bcd60e51b815260206004820152602660248201527f416464726573733a2064656c65676174652063616c6c20746f206e6f6e2d636f6044820152651b9d1c9858dd60d21b606482015260840161092b565b600080846001600160a01b031684604051611b9c9190611e4f565b600060405180830381855af49150503d8060008114611bd7576040519150601f19603f3d011682016040523d82523d6000602084013e611bdc565b606091505b5091509150611c04828260405180606001604052806027815260200161212560279139611cce565b95945050505050565b611c1681611a7d565b6040516001600160a01b038216907fbc7cd75a20ee27fd9adebab32041f755214dbc6bffa90cc0225b39da2e5c2d3b90600090a250565b600054610100900460ff1680611c66575060005460ff16155b611c825760405162461bcd60e51b815260040161092b90611fd4565b600054610100900460ff1615801561177d576000805461ffff19166101011790558015610c1a576000805461ff001916905550565b6060611cc68484600085611d07565b949350505050565b60608315611cdd57508161136b565b825115611ced5782518084602001fd5b8160405162461bcd60e51b815260040161092b9190611eee565b606082471015611d685760405162461bcd60e51b815260206004820152602660248201527f416464726573733a20696e73756666696369656e742062616c616e636520666f6044820152651c8818d85b1b60d21b606482015260840161092b565b843b611db65760405162461bcd60e51b815260206004820152601d60248201527f416464726573733a2063616c6c20746f206e6f6e2d636f6e7472616374000000604482015260640161092b565b600080866001600160a01b03168587604051611dd29190611e4f565b60006040518083038185875af1925050503d8060008114611e0f576040519150601f19603f3d011682016040523d82523d6000602084013e611e14565b606091505b5091509150611e24828286611cce565b979650505050505050565b600060208284031215611e40578081fd5b8151801515811461136b578182fd5b60008251611e61818460208701612059565b9190910192915050565b76020b1b1b2b9b9a1b7b73a3937b61d1030b1b1b7bab73a1604d1b815260008351611e9d816017850160208801612059565b7001034b99036b4b9b9b4b733903937b6329607d1b6017918401918201528351611ece816028840160208801612059565b01602801949350505050565b6001600160a01b0391909116815260200190565b6020815260008251806020840152611f0d816040850160208701612059565b601f01601f19169190910160400192915050565b60208082526015908201527421b7b73a3937b63632b91d103737ba1030b236b4b760591b604082015260600190565b60208082526032908201527f436f6e74726f6c6c65723a2063616c6c657220646f6573206e6f7420686176656040820152712074686520677561726469616e20726f6c6560701b606082015260800190565b602080825260189082015277436f6e74726f6c6c65723a2061646472657373207a65726f60401b604082015260600190565b6020808252602e908201527f496e697469616c697a61626c653a20636f6e747261637420697320616c72656160408201526d191e481a5b9a5d1a585b1a5e995960921b606082015260800190565b600082198211156120355761203561209c565b500190565b60008160001904831182151516156120545761205461209c565b500290565b60005b8381101561207457818101518382015260200161205c565b83811115610ab35750506000910152565b6000816120945761209461209c565b506000190190565b634e487b7160e01b600052601160045260246000fdfe50757265546f6b656e416461707465723a20746f6b656e206e6f7420737570706f7274656450757265546f6b656e416461707465723a206f6e6c79206173736574206d616e616765722063616e2063616c6c2172861495e7b85edac73e3cd5fbb42dd675baadf627720e687bcfdaca025096416464726573733a206c6f772d6c6576656c2064656c65676174652063616c6c206661696c6564a2646970667358221220c0a11ea5a08acd5bf27bd67aa34823b15b657f12f643d9f0a90646d8c2a207dc64736f6c63430008040033",
  "devdoc": {
    "kind": "dev",
    "methods": {
      "addAdmin(address)": {
        "details": "Add a new admin account",
        "params": {
          "account": "Account address"
        }
      },
      "deposit(address)": {
        "details": "Deposits the given amount of tokens in the underlying money market."
      },
      "getRoleAdmin(bytes32)": {
        "details": "Returns the admin role that controls `role`. See {grantRole} and {revokeRole}. To change a role's admin, use {_setRoleAdmin}."
      },
      "getSupply(address)": {
        "details": "Returns the supply for the given token, including accrued interest. This function can have side effects."
      },
      "getSupplyView(address)": {
        "details": "Returns the supply for the given token; it might not include accrued interest. This function *cannot* have side effects."
      },
      "grantRole(bytes32,address)": {
        "details": "Grants `role` to `account`. If `account` had not been already granted `role`, emits a {RoleGranted} event. Requirements: - the caller must have ``role``'s admin role."
      },
      "hasRole(bytes32,address)": {
        "details": "Returns `true` if `account` has been granted `role`."
      },
      "isAdmin(address)": {
        "details": "Check if the address provided is the admin",
        "params": {
          "account": "Account address"
        }
      },
      "pause()": {
        "details": "Called by a pauser to pause, triggers stopped state."
      },
      "paused()": {
        "details": "Returns true if the contract is paused, and false otherwise."
      },
      "renounceAdmin()": {
        "details": "Renouce the admin from the sender's address"
      },
      "renounceRole(bytes32,address)": {
        "details": "Revokes `role` from the calling account. Roles are often managed via {grantRole} and {revokeRole}: this function's purpose is to provide a mechanism for accounts to lose their privileges if they are compromised (such as when a trusted device is misplaced). If the calling account had been granted `role`, emits a {RoleRevoked} event. Requirements: - the caller must be `account`."
      },
      "revokeRole(bytes32,address)": {
        "details": "Revokes `role` from `account`. If `account` had been granted `role`, emits a {RoleRevoked} event. Requirements: - the caller must have ``role``'s admin role."
      },
      "setGuardian(address)": {
        "details": "Set pauseGuardian account",
        "params": {
          "account": "Account address"
        }
      },
      "supportsInterface(bytes4)": {
        "details": "See {IERC165-supportsInterface}."
      },
      "supportsToken(address)": {
        "details": "Indicates if the adapter supports the token with the given address."
      },
      "unpause()": {
        "details": "Called by a pauser to unpause, returns to normal state."
      },
      "upgradeTo(address)": {
        "details": "Upgrade the implementation of the proxy to `newImplementation`. Calls {_authorizeUpgrade}. Emits an {Upgraded} event."
      },
      "upgradeToAndCall(address,bytes)": {
        "details": "Upgrade the implementation of the proxy to `newImplementation`, and subsequently execute the function call encoded in `data`. Calls {_authorizeUpgrade}. Emits an {Upgraded} event."
      },
      "withdrawAll(address,address)": {
        "details": "Withdraws all the tokens from the underlying money market and transfers them to `recipient`."
      }
    },
    "stateVariables": {
      "ceilingMap": {
        "details": "The maximum amount that should be deposited in money market",
        "params": {
          "tokenAddress": "The address of token whose ceiling is being fetched"
        }
      },
      "floorMap": {
        "details": "The minimum amount that should be deposited in money market before moving to next priority market",
        "params": {
          "tokenAddress": "The address of token whose floor is being fetched"
        }
      }
    },
    "version": 1
  },
  "userdoc": {
    "kind": "user",
    "methods": {},
    "version": 1
  },
  "storageLayout": {
    "storage": [
      {
        "astId": 821,
        "contract": "contracts/asset/PureTokenAdapter.sol:PureTokenAdapter",
        "label": "_initialized",
        "offset": 0,
        "slot": "0",
        "type": "t_bool"
      },
      {
        "astId": 824,
        "contract": "contracts/asset/PureTokenAdapter.sol:PureTokenAdapter",
        "label": "_initializing",
        "offset": 1,
        "slot": "0",
        "type": "t_bool"
      },
      {
        "astId": 804,
        "contract": "contracts/asset/PureTokenAdapter.sol:PureTokenAdapter",
        "label": "__gap",
        "offset": 0,
        "slot": "1",
        "type": "t_array(t_uint256)50_storage"
      },
      {
        "astId": 937,
        "contract": "contracts/asset/PureTokenAdapter.sol:PureTokenAdapter",
        "label": "__gap",
        "offset": 0,
        "slot": "51",
        "type": "t_array(t_uint256)50_storage"
      },
      {
        "astId": 2184,
        "contract": "contracts/asset/PureTokenAdapter.sol:PureTokenAdapter",
        "label": "__gap",
        "offset": 0,
        "slot": "101",
        "type": "t_array(t_uint256)50_storage"
      },
      {
        "astId": 2493,
        "contract": "contracts/asset/PureTokenAdapter.sol:PureTokenAdapter",
        "label": "__gap",
        "offset": 0,
        "slot": "151",
        "type": "t_array(t_uint256)50_storage"
      },
      {
        "astId": 48,
        "contract": "contracts/asset/PureTokenAdapter.sol:PureTokenAdapter",
        "label": "_roles",
        "offset": 0,
        "slot": "201",
        "type": "t_mapping(t_bytes32,t_struct(RoleData)43_storage)"
      },
      {
        "astId": 333,
        "contract": "contracts/asset/PureTokenAdapter.sol:PureTokenAdapter",
        "label": "__gap",
        "offset": 0,
        "slot": "202",
        "type": "t_array(t_uint256)49_storage"
      },
      {
        "astId": 11052,
        "contract": "contracts/asset/PureTokenAdapter.sol:PureTokenAdapter",
        "label": "_admins",
        "offset": 0,
        "slot": "251",
        "type": "t_mapping(t_address,t_address)"
      },
      {
        "astId": 11054,
        "contract": "contracts/asset/PureTokenAdapter.sol:PureTokenAdapter",
        "label": "_paused",
        "offset": 0,
        "slot": "252",
        "type": "t_bool"
      },
      {
        "astId": 11056,
        "contract": "contracts/asset/PureTokenAdapter.sol:PureTokenAdapter",
        "label": "pauseGuardian",
        "offset": 1,
        "slot": "252",
        "type": "t_address"
      },
      {
        "astId": 11296,
        "contract": "contracts/asset/PureTokenAdapter.sol:PureTokenAdapter",
        "label": "______gap",
        "offset": 0,
        "slot": "253",
        "type": "t_array(t_uint256)50_storage"
      },
      {
        "astId": 14167,
        "contract": "contracts/asset/PureTokenAdapter.sol:PureTokenAdapter",
        "label": "assetManager",
        "offset": 0,
        "slot": "303",
        "type": "t_address"
      },
      {
        "astId": 14172,
        "contract": "contracts/asset/PureTokenAdapter.sol:PureTokenAdapter",
        "label": "floorMap",
        "offset": 0,
        "slot": "304",
        "type": "t_mapping(t_address,t_uint256)"
      },
      {
        "astId": 14177,
        "contract": "contracts/asset/PureTokenAdapter.sol:PureTokenAdapter",
        "label": "ceilingMap",
        "offset": 0,
        "slot": "305",
        "type": "t_mapping(t_address,t_uint256)"
      }
    ],
    "types": {
      "t_address": {
        "encoding": "inplace",
        "label": "address",
        "numberOfBytes": "20"
      },
      "t_array(t_uint256)49_storage": {
        "base": "t_uint256",
        "encoding": "inplace",
        "label": "uint256[49]",
        "numberOfBytes": "1568"
      },
      "t_array(t_uint256)50_storage": {
        "base": "t_uint256",
        "encoding": "inplace",
        "label": "uint256[50]",
        "numberOfBytes": "1600"
      },
      "t_bool": {
        "encoding": "inplace",
        "label": "bool",
        "numberOfBytes": "1"
      },
      "t_bytes32": {
        "encoding": "inplace",
        "label": "bytes32",
        "numberOfBytes": "32"
      },
      "t_mapping(t_address,t_address)": {
        "encoding": "mapping",
        "key": "t_address",
        "label": "mapping(address => address)",
        "numberOfBytes": "32",
        "value": "t_address"
      },
      "t_mapping(t_address,t_bool)": {
        "encoding": "mapping",
        "key": "t_address",
        "label": "mapping(address => bool)",
        "numberOfBytes": "32",
        "value": "t_bool"
      },
      "t_mapping(t_address,t_uint256)": {
        "encoding": "mapping",
        "key": "t_address",
        "label": "mapping(address => uint256)",
        "numberOfBytes": "32",
        "value": "t_uint256"
      },
      "t_mapping(t_bytes32,t_struct(RoleData)43_storage)": {
        "encoding": "mapping",
        "key": "t_bytes32",
        "label": "mapping(bytes32 => struct AccessControlUpgradeable.RoleData)",
        "numberOfBytes": "32",
        "value": "t_struct(RoleData)43_storage"
      },
      "t_struct(RoleData)43_storage": {
        "encoding": "inplace",
        "label": "struct AccessControlUpgradeable.RoleData",
        "members": [
          {
            "astId": 40,
            "contract": "contracts/asset/PureTokenAdapter.sol:PureTokenAdapter",
            "label": "members",
            "offset": 0,
            "slot": "0",
            "type": "t_mapping(t_address,t_bool)"
          },
          {
            "astId": 42,
            "contract": "contracts/asset/PureTokenAdapter.sol:PureTokenAdapter",
            "label": "adminRole",
            "offset": 0,
            "slot": "1",
            "type": "t_bytes32"
          }
        ],
        "numberOfBytes": "64"
      },
      "t_uint256": {
        "encoding": "inplace",
        "label": "uint256",
        "numberOfBytes": "32"
      }
    }
  }
}