{
  "address": "0xe2F920a0298b4157cc7ca160f756f0A0985BAed1",
  "abi": [
    {
      "inputs": [
        {
          "internalType": "uint256",
          "name": "effectiveNumber_",
          "type": "uint256"
        }
      ],
      "stateMutability": "nonpayable",
      "type": "constructor"
    },
    {
      "anonymous": false,
      "inputs": [
        {
          "indexed": true,
          "internalType": "address",
          "name": "previousOwner",
          "type": "address"
        },
        {
          "indexed": true,
          "internalType": "address",
          "name": "newOwner",
          "type": "address"
        }
      ],
      "name": "OwnershipTransferred",
      "type": "event"
    },
    {
      "inputs": [],
      "name": "effectiveNumber",
      "outputs": [
        {
          "internalType": "uint256",
          "name": "",
          "type": "uint256"
        }
      ],
      "stateMutability": "view",
      "type": "function"
    },
    {
      "inputs": [
        {
          "internalType": "uint256[]",
          "name": "vouchs",
          "type": "uint256[]"
        }
      ],
      "name": "getCreditLimit",
      "outputs": [
        {
          "internalType": "uint256",
          "name": "",
          "type": "uint256"
        }
      ],
      "stateMutability": "view",
      "type": "function"
    },
    {
      "inputs": [
        {
          "components": [
            {
              "internalType": "address",
              "name": "staker",
              "type": "address"
            },
            {
              "internalType": "uint256",
              "name": "vouchingAmount",
              "type": "uint256"
            },
            {
              "internalType": "uint256",
              "name": "lockedAmount",
              "type": "uint256"
            },
            {
              "internalType": "uint256",
              "name": "availableStakingAmount",
              "type": "uint256"
            }
          ],
          "internalType": "struct ICreditLimitModel.LockedInfo[]",
          "name": "array",
          "type": "tuple[]"
        },
        {
          "internalType": "address",
          "name": "account",
          "type": "address"
        },
        {
          "internalType": "uint256",
          "name": "amount",
          "type": "uint256"
        },
        {
          "internalType": "bool",
          "name": "isIncrease",
          "type": "bool"
        }
      ],
      "name": "getLockedAmount",
      "outputs": [
        {
          "internalType": "uint256",
          "name": "",
          "type": "uint256"
        }
      ],
      "stateMutability": "pure",
      "type": "function"
    },
    {
      "inputs": [],
      "name": "isCreditLimitModel",
      "outputs": [
        {
          "internalType": "bool",
          "name": "",
          "type": "bool"
        }
      ],
      "stateMutability": "view",
      "type": "function"
    },
    {
      "inputs": [],
      "name": "owner",
      "outputs": [
        {
          "internalType": "address",
          "name": "",
          "type": "address"
        }
      ],
      "stateMutability": "view",
      "type": "function"
    },
    {
      "inputs": [],
      "name": "renounceOwnership",
      "outputs": [],
      "stateMutability": "nonpayable",
      "type": "function"
    },
    {
      "inputs": [
        {
          "internalType": "uint256",
          "name": "number",
          "type": "uint256"
        }
      ],
      "name": "setEffectNumber",
      "outputs": [],
      "stateMutability": "nonpayable",
      "type": "function"
    },
    {
      "inputs": [
        {
          "internalType": "address",
          "name": "newOwner",
          "type": "address"
        }
      ],
      "name": "transferOwnership",
      "outputs": [],
      "stateMutability": "nonpayable",
      "type": "function"
    }
  ],
  "transactionHash": "0xd2e6860c977b4799691d9f8733030e526c8630a77fcb38a2b4038fdab666899d",
  "args": [
    "3"
  ],
  "solcInputHash": "1bad13edcd3c88f2ca9238985c18d480",
  "bytecode": "0x608060405234801561001057600080fd5b50604051610dd4380380610dd483398101604081905261002f91610090565b61003833610040565b6001556100a8565b600080546001600160a01b038381166001600160a01b0319831681178455604051919092169283917f8be0079c531659141344cd1fd0a4f28419497f9722a3daafe3b4186f6b6457e09190a35050565b6000602082840312156100a1578081fd5b5051919050565b610d1d806100b76000396000f3fe608060405234801561001057600080fd5b50600436106100785760003560e01c80634c9cc6731461007d57806351118cfb146100a3578063715018a6146100ac578063747bcf8f146100b65780638da5cb5b146100c9578063a0d9987b146100e4578063b0db4930146100f7578063f2fde38b1461010f575b600080fd5b61009061008b366004610b13565b610122565b6040519081526020015b60405180910390f35b61009060015481565b6100b4610196565b005b6100b46100c4366004610ba6565b6101d5565b6000546040516001600160a01b03909116815260200161009a565b6100906100f2366004610a12565b610204565b6100ff600181565b604051901515815260200161009a565b6100b461011d3660046109f1565b610668565b6000600154825110610189576000805b83518110156101825783818151811061015b57634e487b7160e01b600052603260045260246000fd5b60200260200101518261016e9190610c71565b91508061017a81610ca0565b915050610132565b5092915050565b506000919050565b919050565b6000546001600160a01b031633146101c95760405162461bcd60e51b81526004016101c090610bbe565b60405180910390fd5b6101d36000610703565b565b6000546001600160a01b031633146101ff5760405162461bcd60e51b81526004016101c090610bbe565b600155565b600084516000141561021857506000610660565b826000831561052a5761022c876001610753565b965060005b875181101561052457600088828151811061025c57634e487b7160e01b600052603260045260246000fd5b60200260200101516040015189838151811061028857634e487b7160e01b600052603260045260246000fd5b6020026020010151602001511115610303578882815181106102ba57634e487b7160e01b600052603260045260246000fd5b6020026020010151604001518983815181106102e657634e487b7160e01b600052603260045260246000fd5b6020026020010151602001516102fc9190610c89565b9050610307565b5060005b88828151811061032757634e487b7160e01b600052603260045260246000fd5b602002602001015160600151811115610451578389838151811061035b57634e487b7160e01b600052603260045260246000fd5b60200260200101516060015111156103af578389838151811061038e57634e487b7160e01b600052603260045260246000fd5b6020026020010151604001516103a49190610c71565b9250600093506104c0565b8882815181106103cf57634e487b7160e01b600052603260045260246000fd5b6020026020010151606001518983815181106103fb57634e487b7160e01b600052603260045260246000fd5b6020026020010151604001516104119190610c71565b925088828151811061043357634e487b7160e01b600052603260045260246000fd5b6020026020010151606001518461044a9190610c89565b93506104c0565b8381111561047a578389838151811061038e57634e487b7160e01b600052603260045260246000fd5b8089838151811061049b57634e487b7160e01b600052603260045260246000fd5b6020026020010151604001516104b19190610c71565b92506104bd8185610c89565b93505b8882815181106104e057634e487b7160e01b600052603260045260246000fd5b6020026020010151600001516001600160a01b0316886001600160a01b031614156105115782945050505050610660565b508061051c81610ca0565b915050610231565b50610659565b610535876000610753565b965060005b8751811015610657578288828151811061056457634e487b7160e01b600052603260045260246000fd5b60200260200101516040015111156105b8578288828151811061059757634e487b7160e01b600052603260045260246000fd5b6020026020010151604001516105ad9190610c89565b9150600092506105f6565b600091508781815181106105dc57634e487b7160e01b600052603260045260246000fd5b602002602001015160400151836105f39190610c89565b92505b87818151811061061657634e487b7160e01b600052603260045260246000fd5b6020026020010151600001516001600160a01b0316876001600160a01b03161415610645575091506106609050565b8061064f81610ca0565b91505061053a565b505b6000925050505b949350505050565b6000546001600160a01b031633146106925760405162461bcd60e51b81526004016101c090610bbe565b6001600160a01b0381166106f75760405162461bcd60e51b815260206004820152602660248201527f4f776e61626c653a206e6577206f776e657220697320746865207a65726f206160448201526564647265737360d01b60648201526084016101c0565b61070081610703565b50565b600080546001600160a01b038381166001600160a01b0319831681178455604051919092169283917f8be0079c531659141344cd1fd0a4f28419497f9722a3daafe3b4186f6b6457e09190a35050565b815160609060005b818110156109c1576000610770826001610c71565b90505b828110156109ae578415610891578581815181106107a157634e487b7160e01b600052603260045260246000fd5b6020026020010151602001518683815181106107cd57634e487b7160e01b600052603260045260246000fd5b602002602001015160200151101561088c57600086828151811061080157634e487b7160e01b600052603260045260246000fd5b6020026020010151905086838151811061082b57634e487b7160e01b600052603260045260246000fd5b602002602001015187838151811061085357634e487b7160e01b600052603260045260246000fd5b60200260200101819052508087848151811061087f57634e487b7160e01b600052603260045260246000fd5b6020026020010181905250505b61099c565b8581815181106108b157634e487b7160e01b600052603260045260246000fd5b6020026020010151602001518683815181106108dd57634e487b7160e01b600052603260045260246000fd5b602002602001015160200151111561099c57600086828151811061091157634e487b7160e01b600052603260045260246000fd5b6020026020010151905086838151811061093b57634e487b7160e01b600052603260045260246000fd5b602002602001015187838151811061096357634e487b7160e01b600052603260045260246000fd5b60200260200101819052508087848151811061098f57634e487b7160e01b600052603260045260246000fd5b6020026020010181905250505b806109a681610ca0565b915050610773565b50806109b981610ca0565b91505061075b565b50929392505050565b80356001600160a01b038116811461019157600080fd5b8035801515811461019157600080fd5b600060208284031215610a02578081fd5b610a0b826109ca565b9392505050565b6000806000806080808688031215610a28578384fd5b853567ffffffffffffffff811115610a3e578485fd5b8601601f81018813610a4e578485fd5b80356020610a63610a5e83610c4d565b610c1c565b8083825282820191508285018c848660071b8801011115610a8257898afd5b8995505b84861015610adf5786818e031215610a9c57898afd5b610aa4610bf3565b610aad826109ca565b815281850135858201526040808301359082015260608083013590820152835260019590950194918301918601610a86565b509850610aef90508982016109ca565b96505050505060408501359150610b08606086016109e1565b905092959194509250565b60006020808385031215610b25578182fd5b823567ffffffffffffffff811115610b3b578283fd5b8301601f81018513610b4b578283fd5b8035610b59610a5e82610c4d565b80828252848201915084840188868560051b8701011115610b78578687fd5b8694505b83851015610b9a578035835260019490940193918501918501610b7c565b50979650505050505050565b600060208284031215610bb7578081fd5b5035919050565b6020808252818101527f4f776e61626c653a2063616c6c6572206973206e6f7420746865206f776e6572604082015260600190565b6040516080810167ffffffffffffffff81118282101715610c1657610c16610cd1565b60405290565b604051601f8201601f1916810167ffffffffffffffff81118282101715610c4557610c45610cd1565b604052919050565b600067ffffffffffffffff821115610c6757610c67610cd1565b5060051b60200190565b60008219821115610c8457610c84610cbb565b500190565b600082821015610c9b57610c9b610cbb565b500390565b6000600019821415610cb457610cb4610cbb565b5060010190565b634e487b7160e01b600052601160045260246000fd5b634e487b7160e01b600052604160045260246000fdfea26469706673582212209b641c27c1d4f99ecf44cdb5758fb0deca87a4235bb870445c212ab1832f429364736f6c63430008040033",
  "devdoc": {
    "kind": "dev",
    "methods": {
      "getCreditLimit(uint256[])": {
        "returns": {
          "_0": "Member credit limit"
        }
      },
      "owner()": {
        "details": "Returns the address of the current owner."
      },
      "renounceOwnership()": {
        "details": "Leaves the contract without owner. It will not be possible to call `onlyOwner` functions anymore. Can only be called by the current owner. NOTE: Renouncing ownership will leave the contract without an owner, thereby removing any functionality that is only available to the owner."
      },
      "transferOwnership(address)": {
        "details": "Transfers ownership of the contract to a new account (`newOwner`). Can only be called by the current owner."
      }
    },
    "version": 1
  },
  "userdoc": {
    "kind": "user",
    "methods": {
      "getCreditLimit(uint256[])": {
        "notice": "Calculates the member credit limit by vouchs"
      }
    },
    "version": 1
  },
  "storageLayout": {
    "storage": [
      {
        "astId": 2894,
        "contract": "contracts/user/SumOfTrust.sol:SumOfTrust",
        "label": "_owner",
        "offset": 0,
        "slot": "0",
        "type": "t_address"
      },
      {
        "astId": 22817,
        "contract": "contracts/user/SumOfTrust.sol:SumOfTrust",
        "label": "effectiveNumber",
        "offset": 0,
        "slot": "1",
        "type": "t_uint256"
      }
    ],
    "types": {
      "t_address": {
        "encoding": "inplace",
        "label": "address",
        "numberOfBytes": "20"
      },
      "t_uint256": {
        "encoding": "inplace",
        "label": "uint256",
        "numberOfBytes": "32"
      }
    }
  }
}