{
  "address": "0x55166CF4D0431952004500cD87A22110bEF8ddf3",
  "abi": [
    {
      "inputs": [
        {
          "internalType": "address",
          "name": "unionToken_",
          "type": "address"
        },
        {
          "internalType": "address",
          "name": "recipient_",
          "type": "address"
        },
        {
          "internalType": "uint256",
          "name": "vestingAmount_",
          "type": "uint256"
        },
        {
          "internalType": "uint256",
          "name": "vestingBegin_",
          "type": "uint256"
        },
        {
          "internalType": "uint256",
          "name": "vestingCliff_",
          "type": "uint256"
        },
        {
          "internalType": "uint256",
          "name": "vestingEnd_",
          "type": "uint256"
        }
      ],
      "stateMutability": "nonpayable",
      "type": "constructor"
    },
    {
      "inputs": [],
      "name": "claim",
      "outputs": [],
      "stateMutability": "nonpayable",
      "type": "function"
    },
    {
      "inputs": [],
      "name": "lastUpdate",
      "outputs": [
        {
          "internalType": "uint256",
          "name": "",
          "type": "uint256"
        }
      ],
      "stateMutability": "view",
      "type": "function"
    },
    {
      "inputs": [],
      "name": "recipient",
      "outputs": [
        {
          "internalType": "address",
          "name": "",
          "type": "address"
        }
      ],
      "stateMutability": "view",
      "type": "function"
    },
    {
      "inputs": [],
      "name": "unionToken",
      "outputs": [
        {
          "internalType": "address",
          "name": "",
          "type": "address"
        }
      ],
      "stateMutability": "view",
      "type": "function"
    },
    {
      "inputs": [],
      "name": "vestingAmount",
      "outputs": [
        {
          "internalType": "uint256",
          "name": "",
          "type": "uint256"
        }
      ],
      "stateMutability": "view",
      "type": "function"
    },
    {
      "inputs": [],
      "name": "vestingBegin",
      "outputs": [
        {
          "internalType": "uint256",
          "name": "",
          "type": "uint256"
        }
      ],
      "stateMutability": "view",
      "type": "function"
    },
    {
      "inputs": [],
      "name": "vestingCliff",
      "outputs": [
        {
          "internalType": "uint256",
          "name": "",
          "type": "uint256"
        }
      ],
      "stateMutability": "view",
      "type": "function"
    },
    {
      "inputs": [],
      "name": "vestingEnd",
      "outputs": [
        {
          "internalType": "uint256",
          "name": "",
          "type": "uint256"
        }
      ],
      "stateMutability": "view",
      "type": "function"
    }
  ],
  "transactionHash": "0xbafede7cc8a3b5cfd72928759cea8e0e5fb5edefe3af34360bbef275bf8965cb",
  "args": [
    "0x74361b8f06e4985aa1897223db5b0237de35756e",
    "0x50Da59E1942AfE5016d2421061E902394b9Da8AD",
    "20000000000000000000000000",
    "1637153278000",
    "1637153278000",
    "1637161162000"
  ],
  "solcInputHash": "1bad13edcd3c88f2ca9238985c18d480",
  "bytecode": "0x608060405234801561001057600080fd5b5060405161088b38038061088b833981810160405260c081101561003357600080fd5b508051602082015160408301516060840151608085015160a09095015193949293919290916001600160a01b03861661009d5760405162461bcd60e51b815260040180806020018281038252602a815260200180610861602a913960400191505060405180910390fd5b6001600160a01b0385166100e25760405162461bcd60e51b81526004018080602001828103825260298152602001806108386029913960400191505060405180910390fd5b42831015610137576040805162461bcd60e51b815260206004820152601760248201527f76657374696e6720626567696e20746f6f206561726c79000000000000000000604482015290519081900360640190fd5b82821015610181576040805162461bcd60e51b8152602060048201526012602482015271636c69666620697320746f6f206561726c7960701b604482015290519081900360640190fd5b8181116101c8576040805162461bcd60e51b815260206004820152601060248201526f656e6420697320746f6f206561726c7960801b604482015290519081900360640190fd5b600080546001600160a01b039788166001600160a01b0319918216179091556001805496909716951694909417909455600291909155600381905560049290925560055560065561061a8061021e6000396000f3fe608060405234801561001057600080fd5b50600436106100775760003560e01c8062728f761461007c5780634e71d92d1461009757806366d003ac146100a157806384a1931f146100d0578063c0463711146100d9578063e29bc68b146100e2578063f3640e74146100eb578063f70222e1146100f4575b600080fd5b61008560025481565b60408051918252519081900360200190f35b61009f610107565b005b6001546100b4906001600160a01b031681565b604080516001600160a01b039092168252519081900360200190f35b61008560055481565b61008560065481565b61008560035481565b61008560045481565b6000546100b4906001600160a01b031681565b60045442101561014d576040805162461bcd60e51b815260206004820152600c60248201526b1b9bdd081d1a5b59481e595d60a21b604482015290519081900360640190fd5b600060055442106101d657600054604080516370a0823160e01b815230600482015290516001600160a01b03909216916370a0823191602480820192602092909190829003018186803b1580156101a357600080fd5b505afa1580156101b7573d6000803e3d6000fd5b505050506040513d60208110156101cd57600080fd5b50519050610211565b6003546005546101e69190610587565b6006546101f39042610587565b6002546102009190610568565b61020a9190610548565b4260065590505b60015460005461022e916001600160a01b03918216911683610231565b50565b604080516001600160a01b038416602482015260448082018490528251808303909101815260649091019091526020810180516001600160e01b031663a9059cbb60e01b179052610283908490610288565b505050565b60006102dd826040518060400160405280602081526020017f5361666545524332303a206c6f772d6c6576656c2063616c6c206661696c6564815250856001600160a01b031661035f9092919063ffffffff16565b80519091501561028357808060200190518101906102fb91906104d9565b6102835760405162461bcd60e51b815260206004820152602a60248201527f5361666545524332303a204552433230206f7065726174696f6e20646964206e6044820152691bdd081cdd58d8d9595960b21b60648201526084015b60405180910390fd5b606061036e8484600085610378565b90505b9392505050565b6060824710156103d95760405162461bcd60e51b815260206004820152602660248201527f416464726573733a20696e73756666696369656e742062616c616e636520666f6044820152651c8818d85b1b60d21b6064820152608401610356565b843b6104275760405162461bcd60e51b815260206004820152601d60248201527f416464726573733a2063616c6c20746f206e6f6e2d636f6e74726163740000006044820152606401610356565b600080866001600160a01b0316858760405161044391906104f9565b60006040518083038185875af1925050503d8060008114610480576040519150601f19603f3d011682016040523d82523d6000602084013e610485565b606091505b50915091506104958282866104a0565b979650505050505050565b606083156104af575081610371565b8251156104bf5782518084602001fd5b8160405162461bcd60e51b81526004016103569190610515565b6000602082840312156104ea578081fd5b81518015158114610371578182fd5b6000825161050b81846020870161059e565b9190910192915050565b602081526000825180602084015261053481604085016020870161059e565b601f01601f19169190910160400192915050565b60008261056357634e487b7160e01b81526012600452602481fd5b500490565b6000816000190483118215151615610582576105826105ce565b500290565b600082821015610599576105996105ce565b500390565b60005b838110156105b95781810151838201526020016105a1565b838111156105c8576000848401525b50505050565b634e487b7160e01b600052601160045260246000fdfea264697066735822122046617afc8f26d17a76a4dd3208d1835bc2d46342457a9baf994b9de4ae34e33864736f6c6343000804003354726561737572795665737465723a20726563697069656e742063616e206e6f74206265207a65726f54726561737572795665737465723a20756e696f6e546f6b656e2063616e206e6f74206265207a65726f",
  "devdoc": {
    "kind": "dev",
    "methods": {},
    "version": 1
  },
  "userdoc": {
    "kind": "user",
    "methods": {},
    "version": 1
  },
  "storageLayout": {
    "storage": [
      {
        "astId": 22636,
        "contract": "contracts/treasury/TreasuryVester.sol:TreasuryVester",
        "label": "unionToken",
        "offset": 0,
        "slot": "0",
        "type": "t_address"
      },
      {
        "astId": 22638,
        "contract": "contracts/treasury/TreasuryVester.sol:TreasuryVester",
        "label": "recipient",
        "offset": 0,
        "slot": "1",
        "type": "t_address"
      },
      {
        "astId": 22640,
        "contract": "contracts/treasury/TreasuryVester.sol:TreasuryVester",
        "label": "vestingAmount",
        "offset": 0,
        "slot": "2",
        "type": "t_uint256"
      },
      {
        "astId": 22642,
        "contract": "contracts/treasury/TreasuryVester.sol:TreasuryVester",
        "label": "vestingBegin",
        "offset": 0,
        "slot": "3",
        "type": "t_uint256"
      },
      {
        "astId": 22644,
        "contract": "contracts/treasury/TreasuryVester.sol:TreasuryVester",
        "label": "vestingCliff",
        "offset": 0,
        "slot": "4",
        "type": "t_uint256"
      },
      {
        "astId": 22646,
        "contract": "contracts/treasury/TreasuryVester.sol:TreasuryVester",
        "label": "vestingEnd",
        "offset": 0,
        "slot": "5",
        "type": "t_uint256"
      },
      {
        "astId": 22648,
        "contract": "contracts/treasury/TreasuryVester.sol:TreasuryVester",
        "label": "lastUpdate",
        "offset": 0,
        "slot": "6",
        "type": "t_uint256"
      }
    ],
    "types": {
      "t_address": {
        "encoding": "inplace",
        "label": "address",
        "numberOfBytes": "20"
      },
      "t_uint256": {
        "encoding": "inplace",
        "label": "uint256",
        "numberOfBytes": "32"
      }
    }
  }
}