{
    "address": "0x5E1050c81B7e6D98d1700823375F0591c7c38BA5",
    "abi": [
        {
            "inputs": [],
            "name": "AccrueInterestFailed",
            "type": "error"
        },
        {
            "inputs": [],
            "name": "AddressZero",
            "type": "error"
        },
        {
            "inputs": [],
            "name": "AmountExceedGlobalMax",
            "type": "error"
        },
        {
            "inputs": [],
            "name": "AmountExceedMaxBorrow",
            "type": "error"
        },
        {
            "inputs": [],
            "name": "AmountLessMinBorrow",
            "type": "error"
        },
        {
            "inputs": [],
            "name": "AmountZero",
            "type": "error"
        },
        {
            "inputs": [],
            "name": "BorrowExceedCreditLimit",
            "type": "error"
        },
        {
            "inputs": [],
            "name": "BorrowRateExceedLimit",
            "type": "error"
        },
        {
            "inputs": [],
            "name": "CallerNotAssetManager",
            "type": "error"
        },
        {
            "inputs": [],
            "name": "CallerNotMember",
            "type": "error"
        },
        {
            "inputs": [],
            "name": "CallerNotUserManager",
            "type": "error"
        },
        {
            "inputs": [],
            "name": "ContractNotInterestModel",
            "type": "error"
        },
        {
            "inputs": [],
            "name": "DepositToAssetManagerFailed",
            "type": "error"
        },
        {
            "inputs": [],
            "name": "InitExchangeRateNotZero",
            "type": "error"
        },
        {
            "inputs": [],
            "name": "InsufficientFundsLeft",
            "type": "error"
        },
        {
            "inputs": [],
            "name": "MemberIsOverdue",
            "type": "error"
        },
        {
            "inputs": [],
            "name": "ReserveFactoryExceedLimit",
            "type": "error"
        },
        {
            "inputs": [],
            "name": "WithdrawFailed",
            "type": "error"
        },
        {
            "anonymous": false,
            "inputs": [
                {
                    "indexed": false,
                    "internalType": "address",
                    "name": "previousAdmin",
                    "type": "address"
                },
                {
                    "indexed": false,
                    "internalType": "address",
                    "name": "newAdmin",
                    "type": "address"
                }
            ],
            "name": "AdminChanged",
            "type": "event"
        },
        {
            "anonymous": false,
            "inputs": [
                {
                    "indexed": true,
                    "internalType": "address",
                    "name": "owner",
                    "type": "address"
                },
                {
                    "indexed": true,
                    "internalType": "address",
                    "name": "spender",
                    "type": "address"
                },
                {
                    "indexed": false,
                    "internalType": "uint256",
                    "name": "value",
                    "type": "uint256"
                }
            ],
            "name": "Approval",
            "type": "event"
        },
        {
            "anonymous": false,
            "inputs": [
                {
                    "indexed": true,
                    "internalType": "address",
                    "name": "beacon",
                    "type": "address"
                }
            ],
            "name": "BeaconUpgraded",
            "type": "event"
        },
        {
            "anonymous": false,
            "inputs": [
                {
                    "indexed": true,
                    "internalType": "address",
                    "name": "account",
                    "type": "address"
                },
                {
                    "indexed": false,
                    "internalType": "uint256",
                    "name": "amount",
                    "type": "uint256"
                },
                {
                    "indexed": false,
                    "internalType": "uint256",
                    "name": "fee",
                    "type": "uint256"
                }
            ],
            "name": "LogBorrow",
            "type": "event"
        },
        {
            "anonymous": false,
            "inputs": [
                {
                    "indexed": false,
                    "internalType": "address",
                    "name": "minter",
                    "type": "address"
                },
                {
                    "indexed": false,
                    "internalType": "uint256",
                    "name": "underlyingAmount",
                    "type": "uint256"
                },
                {
                    "indexed": false,
                    "internalType": "uint256",
                    "name": "uTokenAmount",
                    "type": "uint256"
                }
            ],
            "name": "LogMint",
            "type": "event"
        },
        {
            "anonymous": false,
            "inputs": [
                {
                    "indexed": false,
                    "internalType": "address",
                    "name": "oldInterestRateModel",
                    "type": "address"
                },
                {
                    "indexed": false,
                    "internalType": "address",
                    "name": "newInterestRateModel",
                    "type": "address"
                }
            ],
            "name": "LogNewMarketInterestRateModel",
            "type": "event"
        },
        {
            "anonymous": false,
            "inputs": [
                {
                    "indexed": false,
                    "internalType": "address",
                    "name": "redeemer",
                    "type": "address"
                },
                {
                    "indexed": false,
                    "internalType": "uint256",
                    "name": "redeemTokensIn",
                    "type": "uint256"
                },
                {
                    "indexed": false,
                    "internalType": "uint256",
                    "name": "redeemAmountIn",
                    "type": "uint256"
                },
                {
                    "indexed": false,
                    "internalType": "uint256",
                    "name": "redeemAmount",
                    "type": "uint256"
                }
            ],
            "name": "LogRedeem",
            "type": "event"
        },
        {
            "anonymous": false,
            "inputs": [
                {
                    "indexed": true,
                    "internalType": "address",
                    "name": "account",
                    "type": "address"
                },
                {
                    "indexed": false,
                    "internalType": "uint256",
                    "name": "amount",
                    "type": "uint256"
                }
            ],
            "name": "LogRepay",
            "type": "event"
        },
        {
            "anonymous": false,
            "inputs": [
                {
                    "indexed": false,
                    "internalType": "address",
                    "name": "reserver",
                    "type": "address"
                },
                {
                    "indexed": false,
                    "internalType": "uint256",
                    "name": "actualAddAmount",
                    "type": "uint256"
                },
                {
                    "indexed": false,
                    "internalType": "uint256",
                    "name": "totalReservesNew",
                    "type": "uint256"
                }
            ],
            "name": "LogReservesAdded",
            "type": "event"
        },
        {
            "anonymous": false,
            "inputs": [
                {
                    "indexed": false,
                    "internalType": "address",
                    "name": "receiver",
                    "type": "address"
                },
                {
                    "indexed": false,
                    "internalType": "uint256",
                    "name": "reduceAmount",
                    "type": "uint256"
                },
                {
                    "indexed": false,
                    "internalType": "uint256",
                    "name": "totalReservesNew",
                    "type": "uint256"
                }
            ],
            "name": "LogReservesReduced",
            "type": "event"
        },
        {
            "anonymous": false,
            "inputs": [
                {
                    "indexed": false,
                    "internalType": "address",
                    "name": "account",
                    "type": "address"
                }
            ],
            "name": "Paused",
            "type": "event"
        },
        {
            "anonymous": false,
            "inputs": [
                {
                    "indexed": true,
                    "internalType": "bytes32",
                    "name": "role",
                    "type": "bytes32"
                },
                {
                    "indexed": true,
                    "internalType": "bytes32",
                    "name": "previousAdminRole",
                    "type": "bytes32"
                },
                {
                    "indexed": true,
                    "internalType": "bytes32",
                    "name": "newAdminRole",
                    "type": "bytes32"
                }
            ],
            "name": "RoleAdminChanged",
            "type": "event"
        },
        {
            "anonymous": false,
            "inputs": [
                {
                    "indexed": true,
                    "internalType": "bytes32",
                    "name": "role",
                    "type": "bytes32"
                },
                {
                    "indexed": true,
                    "internalType": "address",
                    "name": "account",
                    "type": "address"
                },
                {
                    "indexed": true,
                    "internalType": "address",
                    "name": "sender",
                    "type": "address"
                }
            ],
            "name": "RoleGranted",
            "type": "event"
        },
        {
            "anonymous": false,
            "inputs": [
                {
                    "indexed": true,
                    "internalType": "bytes32",
                    "name": "role",
                    "type": "bytes32"
                },
                {
                    "indexed": true,
                    "internalType": "address",
                    "name": "account",
                    "type": "address"
                },
                {
                    "indexed": true,
                    "internalType": "address",
                    "name": "sender",
                    "type": "address"
                }
            ],
            "name": "RoleRevoked",
            "type": "event"
        },
        {
            "anonymous": false,
            "inputs": [
                {
                    "indexed": true,
                    "internalType": "address",
                    "name": "from",
                    "type": "address"
                },
                {
                    "indexed": true,
                    "internalType": "address",
                    "name": "to",
                    "type": "address"
                },
                {
                    "indexed": false,
                    "internalType": "uint256",
                    "name": "value",
                    "type": "uint256"
                }
            ],
            "name": "Transfer",
            "type": "event"
        },
        {
            "anonymous": false,
            "inputs": [
                {
                    "indexed": false,
                    "internalType": "address",
                    "name": "account",
                    "type": "address"
                }
            ],
            "name": "Unpaused",
            "type": "event"
        },
        {
            "anonymous": false,
            "inputs": [
                {
                    "indexed": true,
                    "internalType": "address",
                    "name": "implementation",
                    "type": "address"
                }
            ],
            "name": "Upgraded",
            "type": "event"
        },
        {
            "inputs": [],
            "name": "DEFAULT_ADMIN_ROLE",
            "outputs": [
                {
                    "internalType": "bytes32",
                    "name": "",
                    "type": "bytes32"
                }
            ],
            "stateMutability": "view",
            "type": "function"
        },
        {
            "inputs": [],
            "name": "DOMAIN_SEPARATOR",
            "outputs": [
                {
                    "internalType": "bytes32",
                    "name": "",
                    "type": "bytes32"
                }
            ],
            "stateMutability": "view",
            "type": "function"
        },
        {
            "inputs": [],
            "name": "IS_UTOKEN",
            "outputs": [
                {
                    "internalType": "bool",
                    "name": "",
                    "type": "bool"
                }
            ],
            "stateMutability": "view",
            "type": "function"
        },
        {
            "inputs": [],
            "name": "ROLE_ADMIN",
            "outputs": [
                {
                    "internalType": "bytes32",
                    "name": "",
                    "type": "bytes32"
                }
            ],
            "stateMutability": "view",
            "type": "function"
        },
        {
            "inputs": [],
            "name": "WAD",
            "outputs": [
                {
                    "internalType": "uint256",
                    "name": "",
                    "type": "uint256"
                }
            ],
            "stateMutability": "view",
            "type": "function"
        },
        {
            "inputs": [
                {
                    "internalType": "address",
                    "name": "admin_",
                    "type": "address"
                }
            ],
            "name": "__Controller_init",
            "outputs": [],
            "stateMutability": "nonpayable",
            "type": "function"
        },
        {
            "inputs": [
                {
                    "internalType": "string",
                    "name": "name_",
                    "type": "string"
                },
                {
                    "internalType": "string",
                    "name": "symbol_",
                    "type": "string"
                },
                {
                    "internalType": "address",
                    "name": "underlying_",
                    "type": "address"
                },
                {
                    "internalType": "uint256",
                    "name": "initialExchangeRateMantissa_",
                    "type": "uint256"
                },
                {
                    "internalType": "uint256",
                    "name": "reserveFactorMantissa_",
                    "type": "uint256"
                },
                {
                    "internalType": "uint256",
                    "name": "originationFee_",
                    "type": "uint256"
                },
                {
                    "internalType": "uint256",
                    "name": "debtCeiling_",
                    "type": "uint256"
                },
                {
                    "internalType": "uint256",
                    "name": "maxBorrow_",
                    "type": "uint256"
                },
                {
                    "internalType": "uint256",
                    "name": "minBorrow_",
                    "type": "uint256"
                },
                {
                    "internalType": "uint256",
                    "name": "overdueBlocks_",
                    "type": "uint256"
                },
                {
                    "internalType": "address",
                    "name": "admin_",
                    "type": "address"
                }
            ],
            "name": "__UToken_init",
            "outputs": [],
            "stateMutability": "nonpayable",
            "type": "function"
        },
        {
            "inputs": [],
            "name": "accrualBlockNumber",
            "outputs": [
                {
                    "internalType": "uint256",
                    "name": "",
                    "type": "uint256"
                }
            ],
            "stateMutability": "view",
            "type": "function"
        },
        {
            "inputs": [],
            "name": "accrueInterest",
            "outputs": [
                {
                    "internalType": "bool",
                    "name": "",
                    "type": "bool"
                }
            ],
            "stateMutability": "nonpayable",
            "type": "function"
        },
        {
            "inputs": [
                {
                    "internalType": "address",
                    "name": "account",
                    "type": "address"
                }
            ],
            "name": "addAdmin",
            "outputs": [],
            "stateMutability": "nonpayable",
            "type": "function"
        },
        {
            "inputs": [
                {
                    "internalType": "uint256",
                    "name": "addAmount",
                    "type": "uint256"
                }
            ],
            "name": "addReserves",
            "outputs": [],
            "stateMutability": "nonpayable",
            "type": "function"
        },
        {
            "inputs": [
                {
                    "internalType": "address",
                    "name": "owner",
                    "type": "address"
                },
                {
                    "internalType": "address",
                    "name": "spender",
                    "type": "address"
                }
            ],
            "name": "allowance",
            "outputs": [
                {
                    "internalType": "uint256",
                    "name": "",
                    "type": "uint256"
                }
            ],
            "stateMutability": "view",
            "type": "function"
        },
        {
            "inputs": [
                {
                    "internalType": "address",
                    "name": "spender",
                    "type": "address"
                },
                {
                    "internalType": "uint256",
                    "name": "amount",
                    "type": "uint256"
                }
            ],
            "name": "approve",
            "outputs": [
                {
                    "internalType": "bool",
                    "name": "",
                    "type": "bool"
                }
            ],
            "stateMutability": "nonpayable",
            "type": "function"
        },
        {
            "inputs": [],
            "name": "assetManager",
            "outputs": [
                {
                    "internalType": "address",
                    "name": "",
                    "type": "address"
                }
            ],
            "stateMutability": "view",
            "type": "function"
        },
        {
            "inputs": [
                {
                    "internalType": "address",
                    "name": "account",
                    "type": "address"
                }
            ],
            "name": "balanceOf",
            "outputs": [
                {
                    "internalType": "uint256",
                    "name": "",
                    "type": "uint256"
                }
            ],
            "stateMutability": "view",
            "type": "function"
        },
        {
            "inputs": [
                {
                    "internalType": "address",
                    "name": "owner",
                    "type": "address"
                }
            ],
            "name": "balanceOfUnderlying",
            "outputs": [
                {
                    "internalType": "uint256",
                    "name": "",
                    "type": "uint256"
                }
            ],
            "stateMutability": "nonpayable",
            "type": "function"
        },
        {
            "inputs": [
                {
                    "internalType": "address[]",
                    "name": "accounts",
                    "type": "address[]"
                }
            ],
            "name": "batchUpdateOverdueInfos",
            "outputs": [],
            "stateMutability": "nonpayable",
            "type": "function"
        },
        {
            "inputs": [
                {
                    "internalType": "uint256",
                    "name": "amount",
                    "type": "uint256"
                }
            ],
            "name": "borrow",
            "outputs": [],
            "stateMutability": "nonpayable",
            "type": "function"
        },
        {
            "inputs": [
                {
                    "internalType": "address",
                    "name": "account",
                    "type": "address"
                }
            ],
            "name": "borrowBalanceView",
            "outputs": [
                {
                    "internalType": "uint256",
                    "name": "",
                    "type": "uint256"
                }
            ],
            "stateMutability": "view",
            "type": "function"
        },
        {
            "inputs": [],
            "name": "borrowIndex",
            "outputs": [
                {
                    "internalType": "uint256",
                    "name": "",
                    "type": "uint256"
                }
            ],
            "stateMutability": "view",
            "type": "function"
        },
        {
            "inputs": [],
            "name": "borrowRatePerBlock",
            "outputs": [
                {
                    "internalType": "uint256",
                    "name": "",
                    "type": "uint256"
                }
            ],
            "stateMutability": "view",
            "type": "function"
        },
        {
            "inputs": [
                {
                    "internalType": "uint256",
                    "name": "amount",
                    "type": "uint256"
                }
            ],
            "name": "calculatingFee",
            "outputs": [
                {
                    "internalType": "uint256",
                    "name": "",
                    "type": "uint256"
                }
            ],
            "stateMutability": "view",
            "type": "function"
        },
        {
            "inputs": [
                {
                    "internalType": "address",
                    "name": "account",
                    "type": "address"
                }
            ],
            "name": "calculatingInterest",
            "outputs": [
                {
                    "internalType": "uint256",
                    "name": "",
                    "type": "uint256"
                }
            ],
            "stateMutability": "view",
            "type": "function"
        },
        {
            "inputs": [
                {
                    "internalType": "address",
                    "name": "account",
                    "type": "address"
                }
            ],
            "name": "checkIsOverdue",
            "outputs": [
                {
                    "internalType": "bool",
                    "name": "isOverdue",
                    "type": "bool"
                }
            ],
            "stateMutability": "view",
            "type": "function"
        },
        {
            "inputs": [],
            "name": "debtCeiling",
            "outputs": [
                {
                    "internalType": "uint256",
                    "name": "",
                    "type": "uint256"
                }
            ],
            "stateMutability": "view",
            "type": "function"
        },
        {
            "inputs": [
                {
                    "internalType": "address",
                    "name": "borrower",
                    "type": "address"
                },
                {
                    "internalType": "uint256",
                    "name": "amount",
                    "type": "uint256"
                }
            ],
            "name": "debtWriteOff",
            "outputs": [],
            "stateMutability": "nonpayable",
            "type": "function"
        },
        {
            "inputs": [],
            "name": "decimals",
            "outputs": [
                {
                    "internalType": "uint8",
                    "name": "",
                    "type": "uint8"
                }
            ],
            "stateMutability": "view",
            "type": "function"
        },
        {
            "inputs": [
                {
                    "internalType": "address",
                    "name": "spender",
                    "type": "address"
                },
                {
                    "internalType": "uint256",
                    "name": "subtractedValue",
                    "type": "uint256"
                }
            ],
            "name": "decreaseAllowance",
            "outputs": [
                {
                    "internalType": "bool",
                    "name": "",
                    "type": "bool"
                }
            ],
            "stateMutability": "nonpayable",
            "type": "function"
        },
        {
            "inputs": [],
            "name": "exchangeRateCurrent",
            "outputs": [
                {
                    "internalType": "uint256",
                    "name": "",
                    "type": "uint256"
                }
            ],
            "stateMutability": "nonpayable",
            "type": "function"
        },
        {
            "inputs": [],
            "name": "exchangeRateStored",
            "outputs": [
                {
                    "internalType": "uint256",
                    "name": "",
                    "type": "uint256"
                }
            ],
            "stateMutability": "view",
            "type": "function"
        },
        {
            "inputs": [
                {
                    "internalType": "address",
                    "name": "account",
                    "type": "address"
                }
            ],
            "name": "getBorrowed",
            "outputs": [
                {
                    "internalType": "uint256",
                    "name": "",
                    "type": "uint256"
                }
            ],
            "stateMutability": "view",
            "type": "function"
        },
        {
            "inputs": [
                {
                    "internalType": "address",
                    "name": "account",
                    "type": "address"
                }
            ],
            "name": "getInterestIndex",
            "outputs": [
                {
                    "internalType": "uint256",
                    "name": "",
                    "type": "uint256"
                }
            ],
            "stateMutability": "view",
            "type": "function"
        },
        {
            "inputs": [
                {
                    "internalType": "address",
                    "name": "account",
                    "type": "address"
                }
            ],
            "name": "getLastRepay",
            "outputs": [
                {
                    "internalType": "uint256",
                    "name": "",
                    "type": "uint256"
                }
            ],
            "stateMutability": "view",
            "type": "function"
        },
        {
            "inputs": [],
            "name": "getRemainingDebtCeiling",
            "outputs": [
                {
                    "internalType": "uint256",
                    "name": "",
                    "type": "uint256"
                }
            ],
            "stateMutability": "view",
            "type": "function"
        },
        {
            "inputs": [
                {
                    "internalType": "bytes32",
                    "name": "role",
                    "type": "bytes32"
                }
            ],
            "name": "getRoleAdmin",
            "outputs": [
                {
                    "internalType": "bytes32",
                    "name": "",
                    "type": "bytes32"
                }
            ],
            "stateMutability": "view",
            "type": "function"
        },
        {
            "inputs": [
                {
                    "internalType": "bytes32",
                    "name": "role",
                    "type": "bytes32"
                },
                {
                    "internalType": "address",
                    "name": "account",
                    "type": "address"
                }
            ],
            "name": "grantRole",
            "outputs": [],
            "stateMutability": "nonpayable",
            "type": "function"
        },
        {
            "inputs": [
                {
                    "internalType": "bytes32",
                    "name": "role",
                    "type": "bytes32"
                },
                {
                    "internalType": "address",
                    "name": "account",
                    "type": "address"
                }
            ],
            "name": "hasRole",
            "outputs": [
                {
                    "internalType": "bool",
                    "name": "",
                    "type": "bool"
                }
            ],
            "stateMutability": "view",
            "type": "function"
        },
        {
            "inputs": [
                {
                    "internalType": "address",
                    "name": "spender",
                    "type": "address"
                },
                {
                    "internalType": "uint256",
                    "name": "addedValue",
                    "type": "uint256"
                }
            ],
            "name": "increaseAllowance",
            "outputs": [
                {
                    "internalType": "bool",
                    "name": "",
                    "type": "bool"
                }
            ],
            "stateMutability": "nonpayable",
            "type": "function"
        },
        {
            "inputs": [],
            "name": "interestRateModel",
            "outputs": [
                {
                    "internalType": "contract IInterestRateModel",
                    "name": "",
                    "type": "address"
                }
            ],
            "stateMutability": "view",
            "type": "function"
        },
        {
            "inputs": [
                {
                    "internalType": "address",
                    "name": "account",
                    "type": "address"
                }
            ],
            "name": "isAdmin",
            "outputs": [
                {
                    "internalType": "bool",
                    "name": "",
                    "type": "bool"
                }
            ],
            "stateMutability": "view",
            "type": "function"
        },
        {
            "inputs": [],
            "name": "maxBorrow",
            "outputs": [
                {
                    "internalType": "uint256",
                    "name": "",
                    "type": "uint256"
                }
            ],
            "stateMutability": "view",
            "type": "function"
        },
        {
            "inputs": [],
            "name": "minBorrow",
            "outputs": [
                {
                    "internalType": "uint256",
                    "name": "",
                    "type": "uint256"
                }
            ],
            "stateMutability": "view",
            "type": "function"
        },
        {
            "inputs": [
                {
                    "internalType": "uint256",
                    "name": "mintAmount",
                    "type": "uint256"
                }
            ],
            "name": "mint",
            "outputs": [],
            "stateMutability": "nonpayable",
            "type": "function"
        },
        {
            "inputs": [],
            "name": "name",
            "outputs": [
                {
                    "internalType": "string",
                    "name": "",
                    "type": "string"
                }
            ],
            "stateMutability": "view",
            "type": "function"
        },
        {
            "inputs": [
                {
                    "internalType": "address",
                    "name": "owner",
                    "type": "address"
                }
            ],
            "name": "nonces",
            "outputs": [
                {
                    "internalType": "uint256",
                    "name": "",
                    "type": "uint256"
                }
            ],
            "stateMutability": "view",
            "type": "function"
        },
        {
            "inputs": [],
            "name": "originationFee",
            "outputs": [
                {
                    "internalType": "uint256",
                    "name": "",
                    "type": "uint256"
                }
            ],
            "stateMutability": "view",
            "type": "function"
        },
        {
            "inputs": [],
            "name": "overdueBlocks",
            "outputs": [
                {
                    "internalType": "uint256",
                    "name": "",
                    "type": "uint256"
                }
            ],
            "stateMutability": "view",
            "type": "function"
        },
        {
            "inputs": [],
            "name": "pause",
            "outputs": [],
            "stateMutability": "nonpayable",
            "type": "function"
        },
        {
            "inputs": [],
            "name": "pauseGuardian",
            "outputs": [
                {
                    "internalType": "address",
                    "name": "",
                    "type": "address"
                }
            ],
            "stateMutability": "view",
            "type": "function"
        },
        {
            "inputs": [],
            "name": "paused",
            "outputs": [
                {
                    "internalType": "bool",
                    "name": "",
                    "type": "bool"
                }
            ],
            "stateMutability": "view",
            "type": "function"
        },
        {
            "inputs": [
                {
                    "internalType": "address",
                    "name": "owner",
                    "type": "address"
                },
                {
                    "internalType": "address",
                    "name": "spender",
                    "type": "address"
                },
                {
                    "internalType": "uint256",
                    "name": "value",
                    "type": "uint256"
                },
                {
                    "internalType": "uint256",
                    "name": "deadline",
                    "type": "uint256"
                },
                {
                    "internalType": "uint8",
                    "name": "v",
                    "type": "uint8"
                },
                {
                    "internalType": "bytes32",
                    "name": "r",
                    "type": "bytes32"
                },
                {
                    "internalType": "bytes32",
                    "name": "s",
                    "type": "bytes32"
                }
            ],
            "name": "permit",
            "outputs": [],
            "stateMutability": "nonpayable",
            "type": "function"
        },
        {
            "inputs": [
                {
                    "internalType": "uint256",
                    "name": "redeemTokens",
                    "type": "uint256"
                }
            ],
            "name": "redeem",
            "outputs": [],
            "stateMutability": "nonpayable",
            "type": "function"
        },
        {
            "inputs": [
                {
                    "internalType": "uint256",
                    "name": "redeemAmount",
                    "type": "uint256"
                }
            ],
            "name": "redeemUnderlying",
            "outputs": [],
            "stateMutability": "nonpayable",
            "type": "function"
        },
        {
            "inputs": [
                {
                    "internalType": "address",
                    "name": "receiver",
                    "type": "address"
                },
                {
                    "internalType": "uint256",
                    "name": "reduceAmount",
                    "type": "uint256"
                }
            ],
            "name": "removeReserves",
            "outputs": [],
            "stateMutability": "nonpayable",
            "type": "function"
        },
        {
            "inputs": [],
            "name": "renounceAdmin",
            "outputs": [],
            "stateMutability": "nonpayable",
            "type": "function"
        },
        {
            "inputs": [
                {
                    "internalType": "bytes32",
                    "name": "role",
                    "type": "bytes32"
                },
                {
                    "internalType": "address",
                    "name": "account",
                    "type": "address"
                }
            ],
            "name": "renounceRole",
            "outputs": [],
            "stateMutability": "nonpayable",
            "type": "function"
        },
        {
            "inputs": [
                {
                    "internalType": "uint256",
                    "name": "repayAmount",
                    "type": "uint256"
                }
            ],
            "name": "repayBorrow",
            "outputs": [],
            "stateMutability": "nonpayable",
            "type": "function"
        },
        {
            "inputs": [
                {
                    "internalType": "address",
                    "name": "borrower",
                    "type": "address"
                },
                {
                    "internalType": "uint256",
                    "name": "repayAmount",
                    "type": "uint256"
                }
            ],
            "name": "repayBorrowBehalf",
            "outputs": [],
            "stateMutability": "nonpayable",
            "type": "function"
        },
        {
            "inputs": [
                {
                    "internalType": "address",
                    "name": "borrower",
                    "type": "address"
                },
                {
                    "internalType": "uint256",
                    "name": "amount",
                    "type": "uint256"
                },
                {
                    "internalType": "uint256",
                    "name": "nonce",
                    "type": "uint256"
                },
                {
                    "internalType": "uint256",
                    "name": "expiry",
                    "type": "uint256"
                },
                {
                    "internalType": "uint8",
                    "name": "v",
                    "type": "uint8"
                },
                {
                    "internalType": "bytes32",
                    "name": "r",
                    "type": "bytes32"
                },
                {
                    "internalType": "bytes32",
                    "name": "s",
                    "type": "bytes32"
                }
            ],
            "name": "repayBorrowWithPermit",
            "outputs": [],
            "stateMutability": "nonpayable",
            "type": "function"
        },
        {
            "inputs": [],
            "name": "reserveFactorMantissa",
            "outputs": [
                {
                    "internalType": "uint256",
                    "name": "",
                    "type": "uint256"
                }
            ],
            "stateMutability": "view",
            "type": "function"
        },
        {
            "inputs": [
                {
                    "internalType": "bytes32",
                    "name": "role",
                    "type": "bytes32"
                },
                {
                    "internalType": "address",
                    "name": "account",
                    "type": "address"
                }
            ],
            "name": "revokeRole",
            "outputs": [],
            "stateMutability": "nonpayable",
            "type": "function"
        },
        {
            "inputs": [
                {
                    "internalType": "address",
                    "name": "assetManager_",
                    "type": "address"
                }
            ],
            "name": "setAssetManager",
            "outputs": [],
            "stateMutability": "nonpayable",
            "type": "function"
        },
        {
            "inputs": [
                {
                    "internalType": "uint256",
                    "name": "debtCeiling_",
                    "type": "uint256"
                }
            ],
            "name": "setDebtCeiling",
            "outputs": [],
            "stateMutability": "nonpayable",
            "type": "function"
        },
        {
            "inputs": [
                {
                    "internalType": "address",
                    "name": "account",
                    "type": "address"
                }
            ],
            "name": "setGuardian",
            "outputs": [],
            "stateMutability": "nonpayable",
            "type": "function"
        },
        {
            "inputs": [
                {
                    "internalType": "address",
                    "name": "newInterestRateModel_",
                    "type": "address"
                }
            ],
            "name": "setInterestRateModel",
            "outputs": [],
            "stateMutability": "nonpayable",
            "type": "function"
        },
        {
            "inputs": [
                {
                    "internalType": "uint256",
                    "name": "maxBorrow_",
                    "type": "uint256"
                }
            ],
            "name": "setMaxBorrow",
            "outputs": [],
            "stateMutability": "nonpayable",
            "type": "function"
        },
        {
            "inputs": [
                {
                    "internalType": "uint256",
                    "name": "minBorrow_",
                    "type": "uint256"
                }
            ],
            "name": "setMinBorrow",
            "outputs": [],
            "stateMutability": "nonpayable",
            "type": "function"
        },
        {
            "inputs": [
                {
                    "internalType": "uint256",
                    "name": "originationFee_",
                    "type": "uint256"
                }
            ],
            "name": "setOriginationFee",
            "outputs": [],
            "stateMutability": "nonpayable",
            "type": "function"
        },
        {
            "inputs": [
                {
                    "internalType": "uint256",
                    "name": "overdueBlocks_",
                    "type": "uint256"
                }
            ],
            "name": "setOverdueBlocks",
            "outputs": [],
            "stateMutability": "nonpayable",
            "type": "function"
        },
        {
            "inputs": [
                {
                    "internalType": "uint256",
                    "name": "reserveFactorMantissa_",
                    "type": "uint256"
                }
            ],
            "name": "setReserveFactor",
            "outputs": [],
            "stateMutability": "nonpayable",
            "type": "function"
        },
        {
            "inputs": [
                {
                    "internalType": "address",
                    "name": "userManager_",
                    "type": "address"
                }
            ],
            "name": "setUserManager",
            "outputs": [],
            "stateMutability": "nonpayable",
            "type": "function"
        },
        {
            "inputs": [],
            "name": "supplyRatePerBlock",
            "outputs": [
                {
                    "internalType": "uint256",
                    "name": "",
                    "type": "uint256"
                }
            ],
            "stateMutability": "view",
            "type": "function"
        },
        {
            "inputs": [
                {
                    "internalType": "bytes4",
                    "name": "interfaceId",
                    "type": "bytes4"
                }
            ],
            "name": "supportsInterface",
            "outputs": [
                {
                    "internalType": "bool",
                    "name": "",
                    "type": "bool"
                }
            ],
            "stateMutability": "view",
            "type": "function"
        },
        {
            "inputs": [],
            "name": "symbol",
            "outputs": [
                {
                    "internalType": "string",
                    "name": "",
                    "type": "string"
                }
            ],
            "stateMutability": "view",
            "type": "function"
        },
        {
            "inputs": [],
            "name": "totalBorrows",
            "outputs": [
                {
                    "internalType": "uint256",
                    "name": "",
                    "type": "uint256"
                }
            ],
            "stateMutability": "view",
            "type": "function"
        },
        {
            "inputs": [],
            "name": "totalRedeemable",
            "outputs": [
                {
                    "internalType": "uint256",
                    "name": "",
                    "type": "uint256"
                }
            ],
            "stateMutability": "view",
            "type": "function"
        },
        {
            "inputs": [],
            "name": "totalReserves",
            "outputs": [
                {
                    "internalType": "uint256",
                    "name": "",
                    "type": "uint256"
                }
            ],
            "stateMutability": "view",
            "type": "function"
        },
        {
            "inputs": [],
            "name": "totalSupply",
            "outputs": [
                {
                    "internalType": "uint256",
                    "name": "",
                    "type": "uint256"
                }
            ],
            "stateMutability": "view",
            "type": "function"
        },
        {
            "inputs": [
                {
                    "internalType": "address",
                    "name": "recipient",
                    "type": "address"
                },
                {
                    "internalType": "uint256",
                    "name": "amount",
                    "type": "uint256"
                }
            ],
            "name": "transfer",
            "outputs": [
                {
                    "internalType": "bool",
                    "name": "",
                    "type": "bool"
                }
            ],
            "stateMutability": "nonpayable",
            "type": "function"
        },
        {
            "inputs": [
                {
                    "internalType": "address",
                    "name": "sender",
                    "type": "address"
                },
                {
                    "internalType": "address",
                    "name": "recipient",
                    "type": "address"
                },
                {
                    "internalType": "uint256",
                    "name": "amount",
                    "type": "uint256"
                }
            ],
            "name": "transferFrom",
            "outputs": [
                {
                    "internalType": "bool",
                    "name": "",
                    "type": "bool"
                }
            ],
            "stateMutability": "nonpayable",
            "type": "function"
        },
        {
            "inputs": [],
            "name": "underlying",
            "outputs": [
                {
                    "internalType": "address",
                    "name": "",
                    "type": "address"
                }
            ],
            "stateMutability": "view",
            "type": "function"
        },
        {
            "inputs": [],
            "name": "unpause",
            "outputs": [],
            "stateMutability": "nonpayable",
            "type": "function"
        },
        {
            "inputs": [
                {
                    "internalType": "address",
                    "name": "account",
                    "type": "address"
                }
            ],
            "name": "updateOverdueInfo",
            "outputs": [],
            "stateMutability": "nonpayable",
            "type": "function"
        },
        {
            "inputs": [
                {
                    "internalType": "address",
                    "name": "newImplementation",
                    "type": "address"
                }
            ],
            "name": "upgradeTo",
            "outputs": [],
            "stateMutability": "nonpayable",
            "type": "function"
        },
        {
            "inputs": [
                {
                    "internalType": "address",
                    "name": "newImplementation",
                    "type": "address"
                },
                {
                    "internalType": "bytes",
                    "name": "data",
                    "type": "bytes"
                }
            ],
            "name": "upgradeToAndCall",
            "outputs": [],
            "stateMutability": "payable",
            "type": "function"
        },
        {
            "inputs": [],
            "name": "userManager",
            "outputs": [
                {
                    "internalType": "address",
                    "name": "",
                    "type": "address"
                }
            ],
            "stateMutability": "view",
            "type": "function"
        }
    ],
    "transactionHash": "0xecb76153505a6a18ec1f4706b40eb1384faecd8967ea24fabecbf0d5ca1d0711",
    "args": [],
    "solcInputHash": "17396099ecbd857f406d78caa623130a",
    "bytecode": "0x60a06040523060601b60805234801561001757600080fd5b5060805160601c615e456200004c60003960008181611341015281816113810152818161164b015261168b0152615e456000f3fe6080604052600436106104b55760003560e01c80636d2d1e581161026b578063a217fddf1161014f578063c5ebeaec116100c1578063dd62ed3e11610085578063dd62ed3e14610e1a578063e1c84ea414610e61578063f3fdb15a14610e78578063f7763b3a14610e99578063f8f9da2814610eb9578063fb3b43f014610ece57600080fd5b8063c5ebeaec14610d78578063d391014b14610d98578063d505accf14610dba578063d547741f14610dda578063db006a7514610dfa57600080fd5b8063ae9d70b011610113578063ae9d70b014610cd7578063b1511cc914610cec578063b84dd68314610d0c578063b8845f7514610d2c578063b8bb5c4214610d4c578063bd6d894d14610d6357600080fd5b8063a217fddf14610c56578063a457c2d714610c6b578063a6afed9514610c8b578063a9059cbb14610ca0578063aa5af0fd14610cc057600080fd5b80638bad0c0a116101e857806391d14854116101ac57806391d1485414610ba057806394217ad114610bc057806395d89b4114610be157806397d0b02c14610bf65780639b53307a14610c16578063a0712d6814610c3657600080fd5b80638bad0c0a14610b145780638bcd401614610b295780638c2c351f14610b495780638f840ddd14610b695780638ff45d3714610b8057600080fd5b80637ecebe001161022f5780637ecebe0014610a7f5780637f2006a014610a9f5780638456cb5914610abf578063852a12e314610ad45780638a0dac4a14610af457600080fd5b80636d2d1e58146109c75780636f307dc3146109e75780637048027514610a0857806370a0823114610a285780637821a51414610a5f57600080fd5b80633644e5151161039d5780634f1ef2861161030f5780636011163e116102d35780636011163e1461091d578063613ae3491461093d578063626cca9e146109545780636a146024146109745780636c461a73146109905780636c540baf146109b057600080fd5b80634f1ef286146108915780635b490bbc146108a45780635c8a7687146108c45780635c975abb146108e55780635f4cbedb146108fd57600080fd5b80633bffb9a5116103615780633bffb9a5146107f05780633f4ba83a146108105780633ffb54d1146108255780634306023714610845578063463a7b7b1461086557806347bd37181461087a57600080fd5b80633644e5151461075b57806336568abe146107705780633659cfe61461079057806339509351146107b05780633af9e669146107d057600080fd5b80631edbcf6c1161043657806324d7806c116103fa57806324d7806c146106a85780632592fb67146106c85780632608f818146106e85780632f2ff15d146107085780632fac026614610728578063313ce5671461073f57600080fd5b80631edbcf6c146105fa57806320bcc5591461061157806323b872dd14610626578063248a9ca31461064657806324a3d6221461067657600080fd5b8063173b99041161047d578063173b99041461057857806318160ddd1461058f578063182df0f5146105a55780631c446983146105ba5780631d54164b146105da57600080fd5b806301ffc9a7146104ba57806306fdde03146104ef578063095ea7b3146105115780630cc0bfa5146105315780630e75270214610556575b600080fd5b3480156104c657600080fd5b506104da6104d53660046157b8565b610f08565b60405190151581526020015b60405180910390f35b3480156104fb57600080fd5b50610504610f3f565b6040516104e69190615a4c565b34801561051d57600080fd5b506104da61052c366004615680565b610fd2565b34801561053d57600080fd5b506105486102065481565b6040519081526020016104e6565b34801561056257600080fd5b5061057661057136600461577e565b610fe8565b005b34801561058457600080fd5b506105486101fd5481565b34801561059b57600080fd5b5061013154610548565b3480156105b157600080fd5b50610548611052565b3480156105c657600080fd5b506105766105d536600461577e565b611099565b3480156105e657600080fd5b506105766105f536600461577e565b6110fc565b34801561060657600080fd5b506105486102025481565b34801561061d57600080fd5b506104da600181565b34801561063257600080fd5b506104da61064136600461557e565b611136565b34801561065257600080fd5b5061054861066136600461577e565b600090815260c9602052604090206001015490565b34801561068257600080fd5b5060fc5461069b9061010090046001600160a01b031681565b6040516104e6919061594b565b3480156106b457600080fd5b506104da6106c3366004615532565b6111e3565b3480156106d457600080fd5b506105486106e3366004615532565b6111fd565b3480156106f457600080fd5b50610576610703366004615680565b61121c565b34801561071457600080fd5b50610576610723366004615796565b61127e565b34801561073457600080fd5b506105486102075481565b34801561074b57600080fd5b50604051601281526020016104e6565b34801561076757600080fd5b506105486112a9565b34801561077c57600080fd5b5061057661078b366004615796565b6112b8565b34801561079c57600080fd5b506105766107ab366004615532565b611336565b3480156107bc57600080fd5b506104da6107cb366004615680565b6113ff565b3480156107dc57600080fd5b506105486107eb366004615532565b61143c565b3480156107fc57600080fd5b5061057661080b36600461577e565b611468565b34801561081c57600080fd5b506105766114a2565b34801561083157600080fd5b5061057661084036600461577e565b611560565b34801561085157600080fd5b50610576610860366004615532565b61159a565b34801561087157600080fd5b50610548611618565b34801561088657600080fd5b506105486102005481565b61057661089f366004615622565b611640565b3480156108b057600080fd5b506105766108bf3660046157f8565b6116f6565b3480156108d057600080fd5b506102095461069b906001600160a01b031681565b3480156108f157600080fd5b5060fc5460ff166104da565b34801561090957600080fd5b50610576610918366004615680565b611857565b34801561092957600080fd5b50610548610938366004615532565b611a06565b34801561094957600080fd5b506105486102035481565b34801561096057600080fd5b5061054861096f36600461577e565b611a22565b34801561098057600080fd5b50610548670de0b6b3a764000081565b34801561099c57600080fd5b506105766109ab366004615532565b611a46565b3480156109bc57600080fd5b506105486101fe5481565b3480156109d357600080fd5b506105486109e2366004615532565b611b4b565b3480156109f357600080fd5b506101fa5461069b906001600160a01b031681565b348015610a1457600080fd5b50610576610a23366004615532565b611c5c565b348015610a3457600080fd5b50610548610a43366004615532565b6001600160a01b0316600090815261012f602052604090205490565b348015610a6b57600080fd5b50610576610a7a36600461577e565b611d69565b348015610a8b57600080fd5b50610548610a9a366004615532565b611f74565b348015610aab57600080fd5b50610576610aba36600461577e565b611f93565b348015610acb57600080fd5b50610576611fcd565b348015610ae057600080fd5b50610576610aef36600461577e565b61205c565b348015610b0057600080fd5b50610576610b0f366004615532565b6120da565b348015610b2057600080fd5b50610576612136565b348015610b3557600080fd5b50610576610b44366004615532565b61216d565b348015610b5557600080fd5b50610548610b64366004615532565b6122ca565b348015610b7557600080fd5b506105486102015481565b348015610b8c57600080fd5b50610576610b9b366004615532565b6122e8565b348015610bac57600080fd5b506104da610bbb366004615796565b6123aa565b348015610bcc57600080fd5b506102085461069b906001600160a01b031681565b348015610bed57600080fd5b506105046123d5565b348015610c0257600080fd5b50610576610c11366004615532565b6123e5565b348015610c2257600080fd5b506104da610c31366004615532565b612463565b348015610c4257600080fd5b50610576610c5136600461577e565b61249b565b348015610c6257600080fd5b50610548600081565b348015610c7757600080fd5b506104da610c86366004615680565b6126db565b348015610c9757600080fd5b506104da612775565b348015610cac57600080fd5b506104da610cbb366004615680565b61282c565b348015610ccc57600080fd5b506105486101ff5481565b348015610ce357600080fd5b50610548612839565b348015610cf857600080fd5b50610576610d0736600461577e565b6128bc565b348015610d1857600080fd5b50610576610d273660046156ef565b6128f6565b348015610d3857600080fd5b50610576610d47366004615680565b612b31565b348015610d5857600080fd5b506105486102045481565b348015610d6f57600080fd5b50610548612be8565b348015610d8457600080fd5b50610576610d9336600461577e565b612c4c565b348015610da457600080fd5b50610548600080516020615da983398151915281565b348015610dc657600080fd5b50610576610dd53660046155b9565b6131db565b348015610de657600080fd5b50610576610df5366004615796565b613322565b348015610e0657600080fd5b50610576610e1536600461577e565b613348565b348015610e2657600080fd5b50610548610e3536600461554c565b6001600160a01b0391821660009081526101306020908152604080832093909416825291909152205490565b348015610e6d57600080fd5b506105486102055481565b348015610e8457600080fd5b506101fb5461069b906001600160a01b031681565b348015610ea557600080fd5b50610576610eb43660046156a9565b6133c6565b348015610ec557600080fd5b50610548613491565b348015610eda57600080fd5b50610548610ee9366004615532565b6001600160a01b0316600090815261020a602052604090206002015490565b60006001600160e01b03198216637965db0b60e01b1480610f3957506301ffc9a760e01b6001600160e01b03198316145b92915050565b60606101328054610f4f90615d2c565b80601f0160208091040260200160405190810160405280929190818152602001828054610f7b90615d2c565b8015610fc85780601f10610f9d57610100808354040283529160200191610fc8565b820191906000526020600020905b815481529060010190602001808311610fab57829003601f168201915b5050505050905090565b6000610fdf338484613544565b50600192915050565b60fc5460ff16156110145760405162461bcd60e51b815260040161100b90615c4f565b60405180910390fd5b60026101c85414156110385760405162461bcd60e51b815260040161100b90615c18565b60026101c855611049338083613669565b5060016101c855565b60008061105f6101315490565b9050801561108e5780670de0b6b3a76400006102025461107f9190615cb3565b6110899190615c93565b611093565b6101fc545b91505090565b6110b1600080516020615da9833981519152336123aa565b6110cd5760405162461bcd60e51b815260040161100b90615b17565b670de0b6b3a76400008111156110f6576040516304f3866f60e31b815260040160405180910390fd5b6101fd55565b611114600080516020615da9833981519152336123aa565b6111305760405162461bcd60e51b815260040161100b90615b17565b61020655565b6000611143848484613a52565b6001600160a01b038416600090815261013060209081526040808320338452909152902054828110156111c95760405162461bcd60e51b815260206004820152602860248201527f45524332303a207472616e7366657220616d6f756e74206578636565647320616044820152676c6c6f77616e636560c01b606482015260840161100b565b6111d68533858403613544565b60019150505b9392505050565b6000610f39600080516020615da9833981519152836123aa565b6001600160a01b0316600090815261020a602052604090206003015490565b60fc5460ff161561123f5760405162461bcd60e51b815260040161100b90615c4f565b60026101c85414156112635760405162461bcd60e51b815260040161100b90615c18565b60026101c855611274338383613669565b505060016101c855565b600082815260c9602052604090206001015461129a8133613c12565b6112a48383613c76565b505050565b60006112b3613cfc565b905090565b6001600160a01b03811633146113285760405162461bcd60e51b815260206004820152602f60248201527f416363657373436f6e74726f6c3a2063616e206f6e6c792072656e6f756e636560448201526e103937b632b9903337b91039b2b63360891b606482015260840161100b565b6113328282613d79565b5050565b306001600160a01b037f000000000000000000000000000000000000000000000000000000000000000016141561137f5760405162461bcd60e51b815260040161100b90615a7f565b7f00000000000000000000000000000000000000000000000000000000000000006001600160a01b03166113b1613de0565b6001600160a01b0316146113d75760405162461bcd60e51b815260040161100b90615acb565b6113e081613e0e565b604080516000808252602082019092526113fc91839190613e42565b50565b336000818152610130602090815260408083206001600160a01b03871684529091528120549091610fdf918590611437908690615c7b565b613544565b6001600160a01b038116600090815261012f602052604081205461145e612be8565b610f399190615cb3565b611480600080516020615da9833981519152336123aa565b61149c5760405162461bcd60e51b815260040161100b90615b17565b61020355565b60fc5461010090046001600160a01b031633146114d15760405162461bcd60e51b815260040161100b90615b46565b60fc5460ff1661151c5760405162461bcd60e51b815260206004820152601660248201527510dbdb9d1c9bdb1b195c8e881b9bdd081c185d5cd95960521b604482015260640161100b565b60fc805460ff191690556040517f5db9ee0a495bf2e6ff9c91a7834c1ba4fdd244a5e8aa4e537bd38aeae4b073aa9061155690339061594b565b60405180910390a1565b611578600080516020615da9833981519152336123aa565b6115945760405162461bcd60e51b815260040161100b90615b17565b61020755565b6115b2600080516020615da9833981519152336123aa565b6115ce5760405162461bcd60e51b815260040161100b90615b17565b6001600160a01b0381166115f557604051639fabe1c160e01b815260040160405180910390fd5b61020880546001600160a01b0319166001600160a01b0392909216919091179055565b60006102005461020554101561162e5750600090565b61020054610205546112b39190615cd2565b306001600160a01b037f00000000000000000000000000000000000000000000000000000000000000001614156116895760405162461bcd60e51b815260040161100b90615a7f565b7f00000000000000000000000000000000000000000000000000000000000000006001600160a01b03166116bb613de0565b6001600160a01b0316146116e15760405162461bcd60e51b815260040161100b90615acb565b6116ea82613e0e565b61133282826001613e42565b600054610100900460ff168061170f575060005460ff16155b61172b5760405162461bcd60e51b815260040161100b90615bca565b600054610100900460ff1615801561174d576000805461ffff19166101011790555b8861176b5760405163471e146f60e01b815260040160405180910390fd5b6001600160a01b038a1661179257604051639fabe1c160e01b815260040160405180910390fd5b670de0b6b3a76400008811156117bb576040516304f3866f60e31b815260040160405180910390fd5b6117c482611a46565b6117ce8c8c613f82565b6117d78c614001565b6117df6140a1565b6101fa80546001600160a01b0319166001600160a01b038c161790556102048790556102058690556102068590556102078490556102038390556101fc8990556101fd889055436101fe55670de0b6b3a76400006101ff558015611849576000805461ff00191690555b505050505050505050505050565b60fc5460ff161561187a5760405162461bcd60e51b815260040161100b90615c4f565b60026101c854141561189e5760405162461bcd60e51b815260040161100b90615c18565b60026101c8556118bc600080516020615da9833981519152336123aa565b6118d85760405162461bcd60e51b815260040161100b90615b17565b6118e0612775565b6118fd5760405163233f3cad60e21b815260040160405180910390fd5b8061020160008282546119109190615cd2565b9091555050610208546101fa54604051636ce5768960e11b81526001600160a01b039283169263d9caed129261194f929116908690869060040161595f565b602060405180830381600087803b15801561196957600080fd5b505af115801561197d573d6000803e3d6000fd5b505050506040513d601f19601f820116820180604052508101906119a1919061575e565b6119be57604051631d42c86760e21b815260040160405180910390fd5b7f3935a21c4c6c0ed8a59526c636d4ec1f88fed93a0d52f7f279a398bb5ff3929c8282610201546040516119f4939291906159a6565b60405180910390a1505060016101c855565b6001600160a01b0316600090815261020a602052604090205490565b6000670de0b6b3a76400008261020454611a3c9190615cb3565b610f399190615c93565b600054610100900460ff1680611a5f575060005460ff16155b611a7b5760405162461bcd60e51b815260040161100b90615bca565b600054610100900460ff16158015611a9d576000805461ffff19166101011790555b6001600160a01b038216611ac35760405162461bcd60e51b815260040161100b90615b98565b60fc805460ff191690556001600160a01b038216600081815260fb6020526040902080546001600160a01b0319169091179055611afe614114565b611b16600080516020615da98339815191528361417b565b60fc8054610100600160a81b0319166101006001600160a01b038516021790558015611332576000805461ff00191690555050565b6001600160a01b038116600090815261020a602090815260408083208151608081018352815480825260018301549482019490945260028201549281019290925260030154606082015290611ba35750600092915050565b6000611bad613491565b6101fe549091504390600090611bc39083615cd2565b90506000611bd18285615cb3565b6101ff54909150600090670de0b6b3a7640000611bee8285615cb3565b611bf89190615c93565b611c029190615c7b565b905060008187602001518860000151611c1b9190615c7b565b611c259190615cb3565b90506000876040015182611c399190615c93565b9050611c448a611a06565b611c4e9082615cd2565b9a9950505050505050505050565b611c74600080516020615da9833981519152336123aa565b611c905760405162461bcd60e51b815260040161100b90615b17565b6001600160a01b038116611cb65760405162461bcd60e51b815260040161100b90615b98565b6001600160a01b03818116600090815260fb60205260409020541615611d285760405162461bcd60e51b815260206004820152602160248201527f436f6e74726f6c6c65723a2061646d696e20616c7265616479206578697374656044820152601960fa1b606482015260840161100b565b6001600160a01b038116600081815260fb6020526040902080546001600160a01b03191690911790556113fc600080516020615da98339815191528261417b565b60fc5460ff1615611d8c5760405162461bcd60e51b815260040161100b90615c4f565b60026101c8541415611db05760405162461bcd60e51b815260040161100b90615c18565b60026101c855611dbe612775565b611ddb5760405163233f3cad60e21b815260040160405180910390fd5b6101fa546040516370a0823160e01b81526001600160a01b039091169060009082906370a0823190611e1190309060040161594b565b60206040518083038186803b158015611e2957600080fd5b505afa158015611e3d573d6000803e3d6000fd5b505050506040513d601f19601f82011682018060405250810190611e6191906157e0565b9050611e786001600160a01b038316333086614185565b6040516370a0823160e01b81526000906001600160a01b038416906370a0823190611ea790309060040161594b565b60206040518083038186803b158015611ebf57600080fd5b505afa158015611ed3573d6000803e3d6000fd5b505050506040513d601f19601f82011682018060405250810190611ef791906157e0565b90506000611f058383615cd2565b9050806102016000828254611f1a9190615c7b565b90915550611f299050826141dd565b7f028de5691a4350cc942bc5300a512d556819f5d7bf9c4d2eec2feb4e4fa1bab1338261020154604051611f5f939291906159a6565b60405180910390a1505060016101c855505050565b6001600160a01b03811660009081526101956020526040812054610f39565b611fab600080516020615da9833981519152336123aa565b611fc75760405162461bcd60e51b815260040161100b90615b17565b61020455565b60fc5461010090046001600160a01b03163314611ffc5760405162461bcd60e51b815260040161100b90615b46565b60fc5460ff161561201f5760405162461bcd60e51b815260040161100b90615c4f565b60fc805460ff191660011790556040517f62e78cea01bee320cd4e420270b5ea74000d11b0c9f74754ebdbfc544b05a2589061155690339061594b565b60fc5460ff161561207f5760405162461bcd60e51b815260040161100b90615c4f565b60026101c85414156120a35760405162461bcd60e51b815260040161100b90615c18565b60026101c8556120b1612775565b6120ce5760405163233f3cad60e21b815260040160405180910390fd5b611049336000836142c1565b6120f2600080516020615da9833981519152336123aa565b61210e5760405162461bcd60e51b815260040161100b90615b17565b60fc80546001600160a01b0390921661010002610100600160a81b0319909216919091179055565b61214e600080516020615da9833981519152336112b8565b33600090815260fb6020526040902080546001600160a01b0319169055565b612185600080516020615da9833981519152336123aa565b6121a15760405162461bcd60e51b815260040161100b90615b17565b6001600160a01b0381166121c857604051639fabe1c160e01b815260040160405180910390fd5b6101fb54604080516310c8fc9560e11b815290516001600160a01b0392831692849290831691632191f92a91600480820192602092909190829003018186803b15801561221457600080fd5b505afa158015612228573d6000803e3d6000fd5b505050506040513d601f19601f8201168201806040525081019061224c919061575e565b61226957604051633238e1ef60e21b815260040160405180910390fd5b6101fb80546001600160a01b0319166001600160a01b0383811691821790925560408051928516835260208301919091527f0e0ca793e1618235d3c398af13a5a145bc17d407237e2f0687475941f6fbbac7910160405180910390a1505050565b60006122d582611b4b565b6122de83611a06565b610f399190615c7b565b60fc5460ff161561230b5760405162461bcd60e51b815260040161100b90615c4f565b6001600160a01b03811661233257604051639fabe1c160e01b815260040160405180910390fd5b61233b81612463565b156113fc576102095460405163591d637d60e01b81526001600160a01b038381166004830152600160248301529091169063591d637d90604401600060405180830381600087803b15801561238f57600080fd5b505af11580156123a3573d6000803e3d6000fd5b5050505050565b600091825260c9602090815260408084206001600160a01b0393909316845291905290205460ff1690565b60606101338054610f4f90615d2c565b6123fd600080516020615da9833981519152336123aa565b6124195760405162461bcd60e51b815260040161100b90615b17565b6001600160a01b03811661244057604051639fabe1c160e01b815260040160405180910390fd5b61020980546001600160a01b0319166001600160a01b0392909216919091179055565b600061246e82611a06565b1561249657600061247e836111fd565b9050600061248c8243615cd2565b6102035410925050505b919050565b60fc5460ff16156124be5760405162461bcd60e51b815260040161100b90615c4f565b60026101c85414156124e25760405162461bcd60e51b815260040161100b90615c18565b60026101c8556124f0612775565b61250d5760405163233f3cad60e21b815260040160405180910390fd5b6000612517611052565b6101fa546040516370a0823160e01b81529192506001600160a01b03169060009082906370a082319061254e90309060040161594b565b60206040518083038186803b15801561256657600080fd5b505afa15801561257a573d6000803e3d6000fd5b505050506040513d601f19601f8201168201806040525081019061259e91906157e0565b90506125b56001600160a01b038316333087614185565b6040516370a0823160e01b81526000906001600160a01b038416906370a08231906125e490309060040161594b565b60206040518083038186803b1580156125fc57600080fd5b505afa158015612610573d6000803e3d6000fd5b505050506040513d601f19601f8201168201806040525081019061263491906157e0565b905060006126428383615cd2565b90508061020260008282546126579190615c7b565b909155506000905085612672670de0b6b3a764000084615cb3565b61267c9190615c93565b9050612688338261447c565b612691826141dd565b7fa82a7ea15c804d00dba1b969024b510969fde70fac8e0d5da860cf1f7376d3173383836040516126c4939291906159a6565b60405180910390a1505060016101c8555050505050565b336000908152610130602090815260408083206001600160a01b03861684529091528120548281101561275e5760405162461bcd60e51b815260206004820152602560248201527f45524332303a2064656372656173656420616c6c6f77616e63652062656c6f77604482015264207a65726f60d81b606482015260840161100b565b61276b3385858403613544565b5060019392505050565b600080612780613491565b6101fe5490915043906000906127969083615cd2565b905060006127a48285615cb3565b90506000670de0b6b3a764000061020054836127c09190615cb3565b6127ca9190615c93565b9050600061020054826127dd9190615c7b565b6101ff54909150600090670de0b6b3a76400006127fa8287615cb3565b6128049190615c93565b61280e9190615c7b565b6101fe96909655506101ff9490945550505061020055506001919050565b6000610fdf338484613a52565b6101fb546101fd5460405163d955759d60e01b815260048101919091526000916001600160a01b03169063d955759d9060240160206040518083038186803b15801561288457600080fd5b505afa158015612898573d6000803e3d6000fd5b505050506040513d601f19601f820116820180604052508101906112b391906157e0565b6128d4600080516020615da9833981519152336123aa565b6128f05760405162461bcd60e51b815260040161100b90615b17565b61020555565b60fc5460ff16156129195760405162461bcd60e51b815260040161100b90615c4f565b806000816001600160401b0381111561294257634e487b7160e01b600052604160045260246000fd5b60405190808252806020026020018201604052801561296b578160200160208202803683370190505b5090506000826001600160401b0381111561299657634e487b7160e01b600052604160045260246000fd5b6040519080825280602002602001820160405280156129bf578160200160208202803683370190505b50905060005b83811015612ac457612a058686838181106129f057634e487b7160e01b600052603260045260246000fd5b9050602002016020810190610c319190615532565b15612ab257858582818110612a2a57634e487b7160e01b600052603260045260246000fd5b9050602002016020810190612a3f9190615532565b838281518110612a5f57634e487b7160e01b600052603260045260246000fd5b60200260200101906001600160a01b031690816001600160a01b0316815250506001828281518110612aa157634e487b7160e01b600052603260045260246000fd5b911515602092830291909101909101525b80612abc81615d61565b9150506129c5565b5061020954604051632ea06d8f60e11b81526001600160a01b0390911690635d40db1e90612af890859085906004016159c7565b600060405180830381600087803b158015612b1257600080fd5b505af1158015612b26573d6000803e3d6000fd5b505050505050505050565b60fc5460ff1615612b545760405162461bcd60e51b815260040161100b90615c4f565b610209546001600160a01b03163314612b8057604051638d39c6c960e01b815260040160405180910390fd5b6000612b8b83611a06565b90506000818311612b9e57508180612ba2565b5080805b50612bad8183615cd2565b6001600160a01b038516600090815261020a60205260408120919091556102008054839290612bdd908490615cd2565b909155505050505050565b600060026101c8541415612c0e5760405162461bcd60e51b815260040161100b90615c18565b60026101c855612c1c612775565b612c395760405163233f3cad60e21b815260040160405180910390fd5b612c41611052565b905060016101c85590565b610209546040516321d2a57360e01b815233916001600160a01b0316906321d2a57390612c7d90849060040161594b565b60206040518083038186803b158015612c9557600080fd5b505afa158015612ca9573d6000803e3d6000fd5b505050506040513d601f19601f82011682018060405250810190612ccd919061575e565b612cea5760405163af198c5f60e01b815260040160405180910390fd5b60fc5460ff1615612d0d5760405162461bcd60e51b815260040161100b90615c4f565b60026101c8541415612d315760405162461bcd60e51b815260040161100b90615c18565b60026101c85561020854610207546001600160a01b0390911690831015612d6b57604051638bc0d1af60e01b815260040160405180910390fd5b612d73611618565b831115612d935760405163fb37377960e01b815260040160405180910390fd5b6000612d9e84611a22565b9050610206548185612daf336122ca565b612db99190615c7b565b612dc39190615c7b565b1115612de25760405163158fdc5560e31b815260040160405180910390fd5b612deb33612463565b15612e095760405163a0f6d82560e01b815260040160405180910390fd5b6101fa546040516270341160e01b81526001600160a01b03848116926270341192612e3a929091169060040161594b565b60206040518083038186803b158015612e5257600080fd5b505afa158015612e66573d6000803e3d6000fd5b505050506040513d601f19601f82011682018060405250810190612e8a91906157e0565b841115612eaa5760405163892f65f360e01b815260040160405180910390fd5b612eb48185615c7b565b61020954604051632c333e2560e01b81526001600160a01b0390911690632c333e2590612ee590339060040161594b565b60206040518083038186803b158015612efd57600080fd5b505afa158015612f11573d6000803e3d6000fd5b505050506040513d601f19601f82011682018060405250810190612f3591906157e0565b1215612f54576040516393f1599560e01b815260040160405180910390fd5b612f5c612775565b612f795760405163233f3cad60e21b815260040160405180910390fd5b6000612f843361454b565b9050612f8f336111fd565b612fa9574333600090815261020a60205260409020600301555b600082612fb68784615c7b565b612fc09190615c7b565b90506000838761020054612fd49190615c7b565b612fde9190615c7b565b90506000612feb33611a06565b9050612ff78589615c7b565b33600090815261020a602052604081208054909190613017908490615c7b565b909155506000905061302833611a06565b610209549091506001600160a01b031663ab4ffaa9336130488585615cd2565b60016040518463ffffffff1660e01b815260040161306893929190615983565b600060405180830381600087803b15801561308257600080fd5b505af1158015613096573d6000803e3d6000fd5b5050505080846130a69190615cd2565b33600090815261020a6020526040812060018101929092556101ff5460029092019190915561020084905561020180548892906130e4908490615c7b565b90915550506101fa54604051636ce5768960e11b81526001600160a01b038981169263d9caed1292613120929091169033908e9060040161595f565b602060405180830381600087803b15801561313a57600080fd5b505af115801561314e573d6000803e3d6000fd5b505050506040513d601f19601f82011682018060405250810190613172919061575e565b61318f57604051631d42c86760e21b815260040160405180910390fd5b604080518a81526020810188905233917fe1b17d743be0011d9bba06fe70f26f50edb5da84de0c4db5fcaf609549db7036910160405180910390a2505060016101c85550505050505050565b8342111561322b5760405162461bcd60e51b815260206004820152601d60248201527f45524332305065726d69743a206578706972656420646561646c696e65000000604482015260640161100b565b60006101965488888861323d8c6145df565b6040805160208101969096526001600160a01b0394851690860152929091166060840152608083015260a082015260c0810186905260e001604051602081830303815290604052805190602001209050600061329882614608565b905060006132a882878787614656565b9050896001600160a01b0316816001600160a01b03161461330b5760405162461bcd60e51b815260206004820152601e60248201527f45524332305065726d69743a20696e76616c6964207369676e61747572650000604482015260640161100b565b6133168a8a8a613544565b50505050505050505050565b600082815260c9602052604090206001015461333e8133613c12565b6112a48383613d79565b60fc5460ff161561336b5760405162461bcd60e51b815260040161100b90615c4f565b60026101c854141561338f5760405162461bcd60e51b815260040161100b90615c18565b60026101c85561339d612775565b6133ba5760405163233f3cad60e21b815260040160405180910390fd5b611049338260006142c1565b60fc5460ff16156133e95760405162461bcd60e51b815260040161100b90615c4f565b6101fa546040516323f2ebc360e21b815233600482015230602482015260448101879052606481018690526001608482015260ff851660a482015260c4810184905260e481018390526001600160a01b03909116908190638fcbaf0c9061010401600060405180830381600087803b15801561346457600080fd5b505af1158015613478573d6000803e3d6000fd5b50505050613487338989613669565b5050505050505050565b6000806101fb60009054906101000a90046001600160a01b03166001600160a01b031663ba1c5e806040518163ffffffff1660e01b815260040160206040518083038186803b1580156134e357600080fd5b505afa1580156134f7573d6000803e3d6000fd5b505050506040513d601f19601f8201168201806040525081019061351b91906157e0565b9050652d79883d2000811115612496576040516382381c3b60e01b815260040160405180910390fd5b6001600160a01b0383166135a65760405162461bcd60e51b8152602060048201526024808201527f45524332303a20617070726f76652066726f6d20746865207a65726f206164646044820152637265737360e01b606482015260840161100b565b6001600160a01b0382166136075760405162461bcd60e51b815260206004820152602260248201527f45524332303a20617070726f766520746f20746865207a65726f206164647265604482015261737360f01b606482015260840161100b565b6001600160a01b038381166000818152610130602090815260408083209487168084529482529182902085905590518481527f8c5be1e5ebec7d5bd14f71427d1e84f3dd0314c0f7b2291e5b200ac8c7c3b925910160405180910390a3505050565b6101fa546001600160a01b0316600061368184612463565b9050600061368e85611a06565b9050613698612775565b6136b55760405163233f3cad60e21b815260040160405180910390fd5b60006136c086611b4b565b905060006136cd8761454b565b905060008187116136de57866136e0565b815b905080613700576040516365e52d5160e11b815260040160405180910390fd5b60008084831061389c57670de0b6b3a76400006101fd54866137229190615cb3565b61372c9190615c93565b91506137388286615cd2565b9050861561381e576102095460405163591d637d60e01b81526001600160a01b038c81166004830152600060248301529091169063591d637d90604401600060405180830381600087803b15801561378f57600080fd5b505af11580156137a3573d6000803e3d6000fd5b5050610209546101fa546001600160a01b03918216935063293512c592508d91166137cd826111fd565b6040518463ffffffff1660e01b81526004016137eb9392919061595f565b600060405180830381600087803b15801561380557600080fd5b505af1158015613819573d6000803e3d6000fd5b505050505b6138288385615cd2565b6001600160a01b038b16600090815261020a602052604081209182556001909101556138538a611a06565b613879576001600160a01b038a16600090815261020a60205260408120600301556138f4565b436001600160a01b038b16600090815261020a60205260409020600301556138f4565b670de0b6b3a76400006101fd54846138b49190615cb3565b6138be9190615c93565b91506138ca8284615cd2565b90506138d68386615cd2565b6001600160a01b038b16600090815261020a60205260409020600101555b8161020160008282546139079190615c7b565b925050819055508061020260008282546139219190615c7b565b90915550600090506139328b611a06565b6101ff546001600160a01b038d16600090815261020a60205260408120600201919091556102008054929350869290919061396e908490615cd2565b9091555050610209546001600160a01b031663ab4ffaa98c613990848b615cd2565b60006040518463ffffffff1660e01b81526004016139b093929190615983565b600060405180830381600087803b1580156139ca57600080fd5b505af11580156139de573d6000803e3d6000fd5b506139f8925050506001600160a01b038a168d3087614185565b613a01846141dd565b8a6001600160a01b03167fcd300581542c5eab58e736a0b08b42cec829c4504d1c16af90f4630b27e30de385604051613a3c91815260200190565b60405180910390a2505050505050505050505050565b6001600160a01b038316613ab65760405162461bcd60e51b815260206004820152602560248201527f45524332303a207472616e736665722066726f6d20746865207a65726f206164604482015264647265737360d81b606482015260840161100b565b6001600160a01b038216613b185760405162461bcd60e51b815260206004820152602360248201527f45524332303a207472616e7366657220746f20746865207a65726f206164647260448201526265737360e81b606482015260840161100b565b6001600160a01b038316600090815261012f602052604090205481811015613b915760405162461bcd60e51b815260206004820152602660248201527f45524332303a207472616e7366657220616d6f756e7420657863656564732062604482015265616c616e636560d01b606482015260840161100b565b6001600160a01b03808516600090815261012f6020526040808220858503905591851681529081208054849290613bc9908490615c7b565b92505081905550826001600160a01b0316846001600160a01b0316600080516020615df083398151915284604051613c0391815260200190565b60405180910390a35b50505050565b613c1c82826123aa565b61133257613c34816001600160a01b0316601461467e565b613c3f83602061467e565b604051602001613c509291906158dc565b60408051601f198184030181529082905262461bcd60e51b825261100b91600401615a4c565b613c8082826123aa565b61133257600082815260c9602090815260408083206001600160a01b03851684529091529020805460ff19166001179055613cb83390565b6001600160a01b0316816001600160a01b0316837f2f8788117e7eff1d82e926ec794901d17c78024a50270940304540a733656f0d60405160405180910390a45050565b60006112b37f8b73c3c69bb8fe3d512ecc4cf759cc79239f7b179b0ffacaa9a75d522b39400f613d2c6101615490565b610162546040805160208101859052908101839052606081018290524660808201523060a082015260009060c0016040516020818303038152906040528051906020012090509392505050565b613d8382826123aa565b1561133257600082815260c9602090815260408083206001600160a01b0385168085529252808320805460ff1916905551339285917ff6391f5c32d9c69d2a47ea670b442974b53935d1edc7fd64eb21e047a839171b9190a45050565b7f360894a13ba1a3210667c828492db98dca3e2076cc3735a920a3ca505d382bbc546001600160a01b031690565b613e26600080516020615da9833981519152336123aa565b6113fc5760405162461bcd60e51b815260040161100b90615b17565b6000613e4c613de0565b9050613e578461485f565b600083511180613e645750815b15613e7557613e738484614904565b505b7f4910fdfa16fed3260ed0e7147f7cc6da11a60208b5b9406d12a635614ffd9143805460ff166123a357805460ff19166001178155604051613ef0908690613ec190859060240161594b565b60408051601f198184030181529190526020810180516001600160e01b0316631b2ce7f360e11b179052614904565b50805460ff19168155613f01613de0565b6001600160a01b0316826001600160a01b031614613f795760405162461bcd60e51b815260206004820152602f60248201527f45524331393637557067726164653a207570677261646520627265616b73206660448201526e75727468657220757067726164657360881b606482015260840161100b565b6123a3856149ef565b600054610100900460ff1680613f9b575060005460ff16155b613fb75760405162461bcd60e51b815260040161100b90615bca565b600054610100900460ff16158015613fd9576000805461ffff19166101011790555b613fe1614a2f565b613feb8383614a99565b80156112a4576000805461ff0019169055505050565b600054610100900460ff168061401a575060005460ff16155b6140365760405162461bcd60e51b815260040161100b90615bca565b600054610100900460ff16158015614058576000805461ffff19166101011790555b614060614a2f565b61408382604051806040016040528060018152602001603160f81b815250614b30565b61408c82614bbc565b8015611332576000805461ff00191690555050565b600054610100900460ff16806140ba575060005460ff16155b6140d65760405162461bcd60e51b815260040161100b90615bca565b600054610100900460ff161580156140f8576000805461ffff19166101011790555b614100614c4d565b80156113fc576000805461ff001916905550565b600054610100900460ff168061412d575060005460ff16155b6141495760405162461bcd60e51b815260040161100b90615bca565b600054610100900460ff1615801561416b576000805461ffff19166101011790555b614173614a2f565b614100614a2f565b6113328282613c76565b613c0c846323b872dd60e01b8585856040516024016141a69392919061595f565b60408051601f198184030181529190526020810180516001600160e01b03166001600160e01b031990931692909217909152614cbe565b6101fa54610208546001600160a01b03918216916141ff918391166000614d90565b6102085461421a906001600160a01b03838116911684614d90565b610208546101fa546040516311f9fbc960e21b81526001600160a01b039182166004820152602481018590529116906347e7ef2490604401602060405180830381600087803b15801561426c57600080fd5b505af1158015614280573d6000803e3d6000fd5b505050506040513d601f19601f820116820180604052508101906142a4919061575e565b6113325760405163668470b160e11b815260040160405180910390fd5b81158015906142cf57508015155b156142ed576040516365e52d5160e11b815260040160405180910390fd5b610208546001600160a01b03166000614304611052565b9050600080851561433657859150670de0b6b3a76400006143258484615cb3565b61432f9190615c93565b9050614359565b82614349670de0b6b3a764000087615cb3565b6143539190615c93565b91508490505b80610202600082825461436c9190615cd2565b9091555061437c90508783614eb4565b6101fa54604051636ce5768960e11b81526001600160a01b038681169263d9caed12926143b392909116908b90869060040161595f565b602060405180830381600087803b1580156143cd57600080fd5b505af11580156143e1573d6000803e3d6000fd5b505050506040513d601f19601f82011682018060405250810190614405919061575e565b61442257604051631d42c86760e21b815260040160405180910390fd5b604080516001600160a01b038916815260208101889052908101869052606081018290527faf488116a12f56ff590ab3ca73f6bf9d11028ca9e63e965223b3d156fe18f5939060800160405180910390a150505050505050565b6001600160a01b0382166144d25760405162461bcd60e51b815260206004820152601f60248201527f45524332303a206d696e7420746f20746865207a65726f206164647265737300604482015260640161100b565b8061013160008282546144e59190615c7b565b90915550506001600160a01b038216600090815261012f602052604081208054839290614513908490615c7b565b90915550506040518181526001600160a01b03831690600090600080516020615df08339815191529060200160405180910390a35050565b6001600160a01b038116600090815261020a6020908152604080832081516080810183528154808252600183015494820194909452600282015492810192909252600301546060820152906145a35750600092915050565b6101ff5460208201518251600092916145bb91615c7b565b6145c59190615cb3565b90508160400151816145d79190615c93565b949350505050565b6001600160a01b0381166000908152610195602052604090208054600181018255905b50919050565b6000610f39614615613cfc565b8360405161190160f01b6020820152602281018390526042810182905260009060620160405160208183030381529060405280519060200120905092915050565b600080600061466787878787614ff3565b91509150614674816150d6565b5095945050505050565b6060600061468d836002615cb3565b614698906002615c7b565b6001600160401b038111156146bd57634e487b7160e01b600052604160045260246000fd5b6040519080825280601f01601f1916602001820160405280156146e7576020820181803683370190505b509050600360fc1b8160008151811061471057634e487b7160e01b600052603260045260246000fd5b60200101906001600160f81b031916908160001a905350600f60fb1b8160018151811061474d57634e487b7160e01b600052603260045260246000fd5b60200101906001600160f81b031916908160001a9053506000614771846002615cb3565b61477c906001615c7b565b90505b6001811115614810576f181899199a1a9b1b9c1cb0b131b232b360811b85600f16601081106147be57634e487b7160e01b600052603260045260246000fd5b1a60f81b8282815181106147e257634e487b7160e01b600052603260045260246000fd5b60200101906001600160f81b031916908160001a90535060049490941c9361480981615d15565b905061477f565b5083156111dc5760405162461bcd60e51b815260206004820181905260248201527f537472696e67733a20686578206c656e67746820696e73756666696369656e74604482015260640161100b565b803b6148c35760405162461bcd60e51b815260206004820152602d60248201527f455243313936373a206e657720696d706c656d656e746174696f6e206973206e60448201526c1bdd08184818dbdb9d1c9858dd609a1b606482015260840161100b565b7f360894a13ba1a3210667c828492db98dca3e2076cc3735a920a3ca505d382bbc80546001600160a01b0319166001600160a01b0392909216919091179055565b6060823b6149635760405162461bcd60e51b815260206004820152602660248201527f416464726573733a2064656c65676174652063616c6c20746f206e6f6e2d636f6044820152651b9d1c9858dd60d21b606482015260840161100b565b600080846001600160a01b03168460405161497e91906158c0565b600060405180830381855af49150503d80600081146149b9576040519150601f19603f3d011682016040523d82523d6000602084013e6149be565b606091505b50915091506149e68282604051806060016040528060278152602001615dc9602791396152d2565b95945050505050565b6149f88161485f565b6040516001600160a01b038216907fbc7cd75a20ee27fd9adebab32041f755214dbc6bffa90cc0225b39da2e5c2d3b90600090a250565b600054610100900460ff1680614a48575060005460ff16155b614a645760405162461bcd60e51b815260040161100b90615bca565b600054610100900460ff16158015614100576000805461ffff191661010117905580156113fc576000805461ff001916905550565b600054610100900460ff1680614ab2575060005460ff16155b614ace5760405162461bcd60e51b815260040161100b90615bca565b600054610100900460ff16158015614af0576000805461ffff19166101011790555b8251614b04906101329060208601906153dd565b508151614b19906101339060208501906153dd565b5080156112a4576000805461ff0019169055505050565b600054610100900460ff1680614b49575060005460ff16155b614b655760405162461bcd60e51b815260040161100b90615bca565b600054610100900460ff16158015614b87576000805461ffff19166101011790555b8251602080850191909120835191840191909120610161919091556101625580156112a4576000805461ff0019169055505050565b600054610100900460ff1680614bd5575060005460ff16155b614bf15760405162461bcd60e51b815260040161100b90615bca565b600054610100900460ff16158015614c13576000805461ffff19166101011790555b7f6e71edae12b1b97f4d1f60370fef10105fa2faae0126114a169c64845d6126c9610196558015611332576000805461ff00191690555050565b600054610100900460ff1680614c66575060005460ff16155b614c825760405162461bcd60e51b815260040161100b90615bca565b600054610100900460ff16158015614ca4576000805461ffff19166101011790555b60016101c85580156113fc576000805461ff001916905550565b6000614d13826040518060400160405280602081526020017f5361666545524332303a206c6f772d6c6576656c2063616c6c206661696c6564815250856001600160a01b031661530b9092919063ffffffff16565b8051909150156112a45780806020019051810190614d31919061575e565b6112a45760405162461bcd60e51b815260206004820152602a60248201527f5361666545524332303a204552433230206f7065726174696f6e20646964206e6044820152691bdd081cdd58d8d9595960b21b606482015260840161100b565b801580614e195750604051636eb1769f60e11b81523060048201526001600160a01b03838116602483015284169063dd62ed3e9060440160206040518083038186803b158015614ddf57600080fd5b505afa158015614df3573d6000803e3d6000fd5b505050506040513d601f19601f82011682018060405250810190614e1791906157e0565b155b614e845760405162461bcd60e51b815260206004820152603660248201527f5361666545524332303a20617070726f76652066726f6d206e6f6e2d7a65726f60448201527520746f206e6f6e2d7a65726f20616c6c6f77616e636560501b606482015260840161100b565b6040516001600160a01b0383166024820152604481018290526112a490849063095ea7b360e01b906064016141a6565b6001600160a01b038216614f145760405162461bcd60e51b815260206004820152602160248201527f45524332303a206275726e2066726f6d20746865207a65726f206164647265736044820152607360f81b606482015260840161100b565b6001600160a01b038216600090815261012f602052604090205481811015614f895760405162461bcd60e51b815260206004820152602260248201527f45524332303a206275726e20616d6f756e7420657863656564732062616c616e604482015261636560f01b606482015260840161100b565b6001600160a01b038316600090815261012f6020526040812083830390556101318054849290614fba908490615cd2565b90915550506040518281526000906001600160a01b03851690600080516020615df08339815191529060200160405180910390a3505050565b6000806fa2a8918ca85bafe22016d0b997e4df60600160ff1b0383111561502057506000905060036150cd565b8460ff16601b1415801561503857508460ff16601c14155b1561504957506000905060046150cd565b6040805160008082526020820180845289905260ff881692820192909252606081018690526080810185905260019060a0016020604051602081039080840390855afa15801561509d573d6000803e3d6000fd5b5050604051601f1901519150506001600160a01b0381166150c6576000600192509250506150cd565b9150600090505b94509492505050565b60008160048111156150f857634e487b7160e01b600052602160045260246000fd5b14156151015750565b600181600481111561512357634e487b7160e01b600052602160045260246000fd5b141561516c5760405162461bcd60e51b815260206004820152601860248201527745434453413a20696e76616c6964207369676e617475726560401b604482015260640161100b565b600281600481111561518e57634e487b7160e01b600052602160045260246000fd5b14156151dc5760405162461bcd60e51b815260206004820152601f60248201527f45434453413a20696e76616c6964207369676e6174757265206c656e67746800604482015260640161100b565b60038160048111156151fe57634e487b7160e01b600052602160045260246000fd5b14156152575760405162461bcd60e51b815260206004820152602260248201527f45434453413a20696e76616c6964207369676e6174757265202773272076616c604482015261756560f01b606482015260840161100b565b600481600481111561527957634e487b7160e01b600052602160045260246000fd5b14156113fc5760405162461bcd60e51b815260206004820152602260248201527f45434453413a20696e76616c6964207369676e6174757265202776272076616c604482015261756560f01b606482015260840161100b565b606083156152e15750816111dc565b8251156152f15782518084602001fd5b8160405162461bcd60e51b815260040161100b9190615a4c565b60606145d7848460008585843b6153645760405162461bcd60e51b815260206004820152601d60248201527f416464726573733a2063616c6c20746f206e6f6e2d636f6e7472616374000000604482015260640161100b565b600080866001600160a01b0316858760405161538091906158c0565b60006040518083038185875af1925050503d80600081146153bd576040519150601f19603f3d011682016040523d82523d6000602084013e6153c2565b606091505b50915091506153d28282866152d2565b979650505050505050565b8280546153e990615d2c565b90600052602060002090601f01602090048101928261540b5760008555615451565b82601f1061542457805160ff1916838001178555615451565b82800160010185558215615451579182015b82811115615451578251825591602001919060010190615436565b5061545d929150615461565b5090565b5b8082111561545d5760008155600101615462565b60006001600160401b038084111561549057615490615d92565b604051601f8501601f19908116603f011681019082821181831017156154b8576154b8615d92565b816040528093508581528686860111156154d157600080fd5b858560208301376000602087830101525050509392505050565b80356001600160a01b038116811461249657600080fd5b600082601f830112615512578081fd5b6111dc83833560208501615476565b803560ff8116811461249657600080fd5b600060208284031215615543578081fd5b6111dc826154eb565b6000806040838503121561555e578081fd5b615567836154eb565b9150615575602084016154eb565b90509250929050565b600080600060608486031215615592578081fd5b61559b846154eb565b92506155a9602085016154eb565b9150604084013590509250925092565b600080600080600080600060e0888a0312156155d3578283fd5b6155dc886154eb565b96506155ea602089016154eb565b9550604088013594506060880135935061560660808901615521565b925060a0880135915060c0880135905092959891949750929550565b60008060408385031215615634578182fd5b61563d836154eb565b915060208301356001600160401b03811115615657578182fd5b8301601f81018513615667578182fd5b61567685823560208401615476565b9150509250929050565b60008060408385031215615692578182fd5b61569b836154eb565b946020939093013593505050565b600080600080600080600060e0888a0312156156c3578283fd5b6156cc886154eb565b965060208801359550604088013594506060880135935061560660808901615521565b60008060208385031215615701578182fd5b82356001600160401b0380821115615717578384fd5b818501915085601f83011261572a578384fd5b813581811115615738578485fd5b8660208260051b850101111561574c578485fd5b60209290920196919550909350505050565b60006020828403121561576f578081fd5b815180151581146111dc578182fd5b60006020828403121561578f578081fd5b5035919050565b600080604083850312156157a8578182fd5b82359150615575602084016154eb565b6000602082840312156157c9578081fd5b81356001600160e01b0319811681146111dc578182fd5b6000602082840312156157f1578081fd5b5051919050565b60008060008060008060008060008060006101608c8e031215615819578485fd5b6001600160401b03808d35111561582e578586fd5b61583b8e8e358f01615502565b9b508060208e0135111561584d578586fd5b5061585e8d60208e01358e01615502565b995061586c60408d016154eb565b985060608c0135975060808c0135965060a08c0135955060c08c0135945060e08c013593506101008c013592506101208c013591506158ae6101408d016154eb565b90509295989b509295989b9093969950565b600082516158d2818460208701615ce9565b9190910192915050565b76020b1b1b2b9b9a1b7b73a3937b61d1030b1b1b7bab73a1604d1b81526000835161590e816017850160208801615ce9565b7001034b99036b4b9b9b4b733903937b6329607d1b601791840191820152835161593f816028840160208801615ce9565b01602801949350505050565b6001600160a01b0391909116815260200190565b6001600160a01b039384168152919092166020820152604081019190915260600190565b6001600160a01b0393909316835260208301919091521515604082015260600190565b6001600160a01b039390931683526020830191909152604082015260600190565b604080825283519082018190526000906020906060840190828701845b82811015615a095781516001600160a01b0316845292840192908401906001016159e4565b50505083810382850152845180825285830191830190845b81811015615a3f578351151583529284019291840191600101615a21565b5090979650505050505050565b6020815260008251806020840152615a6b816040850160208701615ce9565b601f01601f19169190910160400192915050565b6020808252602c908201527f46756e6374696f6e206d7573742062652063616c6c6564207468726f7567682060408201526b19195b1959d85d1958d85b1b60a21b606082015260800190565b6020808252602c908201527f46756e6374696f6e206d7573742062652063616c6c6564207468726f7567682060408201526b6163746976652070726f787960a01b606082015260800190565b60208082526015908201527421b7b73a3937b63632b91d103737ba1030b236b4b760591b604082015260600190565b60208082526032908201527f436f6e74726f6c6c65723a2063616c6c657220646f6573206e6f7420686176656040820152712074686520677561726469616e20726f6c6560701b606082015260800190565b602080825260189082015277436f6e74726f6c6c65723a2061646472657373207a65726f60401b604082015260600190565b6020808252602e908201527f496e697469616c697a61626c653a20636f6e747261637420697320616c72656160408201526d191e481a5b9a5d1a585b1a5e995960921b606082015260800190565b6020808252601f908201527f5265656e7472616e637947756172643a207265656e7472616e742063616c6c00604082015260600190565b60208082526012908201527110dbdb9d1c9bdb1b195c8e881c185d5cd95960721b604082015260600190565b60008219821115615c8e57615c8e615d7c565b500190565b600082615cae57634e487b7160e01b81526012600452602481fd5b500490565b6000816000190483118215151615615ccd57615ccd615d7c565b500290565b600082821015615ce457615ce4615d7c565b500390565b60005b83811015615d04578181015183820152602001615cec565b83811115613c0c5750506000910152565b600081615d2457615d24615d7c565b506000190190565b600181811c90821680615d4057607f821691505b6020821081141561460257634e487b7160e01b600052602260045260246000fd5b6000600019821415615d7557615d75615d7c565b5060010190565b634e487b7160e01b600052601160045260246000fd5b634e487b7160e01b600052604160045260246000fdfe2172861495e7b85edac73e3cd5fbb42dd675baadf627720e687bcfdaca025096416464726573733a206c6f772d6c6576656c2064656c65676174652063616c6c206661696c6564ddf252ad1be2c89b69c2b068fc378daa952ba7f163c4a11628f55a4df523b3efa26469706673582212201f1104ac1c063e97067d6610665b6aca18a44de244b8bd8345ac4640103625e964736f6c63430008040033",
    "devdoc": {
        "kind": "dev",
        "methods": {
            "DOMAIN_SEPARATOR()": {
                "details": "See {IERC20Permit-DOMAIN_SEPARATOR}."
            },
            "accrueInterest()": {
                "details": "Accrue interest",
                "returns": {
                    "_0": "Accrue interest finished"
                }
            },
            "addAdmin(address)": {
                "details": "Add a new admin account",
                "params": {
                    "account": "Account address"
                }
            },
            "allowance(address,address)": {
                "details": "See {IERC20-allowance}."
            },
            "approve(address,uint256)": {
                "details": "See {IERC20-approve}. Requirements: - `spender` cannot be the zero address."
            },
            "balanceOf(address)": {
                "details": "See {IERC20-balanceOf}."
            },
            "balanceOfUnderlying(address)": {
                "details": "This also accrues interest in a transaction",
                "params": {
                    "owner": "The address of the account to query"
                },
                "returns": {
                    "_0": "The amount of underlying owned by `owner`"
                }
            },
            "batchUpdateOverdueInfos(address[])": {
                "details": "Batch update borrower overdue info",
                "params": {
                    "accounts": "Borrowers address"
                }
            },
            "borrow(uint256)": {
                "details": "Borrowing from the market  Accept claims only from the member  Borrow amount must in the range of creditLimit, minBorrow, maxBorrow, debtCeiling and not overdue",
                "params": {
                    "amount": "Borrow amount"
                }
            },
            "borrowBalanceView(address)": {
                "details": "Get a member's current owed balance, including the principle and interest but without updating the user's states.",
                "params": {
                    "account": "Member address"
                },
                "returns": {
                    "_0": "Borrowed amount"
                }
            },
            "borrowRatePerBlock()": {
                "details": "Get the borrowing interest rate per block",
                "returns": {
                    "_0": "Borrow rate"
                }
            },
            "calculatingFee(uint256)": {
                "details": "Get the origination fee",
                "params": {
                    "amount": "Amount to be calculated"
                },
                "returns": {
                    "_0": "Handling fee"
                }
            },
            "calculatingInterest(address)": {
                "details": "Calculating member's borrowed interest",
                "params": {
                    "account": "Member address"
                },
                "returns": {
                    "_0": "Interest amount"
                }
            },
            "checkIsOverdue(address)": {
                "details": "Check if the member's loan is overdue",
                "params": {
                    "account": "Member address"
                },
                "returns": {
                    "isOverdue": "isOverdue"
                }
            },
            "debtWriteOff(address,uint256)": {
                "details": "debt write off",
                "params": {
                    "amount": "WriteOff amount",
                    "borrower": "Borrower address"
                }
            },
            "decimals()": {
                "details": "Returns the number of decimals used to get its user representation. For example, if `decimals` equals `2`, a balance of `505` tokens should be displayed to a user as `5.05` (`505 / 10 ** 2`). Tokens usually opt for a value of 18, imitating the relationship between Ether and Wei. This is the value {ERC20} uses, unless this function is overridden; NOTE: This information is only used for _display_ purposes: it in no way affects any of the arithmetic of the contract, including {IERC20-balanceOf} and {IERC20-transfer}."
            },
            "decreaseAllowance(address,uint256)": {
                "details": "Atomically decreases the allowance granted to `spender` by the caller. This is an alternative to {approve} that can be used as a mitigation for problems described in {IERC20-approve}. Emits an {Approval} event indicating the updated allowance. Requirements: - `spender` cannot be the zero address. - `spender` must have allowance for the caller of at least `subtractedValue`."
            },
            "exchangeRateCurrent()": {
                "returns": {
                    "_0": "Calculated exchange rate scaled by 1e18"
                }
            },
            "exchangeRateStored()": {
                "details": "This function does not accrue interest before calculating the exchange rate",
                "returns": {
                    "_0": "Calculated exchange rate scaled by 1e18"
                }
            },
            "getBorrowed(address)": {
                "details": "Get the borrowed principle",
                "params": {
                    "account": "Member address"
                },
                "returns": {
                    "_0": "borrowed"
                }
            },
            "getInterestIndex(address)": {
                "details": "Get member interest index",
                "params": {
                    "account": "Member address"
                },
                "returns": {
                    "_0": "interestIndex"
                }
            },
            "getLastRepay(address)": {
                "details": "Get the last repay block",
                "params": {
                    "account": "Member address"
                },
                "returns": {
                    "_0": "lastRepay"
                }
            },
            "getRemainingDebtCeiling()": {
                "details": "Returns the remaining amount that can be borrowed from the market.",
                "returns": {
                    "_0": "Remaining total amount"
                }
            },
            "getRoleAdmin(bytes32)": {
                "details": "Returns the admin role that controls `role`. See {grantRole} and {revokeRole}. To change a role's admin, use {_setRoleAdmin}."
            },
            "grantRole(bytes32,address)": {
                "details": "Grants `role` to `account`. If `account` had not been already granted `role`, emits a {RoleGranted} event. Requirements: - the caller must have ``role``'s admin role."
            },
            "hasRole(bytes32,address)": {
                "details": "Returns `true` if `account` has been granted `role`."
            },
            "increaseAllowance(address,uint256)": {
                "details": "Atomically increases the allowance granted to `spender` by the caller. This is an alternative to {approve} that can be used as a mitigation for problems described in {IERC20-approve}. Emits an {Approval} event indicating the updated allowance. Requirements: - `spender` cannot be the zero address."
            },
            "isAdmin(address)": {
                "details": "Check if the address provided is the admin",
                "params": {
                    "account": "Account address"
                }
            },
            "name()": {
                "details": "Returns the name of the token."
            },
            "nonces(address)": {
                "details": "See {IERC20Permit-nonces}."
            },
            "pause()": {
                "details": "Called by a pauser to pause, triggers stopped state."
            },
            "paused()": {
                "details": "Returns true if the contract is paused, and false otherwise."
            },
            "permit(address,address,uint256,uint256,uint8,bytes32,bytes32)": {
                "details": "See {IERC20Permit-permit}."
            },
            "redeem(uint256)": {
                "details": "Accrues interest whether or not the operation succeeds, unless reverted",
                "params": {
                    "redeemTokens": "The number of uTokens to redeem into underlying"
                }
            },
            "redeemUnderlying(uint256)": {
                "details": "Accrues interest whether or not the operation succeeds, unless reverted",
                "params": {
                    "redeemAmount": "The amount of underlying to receive from redeeming uTokens"
                }
            },
            "renounceAdmin()": {
                "details": "Renouce the admin from the sender's address"
            },
            "renounceRole(bytes32,address)": {
                "details": "Revokes `role` from the calling account. Roles are often managed via {grantRole} and {revokeRole}: this function's purpose is to provide a mechanism for accounts to lose their privileges if they are compromised (such as when a trusted device is misplaced). If the calling account had been revoked `role`, emits a {RoleRevoked} event. Requirements: - the caller must be `account`."
            },
            "revokeRole(bytes32,address)": {
                "details": "Revokes `role` from `account`. If `account` had been granted `role`, emits a {RoleRevoked} event. Requirements: - the caller must have ``role``'s admin role."
            },
            "setDebtCeiling(uint256)": {
                "details": "Update the market debt ceiling to a fixed amount, for example, 1 billion DAI etc.  Accept claims only from the admin",
                "params": {
                    "debtCeiling_": "The debt limit for the whole system"
                }
            },
            "setGuardian(address)": {
                "details": "Set pauseGuardian account",
                "params": {
                    "account": "Account address"
                }
            },
            "setInterestRateModel(address)": {
                "details": "Change to a different interest rate model  Accept claims only from the admin",
                "params": {
                    "newInterestRateModel_": "New interest rate model address"
                }
            },
            "setMaxBorrow(uint256)": {
                "details": "Update the max loan size  Accept claims only from the admin",
                "params": {
                    "maxBorrow_": "Max loan amount per user"
                }
            },
            "setMinBorrow(uint256)": {
                "details": "Update the minimum loan size  Accept claims only from the admin",
                "params": {
                    "minBorrow_": "Minimum loan amount per user"
                }
            },
            "setOriginationFee(uint256)": {
                "details": "Change loan origination fee value  Accept claims only from the admin",
                "params": {
                    "originationFee_": "Fees deducted for each loan transaction"
                }
            },
            "setOverdueBlocks(uint256)": {
                "details": "Change loan overdue duration, based on the number of blocks  Accept claims only from the admin",
                "params": {
                    "overdueBlocks_": "Maximum late repayment block. The number of arrivals is a default"
                }
            },
            "supplyRatePerBlock()": {
                "returns": {
                    "_0": "The supply interest rate per block, scaled by 1e18"
                }
            },
            "supportsInterface(bytes4)": {
                "details": "See {IERC165-supportsInterface}."
            },
            "symbol()": {
                "details": "Returns the symbol of the token, usually a shorter version of the name."
            },
            "totalSupply()": {
                "details": "See {IERC20-totalSupply}."
            },
            "transfer(address,uint256)": {
                "details": "See {IERC20-transfer}. Requirements: - `recipient` cannot be the zero address. - the caller must have a balance of at least `amount`."
            },
            "transferFrom(address,address,uint256)": {
                "details": "See {IERC20-transferFrom}. Emits an {Approval} event indicating the updated allowance. This is not required by the EIP. See the note at the beginning of {ERC20}. Requirements: - `sender` and `recipient` cannot be the zero address. - `sender` must have a balance of at least `amount`. - the caller must have allowance for ``sender``'s tokens of at least `amount`."
            },
            "unpause()": {
                "details": "Called by a pauser to unpause, returns to normal state."
            },
            "updateOverdueInfo(address)": {
                "details": "Update borrower overdue info",
                "params": {
                    "account": "Borrower address"
                }
            },
            "upgradeTo(address)": {
                "details": "Upgrade the implementation of the proxy to `newImplementation`. Calls {_authorizeUpgrade}. Emits an {Upgraded} event."
            },
            "upgradeToAndCall(address,bytes)": {
                "details": "Upgrade the implementation of the proxy to `newImplementation`, and subsequently execute the function call encoded in `data`. Calls {_authorizeUpgrade}. Emits an {Upgraded} event."
            }
        },
        "version": 1
    },
    "userdoc": {
        "kind": "user",
        "methods": {
            "balanceOfUnderlying(address)": {
                "notice": "Get the underlying balance of the `owner`"
            },
            "exchangeRateCurrent()": {
                "notice": "Accrue interest then return the up-to-date exchange rate"
            },
            "exchangeRateStored()": {
                "notice": "Calculates the exchange rate from the underlying to the UToken"
            },
            "redeem(uint256)": {
                "notice": "Sender redeems uTokens in exchange for the underlying asset"
            },
            "redeemUnderlying(uint256)": {
                "notice": "Sender redeems uTokens in exchange for a specified amount of underlying asset"
            },
            "supplyRatePerBlock()": {
                "notice": "Returns the current per-block supply interest rate for this UToken"
            }
        },
        "version": 1
    },
    "storageLayout": {
        "storage": [
            {
                "astId": 823,
                "contract": "contracts/market/UDai.sol:UDai",
                "label": "_initialized",
                "offset": 0,
                "slot": "0",
                "type": "t_bool"
            },
            {
                "astId": 826,
                "contract": "contracts/market/UDai.sol:UDai",
                "label": "_initializing",
                "offset": 1,
                "slot": "0",
                "type": "t_bool"
            },
            {
                "astId": 806,
                "contract": "contracts/market/UDai.sol:UDai",
                "label": "__gap",
                "offset": 0,
                "slot": "1",
                "type": "t_array(t_uint256)50_storage"
            },
            {
                "astId": 973,
                "contract": "contracts/market/UDai.sol:UDai",
                "label": "__gap",
                "offset": 0,
                "slot": "51",
                "type": "t_array(t_uint256)50_storage"
            },
            {
                "astId": 2453,
                "contract": "contracts/market/UDai.sol:UDai",
                "label": "__gap",
                "offset": 0,
                "slot": "101",
                "type": "t_array(t_uint256)50_storage"
            },
            {
                "astId": 3375,
                "contract": "contracts/market/UDai.sol:UDai",
                "label": "__gap",
                "offset": 0,
                "slot": "151",
                "type": "t_array(t_uint256)50_storage"
            },
            {
                "astId": 48,
                "contract": "contracts/market/UDai.sol:UDai",
                "label": "_roles",
                "offset": 0,
                "slot": "201",
                "type": "t_mapping(t_bytes32,t_struct(RoleData)43_storage)"
            },
            {
                "astId": 335,
                "contract": "contracts/market/UDai.sol:UDai",
                "label": "__gap",
                "offset": 0,
                "slot": "202",
                "type": "t_array(t_uint256)49_storage"
            },
            {
                "astId": 12125,
                "contract": "contracts/market/UDai.sol:UDai",
                "label": "_admins",
                "offset": 0,
                "slot": "251",
                "type": "t_mapping(t_address,t_address)"
            },
            {
                "astId": 12127,
                "contract": "contracts/market/UDai.sol:UDai",
                "label": "_paused",
                "offset": 0,
                "slot": "252",
                "type": "t_bool"
            },
            {
                "astId": 12129,
                "contract": "contracts/market/UDai.sol:UDai",
                "label": "pauseGuardian",
                "offset": 1,
                "slot": "252",
                "type": "t_address"
            },
            {
                "astId": 12369,
                "contract": "contracts/market/UDai.sol:UDai",
                "label": "______gap",
                "offset": 0,
                "slot": "253",
                "type": "t_array(t_uint256)50_storage"
            },
            {
                "astId": 1051,
                "contract": "contracts/market/UDai.sol:UDai",
                "label": "_balances",
                "offset": 0,
                "slot": "303",
                "type": "t_mapping(t_address,t_uint256)"
            },
            {
                "astId": 1057,
                "contract": "contracts/market/UDai.sol:UDai",
                "label": "_allowances",
                "offset": 0,
                "slot": "304",
                "type": "t_mapping(t_address,t_mapping(t_address,t_uint256))"
            },
            {
                "astId": 1059,
                "contract": "contracts/market/UDai.sol:UDai",
                "label": "_totalSupply",
                "offset": 0,
                "slot": "305",
                "type": "t_uint256"
            },
            {
                "astId": 1061,
                "contract": "contracts/market/UDai.sol:UDai",
                "label": "_name",
                "offset": 0,
                "slot": "306",
                "type": "t_string_storage"
            },
            {
                "astId": 1063,
                "contract": "contracts/market/UDai.sol:UDai",
                "label": "_symbol",
                "offset": 0,
                "slot": "307",
                "type": "t_string_storage"
            },
            {
                "astId": 1604,
                "contract": "contracts/market/UDai.sol:UDai",
                "label": "__gap",
                "offset": 0,
                "slot": "308",
                "type": "t_array(t_uint256)45_storage"
            },
            {
                "astId": 3190,
                "contract": "contracts/market/UDai.sol:UDai",
                "label": "_HASHED_NAME",
                "offset": 0,
                "slot": "353",
                "type": "t_bytes32"
            },
            {
                "astId": 3192,
                "contract": "contracts/market/UDai.sol:UDai",
                "label": "_HASHED_VERSION",
                "offset": 0,
                "slot": "354",
                "type": "t_bytes32"
            },
            {
                "astId": 3329,
                "contract": "contracts/market/UDai.sol:UDai",
                "label": "__gap",
                "offset": 0,
                "slot": "355",
                "type": "t_array(t_uint256)50_storage"
            },
            {
                "astId": 1734,
                "contract": "contracts/market/UDai.sol:UDai",
                "label": "_nonces",
                "offset": 0,
                "slot": "405",
                "type": "t_mapping(t_address,t_struct(Counter)2460_storage)"
            },
            {
                "astId": 1736,
                "contract": "contracts/market/UDai.sol:UDai",
                "label": "_PERMIT_TYPEHASH",
                "offset": 0,
                "slot": "406",
                "type": "t_bytes32"
            },
            {
                "astId": 1904,
                "contract": "contracts/market/UDai.sol:UDai",
                "label": "__gap",
                "offset": 0,
                "slot": "407",
                "type": "t_array(t_uint256)49_storage"
            },
            {
                "astId": 988,
                "contract": "contracts/market/UDai.sol:UDai",
                "label": "_status",
                "offset": 0,
                "slot": "456",
                "type": "t_uint256"
            },
            {
                "astId": 1031,
                "contract": "contracts/market/UDai.sol:UDai",
                "label": "__gap",
                "offset": 0,
                "slot": "457",
                "type": "t_array(t_uint256)49_storage"
            },
            {
                "astId": 17613,
                "contract": "contracts/market/UDai.sol:UDai",
                "label": "underlying",
                "offset": 0,
                "slot": "506",
                "type": "t_address"
            },
            {
                "astId": 17616,
                "contract": "contracts/market/UDai.sol:UDai",
                "label": "interestRateModel",
                "offset": 0,
                "slot": "507",
                "type": "t_contract(IInterestRateModel)16560"
            },
            {
                "astId": 17618,
                "contract": "contracts/market/UDai.sol:UDai",
                "label": "initialExchangeRateMantissa",
                "offset": 0,
                "slot": "508",
                "type": "t_uint256"
            },
            {
                "astId": 17620,
                "contract": "contracts/market/UDai.sol:UDai",
                "label": "reserveFactorMantissa",
                "offset": 0,
                "slot": "509",
                "type": "t_uint256"
            },
            {
                "astId": 17622,
                "contract": "contracts/market/UDai.sol:UDai",
                "label": "accrualBlockNumber",
                "offset": 0,
                "slot": "510",
                "type": "t_uint256"
            },
            {
                "astId": 17624,
                "contract": "contracts/market/UDai.sol:UDai",
                "label": "borrowIndex",
                "offset": 0,
                "slot": "511",
                "type": "t_uint256"
            },
            {
                "astId": 17626,
                "contract": "contracts/market/UDai.sol:UDai",
                "label": "totalBorrows",
                "offset": 0,
                "slot": "512",
                "type": "t_uint256"
            },
            {
                "astId": 17628,
                "contract": "contracts/market/UDai.sol:UDai",
                "label": "totalReserves",
                "offset": 0,
                "slot": "513",
                "type": "t_uint256"
            },
            {
                "astId": 17630,
                "contract": "contracts/market/UDai.sol:UDai",
                "label": "totalRedeemable",
                "offset": 0,
                "slot": "514",
                "type": "t_uint256"
            },
            {
                "astId": 17632,
                "contract": "contracts/market/UDai.sol:UDai",
                "label": "overdueBlocks",
                "offset": 0,
                "slot": "515",
                "type": "t_uint256"
            },
            {
                "astId": 17634,
                "contract": "contracts/market/UDai.sol:UDai",
                "label": "originationFee",
                "offset": 0,
                "slot": "516",
                "type": "t_uint256"
            },
            {
                "astId": 17636,
                "contract": "contracts/market/UDai.sol:UDai",
                "label": "debtCeiling",
                "offset": 0,
                "slot": "517",
                "type": "t_uint256"
            },
            {
                "astId": 17638,
                "contract": "contracts/market/UDai.sol:UDai",
                "label": "maxBorrow",
                "offset": 0,
                "slot": "518",
                "type": "t_uint256"
            },
            {
                "astId": 17640,
                "contract": "contracts/market/UDai.sol:UDai",
                "label": "minBorrow",
                "offset": 0,
                "slot": "519",
                "type": "t_uint256"
            },
            {
                "astId": 17642,
                "contract": "contracts/market/UDai.sol:UDai",
                "label": "assetManager",
                "offset": 0,
                "slot": "520",
                "type": "t_address"
            },
            {
                "astId": 17644,
                "contract": "contracts/market/UDai.sol:UDai",
                "label": "userManager",
                "offset": 0,
                "slot": "521",
                "type": "t_address"
            },
            {
                "astId": 17659,
                "contract": "contracts/market/UDai.sol:UDai",
                "label": "accountBorrows",
                "offset": 0,
                "slot": "522",
                "type": "t_mapping(t_address,t_struct(BorrowSnapshot)17653_storage)"
            }
        ],
        "types": {
            "t_address": {
                "encoding": "inplace",
                "label": "address",
                "numberOfBytes": "20"
            },
            "t_array(t_uint256)45_storage": {
                "base": "t_uint256",
                "encoding": "inplace",
                "label": "uint256[45]",
                "numberOfBytes": "1440"
            },
            "t_array(t_uint256)49_storage": {
                "base": "t_uint256",
                "encoding": "inplace",
                "label": "uint256[49]",
                "numberOfBytes": "1568"
            },
            "t_array(t_uint256)50_storage": {
                "base": "t_uint256",
                "encoding": "inplace",
                "label": "uint256[50]",
                "numberOfBytes": "1600"
            },
            "t_bool": {
                "encoding": "inplace",
                "label": "bool",
                "numberOfBytes": "1"
            },
            "t_bytes32": {
                "encoding": "inplace",
                "label": "bytes32",
                "numberOfBytes": "32"
            },
            "t_contract(IInterestRateModel)16560": {
                "encoding": "inplace",
                "label": "contract IInterestRateModel",
                "numberOfBytes": "20"
            },
            "t_mapping(t_address,t_address)": {
                "encoding": "mapping",
                "key": "t_address",
                "label": "mapping(address => address)",
                "numberOfBytes": "32",
                "value": "t_address"
            },
            "t_mapping(t_address,t_bool)": {
                "encoding": "mapping",
                "key": "t_address",
                "label": "mapping(address => bool)",
                "numberOfBytes": "32",
                "value": "t_bool"
            },
            "t_mapping(t_address,t_mapping(t_address,t_uint256))": {
                "encoding": "mapping",
                "key": "t_address",
                "label": "mapping(address => mapping(address => uint256))",
                "numberOfBytes": "32",
                "value": "t_mapping(t_address,t_uint256)"
            },
            "t_mapping(t_address,t_struct(BorrowSnapshot)17653_storage)": {
                "encoding": "mapping",
                "key": "t_address",
                "label": "mapping(address => struct UToken.BorrowSnapshot)",
                "numberOfBytes": "32",
                "value": "t_struct(BorrowSnapshot)17653_storage"
            },
            "t_mapping(t_address,t_struct(Counter)2460_storage)": {
                "encoding": "mapping",
                "key": "t_address",
                "label": "mapping(address => struct CountersUpgradeable.Counter)",
                "numberOfBytes": "32",
                "value": "t_struct(Counter)2460_storage"
            },
            "t_mapping(t_address,t_uint256)": {
                "encoding": "mapping",
                "key": "t_address",
                "label": "mapping(address => uint256)",
                "numberOfBytes": "32",
                "value": "t_uint256"
            },
            "t_mapping(t_bytes32,t_struct(RoleData)43_storage)": {
                "encoding": "mapping",
                "key": "t_bytes32",
                "label": "mapping(bytes32 => struct AccessControlUpgradeable.RoleData)",
                "numberOfBytes": "32",
                "value": "t_struct(RoleData)43_storage"
            },
            "t_string_storage": {
                "encoding": "bytes",
                "label": "string",
                "numberOfBytes": "32"
            },
            "t_struct(BorrowSnapshot)17653_storage": {
                "encoding": "inplace",
                "label": "struct UToken.BorrowSnapshot",
                "members": [
                    {
                        "astId": 17646,
                        "contract": "contracts/market/UDai.sol:UDai",
                        "label": "principal",
                        "offset": 0,
                        "slot": "0",
                        "type": "t_uint256"
                    },
                    {
                        "astId": 17648,
                        "contract": "contracts/market/UDai.sol:UDai",
                        "label": "interest",
                        "offset": 0,
                        "slot": "1",
                        "type": "t_uint256"
                    },
                    {
                        "astId": 17650,
                        "contract": "contracts/market/UDai.sol:UDai",
                        "label": "interestIndex",
                        "offset": 0,
                        "slot": "2",
                        "type": "t_uint256"
                    },
                    {
                        "astId": 17652,
                        "contract": "contracts/market/UDai.sol:UDai",
                        "label": "lastRepay",
                        "offset": 0,
                        "slot": "3",
                        "type": "t_uint256"
                    }
                ],
                "numberOfBytes": "128"
            },
            "t_struct(Counter)2460_storage": {
                "encoding": "inplace",
                "label": "struct CountersUpgradeable.Counter",
                "members": [
                    {
                        "astId": 2459,
                        "contract": "contracts/market/UDai.sol:UDai",
                        "label": "_value",
                        "offset": 0,
                        "slot": "0",
                        "type": "t_uint256"
                    }
                ],
                "numberOfBytes": "32"
            },
            "t_struct(RoleData)43_storage": {
                "encoding": "inplace",
                "label": "struct AccessControlUpgradeable.RoleData",
                "members": [
                    {
                        "astId": 40,
                        "contract": "contracts/market/UDai.sol:UDai",
                        "label": "members",
                        "offset": 0,
                        "slot": "0",
                        "type": "t_mapping(t_address,t_bool)"
                    },
                    {
                        "astId": 42,
                        "contract": "contracts/market/UDai.sol:UDai",
                        "label": "adminRole",
                        "offset": 0,
                        "slot": "1",
                        "type": "t_bytes32"
                    }
                ],
                "numberOfBytes": "64"
            },
            "t_uint256": {
                "encoding": "inplace",
                "label": "uint256",
                "numberOfBytes": "32"
            }
        }
    }
}