{
  "address": "0xc52d012a94bcf46a23b3d3fda6334d6b237def27",
  "abi": [
    {
      "inputs": [
        {
          "internalType": "contract ERC20VotesComp",
          "name": "_token",
          "type": "address"
        },
        {
          "internalType": "contract TimelockController",
          "name": "_timelock",
          "type": "address"
        }
      ],
      "stateMutability": "nonpayable",
      "type": "constructor"
    },
    {
      "anonymous": false,
      "inputs": [
        {
          "indexed": false,
          "internalType": "uint256",
          "name": "proposalId",
          "type": "uint256"
        }
      ],
      "name": "ProposalCanceled",
      "type": "event"
    },
    {
      "anonymous": false,
      "inputs": [
        {
          "indexed": false,
          "internalType": "uint256",
          "name": "proposalId",
          "type": "uint256"
        },
        {
          "indexed": false,
          "internalType": "address",
          "name": "proposer",
          "type": "address"
        },
        {
          "indexed": false,
          "internalType": "address[]",
          "name": "targets",
          "type": "address[]"
        },
        {
          "indexed": false,
          "internalType": "uint256[]",
          "name": "values",
          "type": "uint256[]"
        },
        {
          "indexed": false,
          "internalType": "string[]",
          "name": "signatures",
          "type": "string[]"
        },
        {
          "indexed": false,
          "internalType": "bytes[]",
          "name": "calldatas",
          "type": "bytes[]"
        },
        {
          "indexed": false,
          "internalType": "uint256",
          "name": "startBlock",
          "type": "uint256"
        },
        {
          "indexed": false,
          "internalType": "uint256",
          "name": "endBlock",
          "type": "uint256"
        },
        {
          "indexed": false,
          "internalType": "string",
          "name": "description",
          "type": "string"
        }
      ],
      "name": "ProposalCreated",
      "type": "event"
    },
    {
      "anonymous": false,
      "inputs": [
        {
          "indexed": false,
          "internalType": "uint256",
          "name": "proposalId",
          "type": "uint256"
        }
      ],
      "name": "ProposalExecuted",
      "type": "event"
    },
    {
      "anonymous": false,
      "inputs": [
        {
          "indexed": false,
          "internalType": "uint256",
          "name": "proposalId",
          "type": "uint256"
        },
        {
          "indexed": false,
          "internalType": "uint256",
          "name": "eta",
          "type": "uint256"
        }
      ],
      "name": "ProposalQueued",
      "type": "event"
    },
    {
      "anonymous": false,
      "inputs": [
        {
          "indexed": false,
          "internalType": "address",
          "name": "oldTimelock",
          "type": "address"
        },
        {
          "indexed": false,
          "internalType": "address",
          "name": "newTimelock",
          "type": "address"
        }
      ],
      "name": "TimelockChange",
      "type": "event"
    },
    {
      "anonymous": false,
      "inputs": [
        {
          "indexed": true,
          "internalType": "address",
          "name": "voter",
          "type": "address"
        },
        {
          "indexed": false,
          "internalType": "uint256",
          "name": "proposalId",
          "type": "uint256"
        },
        {
          "indexed": false,
          "internalType": "uint8",
          "name": "support",
          "type": "uint8"
        },
        {
          "indexed": false,
          "internalType": "uint256",
          "name": "weight",
          "type": "uint256"
        },
        {
          "indexed": false,
          "internalType": "string",
          "name": "reason",
          "type": "string"
        }
      ],
      "name": "VoteCast",
      "type": "event"
    },
    {
      "inputs": [],
      "name": "BALLOT_TYPEHASH",
      "outputs": [
        {
          "internalType": "bytes32",
          "name": "",
          "type": "bytes32"
        }
      ],
      "stateMutability": "view",
      "type": "function"
    },
    {
      "inputs": [],
      "name": "COUNTING_MODE",
      "outputs": [
        {
          "internalType": "string",
          "name": "",
          "type": "string"
        }
      ],
      "stateMutability": "pure",
      "type": "function"
    },
    {
      "inputs": [
        {
          "internalType": "uint256",
          "name": "proposalId",
          "type": "uint256"
        }
      ],
      "name": "cancel",
      "outputs": [],
      "stateMutability": "nonpayable",
      "type": "function"
    },
    {
      "inputs": [
        {
          "internalType": "uint256",
          "name": "proposalId",
          "type": "uint256"
        },
        {
          "internalType": "uint8",
          "name": "support",
          "type": "uint8"
        }
      ],
      "name": "castVote",
      "outputs": [
        {
          "internalType": "uint256",
          "name": "",
          "type": "uint256"
        }
      ],
      "stateMutability": "nonpayable",
      "type": "function"
    },
    {
      "inputs": [
        {
          "internalType": "uint256",
          "name": "proposalId",
          "type": "uint256"
        },
        {
          "internalType": "uint8",
          "name": "support",
          "type": "uint8"
        },
        {
          "internalType": "uint8",
          "name": "v",
          "type": "uint8"
        },
        {
          "internalType": "bytes32",
          "name": "r",
          "type": "bytes32"
        },
        {
          "internalType": "bytes32",
          "name": "s",
          "type": "bytes32"
        }
      ],
      "name": "castVoteBySig",
      "outputs": [
        {
          "internalType": "uint256",
          "name": "",
          "type": "uint256"
        }
      ],
      "stateMutability": "nonpayable",
      "type": "function"
    },
    {
      "inputs": [
        {
          "internalType": "uint256",
          "name": "proposalId",
          "type": "uint256"
        },
        {
          "internalType": "uint8",
          "name": "support",
          "type": "uint8"
        },
        {
          "internalType": "string",
          "name": "reason",
          "type": "string"
        }
      ],
      "name": "castVoteWithReason",
      "outputs": [
        {
          "internalType": "uint256",
          "name": "",
          "type": "uint256"
        }
      ],
      "stateMutability": "nonpayable",
      "type": "function"
    },
    {
      "inputs": [
        {
          "internalType": "address[]",
          "name": "targets",
          "type": "address[]"
        },
        {
          "internalType": "uint256[]",
          "name": "values",
          "type": "uint256[]"
        },
        {
          "internalType": "bytes[]",
          "name": "calldatas",
          "type": "bytes[]"
        },
        {
          "internalType": "bytes32",
          "name": "descriptionHash",
          "type": "bytes32"
        }
      ],
      "name": "execute",
      "outputs": [
        {
          "internalType": "uint256",
          "name": "",
          "type": "uint256"
        }
      ],
      "stateMutability": "payable",
      "type": "function"
    },
    {
      "inputs": [
        {
          "internalType": "uint256",
          "name": "proposalId",
          "type": "uint256"
        }
      ],
      "name": "execute",
      "outputs": [],
      "stateMutability": "payable",
      "type": "function"
    },
    {
      "inputs": [
        {
          "internalType": "uint256",
          "name": "proposalId",
          "type": "uint256"
        }
      ],
      "name": "getActions",
      "outputs": [
        {
          "internalType": "address[]",
          "name": "targets",
          "type": "address[]"
        },
        {
          "internalType": "uint256[]",
          "name": "values",
          "type": "uint256[]"
        },
        {
          "internalType": "string[]",
          "name": "signatures",
          "type": "string[]"
        },
        {
          "internalType": "bytes[]",
          "name": "calldatas",
          "type": "bytes[]"
        }
      ],
      "stateMutability": "view",
      "type": "function"
    },
    {
      "inputs": [
        {
          "internalType": "uint256",
          "name": "proposalId",
          "type": "uint256"
        },
        {
          "internalType": "address",
          "name": "voter",
          "type": "address"
        }
      ],
      "name": "getReceipt",
      "outputs": [
        {
          "components": [
            {
              "internalType": "bool",
              "name": "hasVoted",
              "type": "bool"
            },
            {
              "internalType": "uint8",
              "name": "support",
              "type": "uint8"
            },
            {
              "internalType": "uint96",
              "name": "votes",
              "type": "uint96"
            }
          ],
          "internalType": "struct IGovernorCompatibilityBravo.Receipt",
          "name": "",
          "type": "tuple"
        }
      ],
      "stateMutability": "view",
      "type": "function"
    },
    {
      "inputs": [
        {
          "internalType": "address",
          "name": "account",
          "type": "address"
        },
        {
          "internalType": "uint256",
          "name": "blockNumber",
          "type": "uint256"
        }
      ],
      "name": "getVotes",
      "outputs": [
        {
          "internalType": "uint256",
          "name": "",
          "type": "uint256"
        }
      ],
      "stateMutability": "view",
      "type": "function"
    },
    {
      "inputs": [
        {
          "internalType": "uint256",
          "name": "proposalId",
          "type": "uint256"
        },
        {
          "internalType": "address",
          "name": "account",
          "type": "address"
        }
      ],
      "name": "hasVoted",
      "outputs": [
        {
          "internalType": "bool",
          "name": "",
          "type": "bool"
        }
      ],
      "stateMutability": "view",
      "type": "function"
    },
    {
      "inputs": [
        {
          "internalType": "address[]",
          "name": "targets",
          "type": "address[]"
        },
        {
          "internalType": "uint256[]",
          "name": "values",
          "type": "uint256[]"
        },
        {
          "internalType": "bytes[]",
          "name": "calldatas",
          "type": "bytes[]"
        },
        {
          "internalType": "bytes32",
          "name": "descriptionHash",
          "type": "bytes32"
        }
      ],
      "name": "hashProposal",
      "outputs": [
        {
          "internalType": "uint256",
          "name": "",
          "type": "uint256"
        }
      ],
      "stateMutability": "pure",
      "type": "function"
    },
    {
      "inputs": [
        {
          "internalType": "address",
          "name": "",
          "type": "address"
        }
      ],
      "name": "latestProposalIds",
      "outputs": [
        {
          "internalType": "uint256",
          "name": "",
          "type": "uint256"
        }
      ],
      "stateMutability": "view",
      "type": "function"
    },
    {
      "inputs": [],
      "name": "name",
      "outputs": [
        {
          "internalType": "string",
          "name": "",
          "type": "string"
        }
      ],
      "stateMutability": "view",
      "type": "function"
    },
    {
      "inputs": [],
      "name": "proposalCount",
      "outputs": [
        {
          "internalType": "uint256",
          "name": "",
          "type": "uint256"
        }
      ],
      "stateMutability": "view",
      "type": "function"
    },
    {
      "inputs": [
        {
          "internalType": "uint256",
          "name": "proposalId",
          "type": "uint256"
        }
      ],
      "name": "proposalDeadline",
      "outputs": [
        {
          "internalType": "uint256",
          "name": "",
          "type": "uint256"
        }
      ],
      "stateMutability": "view",
      "type": "function"
    },
    {
      "inputs": [
        {
          "internalType": "uint256",
          "name": "proposalId",
          "type": "uint256"
        }
      ],
      "name": "proposalEta",
      "outputs": [
        {
          "internalType": "uint256",
          "name": "",
          "type": "uint256"
        }
      ],
      "stateMutability": "view",
      "type": "function"
    },
    {
      "inputs": [
        {
          "internalType": "uint256",
          "name": "proposalId",
          "type": "uint256"
        }
      ],
      "name": "proposalSnapshot",
      "outputs": [
        {
          "internalType": "uint256",
          "name": "",
          "type": "uint256"
        }
      ],
      "stateMutability": "view",
      "type": "function"
    },
    {
      "inputs": [],
      "name": "proposalThreshold",
      "outputs": [
        {
          "internalType": "uint256",
          "name": "",
          "type": "uint256"
        }
      ],
      "stateMutability": "pure",
      "type": "function"
    },
    {
      "inputs": [
        {
          "internalType": "uint256",
          "name": "proposalId",
          "type": "uint256"
        }
      ],
      "name": "proposals",
      "outputs": [
        {
          "internalType": "uint256",
          "name": "id",
          "type": "uint256"
        },
        {
          "internalType": "address",
          "name": "proposer",
          "type": "address"
        },
        {
          "internalType": "uint256",
          "name": "eta",
          "type": "uint256"
        },
        {
          "internalType": "uint256",
          "name": "startBlock",
          "type": "uint256"
        },
        {
          "internalType": "uint256",
          "name": "endBlock",
          "type": "uint256"
        },
        {
          "internalType": "uint256",
          "name": "forVotes",
          "type": "uint256"
        },
        {
          "internalType": "uint256",
          "name": "againstVotes",
          "type": "uint256"
        },
        {
          "internalType": "uint256",
          "name": "abstainVotes",
          "type": "uint256"
        },
        {
          "internalType": "bool",
          "name": "canceled",
          "type": "bool"
        },
        {
          "internalType": "bool",
          "name": "executed",
          "type": "bool"
        }
      ],
      "stateMutability": "view",
      "type": "function"
    },
    {
      "inputs": [
        {
          "internalType": "address[]",
          "name": "targets",
          "type": "address[]"
        },
        {
          "internalType": "uint256[]",
          "name": "values",
          "type": "uint256[]"
        },
        {
          "internalType": "bytes[]",
          "name": "calldatas",
          "type": "bytes[]"
        },
        {
          "internalType": "string",
          "name": "description",
          "type": "string"
        }
      ],
      "name": "propose",
      "outputs": [
        {
          "internalType": "uint256",
          "name": "",
          "type": "uint256"
        }
      ],
      "stateMutability": "nonpayable",
      "type": "function"
    },
    {
      "inputs": [
        {
          "internalType": "address[]",
          "name": "targets",
          "type": "address[]"
        },
        {
          "internalType": "uint256[]",
          "name": "values",
          "type": "uint256[]"
        },
        {
          "internalType": "string[]",
          "name": "signatures",
          "type": "string[]"
        },
        {
          "internalType": "bytes[]",
          "name": "calldatas",
          "type": "bytes[]"
        },
        {
          "internalType": "string",
          "name": "description",
          "type": "string"
        }
      ],
      "name": "propose",
      "outputs": [
        {
          "internalType": "uint256",
          "name": "",
          "type": "uint256"
        }
      ],
      "stateMutability": "nonpayable",
      "type": "function"
    },
    {
      "inputs": [
        {
          "internalType": "address[]",
          "name": "targets",
          "type": "address[]"
        },
        {
          "internalType": "uint256[]",
          "name": "values",
          "type": "uint256[]"
        },
        {
          "internalType": "bytes[]",
          "name": "calldatas",
          "type": "bytes[]"
        },
        {
          "internalType": "bytes32",
          "name": "descriptionHash",
          "type": "bytes32"
        }
      ],
      "name": "queue",
      "outputs": [
        {
          "internalType": "uint256",
          "name": "",
          "type": "uint256"
        }
      ],
      "stateMutability": "nonpayable",
      "type": "function"
    },
    {
      "inputs": [
        {
          "internalType": "uint256",
          "name": "proposalId",
          "type": "uint256"
        }
      ],
      "name": "queue",
      "outputs": [],
      "stateMutability": "nonpayable",
      "type": "function"
    },
    {
      "inputs": [
        {
          "internalType": "uint256",
          "name": "blockNumber",
          "type": "uint256"
        }
      ],
      "name": "quorum",
      "outputs": [
        {
          "internalType": "uint256",
          "name": "",
          "type": "uint256"
        }
      ],
      "stateMutability": "view",
      "type": "function"
    },
    {
      "inputs": [],
      "name": "quorumVotes",
      "outputs": [
        {
          "internalType": "uint256",
          "name": "",
          "type": "uint256"
        }
      ],
      "stateMutability": "view",
      "type": "function"
    },
    {
      "inputs": [
        {
          "internalType": "uint256",
          "name": "proposalId",
          "type": "uint256"
        }
      ],
      "name": "state",
      "outputs": [
        {
          "internalType": "enum IGovernor.ProposalState",
          "name": "",
          "type": "uint8"
        }
      ],
      "stateMutability": "view",
      "type": "function"
    },
    {
      "inputs": [
        {
          "internalType": "bytes4",
          "name": "interfaceId",
          "type": "bytes4"
        }
      ],
      "name": "supportsInterface",
      "outputs": [
        {
          "internalType": "bool",
          "name": "",
          "type": "bool"
        }
      ],
      "stateMutability": "view",
      "type": "function"
    },
    {
      "inputs": [],
      "name": "timelock",
      "outputs": [
        {
          "internalType": "address",
          "name": "",
          "type": "address"
        }
      ],
      "stateMutability": "view",
      "type": "function"
    },
    {
      "inputs": [],
      "name": "token",
      "outputs": [
        {
          "internalType": "contract ERC20VotesComp",
          "name": "",
          "type": "address"
        }
      ],
      "stateMutability": "view",
      "type": "function"
    },
    {
      "inputs": [
        {
          "internalType": "contract TimelockController",
          "name": "newTimelock",
          "type": "address"
        }
      ],
      "name": "updateTimelock",
      "outputs": [],
      "stateMutability": "nonpayable",
      "type": "function"
    },
    {
      "inputs": [],
      "name": "version",
      "outputs": [
        {
          "internalType": "string",
          "name": "",
          "type": "string"
        }
      ],
      "stateMutability": "view",
      "type": "function"
    },
    {
      "inputs": [],
      "name": "votingDelay",
      "outputs": [
        {
          "internalType": "uint256",
          "name": "",
          "type": "uint256"
        }
      ],
      "stateMutability": "pure",
      "type": "function"
    },
    {
      "inputs": [],
      "name": "votingPeriod",
      "outputs": [
        {
          "internalType": "uint256",
          "name": "",
          "type": "uint256"
        }
      ],
      "stateMutability": "pure",
      "type": "function"
    }
  ],
  "transactionHash": "0xa92e52d65df632ef6241b9c1c517ee2cc01a641c345e4d567a097f1a75e51580",
  "args": [
    "0x74361b8f06e4985aa1897223db5b0237de35756e",
    "0x8e4251A248B1cE41B463ba614Bab045377a67E63"
  ],
  "solcInputHash": "1bad13edcd3c88f2ca9238985c18d480",
  "bytecode": "0x6101406040523480156200001257600080fd5b506040516200428c3803806200428c83398101604081905262000035916200025a565b80826040518060400160405280600e81526020016d2ab734b7b71023b7bb32b93737b960911b815250806200006f6200013060201b60201c565b815160209283012081519183019190912060c082815260e08290524660a0818152604080517f8b73c3c69bb8fe3d512ecc4cf759cc79239f7b179b0ffacaa9a75d522b39400f818901819052818301979097526060810195909552608080860193909352308583015280518086039092018252939092019092528051908401209052610100528151620001099160009190840190620001b4565b505060601b6001600160601b0319166101205262000127816200014b565b505050620002ee565b6040805180820190915260018152603160f81b602082015290565b600354604080516001600160a01b03928316815291831660208301527f08f74ea46ef7894f65eabfb5e6e695de773a000b47c529ab559178069b226401910160405180910390a1600380546001600160a01b0319166001600160a01b0392909216919091179055565b828054620001c29062000298565b90600052602060002090601f016020900481019282620001e6576000855562000231565b82601f106200020157805160ff191683800117855562000231565b8280016001018555821562000231579182015b828111156200023157825182559160200191906001019062000214565b506200023f92915062000243565b5090565b5b808211156200023f576000815560010162000244565b600080604083850312156200026d578182fd5b82516200027a81620002d5565b60208401519092506200028d81620002d5565b809150509250929050565b600181811c90821680620002ad57607f821691505b60208210811415620002cf57634e487b7160e01b600052602260045260246000fd5b50919050565b6001600160a01b0381168114620002eb57600080fd5b50565b60805160a05160c05160e051610100516101205160601c613f3d6200034f6000396000818161078d015281816117ea01526121d00152600061235b015260006123aa0152600061238501526000612309015260006123320152613f3d6000f3fe6080604052600436106101c45760003560e01c80637b3c71d3116100f8578063da95691a11610090578063da95691a146105b7578063dd4e2ba5146105d7578063ddf0b0091461061d578063deaaa7cc1461063d578063e23a9a5214610671578063eb9019d41461073b578063f8ce560a1461075b578063fc0c546a1461077b578063fe0d94c1146107af57600080fd5b80637b3c71d3146104925780637d5e81e2146104b2578063a890c910146104d2578063ab58fb8e146104f2578063b58131b014610512578063c01f9e371461052f578063c59057e41461054f578063d33219b41461056f578063da35c664146105a157600080fd5b80632d63f6931161016b5780632d63f6931461032a578063328dd9821461034a5780633932abb11461037a5780633bccf4fd1461038f5780633e4f49e6146103af57806340e58ee5146103dc57806343859632146103fe57806354fd4d5014610448578063567813881461047257600080fd5b8063013cf08b146101c957806301ffc9a71461024457806302a251a31461027457806306fdde0314610293578063160cbed7146102b557806317977c61146102d557806324bc1a64146103025780632656227d14610317575b600080fd5b3480156101d557600080fd5b506101e96101e4366004613823565b6107c2565b604080519a8b526001600160a01b0390991660208b0152978901969096526060880194909452608087019290925260a086015260c085015260e084015215156101008301521515610120820152610140015b60405180910390f35b34801561025057600080fd5b5061026461025f3660046137fb565b610887565b604051901515815260200161023b565b34801561028057600080fd5b50614d0d5b60405190815260200161023b565b34801561029f57600080fd5b506102a8610898565b60405161023b9190613bd6565b3480156102c157600080fd5b506102856102d03660046135c6565b61092a565b3480156102e157600080fd5b506102856102f036600461357f565b60066020526000908152604090205481565b34801561030e57600080fd5b50610285610b61565b6102856103253660046135c6565b610b76565b34801561033657600080fd5b50610285610345366004613823565b610c65565b34801561035657600080fd5b5061036a610365366004613823565b610c9c565b60405161023b9493929190613b89565b34801561038657600080fd5b506119af610285565b34801561039b57600080fd5b506102856103aa366004613916565b610f2d565b3480156103bb57600080fd5b506103cf6103ca366004613823565b610fc1565b60405161023b9190613be9565b3480156103e857600080fd5b506103fc6103f7366004613823565b610fcc565b005b34801561040a57600080fd5b5061026461041936600461383b565b60008281526002602090815260408083206001600160a01b038516845260080190915290205460ff1692915050565b34801561045457600080fd5b506040805180820190915260018152603160f81b60208201526102a8565b34801561047e57600080fd5b5061028561048d36600461386a565b6112e7565b34801561049e57600080fd5b506102856104ad366004613895565b611310565b3480156104be57600080fd5b506102856104cd366004613651565b611362565b3480156104de57600080fd5b506103fc6104ed36600461357f565b6113b6565b3480156104fe57600080fd5b5061028561050d366004613823565b611425565b34801561051e57600080fd5b50690a968163f0a57b400000610285565b34801561053b57600080fd5b5061028561054a366004613823565b6114cd565b34801561055b57600080fd5b5061028561056a3660046135c6565b6114fc565b34801561057b57600080fd5b506003546001600160a01b03165b6040516001600160a01b03909116815260200161023b565b3480156105ad57600080fd5b5061028560055481565b3480156105c357600080fd5b506102856105d23660046136f8565b611536565b3480156105e357600080fd5b5060408051808201909152601a81527f737570706f72743d627261766f2671756f72756d3d627261766f00000000000060208201526102a8565b34801561062957600080fd5b506103fc610638366004613823565b611545565b34801561064957600080fd5b506102857f150214d74d59b7d1e90c73fc22ef3d991dd0a76b046543d4d80ab92d2a50328f81565b34801561067d57600080fd5b5061070b61068c36600461383b565b60408051606081018252600080825260208201819052918101919091525060009182526002602090815260408084206001600160a01b0393909316845260089092018152918190208151606081018352905460ff8082161515835261010082041693820193909352620100009092046001600160601b03169082015290565b6040805182511515815260208084015160ff1690820152918101516001600160601b03169082015260600161023b565b34801561074757600080fd5b5061028561075636600461359b565b6117b3565b34801561076757600080fd5b50610285610776366004613823565b6117bf565b34801561078757600080fd5b506105897f000000000000000000000000000000000000000000000000000000000000000081565b6103fc6107bd366004613823565b61187f565b80600080808080808080806107d68a611425565b97506107e18b610c65565b96506107ec8b6114cd565b60008c815260026020526040812080546005820154600683015460078401546001600160a01b039093169e50949a50985092965091945061082c8d610fc1565b9050600281600781111561085057634e487b7160e01b600052602160045260246000fd5b149350600781600781111561087557634e487b7160e01b600052602160045260246000fd5b14925050509193959799509193959799565b600061089282611aed565b92915050565b6060600080546108a790613e76565b80601f01602080910402602001604051908101604052809291908181526020018280546108d390613e76565b80156109205780601f106108f557610100808354040283529160200191610920565b820191906000526020600020905b81548152906001019060200180831161090357829003601f168201915b5050505050905090565b600080610939868686866114fc565b9050600461094682610fc1565b600781111561096557634e487b7160e01b600052602160045260246000fd5b1461098b5760405162461bcd60e51b815260040161098290613c52565b60405180910390fd5b6003546040805163793d064960e11b815290516000926001600160a01b03169163f27a0c92916004808301926020929190829003018186803b1580156109d057600080fd5b505afa1580156109e4573d6000803e3d6000fd5b505050506040513d601f19601f82011682018060405250810190610a0891906137e3565b60035460405163b1c5f42760e01b81529192506001600160a01b03169063b1c5f42790610a42908a908a908a906000908b90600401613ae3565b60206040518083038186803b158015610a5a57600080fd5b505afa158015610a6e573d6000803e3d6000fd5b505050506040513d601f19601f82011682018060405250810190610a9291906137e3565b60008381526004602081905260408083209390935560035492516308f2a0bb60e41b81526001600160a01b0390931692638f2a0bb092610ade928c928c928c9290918c918a9101613b31565b600060405180830381600087803b158015610af857600080fd5b505af1158015610b0c573d6000803e3d6000fd5b505050507f9a2e42fd6722813d69113e7d0079d3d940171428df7373df9c7f7617cfda2892828242610b3e9190613db1565b604080519283526020830191909152015b60405180910390a15095945050505050565b6000610b71610776600143613e33565b905090565b600080610b85868686866114fc565b90506000610b9282610fc1565b90506004816007811115610bb657634e487b7160e01b600052602160045260246000fd5b1480610be157506005816007811115610bdf57634e487b7160e01b600052602160045260246000fd5b145b610bfd5760405162461bcd60e51b815260040161098290613c52565b600082815260016020818152604092839020600201805460ff191690921790915590518381527f712ae1383f79ac853f8d882153778e0260ef8f03b504e2866e0593e04d2b291f910160405180910390a1610c5b8288888888611b12565b5095945050505050565b60008181526001602090815260408083208151928301909152546001600160401b0316908190525b6001600160401b031692915050565b60608060608060006002600087815260200190815260200160002090508060010181600201826003018360040183805480602002602001604051908101604052809291908181526020018280548015610d1e57602002820191906000526020600020905b81546001600160a01b03168152600190910190602001808311610d00575b5050505050935082805480602002602001604051908101604052809291908181526020018280548015610d7057602002820191906000526020600020905b815481526020019060010190808311610d5c575b5050505050925081805480602002602001604051908101604052809291908181526020016000905b82821015610e44578382906000526020600020018054610db790613e76565b80601f0160208091040260200160405190810160405280929190818152602001828054610de390613e76565b8015610e305780601f10610e0557610100808354040283529160200191610e30565b820191906000526020600020905b815481529060010190602001808311610e1357829003601f168201915b505050505081526020019060010190610d98565b50505050915080805480602002602001604051908101604052809291908181526020016000905b82821015610f17578382906000526020600020018054610e8a90613e76565b80601f0160208091040260200160405190810160405280929190818152602001828054610eb690613e76565b8015610f035780601f10610ed857610100808354040283529160200191610f03565b820191906000526020600020905b815481529060010190602001808311610ee657829003601f168201915b505050505081526020019060010190610e6b565b5050505090509450945094509450509193509193565b604080517f150214d74d59b7d1e90c73fc22ef3d991dd0a76b046543d4d80ab92d2a50328f602082015290810186905260ff851660608201526000908190610f9990610f919060800160405160208183030381529060405280519060200120611b26565b868686611b74565b9050610fb687828860405180602001604052806000815250611b92565b979650505050505050565b600061089282611cab565b600081815260026020526040902080546001600160a01b0316336001600160a01b0316148061101d5750690a968163f0a57b400000815461101b906001600160a01b0316610756600143613e33565b105b6110795760405162461bcd60e51b815260206004820152602760248201527f476f7665726e6f72427261766f3a2070726f706f7365722061626f76652074686044820152661c995cda1bdb1960ca1b6064820152608401610982565b6112e2816001018054806020026020016040519081016040528092919081815260200182805480156110d457602002820191906000526020600020905b81546001600160a01b031681526001909101906020018083116110b6575b50505050508260020180548060200260200160405190810160405280929190818152602001828054801561112757602002820191906000526020600020905b815481526020019060010190808311611113575b50505050506112d884600301805480602002602001604051908101604052809291908181526020016000905b828210156111ff57838290600052602060002001805461117290613e76565b80601f016020809104026020016040519081016040528092919081815260200182805461119e90613e76565b80156111eb5780601f106111c0576101008083540402835291602001916111eb565b820191906000526020600020905b8154815290600101906020018083116111ce57829003601f168201915b505050505081526020019060010190611153565b50505060048701805460408051602080840282018101909252828152935060009084015b828210156112cf57838290600052602060002001805461124290613e76565b80601f016020809104026020016040519081016040528092919081815260200182805461126e90613e76565b80156112bb5780601f10611290576101008083540402835291602001916112bb565b820191906000526020600020905b81548152906001019060200180831161129e57829003601f168201915b505050505081526020019060010190611223565b50505050611d96565b8460090154611f4a565b505050565b60008033905061130884828560405180602001604052806000815250611b92565b949350505050565b60008033905061135886828787878080601f016020809104026020016040519081016040528093929190818152602001838380828437600092019190915250611b9292505050565b9695505050505050565b600061136c611f61565b6005805490600061137c83613eab565b9190505550600061139686868686805190602001206114fc565b33600090815260066020526040902081905590506113588686868661208f565b6113be612105565b6001600160a01b0316336001600160a01b0316146114195760405162461bcd60e51b8152602060048201526018602482015277476f7665726e6f723a206f6e6c79476f7665726e616e636560401b6044820152606401610982565b61142281612119565b50565b600354600082815260046020819052604080832054905163d45c443560e01b815291820152909182916001600160a01b039091169063d45c44359060240160206040518083038186803b15801561147b57600080fd5b505afa15801561148f573d6000803e3d6000fd5b505050506040513d601f19601f820116820180604052508101906114b391906137e3565b9050806001146114c357806114c6565b60005b9392505050565b60008181526001602081815260408084208151928301909152909101546001600160401b031690819052610c8d565b6000848484846040516020016115159493929190613a98565b60408051601f19818403018152919052805160209091012095945050505050565b60006113588686868686612182565b60008181526002602090815260409182902060018101805484518185028101850190955280855291936112e2939092908301828280156115ae57602002820191906000526020600020905b81546001600160a01b03168152600190910190602001808311611590575b50505050508260020180548060200260200160405190810160405280929190818152602001828054801561160157602002820191906000526020600020905b8154815260200190600101908083116115ed575b50505050506117a984600301805480602002602001604051908101604052809291908181526020016000905b828210156116d957838290600052602060002001805461164c90613e76565b80601f016020809104026020016040519081016040528092919081815260200182805461167890613e76565b80156116c55780601f1061169a576101008083540402835291602001916116c5565b820191906000526020600020905b8154815290600101906020018083116116a857829003601f168201915b50505050508152602001906001019061162d565b50505060048701805460408051602080840282018101909252828152935060009084015b828210156112cf57838290600052602060002001805461171c90613e76565b80601f016020809104026020016040519081016040528092919081815260200182805461174890613e76565b80156117955780601f1061176a57610100808354040283529160200191611795565b820191906000526020600020905b81548152906001019060200180831161177857829003601f168201915b5050505050815260200190600101906116fd565b846009015461092a565b60006114c683836121a7565b604051632394e7a360e21b815260048101829052600090670de0b6b3a7640000906001600160a01b037f00000000000000000000000000000000000000000000000000000000000000001690638e539e8c9060240160206040518083038186803b15801561182c57600080fd5b505afa158015611840573d6000803e3d6000fd5b505050506040513d601f19601f8201168201806040525081019061186491906137e3565b61187590668e1bc9bf040000613e14565b6108929190613df4565b60008181526002602090815260409182902060018101805484518185028101850190955280855291936112e2939092908301828280156118e857602002820191906000526020600020905b81546001600160a01b031681526001909101906020018083116118ca575b50505050508260020180548060200260200160405190810160405280929190818152602001828054801561193b57602002820191906000526020600020905b815481526020019060010190808311611927575b5050505050611ae384600301805480602002602001604051908101604052809291908181526020016000905b82821015611a1357838290600052602060002001805461198690613e76565b80601f01602080910402602001604051908101604052809291908181526020018280546119b290613e76565b80156119ff5780601f106119d4576101008083540402835291602001916119ff565b820191906000526020600020905b8154815290600101906020018083116119e257829003601f168201915b505050505081526020019060010190611967565b50505060048701805460408051602080840282018101909252828152935060009084015b828210156112cf578382906000526020600020018054611a5690613e76565b80601f0160208091040260200160405190810160405280929190818152602001828054611a8290613e76565b8015611acf5780601f10611aa457610100808354040283529160200191611acf565b820191906000526020600020905b815481529060010190602001808311611ab257829003601f168201915b505050505081526020019060010190611a37565b8460090154610b76565b60006001600160e01b03198216636e665ced60e01b148061089257506108928261225c565b611b1f8585858585612291565b5050505050565b6000610892611b33612305565b8360405161190160f01b6020820152602281018390526042810182905260009060620160405160208183030381529060405280519060200120905092915050565b6000806000611b85878787876123f8565b91509150610c5b816124db565b6000848152600160208190526040822090611bac87610fc1565b6007811115611bcb57634e487b7160e01b600052602160045260246000fd5b14611c245760405162461bcd60e51b815260206004820152602360248201527f476f7665726e6f723a20766f7465206e6f742063757272656e746c792061637460448201526269766560e81b6064820152608401610982565b604080516020810190915281546001600160401b031690819052600090611c4c9087906117b3565b9050611c5a878787846126d7565b856001600160a01b03167fb8e138887d0aa13bab447e82de9d5c1777041ecd21ca36ba824ff1e6c07ddda488878488604051611c999493929190613d36565b60405180910390a29695505050505050565b600080611cb7836126e9565b90506004816007811115611cdb57634e487b7160e01b600052602160045260246000fd5b14611ce65792915050565b60008381526004602052604090205480611d01575092915050565b600354604051632ab0f52960e01b8152600481018390526001600160a01b0390911690632ab0f5299060240160206040518083038186803b158015611d4557600080fd5b505afa158015611d59573d6000803e3d6000fd5b505050506040513d601f19601f82011682018060405250810190611d7d91906137c3565b15611d8c575060079392505050565b5060059392505050565b6060600082516001600160401b03811115611dc157634e487b7160e01b600052604160045260246000fd5b604051908082528060200260200182016040528015611df457816020015b6060815260200190600190039081611ddf5790505b50905060005b8451811015611f4257848181518110611e2357634e487b7160e01b600052603260045260246000fd5b602002602001015151600014611edd57848181518110611e5357634e487b7160e01b600052603260045260246000fd5b6020026020010151848281518110611e7b57634e487b7160e01b600052603260045260246000fd5b6020026020010151604051602401611e939190613bd6565b60408051601f198184030181529082905291611eae91613a7c565b6040519081900390206020820180516001600160e01b03166001600160e01b0319909216919091179052611f06565b838181518110611efd57634e487b7160e01b600052603260045260246000fd5b60200260200101515b828281518110611f2657634e487b7160e01b600052603260045260246000fd5b602002602001018190525080611f3b90613eab565b9050611dfa565b509392505050565b6000611f588585858561283d565b95945050505050565b336000908152600660205260409020548015611422576000611f8282610fc1565b90506001816007811115611fa657634e487b7160e01b600052602160045260246000fd5b14156120075760405162461bcd60e51b815260206004820152602a60248201527f476f7665726e6f723a20666f756e6420616e20616c726561647920616374697660448201526919481c1c9bdc1bdcd85b60b21b6064820152608401610982565b600081600781111561202957634e487b7160e01b600052602160045260246000fd5b141561208b5760405162461bcd60e51b815260206004820152602b60248201527f476f7665726e6f723a20666f756e6420616e20616c72656164792070656e646960448201526a1b99c81c1c9bdc1bdcd85b60aa1b6064820152608401610982565b5050565b60006120f933868686516001600160401b038111156120be57634e487b7160e01b600052604160045260246000fd5b6040519080825280602002602001820160405280156120f157816020015b60608152602001906001900390816120dc5790505b5087876128eb565b611f58858585856129a8565b6000610b716003546001600160a01b031690565b600354604080516001600160a01b03928316815291831660208301527f08f74ea46ef7894f65eabfb5e6e695de773a000b47c529ab559178069b226401910160405180910390a1600380546001600160a01b0319166001600160a01b0392909216919091179055565b60006121923387878787876128eb565b61135886866121a18787611d96565b85611362565b60405163782d6fe160e01b81526001600160a01b038381166004830152602482018390526000917f00000000000000000000000000000000000000000000000000000000000000009091169063782d6fe19060440160206040518083038186803b15801561221457600080fd5b505afa158015612228573d6000803e3d6000fd5b505050506040513d601f19601f8201168201806040525081019061224c9190613963565b6001600160601b03169392505050565b60006001600160e01b0319821663bf26d89760e01b148061089257506301ffc9a760e01b6001600160e01b0319831614610892565b60035460405163e38335e560e01b81526001600160a01b039091169063e38335e59034906122cc908890889088906000908990600401613ae3565b6000604051808303818588803b1580156122e557600080fd5b505af11580156122f9573d6000803e3d6000fd5b50505050505050505050565b60007f000000000000000000000000000000000000000000000000000000000000000046141561235457507f000000000000000000000000000000000000000000000000000000000000000090565b50604080517f00000000000000000000000000000000000000000000000000000000000000006020808301919091527f0000000000000000000000000000000000000000000000000000000000000000828401527f000000000000000000000000000000000000000000000000000000000000000060608301524660808301523060a0808401919091528351808403909101815260c0909201909252805191012090565b6000806fa2a8918ca85bafe22016d0b997e4df60600160ff1b0383111561242557506000905060036124d2565b8460ff16601b1415801561243d57508460ff16601c14155b1561244e57506000905060046124d2565b6040805160008082526020820180845289905260ff881692820192909252606081018690526080810185905260019060a0016020604051602081039080840390855afa1580156124a2573d6000803e3d6000fd5b5050604051601f1901519150506001600160a01b0381166124cb576000600192509250506124d2565b9150600090505b94509492505050565b60008160048111156124fd57634e487b7160e01b600052602160045260246000fd5b14156125065750565b600181600481111561252857634e487b7160e01b600052602160045260246000fd5b14156125715760405162461bcd60e51b815260206004820152601860248201527745434453413a20696e76616c6964207369676e617475726560401b6044820152606401610982565b600281600481111561259357634e487b7160e01b600052602160045260246000fd5b14156125e15760405162461bcd60e51b815260206004820152601f60248201527f45434453413a20696e76616c6964207369676e6174757265206c656e677468006044820152606401610982565b600381600481111561260357634e487b7160e01b600052602160045260246000fd5b141561265c5760405162461bcd60e51b815260206004820152602260248201527f45434453413a20696e76616c6964207369676e6174757265202773272076616c604482015261756560f01b6064820152608401610982565b600481600481111561267e57634e487b7160e01b600052602160045260246000fd5b14156114225760405162461bcd60e51b815260206004820152602260248201527f45434453413a20696e76616c6964207369676e6174757265202776272076616c604482015261756560f01b6064820152608401610982565b6126e384848484612a50565b50505050565b6000818152600160208181526040808420815160a08101835281546001600160401b0390811660808301908152825283518086018552958301541685529283019390935260029092015460ff8082161580159484019490945261010090910416151560608201529061275e5750600792915050565b8060600151156127715750600292915050565b805151436001600160401b03909116111561278f5750600092915050565b602081015151436001600160401b0390911611156127b05750600192915050565b6127bd8160200151612bf5565b156127ef576127cb83612c24565b80156127db57506127db83612c2f565b6127e65760036114c6565b60049392505050565b60405162461bcd60e51b815260206004820152601d60248201527f476f7665726e6f723a20756e6b6e6f776e2070726f706f73616c2069640000006044820152606401610982565b50919050565b60008061284c86868686612c4e565b60008181526004602052604090205490915015611f585760035460008281526004602081905260409182902054915163c4d252f560e01b8152908101919091526001600160a01b039091169063c4d252f590602401600060405180830381600087803b1580156128bb57600080fd5b505af11580156128cf573d6000803e3d6000fd5b5050506000828152600460205260408120555095945050505050565b80516020820120600061290987876129038888611d96565b856114fc565b600081815260026020526040902060098101549192509061299d5780546001600160a01b0319166001600160a01b038a16178155875161295290600183019060208b01906130c3565b50865161296890600283019060208a0190613124565b50855161297e906003830190602089019061315f565b50845161299490600483019060208801906131b8565b50600981018390555b505050505050505050565b6000690a968163f0a57b4000006129c433610756600143613e33565b1015612a445760405162461bcd60e51b815260206004820152604360248201527f476f7665726e6f72436f6d7061746962696c697479427261766f3a2070726f7060448201527f6f73657220766f7465732062656c6f772070726f706f73616c207468726573686064820152621bdb1960ea1b608482015260a401610982565b611f5885858585612d84565b60008481526002602090815260408083206001600160a01b038716845260088101909252909120805460ff1615612adf5760405162461bcd60e51b815260206004820152602d60248201527f476f7665726e6f72436f6d7061746962696c697479427261766f3a20766f746560448201526c08185b1c9958591e4818d85cdd609a1b6064820152608401610982565b805460ff85166101000261ffff19909116176001178155612aff83612faa565b81546001600160601b039190911662010000026dffffffffffffffffffffffff00001990911617815560ff8416612b4f5782826006016000828254612b449190613db1565b90915550612bed9050565b60ff841660011415612b6f5782826005016000828254612b449190613db1565b60ff841660021415612b8f5782826007016000828254612b449190613db1565b60405162461bcd60e51b815260206004820152602d60248201527f476f7665726e6f72436f6d7061746962696c697479427261766f3a20696e766160448201526c6c696420766f7465207479706560981b6064820152608401610982565b505050505050565b6000612c0a82516001600160401b0316151590565b801561089257505051436001600160401b03909116111590565b600061089282613016565b6000818152600260205260408120600681015460059091015411610892565b600080612c5d868686866114fc565b90506000612c6a82610fc1565b90506002816007811115612c8e57634e487b7160e01b600052602160045260246000fd5b14158015612cbc57506006816007811115612cb957634e487b7160e01b600052602160045260246000fd5b14155b8015612ce857506007816007811115612ce557634e487b7160e01b600052602160045260246000fd5b14155b612d345760405162461bcd60e51b815260206004820152601d60248201527f476f7665726e6f723a2070726f706f73616c206e6f74206163746976650000006044820152606401610982565b60008281526001602052604090819020600201805461ff001916610100179055517f789cf55be980739dad1d0699b93b58e806b51c9d96619bfa8fe0a28abaa7b30c90610b4f9084815260200190565b600080612d9a86868686805190602001206114fc565b90508451865114612dbd5760405162461bcd60e51b815260040161098290613c11565b8351865114612dde5760405162461bcd60e51b815260040161098290613c11565b6000865111612e2a5760405162461bcd60e51b815260206004820152601860248201527711dbdd995c9b9bdc8e88195b5c1d1e481c1c9bdc1bdcd85b60421b6044820152606401610982565b600081815260016020908152604091829020825191820190925281546001600160401b03169081905215612eaa5760405162461bcd60e51b815260206004820152602160248201527f476f7665726e6f723a2070726f706f73616c20616c72656164792065786973746044820152607360f81b6064820152608401610982565b6000612eb76119af61303d565b612ec04361303d565b612eca9190613dc9565b90506000612ed9614d0d61303d565b612ee39083613dc9565b9050612eef83836130a5565b612efc60018401826130a5565b7f7d84a6263ae0d98d3329bd7b46bb4e8d6f98cd35a7adb45c274c8b7fd5ebd5e084338b8b8d516001600160401b03811115612f4857634e487b7160e01b600052604160045260246000fd5b604051908082528060200260200182016040528015612f7b57816020015b6060815260200190600190039081612f665790505b508c88888e604051612f9599989796959493929190613c93565b60405180910390a15091979650505050505050565b60006001600160601b038211156130125760405162461bcd60e51b815260206004820152602660248201527f53616665436173743a2076616c756520646f65736e27742066697420696e203960448201526536206269747360d01b6064820152608401610982565b5090565b6000818152600260205260408120600581015461303561077685610c65565b109392505050565b60006001600160401b038211156130125760405162461bcd60e51b815260206004820152602660248201527f53616665436173743a2076616c756520646f65736e27742066697420696e203660448201526534206269747360d01b6064820152608401610982565b815467ffffffffffffffff19166001600160401b0391909116179055565b828054828255906000526020600020908101928215613118579160200282015b8281111561311857825182546001600160a01b0319166001600160a01b039091161782556020909201916001909101906130e3565b50613012929150613211565b828054828255906000526020600020908101928215613118579160200282015b82811115613118578251825591602001919060010190613144565b8280548282559060005260206000209081019282156131ac579160200282015b828111156131ac578251805161319c918491602090910190613226565b509160200191906001019061317f565b50613012929150613299565b828054828255906000526020600020908101928215613205579160200282015b8281111561320557825180516131f5918491602090910190613226565b50916020019190600101906131d8565b506130129291506132b6565b5b808211156130125760008155600101613212565b82805461323290613e76565b90600052602060002090601f0160209004810192826132545760008555613118565b82601f1061326d57805160ff1916838001178555613118565b828001600101855582156131185791820182811115613118578251825591602001919060010190613144565b808211156130125760006132ad82826132d3565b50600101613299565b808211156130125760006132ca82826132d3565b506001016132b6565b5080546132df90613e76565b6000825580601f106132ef575050565b601f0160209004906000526020600020908101906114229190613211565b60006001600160401b0383111561332657613326613edc565b613339601f8401601f1916602001613d5e565b905082815283838301111561334d57600080fd5b828260208301376000602084830101529392505050565b600082601f830112613374578081fd5b8135602061338961338483613d8e565b613d5e565b80838252828201915082860187848660051b89010111156133a8578586fd5b855b858110156133cf5781356133bd81613ef2565b845292840192908401906001016133aa565b5090979650505050505050565b600082601f8301126133ec578081fd5b813560206133fc61338483613d8e565b80838252828201915082860187848660051b890101111561341b578586fd5b855b858110156133cf5781356001600160401b0381111561343a578788fd5b8801603f81018a1361344a578788fd5b61345b8a878301356040840161330d565b855250928401929084019060010161341d565b600082601f83011261347e578081fd5b8135602061348e61338483613d8e565b80838252828201915082860187848660051b89010111156134ad578586fd5b855b858110156133cf5781356001600160401b038111156134cc578788fd5b6134da8a87838c010161354a565b85525092840192908401906001016134af565b600082601f8301126134fd578081fd5b8135602061350d61338483613d8e565b80838252828201915082860187848660051b890101111561352c578586fd5b855b858110156133cf5781358452928401929084019060010161352e565b600082601f83011261355a578081fd5b6114c68383356020850161330d565b803560ff8116811461357a57600080fd5b919050565b600060208284031215613590578081fd5b81356114c681613ef2565b600080604083850312156135ad578081fd5b82356135b881613ef2565b946020939093013593505050565b600080600080608085870312156135db578182fd5b84356001600160401b03808211156135f1578384fd5b6135fd88838901613364565b95506020870135915080821115613612578384fd5b61361e888389016134ed565b94506040870135915080821115613633578384fd5b50613640878288016133dc565b949793965093946060013593505050565b60008060008060808587031215613666578182fd5b84356001600160401b038082111561367c578384fd5b61368888838901613364565b9550602087013591508082111561369d578384fd5b6136a9888389016134ed565b945060408701359150808211156136be578384fd5b6136ca888389016133dc565b935060608701359150808211156136df578283fd5b506136ec8782880161354a565b91505092959194509250565b600080600080600060a0868803121561370f578283fd5b85356001600160401b0380821115613725578485fd5b61373189838a01613364565b96506020880135915080821115613746578485fd5b61375289838a016134ed565b95506040880135915080821115613767578485fd5b61377389838a0161346e565b94506060880135915080821115613788578283fd5b61379489838a016133dc565b935060808801359150808211156137a9578283fd5b506137b68882890161354a565b9150509295509295909350565b6000602082840312156137d4578081fd5b815180151581146114c6578182fd5b6000602082840312156137f4578081fd5b5051919050565b60006020828403121561380c578081fd5b81356001600160e01b0319811681146114c6578182fd5b600060208284031215613834578081fd5b5035919050565b6000806040838503121561384d578182fd5b82359150602083013561385f81613ef2565b809150509250929050565b6000806040838503121561387c578182fd5b8235915061388c60208401613569565b90509250929050565b600080600080606085870312156138aa578182fd5b843593506138ba60208601613569565b925060408501356001600160401b03808211156138d5578384fd5b818701915087601f8301126138e8578384fd5b8135818111156138f6578485fd5b886020828501011115613907578485fd5b95989497505060200194505050565b600080600080600060a0868803121561392d578283fd5b8535945061393d60208701613569565b935061394b60408701613569565b94979396509394606081013594506080013592915050565b600060208284031215613974578081fd5b81516001600160601b03811681146114c6578182fd5b6000815180845260208085019450808401835b838110156139c25781516001600160a01b03168752958201959082019060010161399d565b509495945050505050565b600081518084526020808501808196508360051b81019150828601855b85811015613a14578284038952613a02848351613a50565b988501989350908401906001016139ea565b5091979650505050505050565b6000815180845260208085019450808401835b838110156139c257815187529582019590820190600101613a34565b60008151808452613a68816020860160208601613e4a565b601f01601f19169290920160200192915050565b60008251613a8e818460208701613e4a565b9190910192915050565b608081526000613aab608083018761398a565b8281036020840152613abd8187613a21565b90508281036040840152613ad181866139cd565b91505082606083015295945050505050565b60a081526000613af660a083018861398a565b8281036020840152613b088188613a21565b90508281036040840152613b1c81876139cd565b60608401959095525050608001529392505050565b60c081526000613b4460c083018961398a565b8281036020840152613b568189613a21565b90508281036040840152613b6a81886139cd565b60608401969096525050608081019290925260a0909101529392505050565b608081526000613b9c608083018761398a565b8281036020840152613bae8187613a21565b90508281036040840152613bc281866139cd565b90508281036060840152610fb681856139cd565b6020815260006114c66020830184613a50565b6020810160088310613c0b57634e487b7160e01b600052602160045260246000fd5b91905290565b60208082526021908201527f476f7665726e6f723a20696e76616c69642070726f706f73616c206c656e67746040820152600d60fb1b606082015260800190565b60208082526021908201527f476f7665726e6f723a2070726f706f73616c206e6f74207375636365737366756040820152601b60fa1b606082015260800190565b8981526001600160a01b038916602082015261012060408201819052600090613cbe8382018b61398a565b90508281036060840152613cd2818a613a21565b90508281036080840152613ce681896139cd565b905082810360a0840152613cfa81886139cd565b6001600160401b0387811660c0860152861660e08501528381036101008501529050613d268185613a50565b9c9b505050505050505050505050565b84815260ff841660208201528260408201526080606082015260006113586080830184613a50565b604051601f8201601f191681016001600160401b0381118282101715613d8657613d86613edc565b604052919050565b60006001600160401b03821115613da757613da7613edc565b5060051b60200190565b60008219821115613dc457613dc4613ec6565b500190565b60006001600160401b03808316818516808303821115613deb57613deb613ec6565b01949350505050565b600082613e0f57634e487b7160e01b81526012600452602481fd5b500490565b6000816000190483118215151615613e2e57613e2e613ec6565b500290565b600082821015613e4557613e45613ec6565b500390565b60005b83811015613e65578181015183820152602001613e4d565b838111156126e35750506000910152565b600181811c90821680613e8a57607f821691505b6020821081141561283757634e487b7160e01b600052602260045260246000fd5b6000600019821415613ebf57613ebf613ec6565b5060010190565b634e487b7160e01b600052601160045260246000fd5b634e487b7160e01b600052604160045260246000fd5b6001600160a01b038116811461142257600080fdfea2646970667358221220a0eea6f3fd324efd66523678490b3039257029342d349500fec05de568cf6d6e64736f6c63430008040033",
  "devdoc": {
    "kind": "dev",
    "methods": {
      "COUNTING_MODE()": {
        "details": "A description of the possible `support` values for {castVote} and the way these votes are counted, meant to be consumed by UIs to show correct vote options and interpret the results. The string is a URL-encoded sequence of key-value pairs that each describe one aspect, for example `support=bravo&quorum=for,abstain`. There are 2 standard keys: `support` and `quorum`. - `support=bravo` refers to the vote options 0 = For, 1 = Against, 2 = Abstain, as in `GovernorBravo`. - `quorum=bravo` means that only For votes are counted towards quorum. - `quorum=for,abstain` means that both For and Abstain votes are counted towards quorum. NOTE: The string can be decoded by the standard https://developer.mozilla.org/en-US/docs/Web/API/URLSearchParams[`URLSearchParams`] JavaScript class."
      },
      "cancel(uint256)": {
        "details": "Cancels a proposal only if sender is the proposer, or proposer delegates dropped below proposal threshold."
      },
      "castVote(uint256,uint8)": {
        "details": "See {IGovernor-castVote}."
      },
      "castVoteBySig(uint256,uint8,uint8,bytes32,bytes32)": {
        "details": "See {IGovernor-castVoteBySig}."
      },
      "castVoteWithReason(uint256,uint8,string)": {
        "details": "See {IGovernor-castVoteWithReason}."
      },
      "execute(address[],uint256[],bytes[],bytes32)": {
        "details": "See {IGovernor-execute}."
      },
      "execute(uint256)": {
        "details": "See {IGovernorCompatibilityBravo-execute}."
      },
      "getActions(uint256)": {
        "details": "See {IGovernorCompatibilityBravo-getActions}."
      },
      "getReceipt(uint256,address)": {
        "details": "See {IGovernorCompatibilityBravo-getReceipt}."
      },
      "hasVoted(uint256,address)": {
        "details": "See {IGovernor-hasVoted}."
      },
      "hashProposal(address[],uint256[],bytes[],bytes32)": {
        "details": "See {IGovernor-hashProposal}. The proposal id is produced by hashing the RLC encoded `targets` array, the `values` array, the `calldatas` array and the descriptionHash (bytes32 which itself is the keccak256 hash of the description string). This proposal id can be produced from the proposal data which is part of the {ProposalCreated} event. It can even be computed in advance, before the proposal is submitted. Note that the chainId and the governor address are not part of the proposal id computation. Consequently, the same proposal (with same operation and same description) will have the same id if submitted on multiple governors accross multiple networks. This also means that in order to execute the same operation twice (on the same governor) the proposer will have to change the description in order to avoid proposal id conflicts."
      },
      "name()": {
        "details": "See {IGovernor-name}."
      },
      "proposalDeadline(uint256)": {
        "details": "See {IGovernor-proposalDeadline}."
      },
      "proposalEta(uint256)": {
        "details": "Public accessor to check the eta of a queued proposal"
      },
      "proposalSnapshot(uint256)": {
        "details": "See {IGovernor-proposalSnapshot}."
      },
      "proposalThreshold()": {
        "details": "Part of the Governor Bravo's interface: _\"The number of votes required in order for a voter to become a proposer\"_."
      },
      "proposals(uint256)": {
        "details": "See {IGovernorCompatibilityBravo-proposals}."
      },
      "propose(address[],uint256[],string[],bytes[],string)": {
        "details": "See {IGovernorCompatibilityBravo-propose}."
      },
      "queue(address[],uint256[],bytes[],bytes32)": {
        "details": "Function to queue a proposal to the timelock."
      },
      "queue(uint256)": {
        "details": "See {IGovernorCompatibilityBravo-queue}."
      },
      "quorum(uint256)": {
        "details": "Minimum number of cast voted required for a proposal to be successful. Note: The `blockNumber` parameter corresponds to the snaphot used for counting vote. This allows to scale the quroum depending on values such as the totalSupply of a token at this block (see {ERC20Votes})."
      },
      "quorumVotes()": {
        "details": "See {IGovernorCompatibilityBravo-quorumVotes}."
      },
      "timelock()": {
        "details": "Public accessor to check the address of the timelock"
      },
      "updateTimelock(address)": {
        "details": "Public endpoint to update the underlying timelock instance. Restricted to the timelock itself, so updates must be proposed, scheduled and executed using the {Governor} workflow."
      },
      "version()": {
        "details": "See {IGovernor-version}."
      },
      "votingDelay()": {
        "details": "delay, in number of block, between the proposal is created and the vote starts. This can be increassed to leave time for users to buy voting power, of delegate it, before the voting of a proposal starts."
      },
      "votingPeriod()": {
        "details": "delay, in number of blocks, between the vote start and vote ends. Note: the {votingDelay} can delay the start of the vote. This must be considered when setting the voting duration compared to the voting delay."
      }
    },
    "version": 1
  },
  "userdoc": {
    "kind": "user",
    "methods": {
      "COUNTING_MODE()": {
        "notice": "module:voting"
      },
      "quorum(uint256)": {
        "notice": "module:user-config"
      },
      "votingDelay()": {
        "notice": "module:user-config"
      },
      "votingPeriod()": {
        "notice": "module:user-config"
      }
    },
    "version": 1
  },
  "storageLayout": {
    "storage": [
      {
        "astId": 3034,
        "contract": "contracts/governance/UnionGovernor.sol:UnionGovernor",
        "label": "_name",
        "offset": 0,
        "slot": "0",
        "type": "t_string_storage"
      },
      {
        "astId": 3039,
        "contract": "contracts/governance/UnionGovernor.sol:UnionGovernor",
        "label": "_proposals",
        "offset": 0,
        "slot": "1",
        "type": "t_mapping(t_uint256,t_struct(ProposalCore)3032_storage)"
      },
      {
        "astId": 4849,
        "contract": "contracts/governance/UnionGovernor.sol:UnionGovernor",
        "label": "_proposalDetails",
        "offset": 0,
        "slot": "2",
        "type": "t_mapping(t_uint256,t_struct(ProposalDetails)4844_storage)"
      },
      {
        "astId": 5798,
        "contract": "contracts/governance/UnionGovernor.sol:UnionGovernor",
        "label": "_timelock",
        "offset": 0,
        "slot": "3",
        "type": "t_contract(TimelockController)4787"
      },
      {
        "astId": 5802,
        "contract": "contracts/governance/UnionGovernor.sol:UnionGovernor",
        "label": "_timelockIds",
        "offset": 0,
        "slot": "4",
        "type": "t_mapping(t_uint256,t_bytes32)"
      },
      {
        "astId": 14506,
        "contract": "contracts/governance/UnionGovernor.sol:UnionGovernor",
        "label": "proposalCount",
        "offset": 0,
        "slot": "5",
        "type": "t_uint256"
      },
      {
        "astId": 14510,
        "contract": "contracts/governance/UnionGovernor.sol:UnionGovernor",
        "label": "latestProposalIds",
        "offset": 0,
        "slot": "6",
        "type": "t_mapping(t_address,t_uint256)"
      }
    ],
    "types": {
      "t_address": {
        "encoding": "inplace",
        "label": "address",
        "numberOfBytes": "20"
      },
      "t_array(t_address)dyn_storage": {
        "base": "t_address",
        "encoding": "dynamic_array",
        "label": "address[]",
        "numberOfBytes": "32"
      },
      "t_array(t_bytes_storage)dyn_storage": {
        "base": "t_bytes_storage",
        "encoding": "dynamic_array",
        "label": "bytes[]",
        "numberOfBytes": "32"
      },
      "t_array(t_string_storage)dyn_storage": {
        "base": "t_string_storage",
        "encoding": "dynamic_array",
        "label": "string[]",
        "numberOfBytes": "32"
      },
      "t_array(t_uint256)dyn_storage": {
        "base": "t_uint256",
        "encoding": "dynamic_array",
        "label": "uint256[]",
        "numberOfBytes": "32"
      },
      "t_bool": {
        "encoding": "inplace",
        "label": "bool",
        "numberOfBytes": "1"
      },
      "t_bytes32": {
        "encoding": "inplace",
        "label": "bytes32",
        "numberOfBytes": "32"
      },
      "t_bytes_storage": {
        "encoding": "bytes",
        "label": "bytes",
        "numberOfBytes": "32"
      },
      "t_contract(TimelockController)4787": {
        "encoding": "inplace",
        "label": "contract TimelockController",
        "numberOfBytes": "20"
      },
      "t_mapping(t_address,t_struct(Receipt)5624_storage)": {
        "encoding": "mapping",
        "key": "t_address",
        "label": "mapping(address => struct IGovernorCompatibilityBravo.Receipt)",
        "numberOfBytes": "32",
        "value": "t_struct(Receipt)5624_storage"
      },
      "t_mapping(t_address,t_uint256)": {
        "encoding": "mapping",
        "key": "t_address",
        "label": "mapping(address => uint256)",
        "numberOfBytes": "32",
        "value": "t_uint256"
      },
      "t_mapping(t_uint256,t_bytes32)": {
        "encoding": "mapping",
        "key": "t_uint256",
        "label": "mapping(uint256 => bytes32)",
        "numberOfBytes": "32",
        "value": "t_bytes32"
      },
      "t_mapping(t_uint256,t_struct(ProposalCore)3032_storage)": {
        "encoding": "mapping",
        "key": "t_uint256",
        "label": "mapping(uint256 => struct Governor.ProposalCore)",
        "numberOfBytes": "32",
        "value": "t_struct(ProposalCore)3032_storage"
      },
      "t_mapping(t_uint256,t_struct(ProposalDetails)4844_storage)": {
        "encoding": "mapping",
        "key": "t_uint256",
        "label": "mapping(uint256 => struct GovernorCompatibilityBravo.ProposalDetails)",
        "numberOfBytes": "32",
        "value": "t_struct(ProposalDetails)4844_storage"
      },
      "t_string_storage": {
        "encoding": "bytes",
        "label": "string",
        "numberOfBytes": "32"
      },
      "t_struct(BlockNumber)9307_storage": {
        "encoding": "inplace",
        "label": "struct Timers.BlockNumber",
        "members": [
          {
            "astId": 9306,
            "contract": "contracts/governance/UnionGovernor.sol:UnionGovernor",
            "label": "_deadline",
            "offset": 0,
            "slot": "0",
            "type": "t_uint64"
          }
        ],
        "numberOfBytes": "32"
      },
      "t_struct(ProposalCore)3032_storage": {
        "encoding": "inplace",
        "label": "struct Governor.ProposalCore",
        "members": [
          {
            "astId": 3024,
            "contract": "contracts/governance/UnionGovernor.sol:UnionGovernor",
            "label": "voteStart",
            "offset": 0,
            "slot": "0",
            "type": "t_struct(BlockNumber)9307_storage"
          },
          {
            "astId": 3027,
            "contract": "contracts/governance/UnionGovernor.sol:UnionGovernor",
            "label": "voteEnd",
            "offset": 0,
            "slot": "1",
            "type": "t_struct(BlockNumber)9307_storage"
          },
          {
            "astId": 3029,
            "contract": "contracts/governance/UnionGovernor.sol:UnionGovernor",
            "label": "executed",
            "offset": 0,
            "slot": "2",
            "type": "t_bool"
          },
          {
            "astId": 3031,
            "contract": "contracts/governance/UnionGovernor.sol:UnionGovernor",
            "label": "canceled",
            "offset": 1,
            "slot": "2",
            "type": "t_bool"
          }
        ],
        "numberOfBytes": "96"
      },
      "t_struct(ProposalDetails)4844_storage": {
        "encoding": "inplace",
        "label": "struct GovernorCompatibilityBravo.ProposalDetails",
        "members": [
          {
            "astId": 4818,
            "contract": "contracts/governance/UnionGovernor.sol:UnionGovernor",
            "label": "proposer",
            "offset": 0,
            "slot": "0",
            "type": "t_address"
          },
          {
            "astId": 4821,
            "contract": "contracts/governance/UnionGovernor.sol:UnionGovernor",
            "label": "targets",
            "offset": 0,
            "slot": "1",
            "type": "t_array(t_address)dyn_storage"
          },
          {
            "astId": 4824,
            "contract": "contracts/governance/UnionGovernor.sol:UnionGovernor",
            "label": "values",
            "offset": 0,
            "slot": "2",
            "type": "t_array(t_uint256)dyn_storage"
          },
          {
            "astId": 4827,
            "contract": "contracts/governance/UnionGovernor.sol:UnionGovernor",
            "label": "signatures",
            "offset": 0,
            "slot": "3",
            "type": "t_array(t_string_storage)dyn_storage"
          },
          {
            "astId": 4830,
            "contract": "contracts/governance/UnionGovernor.sol:UnionGovernor",
            "label": "calldatas",
            "offset": 0,
            "slot": "4",
            "type": "t_array(t_bytes_storage)dyn_storage"
          },
          {
            "astId": 4832,
            "contract": "contracts/governance/UnionGovernor.sol:UnionGovernor",
            "label": "forVotes",
            "offset": 0,
            "slot": "5",
            "type": "t_uint256"
          },
          {
            "astId": 4834,
            "contract": "contracts/governance/UnionGovernor.sol:UnionGovernor",
            "label": "againstVotes",
            "offset": 0,
            "slot": "6",
            "type": "t_uint256"
          },
          {
            "astId": 4836,
            "contract": "contracts/governance/UnionGovernor.sol:UnionGovernor",
            "label": "abstainVotes",
            "offset": 0,
            "slot": "7",
            "type": "t_uint256"
          },
          {
            "astId": 4841,
            "contract": "contracts/governance/UnionGovernor.sol:UnionGovernor",
            "label": "receipts",
            "offset": 0,
            "slot": "8",
            "type": "t_mapping(t_address,t_struct(Receipt)5624_storage)"
          },
          {
            "astId": 4843,
            "contract": "contracts/governance/UnionGovernor.sol:UnionGovernor",
            "label": "descriptionHash",
            "offset": 0,
            "slot": "9",
            "type": "t_bytes32"
          }
        ],
        "numberOfBytes": "320"
      },
      "t_struct(Receipt)5624_storage": {
        "encoding": "inplace",
        "label": "struct IGovernorCompatibilityBravo.Receipt",
        "members": [
          {
            "astId": 5619,
            "contract": "contracts/governance/UnionGovernor.sol:UnionGovernor",
            "label": "hasVoted",
            "offset": 0,
            "slot": "0",
            "type": "t_bool"
          },
          {
            "astId": 5621,
            "contract": "contracts/governance/UnionGovernor.sol:UnionGovernor",
            "label": "support",
            "offset": 1,
            "slot": "0",
            "type": "t_uint8"
          },
          {
            "astId": 5623,
            "contract": "contracts/governance/UnionGovernor.sol:UnionGovernor",
            "label": "votes",
            "offset": 2,
            "slot": "0",
            "type": "t_uint96"
          }
        ],
        "numberOfBytes": "32"
      },
      "t_uint256": {
        "encoding": "inplace",
        "label": "uint256",
        "numberOfBytes": "32"
      },
      "t_uint64": {
        "encoding": "inplace",
        "label": "uint64",
        "numberOfBytes": "8"
      },
      "t_uint8": {
        "encoding": "inplace",
        "label": "uint8",
        "numberOfBytes": "1"
      },
      "t_uint96": {
        "encoding": "inplace",
        "label": "uint96",
        "numberOfBytes": "12"
      }
    }
  }
}