{
  "address": "0x10379E51fF6d362E00882D658a7E5A6A83d23Ce9",
  "abi": [
    {
      "inputs": [
        {
          "internalType": "contract ERC20VotesComp",
          "name": "_token",
          "type": "address"
        },
        {
          "internalType": "contract TimelockController",
          "name": "_timelock",
          "type": "address"
        }
      ],
      "stateMutability": "nonpayable",
      "type": "constructor"
    },
    {
      "anonymous": false,
      "inputs": [
        {
          "indexed": false,
          "internalType": "uint256",
          "name": "proposalId",
          "type": "uint256"
        }
      ],
      "name": "ProposalCanceled",
      "type": "event"
    },
    {
      "anonymous": false,
      "inputs": [
        {
          "indexed": false,
          "internalType": "uint256",
          "name": "proposalId",
          "type": "uint256"
        },
        {
          "indexed": false,
          "internalType": "address",
          "name": "proposer",
          "type": "address"
        },
        {
          "indexed": false,
          "internalType": "address[]",
          "name": "targets",
          "type": "address[]"
        },
        {
          "indexed": false,
          "internalType": "uint256[]",
          "name": "values",
          "type": "uint256[]"
        },
        {
          "indexed": false,
          "internalType": "string[]",
          "name": "signatures",
          "type": "string[]"
        },
        {
          "indexed": false,
          "internalType": "bytes[]",
          "name": "calldatas",
          "type": "bytes[]"
        },
        {
          "indexed": false,
          "internalType": "uint256",
          "name": "startBlock",
          "type": "uint256"
        },
        {
          "indexed": false,
          "internalType": "uint256",
          "name": "endBlock",
          "type": "uint256"
        },
        {
          "indexed": false,
          "internalType": "string",
          "name": "description",
          "type": "string"
        }
      ],
      "name": "ProposalCreated",
      "type": "event"
    },
    {
      "anonymous": false,
      "inputs": [
        {
          "indexed": false,
          "internalType": "uint256",
          "name": "proposalId",
          "type": "uint256"
        }
      ],
      "name": "ProposalExecuted",
      "type": "event"
    },
    {
      "anonymous": false,
      "inputs": [
        {
          "indexed": false,
          "internalType": "uint256",
          "name": "proposalId",
          "type": "uint256"
        },
        {
          "indexed": false,
          "internalType": "uint256",
          "name": "eta",
          "type": "uint256"
        }
      ],
      "name": "ProposalQueued",
      "type": "event"
    },
    {
      "anonymous": false,
      "inputs": [
        {
          "indexed": false,
          "internalType": "address",
          "name": "oldTimelock",
          "type": "address"
        },
        {
          "indexed": false,
          "internalType": "address",
          "name": "newTimelock",
          "type": "address"
        }
      ],
      "name": "TimelockChange",
      "type": "event"
    },
    {
      "anonymous": false,
      "inputs": [
        {
          "indexed": true,
          "internalType": "address",
          "name": "voter",
          "type": "address"
        },
        {
          "indexed": false,
          "internalType": "uint256",
          "name": "proposalId",
          "type": "uint256"
        },
        {
          "indexed": false,
          "internalType": "uint8",
          "name": "support",
          "type": "uint8"
        },
        {
          "indexed": false,
          "internalType": "uint256",
          "name": "weight",
          "type": "uint256"
        },
        {
          "indexed": false,
          "internalType": "string",
          "name": "reason",
          "type": "string"
        }
      ],
      "name": "VoteCast",
      "type": "event"
    },
    {
      "inputs": [],
      "name": "BALLOT_TYPEHASH",
      "outputs": [
        {
          "internalType": "bytes32",
          "name": "",
          "type": "bytes32"
        }
      ],
      "stateMutability": "view",
      "type": "function"
    },
    {
      "inputs": [],
      "name": "COUNTING_MODE",
      "outputs": [
        {
          "internalType": "string",
          "name": "",
          "type": "string"
        }
      ],
      "stateMutability": "pure",
      "type": "function"
    },
    {
      "inputs": [
        {
          "internalType": "uint256",
          "name": "proposalId",
          "type": "uint256"
        }
      ],
      "name": "cancel",
      "outputs": [],
      "stateMutability": "nonpayable",
      "type": "function"
    },
    {
      "inputs": [
        {
          "internalType": "uint256",
          "name": "proposalId",
          "type": "uint256"
        },
        {
          "internalType": "uint8",
          "name": "support",
          "type": "uint8"
        }
      ],
      "name": "castVote",
      "outputs": [
        {
          "internalType": "uint256",
          "name": "",
          "type": "uint256"
        }
      ],
      "stateMutability": "nonpayable",
      "type": "function"
    },
    {
      "inputs": [
        {
          "internalType": "uint256",
          "name": "proposalId",
          "type": "uint256"
        },
        {
          "internalType": "uint8",
          "name": "support",
          "type": "uint8"
        },
        {
          "internalType": "uint8",
          "name": "v",
          "type": "uint8"
        },
        {
          "internalType": "bytes32",
          "name": "r",
          "type": "bytes32"
        },
        {
          "internalType": "bytes32",
          "name": "s",
          "type": "bytes32"
        }
      ],
      "name": "castVoteBySig",
      "outputs": [
        {
          "internalType": "uint256",
          "name": "",
          "type": "uint256"
        }
      ],
      "stateMutability": "nonpayable",
      "type": "function"
    },
    {
      "inputs": [
        {
          "internalType": "uint256",
          "name": "proposalId",
          "type": "uint256"
        },
        {
          "internalType": "uint8",
          "name": "support",
          "type": "uint8"
        },
        {
          "internalType": "string",
          "name": "reason",
          "type": "string"
        }
      ],
      "name": "castVoteWithReason",
      "outputs": [
        {
          "internalType": "uint256",
          "name": "",
          "type": "uint256"
        }
      ],
      "stateMutability": "nonpayable",
      "type": "function"
    },
    {
      "inputs": [
        {
          "internalType": "address[]",
          "name": "targets",
          "type": "address[]"
        },
        {
          "internalType": "uint256[]",
          "name": "values",
          "type": "uint256[]"
        },
        {
          "internalType": "bytes[]",
          "name": "calldatas",
          "type": "bytes[]"
        },
        {
          "internalType": "bytes32",
          "name": "descriptionHash",
          "type": "bytes32"
        }
      ],
      "name": "execute",
      "outputs": [
        {
          "internalType": "uint256",
          "name": "",
          "type": "uint256"
        }
      ],
      "stateMutability": "payable",
      "type": "function"
    },
    {
      "inputs": [
        {
          "internalType": "uint256",
          "name": "proposalId",
          "type": "uint256"
        }
      ],
      "name": "execute",
      "outputs": [],
      "stateMutability": "payable",
      "type": "function"
    },
    {
      "inputs": [
        {
          "internalType": "uint256",
          "name": "proposalId",
          "type": "uint256"
        }
      ],
      "name": "getActions",
      "outputs": [
        {
          "internalType": "address[]",
          "name": "targets",
          "type": "address[]"
        },
        {
          "internalType": "uint256[]",
          "name": "values",
          "type": "uint256[]"
        },
        {
          "internalType": "string[]",
          "name": "signatures",
          "type": "string[]"
        },
        {
          "internalType": "bytes[]",
          "name": "calldatas",
          "type": "bytes[]"
        }
      ],
      "stateMutability": "view",
      "type": "function"
    },
    {
      "inputs": [
        {
          "internalType": "uint256",
          "name": "proposalId",
          "type": "uint256"
        },
        {
          "internalType": "address",
          "name": "voter",
          "type": "address"
        }
      ],
      "name": "getReceipt",
      "outputs": [
        {
          "components": [
            {
              "internalType": "bool",
              "name": "hasVoted",
              "type": "bool"
            },
            {
              "internalType": "uint8",
              "name": "support",
              "type": "uint8"
            },
            {
              "internalType": "uint96",
              "name": "votes",
              "type": "uint96"
            }
          ],
          "internalType": "struct IGovernorCompatibilityBravo.Receipt",
          "name": "",
          "type": "tuple"
        }
      ],
      "stateMutability": "view",
      "type": "function"
    },
    {
      "inputs": [
        {
          "internalType": "address",
          "name": "account",
          "type": "address"
        },
        {
          "internalType": "uint256",
          "name": "blockNumber",
          "type": "uint256"
        }
      ],
      "name": "getVotes",
      "outputs": [
        {
          "internalType": "uint256",
          "name": "",
          "type": "uint256"
        }
      ],
      "stateMutability": "view",
      "type": "function"
    },
    {
      "inputs": [
        {
          "internalType": "uint256",
          "name": "proposalId",
          "type": "uint256"
        },
        {
          "internalType": "address",
          "name": "account",
          "type": "address"
        }
      ],
      "name": "hasVoted",
      "outputs": [
        {
          "internalType": "bool",
          "name": "",
          "type": "bool"
        }
      ],
      "stateMutability": "view",
      "type": "function"
    },
    {
      "inputs": [
        {
          "internalType": "address[]",
          "name": "targets",
          "type": "address[]"
        },
        {
          "internalType": "uint256[]",
          "name": "values",
          "type": "uint256[]"
        },
        {
          "internalType": "bytes[]",
          "name": "calldatas",
          "type": "bytes[]"
        },
        {
          "internalType": "bytes32",
          "name": "descriptionHash",
          "type": "bytes32"
        }
      ],
      "name": "hashProposal",
      "outputs": [
        {
          "internalType": "uint256",
          "name": "",
          "type": "uint256"
        }
      ],
      "stateMutability": "pure",
      "type": "function"
    },
    {
      "inputs": [
        {
          "internalType": "address",
          "name": "",
          "type": "address"
        }
      ],
      "name": "latestProposalIds",
      "outputs": [
        {
          "internalType": "uint256",
          "name": "",
          "type": "uint256"
        }
      ],
      "stateMutability": "view",
      "type": "function"
    },
    {
      "inputs": [],
      "name": "name",
      "outputs": [
        {
          "internalType": "string",
          "name": "",
          "type": "string"
        }
      ],
      "stateMutability": "view",
      "type": "function"
    },
    {
      "inputs": [],
      "name": "proposalCount",
      "outputs": [
        {
          "internalType": "uint256",
          "name": "",
          "type": "uint256"
        }
      ],
      "stateMutability": "view",
      "type": "function"
    },
    {
      "inputs": [
        {
          "internalType": "uint256",
          "name": "proposalId",
          "type": "uint256"
        }
      ],
      "name": "proposalDeadline",
      "outputs": [
        {
          "internalType": "uint256",
          "name": "",
          "type": "uint256"
        }
      ],
      "stateMutability": "view",
      "type": "function"
    },
    {
      "inputs": [
        {
          "internalType": "uint256",
          "name": "proposalId",
          "type": "uint256"
        }
      ],
      "name": "proposalEta",
      "outputs": [
        {
          "internalType": "uint256",
          "name": "",
          "type": "uint256"
        }
      ],
      "stateMutability": "view",
      "type": "function"
    },
    {
      "inputs": [
        {
          "internalType": "uint256",
          "name": "proposalId",
          "type": "uint256"
        }
      ],
      "name": "proposalSnapshot",
      "outputs": [
        {
          "internalType": "uint256",
          "name": "",
          "type": "uint256"
        }
      ],
      "stateMutability": "view",
      "type": "function"
    },
    {
      "inputs": [],
      "name": "proposalThreshold",
      "outputs": [
        {
          "internalType": "uint256",
          "name": "",
          "type": "uint256"
        }
      ],
      "stateMutability": "pure",
      "type": "function"
    },
    {
      "inputs": [
        {
          "internalType": "uint256",
          "name": "proposalId",
          "type": "uint256"
        }
      ],
      "name": "proposals",
      "outputs": [
        {
          "internalType": "uint256",
          "name": "id",
          "type": "uint256"
        },
        {
          "internalType": "address",
          "name": "proposer",
          "type": "address"
        },
        {
          "internalType": "uint256",
          "name": "eta",
          "type": "uint256"
        },
        {
          "internalType": "uint256",
          "name": "startBlock",
          "type": "uint256"
        },
        {
          "internalType": "uint256",
          "name": "endBlock",
          "type": "uint256"
        },
        {
          "internalType": "uint256",
          "name": "forVotes",
          "type": "uint256"
        },
        {
          "internalType": "uint256",
          "name": "againstVotes",
          "type": "uint256"
        },
        {
          "internalType": "uint256",
          "name": "abstainVotes",
          "type": "uint256"
        },
        {
          "internalType": "bool",
          "name": "canceled",
          "type": "bool"
        },
        {
          "internalType": "bool",
          "name": "executed",
          "type": "bool"
        }
      ],
      "stateMutability": "view",
      "type": "function"
    },
    {
      "inputs": [
        {
          "internalType": "address[]",
          "name": "targets",
          "type": "address[]"
        },
        {
          "internalType": "uint256[]",
          "name": "values",
          "type": "uint256[]"
        },
        {
          "internalType": "bytes[]",
          "name": "calldatas",
          "type": "bytes[]"
        },
        {
          "internalType": "string",
          "name": "description",
          "type": "string"
        }
      ],
      "name": "propose",
      "outputs": [
        {
          "internalType": "uint256",
          "name": "",
          "type": "uint256"
        }
      ],
      "stateMutability": "nonpayable",
      "type": "function"
    },
    {
      "inputs": [
        {
          "internalType": "address[]",
          "name": "targets",
          "type": "address[]"
        },
        {
          "internalType": "uint256[]",
          "name": "values",
          "type": "uint256[]"
        },
        {
          "internalType": "string[]",
          "name": "signatures",
          "type": "string[]"
        },
        {
          "internalType": "bytes[]",
          "name": "calldatas",
          "type": "bytes[]"
        },
        {
          "internalType": "string",
          "name": "description",
          "type": "string"
        }
      ],
      "name": "propose",
      "outputs": [
        {
          "internalType": "uint256",
          "name": "",
          "type": "uint256"
        }
      ],
      "stateMutability": "nonpayable",
      "type": "function"
    },
    {
      "inputs": [
        {
          "internalType": "address[]",
          "name": "targets",
          "type": "address[]"
        },
        {
          "internalType": "uint256[]",
          "name": "values",
          "type": "uint256[]"
        },
        {
          "internalType": "bytes[]",
          "name": "calldatas",
          "type": "bytes[]"
        },
        {
          "internalType": "bytes32",
          "name": "descriptionHash",
          "type": "bytes32"
        }
      ],
      "name": "queue",
      "outputs": [
        {
          "internalType": "uint256",
          "name": "",
          "type": "uint256"
        }
      ],
      "stateMutability": "nonpayable",
      "type": "function"
    },
    {
      "inputs": [
        {
          "internalType": "uint256",
          "name": "proposalId",
          "type": "uint256"
        }
      ],
      "name": "queue",
      "outputs": [],
      "stateMutability": "nonpayable",
      "type": "function"
    },
    {
      "inputs": [
        {
          "internalType": "uint256",
          "name": "blockNumber",
          "type": "uint256"
        }
      ],
      "name": "quorum",
      "outputs": [
        {
          "internalType": "uint256",
          "name": "",
          "type": "uint256"
        }
      ],
      "stateMutability": "view",
      "type": "function"
    },
    {
      "inputs": [],
      "name": "quorumVotes",
      "outputs": [
        {
          "internalType": "uint256",
          "name": "",
          "type": "uint256"
        }
      ],
      "stateMutability": "view",
      "type": "function"
    },
    {
      "inputs": [
        {
          "internalType": "uint256",
          "name": "proposalId",
          "type": "uint256"
        }
      ],
      "name": "state",
      "outputs": [
        {
          "internalType": "enum IGovernor.ProposalState",
          "name": "",
          "type": "uint8"
        }
      ],
      "stateMutability": "view",
      "type": "function"
    },
    {
      "inputs": [
        {
          "internalType": "bytes4",
          "name": "interfaceId",
          "type": "bytes4"
        }
      ],
      "name": "supportsInterface",
      "outputs": [
        {
          "internalType": "bool",
          "name": "",
          "type": "bool"
        }
      ],
      "stateMutability": "view",
      "type": "function"
    },
    {
      "inputs": [],
      "name": "timelock",
      "outputs": [
        {
          "internalType": "address",
          "name": "",
          "type": "address"
        }
      ],
      "stateMutability": "view",
      "type": "function"
    },
    {
      "inputs": [],
      "name": "token",
      "outputs": [
        {
          "internalType": "contract ERC20VotesComp",
          "name": "",
          "type": "address"
        }
      ],
      "stateMutability": "view",
      "type": "function"
    },
    {
      "inputs": [
        {
          "internalType": "contract TimelockController",
          "name": "newTimelock",
          "type": "address"
        }
      ],
      "name": "updateTimelock",
      "outputs": [],
      "stateMutability": "nonpayable",
      "type": "function"
    },
    {
      "inputs": [],
      "name": "version",
      "outputs": [
        {
          "internalType": "string",
          "name": "",
          "type": "string"
        }
      ],
      "stateMutability": "view",
      "type": "function"
    },
    {
      "inputs": [],
      "name": "votingDelay",
      "outputs": [
        {
          "internalType": "uint256",
          "name": "",
          "type": "uint256"
        }
      ],
      "stateMutability": "pure",
      "type": "function"
    },
    {
      "inputs": [],
      "name": "votingPeriod",
      "outputs": [
        {
          "internalType": "uint256",
          "name": "",
          "type": "uint256"
        }
      ],
      "stateMutability": "pure",
      "type": "function"
    },
    {
      "stateMutability": "payable",
      "type": "receive"
    }
  ],
  "transactionHash": "0x47418051999f246b0963960f2e38707c21b44afda5ce6fa45b8ffa8fe4b16acd",
  "args": [
    "0xA2A00a139de1343C90f969c8aE4f1e337C8fC73a",
    "0x0D9A3a698D5ddD7bC3E32fB90CA55ec48EBEAd2C"
  ],
  "solcInputHash": "580987782891ccc19cc762a3677063a5",
  "bytecode": "0x6101606040523480156200001257600080fd5b50604051620042f7380380620042f7833981016040819052620000359162000269565b80826040518060400160405280600e81526020016d2ab734b7b71023b7bb32b93737b960911b815250806200006f6200013f60201b60201c565b815160208084019190912082518383012060e08290526101008190524660a0818152604080517f8b73c3c69bb8fe3d512ecc4cf759cc79239f7b179b0ffacaa9a75d522b39400f81880181905281830187905260608201869052608082019490945230818401528151808203909301835260c00190528051940193909320919290916080523060601b60c0526101205250508251620001189250600091506020840190620001c3565b505060601b6001600160601b0319166101405262000136816200015a565b505050620002fd565b6040805180820190915260018152603160f81b602082015290565b600354604080516001600160a01b03928316815291831660208301527f08f74ea46ef7894f65eabfb5e6e695de773a000b47c529ab559178069b226401910160405180910390a1600380546001600160a01b0319166001600160a01b0392909216919091179055565b828054620001d190620002a7565b90600052602060002090601f016020900481019282620001f5576000855562000240565b82601f106200021057805160ff191683800117855562000240565b8280016001018555821562000240579182015b828111156200024057825182559160200191906001019062000223565b506200024e92915062000252565b5090565b5b808211156200024e576000815560010162000253565b600080604083850312156200027c578182fd5b82516200028981620002e4565b60208401519092506200029c81620002e4565b809150509250929050565b600181811c90821680620002bc57607f821691505b60208210811415620002de57634e487b7160e01b600052602260045260246000fd5b50919050565b6001600160a01b0381168114620002fa57600080fd5b50565b60805160a05160c05160601c60e05161010051610120516101405160601c613f8b6200036c600039600081816107b20152818161182301526121f5015260006123b401526000612403015260006123de01526000612337015260006123610152600061238b0152613f8b6000f3fe6080604052600436106101c85760003560e01c80637b3c71d3116100f8578063da95691a11610090578063da95691a146105dc578063dd4e2ba5146105fc578063ddf0b00914610642578063deaaa7cc14610662578063e23a9a5214610696578063eb9019d414610760578063f8ce560a14610780578063fc0c546a146107a0578063fe0d94c1146107d457600080fd5b80637b3c71d3146104b75780637d5e81e2146104d7578063a890c910146104f7578063ab58fb8e14610517578063b58131b014610537578063c01f9e3714610554578063c59057e414610574578063d33219b414610594578063da35c664146105c657600080fd5b80632d63f6931161016b5780632d63f69314610351578063328dd982146103715780633932abb1146103a15780633bccf4fd146103b65780633e4f49e6146103d657806340e58ee514610403578063438596321461042357806354fd4d501461046d578063567813881461049757600080fd5b8063013cf08b146101f057806301ffc9a71461026b57806302a251a31461029b57806306fdde03146102ba578063160cbed7146102dc57806317977c61146102fc57806324bc1a64146103295780632656227d1461033e57600080fd5b366101eb57306101d66107e7565b6001600160a01b0316146101e957600080fd5b005b600080fd5b3480156101fc57600080fd5b5061021061020b366004613871565b610800565b604080519a8b526001600160a01b0390991660208b0152978901969096526060880194909452608087019290925260a086015260c085015260e084015215156101008301521515610120820152610140015b60405180910390f35b34801561027757600080fd5b5061028b610286366004613849565b6108c5565b6040519015158152602001610262565b3480156102a757600080fd5b50614d0d5b604051908152602001610262565b3480156102c657600080fd5b506102cf6108d6565b6040516102629190613c24565b3480156102e857600080fd5b506102ac6102f7366004613614565b610968565b34801561030857600080fd5b506102ac6103173660046135cd565b60066020526000908152604090205481565b34801561033557600080fd5b506102ac610b9f565b6102ac61034c366004613614565b610baf565b34801561035d57600080fd5b506102ac61036c366004613871565b610c9e565b34801561037d57600080fd5b5061039161038c366004613871565b610cd5565b6040516102629493929190613bd7565b3480156103ad57600080fd5b506119af6102ac565b3480156103c257600080fd5b506102ac6103d1366004613964565b610f66565b3480156103e257600080fd5b506103f66103f1366004613871565b610ffa565b6040516102629190613c37565b34801561040f57600080fd5b506101e961041e366004613871565b611005565b34801561042f57600080fd5b5061028b61043e366004613889565b60008281526002602090815260408083206001600160a01b038516845260080190915290205460ff1692915050565b34801561047957600080fd5b506040805180820190915260018152603160f81b60208201526102cf565b3480156104a357600080fd5b506102ac6104b23660046138b8565b611320565b3480156104c357600080fd5b506102ac6104d23660046138e3565b611349565b3480156104e357600080fd5b506102ac6104f236600461369f565b61139b565b34801561050357600080fd5b506101e96105123660046135cd565b6113ef565b34801561052357600080fd5b506102ac610532366004613871565b61145e565b34801561054357600080fd5b50690a968163f0a57b4000006102ac565b34801561056057600080fd5b506102ac61056f366004613871565b611506565b34801561058057600080fd5b506102ac61058f366004613614565b611535565b3480156105a057600080fd5b506003546001600160a01b03165b6040516001600160a01b039091168152602001610262565b3480156105d257600080fd5b506102ac60055481565b3480156105e857600080fd5b506102ac6105f7366004613746565b61156f565b34801561060857600080fd5b5060408051808201909152601a81527f737570706f72743d627261766f2671756f72756d3d627261766f00000000000060208201526102cf565b34801561064e57600080fd5b506101e961065d366004613871565b61157e565b34801561066e57600080fd5b506102ac7f150214d74d59b7d1e90c73fc22ef3d991dd0a76b046543d4d80ab92d2a50328f81565b3480156106a257600080fd5b506107306106b1366004613889565b60408051606081018252600080825260208201819052918101919091525060009182526002602090815260408084206001600160a01b0393909316845260089092018152918190208151606081018352905460ff8082161515835261010082041693820193909352620100009092046001600160601b03169082015290565b6040805182511515815260208084015160ff1690820152918101516001600160601b031690820152606001610262565b34801561076c57600080fd5b506102ac61077b3660046135e9565b6117ec565b34801561078c57600080fd5b506102ac61079b366004613871565b6117f8565b3480156107ac57600080fd5b506105ae7f000000000000000000000000000000000000000000000000000000000000000081565b6101e96107e2366004613871565b6118b8565b60006107fb6003546001600160a01b031690565b905090565b80600080808080808080806108148a61145e565b975061081f8b610c9e565b965061082a8b611506565b60008c815260026020526040812080546005820154600683015460078401546001600160a01b039093169e50949a50985092965091945061086a8d610ffa565b9050600281600781111561088e57634e487b7160e01b600052602160045260246000fd5b14935060078160078111156108b357634e487b7160e01b600052602160045260246000fd5b14925050509193959799509193959799565b60006108d082611b26565b92915050565b6060600080546108e590613ec4565b80601f016020809104026020016040519081016040528092919081815260200182805461091190613ec4565b801561095e5780601f106109335761010080835404028352916020019161095e565b820191906000526020600020905b81548152906001019060200180831161094157829003601f168201915b5050505050905090565b60008061097786868686611535565b9050600461098482610ffa565b60078111156109a357634e487b7160e01b600052602160045260246000fd5b146109c95760405162461bcd60e51b81526004016109c090613ca0565b60405180910390fd5b6003546040805163793d064960e11b815290516000926001600160a01b03169163f27a0c92916004808301926020929190829003018186803b158015610a0e57600080fd5b505afa158015610a22573d6000803e3d6000fd5b505050506040513d601f19601f82011682018060405250810190610a469190613831565b60035460405163b1c5f42760e01b81529192506001600160a01b03169063b1c5f42790610a80908a908a908a906000908b90600401613b31565b60206040518083038186803b158015610a9857600080fd5b505afa158015610aac573d6000803e3d6000fd5b505050506040513d601f19601f82011682018060405250810190610ad09190613831565b60008381526004602081905260408083209390935560035492516308f2a0bb60e41b81526001600160a01b0390931692638f2a0bb092610b1c928c928c928c9290918c918a9101613b7f565b600060405180830381600087803b158015610b3657600080fd5b505af1158015610b4a573d6000803e3d6000fd5b505050507f9a2e42fd6722813d69113e7d0079d3d940171428df7373df9c7f7617cfda2892828242610b7c9190613dff565b604080519283526020830191909152015b60405180910390a15095945050505050565b60006107fb61079b600143613e81565b600080610bbe86868686611535565b90506000610bcb82610ffa565b90506004816007811115610bef57634e487b7160e01b600052602160045260246000fd5b1480610c1a57506005816007811115610c1857634e487b7160e01b600052602160045260246000fd5b145b610c365760405162461bcd60e51b81526004016109c090613ca0565b600082815260016020818152604092839020600201805460ff191690921790915590518381527f712ae1383f79ac853f8d882153778e0260ef8f03b504e2866e0593e04d2b291f910160405180910390a1610c948288888888611b4b565b5095945050505050565b60008181526001602090815260408083208151928301909152546001600160401b0316908190525b6001600160401b031692915050565b60608060608060006002600087815260200190815260200160002090508060010181600201826003018360040183805480602002602001604051908101604052809291908181526020018280548015610d5757602002820191906000526020600020905b81546001600160a01b03168152600190910190602001808311610d39575b5050505050935082805480602002602001604051908101604052809291908181526020018280548015610da957602002820191906000526020600020905b815481526020019060010190808311610d95575b5050505050925081805480602002602001604051908101604052809291908181526020016000905b82821015610e7d578382906000526020600020018054610df090613ec4565b80601f0160208091040260200160405190810160405280929190818152602001828054610e1c90613ec4565b8015610e695780601f10610e3e57610100808354040283529160200191610e69565b820191906000526020600020905b815481529060010190602001808311610e4c57829003601f168201915b505050505081526020019060010190610dd1565b50505050915080805480602002602001604051908101604052809291908181526020016000905b82821015610f50578382906000526020600020018054610ec390613ec4565b80601f0160208091040260200160405190810160405280929190818152602001828054610eef90613ec4565b8015610f3c5780601f10610f1157610100808354040283529160200191610f3c565b820191906000526020600020905b815481529060010190602001808311610f1f57829003601f168201915b505050505081526020019060010190610ea4565b5050505090509450945094509450509193509193565b604080517f150214d74d59b7d1e90c73fc22ef3d991dd0a76b046543d4d80ab92d2a50328f602082015290810186905260ff851660608201526000908190610fd290610fca9060800160405160208183030381529060405280519060200120611b5f565b868686611bad565b9050610fef87828860405180602001604052806000815250611bcb565b979650505050505050565b60006108d082611ce4565b600081815260026020526040902080546001600160a01b0316336001600160a01b031614806110565750690a968163f0a57b4000008154611054906001600160a01b031661077b600143613e81565b105b6110b25760405162461bcd60e51b815260206004820152602760248201527f476f7665726e6f72427261766f3a2070726f706f7365722061626f76652074686044820152661c995cda1bdb1960ca1b60648201526084016109c0565b61131b8160010180548060200260200160405190810160405280929190818152602001828054801561110d57602002820191906000526020600020905b81546001600160a01b031681526001909101906020018083116110ef575b50505050508260020180548060200260200160405190810160405280929190818152602001828054801561116057602002820191906000526020600020905b81548152602001906001019080831161114c575b505050505061131184600301805480602002602001604051908101604052809291908181526020016000905b828210156112385783829060005260206000200180546111ab90613ec4565b80601f01602080910402602001604051908101604052809291908181526020018280546111d790613ec4565b80156112245780601f106111f957610100808354040283529160200191611224565b820191906000526020600020905b81548152906001019060200180831161120757829003601f168201915b50505050508152602001906001019061118c565b50505060048701805460408051602080840282018101909252828152935060009084015b8282101561130857838290600052602060002001805461127b90613ec4565b80601f01602080910402602001604051908101604052809291908181526020018280546112a790613ec4565b80156112f45780601f106112c9576101008083540402835291602001916112f4565b820191906000526020600020905b8154815290600101906020018083116112d757829003601f168201915b50505050508152602001906001019061125c565b50505050611dcf565b8460090154611f83565b505050565b60008033905061134184828560405180602001604052806000815250611bcb565b949350505050565b60008033905061139186828787878080601f016020809104026020016040519081016040528093929190818152602001838380828437600092019190915250611bcb92505050565b9695505050505050565b60006113a5611f9a565b600580549060006113b583613ef9565b919050555060006113cf8686868680519060200120611535565b3360009081526006602052604090208190559050611391868686866120c8565b6113f76107e7565b6001600160a01b0316336001600160a01b0316146114525760405162461bcd60e51b8152602060048201526018602482015277476f7665726e6f723a206f6e6c79476f7665726e616e636560401b60448201526064016109c0565b61145b8161213e565b50565b600354600082815260046020819052604080832054905163d45c443560e01b815291820152909182916001600160a01b039091169063d45c44359060240160206040518083038186803b1580156114b457600080fd5b505afa1580156114c8573d6000803e3d6000fd5b505050506040513d601f19601f820116820180604052508101906114ec9190613831565b9050806001146114fc57806114ff565b60005b9392505050565b60008181526001602081815260408084208151928301909152909101546001600160401b031690819052610cc6565b60008484848460405160200161154e9493929190613ae6565b60408051601f19818403018152919052805160209091012095945050505050565b600061139186868686866121a7565b600081815260026020908152604091829020600181018054845181850281018501909552808552919361131b939092908301828280156115e757602002820191906000526020600020905b81546001600160a01b031681526001909101906020018083116115c9575b50505050508260020180548060200260200160405190810160405280929190818152602001828054801561163a57602002820191906000526020600020905b815481526020019060010190808311611626575b50505050506117e284600301805480602002602001604051908101604052809291908181526020016000905b8282101561171257838290600052602060002001805461168590613ec4565b80601f01602080910402602001604051908101604052809291908181526020018280546116b190613ec4565b80156116fe5780601f106116d3576101008083540402835291602001916116fe565b820191906000526020600020905b8154815290600101906020018083116116e157829003601f168201915b505050505081526020019060010190611666565b50505060048701805460408051602080840282018101909252828152935060009084015b8282101561130857838290600052602060002001805461175590613ec4565b80601f016020809104026020016040519081016040528092919081815260200182805461178190613ec4565b80156117ce5780601f106117a3576101008083540402835291602001916117ce565b820191906000526020600020905b8154815290600101906020018083116117b157829003601f168201915b505050505081526020019060010190611736565b8460090154610968565b60006114ff83836121cc565b604051632394e7a360e21b815260048101829052600090670de0b6b3a7640000906001600160a01b037f00000000000000000000000000000000000000000000000000000000000000001690638e539e8c9060240160206040518083038186803b15801561186557600080fd5b505afa158015611879573d6000803e3d6000fd5b505050506040513d601f19601f8201168201806040525081019061189d9190613831565b6118ae90668e1bc9bf040000613e62565b6108d09190613e42565b600081815260026020908152604091829020600181018054845181850281018501909552808552919361131b9390929083018282801561192157602002820191906000526020600020905b81546001600160a01b03168152600190910190602001808311611903575b50505050508260020180548060200260200160405190810160405280929190818152602001828054801561197457602002820191906000526020600020905b815481526020019060010190808311611960575b5050505050611b1c84600301805480602002602001604051908101604052809291908181526020016000905b82821015611a4c5783829060005260206000200180546119bf90613ec4565b80601f01602080910402602001604051908101604052809291908181526020018280546119eb90613ec4565b8015611a385780601f10611a0d57610100808354040283529160200191611a38565b820191906000526020600020905b815481529060010190602001808311611a1b57829003601f168201915b5050505050815260200190600101906119a0565b50505060048701805460408051602080840282018101909252828152935060009084015b82821015611308578382906000526020600020018054611a8f90613ec4565b80601f0160208091040260200160405190810160405280929190818152602001828054611abb90613ec4565b8015611b085780601f10611add57610100808354040283529160200191611b08565b820191906000526020600020905b815481529060010190602001808311611aeb57829003601f168201915b505050505081526020019060010190611a70565b8460090154610baf565b60006001600160e01b03198216636e665ced60e01b14806108d057506108d082612281565b611b5885858585856122b6565b5050505050565b60006108d0611b6c61232a565b8360405161190160f01b6020820152602281018390526042810182905260009060620160405160208183030381529060405280519060200120905092915050565b6000806000611bbe87878787612451565b91509150610c9481612534565b6000848152600160208190526040822090611be587610ffa565b6007811115611c0457634e487b7160e01b600052602160045260246000fd5b14611c5d5760405162461bcd60e51b815260206004820152602360248201527f476f7665726e6f723a20766f7465206e6f742063757272656e746c792061637460448201526269766560e81b60648201526084016109c0565b604080516020810190915281546001600160401b031690819052600090611c859087906117ec565b9050611c9387878784612730565b856001600160a01b03167fb8e138887d0aa13bab447e82de9d5c1777041ecd21ca36ba824ff1e6c07ddda488878488604051611cd29493929190613d84565b60405180910390a29695505050505050565b600080611cf083612742565b90506004816007811115611d1457634e487b7160e01b600052602160045260246000fd5b14611d1f5792915050565b60008381526004602052604090205480611d3a575092915050565b600354604051632ab0f52960e01b8152600481018390526001600160a01b0390911690632ab0f5299060240160206040518083038186803b158015611d7e57600080fd5b505afa158015611d92573d6000803e3d6000fd5b505050506040513d601f19601f82011682018060405250810190611db69190613811565b15611dc5575060079392505050565b5060059392505050565b6060600082516001600160401b03811115611dfa57634e487b7160e01b600052604160045260246000fd5b604051908082528060200260200182016040528015611e2d57816020015b6060815260200190600190039081611e185790505b50905060005b8451811015611f7b57848181518110611e5c57634e487b7160e01b600052603260045260246000fd5b602002602001015151600014611f1657848181518110611e8c57634e487b7160e01b600052603260045260246000fd5b6020026020010151848281518110611eb457634e487b7160e01b600052603260045260246000fd5b6020026020010151604051602401611ecc9190613c24565b60408051601f198184030181529082905291611ee791613aca565b6040519081900390206020820180516001600160e01b03166001600160e01b0319909216919091179052611f3f565b838181518110611f3657634e487b7160e01b600052603260045260246000fd5b60200260200101515b828281518110611f5f57634e487b7160e01b600052603260045260246000fd5b602002602001018190525080611f7490613ef9565b9050611e33565b509392505050565b6000611f9185858585612897565b95945050505050565b33600090815260066020526040902054801561145b576000611fbb82610ffa565b90506001816007811115611fdf57634e487b7160e01b600052602160045260246000fd5b14156120405760405162461bcd60e51b815260206004820152602a60248201527f476f7665726e6f723a20666f756e6420616e20616c726561647920616374697660448201526919481c1c9bdc1bdcd85b60b21b60648201526084016109c0565b600081600781111561206257634e487b7160e01b600052602160045260246000fd5b14156120c45760405162461bcd60e51b815260206004820152602b60248201527f476f7665726e6f723a20666f756e6420616e20616c72656164792070656e646960448201526a1b99c81c1c9bdc1bdcd85b60aa1b60648201526084016109c0565b5050565b600061213233868686516001600160401b038111156120f757634e487b7160e01b600052604160045260246000fd5b60405190808252806020026020018201604052801561212a57816020015b60608152602001906001900390816121155790505b508787612945565b611f9185858585612a02565b600354604080516001600160a01b03928316815291831660208301527f08f74ea46ef7894f65eabfb5e6e695de773a000b47c529ab559178069b226401910160405180910390a1600380546001600160a01b0319166001600160a01b0392909216919091179055565b60006121b7338787878787612945565b61139186866121c68787611dcf565b8561139b565b60405163782d6fe160e01b81526001600160a01b038381166004830152602482018390526000917f00000000000000000000000000000000000000000000000000000000000000009091169063782d6fe19060440160206040518083038186803b15801561223957600080fd5b505afa15801561224d573d6000803e3d6000fd5b505050506040513d601f19601f8201168201806040525081019061227191906139b1565b6001600160601b03169392505050565b60006001600160e01b0319821663bf26d89760e01b14806108d057506301ffc9a760e01b6001600160e01b03198316146108d0565b60035460405163e38335e560e01b81526001600160a01b039091169063e38335e59034906122f1908890889088906000908990600401613b31565b6000604051808303818588803b15801561230a57600080fd5b505af115801561231e573d6000803e3d6000fd5b50505050505050505050565b6000306001600160a01b037f00000000000000000000000000000000000000000000000000000000000000001614801561238357507f000000000000000000000000000000000000000000000000000000000000000046145b156123ad57507f000000000000000000000000000000000000000000000000000000000000000090565b50604080517f00000000000000000000000000000000000000000000000000000000000000006020808301919091527f0000000000000000000000000000000000000000000000000000000000000000828401527f000000000000000000000000000000000000000000000000000000000000000060608301524660808301523060a0808401919091528351808403909101815260c0909201909252805191012090565b6000806fa2a8918ca85bafe22016d0b997e4df60600160ff1b0383111561247e575060009050600361252b565b8460ff16601b1415801561249657508460ff16601c14155b156124a7575060009050600461252b565b6040805160008082526020820180845289905260ff881692820192909252606081018690526080810185905260019060a0016020604051602081039080840390855afa1580156124fb573d6000803e3d6000fd5b5050604051601f1901519150506001600160a01b0381166125245760006001925092505061252b565b9150600090505b94509492505050565b600081600481111561255657634e487b7160e01b600052602160045260246000fd5b141561255f5750565b600181600481111561258157634e487b7160e01b600052602160045260246000fd5b14156125ca5760405162461bcd60e51b815260206004820152601860248201527745434453413a20696e76616c6964207369676e617475726560401b60448201526064016109c0565b60028160048111156125ec57634e487b7160e01b600052602160045260246000fd5b141561263a5760405162461bcd60e51b815260206004820152601f60248201527f45434453413a20696e76616c6964207369676e6174757265206c656e6774680060448201526064016109c0565b600381600481111561265c57634e487b7160e01b600052602160045260246000fd5b14156126b55760405162461bcd60e51b815260206004820152602260248201527f45434453413a20696e76616c6964207369676e6174757265202773272076616c604482015261756560f01b60648201526084016109c0565b60048160048111156126d757634e487b7160e01b600052602160045260246000fd5b141561145b5760405162461bcd60e51b815260206004820152602260248201527f45434453413a20696e76616c6964207369676e6174757265202776272076616c604482015261756560f01b60648201526084016109c0565b61273c84848484612cc3565b50505050565b6000818152600160208181526040808420815160a08101835281546001600160401b0390811660808301908152825283518086018552958301541685529283019390935260029092015460ff808216158015948401949094526101009091041615156060820152906127b75750600792915050565b8060600151156127ca5750600292915050565b80515143906001600160401b0316106127e65750600092915050565b436127f382602001515190565b6001600160401b03161061280a5750600192915050565b6128178160200151612e68565b156128495761282583612e97565b8015612835575061283583612ea2565b6128405760036114ff565b60049392505050565b60405162461bcd60e51b815260206004820152601d60248201527f476f7665726e6f723a20756e6b6e6f776e2070726f706f73616c20696400000060448201526064016109c0565b50919050565b6000806128a686868686612ec1565b60008181526004602052604090205490915015611f915760035460008281526004602081905260409182902054915163c4d252f560e01b8152908101919091526001600160a01b039091169063c4d252f590602401600060405180830381600087803b15801561291557600080fd5b505af1158015612929573d6000803e3d6000fd5b5050506000828152600460205260408120555095945050505050565b805160208201206000612963878761295d8888611dcf565b85611535565b60008181526002602052604090206009810154919250906129f75780546001600160a01b0319166001600160a01b038a1617815587516129ac90600183019060208b0190613111565b5086516129c290600283019060208a0190613172565b5085516129d890600383019060208901906131ad565b5084516129ee9060048301906020880190613206565b50600981018390555b505050505050505050565b6000690a968163f0a57b400000612a1e3361077b600143613e81565b1015612a9e5760405162461bcd60e51b815260206004820152604360248201527f476f7665726e6f72436f6d7061746962696c697479427261766f3a2070726f7060448201527f6f73657220766f7465732062656c6f772070726f706f73616c207468726573686064820152621bdb1960ea1b608482015260a4016109c0565b6000612ab38686868680519060200120611535565b90508451865114612ad65760405162461bcd60e51b81526004016109c090613c5f565b8351865114612af75760405162461bcd60e51b81526004016109c090613c5f565b6000865111612b435760405162461bcd60e51b815260206004820152601860248201527711dbdd995c9b9bdc8e88195b5c1d1e481c1c9bdc1bdcd85b60421b60448201526064016109c0565b600081815260016020908152604091829020825191820190925281546001600160401b03169081905215612bc35760405162461bcd60e51b815260206004820152602160248201527f476f7665726e6f723a2070726f706f73616c20616c72656164792065786973746044820152607360f81b60648201526084016109c0565b6000612bd06119af612ff7565b612bd943612ff7565b612be39190613e17565b90506000612bf2614d0d612ff7565b612bfc9083613e17565b9050612c088383613063565b612c156001840182613063565b7f7d84a6263ae0d98d3329bd7b46bb4e8d6f98cd35a7adb45c274c8b7fd5ebd5e084338b8b8d516001600160401b03811115612c6157634e487b7160e01b600052604160045260246000fd5b604051908082528060200260200182016040528015612c9457816020015b6060815260200190600190039081612c7f5790505b508c88888e604051612cae99989796959493929190613ce1565b60405180910390a15091979650505050505050565b60008481526002602090815260408083206001600160a01b038716845260088101909252909120805460ff1615612d525760405162461bcd60e51b815260206004820152602d60248201527f476f7665726e6f72436f6d7061746962696c697479427261766f3a20766f746560448201526c08185b1c9958591e4818d85cdd609a1b60648201526084016109c0565b805460ff85166101000261ffff19909116176001178155612d7283613081565b81546001600160601b039190911662010000026dffffffffffffffffffffffff00001990911617815560ff8416612dc25782826006016000828254612db79190613dff565b90915550612e609050565b60ff841660011415612de25782826005016000828254612db79190613dff565b60ff841660021415612e025782826007016000828254612db79190613dff565b60405162461bcd60e51b815260206004820152602d60248201527f476f7665726e6f72436f6d7061746962696c697479427261766f3a20696e766160448201526c6c696420766f7465207479706560981b60648201526084016109c0565b505050505050565b6000612e7d82516001600160401b0316151590565b80156108d057505051436001600160401b03909116111590565b60006108d0826130e9565b60008181526002602052604081206006810154600590910154116108d0565b600080612ed086868686611535565b90506000612edd82610ffa565b90506002816007811115612f0157634e487b7160e01b600052602160045260246000fd5b14158015612f2f57506006816007811115612f2c57634e487b7160e01b600052602160045260246000fd5b14155b8015612f5b57506007816007811115612f5857634e487b7160e01b600052602160045260246000fd5b14155b612fa75760405162461bcd60e51b815260206004820152601d60248201527f476f7665726e6f723a2070726f706f73616c206e6f742061637469766500000060448201526064016109c0565b60008281526001602052604090819020600201805461ff001916610100179055517f789cf55be980739dad1d0699b93b58e806b51c9d96619bfa8fe0a28abaa7b30c90610b8d9084815260200190565b60006001600160401b0382111561305f5760405162461bcd60e51b815260206004820152602660248201527f53616665436173743a2076616c756520646f65736e27742066697420696e203660448201526534206269747360d01b60648201526084016109c0565b5090565b815467ffffffffffffffff19166001600160401b0391909116179055565b60006001600160601b0382111561305f5760405162461bcd60e51b815260206004820152602660248201527f53616665436173743a2076616c756520646f65736e27742066697420696e203960448201526536206269747360d01b60648201526084016109c0565b6000818152600260205260408120600581015461310861079b85610c9e565b11159392505050565b828054828255906000526020600020908101928215613166579160200282015b8281111561316657825182546001600160a01b0319166001600160a01b03909116178255602090920191600190910190613131565b5061305f92915061325f565b828054828255906000526020600020908101928215613166579160200282015b82811115613166578251825591602001919060010190613192565b8280548282559060005260206000209081019282156131fa579160200282015b828111156131fa57825180516131ea918491602090910190613274565b50916020019190600101906131cd565b5061305f9291506132e7565b828054828255906000526020600020908101928215613253579160200282015b828111156132535782518051613243918491602090910190613274565b5091602001919060010190613226565b5061305f929150613304565b5b8082111561305f5760008155600101613260565b82805461328090613ec4565b90600052602060002090601f0160209004810192826132a25760008555613166565b82601f106132bb57805160ff1916838001178555613166565b828001600101855582156131665791820182811115613166578251825591602001919060010190613192565b8082111561305f5760006132fb8282613321565b506001016132e7565b8082111561305f5760006133188282613321565b50600101613304565b50805461332d90613ec4565b6000825580601f1061333d575050565b601f01602090049060005260206000209081019061145b919061325f565b60006001600160401b0383111561337457613374613f2a565b613387601f8401601f1916602001613dac565b905082815283838301111561339b57600080fd5b828260208301376000602084830101529392505050565b600082601f8301126133c2578081fd5b813560206133d76133d283613ddc565b613dac565b80838252828201915082860187848660051b89010111156133f6578586fd5b855b8581101561341d57813561340b81613f40565b845292840192908401906001016133f8565b5090979650505050505050565b600082601f83011261343a578081fd5b8135602061344a6133d283613ddc565b80838252828201915082860187848660051b8901011115613469578586fd5b855b8581101561341d5781356001600160401b03811115613488578788fd5b8801603f81018a13613498578788fd5b6134a98a878301356040840161335b565b855250928401929084019060010161346b565b600082601f8301126134cc578081fd5b813560206134dc6133d283613ddc565b80838252828201915082860187848660051b89010111156134fb578586fd5b855b8581101561341d5781356001600160401b0381111561351a578788fd5b6135288a87838c0101613598565b85525092840192908401906001016134fd565b600082601f83011261354b578081fd5b8135602061355b6133d283613ddc565b80838252828201915082860187848660051b890101111561357a578586fd5b855b8581101561341d5781358452928401929084019060010161357c565b600082601f8301126135a8578081fd5b6114ff8383356020850161335b565b803560ff811681146135c857600080fd5b919050565b6000602082840312156135de578081fd5b81356114ff81613f40565b600080604083850312156135fb578081fd5b823561360681613f40565b946020939093013593505050565b60008060008060808587031215613629578182fd5b84356001600160401b038082111561363f578384fd5b61364b888389016133b2565b95506020870135915080821115613660578384fd5b61366c8883890161353b565b94506040870135915080821115613681578384fd5b5061368e8782880161342a565b949793965093946060013593505050565b600080600080608085870312156136b4578182fd5b84356001600160401b03808211156136ca578384fd5b6136d6888389016133b2565b955060208701359150808211156136eb578384fd5b6136f78883890161353b565b9450604087013591508082111561370c578384fd5b6137188883890161342a565b9350606087013591508082111561372d578283fd5b5061373a87828801613598565b91505092959194509250565b600080600080600060a0868803121561375d578283fd5b85356001600160401b0380821115613773578485fd5b61377f89838a016133b2565b96506020880135915080821115613794578485fd5b6137a089838a0161353b565b955060408801359150808211156137b5578485fd5b6137c189838a016134bc565b945060608801359150808211156137d6578283fd5b6137e289838a0161342a565b935060808801359150808211156137f7578283fd5b5061380488828901613598565b9150509295509295909350565b600060208284031215613822578081fd5b815180151581146114ff578182fd5b600060208284031215613842578081fd5b5051919050565b60006020828403121561385a578081fd5b81356001600160e01b0319811681146114ff578182fd5b600060208284031215613882578081fd5b5035919050565b6000806040838503121561389b578182fd5b8235915060208301356138ad81613f40565b809150509250929050565b600080604083850312156138ca578182fd5b823591506138da602084016135b7565b90509250929050565b600080600080606085870312156138f8578182fd5b84359350613908602086016135b7565b925060408501356001600160401b0380821115613923578384fd5b818701915087601f830112613936578384fd5b813581811115613944578485fd5b886020828501011115613955578485fd5b95989497505060200194505050565b600080600080600060a0868803121561397b578283fd5b8535945061398b602087016135b7565b9350613999604087016135b7565b94979396509394606081013594506080013592915050565b6000602082840312156139c2578081fd5b81516001600160601b03811681146114ff578182fd5b6000815180845260208085019450808401835b83811015613a105781516001600160a01b0316875295820195908201906001016139eb565b509495945050505050565b600081518084526020808501808196508360051b81019150828601855b85811015613a62578284038952613a50848351613a9e565b98850198935090840190600101613a38565b5091979650505050505050565b6000815180845260208085019450808401835b83811015613a1057815187529582019590820190600101613a82565b60008151808452613ab6816020860160208601613e98565b601f01601f19169290920160200192915050565b60008251613adc818460208701613e98565b9190910192915050565b608081526000613af960808301876139d8565b8281036020840152613b0b8187613a6f565b90508281036040840152613b1f8186613a1b565b91505082606083015295945050505050565b60a081526000613b4460a08301886139d8565b8281036020840152613b568188613a6f565b90508281036040840152613b6a8187613a1b565b60608401959095525050608001529392505050565b60c081526000613b9260c08301896139d8565b8281036020840152613ba48189613a6f565b90508281036040840152613bb88188613a1b565b60608401969096525050608081019290925260a0909101529392505050565b608081526000613bea60808301876139d8565b8281036020840152613bfc8187613a6f565b90508281036040840152613c108186613a1b565b90508281036060840152610fef8185613a1b565b6020815260006114ff6020830184613a9e565b6020810160088310613c5957634e487b7160e01b600052602160045260246000fd5b91905290565b60208082526021908201527f476f7665726e6f723a20696e76616c69642070726f706f73616c206c656e67746040820152600d60fb1b606082015260800190565b60208082526021908201527f476f7665726e6f723a2070726f706f73616c206e6f74207375636365737366756040820152601b60fa1b606082015260800190565b8981526001600160a01b038916602082015261012060408201819052600090613d0c8382018b6139d8565b90508281036060840152613d20818a613a6f565b90508281036080840152613d348189613a1b565b905082810360a0840152613d488188613a1b565b6001600160401b0387811660c0860152861660e08501528381036101008501529050613d748185613a9e565b9c9b505050505050505050505050565b84815260ff841660208201528260408201526080606082015260006113916080830184613a9e565b604051601f8201601f191681016001600160401b0381118282101715613dd457613dd4613f2a565b604052919050565b60006001600160401b03821115613df557613df5613f2a565b5060051b60200190565b60008219821115613e1257613e12613f14565b500190565b60006001600160401b03808316818516808303821115613e3957613e39613f14565b01949350505050565b600082613e5d57634e487b7160e01b81526012600452602481fd5b500490565b6000816000190483118215151615613e7c57613e7c613f14565b500290565b600082821015613e9357613e93613f14565b500390565b60005b83811015613eb3578181015183820152602001613e9b565b8381111561273c5750506000910152565b600181811c90821680613ed857607f821691505b6020821081141561289157634e487b7160e01b600052602260045260246000fd5b6000600019821415613f0d57613f0d613f14565b5060010190565b634e487b7160e01b600052601160045260246000fd5b634e487b7160e01b600052604160045260246000fd5b6001600160a01b038116811461145b57600080fdfea264697066735822122037eb1a092c7a83e84c67435ff8723610ebd66ca393a3e99a16d4c928db445a9864736f6c63430008040033",
  "devdoc": {
    "kind": "dev",
    "methods": {
      "COUNTING_MODE()": {
        "details": "A description of the possible `support` values for {castVote} and the way these votes are counted, meant to be consumed by UIs to show correct vote options and interpret the results. The string is a URL-encoded sequence of key-value pairs that each describe one aspect, for example `support=bravo&quorum=for,abstain`. There are 2 standard keys: `support` and `quorum`. - `support=bravo` refers to the vote options 0 = Against, 1 = For, 2 = Abstain, as in `GovernorBravo`. - `quorum=bravo` means that only For votes are counted towards quorum. - `quorum=for,abstain` means that both For and Abstain votes are counted towards quorum. NOTE: The string can be decoded by the standard https://developer.mozilla.org/en-US/docs/Web/API/URLSearchParams[`URLSearchParams`] JavaScript class."
      },
      "cancel(uint256)": {
        "details": "Cancels a proposal only if sender is the proposer, or proposer delegates dropped below proposal threshold."
      },
      "castVote(uint256,uint8)": {
        "details": "See {IGovernor-castVote}."
      },
      "castVoteBySig(uint256,uint8,uint8,bytes32,bytes32)": {
        "details": "See {IGovernor-castVoteBySig}."
      },
      "castVoteWithReason(uint256,uint8,string)": {
        "details": "See {IGovernor-castVoteWithReason}."
      },
      "execute(address[],uint256[],bytes[],bytes32)": {
        "details": "See {IGovernor-execute}."
      },
      "execute(uint256)": {
        "details": "See {IGovernorCompatibilityBravo-execute}."
      },
      "getActions(uint256)": {
        "details": "See {IGovernorCompatibilityBravo-getActions}."
      },
      "getReceipt(uint256,address)": {
        "details": "See {IGovernorCompatibilityBravo-getReceipt}."
      },
      "hasVoted(uint256,address)": {
        "details": "See {IGovernor-hasVoted}."
      },
      "hashProposal(address[],uint256[],bytes[],bytes32)": {
        "details": "See {IGovernor-hashProposal}. The proposal id is produced by hashing the RLC encoded `targets` array, the `values` array, the `calldatas` array and the descriptionHash (bytes32 which itself is the keccak256 hash of the description string). This proposal id can be produced from the proposal data which is part of the {ProposalCreated} event. It can even be computed in advance, before the proposal is submitted. Note that the chainId and the governor address are not part of the proposal id computation. Consequently, the same proposal (with same operation and same description) will have the same id if submitted on multiple governors accross multiple networks. This also means that in order to execute the same operation twice (on the same governor) the proposer will have to change the description in order to avoid proposal id conflicts."
      },
      "name()": {
        "details": "See {IGovernor-name}."
      },
      "proposalDeadline(uint256)": {
        "details": "See {IGovernor-proposalDeadline}."
      },
      "proposalEta(uint256)": {
        "details": "Public accessor to check the eta of a queued proposal"
      },
      "proposalSnapshot(uint256)": {
        "details": "See {IGovernor-proposalSnapshot}."
      },
      "proposalThreshold()": {
        "details": "Part of the Governor Bravo's interface: _\"The number of votes required in order for a voter to become a proposer\"_."
      },
      "proposals(uint256)": {
        "details": "See {IGovernorCompatibilityBravo-proposals}."
      },
      "propose(address[],uint256[],string[],bytes[],string)": {
        "details": "See {IGovernorCompatibilityBravo-propose}."
      },
      "queue(address[],uint256[],bytes[],bytes32)": {
        "details": "Function to queue a proposal to the timelock."
      },
      "queue(uint256)": {
        "details": "See {IGovernorCompatibilityBravo-queue}."
      },
      "quorum(uint256)": {
        "details": "Minimum number of cast voted required for a proposal to be successful. Note: The `blockNumber` parameter corresponds to the snaphot used for counting vote. This allows to scale the quroum depending on values such as the totalSupply of a token at this block (see {ERC20Votes})."
      },
      "quorumVotes()": {
        "details": "See {IGovernorCompatibilityBravo-quorumVotes}."
      },
      "timelock()": {
        "details": "Public accessor to check the address of the timelock"
      },
      "updateTimelock(address)": {
        "details": "Public endpoint to update the underlying timelock instance. Restricted to the timelock itself, so updates must be proposed, scheduled and executed using the {Governor} workflow."
      },
      "version()": {
        "details": "See {IGovernor-version}."
      },
      "votingDelay()": {
        "details": "Delay, in number of block, between the proposal is created and the vote starts. This can be increassed to leave time for users to buy voting power, of delegate it, before the voting of a proposal starts."
      },
      "votingPeriod()": {
        "details": "Delay, in number of blocks, between the vote start and vote ends. NOTE: The {votingDelay} can delay the start of the vote. This must be considered when setting the voting duration compared to the voting delay."
      }
    },
    "version": 1
  },
  "userdoc": {
    "kind": "user",
    "methods": {
      "COUNTING_MODE()": {
        "notice": "module:voting"
      },
      "quorum(uint256)": {
        "notice": "module:user-config"
      },
      "votingDelay()": {
        "notice": "module:user-config"
      },
      "votingPeriod()": {
        "notice": "module:user-config"
      }
    },
    "version": 1
  },
  "storageLayout": {
    "storage": [
      {
        "astId": 3919,
        "contract": "contracts/governance/UnionGovernor.sol:UnionGovernor",
        "label": "_name",
        "offset": 0,
        "slot": "0",
        "type": "t_string_storage"
      },
      {
        "astId": 3924,
        "contract": "contracts/governance/UnionGovernor.sol:UnionGovernor",
        "label": "_proposals",
        "offset": 0,
        "slot": "1",
        "type": "t_mapping(t_uint256,t_struct(ProposalCore)3917_storage)"
      },
      {
        "astId": 5776,
        "contract": "contracts/governance/UnionGovernor.sol:UnionGovernor",
        "label": "_proposalDetails",
        "offset": 0,
        "slot": "2",
        "type": "t_mapping(t_uint256,t_struct(ProposalDetails)5771_storage)"
      },
      {
        "astId": 6654,
        "contract": "contracts/governance/UnionGovernor.sol:UnionGovernor",
        "label": "_timelock",
        "offset": 0,
        "slot": "3",
        "type": "t_contract(TimelockController)5717"
      },
      {
        "astId": 6658,
        "contract": "contracts/governance/UnionGovernor.sol:UnionGovernor",
        "label": "_timelockIds",
        "offset": 0,
        "slot": "4",
        "type": "t_mapping(t_uint256,t_bytes32)"
      },
      {
        "astId": 15422,
        "contract": "contracts/governance/UnionGovernor.sol:UnionGovernor",
        "label": "proposalCount",
        "offset": 0,
        "slot": "5",
        "type": "t_uint256"
      },
      {
        "astId": 15426,
        "contract": "contracts/governance/UnionGovernor.sol:UnionGovernor",
        "label": "latestProposalIds",
        "offset": 0,
        "slot": "6",
        "type": "t_mapping(t_address,t_uint256)"
      }
    ],
    "types": {
      "t_address": {
        "encoding": "inplace",
        "label": "address",
        "numberOfBytes": "20"
      },
      "t_array(t_address)dyn_storage": {
        "base": "t_address",
        "encoding": "dynamic_array",
        "label": "address[]",
        "numberOfBytes": "32"
      },
      "t_array(t_bytes_storage)dyn_storage": {
        "base": "t_bytes_storage",
        "encoding": "dynamic_array",
        "label": "bytes[]",
        "numberOfBytes": "32"
      },
      "t_array(t_string_storage)dyn_storage": {
        "base": "t_string_storage",
        "encoding": "dynamic_array",
        "label": "string[]",
        "numberOfBytes": "32"
      },
      "t_array(t_uint256)dyn_storage": {
        "base": "t_uint256",
        "encoding": "dynamic_array",
        "label": "uint256[]",
        "numberOfBytes": "32"
      },
      "t_bool": {
        "encoding": "inplace",
        "label": "bool",
        "numberOfBytes": "1"
      },
      "t_bytes32": {
        "encoding": "inplace",
        "label": "bytes32",
        "numberOfBytes": "32"
      },
      "t_bytes_storage": {
        "encoding": "bytes",
        "label": "bytes",
        "numberOfBytes": "32"
      },
      "t_contract(TimelockController)5717": {
        "encoding": "inplace",
        "label": "contract TimelockController",
        "numberOfBytes": "20"
      },
      "t_mapping(t_address,t_struct(Receipt)6541_storage)": {
        "encoding": "mapping",
        "key": "t_address",
        "label": "mapping(address => struct IGovernorCompatibilityBravo.Receipt)",
        "numberOfBytes": "32",
        "value": "t_struct(Receipt)6541_storage"
      },
      "t_mapping(t_address,t_uint256)": {
        "encoding": "mapping",
        "key": "t_address",
        "label": "mapping(address => uint256)",
        "numberOfBytes": "32",
        "value": "t_uint256"
      },
      "t_mapping(t_uint256,t_bytes32)": {
        "encoding": "mapping",
        "key": "t_uint256",
        "label": "mapping(uint256 => bytes32)",
        "numberOfBytes": "32",
        "value": "t_bytes32"
      },
      "t_mapping(t_uint256,t_struct(ProposalCore)3917_storage)": {
        "encoding": "mapping",
        "key": "t_uint256",
        "label": "mapping(uint256 => struct Governor.ProposalCore)",
        "numberOfBytes": "32",
        "value": "t_struct(ProposalCore)3917_storage"
      },
      "t_mapping(t_uint256,t_struct(ProposalDetails)5771_storage)": {
        "encoding": "mapping",
        "key": "t_uint256",
        "label": "mapping(uint256 => struct GovernorCompatibilityBravo.ProposalDetails)",
        "numberOfBytes": "32",
        "value": "t_struct(ProposalDetails)5771_storage"
      },
      "t_string_storage": {
        "encoding": "bytes",
        "label": "string",
        "numberOfBytes": "32"
      },
      "t_struct(BlockNumber)10163_storage": {
        "encoding": "inplace",
        "label": "struct Timers.BlockNumber",
        "members": [
          {
            "astId": 10162,
            "contract": "contracts/governance/UnionGovernor.sol:UnionGovernor",
            "label": "_deadline",
            "offset": 0,
            "slot": "0",
            "type": "t_uint64"
          }
        ],
        "numberOfBytes": "32"
      },
      "t_struct(ProposalCore)3917_storage": {
        "encoding": "inplace",
        "label": "struct Governor.ProposalCore",
        "members": [
          {
            "astId": 3909,
            "contract": "contracts/governance/UnionGovernor.sol:UnionGovernor",
            "label": "voteStart",
            "offset": 0,
            "slot": "0",
            "type": "t_struct(BlockNumber)10163_storage"
          },
          {
            "astId": 3912,
            "contract": "contracts/governance/UnionGovernor.sol:UnionGovernor",
            "label": "voteEnd",
            "offset": 0,
            "slot": "1",
            "type": "t_struct(BlockNumber)10163_storage"
          },
          {
            "astId": 3914,
            "contract": "contracts/governance/UnionGovernor.sol:UnionGovernor",
            "label": "executed",
            "offset": 0,
            "slot": "2",
            "type": "t_bool"
          },
          {
            "astId": 3916,
            "contract": "contracts/governance/UnionGovernor.sol:UnionGovernor",
            "label": "canceled",
            "offset": 1,
            "slot": "2",
            "type": "t_bool"
          }
        ],
        "numberOfBytes": "96"
      },
      "t_struct(ProposalDetails)5771_storage": {
        "encoding": "inplace",
        "label": "struct GovernorCompatibilityBravo.ProposalDetails",
        "members": [
          {
            "astId": 5745,
            "contract": "contracts/governance/UnionGovernor.sol:UnionGovernor",
            "label": "proposer",
            "offset": 0,
            "slot": "0",
            "type": "t_address"
          },
          {
            "astId": 5748,
            "contract": "contracts/governance/UnionGovernor.sol:UnionGovernor",
            "label": "targets",
            "offset": 0,
            "slot": "1",
            "type": "t_array(t_address)dyn_storage"
          },
          {
            "astId": 5751,
            "contract": "contracts/governance/UnionGovernor.sol:UnionGovernor",
            "label": "values",
            "offset": 0,
            "slot": "2",
            "type": "t_array(t_uint256)dyn_storage"
          },
          {
            "astId": 5754,
            "contract": "contracts/governance/UnionGovernor.sol:UnionGovernor",
            "label": "signatures",
            "offset": 0,
            "slot": "3",
            "type": "t_array(t_string_storage)dyn_storage"
          },
          {
            "astId": 5757,
            "contract": "contracts/governance/UnionGovernor.sol:UnionGovernor",
            "label": "calldatas",
            "offset": 0,
            "slot": "4",
            "type": "t_array(t_bytes_storage)dyn_storage"
          },
          {
            "astId": 5759,
            "contract": "contracts/governance/UnionGovernor.sol:UnionGovernor",
            "label": "forVotes",
            "offset": 0,
            "slot": "5",
            "type": "t_uint256"
          },
          {
            "astId": 5761,
            "contract": "contracts/governance/UnionGovernor.sol:UnionGovernor",
            "label": "againstVotes",
            "offset": 0,
            "slot": "6",
            "type": "t_uint256"
          },
          {
            "astId": 5763,
            "contract": "contracts/governance/UnionGovernor.sol:UnionGovernor",
            "label": "abstainVotes",
            "offset": 0,
            "slot": "7",
            "type": "t_uint256"
          },
          {
            "astId": 5768,
            "contract": "contracts/governance/UnionGovernor.sol:UnionGovernor",
            "label": "receipts",
            "offset": 0,
            "slot": "8",
            "type": "t_mapping(t_address,t_struct(Receipt)6541_storage)"
          },
          {
            "astId": 5770,
            "contract": "contracts/governance/UnionGovernor.sol:UnionGovernor",
            "label": "descriptionHash",
            "offset": 0,
            "slot": "9",
            "type": "t_bytes32"
          }
        ],
        "numberOfBytes": "320"
      },
      "t_struct(Receipt)6541_storage": {
        "encoding": "inplace",
        "label": "struct IGovernorCompatibilityBravo.Receipt",
        "members": [
          {
            "astId": 6536,
            "contract": "contracts/governance/UnionGovernor.sol:UnionGovernor",
            "label": "hasVoted",
            "offset": 0,
            "slot": "0",
            "type": "t_bool"
          },
          {
            "astId": 6538,
            "contract": "contracts/governance/UnionGovernor.sol:UnionGovernor",
            "label": "support",
            "offset": 1,
            "slot": "0",
            "type": "t_uint8"
          },
          {
            "astId": 6540,
            "contract": "contracts/governance/UnionGovernor.sol:UnionGovernor",
            "label": "votes",
            "offset": 2,
            "slot": "0",
            "type": "t_uint96"
          }
        ],
        "numberOfBytes": "32"
      },
      "t_uint256": {
        "encoding": "inplace",
        "label": "uint256",
        "numberOfBytes": "32"
      },
      "t_uint64": {
        "encoding": "inplace",
        "label": "uint64",
        "numberOfBytes": "8"
      },
      "t_uint8": {
        "encoding": "inplace",
        "label": "uint8",
        "numberOfBytes": "1"
      },
      "t_uint96": {
        "encoding": "inplace",
        "label": "uint96",
        "numberOfBytes": "12"
      }
    }
  }
}