{
  "address": "0xA2A00a139de1343C90f969c8aE4f1e337C8fC73a",
  "abi": [
    {
      "inputs": [
        {
          "internalType": "string",
          "name": "name",
          "type": "string"
        },
        {
          "internalType": "string",
          "name": "symbol",
          "type": "string"
        },
        {
          "internalType": "uint256",
          "name": "mintingAllowedAfter_",
          "type": "uint256"
        }
      ],
      "stateMutability": "nonpayable",
      "type": "constructor"
    },
    {
      "anonymous": false,
      "inputs": [
        {
          "indexed": true,
          "internalType": "address",
          "name": "owner",
          "type": "address"
        },
        {
          "indexed": true,
          "internalType": "address",
          "name": "spender",
          "type": "address"
        },
        {
          "indexed": false,
          "internalType": "uint256",
          "name": "value",
          "type": "uint256"
        }
      ],
      "name": "Approval",
      "type": "event"
    },
    {
      "anonymous": false,
      "inputs": [
        {
          "indexed": true,
          "internalType": "address",
          "name": "delegator",
          "type": "address"
        },
        {
          "indexed": true,
          "internalType": "address",
          "name": "fromDelegate",
          "type": "address"
        },
        {
          "indexed": true,
          "internalType": "address",
          "name": "toDelegate",
          "type": "address"
        }
      ],
      "name": "DelegateChanged",
      "type": "event"
    },
    {
      "anonymous": false,
      "inputs": [
        {
          "indexed": true,
          "internalType": "address",
          "name": "delegate",
          "type": "address"
        },
        {
          "indexed": false,
          "internalType": "uint256",
          "name": "previousBalance",
          "type": "uint256"
        },
        {
          "indexed": false,
          "internalType": "uint256",
          "name": "newBalance",
          "type": "uint256"
        }
      ],
      "name": "DelegateVotesChanged",
      "type": "event"
    },
    {
      "anonymous": false,
      "inputs": [
        {
          "indexed": true,
          "internalType": "address",
          "name": "previousOwner",
          "type": "address"
        },
        {
          "indexed": true,
          "internalType": "address",
          "name": "newOwner",
          "type": "address"
        }
      ],
      "name": "OwnershipTransferred",
      "type": "event"
    },
    {
      "anonymous": false,
      "inputs": [
        {
          "indexed": true,
          "internalType": "address",
          "name": "from",
          "type": "address"
        },
        {
          "indexed": true,
          "internalType": "address",
          "name": "to",
          "type": "address"
        },
        {
          "indexed": false,
          "internalType": "uint256",
          "name": "value",
          "type": "uint256"
        }
      ],
      "name": "Transfer",
      "type": "event"
    },
    {
      "anonymous": false,
      "inputs": [
        {
          "indexed": true,
          "internalType": "address",
          "name": "_account",
          "type": "address"
        }
      ],
      "name": "Unwhitelisted",
      "type": "event"
    },
    {
      "anonymous": false,
      "inputs": [],
      "name": "WhitelistDisabled",
      "type": "event"
    },
    {
      "anonymous": false,
      "inputs": [],
      "name": "WhitelistEnabled",
      "type": "event"
    },
    {
      "anonymous": false,
      "inputs": [
        {
          "indexed": true,
          "internalType": "address",
          "name": "_account",
          "type": "address"
        }
      ],
      "name": "Whitelisted",
      "type": "event"
    },
    {
      "inputs": [],
      "name": "DELEGATION_TYPEHASH",
      "outputs": [
        {
          "internalType": "bytes32",
          "name": "",
          "type": "bytes32"
        }
      ],
      "stateMutability": "view",
      "type": "function"
    },
    {
      "inputs": [],
      "name": "DOMAIN_SEPARATOR",
      "outputs": [
        {
          "internalType": "bytes32",
          "name": "",
          "type": "bytes32"
        }
      ],
      "stateMutability": "view",
      "type": "function"
    },
    {
      "inputs": [],
      "name": "DOMAIN_TYPEHASH",
      "outputs": [
        {
          "internalType": "bytes32",
          "name": "",
          "type": "bytes32"
        }
      ],
      "stateMutability": "view",
      "type": "function"
    },
    {
      "inputs": [],
      "name": "INIT_CIRCULATING",
      "outputs": [
        {
          "internalType": "uint256",
          "name": "",
          "type": "uint256"
        }
      ],
      "stateMutability": "view",
      "type": "function"
    },
    {
      "inputs": [],
      "name": "PERMIT_TYPEHASH",
      "outputs": [
        {
          "internalType": "bytes32",
          "name": "",
          "type": "bytes32"
        }
      ],
      "stateMutability": "view",
      "type": "function"
    },
    {
      "inputs": [
        {
          "internalType": "address",
          "name": "owner",
          "type": "address"
        },
        {
          "internalType": "address",
          "name": "spender",
          "type": "address"
        }
      ],
      "name": "allowance",
      "outputs": [
        {
          "internalType": "uint256",
          "name": "",
          "type": "uint256"
        }
      ],
      "stateMutability": "view",
      "type": "function"
    },
    {
      "inputs": [
        {
          "internalType": "address",
          "name": "spender",
          "type": "address"
        },
        {
          "internalType": "uint256",
          "name": "amount",
          "type": "uint256"
        }
      ],
      "name": "approve",
      "outputs": [
        {
          "internalType": "bool",
          "name": "",
          "type": "bool"
        }
      ],
      "stateMutability": "nonpayable",
      "type": "function"
    },
    {
      "inputs": [
        {
          "internalType": "address",
          "name": "account",
          "type": "address"
        }
      ],
      "name": "balanceOf",
      "outputs": [
        {
          "internalType": "uint256",
          "name": "",
          "type": "uint256"
        }
      ],
      "stateMutability": "view",
      "type": "function"
    },
    {
      "inputs": [
        {
          "internalType": "uint256",
          "name": "amount",
          "type": "uint256"
        }
      ],
      "name": "burn",
      "outputs": [],
      "stateMutability": "nonpayable",
      "type": "function"
    },
    {
      "inputs": [
        {
          "internalType": "address",
          "name": "account",
          "type": "address"
        },
        {
          "internalType": "uint256",
          "name": "amount",
          "type": "uint256"
        }
      ],
      "name": "burnFrom",
      "outputs": [],
      "stateMutability": "nonpayable",
      "type": "function"
    },
    {
      "inputs": [
        {
          "internalType": "address",
          "name": "account",
          "type": "address"
        },
        {
          "internalType": "uint32",
          "name": "pos",
          "type": "uint32"
        }
      ],
      "name": "checkpoints",
      "outputs": [
        {
          "components": [
            {
              "internalType": "uint32",
              "name": "fromBlock",
              "type": "uint32"
            },
            {
              "internalType": "uint224",
              "name": "votes",
              "type": "uint224"
            }
          ],
          "internalType": "struct ERC20Votes.Checkpoint",
          "name": "",
          "type": "tuple"
        }
      ],
      "stateMutability": "view",
      "type": "function"
    },
    {
      "inputs": [],
      "name": "decimals",
      "outputs": [
        {
          "internalType": "uint8",
          "name": "",
          "type": "uint8"
        }
      ],
      "stateMutability": "view",
      "type": "function"
    },
    {
      "inputs": [
        {
          "internalType": "address",
          "name": "spender",
          "type": "address"
        },
        {
          "internalType": "uint256",
          "name": "subtractedValue",
          "type": "uint256"
        }
      ],
      "name": "decreaseAllowance",
      "outputs": [
        {
          "internalType": "bool",
          "name": "",
          "type": "bool"
        }
      ],
      "stateMutability": "nonpayable",
      "type": "function"
    },
    {
      "inputs": [
        {
          "internalType": "address",
          "name": "delegatee",
          "type": "address"
        }
      ],
      "name": "delegate",
      "outputs": [],
      "stateMutability": "nonpayable",
      "type": "function"
    },
    {
      "inputs": [
        {
          "internalType": "address",
          "name": "delegatee",
          "type": "address"
        },
        {
          "internalType": "uint256",
          "name": "nonce",
          "type": "uint256"
        },
        {
          "internalType": "uint256",
          "name": "expiry",
          "type": "uint256"
        },
        {
          "internalType": "uint8",
          "name": "v",
          "type": "uint8"
        },
        {
          "internalType": "bytes32",
          "name": "r",
          "type": "bytes32"
        },
        {
          "internalType": "bytes32",
          "name": "s",
          "type": "bytes32"
        }
      ],
      "name": "delegateBySig",
      "outputs": [],
      "stateMutability": "nonpayable",
      "type": "function"
    },
    {
      "inputs": [
        {
          "internalType": "address",
          "name": "account",
          "type": "address"
        }
      ],
      "name": "delegates",
      "outputs": [
        {
          "internalType": "address",
          "name": "",
          "type": "address"
        }
      ],
      "stateMutability": "view",
      "type": "function"
    },
    {
      "inputs": [],
      "name": "disableWhitelist",
      "outputs": [],
      "stateMutability": "nonpayable",
      "type": "function"
    },
    {
      "inputs": [],
      "name": "enableWhitelist",
      "outputs": [],
      "stateMutability": "nonpayable",
      "type": "function"
    },
    {
      "inputs": [
        {
          "internalType": "address",
          "name": "account",
          "type": "address"
        }
      ],
      "name": "getCurrentVotes",
      "outputs": [
        {
          "internalType": "uint96",
          "name": "",
          "type": "uint96"
        }
      ],
      "stateMutability": "view",
      "type": "function"
    },
    {
      "inputs": [
        {
          "internalType": "uint256",
          "name": "blockNumber",
          "type": "uint256"
        }
      ],
      "name": "getPastTotalSupply",
      "outputs": [
        {
          "internalType": "uint256",
          "name": "",
          "type": "uint256"
        }
      ],
      "stateMutability": "view",
      "type": "function"
    },
    {
      "inputs": [
        {
          "internalType": "address",
          "name": "account",
          "type": "address"
        },
        {
          "internalType": "uint256",
          "name": "blockNumber",
          "type": "uint256"
        }
      ],
      "name": "getPastVotes",
      "outputs": [
        {
          "internalType": "uint256",
          "name": "",
          "type": "uint256"
        }
      ],
      "stateMutability": "view",
      "type": "function"
    },
    {
      "inputs": [
        {
          "internalType": "address",
          "name": "account",
          "type": "address"
        },
        {
          "internalType": "uint256",
          "name": "blockNumber",
          "type": "uint256"
        }
      ],
      "name": "getPriorVotes",
      "outputs": [
        {
          "internalType": "uint96",
          "name": "",
          "type": "uint96"
        }
      ],
      "stateMutability": "view",
      "type": "function"
    },
    {
      "inputs": [
        {
          "internalType": "address",
          "name": "account",
          "type": "address"
        }
      ],
      "name": "getVotes",
      "outputs": [
        {
          "internalType": "uint256",
          "name": "",
          "type": "uint256"
        }
      ],
      "stateMutability": "view",
      "type": "function"
    },
    {
      "inputs": [
        {
          "internalType": "address",
          "name": "spender",
          "type": "address"
        },
        {
          "internalType": "uint256",
          "name": "addedValue",
          "type": "uint256"
        }
      ],
      "name": "increaseAllowance",
      "outputs": [
        {
          "internalType": "bool",
          "name": "",
          "type": "bool"
        }
      ],
      "stateMutability": "nonpayable",
      "type": "function"
    },
    {
      "inputs": [
        {
          "internalType": "address",
          "name": "_account",
          "type": "address"
        }
      ],
      "name": "isWhitelisted",
      "outputs": [
        {
          "internalType": "bool",
          "name": "",
          "type": "bool"
        }
      ],
      "stateMutability": "view",
      "type": "function"
    },
    {
      "inputs": [],
      "name": "minimumTimeBetweenMints",
      "outputs": [
        {
          "internalType": "uint256",
          "name": "",
          "type": "uint256"
        }
      ],
      "stateMutability": "view",
      "type": "function"
    },
    {
      "inputs": [
        {
          "internalType": "address",
          "name": "dst",
          "type": "address"
        },
        {
          "internalType": "uint256",
          "name": "amount",
          "type": "uint256"
        }
      ],
      "name": "mint",
      "outputs": [
        {
          "internalType": "bool",
          "name": "",
          "type": "bool"
        }
      ],
      "stateMutability": "nonpayable",
      "type": "function"
    },
    {
      "inputs": [],
      "name": "mintCap",
      "outputs": [
        {
          "internalType": "uint256",
          "name": "",
          "type": "uint256"
        }
      ],
      "stateMutability": "view",
      "type": "function"
    },
    {
      "inputs": [],
      "name": "mintingAllowedAfter",
      "outputs": [
        {
          "internalType": "uint256",
          "name": "",
          "type": "uint256"
        }
      ],
      "stateMutability": "view",
      "type": "function"
    },
    {
      "inputs": [],
      "name": "name",
      "outputs": [
        {
          "internalType": "string",
          "name": "",
          "type": "string"
        }
      ],
      "stateMutability": "view",
      "type": "function"
    },
    {
      "inputs": [
        {
          "internalType": "address",
          "name": "owner",
          "type": "address"
        }
      ],
      "name": "nonces",
      "outputs": [
        {
          "internalType": "uint256",
          "name": "",
          "type": "uint256"
        }
      ],
      "stateMutability": "view",
      "type": "function"
    },
    {
      "inputs": [
        {
          "internalType": "address",
          "name": "account",
          "type": "address"
        }
      ],
      "name": "numCheckpoints",
      "outputs": [
        {
          "internalType": "uint32",
          "name": "",
          "type": "uint32"
        }
      ],
      "stateMutability": "view",
      "type": "function"
    },
    {
      "inputs": [],
      "name": "owner",
      "outputs": [
        {
          "internalType": "address",
          "name": "",
          "type": "address"
        }
      ],
      "stateMutability": "view",
      "type": "function"
    },
    {
      "inputs": [
        {
          "internalType": "address",
          "name": "owner",
          "type": "address"
        },
        {
          "internalType": "address",
          "name": "spender",
          "type": "address"
        },
        {
          "internalType": "uint256",
          "name": "value",
          "type": "uint256"
        },
        {
          "internalType": "uint256",
          "name": "deadline",
          "type": "uint256"
        },
        {
          "internalType": "uint8",
          "name": "v",
          "type": "uint8"
        },
        {
          "internalType": "bytes32",
          "name": "r",
          "type": "bytes32"
        },
        {
          "internalType": "bytes32",
          "name": "s",
          "type": "bytes32"
        }
      ],
      "name": "permit",
      "outputs": [],
      "stateMutability": "nonpayable",
      "type": "function"
    },
    {
      "inputs": [],
      "name": "renounceOwnership",
      "outputs": [],
      "stateMutability": "nonpayable",
      "type": "function"
    },
    {
      "inputs": [],
      "name": "symbol",
      "outputs": [
        {
          "internalType": "string",
          "name": "",
          "type": "string"
        }
      ],
      "stateMutability": "view",
      "type": "function"
    },
    {
      "inputs": [],
      "name": "totalSupply",
      "outputs": [
        {
          "internalType": "uint256",
          "name": "",
          "type": "uint256"
        }
      ],
      "stateMutability": "view",
      "type": "function"
    },
    {
      "inputs": [
        {
          "internalType": "address",
          "name": "recipient",
          "type": "address"
        },
        {
          "internalType": "uint256",
          "name": "amount",
          "type": "uint256"
        }
      ],
      "name": "transfer",
      "outputs": [
        {
          "internalType": "bool",
          "name": "",
          "type": "bool"
        }
      ],
      "stateMutability": "nonpayable",
      "type": "function"
    },
    {
      "inputs": [
        {
          "internalType": "address",
          "name": "sender",
          "type": "address"
        },
        {
          "internalType": "address",
          "name": "recipient",
          "type": "address"
        },
        {
          "internalType": "uint256",
          "name": "amount",
          "type": "uint256"
        }
      ],
      "name": "transferFrom",
      "outputs": [
        {
          "internalType": "bool",
          "name": "",
          "type": "bool"
        }
      ],
      "stateMutability": "nonpayable",
      "type": "function"
    },
    {
      "inputs": [
        {
          "internalType": "address",
          "name": "newOwner",
          "type": "address"
        }
      ],
      "name": "transferOwnership",
      "outputs": [],
      "stateMutability": "nonpayable",
      "type": "function"
    },
    {
      "inputs": [
        {
          "internalType": "address",
          "name": "_account",
          "type": "address"
        }
      ],
      "name": "unwhitelist",
      "outputs": [],
      "stateMutability": "nonpayable",
      "type": "function"
    },
    {
      "inputs": [
        {
          "internalType": "address",
          "name": "_account",
          "type": "address"
        }
      ],
      "name": "whitelist",
      "outputs": [],
      "stateMutability": "nonpayable",
      "type": "function"
    },
    {
      "inputs": [],
      "name": "whitelistEnabled",
      "outputs": [
        {
          "internalType": "bool",
          "name": "",
          "type": "bool"
        }
      ],
      "stateMutability": "view",
      "type": "function"
    }
  ],
  "transactionHash": "0x2bcdd0d81ac5b05e70ae134568775047fae2154af8b25cb376f8df9cced88a01",
  "args": [
    "Union Token",
    "UNION",
    "1639032000"
  ],
  "solcInputHash": "580987782891ccc19cc762a3677063a5",
  "bytecode": "0x6101606040527f6e71edae12b1b97f4d1f60370fef10105fa2faae0126114a169c64845d6126c9610140523480156200003757600080fd5b50604051620034fc380380620034fc8339810160408190526200005a9162000bdf565b8280604051806040016040528060018152602001603160f81b815250858581600390805190602001906200009092919062000a90565b508051620000a690600490602084019062000a90565b5050825160208085019190912083518483012060e08290526101008190524660a0818152604080517f8b73c3c69bb8fe3d512ecc4cf759cc79239f7b179b0ffacaa9a75d522b39400f81880181905281830187905260608201869052608082019490945230818401528151808203909301835260c0019052805194019390932091935091906080523060601b60c05261012052506200015593506200014f9250506200020e9050565b62000212565b42811015620001bb5760405162461bcd60e51b815260206004820152602760248201527f6d696e74696e672063616e206f6e6c7920626567696e206166746572206465706044820152661b1bde5b595b9d60ca1b60648201526084015b60405180910390fd5b33600090815260208190526040902054620001e857620001e8336b033b2e3c9fd0803ce800000062000264565b600b8190556009805460ff60a01b191690556200020533620002e6565b50505062000ced565b3390565b600980546001600160a01b038381166001600160a01b0319831681179093556040519116919082907f8be0079c531659141344cd1fd0a4f28419497f9722a3daafe3b4186f6b6457e090600090a35050565b6200027b8282620003d560201b620011db1760201c565b600b54421015620002cf5760405162461bcd60e51b815260206004820152601760248201527f6d696e74696e67206e6f7420616c6c6f776564207965740000000000000000006044820152606401620001b2565b620002df426301e1338062000c4f565b600b555050565b6009546001600160a01b03163314620003425760405162461bcd60e51b815260206004820181905260248201527f4f776e61626c653a2063616c6c6572206973206e6f7420746865206f776e65726044820152606401620001b2565b6001600160a01b038116620003895760405162461bcd60e51b8152600401808060200182810382526026815260200180620034b66026913960400191505060405180910390fd5b6001600160a01b0381166000818152600a6020526040808220805460ff19166001179055517faab7954e9d246b167ef88aeddad35209ca2489d95a8aeb59e288d9b19fae5a549190a250565b620003ec82826200048660201b6200126b1760201c565b6001600160601b03620003fe60025490565b1115620004675760405162461bcd60e51b815260206004820152603060248201527f4552433230566f7465733a20746f74616c20737570706c79207269736b73206f60448201526f766572666c6f77696e6720766f74657360801b6064820152608401620001b2565b620004806008620013506200058760201b17836200059c565b50505050565b6001600160a01b038216620004de5760405162461bcd60e51b815260206004820152601f60248201527f45524332303a206d696e7420746f20746865207a65726f2061646472657373006044820152606401620001b2565b620004ec6000838362000772565b806002600082825462000500919062000c4f565b90915550506001600160a01b038216600090815260208190526040812080548392906200052f90849062000c4f565b90915550506040518181526001600160a01b038316906000907fddf252ad1be2c89b69c2b068fc378daa952ba7f163c4a11628f55a4df523b3ef9060200160405180910390a3620005836000838362000825565b5050565b600062000595828462000c4f565b9392505050565b825460009081908015620005fa5785620005b860018362000c6a565b81548110620005d757634e487b7160e01b600052603260045260246000fd5b60009182526020909120015464010000000090046001600160e01b0316620005fd565b60005b6001600160e01b031692506200061483858760201c565b915060008111801562000664575043866200063160018462000c6a565b815481106200065057634e487b7160e01b600052603260045260246000fd5b60009182526020909120015463ffffffff16145b15620006e45762000680826200083d60201b6200135c1760201c565b866200068e60018462000c6a565b81548110620006ad57634e487b7160e01b600052603260045260246000fd5b9060005260206000200160000160046101000a8154816001600160e01b0302191690836001600160e01b0316021790555062000769565b8560405180604001604052806200070643620008ac60201b620013c91760201c565b63ffffffff16815260200162000727856200083d60201b6200135c1760201c565b6001600160e01b0390811690915282546001810184556000938452602093849020835194909301519091166401000000000263ffffffff909316929092179101555b50935093915050565b6200078a8383836200082060201b62000a111760201c565b600954600160a01b900460ff16156200082057336000908152600a602052604090205460ff1680620007c357506001600160a01b038216155b620008205760405162461bcd60e51b815260206004820152602660248201527f57686974656c69737461626c653a2061646472657373206e6f742077686974656044820152651b1a5cdd195960d21b6064820152608401620001b2565b505050565b620008208383836200091360201b6200142e1760201c565b60006001600160e01b03821115620008a85760405162461bcd60e51b815260206004820152602760248201527f53616665436173743a2076616c756520646f65736e27742066697420696e20326044820152663234206269747360c81b6064820152608401620001b2565b5090565b600063ffffffff821115620008a85760405162461bcd60e51b815260206004820152602660248201527f53616665436173743a2076616c756520646f65736e27742066697420696e203360448201526532206269747360d01b6064820152608401620001b2565b6200092b8383836200082060201b62000a111760201c565b6001600160a01b0383811660009081526006602052604080822054858416835291205462000820929182169116838183148015906200096a5750600081115b1562000820576001600160a01b03831615620009f7576001600160a01b038316600090815260076020908152604082208291620009b4919062000a82901b6200144917856200059c565b91509150846001600160a01b0316600080516020620034dc8339815191528383604051620009ec929190918252602082015260400190565b60405180910390a250505b6001600160a01b0382161562000820576001600160a01b03821660009081526007602090815260408220829162000a3b919062000587901b6200135017856200059c565b91509150836001600160a01b0316600080516020620034dc833981519152838360405162000a73929190918252602082015260400190565b60405180910390a25050505050565b600062000595828462000c6a565b82805462000a9e9062000c84565b90600052602060002090601f01602090048101928262000ac2576000855562000b0d565b82601f1062000add57805160ff191683800117855562000b0d565b8280016001018555821562000b0d579182015b8281111562000b0d57825182559160200191906001019062000af0565b50620008a89291505b80821115620008a8576000815560010162000b16565b600082601f83011262000b3d578081fd5b81516001600160401b038082111562000b5a5762000b5a62000cd7565b604051601f8301601f19908116603f0116810190828211818310171562000b855762000b8562000cd7565b8160405283815260209250868385880101111562000ba1578485fd5b8491505b8382101562000bc4578582018301518183018401529082019062000ba5565b8382111562000bd557848385830101525b9695505050505050565b60008060006060848603121562000bf4578283fd5b83516001600160401b038082111562000c0b578485fd5b62000c198783880162000b2c565b9450602086015191508082111562000c2f578384fd5b5062000c3e8682870162000b2c565b925050604084015190509250925092565b6000821982111562000c655762000c6562000cc1565b500190565b60008282101562000c7f5762000c7f62000cc1565b500390565b600181811c9082168062000c9957607f821691505b6020821081141562000cbb57634e487b7160e01b600052602260045260246000fd5b50919050565b634e487b7160e01b600052601160045260246000fd5b634e487b7160e01b600052604160045260246000fd5b60805160a05160c05160601c60e05161010051610120516101405161276b62000d4b6000396000610f36015260006117d00152600061181f015260006117fa015260006117530152600061177d015260006117a7015261276b6000f3fe608060405234801561001057600080fd5b50600436106102695760003560e01c806376c71ca111610151578063a9059cbb116100c3578063d6b0f48411610087578063d6b0f4841461058e578063dd62ed3e14610596578063e7a324dc146105cf578063f1127ed8146105f6578063f2fde38b14610633578063f557d6571461064657600080fd5b8063a9059cbb1461053a578063b4b5ea571461054d578063c3cda52014610560578063cdfb2b4e14610573578063d505accf1461057b57600080fd5b80638e539e8c116101155780638e539e8c146104d357806395d89b41146104e65780639a590427146104ee5780639ab24eb0146105015780639b19251a14610514578063a457c2d71461052757600080fd5b806376c71ca114610472578063782d6fe11461047a57806379cc6790146104a55780637ecebe00146104b85780638da5cb5b146104cb57600080fd5b80633a46b1a8116101ea578063587cde1e116101ae578063587cde1e146103d05780635c11d62f146103fb5780635c19a95c146104065780636fcfff451461041957806370a0823114610441578063715018a61461046a57600080fd5b80633a46b1a8146103555780633af32abf1461036857806340c10f191461039457806342966c68146103a757806351fb012d146103bc57600080fd5b806330adf81f1161023157806330adf81f146102fb57806330b36cef14610322578063313ce5671461032b5780633644e5151461033a578063395093511461034257600080fd5b806306fdde031461026e578063095ea7b31461028c57806318160ddd146102af57806320606b70146102c157806323b872dd146102e8575b600080fd5b610276610659565b6040516102839190612577565b60405180910390f35b61029f61029a3660046124a1565b6106eb565b6040519015158152602001610283565b6002545b604051908152602001610283565b6102b37f8cad95687ba82c2ce50e74f7b754645e5117c3a5bec8151c0726d5857980a86681565b61029f6102f63660046123fd565b610701565b6102b37f6e71edae12b1b97f4d1f60370fef10105fa2faae0126114a169c64845d6126c981565b6102b3600b5481565b60405160128152602001610283565b6102b36107b0565b61029f6103503660046124a1565b6107bf565b6102b36103633660046124a1565b6107fb565b61029f6103763660046123b1565b6001600160a01b03166000908152600a602052604090205460ff1690565b61029f6103a23660046124a1565b610845565b6103ba6103b536600461255f565b6108e4565b005b60095461029f90600160a01b900460ff1681565b6103e36103de3660046123b1565b6108f1565b6040516001600160a01b039091168152602001610283565b6102b36301e1338081565b6103ba6104143660046123b1565b61090f565b61042c6104273660046123b1565b610919565b60405163ffffffff9091168152602001610283565b6102b361044f3660046123b1565b6001600160a01b031660009081526020819052604090205490565b6103ba610941565b6102b3600481565b61048d6104883660046124a1565b61097c565b6040516001600160601b039091168152602001610283565b6103ba6104b33660046124a1565b610990565b6102b36104c63660046123b1565b610a16565b6103e3610a34565b6102b36104e136600461255f565b610a43565b610276610a6f565b6103ba6104fc3660046123b1565b610a7e565b6102b361050f3660046123b1565b610b3b565b6103ba6105223660046123b1565b610bcf565b61029f6105353660046124a1565b610c8f565b61029f6105483660046124a1565b610d28565b61048d61055b3660046123b1565b610d35565b6103ba61056e3660046124ca565b610d43565b6103ba610e75565b6103ba610589366004612438565b610ee2565b6103ba611046565b6102b36105a43660046123cb565b6001600160a01b03918216600090815260016020908152604080832093909416825291909152205490565b6102b37fe48329057bfd03d55e49b547132e39cffd9c1820ad7b9d4c5307691425d15adf81565b610609610604366004612521565b6110ad565b60408051825163ffffffff1681526020928301516001600160e01b03169281019290925201610283565b6103ba6106413660046123b1565b61113e565b6102b36b033b2e3c9fd0803ce800000081565b606060038054610668906126a4565b80601f0160208091040260200160405190810160405280929190818152602001828054610694906126a4565b80156106e15780601f106106b6576101008083540402835291602001916106e1565b820191906000526020600020905b8154815290600101906020018083116106c457829003601f168201915b5050505050905090565b60006106f8338484611455565b50600192915050565b600061070e848484611579565b6001600160a01b0384166000908152600160209081526040808320338452909152902054828110156107985760405162461bcd60e51b815260206004820152602860248201527f45524332303a207472616e7366657220616d6f756e74206578636565647320616044820152676c6c6f77616e636560c01b60648201526084015b60405180910390fd5b6107a58533858403611455565b506001949350505050565b60006107ba611746565b905090565b3360008181526001602090815260408083206001600160a01b038716845290915281205490916106f89185906107f6908690612636565b611455565b600043821061081c5760405162461bcd60e51b815260040161078f906125ca565b6001600160a01b038316600090815260076020526040902061083e908361186d565b9392505050565b600033610850610a34565b6001600160a01b0316146108765760405162461bcd60e51b815260040161078f90612601565b6064600461088360025490565b61088d919061266e565b610897919061264e565b8211156108da5760405162461bcd60e51b815260206004820152601160248201527006578636565646564206d696e742063617607c1b604482015260640161078f565b6106f88383611945565b6108ee33826119b0565b50565b6001600160a01b039081166000908152600660205260409020541690565b6108ee33826119ba565b6001600160a01b03811660009081526007602052604081205461093b906113c9565b92915050565b3361094a610a34565b6001600160a01b0316146109705760405162461bcd60e51b815260040161078f90612601565b61097a6000611a50565b565b600061083e61098b84846107fb565b611aa2565b600061099c83336105a4565b9050818110156109fa5760405162461bcd60e51b8152602060048201526024808201527f45524332303a206275726e20616d6f756e74206578636565647320616c6c6f77604482015263616e636560e01b606482015260840161078f565b610a078333848403611455565b610a1183836119b0565b505050565b6001600160a01b03811660009081526005602052604081205461093b565b6009546001600160a01b031690565b6000438210610a645760405162461bcd60e51b815260040161078f906125ca565b61093b60088361186d565b606060048054610668906126a4565b33610a87610a34565b6001600160a01b031614610aad5760405162461bcd60e51b815260040161078f90612601565b6001600160a01b038116610af25760405162461bcd60e51b81526004018080602001828103825260268152602001806126f06026913960400191505060405180910390fd5b6001600160a01b0381166000818152600a6020526040808220805460ff19169055517f51085ddf9ebdded84b76e829eb58c4078e4b5bdf97d9a94723f336039da467919190a250565b6001600160a01b0381166000908152600760205260408120548015610bbc576001600160a01b0383166000908152600760205260409020610b7d60018361268d565b81548110610b9b57634e487b7160e01b600052603260045260246000fd5b600091825260209091200154600160201b90046001600160e01b0316610bbf565b60005b6001600160e01b03169392505050565b33610bd8610a34565b6001600160a01b031614610bfe5760405162461bcd60e51b815260040161078f90612601565b6001600160a01b038116610c435760405162461bcd60e51b81526004018080602001828103825260268152602001806126f06026913960400191505060405180910390fd5b6001600160a01b0381166000818152600a6020526040808220805460ff19166001179055517faab7954e9d246b167ef88aeddad35209ca2489d95a8aeb59e288d9b19fae5a549190a250565b3360009081526001602090815260408083206001600160a01b038616845290915281205482811015610d115760405162461bcd60e51b815260206004820152602560248201527f45524332303a2064656372656173656420616c6c6f77616e63652062656c6f77604482015264207a65726f60d81b606482015260840161078f565b610d1e3385858403611455565b5060019392505050565b60006106f8338484611579565b600061093b61098b83610b3b565b83421115610d935760405162461bcd60e51b815260206004820152601d60248201527f4552433230566f7465733a207369676e61747572652065787069726564000000604482015260640161078f565b604080517fe48329057bfd03d55e49b547132e39cffd9c1820ad7b9d4c5307691425d15adf60208201526001600160a01b038816918101919091526060810186905260808101859052600090610e0d90610e059060a00160405160208183030381529060405280519060200120611b0a565b858585611b58565b9050610e1881611b80565b8614610e625760405162461bcd60e51b81526020600482015260196024820152784552433230566f7465733a20696e76616c6964206e6f6e636560381b604482015260640161078f565b610e6c81886119ba565b50505050505050565b33610e7e610a34565b6001600160a01b031614610ea45760405162461bcd60e51b815260040161078f90612601565b6009805460ff60a01b1916600160a01b1790556040517fe5e5846f783279948f6ec5faad38318cde86fe5be7ea845ede56d62f16c3743490600090a1565b83421115610f325760405162461bcd60e51b815260206004820152601d60248201527f45524332305065726d69743a206578706972656420646561646c696e65000000604482015260640161078f565b60007f0000000000000000000000000000000000000000000000000000000000000000888888610f618c611b80565b6040805160208101969096526001600160a01b0394851690860152929091166060840152608083015260a082015260c0810186905260e0016040516020818303038152906040528051906020012090506000610fbc82611b0a565b90506000610fcc82878787611b58565b9050896001600160a01b0316816001600160a01b03161461102f5760405162461bcd60e51b815260206004820152601e60248201527f45524332305065726d69743a20696e76616c6964207369676e61747572650000604482015260640161078f565b61103a8a8a8a611455565b50505050505050505050565b3361104f610a34565b6001600160a01b0316146110755760405162461bcd60e51b815260040161078f90612601565b6009805460ff60a01b191690556040517f212c6e1d3045c9581ef0adf2504dbb1d137f52f38162ccf77a16c69d14eba5c390600090a1565b60408051808201909152600080825260208201526001600160a01b0383166000908152600760205260409020805463ffffffff84169081106110ff57634e487b7160e01b600052603260045260246000fd5b60009182526020918290206040805180820190915291015463ffffffff81168252600160201b90046001600160e01b0316918101919091529392505050565b33611147610a34565b6001600160a01b03161461116d5760405162461bcd60e51b815260040161078f90612601565b6001600160a01b0381166111d25760405162461bcd60e51b815260206004820152602660248201527f4f776e61626c653a206e6577206f776e657220697320746865207a65726f206160448201526564647265737360d01b606482015260840161078f565b6108ee81611a50565b6111e5828261126b565b6002546001600160601b0310156112575760405162461bcd60e51b815260206004820152603060248201527f4552433230566f7465733a20746f74616c20737570706c79207269736b73206f60448201526f766572666c6f77696e6720766f74657360801b606482015260840161078f565b611265600861135083611ba8565b50505050565b6001600160a01b0382166112c15760405162461bcd60e51b815260206004820152601f60248201527f45524332303a206d696e7420746f20746865207a65726f206164647265737300604482015260640161078f565b6112cd60008383611d49565b80600260008282546112df9190612636565b90915550506001600160a01b0382166000908152602081905260408120805483929061130c908490612636565b90915550506040518181526001600160a01b038316906000906000805160206127168339815191529060200160405180910390a361134c60008383611ddb565b5050565b600061083e8284612636565b60006001600160e01b038211156113c55760405162461bcd60e51b815260206004820152602760248201527f53616665436173743a2076616c756520646f65736e27742066697420696e20326044820152663234206269747360c81b606482015260840161078f565b5090565b600063ffffffff8211156113c55760405162461bcd60e51b815260206004820152602660248201527f53616665436173743a2076616c756520646f65736e27742066697420696e203360448201526532206269747360d01b606482015260840161078f565b610a1161143a846108f1565b611443846108f1565b83611de6565b600061083e828461268d565b6001600160a01b0383166114b75760405162461bcd60e51b8152602060048201526024808201527f45524332303a20617070726f76652066726f6d20746865207a65726f206164646044820152637265737360e01b606482015260840161078f565b6001600160a01b0382166115185760405162461bcd60e51b815260206004820152602260248201527f45524332303a20617070726f766520746f20746865207a65726f206164647265604482015261737360f01b606482015260840161078f565b6001600160a01b0383811660008181526001602090815260408083209487168084529482529182902085905590518481527f8c5be1e5ebec7d5bd14f71427d1e84f3dd0314c0f7b2291e5b200ac8c7c3b925910160405180910390a3505050565b6001600160a01b0383166115dd5760405162461bcd60e51b815260206004820152602560248201527f45524332303a207472616e736665722066726f6d20746865207a65726f206164604482015264647265737360d81b606482015260840161078f565b6001600160a01b03821661163f5760405162461bcd60e51b815260206004820152602360248201527f45524332303a207472616e7366657220746f20746865207a65726f206164647260448201526265737360e81b606482015260840161078f565b61164a838383611d49565b6001600160a01b038316600090815260208190526040902054818110156116c25760405162461bcd60e51b815260206004820152602660248201527f45524332303a207472616e7366657220616d6f756e7420657863656564732062604482015265616c616e636560d01b606482015260840161078f565b6001600160a01b038085166000908152602081905260408082208585039055918516815290812080548492906116f9908490612636565b92505081905550826001600160a01b0316846001600160a01b03166000805160206127168339815191528460405161173391815260200190565b60405180910390a3611265848484611ddb565b6000306001600160a01b037f00000000000000000000000000000000000000000000000000000000000000001614801561179f57507f000000000000000000000000000000000000000000000000000000000000000046145b156117c957507f000000000000000000000000000000000000000000000000000000000000000090565b50604080517f00000000000000000000000000000000000000000000000000000000000000006020808301919091527f0000000000000000000000000000000000000000000000000000000000000000828401527f000000000000000000000000000000000000000000000000000000000000000060608301524660808301523060a0808401919091528351808403909101815260c0909201909252805191012090565b8154600090815b818110156118df5760006118888284611f23565b9050848682815481106118ab57634e487b7160e01b600052603260045260246000fd5b60009182526020909120015463ffffffff1611156118cb578092506118d9565b6118d6816001612636565b91505b50611874565b811561193057846118f160018461268d565b8154811061190f57634e487b7160e01b600052603260045260246000fd5b600091825260209091200154600160201b90046001600160e01b0316611933565b60005b6001600160e01b031695945050505050565b61194f82826111db565b600b5442101561199b5760405162461bcd60e51b81526020600482015260176024820152761b5a5b9d1a5b99c81b9bdd08185b1b1bddd959081e595d604a1b604482015260640161078f565b6119a9426301e13380612636565b600b555050565b61134c8282611f3e565b60006119c5836108f1565b905060006119e8846001600160a01b031660009081526020819052604090205490565b6001600160a01b0385811660008181526006602052604080822080546001600160a01b031916898616908117909155905194955093928616927f3134e8a2e6d97e929a7e54011ea5485d7d196dd5f0ba4d4ef95803e8e3fc257f9190a4611265828483611de6565b600980546001600160a01b038381166001600160a01b0319831681179093556040519116919082907f8be0079c531659141344cd1fd0a4f28419497f9722a3daafe3b4186f6b6457e090600090a35050565b60006001600160601b038211156113c55760405162461bcd60e51b815260206004820152602660248201527f53616665436173743a2076616c756520646f65736e27742066697420696e203960448201526536206269747360d01b606482015260840161078f565b600061093b611b17611746565b8360405161190160f01b6020820152602281018390526042810182905260009060620160405160208183030381529060405280519060200120905092915050565b6000806000611b6987878787611f56565b91509150611b7681612039565b5095945050505050565b6001600160a01b03811660009081526005602052604090208054600181018255905b50919050565b825460009081908015611c005785611bc160018361268d565b81548110611bdf57634e487b7160e01b600052603260045260246000fd5b600091825260209091200154600160201b90046001600160e01b0316611c03565b60005b6001600160e01b03169250611c1c83858763ffffffff16565b9150600081118015611c6857504386611c3660018461268d565b81548110611c5457634e487b7160e01b600052603260045260246000fd5b60009182526020909120015463ffffffff16145b15611cd657611c768261135c565b86611c8260018461268d565b81548110611ca057634e487b7160e01b600052603260045260246000fd5b9060005260206000200160000160046101000a8154816001600160e01b0302191690836001600160e01b03160217905550611d40565b856040518060400160405280611ceb436113c9565b63ffffffff168152602001611cff8561135c565b6001600160e01b039081169091528254600181018455600093845260209384902083519490930151909116600160201b0263ffffffff909316929092179101555b50935093915050565b600954600160a01b900460ff1615610a1157336000908152600a602052604090205460ff1680611d8057506001600160a01b038216155b610a115760405162461bcd60e51b815260206004820152602660248201527f57686974656c69737461626c653a2061646472657373206e6f742077686974656044820152651b1a5cdd195960d21b606482015260840161078f565b610a1183838361142e565b816001600160a01b0316836001600160a01b031614158015611e085750600081115b15610a11576001600160a01b03831615611e96576001600160a01b03831660009081526007602052604081208190611e439061144985611ba8565b91509150846001600160a01b03167fdec2bacdd2f05b59de34da9b523dff8be42e5e38e818c82fdb0bae774387a7248383604051611e8b929190918252602082015260400190565b60405180910390a250505b6001600160a01b03821615610a11576001600160a01b03821660009081526007602052604081208190611ecc9061135085611ba8565b91509150836001600160a01b03167fdec2bacdd2f05b59de34da9b523dff8be42e5e38e818c82fdb0bae774387a7248383604051611f14929190918252602082015260400190565b60405180910390a25050505050565b6000611f32600284841861264e565b61083e90848416612636565b611f488282612235565b611265600861144983611ba8565b6000806fa2a8918ca85bafe22016d0b997e4df60600160ff1b03831115611f835750600090506003612030565b8460ff16601b14158015611f9b57508460ff16601c14155b15611fac5750600090506004612030565b6040805160008082526020820180845289905260ff881692820192909252606081018690526080810185905260019060a0016020604051602081039080840390855afa158015612000573d6000803e3d6000fd5b5050604051601f1901519150506001600160a01b03811661202957600060019250925050612030565b9150600090505b94509492505050565b600081600481111561205b57634e487b7160e01b600052602160045260246000fd5b14156120645750565b600181600481111561208657634e487b7160e01b600052602160045260246000fd5b14156120cf5760405162461bcd60e51b815260206004820152601860248201527745434453413a20696e76616c6964207369676e617475726560401b604482015260640161078f565b60028160048111156120f157634e487b7160e01b600052602160045260246000fd5b141561213f5760405162461bcd60e51b815260206004820152601f60248201527f45434453413a20696e76616c6964207369676e6174757265206c656e67746800604482015260640161078f565b600381600481111561216157634e487b7160e01b600052602160045260246000fd5b14156121ba5760405162461bcd60e51b815260206004820152602260248201527f45434453413a20696e76616c6964207369676e6174757265202773272076616c604482015261756560f01b606482015260840161078f565b60048160048111156121dc57634e487b7160e01b600052602160045260246000fd5b14156108ee5760405162461bcd60e51b815260206004820152602260248201527f45434453413a20696e76616c6964207369676e6174757265202776272076616c604482015261756560f01b606482015260840161078f565b6001600160a01b0382166122955760405162461bcd60e51b815260206004820152602160248201527f45524332303a206275726e2066726f6d20746865207a65726f206164647265736044820152607360f81b606482015260840161078f565b6122a182600083611d49565b6001600160a01b038216600090815260208190526040902054818110156123155760405162461bcd60e51b815260206004820152602260248201527f45524332303a206275726e20616d6f756e7420657863656564732062616c616e604482015261636560f01b606482015260840161078f565b6001600160a01b038316600090815260208190526040812083830390556002805484929061234490849061268d565b90915550506040518281526000906001600160a01b038516906000805160206127168339815191529060200160405180910390a3610a1183600084611ddb565b80356001600160a01b038116811461239b57600080fd5b919050565b803560ff8116811461239b57600080fd5b6000602082840312156123c2578081fd5b61083e82612384565b600080604083850312156123dd578081fd5b6123e683612384565b91506123f460208401612384565b90509250929050565b600080600060608486031215612411578081fd5b61241a84612384565b925061242860208501612384565b9150604084013590509250925092565b600080600080600080600060e0888a031215612452578283fd5b61245b88612384565b965061246960208901612384565b95506040880135945060608801359350612485608089016123a0565b925060a0880135915060c0880135905092959891949750929550565b600080604083850312156124b3578182fd5b6124bc83612384565b946020939093013593505050565b60008060008060008060c087890312156124e2578182fd5b6124eb87612384565b95506020870135945060408701359350612507606088016123a0565b92506080870135915060a087013590509295509295509295565b60008060408385031215612533578182fd5b61253c83612384565b9150602083013563ffffffff81168114612554578182fd5b809150509250929050565b600060208284031215612570578081fd5b5035919050565b6000602080835283518082850152825b818110156125a357858101830151858201604001528201612587565b818111156125b45783604083870101525b50601f01601f1916929092016040019392505050565b6020808252601f908201527f4552433230566f7465733a20626c6f636b206e6f7420796574206d696e656400604082015260600190565b6020808252818101527f4f776e61626c653a2063616c6c6572206973206e6f7420746865206f776e6572604082015260600190565b60008219821115612649576126496126d9565b500190565b60008261266957634e487b7160e01b81526012600452602481fd5b500490565b6000816000190483118215151615612688576126886126d9565b500290565b60008282101561269f5761269f6126d9565b500390565b600181811c908216806126b857607f821691505b60208210811415611ba257634e487b7160e01b600052602260045260246000fd5b634e487b7160e01b600052601160045260246000fdfe57686974656c69737461626c653a206163636f756e742063616e206e6f74206265207a65726fddf252ad1be2c89b69c2b068fc378daa952ba7f163c4a11628f55a4df523b3efa2646970667358221220c8b76baee3e2f7e80b80af7c23905d843bf9c2bd07dfcda3c1700c80eaf7460a64736f6c6343000804003357686974656c69737461626c653a206163636f756e742063616e206e6f74206265207a65726fdec2bacdd2f05b59de34da9b523dff8be42e5e38e818c82fdb0bae774387a724",
  "devdoc": {
    "details": "Mint and distribute UnionTokens.",
    "kind": "dev",
    "methods": {
      "DOMAIN_SEPARATOR()": {
        "details": "See {IERC20Permit-DOMAIN_SEPARATOR}."
      },
      "allowance(address,address)": {
        "details": "See {IERC20-allowance}."
      },
      "approve(address,uint256)": {
        "details": "See {IERC20-approve}. Requirements: - `spender` cannot be the zero address."
      },
      "balanceOf(address)": {
        "details": "See {IERC20-balanceOf}."
      },
      "burn(uint256)": {
        "details": "Destroys `amount` tokens from the caller. See {ERC20-_burn}."
      },
      "burnFrom(address,uint256)": {
        "details": "Destroys `amount` tokens from `account`, deducting from the caller's allowance. See {ERC20-_burn} and {ERC20-allowance}. Requirements: - the caller must have allowance for ``accounts``'s tokens of at least `amount`."
      },
      "checkpoints(address,uint32)": {
        "details": "Get the `pos`-th checkpoint for `account`."
      },
      "decimals()": {
        "details": "Returns the number of decimals used to get its user representation. For example, if `decimals` equals `2`, a balance of `505` tokens should be displayed to a user as `5.05` (`505 / 10 ** 2`). Tokens usually opt for a value of 18, imitating the relationship between Ether and Wei. This is the value {ERC20} uses, unless this function is overridden; NOTE: This information is only used for _display_ purposes: it in no way affects any of the arithmetic of the contract, including {IERC20-balanceOf} and {IERC20-transfer}."
      },
      "decreaseAllowance(address,uint256)": {
        "details": "Atomically decreases the allowance granted to `spender` by the caller. This is an alternative to {approve} that can be used as a mitigation for problems described in {IERC20-approve}. Emits an {Approval} event indicating the updated allowance. Requirements: - `spender` cannot be the zero address. - `spender` must have allowance for the caller of at least `subtractedValue`."
      },
      "delegate(address)": {
        "details": "Delegate votes from the sender to `delegatee`."
      },
      "delegateBySig(address,uint256,uint256,uint8,bytes32,bytes32)": {
        "details": "Delegates votes from signer to `delegatee`"
      },
      "delegates(address)": {
        "details": "Get the address `account` is currently delegating to."
      },
      "getCurrentVotes(address)": {
        "details": "Comp version of the {getVotes} accessor, with `uint96` return type."
      },
      "getPastTotalSupply(uint256)": {
        "details": "Retrieve the `totalSupply` at the end of `blockNumber`. Note, this value is the sum of all balances. It is but NOT the sum of all the delegated votes! Requirements: - `blockNumber` must have been already mined"
      },
      "getPastVotes(address,uint256)": {
        "details": "Retrieve the number of votes for `account` at the end of `blockNumber`. Requirements: - `blockNumber` must have been already mined"
      },
      "getPriorVotes(address,uint256)": {
        "details": "Comp version of the {getPastVotes} accessor, with `uint96` return type."
      },
      "getVotes(address)": {
        "details": "Gets the current votes balance for `account`"
      },
      "increaseAllowance(address,uint256)": {
        "details": "Atomically increases the allowance granted to `spender` by the caller. This is an alternative to {approve} that can be used as a mitigation for problems described in {IERC20-approve}. Emits an {Approval} event indicating the updated allowance. Requirements: - `spender` cannot be the zero address."
      },
      "isWhitelisted(address)": {
        "details": "Checks if account is whitelisted",
        "params": {
          "_account": "The address to check"
        }
      },
      "name()": {
        "details": "Returns the name of the token."
      },
      "nonces(address)": {
        "details": "See {IERC20Permit-nonces}."
      },
      "numCheckpoints(address)": {
        "details": "Get number of checkpoints for `account`."
      },
      "owner()": {
        "details": "Returns the address of the current owner."
      },
      "permit(address,address,uint256,uint256,uint8,bytes32,bytes32)": {
        "details": "See {IERC20Permit-permit}."
      },
      "renounceOwnership()": {
        "details": "Leaves the contract without owner. It will not be possible to call `onlyOwner` functions anymore. Can only be called by the current owner. NOTE: Renouncing ownership will leave the contract without an owner, thereby removing any functionality that is only available to the owner."
      },
      "symbol()": {
        "details": "Returns the symbol of the token, usually a shorter version of the name."
      },
      "totalSupply()": {
        "details": "See {IERC20-totalSupply}."
      },
      "transfer(address,uint256)": {
        "details": "See {IERC20-transfer}. Requirements: - `recipient` cannot be the zero address. - the caller must have a balance of at least `amount`."
      },
      "transferFrom(address,address,uint256)": {
        "details": "See {IERC20-transferFrom}. Emits an {Approval} event indicating the updated allowance. This is not required by the EIP. See the note at the beginning of {ERC20}. Requirements: - `sender` and `recipient` cannot be the zero address. - `sender` must have a balance of at least `amount`. - the caller must have allowance for ``sender``'s tokens of at least `amount`."
      },
      "transferOwnership(address)": {
        "details": "Transfers ownership of the contract to a new account (`newOwner`). Can only be called by the current owner."
      },
      "unwhitelist(address)": {
        "details": "Removes account from whitelist",
        "params": {
          "_account": "The address to remove from the whitelist"
        }
      },
      "whitelist(address)": {
        "details": "Adds account to whitelist",
        "params": {
          "_account": "The address to whitelist"
        }
      }
    },
    "title": "UnionToken Contract",
    "version": 1
  },
  "userdoc": {
    "kind": "user",
    "methods": {
      "disableWhitelist()": {
        "notice": "disable whitelist and allow transfers for everyone"
      },
      "enableWhitelist()": {
        "notice": "enable whitelist and only allow transfers from whitelisted addresses"
      },
      "minimumTimeBetweenMints()": {
        "notice": "Minimum time between mints"
      },
      "mintCap()": {
        "notice": "Cap on the percentage of totalSupply that can be minted at each mint"
      },
      "mintingAllowedAfter()": {
        "notice": "The timestamp after which minting may occur"
      }
    },
    "version": 1
  },
  "storageLayout": {
    "storage": [
      {
        "astId": 7570,
        "contract": "contracts/token/UnionToken.sol:UnionToken",
        "label": "_balances",
        "offset": 0,
        "slot": "0",
        "type": "t_mapping(t_address,t_uint256)"
      },
      {
        "astId": 7576,
        "contract": "contracts/token/UnionToken.sol:UnionToken",
        "label": "_allowances",
        "offset": 0,
        "slot": "1",
        "type": "t_mapping(t_address,t_mapping(t_address,t_uint256))"
      },
      {
        "astId": 7578,
        "contract": "contracts/token/UnionToken.sol:UnionToken",
        "label": "_totalSupply",
        "offset": 0,
        "slot": "2",
        "type": "t_uint256"
      },
      {
        "astId": 7580,
        "contract": "contracts/token/UnionToken.sol:UnionToken",
        "label": "_name",
        "offset": 0,
        "slot": "3",
        "type": "t_string_storage"
      },
      {
        "astId": 7582,
        "contract": "contracts/token/UnionToken.sol:UnionToken",
        "label": "_symbol",
        "offset": 0,
        "slot": "4",
        "type": "t_string_storage"
      },
      {
        "astId": 8990,
        "contract": "contracts/token/UnionToken.sol:UnionToken",
        "label": "_nonces",
        "offset": 0,
        "slot": "5",
        "type": "t_mapping(t_address,t_struct(Counter)9721_storage)"
      },
      {
        "astId": 8263,
        "contract": "contracts/token/UnionToken.sol:UnionToken",
        "label": "_delegates",
        "offset": 0,
        "slot": "6",
        "type": "t_mapping(t_address,t_address)"
      },
      {
        "astId": 8269,
        "contract": "contracts/token/UnionToken.sol:UnionToken",
        "label": "_checkpoints",
        "offset": 0,
        "slot": "7",
        "type": "t_mapping(t_address,t_array(t_struct(Checkpoint)8254_storage)dyn_storage)"
      },
      {
        "astId": 8273,
        "contract": "contracts/token/UnionToken.sol:UnionToken",
        "label": "_totalSupplyCheckpoints",
        "offset": 0,
        "slot": "8",
        "type": "t_array(t_struct(Checkpoint)8254_storage)dyn_storage"
      },
      {
        "astId": 3778,
        "contract": "contracts/token/UnionToken.sol:UnionToken",
        "label": "_owner",
        "offset": 0,
        "slot": "9",
        "type": "t_address"
      },
      {
        "astId": 22659,
        "contract": "contracts/token/UnionToken.sol:UnionToken",
        "label": "whitelistEnabled",
        "offset": 20,
        "slot": "9",
        "type": "t_bool"
      },
      {
        "astId": 22663,
        "contract": "contracts/token/UnionToken.sol:UnionToken",
        "label": "_whitelisted",
        "offset": 0,
        "slot": "10",
        "type": "t_mapping(t_address,t_bool)"
      },
      {
        "astId": 22446,
        "contract": "contracts/token/UnionToken.sol:UnionToken",
        "label": "mintingAllowedAfter",
        "offset": 0,
        "slot": "11",
        "type": "t_uint256"
      }
    ],
    "types": {
      "t_address": {
        "encoding": "inplace",
        "label": "address",
        "numberOfBytes": "20"
      },
      "t_array(t_struct(Checkpoint)8254_storage)dyn_storage": {
        "base": "t_struct(Checkpoint)8254_storage",
        "encoding": "dynamic_array",
        "label": "struct ERC20Votes.Checkpoint[]",
        "numberOfBytes": "32"
      },
      "t_bool": {
        "encoding": "inplace",
        "label": "bool",
        "numberOfBytes": "1"
      },
      "t_mapping(t_address,t_address)": {
        "encoding": "mapping",
        "key": "t_address",
        "label": "mapping(address => address)",
        "numberOfBytes": "32",
        "value": "t_address"
      },
      "t_mapping(t_address,t_array(t_struct(Checkpoint)8254_storage)dyn_storage)": {
        "encoding": "mapping",
        "key": "t_address",
        "label": "mapping(address => struct ERC20Votes.Checkpoint[])",
        "numberOfBytes": "32",
        "value": "t_array(t_struct(Checkpoint)8254_storage)dyn_storage"
      },
      "t_mapping(t_address,t_bool)": {
        "encoding": "mapping",
        "key": "t_address",
        "label": "mapping(address => bool)",
        "numberOfBytes": "32",
        "value": "t_bool"
      },
      "t_mapping(t_address,t_mapping(t_address,t_uint256))": {
        "encoding": "mapping",
        "key": "t_address",
        "label": "mapping(address => mapping(address => uint256))",
        "numberOfBytes": "32",
        "value": "t_mapping(t_address,t_uint256)"
      },
      "t_mapping(t_address,t_struct(Counter)9721_storage)": {
        "encoding": "mapping",
        "key": "t_address",
        "label": "mapping(address => struct Counters.Counter)",
        "numberOfBytes": "32",
        "value": "t_struct(Counter)9721_storage"
      },
      "t_mapping(t_address,t_uint256)": {
        "encoding": "mapping",
        "key": "t_address",
        "label": "mapping(address => uint256)",
        "numberOfBytes": "32",
        "value": "t_uint256"
      },
      "t_string_storage": {
        "encoding": "bytes",
        "label": "string",
        "numberOfBytes": "32"
      },
      "t_struct(Checkpoint)8254_storage": {
        "encoding": "inplace",
        "label": "struct ERC20Votes.Checkpoint",
        "members": [
          {
            "astId": 8251,
            "contract": "contracts/token/UnionToken.sol:UnionToken",
            "label": "fromBlock",
            "offset": 0,
            "slot": "0",
            "type": "t_uint32"
          },
          {
            "astId": 8253,
            "contract": "contracts/token/UnionToken.sol:UnionToken",
            "label": "votes",
            "offset": 4,
            "slot": "0",
            "type": "t_uint224"
          }
        ],
        "numberOfBytes": "32"
      },
      "t_struct(Counter)9721_storage": {
        "encoding": "inplace",
        "label": "struct Counters.Counter",
        "members": [
          {
            "astId": 9720,
            "contract": "contracts/token/UnionToken.sol:UnionToken",
            "label": "_value",
            "offset": 0,
            "slot": "0",
            "type": "t_uint256"
          }
        ],
        "numberOfBytes": "32"
      },
      "t_uint224": {
        "encoding": "inplace",
        "label": "uint224",
        "numberOfBytes": "28"
      },
      "t_uint256": {
        "encoding": "inplace",
        "label": "uint256",
        "numberOfBytes": "32"
      },
      "t_uint32": {
        "encoding": "inplace",
        "label": "uint32",
        "numberOfBytes": "4"
      }
    }
  }
}