{
    "address": "0xc3a93dD85F05F4c60b5BB3D863D20d19FEe7A8F0",
    "abi": [
        {
            "inputs": [],
            "name": "AddressZero",
            "type": "error"
        },
        {
            "inputs": [],
            "name": "AmountZero",
            "type": "error"
        },
        {
            "inputs": [],
            "name": "AssetManagerDepositFailed",
            "type": "error"
        },
        {
            "inputs": [],
            "name": "AssetManagerWithdrawFailed",
            "type": "error"
        },
        {
            "inputs": [],
            "name": "AuthFailed",
            "type": "error"
        },
        {
            "inputs": [],
            "name": "ErrorData",
            "type": "error"
        },
        {
            "inputs": [],
            "name": "ErrorSelfVouching",
            "type": "error"
        },
        {
            "inputs": [],
            "name": "ErrorTotalStake",
            "type": "error"
        },
        {
            "inputs": [],
            "name": "ExceedsLocked",
            "type": "error"
        },
        {
            "inputs": [],
            "name": "ExceedsTotalFrozen",
            "type": "error"
        },
        {
            "inputs": [],
            "name": "ExceedsTotalStaked",
            "type": "error"
        },
        {
            "inputs": [],
            "name": "InsufficientBalance",
            "type": "error"
        },
        {
            "inputs": [],
            "name": "LengthNotMatch",
            "type": "error"
        },
        {
            "inputs": [],
            "name": "LockedStakeNonZero",
            "type": "error"
        },
        {
            "inputs": [],
            "name": "MaxTrustLimitReached",
            "type": "error"
        },
        {
            "inputs": [],
            "name": "NoExistingMember",
            "type": "error"
        },
        {
            "inputs": [],
            "name": "NotCreditLimitModel",
            "type": "error"
        },
        {
            "inputs": [],
            "name": "NotEnoughStakers",
            "type": "error"
        },
        {
            "inputs": [],
            "name": "NotOverdue",
            "type": "error"
        },
        {
            "inputs": [],
            "name": "StakeLimitReached",
            "type": "error"
        },
        {
            "inputs": [],
            "name": "TrustAmountTooLarge",
            "type": "error"
        },
        {
            "anonymous": false,
            "inputs": [
                {
                    "indexed": false,
                    "internalType": "address",
                    "name": "previousAdmin",
                    "type": "address"
                },
                {
                    "indexed": false,
                    "internalType": "address",
                    "name": "newAdmin",
                    "type": "address"
                }
            ],
            "name": "AdminChanged",
            "type": "event"
        },
        {
            "anonymous": false,
            "inputs": [
                {
                    "indexed": true,
                    "internalType": "address",
                    "name": "beacon",
                    "type": "address"
                }
            ],
            "name": "BeaconUpgraded",
            "type": "event"
        },
        {
            "anonymous": false,
            "inputs": [
                {
                    "indexed": false,
                    "internalType": "address",
                    "name": "member",
                    "type": "address"
                }
            ],
            "name": "LogAddMember",
            "type": "event"
        },
        {
            "anonymous": false,
            "inputs": [
                {
                    "indexed": true,
                    "internalType": "address",
                    "name": "account",
                    "type": "address"
                },
                {
                    "indexed": true,
                    "internalType": "address",
                    "name": "borrower",
                    "type": "address"
                }
            ],
            "name": "LogCancelVouch",
            "type": "event"
        },
        {
            "anonymous": false,
            "inputs": [
                {
                    "indexed": true,
                    "internalType": "address",
                    "name": "staker",
                    "type": "address"
                },
                {
                    "indexed": true,
                    "internalType": "address",
                    "name": "borrower",
                    "type": "address"
                },
                {
                    "indexed": false,
                    "internalType": "uint256",
                    "name": "amount",
                    "type": "uint256"
                }
            ],
            "name": "LogDebtWriteOff",
            "type": "event"
        },
        {
            "anonymous": false,
            "inputs": [
                {
                    "indexed": false,
                    "internalType": "address",
                    "name": "newCreditLimitModel",
                    "type": "address"
                }
            ],
            "name": "LogNewCreditLimitModel",
            "type": "event"
        },
        {
            "anonymous": false,
            "inputs": [
                {
                    "indexed": true,
                    "internalType": "address",
                    "name": "account",
                    "type": "address"
                },
                {
                    "indexed": true,
                    "internalType": "address",
                    "name": "borrower",
                    "type": "address"
                }
            ],
            "name": "LogRegisterMember",
            "type": "event"
        },
        {
            "anonymous": false,
            "inputs": [
                {
                    "indexed": false,
                    "internalType": "uint256",
                    "name": "oldMaxStakeAmount",
                    "type": "uint256"
                },
                {
                    "indexed": false,
                    "internalType": "uint256",
                    "name": "newMaxStakeAmount",
                    "type": "uint256"
                }
            ],
            "name": "LogSetMaxStakeAmount",
            "type": "event"
        },
        {
            "anonymous": false,
            "inputs": [
                {
                    "indexed": false,
                    "internalType": "uint256",
                    "name": "oldMemberFee",
                    "type": "uint256"
                },
                {
                    "indexed": false,
                    "internalType": "uint256",
                    "name": "newMemberFee",
                    "type": "uint256"
                }
            ],
            "name": "LogSetNewMemberFee",
            "type": "event"
        },
        {
            "anonymous": false,
            "inputs": [
                {
                    "indexed": false,
                    "internalType": "address",
                    "name": "uToken",
                    "type": "address"
                }
            ],
            "name": "LogSetUToken",
            "type": "event"
        },
        {
            "anonymous": false,
            "inputs": [
                {
                    "indexed": true,
                    "internalType": "address",
                    "name": "account",
                    "type": "address"
                },
                {
                    "indexed": false,
                    "internalType": "uint256",
                    "name": "amount",
                    "type": "uint256"
                }
            ],
            "name": "LogStake",
            "type": "event"
        },
        {
            "anonymous": false,
            "inputs": [
                {
                    "indexed": true,
                    "internalType": "address",
                    "name": "account",
                    "type": "address"
                },
                {
                    "indexed": false,
                    "internalType": "uint256",
                    "name": "amount",
                    "type": "uint256"
                }
            ],
            "name": "LogUnstake",
            "type": "event"
        },
        {
            "anonymous": false,
            "inputs": [
                {
                    "indexed": true,
                    "internalType": "address",
                    "name": "staker",
                    "type": "address"
                },
                {
                    "indexed": true,
                    "internalType": "address",
                    "name": "borrower",
                    "type": "address"
                },
                {
                    "indexed": false,
                    "internalType": "uint256",
                    "name": "trustAmount",
                    "type": "uint256"
                }
            ],
            "name": "LogUpdateTrust",
            "type": "event"
        },
        {
            "anonymous": false,
            "inputs": [
                {
                    "indexed": false,
                    "internalType": "address",
                    "name": "account",
                    "type": "address"
                }
            ],
            "name": "Paused",
            "type": "event"
        },
        {
            "anonymous": false,
            "inputs": [
                {
                    "indexed": true,
                    "internalType": "bytes32",
                    "name": "role",
                    "type": "bytes32"
                },
                {
                    "indexed": true,
                    "internalType": "bytes32",
                    "name": "previousAdminRole",
                    "type": "bytes32"
                },
                {
                    "indexed": true,
                    "internalType": "bytes32",
                    "name": "newAdminRole",
                    "type": "bytes32"
                }
            ],
            "name": "RoleAdminChanged",
            "type": "event"
        },
        {
            "anonymous": false,
            "inputs": [
                {
                    "indexed": true,
                    "internalType": "bytes32",
                    "name": "role",
                    "type": "bytes32"
                },
                {
                    "indexed": true,
                    "internalType": "address",
                    "name": "account",
                    "type": "address"
                },
                {
                    "indexed": true,
                    "internalType": "address",
                    "name": "sender",
                    "type": "address"
                }
            ],
            "name": "RoleGranted",
            "type": "event"
        },
        {
            "anonymous": false,
            "inputs": [
                {
                    "indexed": true,
                    "internalType": "bytes32",
                    "name": "role",
                    "type": "bytes32"
                },
                {
                    "indexed": true,
                    "internalType": "address",
                    "name": "account",
                    "type": "address"
                },
                {
                    "indexed": true,
                    "internalType": "address",
                    "name": "sender",
                    "type": "address"
                }
            ],
            "name": "RoleRevoked",
            "type": "event"
        },
        {
            "anonymous": false,
            "inputs": [
                {
                    "indexed": false,
                    "internalType": "address",
                    "name": "account",
                    "type": "address"
                }
            ],
            "name": "Unpaused",
            "type": "event"
        },
        {
            "anonymous": false,
            "inputs": [
                {
                    "indexed": true,
                    "internalType": "address",
                    "name": "implementation",
                    "type": "address"
                }
            ],
            "name": "Upgraded",
            "type": "event"
        },
        {
            "inputs": [],
            "name": "DEFAULT_ADMIN_ROLE",
            "outputs": [
                {
                    "internalType": "bytes32",
                    "name": "",
                    "type": "bytes32"
                }
            ],
            "stateMutability": "view",
            "type": "function"
        },
        {
            "inputs": [],
            "name": "MAX_TRUST_LIMIT",
            "outputs": [
                {
                    "internalType": "uint256",
                    "name": "",
                    "type": "uint256"
                }
            ],
            "stateMutability": "view",
            "type": "function"
        },
        {
            "inputs": [],
            "name": "ROLE_ADMIN",
            "outputs": [
                {
                    "internalType": "bytes32",
                    "name": "",
                    "type": "bytes32"
                }
            ],
            "stateMutability": "view",
            "type": "function"
        },
        {
            "inputs": [
                {
                    "internalType": "address",
                    "name": "admin_",
                    "type": "address"
                }
            ],
            "name": "__Controller_init",
            "outputs": [],
            "stateMutability": "nonpayable",
            "type": "function"
        },
        {
            "inputs": [
                {
                    "internalType": "address",
                    "name": "assetManager_",
                    "type": "address"
                },
                {
                    "internalType": "address",
                    "name": "unionToken_",
                    "type": "address"
                },
                {
                    "internalType": "address",
                    "name": "stakingToken_",
                    "type": "address"
                },
                {
                    "internalType": "address",
                    "name": "creditLimitModel_",
                    "type": "address"
                },
                {
                    "internalType": "address",
                    "name": "comptroller_",
                    "type": "address"
                },
                {
                    "internalType": "address",
                    "name": "admin_",
                    "type": "address"
                }
            ],
            "name": "__UserManager_init",
            "outputs": [],
            "stateMutability": "nonpayable",
            "type": "function"
        },
        {
            "inputs": [
                {
                    "internalType": "address",
                    "name": "account",
                    "type": "address"
                }
            ],
            "name": "addAdmin",
            "outputs": [],
            "stateMutability": "nonpayable",
            "type": "function"
        },
        {
            "inputs": [
                {
                    "internalType": "address",
                    "name": "account",
                    "type": "address"
                }
            ],
            "name": "addMember",
            "outputs": [],
            "stateMutability": "nonpayable",
            "type": "function"
        },
        {
            "inputs": [],
            "name": "assetManager",
            "outputs": [
                {
                    "internalType": "address",
                    "name": "",
                    "type": "address"
                }
            ],
            "stateMutability": "view",
            "type": "function"
        },
        {
            "inputs": [
                {
                    "internalType": "address[]",
                    "name": "accounts",
                    "type": "address[]"
                },
                {
                    "internalType": "bool[]",
                    "name": "isOverdues",
                    "type": "bool[]"
                }
            ],
            "name": "batchUpdateTotalFrozen",
            "outputs": [],
            "stateMutability": "nonpayable",
            "type": "function"
        },
        {
            "inputs": [
                {
                    "internalType": "address",
                    "name": "staker",
                    "type": "address"
                },
                {
                    "internalType": "address",
                    "name": "borrower",
                    "type": "address"
                }
            ],
            "name": "cancelVouch",
            "outputs": [],
            "stateMutability": "nonpayable",
            "type": "function"
        },
        {
            "inputs": [
                {
                    "internalType": "address",
                    "name": "account",
                    "type": "address"
                }
            ],
            "name": "checkIsMember",
            "outputs": [
                {
                    "internalType": "bool",
                    "name": "",
                    "type": "bool"
                }
            ],
            "stateMutability": "view",
            "type": "function"
        },
        {
            "inputs": [],
            "name": "comptroller",
            "outputs": [
                {
                    "internalType": "contract IComptroller",
                    "name": "",
                    "type": "address"
                }
            ],
            "stateMutability": "view",
            "type": "function"
        },
        {
            "inputs": [],
            "name": "creditLimitModel",
            "outputs": [
                {
                    "internalType": "contract ICreditLimitModel",
                    "name": "",
                    "type": "address"
                }
            ],
            "stateMutability": "view",
            "type": "function"
        },
        {
            "inputs": [
                {
                    "internalType": "address",
                    "name": "borrower",
                    "type": "address"
                },
                {
                    "internalType": "uint256",
                    "name": "amount",
                    "type": "uint256"
                }
            ],
            "name": "debtWriteOff",
            "outputs": [],
            "stateMutability": "nonpayable",
            "type": "function"
        },
        {
            "inputs": [
                {
                    "internalType": "address",
                    "name": "account",
                    "type": "address"
                }
            ],
            "name": "getBorrowerAddresses",
            "outputs": [
                {
                    "internalType": "address[]",
                    "name": "",
                    "type": "address[]"
                }
            ],
            "stateMutability": "view",
            "type": "function"
        },
        {
            "inputs": [
                {
                    "internalType": "address",
                    "name": "account",
                    "type": "address"
                },
                {
                    "internalType": "address",
                    "name": "borrower",
                    "type": "address"
                }
            ],
            "name": "getBorrowerAsset",
            "outputs": [
                {
                    "internalType": "uint256",
                    "name": "trustAmount",
                    "type": "uint256"
                },
                {
                    "internalType": "uint256",
                    "name": "vouchingAmount",
                    "type": "uint256"
                },
                {
                    "internalType": "uint256",
                    "name": "lockedStake",
                    "type": "uint256"
                }
            ],
            "stateMutability": "view",
            "type": "function"
        },
        {
            "inputs": [
                {
                    "internalType": "address",
                    "name": "borrower",
                    "type": "address"
                }
            ],
            "name": "getCreditLimit",
            "outputs": [
                {
                    "internalType": "int256",
                    "name": "",
                    "type": "int256"
                }
            ],
            "stateMutability": "view",
            "type": "function"
        },
        {
            "inputs": [
                {
                    "internalType": "address",
                    "name": "staker",
                    "type": "address"
                },
                {
                    "internalType": "uint256",
                    "name": "pastBlocks",
                    "type": "uint256"
                }
            ],
            "name": "getFrozenCoinAge",
            "outputs": [
                {
                    "internalType": "uint256",
                    "name": "",
                    "type": "uint256"
                }
            ],
            "stateMutability": "view",
            "type": "function"
        },
        {
            "inputs": [
                {
                    "internalType": "address",
                    "name": "staker",
                    "type": "address"
                },
                {
                    "internalType": "address",
                    "name": "borrower",
                    "type": "address"
                }
            ],
            "name": "getLockedStake",
            "outputs": [
                {
                    "internalType": "uint256",
                    "name": "",
                    "type": "uint256"
                }
            ],
            "stateMutability": "view",
            "type": "function"
        },
        {
            "inputs": [
                {
                    "internalType": "bytes32",
                    "name": "role",
                    "type": "bytes32"
                }
            ],
            "name": "getRoleAdmin",
            "outputs": [
                {
                    "internalType": "bytes32",
                    "name": "",
                    "type": "bytes32"
                }
            ],
            "stateMutability": "view",
            "type": "function"
        },
        {
            "inputs": [
                {
                    "internalType": "address",
                    "name": "account",
                    "type": "address"
                }
            ],
            "name": "getStakerAddresses",
            "outputs": [
                {
                    "internalType": "address[]",
                    "name": "",
                    "type": "address[]"
                }
            ],
            "stateMutability": "view",
            "type": "function"
        },
        {
            "inputs": [
                {
                    "internalType": "address",
                    "name": "account",
                    "type": "address"
                },
                {
                    "internalType": "address",
                    "name": "staker",
                    "type": "address"
                }
            ],
            "name": "getStakerAsset",
            "outputs": [
                {
                    "internalType": "uint256",
                    "name": "trustAmount",
                    "type": "uint256"
                },
                {
                    "internalType": "uint256",
                    "name": "vouchingAmount",
                    "type": "uint256"
                },
                {
                    "internalType": "uint256",
                    "name": "lockedStake",
                    "type": "uint256"
                }
            ],
            "stateMutability": "view",
            "type": "function"
        },
        {
            "inputs": [
                {
                    "internalType": "address",
                    "name": "account",
                    "type": "address"
                }
            ],
            "name": "getStakerBalance",
            "outputs": [
                {
                    "internalType": "uint256",
                    "name": "",
                    "type": "uint256"
                }
            ],
            "stateMutability": "view",
            "type": "function"
        },
        {
            "inputs": [
                {
                    "internalType": "address",
                    "name": "staker",
                    "type": "address"
                }
            ],
            "name": "getTotalFrozenAmount",
            "outputs": [
                {
                    "internalType": "uint256",
                    "name": "",
                    "type": "uint256"
                }
            ],
            "stateMutability": "view",
            "type": "function"
        },
        {
            "inputs": [
                {
                    "internalType": "address",
                    "name": "staker",
                    "type": "address"
                }
            ],
            "name": "getTotalLockedStake",
            "outputs": [
                {
                    "internalType": "uint256",
                    "name": "",
                    "type": "uint256"
                }
            ],
            "stateMutability": "view",
            "type": "function"
        },
        {
            "inputs": [
                {
                    "internalType": "address",
                    "name": "staker",
                    "type": "address"
                },
                {
                    "internalType": "address",
                    "name": "borrower",
                    "type": "address"
                }
            ],
            "name": "getVouchingAmount",
            "outputs": [
                {
                    "internalType": "uint256",
                    "name": "",
                    "type": "uint256"
                }
            ],
            "stateMutability": "view",
            "type": "function"
        },
        {
            "inputs": [
                {
                    "internalType": "bytes32",
                    "name": "role",
                    "type": "bytes32"
                },
                {
                    "internalType": "address",
                    "name": "account",
                    "type": "address"
                }
            ],
            "name": "grantRole",
            "outputs": [],
            "stateMutability": "nonpayable",
            "type": "function"
        },
        {
            "inputs": [
                {
                    "internalType": "bytes32",
                    "name": "role",
                    "type": "bytes32"
                },
                {
                    "internalType": "address",
                    "name": "account",
                    "type": "address"
                }
            ],
            "name": "hasRole",
            "outputs": [
                {
                    "internalType": "bool",
                    "name": "",
                    "type": "bool"
                }
            ],
            "stateMutability": "view",
            "type": "function"
        },
        {
            "inputs": [
                {
                    "internalType": "address",
                    "name": "account",
                    "type": "address"
                }
            ],
            "name": "isAdmin",
            "outputs": [
                {
                    "internalType": "bool",
                    "name": "",
                    "type": "bool"
                }
            ],
            "stateMutability": "view",
            "type": "function"
        },
        {
            "inputs": [],
            "name": "maxStakeAmount",
            "outputs": [
                {
                    "internalType": "uint256",
                    "name": "",
                    "type": "uint256"
                }
            ],
            "stateMutability": "view",
            "type": "function"
        },
        {
            "inputs": [
                {
                    "internalType": "address",
                    "name": "",
                    "type": "address"
                }
            ],
            "name": "memberFrozen",
            "outputs": [
                {
                    "internalType": "uint256",
                    "name": "",
                    "type": "uint256"
                }
            ],
            "stateMutability": "view",
            "type": "function"
        },
        {
            "inputs": [],
            "name": "newMemberFee",
            "outputs": [
                {
                    "internalType": "uint256",
                    "name": "",
                    "type": "uint256"
                }
            ],
            "stateMutability": "view",
            "type": "function"
        },
        {
            "inputs": [],
            "name": "pause",
            "outputs": [],
            "stateMutability": "nonpayable",
            "type": "function"
        },
        {
            "inputs": [],
            "name": "pauseGuardian",
            "outputs": [
                {
                    "internalType": "address",
                    "name": "",
                    "type": "address"
                }
            ],
            "stateMutability": "view",
            "type": "function"
        },
        {
            "inputs": [],
            "name": "paused",
            "outputs": [
                {
                    "internalType": "bool",
                    "name": "",
                    "type": "bool"
                }
            ],
            "stateMutability": "view",
            "type": "function"
        },
        {
            "inputs": [
                {
                    "internalType": "address",
                    "name": "newMember",
                    "type": "address"
                }
            ],
            "name": "registerMember",
            "outputs": [],
            "stateMutability": "nonpayable",
            "type": "function"
        },
        {
            "inputs": [
                {
                    "internalType": "address",
                    "name": "newMember",
                    "type": "address"
                },
                {
                    "internalType": "uint256",
                    "name": "value",
                    "type": "uint256"
                },
                {
                    "internalType": "uint256",
                    "name": "deadline",
                    "type": "uint256"
                },
                {
                    "internalType": "uint8",
                    "name": "v",
                    "type": "uint8"
                },
                {
                    "internalType": "bytes32",
                    "name": "r",
                    "type": "bytes32"
                },
                {
                    "internalType": "bytes32",
                    "name": "s",
                    "type": "bytes32"
                }
            ],
            "name": "registerMemberWithPermit",
            "outputs": [],
            "stateMutability": "nonpayable",
            "type": "function"
        },
        {
            "inputs": [],
            "name": "renounceAdmin",
            "outputs": [],
            "stateMutability": "nonpayable",
            "type": "function"
        },
        {
            "inputs": [
                {
                    "internalType": "bytes32",
                    "name": "role",
                    "type": "bytes32"
                },
                {
                    "internalType": "address",
                    "name": "account",
                    "type": "address"
                }
            ],
            "name": "renounceRole",
            "outputs": [],
            "stateMutability": "nonpayable",
            "type": "function"
        },
        {
            "inputs": [
                {
                    "internalType": "address",
                    "name": "account",
                    "type": "address"
                },
                {
                    "internalType": "address",
                    "name": "token",
                    "type": "address"
                },
                {
                    "internalType": "uint256",
                    "name": "lastRepay",
                    "type": "uint256"
                }
            ],
            "name": "repayLoanOverdue",
            "outputs": [],
            "stateMutability": "nonpayable",
            "type": "function"
        },
        {
            "inputs": [
                {
                    "internalType": "bytes32",
                    "name": "role",
                    "type": "bytes32"
                },
                {
                    "internalType": "address",
                    "name": "account",
                    "type": "address"
                }
            ],
            "name": "revokeRole",
            "outputs": [],
            "stateMutability": "nonpayable",
            "type": "function"
        },
        {
            "inputs": [
                {
                    "internalType": "address",
                    "name": "newCreditLimitModel",
                    "type": "address"
                }
            ],
            "name": "setCreditLimitModel",
            "outputs": [],
            "stateMutability": "nonpayable",
            "type": "function"
        },
        {
            "inputs": [
                {
                    "internalType": "address",
                    "name": "account",
                    "type": "address"
                }
            ],
            "name": "setGuardian",
            "outputs": [],
            "stateMutability": "nonpayable",
            "type": "function"
        },
        {
            "inputs": [
                {
                    "internalType": "uint256",
                    "name": "maxStakeAmount_",
                    "type": "uint256"
                }
            ],
            "name": "setMaxStakeAmount",
            "outputs": [],
            "stateMutability": "nonpayable",
            "type": "function"
        },
        {
            "inputs": [
                {
                    "internalType": "uint256",
                    "name": "amount",
                    "type": "uint256"
                }
            ],
            "name": "setNewMemberFee",
            "outputs": [],
            "stateMutability": "nonpayable",
            "type": "function"
        },
        {
            "inputs": [
                {
                    "internalType": "address",
                    "name": "uToken_",
                    "type": "address"
                }
            ],
            "name": "setUToken",
            "outputs": [],
            "stateMutability": "nonpayable",
            "type": "function"
        },
        {
            "inputs": [
                {
                    "internalType": "uint256",
                    "name": "amount",
                    "type": "uint256"
                }
            ],
            "name": "stake",
            "outputs": [],
            "stateMutability": "nonpayable",
            "type": "function"
        },
        {
            "inputs": [
                {
                    "internalType": "uint256",
                    "name": "amount",
                    "type": "uint256"
                },
                {
                    "internalType": "uint256",
                    "name": "nonce",
                    "type": "uint256"
                },
                {
                    "internalType": "uint256",
                    "name": "expiry",
                    "type": "uint256"
                },
                {
                    "internalType": "uint8",
                    "name": "v",
                    "type": "uint8"
                },
                {
                    "internalType": "bytes32",
                    "name": "r",
                    "type": "bytes32"
                },
                {
                    "internalType": "bytes32",
                    "name": "s",
                    "type": "bytes32"
                }
            ],
            "name": "stakeWithPermit",
            "outputs": [],
            "stateMutability": "nonpayable",
            "type": "function"
        },
        {
            "inputs": [
                {
                    "internalType": "address",
                    "name": "",
                    "type": "address"
                }
            ],
            "name": "stakers",
            "outputs": [
                {
                    "internalType": "uint256",
                    "name": "",
                    "type": "uint256"
                }
            ],
            "stateMutability": "view",
            "type": "function"
        },
        {
            "inputs": [],
            "name": "stakingToken",
            "outputs": [
                {
                    "internalType": "address",
                    "name": "",
                    "type": "address"
                }
            ],
            "stateMutability": "view",
            "type": "function"
        },
        {
            "inputs": [
                {
                    "internalType": "bytes4",
                    "name": "interfaceId",
                    "type": "bytes4"
                }
            ],
            "name": "supportsInterface",
            "outputs": [
                {
                    "internalType": "bool",
                    "name": "",
                    "type": "bool"
                }
            ],
            "stateMutability": "view",
            "type": "function"
        },
        {
            "inputs": [],
            "name": "totalFrozen",
            "outputs": [
                {
                    "internalType": "uint256",
                    "name": "",
                    "type": "uint256"
                }
            ],
            "stateMutability": "view",
            "type": "function"
        },
        {
            "inputs": [],
            "name": "totalStaked",
            "outputs": [
                {
                    "internalType": "uint256",
                    "name": "",
                    "type": "uint256"
                }
            ],
            "stateMutability": "view",
            "type": "function"
        },
        {
            "inputs": [],
            "name": "uToken",
            "outputs": [
                {
                    "internalType": "contract IUToken",
                    "name": "",
                    "type": "address"
                }
            ],
            "stateMutability": "view",
            "type": "function"
        },
        {
            "inputs": [],
            "name": "unionToken",
            "outputs": [
                {
                    "internalType": "address",
                    "name": "",
                    "type": "address"
                }
            ],
            "stateMutability": "view",
            "type": "function"
        },
        {
            "inputs": [],
            "name": "unpause",
            "outputs": [],
            "stateMutability": "nonpayable",
            "type": "function"
        },
        {
            "inputs": [
                {
                    "internalType": "uint256",
                    "name": "amount",
                    "type": "uint256"
                }
            ],
            "name": "unstake",
            "outputs": [],
            "stateMutability": "nonpayable",
            "type": "function"
        },
        {
            "inputs": [
                {
                    "internalType": "address",
                    "name": "borrower",
                    "type": "address"
                },
                {
                    "internalType": "uint256",
                    "name": "amount",
                    "type": "uint256"
                },
                {
                    "internalType": "bool",
                    "name": "isBorrow",
                    "type": "bool"
                }
            ],
            "name": "updateLockedData",
            "outputs": [],
            "stateMutability": "nonpayable",
            "type": "function"
        },
        {
            "inputs": [
                {
                    "internalType": "address",
                    "name": "account",
                    "type": "address"
                },
                {
                    "internalType": "bool",
                    "name": "isOverdue",
                    "type": "bool"
                }
            ],
            "name": "updateTotalFrozen",
            "outputs": [],
            "stateMutability": "nonpayable",
            "type": "function"
        },
        {
            "inputs": [
                {
                    "internalType": "address",
                    "name": "borrower_",
                    "type": "address"
                },
                {
                    "internalType": "uint256",
                    "name": "trustAmount",
                    "type": "uint256"
                }
            ],
            "name": "updateTrust",
            "outputs": [],
            "stateMutability": "nonpayable",
            "type": "function"
        },
        {
            "inputs": [
                {
                    "internalType": "address",
                    "name": "newImplementation",
                    "type": "address"
                }
            ],
            "name": "upgradeTo",
            "outputs": [],
            "stateMutability": "nonpayable",
            "type": "function"
        },
        {
            "inputs": [
                {
                    "internalType": "address",
                    "name": "newImplementation",
                    "type": "address"
                },
                {
                    "internalType": "bytes",
                    "name": "data",
                    "type": "bytes"
                }
            ],
            "name": "upgradeToAndCall",
            "outputs": [],
            "stateMutability": "payable",
            "type": "function"
        },
        {
            "inputs": [],
            "name": "withdrawRewards",
            "outputs": [],
            "stateMutability": "nonpayable",
            "type": "function"
        }
    ],
    "transactionHash": "0x65ea9665ef07eba56f431bdd8daa9cc1eabc2da1e833e075538fc8741c3737d2",
    "args": [],
    "solcInputHash": "17396099ecbd857f406d78caa623130a",
    "bytecode": "0x60a06040523060601b60805234801561001757600080fd5b5060805160601c6159e56200004c600039600081816115540152818161159401528181611dd70152611e1701526159e56000f3fe6080604052600436106103385760003560e01c806370480275116101b2578063b40d57fd116100ed578063dd2368c911610090578063dd2368c914610a55578063dd63f76214610a75578063eab2039e14610a95578063eb14845914610aaa578063f015846114610aca578063f70222e114610aeb578063fa84a8a314610b0c578063fcb4888e14610b2c57600080fd5b8063b40d57fd14610951578063b6a93faf14610971578063b8845f751461099e578063c7b8981c146109be578063ca6d56dc146109d3578063d391014b146109f3578063d547741f14610a15578063dcc2a55e14610a3557600080fd5b80639168ae72116101555780639168ae721461083257806391d148541461086057806394217ad1146108805780639f3da8ef146108a1578063a217fddf146108c1578063a694fc3a146108d6578063ab4ffaa9146108f6578063b157bf031461091657600080fd5b806370480275146107505780637223325d1461077057806372f702f314610790578063817b1cd2146107b15780638456cb59146107c857806385bde8f2146107dd5780638a0dac4a146107fd5780638bad0c0a1461081d57600080fd5b806337262d38116102825780635c975abb116102255780635c975abb146106685780635d40db1e146106805780635d80ca32146106a05780635fe3b567146106b757806363315637146106d8578063644214f6146106f957806364a118a1146107105780636c461a731461073057600080fd5b806337262d38146105805780633f4ba83a146105a05780633feaf532146105b557806343fbb8f5146105d55780634f1ef286146105f55780635668b02e14610608578063574dadba14610628578063591d637d1461064857600080fd5b80632640d9db116102ea5780632640d9db1461045b57806327a9626b14610492578063293512c5146104c05780632c333e25146104e05780632e17de78146105005780632f2ff15d1461052057806336568abe146105405780633659cfe61461056057600080fd5b806301ffc9a71461033d5780630babf336146103725780631e7f87bc1461039457806321d2a573146103b9578063248a9ca3146103d957806324a3d6221461040957806324d7806c1461043b575b600080fd5b34801561034957600080fd5b5061035d610358366004615399565b610b4c565b60405190151581526020015b60405180910390f35b34801561037e57600080fd5b5061039261038d366004615014565b610b83565b005b3480156103a057600080fd5b506103ab61016a5481565b604051908152602001610369565b3480156103c557600080fd5b5061035d6103d4366004615014565b610bf3565b3480156103e557600080fd5b506103ab6103f436600461535f565b600090815260c9602052604090206001015490565b34801561041557600080fd5b5060fc5461042e9061010090046001600160a01b031681565b604051610369919061549a565b34801561044757600080fd5b5061035d610456366004615014565b610c12565b34801561046757600080fd5b506103ab610476366004615014565b6001600160a01b0316600090815261016c602052604090205490565b34801561049e57600080fd5b506103ab6104ad366004615014565b61016d6020526000908152604090205481565b3480156104cc57600080fd5b506103926104db3660046150d3565b610c2c565b3480156104ec57600080fd5b506103ab6104fb366004615014565b610d77565b34801561050c57600080fd5b5061039261051b36600461535f565b61123d565b34801561052c57600080fd5b5061039261053b366004615377565b6114a0565b34801561054c57600080fd5b5061039261055b366004615377565b6114cb565b34801561056c57600080fd5b5061039261057b366004615014565b611549565b34801561058c57600080fd5b506103ab61059b366004615014565b61160f565b3480156105ac57600080fd5b506103926117c2565b3480156105c157600080fd5b506103926105d0366004615268565b611880565b3480156105e157600080fd5b506103926105f0366004615200565b611940565b610392610603366004615144565b611dcc565b34801561061457600080fd5b506103926106233660046153d9565b611e82565b34801561063457600080fd5b506103ab610643366004615014565b611f41565b34801561065457600080fd5b5061039261066336600461510e565b612046565b34801561067457600080fd5b5060fc5460ff1661035d565b34801561068c57600080fd5b5061039261069b3660046152bf565b61217b565b3480156106ac57600080fd5b506103ab6101615481565b3480156106c357600080fd5b506101675461042e906001600160a01b031681565b3480156106e457600080fd5b506101655461042e906001600160a01b031681565b34801561070557600080fd5b506103ab6101685481565b34801561071c57600080fd5b5061039261072b366004615014565b61239a565b34801561073c57600080fd5b5061039261074b366004615014565b61244c565b34801561075c57600080fd5b5061039261076b366004615014565b612551565b34801561077c57600080fd5b506103ab61078b36600461502e565b61265e565b34801561079c57600080fd5b506101625461042e906001600160a01b031681565b3480156107bd57600080fd5b506103ab6101695481565b3480156107d457600080fd5b506103926126b2565b3480156107e957600080fd5b506103926107f836600461502e565b612741565b34801561080957600080fd5b50610392610818366004615014565b612bd7565b34801561082957600080fd5b50610392612c33565b34801561083e57600080fd5b506103ab61084d366004615014565b61016c6020526000908152604090205481565b34801561086c57600080fd5b5061035d61087b366004615377565b612c6a565b34801561088c57600080fd5b506101645461042e906001600160a01b031681565b3480156108ad57600080fd5b506103926108bc366004615060565b612c95565b3480156108cd57600080fd5b506103ab600081565b3480156108e257600080fd5b506103926108f136600461535f565b612d8a565b34801561090257600080fd5b50610392610911366004615229565b613002565b34801561092257600080fd5b5061093661093136600461502e565b61339c565b60408051938452602084019290925290820152606001610369565b34801561095d57600080fd5b5061093661096c36600461502e565b6133ea565b34801561097d57600080fd5b5061099161098c366004615014565b61342f565b6040516103699190615505565b3480156109aa57600080fd5b506103926109b9366004615200565b6134a9565b3480156109ca57600080fd5b506103926138d9565b3480156109df57600080fd5b506103926109ee366004615014565b6139ba565b3480156109ff57600080fd5b506103ab60008051602061596983398151915281565b348015610a2157600080fd5b50610392610a30366004615377565b613a42565b348015610a4157600080fd5b50610392610a5036600461535f565b613a68565b348015610a6157600080fd5b506103ab610a7036600461502e565b613ae3565b348015610a8157600080fd5b506103ab610a90366004615200565b613b13565b348015610aa157600080fd5b506103ab606481565b348015610ab657600080fd5b50610991610ac5366004615014565b613cd5565b348015610ad657600080fd5b506101665461042e906001600160a01b031681565b348015610af757600080fd5b506101635461042e906001600160a01b031681565b348015610b1857600080fd5b50610392610b2736600461535f565b613d4d565b348015610b3857600080fd5b50610392610b47366004615014565b613dc0565b60006001600160e01b03198216637965db0b60e01b1480610b7d57506301ffc9a760e01b6001600160e01b03198316145b92915050565b610b9b60008051602061596983398151915233612c6a565b610bc05760405162461bcd60e51b8152600401610bb7906156df565b60405180910390fd5b6001600160a01b038116610be757604051639fabe1c160e01b815260040160405180910390fd5b610bf08161403d565b50565b6001600160a01b0316600090815261016b602052604090205460ff1690565b6000610b7d60008051602061596983398151915283612c6a565b60fc5460ff1615610c4f5760405162461bcd60e51b8152600401610bb790615817565b610165546001600160a01b03163314801590610c715750610c6f33610c12565b155b15610c8f5760405163458bc09b60e01b815260040160405180910390fd5b6000610c9a8461342f565b90506000805b81811015610d6f576000838281518110610cca57634e487b7160e01b600052603260045260246000fd5b602002602001015190506000610ce088836133ea565b61016754604051635525631360e01b81526001600160a01b0387811660048301528c8116602483015260448201849052606482018c90529295509116925063552563139150608401600060405180830381600087803b158015610d4257600080fd5b505af1158015610d56573d6000803e3d6000fd5b5050505050508080610d6790615913565b915050610ca0565b505050505050565b6000610d81614f18565b6001600160a01b038316600090815261016b602090815260409182902060040180548351818402810184019094528084529091830182828015610ded57602002820191906000526020600020905b81546001600160a01b03168152600190910190602001808311610dcf575b5050508284525050600060408301819052905190816001600160401b03811115610e2757634e487b7160e01b600052604160045260246000fd5b604051908082528060200260200182016040528015610e50578160200160208202803683370190505b50905060005b82811015611059578351805182908110610e8057634e487b7160e01b600052603260045260246000fd5b6020908102919091018101516001600160a01b031660608601818152600091825261016c909252604090205460a086015251610ebc908761265e565b608085018190521561104757610ed58460600151613cd5565b602085015260a084015160c08501526060840151600090610ef590611f41565b9050808560a0015111610f0e57600060c0860152610f24565b808560a00151610f1e91906158b9565b60c08601525b610f32856060015188613ae3565b60e0860181905260808601511015610f5d576040516365a029e560e01b815260040160405180910390fd5b8460e001518560c00151610f719190615843565b856080015110610fb5578460c0015183866040015181518110610fa457634e487b7160e01b600052603260045260246000fd5b60200260200101818152505061102f565b8460e00151856080015111610fea57600083866040015181518110610fa457634e487b7160e01b600052603260045260246000fd5b8460e001518560800151610ffe91906158b9565b8386604001518151811061102257634e487b7160e01b600052603260045260246000fd5b6020026020010181815250505b6001856040018181516110429190615843565b905250505b8061105181615913565b915050610e56565b50600083604001516001600160401b0381111561108657634e487b7160e01b600052604160045260246000fd5b6040519080825280602002602001820160405280156110af578160200160208202803683370190505b50905060005b8460400151811015611126578281815181106110e157634e487b7160e01b600052603260045260246000fd5b602002602001015182828151811061110957634e487b7160e01b600052603260045260246000fd5b60209081029190910101528061111e81615913565b9150506110b5565b5061016554604051630da5a3cb60e31b81526001600160a01b0390911690636d2d1e589061115890899060040161549a565b60206040518083038186803b15801561117057600080fd5b505afa158015611184573d6000803e3d6000fd5b505050506040513d601f19601f820116820180604052508101906111a891906153c1565b61016654604051634c9cc67360e01b81526001600160a01b0390911690634c9cc673906111d99085906004016155dc565b60206040518083038186803b1580156111f157600080fd5b505afa158015611205573d6000803e3d6000fd5b505050506040513d601f19601f8201168201806040525081019061122991906153c1565b611233919061587a565b9695505050505050565b60fc5460ff16156112605760405162461bcd60e51b8152600401610bb790615817565b600261012f5414156112845760405162461bcd60e51b8152600401610bb7906157e0565b600261012f556101625433600081815261016c60205260409020546001600160a01b03909216919083906112b790611f41565b6112c190836158b9565b10156112e057604051631e9acf1760e31b815260040160405180910390fd5b6101675461016254604051637104c0e560e11b81526001600160a01b039283169263e20981ca92611319923392909116906004016154ae565b602060405180830381600087803b15801561133357600080fd5b505af1158015611347573d6000803e3d6000fd5b505050506040513d601f19601f8201168201806040525081019061136b91906153c1565b5061137683826158b9565b33600090815261016c6020526040812091909155610169805485929061139d9084906158b9565b90915550506101645461016254604051636ce5768960e11b81526001600160a01b039283169263d9caed12926113dc92911690309088906004016154c8565b602060405180830381600087803b1580156113f657600080fd5b505af115801561140a573d6000803e3d6000fd5b505050506040513d601f19601f8201168201806040525081019061142e9190615343565b61144b576040516363be299360e01b815260040160405180910390fd5b61145f6001600160a01b0383163385614117565b60405183815233907faf14da4c9c7eeb91ef462950405340d31988005c789d867d3a1394f082105e89906020015b60405180910390a25050600161012f5550565b600082815260c960205260409020600101546114bc813361416d565b6114c683836141d1565b505050565b6001600160a01b038116331461153b5760405162461bcd60e51b815260206004820152602f60248201527f416363657373436f6e74726f6c3a2063616e206f6e6c792072656e6f756e636560448201526e103937b632b9903337b91039b2b63360891b6064820152608401610bb7565b6115458282614257565b5050565b306001600160a01b037f00000000000000000000000000000000000000000000000000000000000000001614156115925760405162461bcd60e51b8152600401610bb790615647565b7f00000000000000000000000000000000000000000000000000000000000000006001600160a01b03166115c46142be565b6001600160a01b0316146115ea5760405162461bcd60e51b8152600401610bb790615693565b6115f3816142ec565b60408051600080825260208201909252610bf091839190614320565b6000611619614f18565b6001600160a01b038316600090815261016b602090815260408083206002018054825181850281018501909352808352919290919083018282801561168757602002820191906000526020600020905b81546001600160a01b03168152600190910190602001808311611669575b505050505060208381019182526001600160a01b038616600090815261016c909152604081205460a0850152905151815b8181101561179f57846020015181815181106116e457634e487b7160e01b600052603260045260246000fd5b602090810291909101015161016554604051634da9983d60e11b81529194506001600160a01b031690639b53307a9061172190869060040161549a565b60206040518083038186803b15801561173957600080fd5b505afa15801561174d573d6000803e3d6000fd5b505050506040513d601f19601f820116820180604052508101906117719190615343565b1561178d576117808784613ae3565b61178a9085615843565b93505b8061179781615913565b9150506116b8565b50828460a00151106117b5575090949350505050565b50505060a0015192915050565b60fc5461010090046001600160a01b031633146117f15760405162461bcd60e51b8152600401610bb79061570e565b60fc5460ff1661183c5760405162461bcd60e51b815260206004820152601660248201527510dbdb9d1c9bdb1b195c8e881b9bdd081c185d5cd95960521b6044820152606401610bb7565b60fc805460ff191690556040517f5db9ee0a495bf2e6ff9c91a7834c1ba4fdd244a5e8aa4e537bd38aeae4b073aa9061187690339061549a565b60405180910390a1565b60fc5460ff16156118a35760405162461bcd60e51b8152600401610bb790615817565b6101635460405163d505accf60e01b8152336004820152306024820152604481018790526064810186905260ff8516608482015260a4810184905260c481018390526001600160a01b0390911690819063d505accf9060e401600060405180830381600087803b15801561191657600080fd5b505af115801561192a573d6000803e3d6000fd5b5050505061193787613dc0565b50505050505050565b3361194a81610bf3565b6119675760405163458bc09b60e01b815260040160405180910390fd5b60fc5460ff161561198a5760405162461bcd60e51b8152600401610bb790615817565b6001600160a01b0383166119b157604051639fabe1c160e01b815260040160405180910390fd5b826119ba614f18565b33606082018190526001600160a01b03831614156119eb576040516302c8b80960e31b815260040160405180910390fd5b6001600160a01b038216600090815261016b60205260409020600401546064111580611a38575060608101516001600160a01b0316600090815261016b6020526040902060020154606411155b15611a5657604051637c5aec3360e01b815260040160405180910390fd5b60608101516001600160a01b0316600090815261016b602090815260409182902060020180548351818402810184019094528084529091830182828015611ac657602002820191906000526020600020905b81546001600160a01b03168152600190910190602001808311611aa8575b50505050602080840192909252506001600160a01b038316600090815261016b825260409081902060040180548251818502810185019093528083529192909190830182828015611b4057602002820191906000526020600020905b81546001600160a01b03168152600190910190602001808311611b22575b50505091835250506060810151611b579083613ae3565b60e08201819052841015611b7e5760405163450f3fe560e11b815260040160405180910390fd5b60608101516001600160a01b0316600090815261016b602052604081206002015490805b82811015611c0a57846001600160a01b031684602001518281518110611bd857634e487b7160e01b600052603260045260246000fd5b60200260200101516001600160a01b03161415611bf85760019150611c0a565b80611c0281615913565b915050611ba2565b506001600160a01b038416600090815261016b602052604081206004015490805b82811015611c975785606001516001600160a01b031686600001518281518110611c6557634e487b7160e01b600052603260045260246000fd5b60200260200101516001600160a01b03161415611c855760019150611c97565b80611c8f81615913565b915050611c2b565b5082611ce55760608501516001600160a01b03908116600090815261016b602090815260408220600201805460018101825590835291200180546001600160a01b0319169188169190911790555b80611d34576001600160a01b03868116600090815261016b602090815260408220606089015160049091018054600181018255908452919092200180546001600160a01b031916919092161790555b6060850180516001600160a01b03908116600090815261016b602081815260408084208c8616808652600190910183528185208f9055928252808420865186168552600301909152918290208c9055925190519116907f6726f80fa910f3db24051175cda8d3c2af86b536cc2b137c1dbbf83136fe7c5c90611db9908c815260200190565b60405180910390a3505050505050505050565b306001600160a01b037f0000000000000000000000000000000000000000000000000000000000000000161415611e155760405162461bcd60e51b8152600401610bb790615647565b7f00000000000000000000000000000000000000000000000000000000000000006001600160a01b0316611e476142be565b6001600160a01b031614611e6d5760405162461bcd60e51b8152600401610bb790615693565b611e76826142ec565b61154582826001614320565b60fc5460ff1615611ea55760405162461bcd60e51b8152600401610bb790615817565b610162546040516323f2ebc360e21b815233600482015230602482015260448101879052606481018690526001608482015260ff851660a482015260c4810184905260e481018390526001600160a01b03909116908190638fcbaf0c9061010401600060405180830381600087803b158015611f2057600080fd5b505af1158015611f34573d6000803e3d6000fd5b5050505061193787612d8a565b6001600160a01b038116600090815261016c602090815260408083205461016b8352818420600201805483518186028101860190945280845285949293859390929190830182828015611fbd57602002820191906000526020600020905b81546001600160a01b03168152600190910190602001808311611f9f575b505050505090506000808251905060005b8181101561202857838181518110611ff657634e487b7160e01b600052603260045260246000fd5b6020026020010151925061200a8884613ae3565b6120149087615843565b95508061202081615913565b915050611fce565b5084841061203b57509295945050505050565b509195945050505050565b610165546001600160a01b03163314801590612068575061206633610c12565b155b156120865760405163458bc09b60e01b815260040160405180910390fd5b60fc5460ff16156120a95760405162461bcd60e51b8152600401610bb790615817565b61016a546101695410156120d0576040516306f2ec6960e41b815260040160405180910390fd5b600061016a54610169546120e491906158b9565b6101675461016254604051630133821360e51b81529293506001600160a01b039182169263267042609261211e92169085906004016154ec565b602060405180830381600087803b15801561213857600080fd5b505af115801561214c573d6000803e3d6000fd5b505050506040513d601f19601f820116820180604052508101906121709190615343565b506114c68383614467565b610165546001600160a01b0316331480159061219d575061219b33610c12565b155b156121bb5760405163458bc09b60e01b815260040160405180910390fd5b60fc5460ff16156121de5760405162461bcd60e51b8152600401610bb790615817565b8281146121fe57604051631985132360e31b815260040160405180910390fd5b61016a54610169541015612225576040516306f2ec6960e41b815260040160405180910390fd5b600061016a546101695461223991906158b9565b6101675461016254604051630133821360e51b81529293506001600160a01b039182169263267042609261227392169085906004016154ec565b602060405180830381600087803b15801561228d57600080fd5b505af11580156122a1573d6000803e3d6000fd5b505050506040513d601f19601f820116820180604052508101906122c59190615343565b5060005b84811015610d6f5760008686838181106122f357634e487b7160e01b600052603260045260246000fd5b90506020020160208101906123089190615014565b6001600160a01b0316146123885761238886868381811061233957634e487b7160e01b600052603260045260246000fd5b905060200201602081019061234e9190615014565b85858481811061236e57634e487b7160e01b600052603260045260246000fd5b90506020020160208101906123839190615327565b614467565b8061239281615913565b9150506122c9565b6123b260008051602061596983398151915233612c6a565b6123ce5760405162461bcd60e51b8152600401610bb7906156df565b6001600160a01b0381166123f557604051639fabe1c160e01b815260040160405180910390fd5b61016580546001600160a01b0319166001600160a01b0383161790556040517fa7ee46aebb9f5e2669fe2e2ff586cb308e2fc07d64bf563fbb491f8e9ab83e0c9061244190839061549a565b60405180910390a150565b600054610100900460ff1680612465575060005460ff16155b6124815760405162461bcd60e51b8152600401610bb790615792565b600054610100900460ff161580156124a3576000805461ffff19166101011790555b6001600160a01b0382166124c95760405162461bcd60e51b8152600401610bb790615760565b60fc805460ff191690556001600160a01b038216600081815260fb6020526040902080546001600160a01b0319169091179055612504614627565b61251c600080516020615969833981519152836146a2565b60fc8054610100600160a81b0319166101006001600160a01b038516021790558015611545576000805461ff00191690555050565b61256960008051602061596983398151915233612c6a565b6125855760405162461bcd60e51b8152600401610bb7906156df565b6001600160a01b0381166125ab5760405162461bcd60e51b8152600401610bb790615760565b6001600160a01b03818116600090815260fb6020526040902054161561261d5760405162461bcd60e51b815260206004820152602160248201527f436f6e74726f6c6c65723a2061646d696e20616c7265616479206578697374656044820152601960fa1b6064820152608401610bb7565b6001600160a01b038116600081815260fb6020526040902080546001600160a01b0319169091179055610bf0600080516020615969833981519152826146a2565b6001600160a01b03808316600081815261016c6020908152604080832054948616835261016b825280832093835260039093019052908120549091908181116126a757806126a9565b815b95945050505050565b60fc5461010090046001600160a01b031633146126e15760405162461bcd60e51b8152600401610bb79061570e565b60fc5460ff16156127045760405162461bcd60e51b8152600401610bb790615817565b60fc805460ff191660011790556040517f62e78cea01bee320cd4e420270b5ea74000d11b0c9f74754ebdbfc544b05a2589061187690339061549a565b3361274b81610bf3565b6127685760405163458bc09b60e01b815260040160405180910390fd5b60fc5460ff161561278b5760405162461bcd60e51b8152600401610bb790615817565b336001600160a01b038416148015906127ad5750336001600160a01b03831614155b156127cb5760405163458bc09b60e01b815260040160405180910390fd5b6127d58383613ae3565b156127f35760405163408757e360e11b815260040160405180910390fd5b6001600160a01b038216600090815261016b60205260408120600401549080805b83811015612896576001600160a01b03868116600090815261016b602052604090206004018054918916918390811061285d57634e487b7160e01b600052603260045260246000fd5b6000918252602090912001546001600160a01b031614156128845760019250809150612896565b8061288e81615913565b915050612814565b506001600160a01b038616600090815261016b60205260408120600201549080805b8381101561293a576001600160a01b038a8116600090815261016b602052604090206002018054918b16918390811061290157634e487b7160e01b600052603260045260246000fd5b6000918252602090912001546001600160a01b03161415612928576001925080915061293a565b8061293281615913565b9150506128b8565b508115612a4f576001600160a01b038916600090815261016b602052604090206002016129686001856158b9565b8154811061298657634e487b7160e01b600052603260045260246000fd5b60009182526020808320909101546001600160a01b038c8116845261016b90925260409092206002018054919092169190839081106129d557634e487b7160e01b600052603260045260246000fd5b600091825260208083209190910180546001600160a01b0319166001600160a01b03948516179055918b16815261016b90915260409020600201805480612a2c57634e487b7160e01b600052603160045260246000fd5b600082815260209020810160001990810180546001600160a01b03191690550190555b8415612b63576001600160a01b038816600090815261016b60205260409020600401612a7c6001886158b9565b81548110612a9a57634e487b7160e01b600052603260045260246000fd5b60009182526020808320909101546001600160a01b038b8116845261016b9092526040909220600401805491909216919086908110612ae957634e487b7160e01b600052603260045260246000fd5b600091825260208083209190910180546001600160a01b0319166001600160a01b03948516179055918a16815261016b90915260409020600401805480612b4057634e487b7160e01b600052603160045260246000fd5b600082815260209020810160001990810180546001600160a01b03191690550190555b6001600160a01b03808a16600081815261016b60208181526040808420958e16808552600190960182528084208490559181528183208484526003019052808220829055517fb620e4928572d86c4aa852f12b72cdb824405b403dc7c3cb5d60dece51cb648c9190a3505050505050505050565b612bef60008051602061596983398151915233612c6a565b612c0b5760405162461bcd60e51b8152600401610bb7906156df565b60fc80546001600160a01b0390921661010002610100600160a81b0319909216919091179055565b612c4b600080516020615969833981519152336114cb565b33600090815260fb6020526040902080546001600160a01b0319169055565b600091825260c9602090815260408084206001600160a01b0393909316845291905290205460ff1690565b600054610100900460ff1680612cae575060005460ff16155b612cca5760405162461bcd60e51b8152600401610bb790615792565b600054610100900460ff16158015612cec576000805461ffff19166101011790555b612cf58261244c565b612cfd6146ac565b612d068461403d565b61016780546001600160a01b038086166001600160a01b03199283161790925561016480548a84169083161790556101638054898416908316179055610162805492881692909116919091179055670de0b6b3a76400006101685569010f0cf064dd59200000610161558015611937576000805461ff001916905550505050505050565b60fc5460ff1615612dad5760405162461bcd60e51b8152600401610bb790615817565b600261012f541415612dd15760405162461bcd60e51b8152600401610bb7906157e0565b600261012f556101625461016754604051637104c0e560e11b81526001600160a01b03928316929091169063e20981ca90612e1290339085906004016154ae565b602060405180830381600087803b158015612e2c57600080fd5b505af1158015612e40573d6000803e3d6000fd5b505050506040513d601f19601f82011682018060405250810190612e6491906153c1565b5033600090815261016c602052604090205461016154612e848483615843565b1115612ea657604051600162dbd46160e01b0319815260040160405180910390fd5b612eb08382615843565b33600090815261016c60205260408120919091556101698054859290612ed7908490615843565b90915550612ef290506001600160a01b03831633308661470b565b61016454612f0e906001600160a01b0384811691166000614732565b61016454612f29906001600160a01b03848116911685614732565b61016454610162546040516311f9fbc960e21b81526001600160a01b03928316926347e7ef2492612f619291169087906004016154ec565b602060405180830381600087803b158015612f7b57600080fd5b505af1158015612f8f573d6000803e3d6000fd5b505050506040513d601f19601f82011682018060405250810190612fb39190615343565b612fd057604051639a3107e160e01b815260040160405180910390fd5b60405183815233907f3dbdcfd4c1f2e08931aae3d544e149a1e643143f5234d166fe3debb7833884959060200161148d565b610165546001600160a01b03163314801590613024575061302233610c12565b155b156130425760405163458bc09b60e01b815260040160405180910390fd5b61304a614f18565b6001600160a01b038416600090815261016b6020908152604091829020600401805483518184028101840190945280845290918301828280156130b657602002820191906000526020600020905b81546001600160a01b03168152600190910190602001808311613098575b5050508284525050516000906001600160401b038111156130e757634e487b7160e01b600052604160045260246000fd5b60405190808252806020026020018201604052801561312057816020015b61310d614f6d565b8152602001906001900390816131055790505b5082515190915060005b8181101561325c5761313a614f6d565b845180518390811061315c57634e487b7160e01b600052603260045260246000fd5b6020908102919091018101516001600160a01b031660608701818152600091825261016c909252604090205460a087015251613198908961265e565b608086015260608501516131ab90611f41565b610100860181905260a0860151116131c957600060c08601526131e4565b8461010001518560a001516131de91906158b9565b60c08601525b6060850180516001600160a01b03168252608086015160208301525161320a9089613ae3565b604082015260c085015160608201528351819085908490811061323d57634e487b7160e01b600052603260045260246000fd5b602002602001018190525050808061325490615913565b91505061312a565b50815160005b81811015613392576101665484516001600160a01b039091169063a0d9987b9086908190859081106132a457634e487b7160e01b600052603260045260246000fd5b6020026020010151600001518a8a6040518563ffffffff1660e01b81526004016132d19493929190615552565b60206040518083038186803b1580156132e957600080fd5b505afa1580156132fd573d6000803e3d6000fd5b505050506040513d601f19601f8201168201806040525081019061332191906153c1565b61016b600086848151811061334657634e487b7160e01b600052603260045260246000fd5b602090810291909101810151516001600160a01b0390811683528282019390935260409182016000908120938d168152600590930190529020558061338a81615913565b915050613262565b5050505050505050565b6001600160a01b03808316600090815261016b602090815260408083209385168352600190930190529081205490806133d58585613ae3565b90506133e1858561265e565b91509250925092565b6001600160a01b03808316600090815261016b602090815260408083209385168352600390930190529081205490806134238486613ae3565b90506133e1848661265e565b6001600160a01b038116600090815261016b602090815260409182902060040180548351818402810184019094528084526060939283018282801561349d57602002820191906000526020600020905b81546001600160a01b0316815260019091019060200180831161347f575b50505050509050919050565b806134c7576040516365e52d5160e11b815260040160405180910390fd5b610169548111156134eb5760405163441ea20b60e01b815260040160405180910390fd5b61016554604051634da9983d60e11b81526001600160a01b0390911690639b53307a9061351c90859060040161549a565b60206040518083038186803b15801561353457600080fd5b505afa158015613548573d6000803e3d6000fd5b505050506040513d601f19601f8201168201806040525081019061356c9190615343565b6135895760405163f7d8046b60e01b815260040160405180910390fd5b60006135953384613ae3565b9050808211156135b85760405163678ec84b60e11b815260040160405180910390fd5b6135c3836001614467565b61016a548211156135e757604051634e62d08b60e11b815260040160405180910390fd5b6101675461016254604051637104c0e560e11b81526001600160a01b039283169263e20981ca92613620923392909116906004016154ae565b602060405180830381600087803b15801561363a57600080fd5b505af115801561364e573d6000803e3d6000fd5b505050506040513d601f19601f8201168201806040525081019061367291906153c1565b5033600090815261016c6020526040812080548492906136939084906158b9565b925050819055508161016960008282546136ad91906158b9565b925050819055508161016a60008282546136c791906158b9565b90915550506001600160a01b038316600090815261016d60205260409020548211613720576001600160a01b038316600090815261016d6020526040812080548492906137159084906158b9565b9091555061373b9050565b6001600160a01b038316600090815261016d60205260408120555b61374582826158b9565b33600090815261016b602090815260408083206001600160a01b03881684526005810183528184209490945560019093019052908120549061378784836158b9565b33600081815261016b602081815260408084206001600160a01b038c811686526001909101835281852087905592825280842094845260039094019052908290208390556101645461016254925163b8845f7560e01b815293945081169263b8845f75926137fb92169088906004016154ec565b600060405180830381600087803b15801561381557600080fd5b505af1158015613829573d6000803e3d6000fd5b50506101655460405163b8845f7560e01b81526001600160a01b03909116925063b8845f75915061386090889088906004016154ec565b600060405180830381600087803b15801561387a57600080fd5b505af115801561388e573d6000803e3d6000fd5b50506040518681526001600160a01b03881692503391507f721dd838cd211473250d3276b95ede5c746ea6711f9ca7364967246bf2c8db849060200160405180910390a35050505050565b60fc5460ff16156138fc5760405162461bcd60e51b8152600401610bb790615817565b600261012f5414156139205760405162461bcd60e51b8152600401610bb7906157e0565b600261012f556101675461016254604051637104c0e560e11b81526001600160a01b039283169263e20981ca9261395f923392909116906004016154ae565b602060405180830381600087803b15801561397957600080fd5b505af115801561398d573d6000803e3d6000fd5b505050506040513d601f19601f820116820180604052508101906139b191906153c1565b50600161012f55565b6139d260008051602061596983398151915233612c6a565b6139ee5760405162461bcd60e51b8152600401610bb7906156df565b6001600160a01b038116600090815261016b602052604090819020805460ff19166001179055517f5e1ee096236e8660dc7150f7b5ecb274fb28105175e61ace07f7525ab72ede449061244190839061549a565b600082815260c96020526040902060010154613a5e813361416d565b6114c68383614257565b613a8060008051602061596983398151915233612c6a565b613a9c5760405162461bcd60e51b8152600401610bb7906156df565b61016180549082905560408051828152602081018490527f4df262040f2b057fb44aa36002925ea5c877c6ce81fbb210b7e85ee1bc3a498491015b60405180910390a15050565b6001600160a01b03918216600090815261016b602090815260408083209390941682526005909201909152205490565b60008080613b2085613cd5565b805190915060005b8181101561203b576000838281518110613b5257634e487b7160e01b600052603260045260246000fd5b602090810291909101015161016554604051632592fb6760e01b81529192506000916001600160a01b0390911690632592fb6790613b9490859060040161549a565b60206040518083038186803b158015613bac57600080fd5b505afa158015613bc0573d6000803e3d6000fd5b505050506040513d601f19601f82011682018060405250810190613be491906153c1565b613bee90436158b9565b61016554604051634da9983d60e11b81529192506001600160a01b031690639b53307a90613c2090859060040161549a565b60206040518083038186803b158015613c3857600080fd5b505afa158015613c4c573d6000803e3d6000fd5b505050506040513d601f19601f82011682018060405250810190613c709190615343565b15613cc0576000613c81838b6133ea565b92505050818910613ca757613c96828261585b565b613ca09088615843565b9650613cbe565b613cb1898261585b565b613cbb9088615843565b96505b505b50508080613ccd90615913565b915050613b28565b6001600160a01b038116600090815261016b602090815260409182902060020180548351818402810184019094528084526060939283018282801561349d576020028201919060005260206000209081546001600160a01b0316815260019091019060200180831161347f5750505050509050919050565b613d6560008051602061596983398151915233612c6a565b613d815760405162461bcd60e51b8152600401610bb7906156df565b61016880549082905560408051828152602081018490527f498fc03364d7fc570a80360564e057678eefc3a22931b102a63fefff80bc87579101613ad7565b60fc5460ff1615613de35760405162461bcd60e51b8152600401610bb790615817565b613dec81610bf3565b15613e0a57604051638176867d60e01b815260040160405180910390fd5b610163546001600160a01b03828116600090815261016b60205260408120600401549190921691908190815b81811015613ed4576001600160a01b038616600090815261016b60205260409020600401805482908110613e7a57634e487b7160e01b600052603260045260246000fd5b6000918252602090912001546001600160a01b03169250613e9a83610bf3565b8015613eaf57506000613ead848861265e565b115b15613ec257613ebf600185615843565b93505b80613ecc81615913565b915050613e36565b5061016660009054906101000a90046001600160a01b03166001600160a01b03166351118cfb6040518163ffffffff1660e01b8152600401602060405180830381600087803b158015613f2657600080fd5b505af1158015613f3a573d6000803e3d6000fd5b505050506040513d601f19601f82011682018060405250810190613f5e91906153c1565b831015613f7e576040516302c0ac8f60e61b815260040160405180910390fd5b6001600160a01b03808616600090815261016b602052604090819020805460ff1916600117905561016854905163079cc67960e41b8152918616916379cc679091613fce913391906004016154ec565b600060405180830381600087803b158015613fe857600080fd5b505af1158015613ffc573d6000803e3d6000fd5b50506040516001600160a01b03881692503391507f9d20d3ae19788f508f4eab7f2347e8be09a77d3394e12b3f4ebb15f63c85b37a90600090a35050505050565b806001600160a01b031663b0db49306040518163ffffffff1660e01b815260040160206040518083038186803b15801561407657600080fd5b505afa15801561408a573d6000803e3d6000fd5b505050506040513d601f19601f820116820180604052508101906140ae9190615343565b6140cb57604051634573d3f960e01b815260040160405180910390fd5b61016680546001600160a01b0319166001600160a01b0383161790556040517f5d836e0ba607c52b1dceb0fd428714bc02d853f50390605467267c834f7c2af49061244190839061549a565b6114c68363a9059cbb60e01b84846040516024016141369291906154ec565b60408051601f198184030181529190526020810180516001600160e01b03166001600160e01b031990931692909217909152614844565b6141778282612c6a565b6115455761418f816001600160a01b03166014614916565b61419a836020614916565b6040516020016141ab92919061542b565b60408051601f198184030181529082905262461bcd60e51b8252610bb791600401615614565b6141db8282612c6a565b61154557600082815260c9602090815260408083206001600160a01b03851684529091529020805460ff191660011790556142133390565b6001600160a01b0316816001600160a01b0316837f2f8788117e7eff1d82e926ec794901d17c78024a50270940304540a733656f0d60405160405180910390a45050565b6142618282612c6a565b1561154557600082815260c9602090815260408083206001600160a01b0385168085529252808320805460ff1916905551339285917ff6391f5c32d9c69d2a47ea670b442974b53935d1edc7fd64eb21e047a839171b9190a45050565b7f360894a13ba1a3210667c828492db98dca3e2076cc3735a920a3ca505d382bbc546001600160a01b031690565b61430460008051602061596983398151915233612c6a565b610bf05760405162461bcd60e51b8152600401610bb7906156df565b600061432a6142be565b905061433584614afe565b6000835111806143425750815b15614353576143518484614ba3565b505b7f4910fdfa16fed3260ed0e7147f7cc6da11a60208b5b9406d12a635614ffd9143805460ff1661446057805460ff191660011781556040516143ce90869061439f90859060240161549a565b60408051601f198184030181529190526020810180516001600160e01b0316631b2ce7f360e11b179052614ba3565b50805460ff191681556143df6142be565b6001600160a01b0316826001600160a01b0316146144575760405162461bcd60e51b815260206004820152602f60248201527f45524331393637557067726164653a207570677261646520627265616b73206660448201526e75727468657220757067726164657360881b6064820152608401610bb7565b61446085614c85565b5050505050565b80156145a7576000805b6001600160a01b038416600090815261016b6020526040902060040154811015614514576001600160a01b038416600090815261016b602052604081206004018054839081106144d157634e487b7160e01b600052603260045260246000fd5b60009182526020822001546001600160a01b031691506144f18287613ae3565b90506144fd8185615843565b93505050808061450c90615913565b915050614471565b506001600160a01b038316600090815261016d6020526040902054614551578061016a60008282546145469190615843565b909155506145899050565b6001600160a01b038316600090815261016d602052604090205461016a5461457a908390615843565b61458491906158b9565b61016a555b6001600160a01b038316600090815261016d60205260409020555050565b6001600160a01b038216600090815261016d602052604090205461016a541115614604576001600160a01b038216600090815261016d602052604081205461016a8054919290916145f99084906158b9565b9091555061460b9050565b600061016a555b506001600160a01b0316600090815261016d6020526040812055565b600054610100900460ff1680614640575060005460ff16155b61465c5760405162461bcd60e51b8152600401610bb790615792565b600054610100900460ff1615801561467e576000805461ffff19166101011790555b614686614cc5565b61468e614cc5565b8015610bf0576000805461ff001916905550565b61154582826141d1565b600054610100900460ff16806146c5575060005460ff16155b6146e15760405162461bcd60e51b8152600401610bb790615792565b600054610100900460ff16158015614703576000805461ffff19166101011790555b61468e614d2f565b61472c846323b872dd60e01b858585604051602401614136939291906154c8565b50505050565b8015806147ba5750604051636eb1769f60e11b81526001600160a01b0384169063dd62ed3e9061476890309086906004016154ae565b60206040518083038186803b15801561478057600080fd5b505afa158015614794573d6000803e3d6000fd5b505050506040513d601f19601f820116820180604052508101906147b891906153c1565b155b6148255760405162461bcd60e51b815260206004820152603660248201527f5361666545524332303a20617070726f76652066726f6d206e6f6e2d7a65726f60448201527520746f206e6f6e2d7a65726f20616c6c6f77616e636560501b6064820152608401610bb7565b6114c68363095ea7b360e01b84846040516024016141369291906154ec565b6000614899826040518060400160405280602081526020017f5361666545524332303a206c6f772d6c6576656c2063616c6c206661696c6564815250856001600160a01b0316614da09092919063ffffffff16565b8051909150156114c657808060200190518101906148b79190615343565b6114c65760405162461bcd60e51b815260206004820152602a60248201527f5361666545524332303a204552433230206f7065726174696f6e20646964206e6044820152691bdd081cdd58d8d9595960b21b6064820152608401610bb7565b6060600061492583600261585b565b614930906002615843565b6001600160401b0381111561495557634e487b7160e01b600052604160045260246000fd5b6040519080825280601f01601f19166020018201604052801561497f576020820181803683370190505b509050600360fc1b816000815181106149a857634e487b7160e01b600052603260045260246000fd5b60200101906001600160f81b031916908160001a905350600f60fb1b816001815181106149e557634e487b7160e01b600052603260045260246000fd5b60200101906001600160f81b031916908160001a9053506000614a0984600261585b565b614a14906001615843565b90505b6001811115614aa8576f181899199a1a9b1b9c1cb0b131b232b360811b85600f1660108110614a5657634e487b7160e01b600052603260045260246000fd5b1a60f81b828281518110614a7a57634e487b7160e01b600052603260045260246000fd5b60200101906001600160f81b031916908160001a90535060049490941c93614aa1816158fc565b9050614a17565b508315614af75760405162461bcd60e51b815260206004820181905260248201527f537472696e67733a20686578206c656e67746820696e73756666696369656e746044820152606401610bb7565b9392505050565b803b614b625760405162461bcd60e51b815260206004820152602d60248201527f455243313936373a206e657720696d706c656d656e746174696f6e206973206e60448201526c1bdd08184818dbdb9d1c9858dd609a1b6064820152608401610bb7565b7f360894a13ba1a3210667c828492db98dca3e2076cc3735a920a3ca505d382bbc80546001600160a01b0319166001600160a01b0392909216919091179055565b6060823b614c025760405162461bcd60e51b815260206004820152602660248201527f416464726573733a2064656c65676174652063616c6c20746f206e6f6e2d636f6044820152651b9d1c9858dd60d21b6064820152608401610bb7565b600080846001600160a01b031684604051614c1d919061540f565b600060405180830381855af49150503d8060008114614c58576040519150601f19603f3d011682016040523d82523d6000602084013e614c5d565b606091505b50915091506126a9828260405180606001604052806027815260200161598960279139614db7565b614c8e81614afe565b6040516001600160a01b038216907fbc7cd75a20ee27fd9adebab32041f755214dbc6bffa90cc0225b39da2e5c2d3b90600090a250565b600054610100900460ff1680614cde575060005460ff16155b614cfa5760405162461bcd60e51b8152600401610bb790615792565b600054610100900460ff1615801561468e576000805461ffff19166101011790558015610bf0576000805461ff001916905550565b600054610100900460ff1680614d48575060005460ff16155b614d645760405162461bcd60e51b8152600401610bb790615792565b600054610100900460ff16158015614d86576000805461ffff19166101011790555b600161012f558015610bf0576000805461ff001916905550565b6060614daf8484600085614df0565b949350505050565b60608315614dc6575081614af7565b825115614dd65782518084602001fd5b8160405162461bcd60e51b8152600401610bb79190615614565b606082471015614e515760405162461bcd60e51b815260206004820152602660248201527f416464726573733a20696e73756666696369656e742062616c616e636520666f6044820152651c8818d85b1b60d21b6064820152608401610bb7565b843b614e9f5760405162461bcd60e51b815260206004820152601d60248201527f416464726573733a2063616c6c20746f206e6f6e2d636f6e74726163740000006044820152606401610bb7565b600080866001600160a01b03168587604051614ebb919061540f565b60006040518083038185875af1925050503d8060008114614ef8576040519150601f19603f3d011682016040523d82523d6000602084013e614efd565b606091505b5091509150614f0d828286614db7565b979650505050505050565b60405180610120016040528060608152602001606081526020016000815260200160006001600160a01b0316815260200160008152602001600081526020016000815260200160008152602001600081525090565b604051806080016040528060006001600160a01b031681526020016000815260200160008152602001600081525090565b80356001600160a01b0381168114614fb557600080fd5b919050565b60008083601f840112614fcb578081fd5b5081356001600160401b03811115614fe1578182fd5b6020830191508360208260051b8501011115614ffc57600080fd5b9250929050565b803560ff81168114614fb557600080fd5b600060208284031215615025578081fd5b614af782614f9e565b60008060408385031215615040578081fd5b61504983614f9e565b915061505760208401614f9e565b90509250929050565b60008060008060008060c08789031215615078578182fd5b61508187614f9e565b955061508f60208801614f9e565b945061509d60408801614f9e565b93506150ab60608801614f9e565b92506150b960808801614f9e565b91506150c760a08801614f9e565b90509295509295509295565b6000806000606084860312156150e7578283fd5b6150f084614f9e565b92506150fe60208501614f9e565b9150604084013590509250925092565b60008060408385031215615120578182fd5b61512983614f9e565b915060208301356151398161595a565b809150509250929050565b60008060408385031215615156578182fd5b61515f83614f9e565b915060208301356001600160401b038082111561517a578283fd5b818501915085601f83011261518d578283fd5b81358181111561519f5761519f615944565b604051601f8201601f19908116603f011681019083821181831017156151c7576151c7615944565b816040528281528860208487010111156151df578586fd5b82602086016020830137856020848301015280955050505050509250929050565b60008060408385031215615212578182fd5b61521b83614f9e565b946020939093013593505050565b60008060006060848603121561523d578283fd5b61524684614f9e565b925060208401359150604084013561525d8161595a565b809150509250925092565b60008060008060008060c08789031215615280578182fd5b61528987614f9e565b955060208701359450604087013593506152a560608801615003565b92506080870135915060a087013590509295509295509295565b600080600080604085870312156152d4578182fd5b84356001600160401b03808211156152ea578384fd5b6152f688838901614fba565b9096509450602087013591508082111561530e578384fd5b5061531b87828801614fba565b95989497509550505050565b600060208284031215615338578081fd5b8135614af78161595a565b600060208284031215615354578081fd5b8151614af78161595a565b600060208284031215615370578081fd5b5035919050565b60008060408385031215615389578182fd5b8235915061505760208401614f9e565b6000602082840312156153aa578081fd5b81356001600160e01b031981168114614af7578182fd5b6000602082840312156153d2578081fd5b5051919050565b60008060008060008060c087890312156153f1578384fd5b8635955060208701359450604087013593506152a560608801615003565b600082516154218184602087016158d0565b9190910192915050565b76020b1b1b2b9b9a1b7b73a3937b61d1030b1b1b7bab73a1604d1b81526000835161545d8160178501602088016158d0565b7001034b99036b4b9b9b4b733903937b6329607d1b601791840191820152835161548e8160288401602088016158d0565b01602801949350505050565b6001600160a01b0391909116815260200190565b6001600160a01b0392831681529116602082015260400190565b6001600160a01b039384168152919092166020820152604081019190915260600190565b6001600160a01b03929092168252602082015260400190565b6020808252825182820181905260009190848201906040850190845b818110156155465783516001600160a01b031683529284019291840191600101615521565b50909695505050505050565b608080825285518282018190526000919060209060a0850190828a01855b828110156155b357815180516001600160a01b03168552858101518686015260408082015190860152606090810151908501529285019290840190600101615570565b5050506001600160a01b03881685830152925050508360408301526126a9606083018415159052565b6020808252825182820181905260009190848201906040850190845b81811015615546578351835292840192918401916001016155f8565b60208152600082518060208401526156338160408501602087016158d0565b601f01601f19169190910160400192915050565b6020808252602c908201527f46756e6374696f6e206d7573742062652063616c6c6564207468726f7567682060408201526b19195b1959d85d1958d85b1b60a21b606082015260800190565b6020808252602c908201527f46756e6374696f6e206d7573742062652063616c6c6564207468726f7567682060408201526b6163746976652070726f787960a01b606082015260800190565b60208082526015908201527421b7b73a3937b63632b91d103737ba1030b236b4b760591b604082015260600190565b60208082526032908201527f436f6e74726f6c6c65723a2063616c6c657220646f6573206e6f7420686176656040820152712074686520677561726469616e20726f6c6560701b606082015260800190565b602080825260189082015277436f6e74726f6c6c65723a2061646472657373207a65726f60401b604082015260600190565b6020808252602e908201527f496e697469616c697a61626c653a20636f6e747261637420697320616c72656160408201526d191e481a5b9a5d1a585b1a5e995960921b606082015260800190565b6020808252601f908201527f5265656e7472616e637947756172643a207265656e7472616e742063616c6c00604082015260600190565b60208082526012908201527110dbdb9d1c9bdb1b195c8e881c185d5cd95960721b604082015260600190565b600082198211156158565761585661592e565b500190565b60008160001904831182151516156158755761587561592e565b500290565b60008083128015600160ff1b8501841216156158985761589861592e565b6001600160ff1b03840183138116156158b3576158b361592e565b50500390565b6000828210156158cb576158cb61592e565b500390565b60005b838110156158eb5781810151838201526020016158d3565b8381111561472c5750506000910152565b60008161590b5761590b61592e565b506000190190565b60006000198214156159275761592761592e565b5060010190565b634e487b7160e01b600052601160045260246000fd5b634e487b7160e01b600052604160045260246000fd5b8015158114610bf057600080fdfe2172861495e7b85edac73e3cd5fbb42dd675baadf627720e687bcfdaca025096416464726573733a206c6f772d6c6576656c2064656c65676174652063616c6c206661696c6564a2646970667358221220a9246ecd71e89117a2718b8a094c61f71f5393c2d7660bb94eebe1cc7ba91d3b64736f6c63430008040033",
    "devdoc": {
        "details": "Manages the Union members credit lines, and their vouchees and borrowers info.",
        "events": {
            "LogAddMember(address)": {
                "details": "Add new member event",
                "params": {
                    "member": "New member address"
                }
            },
            "LogCancelVouch(address,address)": {
                "details": "Cancel vouching for other member event",
                "params": {
                    "account": "New member's voucher address",
                    "borrower": "The address gets vouched for"
                }
            },
            "LogDebtWriteOff(address,address,uint256)": {
                "details": "DebtWriteOff event",
                "params": {
                    "amount": "The amount of write off",
                    "borrower": "The borrower's address",
                    "staker": "The staker's address"
                }
            },
            "LogNewCreditLimitModel(address)": {
                "details": "Update new credit limit model event",
                "params": {
                    "newCreditLimitModel": "New credit limit model address"
                }
            },
            "LogRegisterMember(address,address)": {
                "details": "New member application event",
                "params": {
                    "account": "New member's voucher address",
                    "borrower": "New member address"
                }
            },
            "LogSetNewMemberFee(uint256,uint256)": {
                "details": "set new member fee",
                "params": {
                    "newMemberFee": "new member fee",
                    "oldMemberFee": "old member fee"
                }
            },
            "LogSetUToken(address)": {
                "details": "set utoken address",
                "params": {
                    "uToken": "new uToken address"
                }
            },
            "LogStake(address,uint256)": {
                "details": "Stake event",
                "params": {
                    "account": "The staker's address",
                    "amount": "The amount of tokens to stake"
                }
            },
            "LogUnstake(address,uint256)": {
                "details": "Unstake event",
                "params": {
                    "account": "The staker's address",
                    "amount": "The amount of tokens to unstake"
                }
            },
            "LogUpdateTrust(address,address,uint256)": {
                "details": "Update vouch for existing member event",
                "params": {
                    "borrower": "The address gets vouched for",
                    "staker": "Trustee address",
                    "trustAmount": "Vouch amount"
                }
            }
        },
        "kind": "dev",
        "methods": {
            "addAdmin(address)": {
                "details": "Add a new admin account",
                "params": {
                    "account": "Account address"
                }
            },
            "addMember(address)": {
                "details": "Add member  Accept claims only from the admin",
                "params": {
                    "account": "Member address"
                }
            },
            "cancelVouch(address,address)": {
                "details": "Stop vouch for other member.",
                "params": {
                    "borrower": "borrower address",
                    "staker": "Staker address"
                }
            },
            "checkIsMember(address)": {
                "details": "Check if the account is a valid member",
                "params": {
                    "account": "Member address"
                },
                "returns": {
                    "_0": "Address whether is member"
                }
            },
            "getBorrowerAddresses(address)": {
                "details": "Get member borrowerAddresses",
                "params": {
                    "account": "Member address"
                },
                "returns": {
                    "_0": "Address array"
                }
            },
            "getBorrowerAsset(address,address)": {
                "details": "Get member backer asset",
                "params": {
                    "account": "Member address",
                    "borrower": "Borrower address"
                },
                "returns": {
                    "trustAmount": "vouchingAmount lockedStake. Trust amount, vouch amount, and locked stake amount"
                }
            },
            "getCreditLimit(address)": {
                "details": "Get the member's available credit line",
                "params": {
                    "borrower": "Member address"
                },
                "returns": {
                    "_0": "Credit line amount"
                }
            },
            "getLockedStake(address,address)": {
                "details": "Get staker locked stake for a borrower",
                "params": {
                    "borrower": "Borrower address",
                    "staker": "Staker address"
                },
                "returns": {
                    "_0": "LockedStake"
                }
            },
            "getRoleAdmin(bytes32)": {
                "details": "Returns the admin role that controls `role`. See {grantRole} and {revokeRole}. To change a role's admin, use {_setRoleAdmin}."
            },
            "getStakerAddresses(address)": {
                "details": "Get member stakerAddresses",
                "params": {
                    "account": "Member address"
                },
                "returns": {
                    "_0": "Address array"
                }
            },
            "getStakerAsset(address,address)": {
                "details": "Get member stakers asset",
                "params": {
                    "account": "Member address",
                    "staker": "Staker address"
                },
                "returns": {
                    "trustAmount": "lockedStake vouchingAmount. Vouch amount and lockedStake"
                }
            },
            "getStakerBalance(address)": {
                "details": "Get the user's deposited stake amount",
                "params": {
                    "account": "Member address"
                },
                "returns": {
                    "_0": "Deposited stake amount"
                }
            },
            "getTotalFrozenAmount(address)": {
                "details": "Get staker's defaulted / frozen staked token amount",
                "params": {
                    "staker": "Staker address"
                },
                "returns": {
                    "_0": "Frozen token amount"
                }
            },
            "getTotalLockedStake(address)": {
                "details": "Get the user's locked stake from all his backed loans",
                "params": {
                    "staker": "Staker address"
                },
                "returns": {
                    "_0": "LockedStake"
                }
            },
            "getVouchingAmount(address,address)": {
                "details": "Get vouching amount",
                "params": {
                    "borrower": "Borrower address",
                    "staker": "Staker address"
                }
            },
            "grantRole(bytes32,address)": {
                "details": "Grants `role` to `account`. If `account` had not been already granted `role`, emits a {RoleGranted} event. Requirements: - the caller must have ``role``'s admin role."
            },
            "hasRole(bytes32,address)": {
                "details": "Returns `true` if `account` has been granted `role`."
            },
            "isAdmin(address)": {
                "details": "Check if the address provided is the admin",
                "params": {
                    "account": "Account address"
                }
            },
            "pause()": {
                "details": "Called by a pauser to pause, triggers stopped state."
            },
            "paused()": {
                "details": "Returns true if the contract is paused, and false otherwise."
            },
            "registerMember(address)": {
                "details": "Apply for membership, and burn UnionToken as application fees",
                "params": {
                    "newMember": "New member address"
                }
            },
            "renounceAdmin()": {
                "details": "Renouce the admin from the sender's address"
            },
            "renounceRole(bytes32,address)": {
                "details": "Revokes `role` from the calling account. Roles are often managed via {grantRole} and {revokeRole}: this function's purpose is to provide a mechanism for accounts to lose their privileges if they are compromised (such as when a trusted device is misplaced). If the calling account had been revoked `role`, emits a {RoleRevoked} event. Requirements: - the caller must be `account`."
            },
            "repayLoanOverdue(address,address,uint256)": {
                "details": "Repay user's loan overdue, called only from the lending market",
                "params": {
                    "account": "User address",
                    "lastRepay": "Last repay block number",
                    "token": "The asset token repaying to"
                }
            },
            "revokeRole(bytes32,address)": {
                "details": "Revokes `role` from `account`. If `account` had been granted `role`, emits a {RoleRevoked} event. Requirements: - the caller must have ``role``'s admin role."
            },
            "setCreditLimitModel(address)": {
                "details": "Change the credit limit model  Accept claims only from the admin",
                "params": {
                    "newCreditLimitModel": "New credit limit model address"
                }
            },
            "setGuardian(address)": {
                "details": "Set pauseGuardian account",
                "params": {
                    "account": "Account address"
                }
            },
            "stake(uint256)": {
                "details": "Stake",
                "params": {
                    "amount": "Amount"
                }
            },
            "stakeWithPermit(uint256,uint256,uint256,uint8,bytes32,bytes32)": {
                "details": "stakeWithPermit",
                "params": {
                    "amount": "Amount"
                }
            },
            "supportsInterface(bytes4)": {
                "details": "See {IERC165-supportsInterface}."
            },
            "unpause()": {
                "details": "Called by a pauser to unpause, returns to normal state."
            },
            "unstake(uint256)": {
                "details": "Unstake",
                "params": {
                    "amount": "Amount"
                }
            },
            "updateLockedData(address,uint256,bool)": {
                "details": "Update userManager locked info",
                "params": {
                    "amount": "Borrow or repay amount(Including previously accrued interest)",
                    "borrower": "Borrower address",
                    "isBorrow": "True is borrow, false is repay"
                }
            },
            "updateTotalFrozen(address,bool)": {
                "details": "Update total frozen",
                "params": {
                    "account": "borrower address",
                    "isOverdue": "account is overdue"
                }
            },
            "updateTrust(address,uint256)": {
                "details": "Update the trust amount for exisitng members.",
                "params": {
                    "borrower_": "Account address",
                    "trustAmount": "Trust amount"
                }
            },
            "upgradeTo(address)": {
                "details": "Upgrade the implementation of the proxy to `newImplementation`. Calls {_authorizeUpgrade}. Emits an {Upgraded} event."
            },
            "upgradeToAndCall(address,bytes)": {
                "details": "Upgrade the implementation of the proxy to `newImplementation`, and subsequently execute the function call encoded in `data`. Calls {_authorizeUpgrade}. Emits an {Upgraded} event."
            }
        },
        "title": "UserManager Contract",
        "version": 1
    },
    "userdoc": {
        "kind": "user",
        "methods": {},
        "version": 1
    },
    "storageLayout": {
        "storage": [
            {
                "astId": 823,
                "contract": "contracts/user/UserManager.sol:UserManager",
                "label": "_initialized",
                "offset": 0,
                "slot": "0",
                "type": "t_bool"
            },
            {
                "astId": 826,
                "contract": "contracts/user/UserManager.sol:UserManager",
                "label": "_initializing",
                "offset": 1,
                "slot": "0",
                "type": "t_bool"
            },
            {
                "astId": 806,
                "contract": "contracts/user/UserManager.sol:UserManager",
                "label": "__gap",
                "offset": 0,
                "slot": "1",
                "type": "t_array(t_uint256)50_storage"
            },
            {
                "astId": 973,
                "contract": "contracts/user/UserManager.sol:UserManager",
                "label": "__gap",
                "offset": 0,
                "slot": "51",
                "type": "t_array(t_uint256)50_storage"
            },
            {
                "astId": 2453,
                "contract": "contracts/user/UserManager.sol:UserManager",
                "label": "__gap",
                "offset": 0,
                "slot": "101",
                "type": "t_array(t_uint256)50_storage"
            },
            {
                "astId": 3375,
                "contract": "contracts/user/UserManager.sol:UserManager",
                "label": "__gap",
                "offset": 0,
                "slot": "151",
                "type": "t_array(t_uint256)50_storage"
            },
            {
                "astId": 48,
                "contract": "contracts/user/UserManager.sol:UserManager",
                "label": "_roles",
                "offset": 0,
                "slot": "201",
                "type": "t_mapping(t_bytes32,t_struct(RoleData)43_storage)"
            },
            {
                "astId": 335,
                "contract": "contracts/user/UserManager.sol:UserManager",
                "label": "__gap",
                "offset": 0,
                "slot": "202",
                "type": "t_array(t_uint256)49_storage"
            },
            {
                "astId": 12125,
                "contract": "contracts/user/UserManager.sol:UserManager",
                "label": "_admins",
                "offset": 0,
                "slot": "251",
                "type": "t_mapping(t_address,t_address)"
            },
            {
                "astId": 12127,
                "contract": "contracts/user/UserManager.sol:UserManager",
                "label": "_paused",
                "offset": 0,
                "slot": "252",
                "type": "t_bool"
            },
            {
                "astId": 12129,
                "contract": "contracts/user/UserManager.sol:UserManager",
                "label": "pauseGuardian",
                "offset": 1,
                "slot": "252",
                "type": "t_address"
            },
            {
                "astId": 12369,
                "contract": "contracts/user/UserManager.sol:UserManager",
                "label": "______gap",
                "offset": 0,
                "slot": "253",
                "type": "t_array(t_uint256)50_storage"
            },
            {
                "astId": 988,
                "contract": "contracts/user/UserManager.sol:UserManager",
                "label": "_status",
                "offset": 0,
                "slot": "303",
                "type": "t_uint256"
            },
            {
                "astId": 1031,
                "contract": "contracts/user/UserManager.sol:UserManager",
                "label": "__gap",
                "offset": 0,
                "slot": "304",
                "type": "t_array(t_uint256)49_storage"
            },
            {
                "astId": 24439,
                "contract": "contracts/user/UserManager.sol:UserManager",
                "label": "maxStakeAmount",
                "offset": 0,
                "slot": "353",
                "type": "t_uint256"
            },
            {
                "astId": 24441,
                "contract": "contracts/user/UserManager.sol:UserManager",
                "label": "stakingToken",
                "offset": 0,
                "slot": "354",
                "type": "t_address"
            },
            {
                "astId": 24443,
                "contract": "contracts/user/UserManager.sol:UserManager",
                "label": "unionToken",
                "offset": 0,
                "slot": "355",
                "type": "t_address"
            },
            {
                "astId": 24445,
                "contract": "contracts/user/UserManager.sol:UserManager",
                "label": "assetManager",
                "offset": 0,
                "slot": "356",
                "type": "t_address"
            },
            {
                "astId": 24448,
                "contract": "contracts/user/UserManager.sol:UserManager",
                "label": "uToken",
                "offset": 0,
                "slot": "357",
                "type": "t_contract(IUToken)16903"
            },
            {
                "astId": 24451,
                "contract": "contracts/user/UserManager.sol:UserManager",
                "label": "creditLimitModel",
                "offset": 0,
                "slot": "358",
                "type": "t_contract(ICreditLimitModel)16508"
            },
            {
                "astId": 24454,
                "contract": "contracts/user/UserManager.sol:UserManager",
                "label": "comptroller",
                "offset": 0,
                "slot": "359",
                "type": "t_contract(IComptroller)16460"
            },
            {
                "astId": 24456,
                "contract": "contracts/user/UserManager.sol:UserManager",
                "label": "newMemberFee",
                "offset": 0,
                "slot": "360",
                "type": "t_uint256"
            },
            {
                "astId": 24459,
                "contract": "contracts/user/UserManager.sol:UserManager",
                "label": "totalStaked",
                "offset": 0,
                "slot": "361",
                "type": "t_uint256"
            },
            {
                "astId": 24462,
                "contract": "contracts/user/UserManager.sol:UserManager",
                "label": "totalFrozen",
                "offset": 0,
                "slot": "362",
                "type": "t_uint256"
            },
            {
                "astId": 24467,
                "contract": "contracts/user/UserManager.sol:UserManager",
                "label": "members",
                "offset": 0,
                "slot": "363",
                "type": "t_mapping(t_address,t_struct(Member)24394_storage)"
            },
            {
                "astId": 24471,
                "contract": "contracts/user/UserManager.sol:UserManager",
                "label": "stakers",
                "offset": 0,
                "slot": "364",
                "type": "t_mapping(t_address,t_uint256)"
            },
            {
                "astId": 24475,
                "contract": "contracts/user/UserManager.sol:UserManager",
                "label": "memberFrozen",
                "offset": 0,
                "slot": "365",
                "type": "t_mapping(t_address,t_uint256)"
            }
        ],
        "types": {
            "t_address": {
                "encoding": "inplace",
                "label": "address",
                "numberOfBytes": "20"
            },
            "t_array(t_address)dyn_storage": {
                "base": "t_address",
                "encoding": "dynamic_array",
                "label": "address[]",
                "numberOfBytes": "32"
            },
            "t_array(t_uint256)49_storage": {
                "base": "t_uint256",
                "encoding": "inplace",
                "label": "uint256[49]",
                "numberOfBytes": "1568"
            },
            "t_array(t_uint256)50_storage": {
                "base": "t_uint256",
                "encoding": "inplace",
                "label": "uint256[50]",
                "numberOfBytes": "1600"
            },
            "t_bool": {
                "encoding": "inplace",
                "label": "bool",
                "numberOfBytes": "1"
            },
            "t_bytes32": {
                "encoding": "inplace",
                "label": "bytes32",
                "numberOfBytes": "32"
            },
            "t_contract(IComptroller)16460": {
                "encoding": "inplace",
                "label": "contract IComptroller",
                "numberOfBytes": "20"
            },
            "t_contract(ICreditLimitModel)16508": {
                "encoding": "inplace",
                "label": "contract ICreditLimitModel",
                "numberOfBytes": "20"
            },
            "t_contract(IUToken)16903": {
                "encoding": "inplace",
                "label": "contract IUToken",
                "numberOfBytes": "20"
            },
            "t_mapping(t_address,t_address)": {
                "encoding": "mapping",
                "key": "t_address",
                "label": "mapping(address => address)",
                "numberOfBytes": "32",
                "value": "t_address"
            },
            "t_mapping(t_address,t_bool)": {
                "encoding": "mapping",
                "key": "t_address",
                "label": "mapping(address => bool)",
                "numberOfBytes": "32",
                "value": "t_bool"
            },
            "t_mapping(t_address,t_struct(Member)24394_storage)": {
                "encoding": "mapping",
                "key": "t_address",
                "label": "mapping(address => struct UserManager.Member)",
                "numberOfBytes": "32",
                "value": "t_struct(Member)24394_storage"
            },
            "t_mapping(t_address,t_uint256)": {
                "encoding": "mapping",
                "key": "t_address",
                "label": "mapping(address => uint256)",
                "numberOfBytes": "32",
                "value": "t_uint256"
            },
            "t_mapping(t_bytes32,t_struct(RoleData)43_storage)": {
                "encoding": "mapping",
                "key": "t_bytes32",
                "label": "mapping(bytes32 => struct AccessControlUpgradeable.RoleData)",
                "numberOfBytes": "32",
                "value": "t_struct(RoleData)43_storage"
            },
            "t_struct(CreditLine)24413_storage": {
                "encoding": "inplace",
                "label": "struct UserManager.CreditLine",
                "members": [
                    {
                        "astId": 24398,
                        "contract": "contracts/user/UserManager.sol:UserManager",
                        "label": "borrowers",
                        "offset": 0,
                        "slot": "0",
                        "type": "t_mapping(t_address,t_uint256)"
                    },
                    {
                        "astId": 24401,
                        "contract": "contracts/user/UserManager.sol:UserManager",
                        "label": "borrowerAddresses",
                        "offset": 0,
                        "slot": "1",
                        "type": "t_array(t_address)dyn_storage"
                    },
                    {
                        "astId": 24405,
                        "contract": "contracts/user/UserManager.sol:UserManager",
                        "label": "stakers",
                        "offset": 0,
                        "slot": "2",
                        "type": "t_mapping(t_address,t_uint256)"
                    },
                    {
                        "astId": 24408,
                        "contract": "contracts/user/UserManager.sol:UserManager",
                        "label": "stakerAddresses",
                        "offset": 0,
                        "slot": "3",
                        "type": "t_array(t_address)dyn_storage"
                    },
                    {
                        "astId": 24412,
                        "contract": "contracts/user/UserManager.sol:UserManager",
                        "label": "lockedAmount",
                        "offset": 0,
                        "slot": "4",
                        "type": "t_mapping(t_address,t_uint256)"
                    }
                ],
                "numberOfBytes": "160"
            },
            "t_struct(Member)24394_storage": {
                "encoding": "inplace",
                "label": "struct UserManager.Member",
                "members": [
                    {
                        "astId": 24390,
                        "contract": "contracts/user/UserManager.sol:UserManager",
                        "label": "isMember",
                        "offset": 0,
                        "slot": "0",
                        "type": "t_bool"
                    },
                    {
                        "astId": 24393,
                        "contract": "contracts/user/UserManager.sol:UserManager",
                        "label": "creditLine",
                        "offset": 0,
                        "slot": "1",
                        "type": "t_struct(CreditLine)24413_storage"
                    }
                ],
                "numberOfBytes": "192"
            },
            "t_struct(RoleData)43_storage": {
                "encoding": "inplace",
                "label": "struct AccessControlUpgradeable.RoleData",
                "members": [
                    {
                        "astId": 40,
                        "contract": "contracts/user/UserManager.sol:UserManager",
                        "label": "members",
                        "offset": 0,
                        "slot": "0",
                        "type": "t_mapping(t_address,t_bool)"
                    },
                    {
                        "astId": 42,
                        "contract": "contracts/user/UserManager.sol:UserManager",
                        "label": "adminRole",
                        "offset": 0,
                        "slot": "1",
                        "type": "t_bytes32"
                    }
                ],
                "numberOfBytes": "64"
            },
            "t_uint256": {
                "encoding": "inplace",
                "label": "uint256",
                "numberOfBytes": "32"
            }
        }
    }
}