{
  "address": "0x165e8A111A7cDf6faF562c21E376773a117Be5Fb",
  "abi": [
    {
      "anonymous": false,
      "inputs": [
        {
          "indexed": false,
          "internalType": "address",
          "name": "previousAdmin",
          "type": "address"
        },
        {
          "indexed": false,
          "internalType": "address",
          "name": "newAdmin",
          "type": "address"
        }
      ],
      "name": "AdminChanged",
      "type": "event"
    },
    {
      "anonymous": false,
      "inputs": [
        {
          "indexed": true,
          "internalType": "address",
          "name": "beacon",
          "type": "address"
        }
      ],
      "name": "BeaconUpgraded",
      "type": "event"
    },
    {
      "anonymous": false,
      "inputs": [
        {
          "indexed": false,
          "internalType": "address",
          "name": "member",
          "type": "address"
        }
      ],
      "name": "LogAddMember",
      "type": "event"
    },
    {
      "anonymous": false,
      "inputs": [
        {
          "indexed": true,
          "internalType": "address",
          "name": "account",
          "type": "address"
        },
        {
          "indexed": true,
          "internalType": "address",
          "name": "borrower",
          "type": "address"
        }
      ],
      "name": "LogCancelVouch",
      "type": "event"
    },
    {
      "anonymous": false,
      "inputs": [
        {
          "indexed": true,
          "internalType": "address",
          "name": "staker",
          "type": "address"
        },
        {
          "indexed": true,
          "internalType": "address",
          "name": "borrower",
          "type": "address"
        },
        {
          "indexed": false,
          "internalType": "uint256",
          "name": "amount",
          "type": "uint256"
        }
      ],
      "name": "LogDebtWriteOff",
      "type": "event"
    },
    {
      "anonymous": false,
      "inputs": [
        {
          "indexed": false,
          "internalType": "address",
          "name": "newCreditLimitModel",
          "type": "address"
        }
      ],
      "name": "LogNewCreditLimitModel",
      "type": "event"
    },
    {
      "anonymous": false,
      "inputs": [
        {
          "indexed": true,
          "internalType": "address",
          "name": "account",
          "type": "address"
        },
        {
          "indexed": true,
          "internalType": "address",
          "name": "borrower",
          "type": "address"
        }
      ],
      "name": "LogRegisterMember",
      "type": "event"
    },
    {
      "anonymous": false,
      "inputs": [
        {
          "indexed": false,
          "internalType": "uint256",
          "name": "oldMemberFee",
          "type": "uint256"
        },
        {
          "indexed": false,
          "internalType": "uint256",
          "name": "newMemberFee",
          "type": "uint256"
        }
      ],
      "name": "LogSetNewMemberFee",
      "type": "event"
    },
    {
      "anonymous": false,
      "inputs": [
        {
          "indexed": false,
          "internalType": "address",
          "name": "uToken",
          "type": "address"
        }
      ],
      "name": "LogSetUToken",
      "type": "event"
    },
    {
      "anonymous": false,
      "inputs": [
        {
          "indexed": true,
          "internalType": "address",
          "name": "account",
          "type": "address"
        },
        {
          "indexed": false,
          "internalType": "uint256",
          "name": "amount",
          "type": "uint256"
        }
      ],
      "name": "LogStake",
      "type": "event"
    },
    {
      "anonymous": false,
      "inputs": [
        {
          "indexed": true,
          "internalType": "address",
          "name": "account",
          "type": "address"
        },
        {
          "indexed": false,
          "internalType": "uint256",
          "name": "amount",
          "type": "uint256"
        }
      ],
      "name": "LogUnstake",
      "type": "event"
    },
    {
      "anonymous": false,
      "inputs": [
        {
          "indexed": true,
          "internalType": "address",
          "name": "staker",
          "type": "address"
        },
        {
          "indexed": true,
          "internalType": "address",
          "name": "borrower",
          "type": "address"
        },
        {
          "indexed": false,
          "internalType": "uint256",
          "name": "trustAmount",
          "type": "uint256"
        }
      ],
      "name": "LogUpdateTrust",
      "type": "event"
    },
    {
      "anonymous": false,
      "inputs": [
        {
          "indexed": false,
          "internalType": "address",
          "name": "account",
          "type": "address"
        }
      ],
      "name": "Paused",
      "type": "event"
    },
    {
      "anonymous": false,
      "inputs": [
        {
          "indexed": true,
          "internalType": "bytes32",
          "name": "role",
          "type": "bytes32"
        },
        {
          "indexed": true,
          "internalType": "bytes32",
          "name": "previousAdminRole",
          "type": "bytes32"
        },
        {
          "indexed": true,
          "internalType": "bytes32",
          "name": "newAdminRole",
          "type": "bytes32"
        }
      ],
      "name": "RoleAdminChanged",
      "type": "event"
    },
    {
      "anonymous": false,
      "inputs": [
        {
          "indexed": true,
          "internalType": "bytes32",
          "name": "role",
          "type": "bytes32"
        },
        {
          "indexed": true,
          "internalType": "address",
          "name": "account",
          "type": "address"
        },
        {
          "indexed": true,
          "internalType": "address",
          "name": "sender",
          "type": "address"
        }
      ],
      "name": "RoleGranted",
      "type": "event"
    },
    {
      "anonymous": false,
      "inputs": [
        {
          "indexed": true,
          "internalType": "bytes32",
          "name": "role",
          "type": "bytes32"
        },
        {
          "indexed": true,
          "internalType": "address",
          "name": "account",
          "type": "address"
        },
        {
          "indexed": true,
          "internalType": "address",
          "name": "sender",
          "type": "address"
        }
      ],
      "name": "RoleRevoked",
      "type": "event"
    },
    {
      "anonymous": false,
      "inputs": [
        {
          "indexed": false,
          "internalType": "address",
          "name": "account",
          "type": "address"
        }
      ],
      "name": "Unpaused",
      "type": "event"
    },
    {
      "anonymous": false,
      "inputs": [
        {
          "indexed": true,
          "internalType": "address",
          "name": "implementation",
          "type": "address"
        }
      ],
      "name": "Upgraded",
      "type": "event"
    },
    {
      "inputs": [],
      "name": "DEFAULT_ADMIN_ROLE",
      "outputs": [
        {
          "internalType": "bytes32",
          "name": "",
          "type": "bytes32"
        }
      ],
      "stateMutability": "view",
      "type": "function"
    },
    {
      "inputs": [],
      "name": "MAX_STAKE_AMOUNT",
      "outputs": [
        {
          "internalType": "uint256",
          "name": "",
          "type": "uint256"
        }
      ],
      "stateMutability": "view",
      "type": "function"
    },
    {
      "inputs": [],
      "name": "MAX_TRUST_LIMIT",
      "outputs": [
        {
          "internalType": "uint256",
          "name": "",
          "type": "uint256"
        }
      ],
      "stateMutability": "view",
      "type": "function"
    },
    {
      "inputs": [],
      "name": "ROLE_ADMIN",
      "outputs": [
        {
          "internalType": "bytes32",
          "name": "",
          "type": "bytes32"
        }
      ],
      "stateMutability": "view",
      "type": "function"
    },
    {
      "inputs": [
        {
          "internalType": "address",
          "name": "admin_",
          "type": "address"
        }
      ],
      "name": "__Controller_init",
      "outputs": [],
      "stateMutability": "nonpayable",
      "type": "function"
    },
    {
      "inputs": [
        {
          "internalType": "address",
          "name": "assetManager_",
          "type": "address"
        },
        {
          "internalType": "address",
          "name": "unionToken_",
          "type": "address"
        },
        {
          "internalType": "address",
          "name": "stakingToken_",
          "type": "address"
        },
        {
          "internalType": "address",
          "name": "creditLimitModel_",
          "type": "address"
        },
        {
          "internalType": "address",
          "name": "comptroller_",
          "type": "address"
        },
        {
          "internalType": "address",
          "name": "admin_",
          "type": "address"
        }
      ],
      "name": "__UserManager_init",
      "outputs": [],
      "stateMutability": "nonpayable",
      "type": "function"
    },
    {
      "inputs": [
        {
          "internalType": "address",
          "name": "account",
          "type": "address"
        }
      ],
      "name": "addAdmin",
      "outputs": [],
      "stateMutability": "nonpayable",
      "type": "function"
    },
    {
      "inputs": [
        {
          "internalType": "address",
          "name": "account",
          "type": "address"
        }
      ],
      "name": "addMember",
      "outputs": [],
      "stateMutability": "nonpayable",
      "type": "function"
    },
    {
      "inputs": [],
      "name": "assetManager",
      "outputs": [
        {
          "internalType": "address",
          "name": "",
          "type": "address"
        }
      ],
      "stateMutability": "view",
      "type": "function"
    },
    {
      "inputs": [
        {
          "internalType": "address[]",
          "name": "accounts",
          "type": "address[]"
        },
        {
          "internalType": "bool[]",
          "name": "isOverdues",
          "type": "bool[]"
        }
      ],
      "name": "batchUpdateTotalFrozen",
      "outputs": [],
      "stateMutability": "nonpayable",
      "type": "function"
    },
    {
      "inputs": [
        {
          "internalType": "address",
          "name": "staker",
          "type": "address"
        },
        {
          "internalType": "address",
          "name": "borrower",
          "type": "address"
        }
      ],
      "name": "cancelVouch",
      "outputs": [],
      "stateMutability": "nonpayable",
      "type": "function"
    },
    {
      "inputs": [
        {
          "internalType": "address",
          "name": "account",
          "type": "address"
        }
      ],
      "name": "checkIsMember",
      "outputs": [
        {
          "internalType": "bool",
          "name": "",
          "type": "bool"
        }
      ],
      "stateMutability": "view",
      "type": "function"
    },
    {
      "inputs": [],
      "name": "comptroller",
      "outputs": [
        {
          "internalType": "contract IComptroller",
          "name": "",
          "type": "address"
        }
      ],
      "stateMutability": "view",
      "type": "function"
    },
    {
      "inputs": [],
      "name": "creditLimitModel",
      "outputs": [
        {
          "internalType": "contract ICreditLimitModel",
          "name": "",
          "type": "address"
        }
      ],
      "stateMutability": "view",
      "type": "function"
    },
    {
      "inputs": [
        {
          "internalType": "address",
          "name": "borrower",
          "type": "address"
        },
        {
          "internalType": "uint256",
          "name": "amount",
          "type": "uint256"
        }
      ],
      "name": "debtWriteOff",
      "outputs": [],
      "stateMutability": "nonpayable",
      "type": "function"
    },
    {
      "inputs": [
        {
          "internalType": "address",
          "name": "account",
          "type": "address"
        }
      ],
      "name": "getBorrowerAddresses",
      "outputs": [
        {
          "internalType": "address[]",
          "name": "",
          "type": "address[]"
        }
      ],
      "stateMutability": "view",
      "type": "function"
    },
    {
      "inputs": [
        {
          "internalType": "address",
          "name": "account",
          "type": "address"
        },
        {
          "internalType": "address",
          "name": "borrower",
          "type": "address"
        }
      ],
      "name": "getBorrowerAsset",
      "outputs": [
        {
          "internalType": "uint256",
          "name": "trustAmount",
          "type": "uint256"
        },
        {
          "internalType": "uint256",
          "name": "vouchingAmount",
          "type": "uint256"
        },
        {
          "internalType": "uint256",
          "name": "lockedStake",
          "type": "uint256"
        }
      ],
      "stateMutability": "view",
      "type": "function"
    },
    {
      "inputs": [
        {
          "internalType": "address",
          "name": "borrower",
          "type": "address"
        }
      ],
      "name": "getCreditLimit",
      "outputs": [
        {
          "internalType": "int256",
          "name": "",
          "type": "int256"
        }
      ],
      "stateMutability": "view",
      "type": "function"
    },
    {
      "inputs": [
        {
          "internalType": "address",
          "name": "staker",
          "type": "address"
        },
        {
          "internalType": "uint256",
          "name": "pastBlocks",
          "type": "uint256"
        }
      ],
      "name": "getFrozenCoinAge",
      "outputs": [
        {
          "internalType": "uint256",
          "name": "",
          "type": "uint256"
        }
      ],
      "stateMutability": "view",
      "type": "function"
    },
    {
      "inputs": [
        {
          "internalType": "address",
          "name": "staker",
          "type": "address"
        },
        {
          "internalType": "address",
          "name": "borrower",
          "type": "address"
        }
      ],
      "name": "getLockedStake",
      "outputs": [
        {
          "internalType": "uint256",
          "name": "",
          "type": "uint256"
        }
      ],
      "stateMutability": "view",
      "type": "function"
    },
    {
      "inputs": [
        {
          "internalType": "bytes32",
          "name": "role",
          "type": "bytes32"
        }
      ],
      "name": "getRoleAdmin",
      "outputs": [
        {
          "internalType": "bytes32",
          "name": "",
          "type": "bytes32"
        }
      ],
      "stateMutability": "view",
      "type": "function"
    },
    {
      "inputs": [
        {
          "internalType": "address",
          "name": "account",
          "type": "address"
        }
      ],
      "name": "getStakerAddresses",
      "outputs": [
        {
          "internalType": "address[]",
          "name": "",
          "type": "address[]"
        }
      ],
      "stateMutability": "view",
      "type": "function"
    },
    {
      "inputs": [
        {
          "internalType": "address",
          "name": "account",
          "type": "address"
        },
        {
          "internalType": "address",
          "name": "staker",
          "type": "address"
        }
      ],
      "name": "getStakerAsset",
      "outputs": [
        {
          "internalType": "uint256",
          "name": "trustAmount",
          "type": "uint256"
        },
        {
          "internalType": "uint256",
          "name": "vouchingAmount",
          "type": "uint256"
        },
        {
          "internalType": "uint256",
          "name": "lockedStake",
          "type": "uint256"
        }
      ],
      "stateMutability": "view",
      "type": "function"
    },
    {
      "inputs": [
        {
          "internalType": "address",
          "name": "account",
          "type": "address"
        }
      ],
      "name": "getStakerBalance",
      "outputs": [
        {
          "internalType": "uint256",
          "name": "",
          "type": "uint256"
        }
      ],
      "stateMutability": "view",
      "type": "function"
    },
    {
      "inputs": [
        {
          "internalType": "address",
          "name": "staker",
          "type": "address"
        }
      ],
      "name": "getTotalFrozenAmount",
      "outputs": [
        {
          "internalType": "uint256",
          "name": "",
          "type": "uint256"
        }
      ],
      "stateMutability": "view",
      "type": "function"
    },
    {
      "inputs": [
        {
          "internalType": "address",
          "name": "staker",
          "type": "address"
        }
      ],
      "name": "getTotalLockedStake",
      "outputs": [
        {
          "internalType": "uint256",
          "name": "",
          "type": "uint256"
        }
      ],
      "stateMutability": "view",
      "type": "function"
    },
    {
      "inputs": [
        {
          "internalType": "address",
          "name": "staker",
          "type": "address"
        },
        {
          "internalType": "address",
          "name": "borrower",
          "type": "address"
        }
      ],
      "name": "getVouchingAmount",
      "outputs": [
        {
          "internalType": "uint256",
          "name": "",
          "type": "uint256"
        }
      ],
      "stateMutability": "view",
      "type": "function"
    },
    {
      "inputs": [
        {
          "internalType": "bytes32",
          "name": "role",
          "type": "bytes32"
        },
        {
          "internalType": "address",
          "name": "account",
          "type": "address"
        }
      ],
      "name": "grantRole",
      "outputs": [],
      "stateMutability": "nonpayable",
      "type": "function"
    },
    {
      "inputs": [
        {
          "internalType": "bytes32",
          "name": "role",
          "type": "bytes32"
        },
        {
          "internalType": "address",
          "name": "account",
          "type": "address"
        }
      ],
      "name": "hasRole",
      "outputs": [
        {
          "internalType": "bool",
          "name": "",
          "type": "bool"
        }
      ],
      "stateMutability": "view",
      "type": "function"
    },
    {
      "inputs": [
        {
          "internalType": "address",
          "name": "account",
          "type": "address"
        }
      ],
      "name": "isAdmin",
      "outputs": [
        {
          "internalType": "bool",
          "name": "",
          "type": "bool"
        }
      ],
      "stateMutability": "view",
      "type": "function"
    },
    {
      "inputs": [
        {
          "internalType": "address",
          "name": "",
          "type": "address"
        }
      ],
      "name": "memberFrozen",
      "outputs": [
        {
          "internalType": "uint256",
          "name": "",
          "type": "uint256"
        }
      ],
      "stateMutability": "view",
      "type": "function"
    },
    {
      "inputs": [],
      "name": "newMemberFee",
      "outputs": [
        {
          "internalType": "uint256",
          "name": "",
          "type": "uint256"
        }
      ],
      "stateMutability": "view",
      "type": "function"
    },
    {
      "inputs": [],
      "name": "pause",
      "outputs": [],
      "stateMutability": "nonpayable",
      "type": "function"
    },
    {
      "inputs": [],
      "name": "pauseGuardian",
      "outputs": [
        {
          "internalType": "address",
          "name": "",
          "type": "address"
        }
      ],
      "stateMutability": "view",
      "type": "function"
    },
    {
      "inputs": [],
      "name": "paused",
      "outputs": [
        {
          "internalType": "bool",
          "name": "",
          "type": "bool"
        }
      ],
      "stateMutability": "view",
      "type": "function"
    },
    {
      "inputs": [
        {
          "internalType": "address",
          "name": "newMember",
          "type": "address"
        }
      ],
      "name": "registerMember",
      "outputs": [],
      "stateMutability": "nonpayable",
      "type": "function"
    },
    {
      "inputs": [
        {
          "internalType": "address",
          "name": "newMember",
          "type": "address"
        },
        {
          "internalType": "uint256",
          "name": "value",
          "type": "uint256"
        },
        {
          "internalType": "uint256",
          "name": "deadline",
          "type": "uint256"
        },
        {
          "internalType": "uint8",
          "name": "v",
          "type": "uint8"
        },
        {
          "internalType": "bytes32",
          "name": "r",
          "type": "bytes32"
        },
        {
          "internalType": "bytes32",
          "name": "s",
          "type": "bytes32"
        }
      ],
      "name": "registerMemberWithPermit",
      "outputs": [],
      "stateMutability": "nonpayable",
      "type": "function"
    },
    {
      "inputs": [],
      "name": "renounceAdmin",
      "outputs": [],
      "stateMutability": "nonpayable",
      "type": "function"
    },
    {
      "inputs": [
        {
          "internalType": "bytes32",
          "name": "role",
          "type": "bytes32"
        },
        {
          "internalType": "address",
          "name": "account",
          "type": "address"
        }
      ],
      "name": "renounceRole",
      "outputs": [],
      "stateMutability": "nonpayable",
      "type": "function"
    },
    {
      "inputs": [
        {
          "internalType": "address",
          "name": "account",
          "type": "address"
        },
        {
          "internalType": "address",
          "name": "token",
          "type": "address"
        },
        {
          "internalType": "uint256",
          "name": "lastRepay",
          "type": "uint256"
        }
      ],
      "name": "repayLoanOverdue",
      "outputs": [],
      "stateMutability": "nonpayable",
      "type": "function"
    },
    {
      "inputs": [
        {
          "internalType": "bytes32",
          "name": "role",
          "type": "bytes32"
        },
        {
          "internalType": "address",
          "name": "account",
          "type": "address"
        }
      ],
      "name": "revokeRole",
      "outputs": [],
      "stateMutability": "nonpayable",
      "type": "function"
    },
    {
      "inputs": [
        {
          "internalType": "address",
          "name": "newCreditLimitModel",
          "type": "address"
        }
      ],
      "name": "setCreditLimitModel",
      "outputs": [],
      "stateMutability": "nonpayable",
      "type": "function"
    },
    {
      "inputs": [
        {
          "internalType": "address",
          "name": "account",
          "type": "address"
        }
      ],
      "name": "setGuardian",
      "outputs": [],
      "stateMutability": "nonpayable",
      "type": "function"
    },
    {
      "inputs": [
        {
          "internalType": "uint256",
          "name": "amount",
          "type": "uint256"
        }
      ],
      "name": "setNewMemberFee",
      "outputs": [],
      "stateMutability": "nonpayable",
      "type": "function"
    },
    {
      "inputs": [
        {
          "internalType": "address",
          "name": "uToken_",
          "type": "address"
        }
      ],
      "name": "setUToken",
      "outputs": [],
      "stateMutability": "nonpayable",
      "type": "function"
    },
    {
      "inputs": [
        {
          "internalType": "uint256",
          "name": "amount",
          "type": "uint256"
        }
      ],
      "name": "stake",
      "outputs": [],
      "stateMutability": "nonpayable",
      "type": "function"
    },
    {
      "inputs": [
        {
          "internalType": "uint256",
          "name": "amount",
          "type": "uint256"
        },
        {
          "internalType": "uint256",
          "name": "nonce",
          "type": "uint256"
        },
        {
          "internalType": "uint256",
          "name": "expiry",
          "type": "uint256"
        },
        {
          "internalType": "uint8",
          "name": "v",
          "type": "uint8"
        },
        {
          "internalType": "bytes32",
          "name": "r",
          "type": "bytes32"
        },
        {
          "internalType": "bytes32",
          "name": "s",
          "type": "bytes32"
        }
      ],
      "name": "stakeWithPermit",
      "outputs": [],
      "stateMutability": "nonpayable",
      "type": "function"
    },
    {
      "inputs": [
        {
          "internalType": "address",
          "name": "",
          "type": "address"
        }
      ],
      "name": "stakers",
      "outputs": [
        {
          "internalType": "uint256",
          "name": "",
          "type": "uint256"
        }
      ],
      "stateMutability": "view",
      "type": "function"
    },
    {
      "inputs": [],
      "name": "stakingToken",
      "outputs": [
        {
          "internalType": "address",
          "name": "",
          "type": "address"
        }
      ],
      "stateMutability": "view",
      "type": "function"
    },
    {
      "inputs": [
        {
          "internalType": "bytes4",
          "name": "interfaceId",
          "type": "bytes4"
        }
      ],
      "name": "supportsInterface",
      "outputs": [
        {
          "internalType": "bool",
          "name": "",
          "type": "bool"
        }
      ],
      "stateMutability": "view",
      "type": "function"
    },
    {
      "inputs": [],
      "name": "totalFrozen",
      "outputs": [
        {
          "internalType": "uint256",
          "name": "",
          "type": "uint256"
        }
      ],
      "stateMutability": "view",
      "type": "function"
    },
    {
      "inputs": [],
      "name": "totalStaked",
      "outputs": [
        {
          "internalType": "uint256",
          "name": "",
          "type": "uint256"
        }
      ],
      "stateMutability": "view",
      "type": "function"
    },
    {
      "inputs": [],
      "name": "uToken",
      "outputs": [
        {
          "internalType": "contract IUToken",
          "name": "",
          "type": "address"
        }
      ],
      "stateMutability": "view",
      "type": "function"
    },
    {
      "inputs": [],
      "name": "unionToken",
      "outputs": [
        {
          "internalType": "address",
          "name": "",
          "type": "address"
        }
      ],
      "stateMutability": "view",
      "type": "function"
    },
    {
      "inputs": [],
      "name": "unpause",
      "outputs": [],
      "stateMutability": "nonpayable",
      "type": "function"
    },
    {
      "inputs": [
        {
          "internalType": "uint256",
          "name": "amount",
          "type": "uint256"
        }
      ],
      "name": "unstake",
      "outputs": [],
      "stateMutability": "nonpayable",
      "type": "function"
    },
    {
      "inputs": [
        {
          "internalType": "address",
          "name": "borrower",
          "type": "address"
        },
        {
          "internalType": "uint256",
          "name": "amount",
          "type": "uint256"
        },
        {
          "internalType": "bool",
          "name": "isBorrow",
          "type": "bool"
        }
      ],
      "name": "updateLockedData",
      "outputs": [],
      "stateMutability": "nonpayable",
      "type": "function"
    },
    {
      "inputs": [
        {
          "internalType": "address",
          "name": "account",
          "type": "address"
        },
        {
          "internalType": "bool",
          "name": "isOverdue",
          "type": "bool"
        }
      ],
      "name": "updateTotalFrozen",
      "outputs": [],
      "stateMutability": "nonpayable",
      "type": "function"
    },
    {
      "inputs": [
        {
          "internalType": "address",
          "name": "borrower_",
          "type": "address"
        },
        {
          "internalType": "uint256",
          "name": "trustAmount",
          "type": "uint256"
        }
      ],
      "name": "updateTrust",
      "outputs": [],
      "stateMutability": "nonpayable",
      "type": "function"
    },
    {
      "inputs": [
        {
          "internalType": "address",
          "name": "newImplementation",
          "type": "address"
        }
      ],
      "name": "upgradeTo",
      "outputs": [],
      "stateMutability": "nonpayable",
      "type": "function"
    },
    {
      "inputs": [
        {
          "internalType": "address",
          "name": "newImplementation",
          "type": "address"
        },
        {
          "internalType": "bytes",
          "name": "data",
          "type": "bytes"
        }
      ],
      "name": "upgradeToAndCall",
      "outputs": [],
      "stateMutability": "payable",
      "type": "function"
    },
    {
      "inputs": [],
      "name": "withdrawRewards",
      "outputs": [],
      "stateMutability": "nonpayable",
      "type": "function"
    }
  ],
  "transactionHash": "0x1719475df2f528c5806c69e0e3e1041b8142d49628241df6d27774e308e67eb4",
  "args": [],
  "solcInputHash": "1bad13edcd3c88f2ca9238985c18d480",
  "bytecode": "0x608060405234801561001057600080fd5b50615f8f80620000216000396000f3fe60806040526004361061032d5760003560e01c806370480275116101a7578063b157bf03116100ed578063dd2368c911610090578063dd2368c914610a30578063dd63f76214610a50578063eab2039e14610a70578063eb14845914610a85578063f015846114610aa5578063f70222e114610ac6578063fa84a8a314610ae7578063fcb4888e14610b0757600080fd5b8063b157bf0314610911578063b40d57fd1461094c578063b6a93faf1461096c578063b8845f7514610999578063c7b8981c146109b9578063ca6d56dc146109ce578063d391014b146109ee578063d547741f14610a1057600080fd5b80638bad0c0a116101555780638bad0c0a146108185780639168ae721461082d57806391d148541461085b57806394217ad11461087b5780639f3da8ef1461089c578063a217fddf146108bc578063a694fc3a146108d1578063ab4ffaa9146108f157600080fd5b8063704802751461074b5780637223325d1461076b57806372f702f31461078b578063817b1cd2146107ac5780638456cb59146107c357806385bde8f2146107d85780638a0dac4a146107f857600080fd5b80633659cfe611610277578063591d637d1161021a578063591d637d1461065a5780635c975abb1461067a5780635d40db1e146106925780635fe3b567146106b257806363315637146106d3578063644214f6146106f457806364a118a11461070b5780636c461a731461072b57600080fd5b80633659cfe61461057257806337262d38146105925780633f4ba83a146105b25780633feaf532146105c757806343fbb8f5146105e75780634f1ef286146106075780635668b02e1461061a578063574dadba1461063a57600080fd5b80632640d9db116102df5780632640d9db1461045057806327a9626b14610487578063293512c5146104b55780632c333e25146104d55780632e17de78146104f55780632f2ff15d146105155780632f92f1f21461053557806336568abe1461055257600080fd5b806301ffc9a7146103325780630babf336146103675780631e7f87bc1461038957806321d2a573146103ae578063248a9ca3146103ce57806324a3d622146103fe57806324d7806c14610430575b600080fd5b34801561033e57600080fd5b5061035261034d36600461588f565b610b27565b60405190151581526020015b60405180910390f35b34801561037357600080fd5b5061038761038236600461550a565b610b5e565b005b34801561039557600080fd5b506103a06101695481565b60405190815260200161035e565b3480156103ba57600080fd5b506103526103c936600461550a565b610c16565b3480156103da57600080fd5b506103a06103e9366004615855565b600090815260c9602052604090206001015490565b34801561040a57600080fd5b5060fc546104239061010090046001600160a01b031681565b60405161035e9190615990565b34801561043c57600080fd5b5061035261044b36600461550a565b610c35565b34801561045c57600080fd5b506103a061046b36600461550a565b6001600160a01b0316600090815261016b602052604090205490565b34801561049357600080fd5b506103a06104a236600461550a565b61016c6020526000908152604090205481565b3480156104c157600080fd5b506103876104d03660046155c9565b610c4f565b3480156104e157600080fd5b506103a06104f036600461550a565b610d93565b34801561050157600080fd5b50610387610510366004615855565b6112a5565b34801561052157600080fd5b5061038761053036600461586d565b61157b565b34801561054157600080fd5b506103a0683635c9adc5dea0000081565b34801561055e57600080fd5b5061038761056d36600461586d565b6115a6565b34801561057e57600080fd5b5061038761058d36600461550a565b611624565b34801561059e57600080fd5b506103a06105ad36600461550a565b611648565b3480156105be57600080fd5b506103876117fb565b3480156105d357600080fd5b506103876105e236600461575e565b6118b9565b3480156105f357600080fd5b506103876106023660046156f6565b611979565b61038761061536600461563a565b611eea565b34801561062657600080fd5b506103876106353660046158cf565b611eff565b34801561064657600080fd5b506103a061065536600461550a565b611fbe565b34801561066657600080fd5b50610387610675366004615604565b6120c0565b34801561068657600080fd5b5060fc5460ff16610352565b34801561069e57600080fd5b506103876106ad3660046157b5565b6121ee565b3480156106be57600080fd5b5061016654610423906001600160a01b031681565b3480156106df57600080fd5b5061016454610423906001600160a01b031681565b34801561070057600080fd5b506103a06101675481565b34801561071757600080fd5b5061038761072636600461550a565b61243d565b34801561073757600080fd5b5061038761074636600461550a565b61252a565b34801561075757600080fd5b5061038761076636600461550a565b61262f565b34801561077757600080fd5b506103a0610786366004615524565b61273c565b34801561079757600080fd5b5061016154610423906001600160a01b031681565b3480156107b857600080fd5b506103a06101685481565b3480156107cf57600080fd5b50610387612791565b3480156107e457600080fd5b506103876107f3366004615524565b612820565b34801561080457600080fd5b5061038761081336600461550a565b612d41565b34801561082457600080fd5b50610387612d9d565b34801561083957600080fd5b506103a061084836600461550a565b61016b6020526000908152604090205481565b34801561086757600080fd5b5061035261087636600461586d565b612dd4565b34801561088757600080fd5b5061016354610423906001600160a01b031681565b3480156108a857600080fd5b506103876108b7366004615556565b612dff565b3480156108c857600080fd5b506103a0600081565b3480156108dd57600080fd5b506103876108ec366004615855565b612ee5565b3480156108fd57600080fd5b5061038761090c36600461571f565b61329e565b34801561091d57600080fd5b5061093161092c366004615524565b613625565b6040805193845260208401929092529082015260600161035e565b34801561095857600080fd5b50610931610967366004615524565b613673565b34801561097857600080fd5b5061098c61098736600461550a565b6136b8565b60405161035e91906159fb565b3480156109a557600080fd5b506103876109b43660046156f6565b613732565b3480156109c557600080fd5b50610387613c7c565b3480156109da57600080fd5b506103876109e936600461550a565b613db0565b3480156109fa57600080fd5b506103a0600080516020615ef383398151915281565b348015610a1c57600080fd5b50610387610a2b36600461586d565b613e5e565b348015610a3c57600080fd5b506103a0610a4b366004615524565b613e84565b348015610a5c57600080fd5b506103a0610a6b3660046156f6565b613eb4565b348015610a7c57600080fd5b506103a0606481565b348015610a9157600080fd5b5061098c610aa036600461550a565b614074565b348015610ab157600080fd5b5061016554610423906001600160a01b031681565b348015610ad257600080fd5b5061016254610423906001600160a01b031681565b348015610af357600080fd5b50610387610b02366004615855565b6140ec565b348015610b1357600080fd5b50610387610b2236600461550a565b614166565b60006001600160e01b03198216637965db0b60e01b1480610b5857506301ffc9a760e01b6001600160e01b03198316145b92915050565b610b76600080516020615ef383398151915233612dd4565b610b9b5760405162461bcd60e51b8152600401610b9290615bde565b60405180910390fd5b6001600160a01b038116610c0a5760405162461bcd60e51b815260206004820152603060248201527f557365724d616e616765723a206e65774372656469744c696d69744d6f64656c60448201526f2063616e206e6f74206265207a65726f60801b6064820152608401610b92565b610c13816144f1565b50565b6001600160a01b0316600090815261016a602052604090205460ff1690565b6000610b58600080516020615ef383398151915283612dd4565b60fc5460ff1615610c725760405162461bcd60e51b8152600401610b9290615da1565b610164546001600160a01b0316331480610c905750610c9033610c35565b610cac5760405162461bcd60e51b8152600401610b9290615b3d565b6000610cb7846136b8565b905060005b8151811015610d8c576000828281518110610ce757634e487b7160e01b600052603260045260246000fd5b602002602001015190506000610cfd8783613673565b61016654604051635525631360e01b81526001600160a01b0387811660048301528b8116602483015260448201849052606482018b90529295509116925063552563139150608401600060405180830381600087803b158015610d5f57600080fd5b505af1158015610d73573d6000803e3d6000fd5b5050505050508080610d8490615e9d565b915050610cbc565b5050505050565b6000610d9d61540e565b6001600160a01b038316600090815261016a602090815260409182902060040180548351818402810184019094528084529091830182828015610e0957602002820191906000526020600020905b81546001600160a01b03168152600190910190602001808311610deb575b505050828452505060006040830181905290516001600160401b03811115610e4157634e487b7160e01b600052604160045260246000fd5b604051908082528060200260200182016040528015610e6a578160200160208202803683370190505b50905060005b8251518110156110c2578251805182908110610e9c57634e487b7160e01b600052603260045260246000fd5b6020908102919091018101516001600160a01b031660608501818152600091825261016b909252604090205460a085015251610ed8908661273c565b60808401819052156110b057610ef18360600151614074565b602084015260a083015160c08401526060830151600090610f1190611fbe565b9050808460a0015111610f2a57600060c0850152610f40565b808460a00151610f3a9190615e43565b60c08501525b610f4e846060015187613e84565b60e0850181905260808501511015610fc65760405162461bcd60e51b815260206004820152603560248201527f557365724d616e616765723a20766f756368696e67416d6f756e74206f72206c60448201527437b1b5b2b229ba30b5b2903230ba309032b93937b960591b6064820152608401610b92565b8360e001518460c00151610fda9190615dcd565b84608001511061101e578360c001518385604001518151811061100d57634e487b7160e01b600052603260045260246000fd5b602002602001018181525050611098565b8360e001518460800151116110535760008385604001518151811061100d57634e487b7160e01b600052603260045260246000fd5b8360e0015184608001516110679190615e43565b8385604001518151811061108b57634e487b7160e01b600052603260045260246000fd5b6020026020010181815250505b6001846040018181516110ab9190615dcd565b905250505b806110ba81615e9d565b915050610e70565b50600082604001516001600160401b038111156110ef57634e487b7160e01b600052604160045260246000fd5b604051908082528060200260200182016040528015611118578160200160208202803683370190505b50905060005b836040015181101561118f5782818151811061114a57634e487b7160e01b600052603260045260246000fd5b602002602001015182828151811061117257634e487b7160e01b600052603260045260246000fd5b60209081029190910101528061118781615e9d565b91505061111e565b5061016454604051630da5a3cb60e31b81526001600160a01b0390911690636d2d1e58906111c1908890600401615990565b60206040518083038186803b1580156111d957600080fd5b505afa1580156111ed573d6000803e3d6000fd5b505050506040513d601f19601f8201168201806040525081019061121191906158b7565b61016554604051634c9cc67360e01b81526001600160a01b0390911690634c9cc67390611242908590600401615ad2565b60206040518083038186803b15801561125a57600080fd5b505afa15801561126e573d6000803e3d6000fd5b505050506040513d601f19601f8201168201806040525081019061129291906158b7565b61129c9190615e04565b95945050505050565b60fc5460ff16156112c85760405162461bcd60e51b8152600401610b9290615da1565b600261012f5414156112ec5760405162461bcd60e51b8152600401610b9290615d6a565b600261012f556101615433600081815261016b60205260409020546001600160a01b039092169190839061131f90611fbe565b6113299083615e43565b101561138c5760405162461bcd60e51b815260206004820152602c60248201527f557365724d616e616765723a20756e7374616b652062616c616e63652069732060448201526b1a5b9cdd59999a58da595b9d60a21b6064820152608401610b92565b6101665461016154604051637104c0e560e11b81526001600160a01b039283169263e20981ca926113c5923392909116906004016159a4565b602060405180830381600087803b1580156113df57600080fd5b505af11580156113f3573d6000803e3d6000fd5b505050506040513d601f19601f8201168201806040525081019061141791906158b7565b506114228382615e43565b33600090815261016b60205260408120919091556101688054859290611449908490615e43565b90915550506101635461016154604051636ce5768960e11b81526001600160a01b039283169263d9caed129261148892911690309088906004016159be565b602060405180830381600087803b1580156114a257600080fd5b505af11580156114b6573d6000803e3d6000fd5b505050506040513d601f19601f820116820180604052508101906114da9190615839565b6115265760405162461bcd60e51b815260206004820152601c60248201527f557365724d616e616765723a207769746864726177206661696c6564000000006044820152606401610b92565b61153a6001600160a01b0383163385614614565b60405183815233907faf14da4c9c7eeb91ef462950405340d31988005c789d867d3a1394f082105e89906020015b60405180910390a25050600161012f5550565b600082815260c96020526040902060010154611597813361466a565b6115a183836146ce565b505050565b6001600160a01b03811633146116165760405162461bcd60e51b815260206004820152602f60248201527f416363657373436f6e74726f6c3a2063616e206f6e6c792072656e6f756e636560448201526e103937b632b9903337b91039b2b63360891b6064820152608401610b92565b6116208282614754565b5050565b61162d816147bb565b610c13816040518060200160405280600081525060006147ef565b600061165261540e565b6001600160a01b038316600090815261016a60209081526040808320600201805482518185028101850190935280835291929091908301828280156116c057602002820191906000526020600020905b81546001600160a01b031681526001909101906020018083116116a2575b50505050602080850192909252506001600160a01b038516600090815261016b909152604081205460a0840152805b8360200151518110156117db578360200151818151811061172057634e487b7160e01b600052603260045260246000fd5b602090810291909101015161016454604051634da9983d60e11b81529193506001600160a01b031690639b53307a9061175d908590600401615990565b60206040518083038186803b15801561177557600080fd5b505afa158015611789573d6000803e3d6000fd5b505050506040513d601f19601f820116820180604052508101906117ad9190615839565b156117c9576117bc8683613e84565b6117c69084615dcd565b92505b806117d381615e9d565b9150506116ef565b50818360a00151106117ef57509392505050565b505060a0015192915050565b60fc5461010090046001600160a01b0316331461182a5760405162461bcd60e51b8152600401610b9290615c0d565b60fc5460ff166118755760405162461bcd60e51b815260206004820152601660248201527510dbdb9d1c9bdb1b195c8e881b9bdd081c185d5cd95960521b6044820152606401610b92565b60fc805460ff191690556040517f5db9ee0a495bf2e6ff9c91a7834c1ba4fdd244a5e8aa4e537bd38aeae4b073aa906118af903390615990565b60405180910390a1565b60fc5460ff16156118dc5760405162461bcd60e51b8152600401610b9290615da1565b6101625460405163d505accf60e01b8152336004820152306024820152604481018790526064810186905260ff8516608482015260a4810184905260c481018390526001600160a01b0390911690819063d505accf9060e401600060405180830381600087803b15801561194f57600080fd5b505af1158015611963573d6000803e3d6000fd5b5050505061197087614166565b50505050505050565b3361198381610c16565b61199f5760405162461bcd60e51b8152600401610b9290615b8d565b60fc5460ff16156119c25760405162461bcd60e51b8152600401610b9290615da1565b6001600160a01b038316611a125760405162461bcd60e51b8152602060048201526017602482015276626f72726f7765722063616e6e6f74206265207a65726f60481b6044820152606401610b92565b82611a1b61540e565b33606082018190526001600160a01b0383161415611a855760405162461bcd60e51b815260206004820152602160248201527f557365724d616e616765723a2043616e277420766f75636820666f722073656c6044820152603360f91b6064820152608401610b92565b6001600160a01b038216600090815261016a60205260409020600401546064118015611ad1575060608101516001600160a01b0316600090815261016a60205260409020600201546064115b611b1d5760405162461bcd60e51b815260206004820152601e60248201527f557365724d616e616765723a207472757374207265616368206c696d697400006044820152606401610b92565b60608101516001600160a01b0316600090815261016a602090815260409182902060020180548351818402810184019094528084529091830182828015611b8d57602002820191906000526020600020905b81546001600160a01b03168152600190910190602001808311611b6f575b50505050602080840192909252506001600160a01b038316600090815261016a825260409081902060040180548251818502810185019093528083529192909190830182828015611c0757602002820191906000526020600020905b81546001600160a01b03168152600190910190602001808311611be9575b50505091835250506060810151611c1e9083613e84565b60e08201819052841015611c9c576040805162461bcd60e51b81526020600482015260248101919091527f557365724d616e616765723a20747275737420616d6f756e742063616e6e6f7460448201527f206265206c657373207468616e20746865206c6f636b656420616d6f756e74206064820152608401610b92565b60608101516001600160a01b0316600090815261016a602052604081206002015490805b82811015611d2857846001600160a01b031684602001518281518110611cf657634e487b7160e01b600052603260045260246000fd5b60200260200101516001600160a01b03161415611d165760019150611d28565b80611d2081615e9d565b915050611cc0565b506001600160a01b038416600090815261016a602052604081206004015490805b82811015611db55785606001516001600160a01b031686600001518281518110611d8357634e487b7160e01b600052603260045260246000fd5b60200260200101516001600160a01b03161415611da35760019150611db5565b80611dad81615e9d565b915050611d49565b5082611e035760608501516001600160a01b03908116600090815261016a602090815260408220600201805460018101825590835291200180546001600160a01b0319169188169190911790555b80611e52576001600160a01b03868116600090815261016a602090815260408220606089015160049091018054600181018255908452919092200180546001600160a01b031916919092161790555b6060850180516001600160a01b03908116600090815261016a602081815260408084208c8616808652600190910183528185208f9055928252808420865186168552600301909152918290208c9055925190519116907f6726f80fa910f3db24051175cda8d3c2af86b536cc2b137c1dbbf83136fe7c5c90611ed7908c815260200190565b60405180910390a3505050505050505050565b611ef3826147bb565b611620828260016147ef565b60fc5460ff1615611f225760405162461bcd60e51b8152600401610b9290615da1565b610161546040516323f2ebc360e21b815233600482015230602482015260448101879052606481018690526001608482015260ff851660a482015260c4810184905260e481018390526001600160a01b03909116908190638fcbaf0c9061010401600060405180830381600087803b158015611f9d57600080fd5b505af1158015611fb1573d6000803e3d6000fd5b5050505061197087612ee5565b6001600160a01b038116600090815261016b602090815260408083205461016a835281842060020180548351818602810186019094528084528594929385939092919083018282801561203a57602002820191906000526020600020905b81546001600160a01b0316815260019091019060200180831161201c575b50505050509050600080600090505b82518110156120a45782818151811061207257634e487b7160e01b600052603260045260246000fd5b602002602001015191506120868783613e84565b6120909086615dcd565b94508061209c81615e9d565b915050612049565b508383106120b6575091949350505050565b5090949350505050565b610164546001600160a01b03163314806120de57506120de33610c35565b6120fa5760405162461bcd60e51b8152600401610b9290615b3d565b60fc5460ff161561211d5760405162461bcd60e51b8152600401610b9290615da1565b610169546101685410156121435760405162461bcd60e51b8152600401610b9290615d25565b600061016954610168546121579190615e43565b6101665461016154604051630133821360e51b81529293506001600160a01b039182169263267042609261219192169085906004016159e2565b602060405180830381600087803b1580156121ab57600080fd5b505af11580156121bf573d6000803e3d6000fd5b505050506040513d601f19601f820116820180604052508101906121e39190615839565b506115a1838361492f565b610164546001600160a01b031633148061220c575061220c33610c35565b6122285760405162461bcd60e51b8152600401610b9290615b3d565b60fc5460ff161561224b5760405162461bcd60e51b8152600401610b9290615da1565b82811461229a5760405162461bcd60e51b815260206004820181905260248201527f557365724d616e616765723a20706172616d73206c656e677468206572726f726044820152606401610b92565b610169546101685410156122c05760405162461bcd60e51b8152600401610b9290615d25565b600061016954610168546122d49190615e43565b6101665461016154604051630133821360e51b81529293506001600160a01b039182169263267042609261230e92169085906004016159e2565b602060405180830381600087803b15801561232857600080fd5b505af115801561233c573d6000803e3d6000fd5b505050506040513d601f19601f820116820180604052508101906123609190615839565b5060005b8481101561243557600086868381811061238e57634e487b7160e01b600052603260045260246000fd5b90506020020160208101906123a3919061550a565b6001600160a01b031614612423576124238686838181106123d457634e487b7160e01b600052603260045260246000fd5b90506020020160208101906123e9919061550a565b85858481811061240957634e487b7160e01b600052603260045260246000fd5b905060200201602081019061241e919061581d565b61492f565b8061242d81615e9d565b915050612364565b505050505050565b612455600080516020615ef383398151915233612dd4565b6124715760405162461bcd60e51b8152600401610b9290615bde565b6001600160a01b0381166124d35760405162461bcd60e51b815260206004820152602360248201527f557365724d616e616765723a2075546f6b656e2063616e206e6f74206265207a60448201526265726f60e81b6064820152608401610b92565b61016480546001600160a01b0319166001600160a01b0383161790556040517fa7ee46aebb9f5e2669fe2e2ff586cb308e2fc07d64bf563fbb491f8e9ab83e0c9061251f908390615990565b60405180910390a150565b600054610100900460ff1680612543575060005460ff16155b61255f5760405162461bcd60e51b8152600401610b9290615c91565b600054610100900460ff16158015612581576000805461ffff19166101011790555b6001600160a01b0382166125a75760405162461bcd60e51b8152600401610b9290615c5f565b60fc805460ff191690556001600160a01b038216600081815260fb6020526040902080546001600160a01b03191690911790556125e2614aef565b6125fa600080516020615ef383398151915283614b6a565b60fc8054610100600160a81b0319166101006001600160a01b038516021790558015611620576000805461ff00191690555050565b612647600080516020615ef383398151915233612dd4565b6126635760405162461bcd60e51b8152600401610b9290615bde565b6001600160a01b0381166126895760405162461bcd60e51b8152600401610b9290615c5f565b6001600160a01b03818116600090815260fb602052604090205416156126fb5760405162461bcd60e51b815260206004820152602160248201527f436f6e74726f6c6c65723a2061646d696e20616c7265616479206578697374656044820152601960fa1b6064820152608401610b92565b6001600160a01b038116600081815260fb6020526040902080546001600160a01b0319169091179055610c13600080516020615ef383398151915282614b6a565b6001600160a01b03808316600081815261016b6020908152604080832054948616835261016a825280832093835260039093019052908120549091908181111561278857509050610b58565b9150610b589050565b60fc5461010090046001600160a01b031633146127c05760405162461bcd60e51b8152600401610b9290615c0d565b60fc5460ff16156127e35760405162461bcd60e51b8152600401610b9290615da1565b60fc805460ff191660011790556040517f62e78cea01bee320cd4e420270b5ea74000d11b0c9f74754ebdbfc544b05a258906118af903390615990565b3361282a81610c16565b6128465760405162461bcd60e51b8152600401610b9290615b8d565b60fc5460ff16156128695760405162461bcd60e51b8152600401610b9290615da1565b336001600160a01b03841614806128885750336001600160a01b038316145b6128fa5760405162461bcd60e51b815260206004820152603b60248201527f557365724d616e616765723a2041636365707420636c61696d73206f6e6c792060448201527f66726f6d20746865207374616b6572206f7220626f72726f77657200000000006064820152608401610b92565b6129048383613e84565b1561295d5760405162461bcd60e51b8152602060048201526024808201527f557365724d616e616765723a204c6f636b65645374616b65206973206e6f74206044820152637a65726f60e01b6064820152608401610b92565b6001600160a01b038216600090815261016a60205260408120600401549080805b83811015612a00576001600160a01b03868116600090815261016a60205260409020600401805491891691839081106129c757634e487b7160e01b600052603260045260246000fd5b6000918252602090912001546001600160a01b031614156129ee5760019250809150612a00565b806129f881615e9d565b91505061297e565b506001600160a01b038616600090815261016a60205260408120600201549080805b83811015612aa4576001600160a01b038a8116600090815261016a602052604090206002018054918b169183908110612a6b57634e487b7160e01b600052603260045260246000fd5b6000918252602090912001546001600160a01b03161415612a925760019250809150612aa4565b80612a9c81615e9d565b915050612a22565b508115612bb9576001600160a01b038916600090815261016a60205260409020600201612ad2600185615e43565b81548110612af057634e487b7160e01b600052603260045260246000fd5b60009182526020808320909101546001600160a01b038c8116845261016a9092526040909220600201805491909216919083908110612b3f57634e487b7160e01b600052603260045260246000fd5b600091825260208083209190910180546001600160a01b0319166001600160a01b03948516179055918b16815261016a90915260409020600201805480612b9657634e487b7160e01b600052603160045260246000fd5b600082815260209020810160001990810180546001600160a01b03191690550190555b8415612ccd576001600160a01b038816600090815261016a60205260409020600401612be6600188615e43565b81548110612c0457634e487b7160e01b600052603260045260246000fd5b60009182526020808320909101546001600160a01b038b8116845261016a9092526040909220600401805491909216919086908110612c5357634e487b7160e01b600052603260045260246000fd5b600091825260208083209190910180546001600160a01b0319166001600160a01b03948516179055918a16815261016a90915260409020600401805480612caa57634e487b7160e01b600052603160045260246000fd5b600082815260209020810160001990810180546001600160a01b03191690550190555b6001600160a01b03808a16600081815261016a60208181526040808420958e16808552600190960182528084208490559181528183208484526003019052808220829055517fb620e4928572d86c4aa852f12b72cdb824405b403dc7c3cb5d60dece51cb648c9190a3505050505050505050565b612d59600080516020615ef383398151915233612dd4565b612d755760405162461bcd60e51b8152600401610b9290615bde565b60fc80546001600160a01b0390921661010002610100600160a81b0319909216919091179055565b612db5600080516020615ef3833981519152336115a6565b33600090815260fb6020526040902080546001600160a01b0319169055565b600091825260c9602090815260408084206001600160a01b0393909316845291905290205460ff1690565b600054610100900460ff1680612e18575060005460ff16155b612e345760405162461bcd60e51b8152600401610b9290615c91565b600054610100900460ff16158015612e56576000805461ffff19166101011790555b612e5f8261252a565b612e67614b74565b612e70846144f1565b61016680546001600160a01b038086166001600160a01b03199283161790925561016380548a84169083161790556101628054898416908316179055610161805492881692909116919091179055670de0b6b3a7640000610167558015611970576000805461ff001916905550505050505050565b60fc5460ff1615612f085760405162461bcd60e51b8152600401610b9290615da1565b600261012f541415612f2c5760405162461bcd60e51b8152600401610b9290615d6a565b600261012f556101615461016654604051637104c0e560e11b81526001600160a01b03928316929091169063e20981ca90612f6d90339085906004016159a4565b602060405180830381600087803b158015612f8757600080fd5b505af1158015612f9b573d6000803e3d6000fd5b505050506040513d601f19601f82011682018060405250810190612fbf91906158b7565b5033600090815261016b6020526040902054683635c9adc5dea00000612fe58483615dcd565b11156130335760405162461bcd60e51b815260206004820152601c60248201527f557365724d616e616765723a205374616b65206c696d697420686974000000006044820152606401610b92565b61303d8382615dcd565b33600090815261016b60205260408120919091556101688054859290613064908490615dcd565b9091555050604051636eb1769f60e11b815283906001600160a01b0384169063dd62ed3e9061309990339030906004016159a4565b60206040518083038186803b1580156130b157600080fd5b505afa1580156130c5573d6000803e3d6000fd5b505050506040513d601f19601f820116820180604052508101906130e991906158b7565b101561314a5760405162461bcd60e51b815260206004820152602a60248201527f557365724d616e616765723a206e6f7420656e6f75676820616c6c6f77616e636044820152696520746f207374616b6560b01b6064820152608401610b92565b61315f6001600160a01b038316333086614bd3565b6101635461317b906001600160a01b0384811691166000614bfa565b61016354613196906001600160a01b03848116911685614bfa565b61016354610161546040516311f9fbc960e21b81526001600160a01b03928316926347e7ef24926131ce9291169087906004016159e2565b602060405180830381600087803b1580156131e857600080fd5b505af11580156131fc573d6000803e3d6000fd5b505050506040513d601f19601f820116820180604052508101906132209190615839565b61326c5760405162461bcd60e51b815260206004820152601b60248201527f557365724d616e616765723a204465706f736974206661696c656400000000006044820152606401610b92565b60405183815233907f3dbdcfd4c1f2e08931aae3d544e149a1e643143f5234d166fe3debb78338849590602001611568565b610164546001600160a01b03163314806132bc57506132bc33610c35565b6132d85760405162461bcd60e51b8152600401610b9290615b3d565b6132e061540e565b6001600160a01b038416600090815261016a60209081526040918290206004018054835181840281018401909452808452909183018282801561334c57602002820191906000526020600020905b81546001600160a01b0316815260019091019060200180831161332e575b5050508284525050516000906001600160401b0381111561337d57634e487b7160e01b600052604160045260246000fd5b6040519080825280602002602001820160405280156133b657816020015b6133a3615463565b81526020019060019003908161339b5790505b50905060005b8251518110156134f0576133ce615463565b83518051839081106133f057634e487b7160e01b600052603260045260246000fd5b6020908102919091018101516001600160a01b031660608601818152600091825261016b909252604090205460a08601525161342c908861273c565b6080850152606084015161343f90611fbe565b610100850181905260a08501511161345d57600060c0850152613478565b8361010001518460a001516134729190615e43565b60c08501525b6060840180516001600160a01b03168252608085015160208301525161349e9088613e84565b604082015260c08401516060820152825181908490849081106134d157634e487b7160e01b600052603260045260246000fd5b60200260200101819052505080806134e890615e9d565b9150506133bc565b5060005b8151811015612435576101655482516001600160a01b039091169063a0d9987b90849081908590811061353757634e487b7160e01b600052603260045260246000fd5b60200260200101516000015188886040518563ffffffff1660e01b81526004016135649493929190615a48565b60206040518083038186803b15801561357c57600080fd5b505afa158015613590573d6000803e3d6000fd5b505050506040513d601f19601f820116820180604052508101906135b491906158b7565b61016a60008484815181106135d957634e487b7160e01b600052603260045260246000fd5b602090810291909101810151516001600160a01b0390811683528282019390935260409182016000908120938b168152600590930190529020558061361d81615e9d565b9150506134f4565b6001600160a01b03808316600090815261016a6020908152604080832093851683526001909301905290812054908061365e8585613e84565b905061366a858561273c565b91509250925092565b6001600160a01b03808316600090815261016a602090815260408083209385168352600390930190529081205490806136ac8486613e84565b905061366a848661273c565b6001600160a01b038116600090815261016a602090815260409182902060040180548351818402810184019094528084526060939283018282801561372657602002820191906000526020600020905b81546001600160a01b03168152600190910190602001808311613708575b50505050509050919050565b6000811161378e5760405162461bcd60e51b815260206004820152602360248201527f557365724d616e616765723a20616d6f756e742063616e206e6f74206265207a60448201526265726f60e81b6064820152608401610b92565b806101685410156137e35760405162461bcd60e51b815260206004820152602b6024820152600080516020615f1383398151915260448201526a1d1bdd185b14dd185ad95960aa1b6064820152608401610b92565b61016454604051634da9983d60e11b81526001600160a01b0390911690639b53307a90613814908590600401615990565b60206040518083038186803b15801561382c57600080fd5b505afa158015613840573d6000803e3d6000fd5b505050506040513d601f19601f820116820180604052508101906138649190615839565b6138c85760405162461bcd60e51b815260206004820152602f60248201527f557365724d616e616765723a206f6e6c792063616c6c207768656e20626f727260448201526e6f776572206973206f76657264756560881b6064820152608401610b92565b60006138d43384613e84565b90508181101561392a5760405162461bcd60e51b815260206004820152602d6024820152600080516020615f1383398151915260448201526c1b1bd8dad95908185b5bdd5b9d609a1b6064820152608401610b92565b61393583600161492f565b8161016954101561398a5760405162461bcd60e51b815260206004820152602b6024820152600080516020615f1383398151915260448201526a3a37ba30b6233937bd32b760a91b6064820152608401610b92565b6101665461016154604051637104c0e560e11b81526001600160a01b039283169263e20981ca926139c3923392909116906004016159a4565b602060405180830381600087803b1580156139dd57600080fd5b505af11580156139f1573d6000803e3d6000fd5b505050506040513d601f19601f82011682018060405250810190613a1591906158b7565b5033600090815261016b602052604081208054849290613a36908490615e43565b92505081905550816101686000828254613a509190615e43565b92505081905550816101696000828254613a6a9190615e43565b90915550506001600160a01b038316600090815261016c60205260409020548211613ac3576001600160a01b038316600090815261016c602052604081208054849290613ab8908490615e43565b90915550613ade9050565b6001600160a01b038316600090815261016c60205260408120555b613ae88282615e43565b33600090815261016a602090815260408083206001600160a01b038816845260058101835281842094909455600190930190529081205490613b2a8483615e43565b33600081815261016a602081815260408084206001600160a01b038c811686526001909101835281852087905592825280842094845260039094019052908290208390556101635461016154925163b8845f7560e01b815293945081169263b8845f7592613b9e92169088906004016159e2565b600060405180830381600087803b158015613bb857600080fd5b505af1158015613bcc573d6000803e3d6000fd5b50506101645460405163b8845f7560e01b81526001600160a01b03909116925063b8845f759150613c0390889088906004016159e2565b600060405180830381600087803b158015613c1d57600080fd5b505af1158015613c31573d6000803e3d6000fd5b50506040518681526001600160a01b03881692503391507f721dd838cd211473250d3276b95ede5c746ea6711f9ca7364967246bf2c8db849060200160405180910390a35050505050565b60fc5460ff1615613c9f5760405162461bcd60e51b8152600401610b9290615da1565b600261012f541415613cc35760405162461bcd60e51b8152600401610b9290615d6a565b600261012f556101665461016154604051637104c0e560e11b81526000926001600160a01b039081169263e20981ca92613d0392339216906004016159a4565b602060405180830381600087803b158015613d1d57600080fd5b505af1158015613d31573d6000803e3d6000fd5b505050506040513d601f19601f82011682018060405250810190613d5591906158b7565b905060008111613da75760405162461bcd60e51b815260206004820152601f60248201527f557365724d616e616765723a206e6f7420656e6f7567682072657761726473006044820152606401610b92565b50600161012f55565b613dc8600080516020615ef383398151915233612dd4565b613de45760405162461bcd60e51b8152600401610b9290615bde565b613ded81610c16565b15613e0a5760405162461bcd60e51b8152600401610b9290615cdf565b6001600160a01b038116600090815261016a602052604090819020805460ff19166001179055517f5e1ee096236e8660dc7150f7b5ecb274fb28105175e61ace07f7525ab72ede449061251f908390615990565b600082815260c96020526040902060010154613e7a813361466a565b6115a18383614754565b6001600160a01b03918216600090815261016a602090815260408083209390941682526005909201909152205490565b60008080613ec185614074565b905060005b81518110156120b6576000828281518110613ef157634e487b7160e01b600052603260045260246000fd5b602090810291909101015161016454604051632592fb6760e01b81529192506000916001600160a01b0390911690632592fb6790613f33908590600401615990565b60206040518083038186803b158015613f4b57600080fd5b505afa158015613f5f573d6000803e3d6000fd5b505050506040513d601f19601f82011682018060405250810190613f8391906158b7565b613f8d9043615e43565b61016454604051634da9983d60e11b81529192506001600160a01b031690639b53307a90613fbf908590600401615990565b60206040518083038186803b158015613fd757600080fd5b505afa158015613feb573d6000803e3d6000fd5b505050506040513d601f19601f8201168201806040525081019061400f9190615839565b1561405f576000614020838a613673565b92505050818810614046576140358282615de5565b61403f9087615dcd565b955061405d565b6140508882615de5565b61405a9087615dcd565b95505b505b5050808061406c90615e9d565b915050613ec6565b6001600160a01b038116600090815261016a6020908152604091829020600201805483518184028101840190945280845260609392830182828015613726576020028201919060005260206000209081546001600160a01b031681526001909101906020018083116137085750505050509050919050565b614104600080516020615ef383398151915233612dd4565b6141205760405162461bcd60e51b8152600401610b9290615bde565b61016780549082905560408051828152602081018490527f498fc03364d7fc570a80360564e057678eefc3a22931b102a63fefff80bc8757910160405180910390a15050565b60fc5460ff16156141895760405162461bcd60e51b8152600401610b9290615da1565b610162546001600160a01b031661419f82610c16565b156141bc5760405162461bcd60e51b8152600401610b9290615cdf565b610167546040516370a0823160e01b81526001600160a01b038316906370a08231906141ec903390600401615990565b60206040518083038186803b15801561420457600080fd5b505afa158015614218573d6000803e3d6000fd5b505050506040513d601f19601f8201168201806040525081019061423c91906158b7565b101561428a5760405162461bcd60e51b815260206004820152601f60248201527f557365724d616e616765723a2062616c616e6365206e6f7420656e6f756768006044820152606401610b92565b6000805b6001600160a01b038416600090815261016a6020526040902060040154811015614349576001600160a01b038416600090815261016a602052604081206004018054839081106142ee57634e487b7160e01b600052603260045260246000fd5b6000918252602090912001546001600160a01b0316905061430e81610c16565b801561432357506000614321828761273c565b115b1561433657614333600184615dcd565b92505b508061434181615e9d565b91505061428e565b5061016560009054906101000a90046001600160a01b03166001600160a01b03166351118cfb6040518163ffffffff1660e01b8152600401602060405180830381600087803b15801561439b57600080fd5b505af11580156143af573d6000803e3d6000fd5b505050506040513d601f19601f820116820180604052508101906143d391906158b7565b8110156144345760405162461bcd60e51b815260206004820152602960248201527f557365724d616e616765723a206e6f7420656e6f75676820656666656374697660448201526865207374616b65727360b81b6064820152608401610b92565b6001600160a01b03808416600090815261016a602052604090819020805460ff1916600117905561016754905163079cc67960e41b8152918416916379cc679091614484913391906004016159e2565b600060405180830381600087803b15801561449e57600080fd5b505af11580156144b2573d6000803e3d6000fd5b50506040516001600160a01b03861692503391507f9d20d3ae19788f508f4eab7f2347e8be09a77d3394e12b3f4ebb15f63c85b37a90600090a3505050565b806001600160a01b031663b0db49306040518163ffffffff1660e01b815260040160206040518083038186803b15801561452a57600080fd5b505afa15801561453e573d6000803e3d6000fd5b505050506040513d601f19601f820116820180604052508101906145629190615839565b6145c85760405162461bcd60e51b815260206004820152603160248201527f4d656d6265724d6e616765723a206e6577206d6f64656c206973206e6f7420616044820152700818dc99591a5d131a5b5a5d135bd9195b607a1b6064820152608401610b92565b61016580546001600160a01b0319166001600160a01b0383161790556040517f5d836e0ba607c52b1dceb0fd428714bc02d853f50390605467267c834f7c2af49061251f908390615990565b6115a18363a9059cbb60e01b84846040516024016146339291906159e2565b60408051601f198184030181529190526020810180516001600160e01b03166001600160e01b031990931692909217909152614d0c565b6146748282612dd4565b6116205761468c816001600160a01b03166014614dde565b614697836020614dde565b6040516020016146a8929190615921565b60408051601f198184030181529082905262461bcd60e51b8252610b9291600401615b0a565b6146d88282612dd4565b61162057600082815260c9602090815260408083206001600160a01b03851684529091529020805460ff191660011790556147103390565b6001600160a01b0316816001600160a01b0316837f2f8788117e7eff1d82e926ec794901d17c78024a50270940304540a733656f0d60405160405180910390a45050565b61475e8282612dd4565b1561162057600082815260c9602090815260408083206001600160a01b0385168085529252808320805460ff1916905551339285917ff6391f5c32d9c69d2a47ea670b442974b53935d1edc7fd64eb21e047a839171b9190a45050565b6147d3600080516020615ef383398151915233612dd4565b610c135760405162461bcd60e51b8152600401610b9290615bde565b60006147f9614fc6565b905061480484614ff4565b6000835111806148115750815b15614822576148208484615099565b505b7f4910fdfa16fed3260ed0e7147f7cc6da11a60208b5b9406d12a635614ffd9143805460ff16610d8c57805460ff1916600117815560405161489d90869061486e908590602401615990565b60408051601f198184030181529190526020810180516001600160e01b0316631b2ce7f360e11b179052615099565b50805460ff191681556148ae614fc6565b6001600160a01b0316826001600160a01b0316146149265760405162461bcd60e51b815260206004820152602f60248201527f45524331393637557067726164653a207570677261646520627265616b73206660448201526e75727468657220757067726164657360881b6064820152608401610b92565b610d8c8561517b565b8015614a6f576000805b6001600160a01b038416600090815261016a60205260409020600401548110156149dc576001600160a01b038416600090815261016a6020526040812060040180548390811061499957634e487b7160e01b600052603260045260246000fd5b60009182526020822001546001600160a01b031691506149b98287613e84565b90506149c58185615dcd565b9350505080806149d490615e9d565b915050614939565b506001600160a01b038316600090815261016c6020526040902054614a1957806101696000828254614a0e9190615dcd565b90915550614a519050565b6001600160a01b038316600090815261016c602052604090205461016954614a42908390615dcd565b614a4c9190615e43565b610169555b6001600160a01b038316600090815261016c60205260409020555050565b6001600160a01b038216600090815261016c6020526040902054610169541115614acc576001600160a01b038216600090815261016c6020526040812054610169805491929091614ac1908490615e43565b90915550614ad39050565b6000610169555b506001600160a01b0316600090815261016c6020526040812055565b600054610100900460ff1680614b08575060005460ff16155b614b245760405162461bcd60e51b8152600401610b9290615c91565b600054610100900460ff16158015614b46576000805461ffff19166101011790555b614b4e6151bb565b614b566151bb565b8015610c13576000805461ff001916905550565b61162082826146ce565b600054610100900460ff1680614b8d575060005460ff16155b614ba95760405162461bcd60e51b8152600401610b9290615c91565b600054610100900460ff16158015614bcb576000805461ffff19166101011790555b614b56615225565b614bf4846323b872dd60e01b858585604051602401614633939291906159be565b50505050565b801580614c825750604051636eb1769f60e11b81526001600160a01b0384169063dd62ed3e90614c3090309086906004016159a4565b60206040518083038186803b158015614c4857600080fd5b505afa158015614c5c573d6000803e3d6000fd5b505050506040513d601f19601f82011682018060405250810190614c8091906158b7565b155b614ced5760405162461bcd60e51b815260206004820152603660248201527f5361666545524332303a20617070726f76652066726f6d206e6f6e2d7a65726f60448201527520746f206e6f6e2d7a65726f20616c6c6f77616e636560501b6064820152608401610b92565b6115a18363095ea7b360e01b84846040516024016146339291906159e2565b6000614d61826040518060400160405280602081526020017f5361666545524332303a206c6f772d6c6576656c2063616c6c206661696c6564815250856001600160a01b03166152969092919063ffffffff16565b8051909150156115a15780806020019051810190614d7f9190615839565b6115a15760405162461bcd60e51b815260206004820152602a60248201527f5361666545524332303a204552433230206f7065726174696f6e20646964206e6044820152691bdd081cdd58d8d9595960b21b6064820152608401610b92565b60606000614ded836002615de5565b614df8906002615dcd565b6001600160401b03811115614e1d57634e487b7160e01b600052604160045260246000fd5b6040519080825280601f01601f191660200182016040528015614e47576020820181803683370190505b509050600360fc1b81600081518110614e7057634e487b7160e01b600052603260045260246000fd5b60200101906001600160f81b031916908160001a905350600f60fb1b81600181518110614ead57634e487b7160e01b600052603260045260246000fd5b60200101906001600160f81b031916908160001a9053506000614ed1846002615de5565b614edc906001615dcd565b90505b6001811115614f70576f181899199a1a9b1b9c1cb0b131b232b360811b85600f1660108110614f1e57634e487b7160e01b600052603260045260246000fd5b1a60f81b828281518110614f4257634e487b7160e01b600052603260045260246000fd5b60200101906001600160f81b031916908160001a90535060049490941c93614f6981615e86565b9050614edf565b508315614fbf5760405162461bcd60e51b815260206004820181905260248201527f537472696e67733a20686578206c656e67746820696e73756666696369656e746044820152606401610b92565b9392505050565b7f360894a13ba1a3210667c828492db98dca3e2076cc3735a920a3ca505d382bbc546001600160a01b031690565b803b6150585760405162461bcd60e51b815260206004820152602d60248201527f455243313936373a206e657720696d706c656d656e746174696f6e206973206e60448201526c1bdd08184818dbdb9d1c9858dd609a1b6064820152608401610b92565b7f360894a13ba1a3210667c828492db98dca3e2076cc3735a920a3ca505d382bbc80546001600160a01b0319166001600160a01b0392909216919091179055565b6060823b6150f85760405162461bcd60e51b815260206004820152602660248201527f416464726573733a2064656c65676174652063616c6c20746f206e6f6e2d636f6044820152651b9d1c9858dd60d21b6064820152608401610b92565b600080846001600160a01b0316846040516151139190615905565b600060405180830381855af49150503d806000811461514e576040519150601f19603f3d011682016040523d82523d6000602084013e615153565b606091505b509150915061129c8282604051806060016040528060278152602001615f33602791396152ad565b61518481614ff4565b6040516001600160a01b038216907fbc7cd75a20ee27fd9adebab32041f755214dbc6bffa90cc0225b39da2e5c2d3b90600090a250565b600054610100900460ff16806151d4575060005460ff16155b6151f05760405162461bcd60e51b8152600401610b9290615c91565b600054610100900460ff16158015614b56576000805461ffff19166101011790558015610c13576000805461ff001916905550565b600054610100900460ff168061523e575060005460ff16155b61525a5760405162461bcd60e51b8152600401610b9290615c91565b600054610100900460ff1615801561527c576000805461ffff19166101011790555b600161012f558015610c13576000805461ff001916905550565b60606152a584846000856152e6565b949350505050565b606083156152bc575081614fbf565b8251156152cc5782518084602001fd5b8160405162461bcd60e51b8152600401610b929190615b0a565b6060824710156153475760405162461bcd60e51b815260206004820152602660248201527f416464726573733a20696e73756666696369656e742062616c616e636520666f6044820152651c8818d85b1b60d21b6064820152608401610b92565b843b6153955760405162461bcd60e51b815260206004820152601d60248201527f416464726573733a2063616c6c20746f206e6f6e2d636f6e74726163740000006044820152606401610b92565b600080866001600160a01b031685876040516153b19190615905565b60006040518083038185875af1925050503d80600081146153ee576040519150601f19603f3d011682016040523d82523d6000602084013e6153f3565b606091505b50915091506154038282866152ad565b979650505050505050565b60405180610120016040528060608152602001606081526020016000815260200160006001600160a01b0316815260200160008152602001600081526020016000815260200160008152602001600081525090565b604051806080016040528060006001600160a01b031681526020016000815260200160008152602001600081525090565b80356001600160a01b03811681146154ab57600080fd5b919050565b60008083601f8401126154c1578081fd5b5081356001600160401b038111156154d7578182fd5b6020830191508360208260051b85010111156154f257600080fd5b9250929050565b803560ff811681146154ab57600080fd5b60006020828403121561551b578081fd5b614fbf82615494565b60008060408385031215615536578081fd5b61553f83615494565b915061554d60208401615494565b90509250929050565b60008060008060008060c0878903121561556e578182fd5b61557787615494565b955061558560208801615494565b945061559360408801615494565b93506155a160608801615494565b92506155af60808801615494565b91506155bd60a08801615494565b90509295509295509295565b6000806000606084860312156155dd578283fd5b6155e684615494565b92506155f460208501615494565b9150604084013590509250925092565b60008060408385031215615616578182fd5b61561f83615494565b9150602083013561562f81615ee4565b809150509250929050565b6000806040838503121561564c578182fd5b61565583615494565b915060208301356001600160401b0380821115615670578283fd5b818501915085601f830112615683578283fd5b81358181111561569557615695615ece565b604051601f8201601f19908116603f011681019083821181831017156156bd576156bd615ece565b816040528281528860208487010111156156d5578586fd5b82602086016020830137856020848301015280955050505050509250929050565b60008060408385031215615708578182fd5b61571183615494565b946020939093013593505050565b600080600060608486031215615733578283fd5b61573c84615494565b925060208401359150604084013561575381615ee4565b809150509250925092565b60008060008060008060c08789031215615776578182fd5b61577f87615494565b9550602087013594506040870135935061579b606088016154f9565b92506080870135915060a087013590509295509295509295565b600080600080604085870312156157ca578182fd5b84356001600160401b03808211156157e0578384fd5b6157ec888389016154b0565b90965094506020870135915080821115615804578384fd5b50615811878288016154b0565b95989497509550505050565b60006020828403121561582e578081fd5b8135614fbf81615ee4565b60006020828403121561584a578081fd5b8151614fbf81615ee4565b600060208284031215615866578081fd5b5035919050565b6000806040838503121561587f578182fd5b8235915061554d60208401615494565b6000602082840312156158a0578081fd5b81356001600160e01b031981168114614fbf578182fd5b6000602082840312156158c8578081fd5b5051919050565b60008060008060008060c087890312156158e7578384fd5b86359550602087013594506040870135935061579b606088016154f9565b60008251615917818460208701615e5a565b9190910192915050565b76020b1b1b2b9b9a1b7b73a3937b61d1030b1b1b7bab73a1604d1b815260008351615953816017850160208801615e5a565b7001034b99036b4b9b9b4b733903937b6329607d1b6017918401918201528351615984816028840160208801615e5a565b01602801949350505050565b6001600160a01b0391909116815260200190565b6001600160a01b0392831681529116602082015260400190565b6001600160a01b039384168152919092166020820152604081019190915260600190565b6001600160a01b03929092168252602082015260400190565b6020808252825182820181905260009190848201906040850190845b81811015615a3c5783516001600160a01b031683529284019291840191600101615a17565b50909695505050505050565b608080825285518282018190526000919060209060a0850190828a01855b82811015615aa957815180516001600160a01b03168552858101518686015260408082015190860152606090810151908501529285019290840190600101615a66565b5050506001600160a01b038816858301529250505083604083015261129c606083018415159052565b6020808252825182820181905260009190848201906040850190845b81811015615a3c57835183529284019291840191600101615aee565b6020815260008251806020840152615b29816040850160208701615e5a565b601f01601f19169190910160400192915050565b60208082526030908201527f557365724d616e616765723a2063616c6c657220646f6573206e6f742074686560408201526f1036b0b935b2ba1037b91030b236b4b760811b606082015260800190565b60208082526031908201527f557365724d616e616765723a2063616c6c657220646f6573206e6f74206861766040820152706520746865204d656d62657220726f6c6560781b606082015260800190565b60208082526015908201527421b7b73a3937b63632b91d103737ba1030b236b4b760591b604082015260600190565b60208082526032908201527f436f6e74726f6c6c65723a2063616c6c657220646f6573206e6f7420686176656040820152712074686520677561726469616e20726f6c6560701b606082015260800190565b602080825260189082015277436f6e74726f6c6c65723a2061646472657373207a65726f60401b604082015260600190565b6020808252602e908201527f496e697469616c697a61626c653a20636f6e747261637420697320616c72656160408201526d191e481a5b9a5d1a585b1a5e995960921b606082015260800190565b60208082526026908201527f557365724d616e616765723a206164647265737320697320616c72656164792060408201526536b2b6b132b960d11b606082015260800190565b60208082526025908201527f557365724d616e616765723a20746f74616c207374616b6520616d6f756e742060408201526432b93937b960d91b606082015260800190565b6020808252601f908201527f5265656e7472616e637947756172643a207265656e7472616e742063616c6c00604082015260600190565b60208082526012908201527110dbdb9d1c9bdb1b195c8e881c185d5cd95960721b604082015260600190565b60008219821115615de057615de0615eb8565b500190565b6000816000190483118215151615615dff57615dff615eb8565b500290565b60008083128015600160ff1b850184121615615e2257615e22615eb8565b6001600160ff1b0384018313811615615e3d57615e3d615eb8565b50500390565b600082821015615e5557615e55615eb8565b500390565b60005b83811015615e75578181015183820152602001615e5d565b83811115614bf45750506000910152565b600081615e9557615e95615eb8565b506000190190565b6000600019821415615eb157615eb1615eb8565b5060010190565b634e487b7160e01b600052601160045260246000fd5b634e487b7160e01b600052604160045260246000fd5b8015158114610c1357600080fdfe2172861495e7b85edac73e3cd5fbb42dd675baadf627720e687bcfdaca025096557365724d616e616765723a20616d6f756e7420657863656564732074686520416464726573733a206c6f772d6c6576656c2064656c65676174652063616c6c206661696c6564a2646970667358221220724b97154943a91ac7a8995d21e5d207fa0f606e6bd8e36bc34fd0bc18cf93fc64736f6c63430008040033",
  "devdoc": {
    "details": "Manages the Union members credit lines, and their vouchees and borrowers info.",
    "events": {
      "LogAddMember(address)": {
        "details": "Add new member event",
        "params": {
          "member": "New member address"
        }
      },
      "LogCancelVouch(address,address)": {
        "details": "Cancel vouching for other member event",
        "params": {
          "account": "New member's voucher address",
          "borrower": "The address gets vouched for"
        }
      },
      "LogDebtWriteOff(address,address,uint256)": {
        "details": "DebtWriteOff event",
        "params": {
          "amount": "The amount of write off",
          "borrower": "The borrower's address",
          "staker": "The staker's address"
        }
      },
      "LogNewCreditLimitModel(address)": {
        "details": "Update new credit limit model event",
        "params": {
          "newCreditLimitModel": "New credit limit model address"
        }
      },
      "LogRegisterMember(address,address)": {
        "details": "New member application event",
        "params": {
          "account": "New member's voucher address",
          "borrower": "New member address"
        }
      },
      "LogSetNewMemberFee(uint256,uint256)": {
        "details": "set new member fee",
        "params": {
          "newMemberFee": "new member fee",
          "oldMemberFee": "old member fee"
        }
      },
      "LogSetUToken(address)": {
        "details": "set utoken address",
        "params": {
          "uToken": "new uToken address"
        }
      },
      "LogStake(address,uint256)": {
        "details": "Stake event",
        "params": {
          "account": "The staker's address",
          "amount": "The amount of tokens to stake"
        }
      },
      "LogUnstake(address,uint256)": {
        "details": "Unstake event",
        "params": {
          "account": "The staker's address",
          "amount": "The amount of tokens to unstake"
        }
      },
      "LogUpdateTrust(address,address,uint256)": {
        "details": "Update vouch for existing member event",
        "params": {
          "borrower": "The address gets vouched for",
          "staker": "Trustee address",
          "trustAmount": "Vouch amount"
        }
      }
    },
    "kind": "dev",
    "methods": {
      "addAdmin(address)": {
        "details": "Add a new admin account",
        "params": {
          "account": "Account address"
        }
      },
      "addMember(address)": {
        "details": "Add member  Accept claims only from the admin",
        "params": {
          "account": "Member address"
        }
      },
      "cancelVouch(address,address)": {
        "details": "Stop vouch for other member.",
        "params": {
          "borrower": "borrower address",
          "staker": "Staker address"
        }
      },
      "checkIsMember(address)": {
        "details": "Check if the account is a valid member",
        "params": {
          "account": "Member address"
        },
        "returns": {
          "_0": "Address whether is member"
        }
      },
      "getBorrowerAddresses(address)": {
        "details": "Get member borrowerAddresses",
        "params": {
          "account": "Member address"
        },
        "returns": {
          "_0": "Address array"
        }
      },
      "getBorrowerAsset(address,address)": {
        "details": "Get member backer asset",
        "params": {
          "account": "Member address",
          "borrower": "Borrower address"
        },
        "returns": {
          "trustAmount": "vouchingAmount lockedStake. Trust amount, vouch amount, and locked stake amount"
        }
      },
      "getCreditLimit(address)": {
        "details": "Get the member's available credit line",
        "params": {
          "borrower": "Member address"
        },
        "returns": {
          "_0": "Credit line amount"
        }
      },
      "getLockedStake(address,address)": {
        "details": "Get staker locked stake for a borrower",
        "params": {
          "borrower": "Borrower address",
          "staker": "Staker address"
        },
        "returns": {
          "_0": "LockedStake"
        }
      },
      "getRoleAdmin(bytes32)": {
        "details": "Returns the admin role that controls `role`. See {grantRole} and {revokeRole}. To change a role's admin, use {_setRoleAdmin}."
      },
      "getStakerAddresses(address)": {
        "details": "Get member stakerAddresses",
        "params": {
          "account": "Member address"
        },
        "returns": {
          "_0": "Address array"
        }
      },
      "getStakerAsset(address,address)": {
        "details": "Get member stakers asset",
        "params": {
          "account": "Member address",
          "staker": "Staker address"
        },
        "returns": {
          "trustAmount": "lockedStake vouchingAmount. Vouch amount and lockedStake"
        }
      },
      "getStakerBalance(address)": {
        "details": "Get the user's deposited stake amount",
        "params": {
          "account": "Member address"
        },
        "returns": {
          "_0": "Deposited stake amount"
        }
      },
      "getTotalFrozenAmount(address)": {
        "details": "Get staker's defaulted / frozen staked token amount",
        "params": {
          "staker": "Staker address"
        },
        "returns": {
          "_0": "Frozen token amount"
        }
      },
      "getTotalLockedStake(address)": {
        "details": "Get the user's locked stake from all his backed loans",
        "params": {
          "staker": "Staker address"
        },
        "returns": {
          "_0": "LockedStake"
        }
      },
      "getVouchingAmount(address,address)": {
        "details": "Get vouching amount",
        "params": {
          "borrower": "Borrower address",
          "staker": "Staker address"
        }
      },
      "grantRole(bytes32,address)": {
        "details": "Grants `role` to `account`. If `account` had not been already granted `role`, emits a {RoleGranted} event. Requirements: - the caller must have ``role``'s admin role."
      },
      "hasRole(bytes32,address)": {
        "details": "Returns `true` if `account` has been granted `role`."
      },
      "isAdmin(address)": {
        "details": "Check if the address provided is the admin",
        "params": {
          "account": "Account address"
        }
      },
      "pause()": {
        "details": "Called by a pauser to pause, triggers stopped state."
      },
      "paused()": {
        "details": "Returns true if the contract is paused, and false otherwise."
      },
      "registerMember(address)": {
        "details": "Apply for membership, and burn UnionToken as application fees",
        "params": {
          "newMember": "New member address"
        }
      },
      "renounceAdmin()": {
        "details": "Renouce the admin from the sender's address"
      },
      "renounceRole(bytes32,address)": {
        "details": "Revokes `role` from the calling account. Roles are often managed via {grantRole} and {revokeRole}: this function's purpose is to provide a mechanism for accounts to lose their privileges if they are compromised (such as when a trusted device is misplaced). If the calling account had been granted `role`, emits a {RoleRevoked} event. Requirements: - the caller must be `account`."
      },
      "repayLoanOverdue(address,address,uint256)": {
        "details": "Repay user's loan overdue, called only from the lending market",
        "params": {
          "account": "User address",
          "lastRepay": "Last repay block number",
          "token": "The asset token repaying to"
        }
      },
      "revokeRole(bytes32,address)": {
        "details": "Revokes `role` from `account`. If `account` had been granted `role`, emits a {RoleRevoked} event. Requirements: - the caller must have ``role``'s admin role."
      },
      "setCreditLimitModel(address)": {
        "details": "Change the credit limit model  Accept claims only from the admin",
        "params": {
          "newCreditLimitModel": "New credit limit model address"
        }
      },
      "setGuardian(address)": {
        "details": "Set pauseGuardian account",
        "params": {
          "account": "Account address"
        }
      },
      "stake(uint256)": {
        "details": "Stake",
        "params": {
          "amount": "Amount"
        }
      },
      "stakeWithPermit(uint256,uint256,uint256,uint8,bytes32,bytes32)": {
        "details": "stakeWithPermit",
        "params": {
          "amount": "Amount"
        }
      },
      "supportsInterface(bytes4)": {
        "details": "See {IERC165-supportsInterface}."
      },
      "unpause()": {
        "details": "Called by a pauser to unpause, returns to normal state."
      },
      "unstake(uint256)": {
        "details": "Unstake",
        "params": {
          "amount": "Amount"
        }
      },
      "updateLockedData(address,uint256,bool)": {
        "details": "Update userManager locked info",
        "params": {
          "amount": "Borrow or repay amount(Including previously accrued interest)",
          "borrower": "Borrower address",
          "isBorrow": "True is borrow, false is repay"
        }
      },
      "updateTotalFrozen(address,bool)": {
        "details": "Update total frozen",
        "params": {
          "account": "borrower address",
          "isOverdue": "account is overdue"
        }
      },
      "updateTrust(address,uint256)": {
        "details": "Update the trust amount for exisitng members.",
        "params": {
          "borrower_": "Account address",
          "trustAmount": "Trust amount"
        }
      },
      "upgradeTo(address)": {
        "details": "Upgrade the implementation of the proxy to `newImplementation`. Calls {_authorizeUpgrade}. Emits an {Upgraded} event."
      },
      "upgradeToAndCall(address,bytes)": {
        "details": "Upgrade the implementation of the proxy to `newImplementation`, and subsequently execute the function call encoded in `data`. Calls {_authorizeUpgrade}. Emits an {Upgraded} event."
      }
    },
    "title": "UserManager Contract",
    "version": 1
  },
  "userdoc": {
    "kind": "user",
    "methods": {},
    "version": 1
  },
  "storageLayout": {
    "storage": [
      {
        "astId": 821,
        "contract": "contracts/user/UserManager.sol:UserManager",
        "label": "_initialized",
        "offset": 0,
        "slot": "0",
        "type": "t_bool"
      },
      {
        "astId": 824,
        "contract": "contracts/user/UserManager.sol:UserManager",
        "label": "_initializing",
        "offset": 1,
        "slot": "0",
        "type": "t_bool"
      },
      {
        "astId": 804,
        "contract": "contracts/user/UserManager.sol:UserManager",
        "label": "__gap",
        "offset": 0,
        "slot": "1",
        "type": "t_array(t_uint256)50_storage"
      },
      {
        "astId": 937,
        "contract": "contracts/user/UserManager.sol:UserManager",
        "label": "__gap",
        "offset": 0,
        "slot": "51",
        "type": "t_array(t_uint256)50_storage"
      },
      {
        "astId": 2184,
        "contract": "contracts/user/UserManager.sol:UserManager",
        "label": "__gap",
        "offset": 0,
        "slot": "101",
        "type": "t_array(t_uint256)50_storage"
      },
      {
        "astId": 2493,
        "contract": "contracts/user/UserManager.sol:UserManager",
        "label": "__gap",
        "offset": 0,
        "slot": "151",
        "type": "t_array(t_uint256)50_storage"
      },
      {
        "astId": 48,
        "contract": "contracts/user/UserManager.sol:UserManager",
        "label": "_roles",
        "offset": 0,
        "slot": "201",
        "type": "t_mapping(t_bytes32,t_struct(RoleData)43_storage)"
      },
      {
        "astId": 333,
        "contract": "contracts/user/UserManager.sol:UserManager",
        "label": "__gap",
        "offset": 0,
        "slot": "202",
        "type": "t_array(t_uint256)49_storage"
      },
      {
        "astId": 11052,
        "contract": "contracts/user/UserManager.sol:UserManager",
        "label": "_admins",
        "offset": 0,
        "slot": "251",
        "type": "t_mapping(t_address,t_address)"
      },
      {
        "astId": 11054,
        "contract": "contracts/user/UserManager.sol:UserManager",
        "label": "_paused",
        "offset": 0,
        "slot": "252",
        "type": "t_bool"
      },
      {
        "astId": 11056,
        "contract": "contracts/user/UserManager.sol:UserManager",
        "label": "pauseGuardian",
        "offset": 1,
        "slot": "252",
        "type": "t_address"
      },
      {
        "astId": 11296,
        "contract": "contracts/user/UserManager.sol:UserManager",
        "label": "______gap",
        "offset": 0,
        "slot": "253",
        "type": "t_array(t_uint256)50_storage"
      },
      {
        "astId": 952,
        "contract": "contracts/user/UserManager.sol:UserManager",
        "label": "_status",
        "offset": 0,
        "slot": "303",
        "type": "t_uint256"
      },
      {
        "astId": 995,
        "contract": "contracts/user/UserManager.sol:UserManager",
        "label": "__gap",
        "offset": 0,
        "slot": "304",
        "type": "t_array(t_uint256)49_storage"
      },
      {
        "astId": 23321,
        "contract": "contracts/user/UserManager.sol:UserManager",
        "label": "stakingToken",
        "offset": 0,
        "slot": "353",
        "type": "t_address"
      },
      {
        "astId": 23323,
        "contract": "contracts/user/UserManager.sol:UserManager",
        "label": "unionToken",
        "offset": 0,
        "slot": "354",
        "type": "t_address"
      },
      {
        "astId": 23325,
        "contract": "contracts/user/UserManager.sol:UserManager",
        "label": "assetManager",
        "offset": 0,
        "slot": "355",
        "type": "t_address"
      },
      {
        "astId": 23328,
        "contract": "contracts/user/UserManager.sol:UserManager",
        "label": "uToken",
        "offset": 0,
        "slot": "356",
        "type": "t_contract(IUToken)15630"
      },
      {
        "astId": 23331,
        "contract": "contracts/user/UserManager.sol:UserManager",
        "label": "creditLimitModel",
        "offset": 0,
        "slot": "357",
        "type": "t_contract(ICreditLimitModel)15164"
      },
      {
        "astId": 23334,
        "contract": "contracts/user/UserManager.sol:UserManager",
        "label": "comptroller",
        "offset": 0,
        "slot": "358",
        "type": "t_contract(IComptroller)15116"
      },
      {
        "astId": 23336,
        "contract": "contracts/user/UserManager.sol:UserManager",
        "label": "newMemberFee",
        "offset": 0,
        "slot": "359",
        "type": "t_uint256"
      },
      {
        "astId": 23339,
        "contract": "contracts/user/UserManager.sol:UserManager",
        "label": "totalStaked",
        "offset": 0,
        "slot": "360",
        "type": "t_uint256"
      },
      {
        "astId": 23342,
        "contract": "contracts/user/UserManager.sol:UserManager",
        "label": "totalFrozen",
        "offset": 0,
        "slot": "361",
        "type": "t_uint256"
      },
      {
        "astId": 23347,
        "contract": "contracts/user/UserManager.sol:UserManager",
        "label": "members",
        "offset": 0,
        "slot": "362",
        "type": "t_mapping(t_address,t_struct(Member)23273_storage)"
      },
      {
        "astId": 23351,
        "contract": "contracts/user/UserManager.sol:UserManager",
        "label": "stakers",
        "offset": 0,
        "slot": "363",
        "type": "t_mapping(t_address,t_uint256)"
      },
      {
        "astId": 23355,
        "contract": "contracts/user/UserManager.sol:UserManager",
        "label": "memberFrozen",
        "offset": 0,
        "slot": "364",
        "type": "t_mapping(t_address,t_uint256)"
      }
    ],
    "types": {
      "t_address": {
        "encoding": "inplace",
        "label": "address",
        "numberOfBytes": "20"
      },
      "t_array(t_address)dyn_storage": {
        "base": "t_address",
        "encoding": "dynamic_array",
        "label": "address[]",
        "numberOfBytes": "32"
      },
      "t_array(t_uint256)49_storage": {
        "base": "t_uint256",
        "encoding": "inplace",
        "label": "uint256[49]",
        "numberOfBytes": "1568"
      },
      "t_array(t_uint256)50_storage": {
        "base": "t_uint256",
        "encoding": "inplace",
        "label": "uint256[50]",
        "numberOfBytes": "1600"
      },
      "t_bool": {
        "encoding": "inplace",
        "label": "bool",
        "numberOfBytes": "1"
      },
      "t_bytes32": {
        "encoding": "inplace",
        "label": "bytes32",
        "numberOfBytes": "32"
      },
      "t_contract(IComptroller)15116": {
        "encoding": "inplace",
        "label": "contract IComptroller",
        "numberOfBytes": "20"
      },
      "t_contract(ICreditLimitModel)15164": {
        "encoding": "inplace",
        "label": "contract ICreditLimitModel",
        "numberOfBytes": "20"
      },
      "t_contract(IUToken)15630": {
        "encoding": "inplace",
        "label": "contract IUToken",
        "numberOfBytes": "20"
      },
      "t_mapping(t_address,t_address)": {
        "encoding": "mapping",
        "key": "t_address",
        "label": "mapping(address => address)",
        "numberOfBytes": "32",
        "value": "t_address"
      },
      "t_mapping(t_address,t_bool)": {
        "encoding": "mapping",
        "key": "t_address",
        "label": "mapping(address => bool)",
        "numberOfBytes": "32",
        "value": "t_bool"
      },
      "t_mapping(t_address,t_struct(Member)23273_storage)": {
        "encoding": "mapping",
        "key": "t_address",
        "label": "mapping(address => struct UserManager.Member)",
        "numberOfBytes": "32",
        "value": "t_struct(Member)23273_storage"
      },
      "t_mapping(t_address,t_uint256)": {
        "encoding": "mapping",
        "key": "t_address",
        "label": "mapping(address => uint256)",
        "numberOfBytes": "32",
        "value": "t_uint256"
      },
      "t_mapping(t_bytes32,t_struct(RoleData)43_storage)": {
        "encoding": "mapping",
        "key": "t_bytes32",
        "label": "mapping(bytes32 => struct AccessControlUpgradeable.RoleData)",
        "numberOfBytes": "32",
        "value": "t_struct(RoleData)43_storage"
      },
      "t_struct(CreditLine)23292_storage": {
        "encoding": "inplace",
        "label": "struct UserManager.CreditLine",
        "members": [
          {
            "astId": 23277,
            "contract": "contracts/user/UserManager.sol:UserManager",
            "label": "borrowers",
            "offset": 0,
            "slot": "0",
            "type": "t_mapping(t_address,t_uint256)"
          },
          {
            "astId": 23280,
            "contract": "contracts/user/UserManager.sol:UserManager",
            "label": "borrowerAddresses",
            "offset": 0,
            "slot": "1",
            "type": "t_array(t_address)dyn_storage"
          },
          {
            "astId": 23284,
            "contract": "contracts/user/UserManager.sol:UserManager",
            "label": "stakers",
            "offset": 0,
            "slot": "2",
            "type": "t_mapping(t_address,t_uint256)"
          },
          {
            "astId": 23287,
            "contract": "contracts/user/UserManager.sol:UserManager",
            "label": "stakerAddresses",
            "offset": 0,
            "slot": "3",
            "type": "t_array(t_address)dyn_storage"
          },
          {
            "astId": 23291,
            "contract": "contracts/user/UserManager.sol:UserManager",
            "label": "lockedAmount",
            "offset": 0,
            "slot": "4",
            "type": "t_mapping(t_address,t_uint256)"
          }
        ],
        "numberOfBytes": "160"
      },
      "t_struct(Member)23273_storage": {
        "encoding": "inplace",
        "label": "struct UserManager.Member",
        "members": [
          {
            "astId": 23269,
            "contract": "contracts/user/UserManager.sol:UserManager",
            "label": "isMember",
            "offset": 0,
            "slot": "0",
            "type": "t_bool"
          },
          {
            "astId": 23272,
            "contract": "contracts/user/UserManager.sol:UserManager",
            "label": "creditLine",
            "offset": 0,
            "slot": "1",
            "type": "t_struct(CreditLine)23292_storage"
          }
        ],
        "numberOfBytes": "192"
      },
      "t_struct(RoleData)43_storage": {
        "encoding": "inplace",
        "label": "struct AccessControlUpgradeable.RoleData",
        "members": [
          {
            "astId": 40,
            "contract": "contracts/user/UserManager.sol:UserManager",
            "label": "members",
            "offset": 0,
            "slot": "0",
            "type": "t_mapping(t_address,t_bool)"
          },
          {
            "astId": 42,
            "contract": "contracts/user/UserManager.sol:UserManager",
            "label": "adminRole",
            "offset": 0,
            "slot": "1",
            "type": "t_bytes32"
          }
        ],
        "numberOfBytes": "64"
      },
      "t_uint256": {
        "encoding": "inplace",
        "label": "uint256",
        "numberOfBytes": "32"
      }
    }
  }
}